:020000022000DC
:1070000000000420B5720200DD720200DF7202008F
:10701000E1720200E3720200E5720200000000006B
:10702000000000000000000000000000E772020005
:10703000E972020000000000EB720200ED72020033
:10704000795F0300EF72020041640300EF720200F7
:10705000EF720200EF7202009D620300EF72020005
:10706000EF720200EF720200EF720200EF72020094
:10707000EF72020045680300EF720200EF72020037
:10708000EF720200F5880200EF720200EF72020058
:10709000EF720200EF72020019740300EDC50500E3
:1070A000EF720200EF720200EF720200EF72020054
:1070B000FD660300EF720200000000000000000007
:1070C000EF720200EF720200EF720200EF72020034
:1070D00039B50500EF720200EF720200EF72020094
:1070E000EF720200EF720200EF7202000000000077
:1070F00000000000EF72020000000000EF720200CA
:10710000000000000000000000000000000000007F
:10711000000000000000000000000000000000006F
:10712000000000000000000000000000000000005F
:10713000000000000000000000000000000000004F
:10714000000000000000000000000000000000003F
:10715000000000000000000000000000000000002F
:10716000000000000000000000000000000000001F
:10717000000000000000000000000000000000000F
:1071800000000000000000000000000000000000FF
:1071900000000000000000000000000000000000EF
:1071A00000000000000000000000000000000000DF
:1071B00000000000000000000000000000000000CF
:1071C00000000000000000000000000000000000BF
:1071D00000000000000000000000000000000000AF
:1071E000000000000000000000000000000000009F
:1071F000000000000000000000000000000000008F
:1072000010B5054C237833B9044B13B10448AFF3E0
:1072100000800123237010BD2849002000000000D9
:10722000F81A060008B5034B1BB103490348AFF336
:10723000008008BD000000002C490020F81A06005C
:10724000154B002B08BF134B9D46A3F5803A002138
:107250008B460F461348144A121A35F088FB0F4B21
:10726000002B00D098470E4B002B00D098470020F1
:10727000002104000D000D48002802D00C48AFF397
:10728000008035F0FDFA2000290011F09BFB35F05D
:10729000D1FA00BF00000800000004200000000038
:1072A0000000000028490020F0A10020000000009C
:1072B000000000000649074A074B9B1A03DD043B08
:1072C000C858D050FBDC12F05DFFFFF7B9FF00009B
:1072D000341D0600D037002028490020FEE7FEE7D5
:1072E000FEE7FEE7FEE7FEE7FEE7FEE7FEE7FEE776
:1072F000F0B595B01C46164608460D4602F0DAF980
:107300001A9B0D93CDE9086400242346082205A9A1
:1073100028460A948DF82C400C9402F0E9F9079B5A
:107320000293BDF81830ADF80C30BDF81A30ADF846
:107330000E309DF814308DF8114003F00302012A3D
:107340001DD1BDF81440059EC3F3C203C4F38314DA
:107350008DF81030A20008230EA9284602F0C8F9C3
:10736000C6F3952608AB0093224602AB0EA9304621
:1073700000F044FD284602F0A1F915B0F0BD022A44
:10738000F8D1BDF81640C3F3C203A4098DF810303C
:107390000827082C264628BF08263B4632460EA959
:1073A000284602F0A5F9A41B08AB02AA31460EA894
:1073B000374400F087FD002CEBD1DBE7014B0122C5
:1073C0001A707047854900207047000070B50F4D56
:1073D00006460FCD88B06C460FC495E80F00002E0E
:1073E00084E80F004FF01F030093094A09484FF04B
:1073F000805308BF0022694606930EF01BFD08B1BA
:1074000000F032FF044B1E7008B070BD2CE1050087
:10741000BD730200D03700204449002007B5044B5B
:107420000093044A4023FFF763FF03B05DF804FBB9
:10743000397402004549002038B50D4B0D4D002030
:1074400018700D4804782D5DD2B21C4665B1043029
:107450000FF0A2FE08B100F007FF084B1A7812B136
:107460002378002BFBD038BD0C300FF031FCF1E756
:10747000854900202C810020D0370020444900207D
:1074800008B50848084A0378D35C3BB104300FF0D4
:1074900015FE0020BDE80840FFF798BF0C300FF044
:1074A000BDFBF6E7D03700202C8100200120FFF73C
:1074B0008DBF000008B5FFF7F9FF0421034800F075
:1074C000FBFB034B01225A7108BD00BF1C1D0600C7
:1074D000E4370020037813F0040216D003F003030E
:1074E000012B03D0022B09D0012070470A680088C5
:1074F0000232C0F3831002440A60F5E70B68428849
:10750000023303EB92130B60EEE710467047000066
:107510002DE9F04F89B00546861C08A8484C019219
:1075200000230F4600F8113D01F060F823683B602E
:10753000D4E901231344226801339B1A04F21C4747
:1075400004F5836A04F21448B3421AD3019A002363
:10755000002A6DD0012262F3010343F0040365F3B6
:1075600089132168A2689DF80F000A4003320E4477
:1075700044F82230266001F05DF8012009B0BDE832
:10758000F08F0121384601F0BBFA504601F0D1FAE4
:10759000404601F0CEFA0DF120096068D4F808B039
:1075A00049F8100D00EA0B00033004EB8000494657
:1075B000FFF790FF049BB0B90BEA030204EB8202D1
:1075C000D16805919A1C013303EA0B0B04EB8B0C79
:1075D00001F00303012B0492DCF80CB020D0022B45
:1075E00004D083460BE00BEA0300DDE7BDF816305C
:1075F0009B0903334FEA1B4B02EB93030493404672
:1076000001F09AFA08B1049B63605946384601F0CC
:1076100077FAD4E901231344226801339B1A93E7D4
:10762000BDF81430C3F383134FEA1B4B1344E5E753
:10763000022262F3010343F0040365F39F5390E7D2
:10764000584A002030B50A4B0A4A0B49D21AD208D0
:1076500000239A4201D1052006E031F82350046846
:10766000A54202D10360002030BD0133F1E700BF25
:10767000E41B06001C1D0600F04700202DE9F84F12
:10768000224B2348FF229A600022C3F81824C3E942
:107690000022C3F8142483F8202401F0C4FF80469C
:1076A00088B91C481C4E1D4DDFF874A002F09AF9F1
:1076B000AD1BED084446AC4208D1002318491948D7
:1076C0001A469C421BD14046BDE8F88F4FF0000996
:1076D0004F4606EBC40BBC420AD0142256F83710B2
:1076E000DBF8000035F0AEFC0028C8BF09F1010945
:1076F0000137BD42EFD12AF824900134DBE701EBDA
:10770000830540F823206A800133DAE7584A0020D5
:10771000B41B06006CE10500E41B06001C1D0600FE
:10772000F04700208C48002007B5019031B9019A3C
:10773000064B53F8320003B05DF804FB01A8FFF7D5
:1077400081FF0028F3D00020F5E700BFE41B06000E
:10775000094B013903EBC000032909D8DFE801F028
:107760000A02040604207047007970474079704788
:107770000020704702207047E41B060030B5124C11
:1077800000EB400054F821508240072303FA00F038
:107790006A4002400D4B6A40C2F3821044F8212037
:1077A00003EB8101C2F3C203834238BF0346C2F335
:1077B0004220834202F0070238BF03469A4238BF94
:1077C0001A464A8030BD00BF8C480020F047002098
:1077D00037B5164B93F8203404460BB918B900247A
:1077E000204603B030BD35F025FC02AA013042F836
:1077F000080D012301A90E4802F002F905460028F0
:10780000EDD12146009A019835F08DF8DDE900238D
:107810001344074803F8015C009902F028F9009925
:10782000034802F03DF9019CDAE700BF584A002006
:107830006CE10500034BD3E90030C31A58425841AC
:10784000704700BF584A00202DE9F04F87B0FFF77E
:10785000F1FF0646002840F01B818E4DC5F8180444
:10786000BFF34F8F6868AC6806AF47F8100D204033
:10787000033005EB80003946FFF72CFE029B18B160
:10788000D5F81824002A66D004EA0302991C0133B3
:1078900005EB8202234005EB8303D268DB68049387
:1078A00002F00303022B0392029169D1BDF80E305E
:1078B00079489DF80C604FEA931ABAF1500FD146FF
:1078C00028BF4FF0500969F38F1309F10801ADF893
:1078D0000E3001F0C0FEC6F3C2068046002800F05C
:1078E000BE8001F0E7FE03A900230822404601F014
:1078F000F4FE029924EA01070137BF00B94538D9DF
:107900005FFA89F997B3FFB2A9EB07092140033168
:107910005FFA89FBB946614F05EB810108234A46AE
:10792000404601F0DAFE37B109F108035A463946FC
:10793000404601F0D2FE029B0AF1030A03EB9A03D0
:107940000293D5F81834002B50D1D5F81044DFF845
:10795000609107276FE02A689A4204D86A6030462F
:1079600007B0BDE8F08F04EA030081E74B49BB464E
:10797000D4E72140033108234A4605EB8101D7E7CC
:10798000012B6CD1BDF80C604348C6F38311062966
:1079900028BF062161F3891602318900ADF80C6019
:1079A00001F059FEC6F3C2068046002857D001F008
:1079B00081FE0023082203A9404601F08EFE002725
:1079C000BDF80C20C2F38312BB1C97424FEA83031D
:1079D000B7D202994A1C21400331029205EB810182
:1079E0000422404601F079FE0137E9E7404601F004
:1079F00065FEFFF71FFF80F00100C6B2AFE7E36846
:107A00005A79B2B11B79BDF8101003EB430259F853
:107A1000211007FA02F3052E03EA010323FA02F309
:107A200008BF0326B34204D3236841461B6820469F
:107A30009847E3681C68002CE1D1404601F03EFE07
:107A400006A800F8114D00F0D1FDD5F818340BB997
:107A5000029B6B609DF8070000F0ECFDC9E7D5F8CC
:107A6000104474B90E4B5B88012BC2D90D4B0E48E4
:107A70000E49C01AC008000440F0020000F072F87D
:107A8000B7E7236820469B689847E3681C68E8E7E7
:107A9000002664E7584A0020B41B0600644A002010
:107AA0000C480020E41B06001C1C060078E10500C1
:107AB0008C4800202DE9F74F284C80460F4692460F
:107AC00001A9012218469B46D4F80890FFF720FD33
:107AD00088B3019D0026A91C5E4506EB010234D146
:107AE00000211F4800F0D6FF80F310006A1C02EA54
:107AF000090204EB8202000405EA0903033340EAA9
:107B00001840D06014F8232068F3C50204F823203D
:107B100034F8232066F3891224F8232054F8232014
:107B2000012167F39F2244F8232061F301026FF3E0
:107B3000820204F8232094F820341BB1FFF784FE5E
:107B40000028FBD103B0BDE8F08F09EA020204EB84
:107B500082025AF82630D3600136BDE7584A002029
:107B6000744E002000231A46FFF7A4BF13B502ACE1
:107B7000012344F8042D2246FFF79CFF02B010BDFC
:107B800007B5CDE9002302236A46FFF793FF03B050
:107B90005DF804FB1FB5CDE90123069B039301AA01
:107BA0000323FFF787FF05B05DF804FB1FB5CDE9A0
:107BB0000023069B0293079B03936A460423FFF767
:107BC00079FF05B05DF804FB7FB5CDE90123089B83
:107BD0000393099B04930A9B059301AA0523FFF7CE
:107BE00069FF07B05DF804FB2DE9F3478046304C90
:107BF000D01C8A46174601A900228008A568FFF715
:107C000087FC002840D0DDF80490A66809F1020046
:107C1000019001362840361AB6000330B74204EB13
:107C200080003BD83A46514634F07DFE0021214881
:107C300000F030FF80F3100009F101032B4004EB4A
:107C400083034FEA184242EA0040D86005EA09037C
:107C5000033304EB830214F8231068F3C50104F81E
:107C6000231034F823106FF38F1124F82310518858
:107C700067F38F11518014F82320022161F3010270
:107C80006FF3820204F8232094F820341BB1FFF72D
:107C9000DBFD0028FBD102B0BDE8F087324651463B
:107CA00034F041FEBA1B0AEB060104F10C00BBE7FD
:107CB000584A0020744E00202DE9F8431F4B884697
:107CC000D3F81014054600240A469AB9E9680C71E5
:107CD000D3F81014A1B9C3F81054EB681A60184F08
:107CE000184EF61BF6084FF00009B14511D1204699
:107CF000BDE8F883D2681079A04218D01268E4E792
:107D0000C968EA6809681160D3F81034DB681D603F
:107D1000E5E707EBC9034946DA79EB68424528BF36
:107D200042461879FFF72AFD09F10109DDE7013420
:107D30000A2CC9D14FF0FF34D9E700BF584A0020C0
:107D4000E41B06001C1D060010B5037A052B0C462B
:107D50000FD0437A23B1084A0849204600F052FF69
:107D60000749204600F04EFF2046BDE8104000F0D5
:107D70003EBF002AF8D0F3E7D3E1050053FE05002B
:107D8000F5E1050073B5C38804460D4633B1144AC6
:107D900000921449144A284600F034FF217A05293C
:107DA0001CD0637A4BB1A088FFF7D2FC0F4B10496F
:107DB00053F82020284600F025FF227A0D4BA0889A
:107DC00053F822600021FFF7AFFC0B49034632460F
:107DD000284602B0BDE8704000F014BF02B070BD8C
:107DE000D3E10500E0E10500D8E10500A0E10500D0
:107DF00053FE050004E20500F8E105002DE9F0431B
:107E000085B01F460C9D002306460C46904695F80B
:107E10000C902B7329463846FFF7B4FFB8F1060FD4
:107E200009D8DFE808F00412181F28334000314653
:107E3000284600F0E7FE002229463846FFF784FF77
:107E400085F80C9005B0BDE8F083226831462846DD
:107E500000F0D8FEEFE7D4E900233146284600F0D1
:107E6000D1FEE8E7A36800933146D4E90023284611
:107E700000F0C8FEDFE7E3680193A3680093314692
:107E8000D4E90023284600F0BDFED4E7236902931D
:107E9000E3680193A36800933146D4E900232846A0
:107EA00000F0B0FEC7E76369039323690293E368B8
:107EB0000193A36800933146D4E90023284600F0DB
:107EC000A1FEB8E708292DE9F84F80460E4617466F
:107ED0001C4635D8002593F80C901D7319461046A2
:107EE000FFF750FFDFF88CA0DFF88CB0AE4229D945
:107EF00018F805205946204600F084FE0135082D6B
:107F0000F4D11A49DFF874B0204600F07BFE4FF040
:107F1000000A564524D918F80A507E2D17D92E226A
:107F20005946204600F06EFE0AF1010ABAF1080F28
:107F3000EFD1012221463846FFF706FF84F80C9066
:107F4000BDE8F88F5146204600F05CFED6E734F0DD
:107F5000BBFC2844427812F0970FE0D02A46DFE7B6
:107F60000349204600F04EFEDEE700BFCEE10500EB
:107F7000CCE10500CAE10500C4E10500D0E105003F
:107F8000C30710B507D4F0234008054A145C23400A
:107F90001943115410BD0901C9B20F23F4E700BF02
:107FA000284F002030B5094B1C78094B1968002375
:107FB0009C4202DC0022104630BD11F8335085424D
:107FC00001EBC302F7D00133F2E700BF144F0020EA
:107FD000484F002070B504460D46FFF7E3FF30B16F
:107FE000436823B129462046BDE87040184770BD5C
:107FF000034B044819680022490800F004BA00BF86
:10800000184F0020F037002010B5C0B2FFF7CAFFAC
:10801000044600780EF032F963785A1E53425341F9
:10802000834208D1044BD3E90023134303D1BDE8B5
:108030001040FFF7DDBF10BD204F00202DE9F348B1
:10804000394A43080446D35CC2074CBF1B0903F0FE
:108050000F030D46042B39D8DFE803F00328303D29
:10806000410099B30121FFF78BFF02A8002600F819
:10807000016D00F0BBFA2D4D0121A4F12007C4F1E0
:10808000200001FA07FC21FA00F04CEA000C01FA8A
:1080900004FBD5E900014BEA00024CEA0103C5E903
:1080A00000239DF8070000F0C5FA0FE0002914BF77
:1080B000022100212046FFF763FF07E049B10321B9
:1080C000FFF75EFF01212046FFF784FF02B0BDE805
:1080D000F0880121EEE70029F8D10421EAE709B18F
:1080E0000321E7E7FFF74CFF29462046FFF772FF21
:1080F00002A80E4E00F8015D00F078FAA4F1200706
:108100000121C4F1200001FA07FC21FA00F04CEA39
:10811000000C01FA04FBD6E9000120EA0B0221EA77
:108120000C03C6E90023BCE7284F0020204F0020A5
:108130002DE9F041124E134F00243378A34208DC9E
:10814000114BD3E90023134318D0BDE8F041FFF7EA
:108150004FBF3D6805EBC40815F834000EF08EF8EB
:1081600098F801104B1E594259410A1A514215F80C
:1081700034005141FFF762FF0134DEE7BDE8F081D2
:10818000144F0020484F0020204F0020092AF7B547
:1081900005460C4616463FD90DF096FFD8B11F4B49
:1081A0001F481D601F4B204F1C70204B00212022B8
:1081B0001E6034F0DCFB1E4B00200021C3E90001EF
:1081C000013CE4B20326FF2C0BD11A4A1A480021C5
:1081D00000F00EF903E00DF041FF0028DFD003B0FE
:1081E000F0BD9DF806308DF8046020B203F0FC036A
:1081F00005EBC0026FF382038DF80630937815F813
:1082000030008DF805303A4601A90DF067FF013CBA
:10821000E4B20028D7D0E2E70720E0E7484F00208B
:10822000284F0020144F002009800200184F002022
:10823000204F00203181020064E2050070B5084D36
:10824000084E00242B789C4201D3002070BD336877
:10825000012113F834000DF0C7FF0134F2E700BF2D
:10826000144F0020484F00201FB50021039001AAA1
:1082700044F20100CDE9011112F09AF905B05DF860
:1082800004FBD0E90223D1E90201994208BF9042E0
:108290002CBF0120002070472DE900480C4800F059
:1082A00015FB0C4BD3E9002312EB000B43F1000C40
:1082B000094BD3E900239C4508BF934558466146C6
:1082C00003D21BF180704CF10001BDE8008800BFB3
:1082D0002C380020504F0020B84F002037B50546FD
:1082E0000C460A4801A900F044FB60B105704460E7
:1082F00001A9064800F067FB18B1054800F0EAFA4A
:10830000002003B030BD0420FBE700BF1838002078
:108310002C3800202DE930481A4B1B7804461BB935
:1083200000252846BDE830880028F9D090F8203094
:1083300003F0FF05002BF3D0FFF7AEFFD4E90223D3
:10834000994208BF904217D323690BB984F82030B3
:10835000D4E90530984721690029E1D094F820300C
:1083600003F0FF05002BDBD0D4E9022312EB010B55
:1083700043F1000CC4E902BC2146034801F0B9FBFB
:10838000CFE700BF584F00209CE2050013B5114B0A
:1083900011491868019008235822104800F0B4FAD7
:1083A000044698B90E4A0F4801A900F067F904463F
:1083B00060B901210B4800F069FA01230A4A094813
:1083C000194600F0C7F9094B01221A70204602B085
:1083D00010BD00BF98E205005C4F00201838002057
:1083E000558402002C380020FFFF7F00584F0020EA
:1083F0003AB103685A614A1E514251411961002045
:1084000070470720704738B590F8203004460D4675
:1084100083B98261FFF740FF421941F10003C4E9CB
:108420000223236903B1256121460020BDE83840BD
:10843000FFF754BF002038BD0023014680F82030EC
:108440000120FFF74BBF0000014800F03FBA00BF1A
:108450002C3800202DE9F74F064600F020FA40B1F5
:108460005A49D1E9002312F1807443F10005C1E9B2
:1084700000450021304600F022FA38B1544C236800
:1084800023B12068FFF746FF002323600121304617
:1084900000F015FA20B1FFF7FFFE4E4BC3E90001D3
:1084A00001A94D484A4D4D4C4D4F00F09CFA002813
:1084B00045D1DFF828A1464CDFF82CB1504601F039
:1084C0002EFB2368002878D083B12368D0E902010D
:1084D000D3E90223994208BF90422DD2236893F832
:1084E00020301BB12168504601F003FB504601F0DB
:1084F00010FBD0E902890746FFF7CEFEB8EB000873
:1085000069EB010940464B46012873F1000347DB44
:10851000344DA84542D9FFF797FF42194FF496030F
:108520000021584600F03AF9002841D1236813B9D8
:10853000304600F007F9276003B0BDE8F08F0378FC
:10854000012B20D00BD3022B14D14FF00008204672
:1085500001F0DFFA002836D080F82080F7E7436882
:1085600093F8202032B9012283F820204168204668
:1085700001F0BFFA01A9184800F060FA01A91648F5
:1085800000F031FA93E741682B68994202D1002349
:108590002B60EFE7204601F0C5FAEBE7BA68BDE7CC
:1085A0000021584600F080F93846FFF7B3FE01E09D
:1085B0000D28F9D00023236080E7002BBCD1304682
:1085C00000F0C4F8B8E701233B70D3E7504F002018
:1085D000C04F0020B84F0020183800209CE2050052
:1085E000584F0020FFFFB4002C38002070B5EFF387
:1085F000108672B60C4A946801239CB993600B4BA9
:108600000B4DD3F8801029401160C3F88050D3F887
:10861000841051604FF0FF32C3F88420047006B913
:1086200062B670BD0370FAE72C80002000E100E024
:10863000FC06FFBD10B5084B9A685AB150B9EFF36C
:10864000108172B6054A1C6814605C6854609860BA
:1086500001B962B610BD00BF2C80002000E100E02F
:10866000435882B03BB10023435043580193019BD0
:10867000012002B070471846FBE7000070B5284C97
:108680004379284D44F82320274C04EBC3031B797E
:1086900073B16B88012B09D92448254B2549C01A91
:1086A000C008000440F00200FFF75CFA082070BD2B
:1086B00003680A88C3F8082590F904308A78002BEB
:1086C0004FEA4212AFBF03F1604303F00F031A49B0
:1086D000D2B2A9BF03F56143CA54D2B283F80023D2
:1086E00090F9043015495E09012203F01F0302FAD4
:1086F00003F341F82630437904EBC30144F8330017
:108700006B880A71022B09D90848094B0C49C01A19
:10871000C008000440F00300FFF724FA0020C6E779
:10872000CC4F002014480020C44F00202C1C060011
:10873000E41B0600D6E2050014ED00E000E100E0D5
:10874000F8E20500036801221A60704703680122FD
:108750005A607047F7B505684FF480348C40C5F80F
:1087600008430568C5F848438D0005F5A0750668FF
:10877000ADB20027775175590195019D056801F546
:10878000A87122F07F4245F821200268C2F84443D4
:1087900013B10368C3F8044303B0F0BD2DE9F347F8
:1087A00099464FF48038036808FA01F8C3F8488303
:1087B0000368C3F8088322F07F4502688E000F46E5
:1087C000D2F80415324406F5A076D2F84035C2F846
:1087D0004015B6B202684FF0000A42F806A05B1AD4
:1087E0009259009223F07F43012B0446009A0BD14B
:1087F000254B4FF4806043F001039847236843F80A
:1088000006A09B590193019B2368D3F80465C3F824
:108810004483AB1B23F07F43012B07F5A877236824
:1088200019D1013543F82750174B4FF4806043F0BE
:10883000010398472368D3F804359E4209D1236881
:10884000C3F8448323680020C3F8048302B0BDE862
:10885000F0870D20FAE743F827502068D0F8041578
:108860006A1A013AC9F1FF1322F07F4203F57F43F0
:108870009342EED3002AE2D1013540F82750236815
:10888000D3F804359942D9E7D0E205000268022303
:10889000C2F8443311B10268C2F8043370474FF490
:1088A00082710068FFF7DCBE4FF4803303FA01F1F8
:1088B0000368C3F848130368C3F8081370478900B6
:1088C00001F5A07189B20068FFF7CABE0368D3F84A
:1088D0000405704790F9043001215A0903F01F0381
:1088E00001FA03F34032024941F82230704700BFD9
:1088F00000E100E0024B034A1B681068184700BF04
:10890000CC4F0020C44F002010B561B1B2FBF3F48E
:1089100003FB1424A4B244B9C0E90014846082812A
:10892000C381204610BD0E20FCE70920FAE782B083
:1089300050E8022FC188B2EB324F4FF0000317BF4F
:1089400092B241EA014142EA014104E04268B2EBDD
:10895000324F08BF012340E80212002AE8D18DF807
:1089600007309DF80730002B0CBF1120002002B00B
:10897000704737B550E8013F9DB2C48925448489CA
:10898000A54228BF2D1B0489A54202BFBFF32F8F2C
:10899000002207E0C5EA030540E80154002CE9D1B4
:1089A0004FF001028DF803200193019B9DF80320F5
:1089B0000B6002F0FF0322B10B880068184403B07B
:1089C00030BD1846FBE70A884B889A4209D150E827
:1089D000012FC2EA024240E80123002BF7D1012017
:1089E00070470020704737B550E8023F1FFAA3F5E3
:1089F000C488A54202BFBFF32F8F00220DE0C489B7
:108A000025448489A54228BF2D1BC3EA054540E8BB
:108A10000254002CE8D14FF001028DF8032001939D
:108A2000019B9DF803200B6002F0FF0322B14B88ED
:108A30000068184403B030BD1846FBE70A884B882D
:108A40009A4209D150E8022FC2EA224240E80223AA
:108A5000002BF7D1012070470020704701F01F0262
:108A60004B090121914000EB830000F028B801F090
:108A70001F0301229A404B0900EB8300D14300F011
:108A800034B84B0901F01F0150F82300C84000F032
:108A90000100704750E8002F0B4640E8003C9CF076
:108AA000000FF7D11046704750E8002F42EA01034B
:108AB00040E8003C9CF0000FF6D11046704750E8AB
:108AC000003F43EA010240E8002C9CF0000FF6D181
:108AD0001046704750E8002F02EA010340E8003CCE
:108AE0009CF0000FF6D11046704750E8003F03EAB3
:108AF000010240E8002C9CF0000FF6D110467047B0
:108B000050E8003F03EB010240E8002C9CF0000F0E
:108B1000F6D11046704750E8003FA3EB010240E851
:108B2000002C9CF0000FF6D1104670470121FFF792
:108B3000BBBF0121FFF7C3BF0021FFF7CBBF00215F
:108B4000FFF7D3BF10B590B1D0E9012301689B1A9C
:108B5000DBB20A60013BDBB2FF2B026802D10020CE
:108B6000107110BD11684C1C14600B70F2E70E20E0
:108B7000F7E737B5054602A8002400F8014DFFF7D6
:108B800035FD2A68696813688B4210D9591E116037
:108B900013F8014CAA8AEB6802FB04342A68AB681C
:108BA00011685B1A1179DBB2994238BF13719DF8D5
:108BB0000700FFF73FFD204603B030BD37B505463F
:108BC00002A8002300F8013D0C46FFF70FFD2A68BC
:108BD0001368591C1160E968641AA98AB4FBF1F49E
:108BE0001C709DF80700FFF725FD03B030BD10B5E0
:108BF000826804462AB143690168006998470023E6
:108C0000A36010BD0EB403B5039929B102AA04AB49
:108C100042F8043D00F072F802B05DF804EB03B0D6
:108C200070470A2938B504460D4602D10D21FFF7D9
:108C3000F8FFA3682268591CA160D554D4E9013219
:108C40009A4204D32046BDE83840FFF7D0BF38BD74
:108C50002DE9F84F9946DDE90A43174682468846D2
:108C60000A460126BA420FD24E4538BF4E4613F08F
:108C7000010B01D164B900240125B9F1010F1AD902
:108C800009F1FF397D43F8E7B2FBF7F20136E9E776
:108C90009B070ED5B9F1000F0CBF30252025A64249
:108CA000EAD2013C29465046FFF7BBFF002CF6D123
:108CB000E1E72025F3E7B8FBF5F39F42E2D9DFF8BF
:108CC0003890B8FBF5F3504619F8031005FB1388EC
:108CD000FFF7A7FFB5FBF7F5002DF2D1BBF1000FB1
:108CE00002D00CB1A64201D3BDE8F88F2021504636
:108CF000013CFFF796FFF4E70AE305002DE9F74F83
:108D0000054690460E46002900F03A8116F8011BF0
:108D1000002958D0252940F0D180002702E047F0F3
:108D200001071646324612F8013B2D2BF7D0302BA7
:108D300004D02B2B05D147F00407F2E747F00207D8
:108D4000EFE700242A2B06F101021BD1D8F80030EE
:108D5000191DC8F800101B6816461C4433782E2BCA
:108D60001CD101364FF0000A314611F8012BA2F157
:108D70003000092814D80A2303FB0A23A3F1300A80
:108D80000E46F1E712F8013CA3F130010929E5D8BC
:108D90000A2101FB0434303C1646D3E74FF0000AA9
:108DA000324612F8011B01F0FB0068281646F8D085
:108DB000692916D054D8582970D00ED825297DD0CD
:108DC0003378002BA2D12B7B002B00F0D9802846D2
:108DD00003B0BDE8F04FFFF70ABF632968D06429EC
:108DE000EED1D8F80020111DC8F80010D2F800907C
:108DF00089EAE972A2EBE9724FF0010B092A61DC02
:108E0000D34538BFD3462CB1B9F1000F01DB790748
:108E100000D5013CBA0702D5BAF1000F04D0FB0718
:108E200002D4002C54D10024B9F1000F58DAC9F152
:108E300000092D212846FFF7F4FE07F00302022A5D
:108E400005D1BAF1000F02D1002C4DD10024CDE99B
:108E5000004753460A2249462846FFF7F9FEAFE786
:108E6000732954D016D87029AAD1D8F800301A1D09
:108E7000C8F80020302128461C68FFF7D2FE782170
:108E80002846FFF7CEFE00220823CDE90032214616
:108E90001022E1E775292FD0782991D1D8F8001058
:108EA0000A1DC8F80020CDE90047534610222CE0E7
:108EB000D8F800301A1DC8F8002019782846FFF7A6
:108EC000B0FE7DE70A230BF1010B92FBF3F295E76D
:108ED000A345A9D220212846013CFFF7A2FEA0E726
:108EE0007807AAD52B21A5E7A345B0D23021284683
:108EF000013CFFF796FEA7E7D8F80010CDE9004740
:108F00000A1DC8F8002053460A220968A4E7D8F8C9
:108F100000301A1DC8F80020F907D3F8009012D5C8
:108F20004F46A7EB090B17F8011B41B9A345BFF446
:108F300047AF20212846013CFFF773FEF6E728469D
:108F4000FFF76FFEEDE7B9F1000F17D0484634F098
:108F500071F80746BC4200D954B909F1FF3919F834
:108F6000011F00293FF42CAF2846FFF75AFEF6E711
:108F700020212846013CFFF754FEEBE74F46E9E786
:108F800003B0BDE8F08F000007B50B46A0B9154B44
:108F90005B886BB1144B1548154AC01A0E23C008E4
:108FA0000093144B0004144940F00100FEF7F2FD59
:108FB0000E2003B05DF804FB6BB90A4B5B88002BF5
:108FC000F6D0094B09480D4AC01AC0080E23009379
:108FD0000004084BE7E703601B68114603B05DF827
:108FE00004EB184760480020E41B0600C41C060080
:108FF000C7E305001AE30500CCE3050043E40500E0
:109000002DE9F3419646B0B9504B5B88002B00F038
:1090100095804F4B4F48504AC01AC0080E244F4B02
:10902000009400044E4940F00100FEF7B3FD2046D5
:1090300002B0BDE8F0816AB9444B5B88002B7DD05B
:10904000434B4448474AC01AC0080E240004009409
:10905000424BE7E7D0F800C0BCF1000F0DD13B4B0D
:109060005B88002B6CD03A4B3A483F4AC01AC00884
:10907000082400040094394BD4E76BB9334B5B8868
:10908000002B5FD0324B3348384AC01AC00809243D
:1090900000040094314BC5E74768D7F80480B3FB60
:1090A000F8F708FB17376FB1284B5B88002B49D0C6
:1090B000274B28482E4AC01AC008092400040094EF
:1090C000264BAFE78F070DD0204B5B88002B3BD0A2
:1090D0001F4B2048274AC01AC008102400040094DF
:1090E0001E4B9FE712F0030F0CD0184B5B885BB34D
:1090F000174B1848204AC01AC008102400040094D6
:10910000164B8FE7C768B9420BD34C1E05691C4448
:10911000AC4206D8DCF80C40A44602B0BDE8F041F1
:1091200060470A4B5B887BB1094B0A48134AC01A57
:10913000C008102400040094084B73E70E2476E75F
:10914000082474E7092472E7102470E760480020BF
:10915000E41B0600C41C0600C7E305002CE3050061
:10916000CCE3050049E405003DE40500FCE305000F
:109170004FE4050079E4050091E40500B4E405003E
:10918000F7B5A0B9374B5B88002B63D0364B374817
:10919000374AC01AC0080E24364B009400043649E2
:1091A00040F00100FEF7F6FC204603B0F0BDD0F819
:1091B00000C0BCF1000F0DD12A4B5B88002B4BD0B7
:1091C000294B2A482D4AC01AC008082400040094DC
:1091D000284BE4E76AB9234B5B88002B3ED0224B37
:1091E0002248274AC01AC008092400040094214BD1
:1091F000D5E74768D7F800E00EF1FF370F420CD0F3
:10920000184B5B8863B3184B18481E4AC01AC00835
:10921000102400040094174BC1E7C768B9420CD36F
:109220004C1E05690EFB0244AC4206D8DCF8104027
:10923000A44603B0BDE8F04060470A4B5B887BB1B1
:10924000094B0A48104AC01AC008102400040094B0
:10925000084BA4E70E24A7E70824A5E70924A3E701
:109260001024A1E760480020E41B0600C41C06008F
:10927000C7E305003FE30500CCE305003DE405003E
:10928000FCE3050052E3050078E3050029DF7047A1
:1092900028DF704770B50568AB6886B004460E4697
:1092A00073B114220021684633F061FBA368059373
:1092B0002379019633B1012B0ED0AB6868469847ED
:1092C00006B070BD01238DF8003023690293E36876
:1092D000039363690493F0E702238DF80030E36899
:1092E0001B030293F5E70846704700207047000013
:1092F000024B187A003018BF012070475C500020E4
:10930000034B187A0122B0FA80F05A744009704772
:109310005C50002008B510461A4633F004FB0020CC
:1093200008BD000008B514220021044833F01FFBDB
:109330000348FFF7FCFA002008BD00BF5C50002086
:109340003438002010B5094C094B43602046FFF724
:10935000EDFB40B90EF046F81C2320748C22054921
:109360000548FFF7D1FA002010BD00BF5C50002077
:10937000E8E40500D04F00203438002070B5244DBB
:10938000244E2B7A2C463BB923492448FFF72BFB6C
:10939000306008B9686070BD0223237233681A799F
:1093A00072B1012A24D018460321FFF773FF00236E
:1093B0002372636018491948BDE87040FFF73EBB4F
:1093C000D3E90520121AB2F5805F28BF4FF480520E
:1093D000D3E903159208012A014438BF0122284429
:1093E000FFF754FF50B11128DDD101232372D2E7DA
:1093F000D3E903021044FFF74BFFF3E7237C002B74
:10940000C9D10146BDE87040022000F009B800BF94
:109410005C50002074500020705000203438002030
:1094200038B5831E012B45D8234C237A002B41D01D
:10943000022B09D1032830D0204B00221B68E260A8
:109440001A793AB1012A22D0637C7BBBBDE838404F
:10945000FFF794BFD3E905128D1AB5F5805F94BF6D
:10946000521902F580529A619142EDD102284FF0D3
:10947000000308BF19462372104B18BF0D2118684E
:10948000FFF708FF0E490F48FFF7D8FADCE71A6923
:1094900001321A615B699A42E7E7E3680133082BFE
:1094A00001D8E360D0E70023E360DFE7BDE83840A0
:1094B0000DF088BF38BD00BF5C5000207450002004
:1094C000705000203438002000F0FD03012B08D13B
:1094D000044B00225A74421E504250411874FFF748
:1094E0004DBF70475C50002010B5064C201DFFF7A3
:1094F0001DFB28B9637C1BB9BDE81040FFF73EBFD8
:1095000010BD00BF5C5000202DE9F34180460D46A0
:109510000F4801A916461F46FFF72BFA0446A8B1CB
:109520001C22002133F023FA2D0B0123237101A902
:10953000C4F80080A760E56066610548FFF743FA5C
:10954000FFF7D2FF002002B0BDE8F0810420FAE767
:10955000343800202DE9F74381468846104801A998
:1095600017461E46FFF705FA0446B0B11C2200213B
:1095700033F0FDF900250A9BA36001A92571C4F809
:109580000090C4E9037866610548FFF71CFAFFF70D
:10959000ABFF284603B0BDE8F0830420FAE700BF24
:1095A000343800202DE9F047B0F806904479D2F81D
:1095B00000A09DF8208009FB04F4043C06460AEB59
:1095C0000300A0420F4688BFA4EB030A191DC2F88E
:1095D00000A0B1FBF9F509FB15114DB9A9EB010488
:1095E000544528BF5446BAF1000F04D1BDE8F087B6
:1095F0003668013DF1E704317B1970182246B8F155
:10960000000F0ED001461846AAEB040A33F08BF97E
:10961000D145254436684C464FF0000128BF5446DA
:10962000E1E71946F0E7FFF78DBAF8B5467901464C
:10963000721E0546002393422D6803D30024A642E0
:1096400002D8F8BD0133F6E70F682846FFF7B6FAEF
:1096500001343946F3E72DE9F843CD1C868A0746E5
:10966000FFF787FA043E35440446B5FBF6F5F0B142
:109670004FF48073EDB28380C680013D0760814660
:109680004FF00008A84512D23846FFF772FA064696
:1096900048B163790133637108F10108C9F800002A
:1096A00007608146EEE72046FFF7BFFF34462046BD
:1096B000BDE8F88301210430FFF722BA10B501217B
:1096C00004460430FFF727FA10F0FF0F04D12046BC
:1096D000BDE81040FFF7A9BF10BD1FB504AC44F8AA
:1096E000042D002200922246FFF75CFF04B010BD5B
:1096F0001FB504AC44F8042D012200922246FFF766
:1097000051FF04B010BD41DF70470000064B10B59B
:1097100000241C70054B1C60BFF35F8F0449054893
:1097200000F0D2F9204610BD805000208450002067
:1097300024E505007850002007B502A8002300F8B2
:10974000013DFEF753FFF1EE103A23F09F03E1EEE7
:10975000103ABFF35F8F0A4B4022C3F884219DF873
:109760000700FEF767FF0DF03DFE20B1FFF7CBFFCE
:1097700003B05DF804FB20BF40BF20BFF8E700BF87
:1097800000E100E0026813685268934291BFD01A6A
:1097900080680130801888BFC01A70472DE9F041F9
:1097A00003681F681D685B689D4284BF836801333E
:1097B000164688465D1BC2684168AE42044607FBF8
:1097C00002110CD87243404633F0ADF8A3683E4412
:1097D0009E4288BF002623681E60BDE8F08105FB1D
:1097E00002F73A46404633F09EF8E2686168751B1E
:1097F0006A4308EB070033F096F823681D60ECE736
:10980000036881681A685B688B4234BF01330023A8
:10981000D31A584258417047F7B5044602A80023AE
:1098200000F8013D0D46FEF7E1FE2046FFF7E8FF98
:1098300010B1237C002B3DD12168A6684B684A6893
:10984000B24234BF013200224A6038B12168A068B8
:109850000A68824234BF013200220A60E26860680E
:10986000511E072920D8DFE801F004101F141F1F24
:109870001F182A78C2542046FFF784FF23689A688D
:10988000824200D29860002415E02A8820F8132034
:10989000F1E72A6840F82320EDE7D5E9006700EBFF
:1098A000C300C0E90067E6E7294602FB030033F086
:1098B0003AF8E0E704249DF80700FEF7BBFE2046D7
:1098C00003B0F0BDF7B506460F46144600259AB121
:1098D00002A800F8015DFEF789FE3046FFF752FF4F
:1098E000A0420CD3224639463046FFF757FF2C469C
:1098F0009DF80700FEF79EFE204603B0F0BD05244C
:10990000F6E737B5054602A8002400F8014DFEF73A
:109910006DFE0C222146286833F029F89DF80700D7
:10992000FEF788FE03B030BD13B5044602A800233D
:1099300000F8013DFEF75AFE2046FFF723FF0446DC
:109940009DF80700FEF776FE204602B010BD0368C2
:1099500018685B68C31A58425841704773B505468A
:1099600002A8002300F8013D0C461646FEF73EFE15
:109970002846FFF7ECFF002832D129680B682EB982
:109980000A68A868824238BF561C0E60EA68696897
:10999000501E07281ED8DFE800F0040E1D121D1D02
:1099A0001D16CB5C237000249DF80700FEF742FED5
:1099B000204602B070BD31F813302380F3E751F830
:1099C00023302360EFE701EBC301D1E90023C4E9B1
:1099D0000023E8E703FB0211204632F0A4FFE2E790
:1099E0000524E1E78268002393608268136182683E
:1099F00053618268D36082685360826813607047E5
:109A0000F8B505460F4616461C4683B9AB6868682C
:109A1000D3E9031300F1010CCA1A62450ED10027E5
:109A2000376014B3A868FFF78AF80020F8BD806893
:109A3000FFF77CF80028E9D01120F7E701EA0002DF
:109A40001840824236BF6344ACEB02035B1A3168B4
:109A5000994294BF316033602B6813443B60AA681D
:109A60003168D3680B44D360DFE72046DEE738B5C2
:109A7000846843682569A26801332B449B1A8B4292
:109A80000CD30A44A26083689A68DA608068FFF7A2
:109A900053F800280CBF0820002038BD0420FCE744
:109AA00010B5826813699468E41A8C420AD30B4497
:109AB000136183681A695A6180680430FFF73FF8C0
:109AC000002010BD0420FCE701600B6843604A6879
:109AD000934204BF002343607047436843B1026868
:109AE00091680B4443605268934204BF0023436073
:109AF000704770B5446806460D46206818B1B368D3
:109B00002946984718B923682B60256070BD2468E2
:109B1000F3E74368186808B102681A607047436841
:109B2000186870474368186800B97047884202682F
:109B300002D11A600120704703461046F4E7000086
:109B40000D4930B5A1F594720225914201D800204B
:109B50000EE08B1ADB1093FBF5F302EBC30452F813
:109B60003330834205D802D204F10802EDE7606881
:109B700030BD2146E9E700BF80E6050008B5FFF7E4
:109B8000DFFF024B002808BF184608BD42E505006C
:109B9000F8B5164C05460E4694F88A7023F0D2FCB0
:109BA000F0B1202F1CD1124B124843F6FF3203FBB9
:109BB000062300214FF47052B3FBF2F222F0EEFCC8
:109BC0003146284606F03AFA68B9082384F88A3004
:109BD000012384F878300523237084F84450F8BDBD
:109BE0006FF02200FBE74FF0FF30F8E79E80002087
:109BF00040420F00A99D0200F8B50F4B002420221F
:109C00000F460D2183F88A201C7083F8784083F872
:109C10008C1022462346054623F06CF9064650B1C7
:109C2000214628461DF07DFF377029460348BDE8D0
:109C3000F84022F08DBBF8BD9E8000202DD304009B
:109C400073B502AB00220C4603F8012D11461DF03E
:109C5000B7F838B90A4B9DF8071093F843200D2543
:109C6000824202D86FF01B0006E005FB0036F67B4F
:109C70008E4203D12070002002B070BD0130EFE7AA
:109C80009E8000200B4BD3F801202AB983F878205E
:109C9000114609481DF05BBC8C2A0BBF0722062227
:109CA00083F8782083F8782007BF00220321002260
:109CB0000221EEE79E800020F99B020037B5114C8F
:109CC00005461DF00DFD2278042A07D142782AB9F5
:109CD00029460D481DF03BFC03B030BD0DF10701D6
:109CE0004088FFF7ADFF0028F6D19DF80730074800
:109CF0000D2202FB034329465A7D01325A7522F098
:109D000027FBE9E79E800020C19F020089A1020095
:109D100008B50022FF21094822F008FE0022FF2199
:109D2000074822F003FE75220021064832F01FFE8C
:109D3000054B064AC3F8F82B08BD00BF859C0200FE
:109D4000A99D02009E8000206C87002039A302009C
:109D500010B5044602F0D6FF40B1064BD3F885108B
:109D6000204689B2BDE81040FFF712BF6FF009002E
:109D700010BD00BF9E80002010B50022084C09488D
:109D8000114622F0D3FD94F8440006F0BBFA0023FC
:109D90002022237084F88A2084F8783010BD00BF18
:109DA0009E800020A99D020010B5044620B90948F4
:109DB000BDE810401DF0A6BBFFF7DEFF00230C211D
:109DC00020461A4623F096F821460348BDE8104085
:109DD00022F0BEBAA99D02002DD3040008B50022CE
:109DE000FE21054822F0A2FD002201210348BDE822
:109DF00008401DF0ACBB00BF859C0200F99B02002F
:109E000070B50C4BD3F845302BB11C7CD3F81150F6
:109E10000023A34201DB002070BDC3EB03122A44E0
:109E20001688864202D1127A8A4201D10133F0E7C4
:109E30000120F1E79E8000202DE9F047044688B01C
:109E4000C0790E461DF04CFC90F80BA0077B8046B5
:109E50005744D4F80950BD4280F090802B1D08EB88
:109E60004303AA4594BF02210121B3F80590484657
:109E7000FFF7C6FF002800F08A80DFF838A11C2118
:109E800030461DF0C1FDDAF809300546D046002BFA
:109E900050D0217806A81CF019FCA279DAF809A0A4
:109EA00022444B46527806A90220D047002841D1CF
:109EB0006FF04402D4F809309F4270D13D4F97F8BB
:109EC0004A30002B67D0B7F875204FF6FF739A42DF
:109ED00061D00025217806A81CF03AFC2B462A46C2
:109EE00001210095304603F009FDB7F8751022F006
:109EF00020F901464FF48273042201F8015BCDE999
:109F00000232049597F844300193A379234406AABA
:109F10005B7800933046022303F07EFCA379E1795D
:109F200025480133A37122F013FA0023E37108B02E
:109F3000BDE8F0871C220021284632F018FD284693
:109F400023F08EF998F844302B72A5F80A90B8F8EF
:109F500075204FF6FF739A4212D1217805F10D005A
:109F60001CF0B4FB03232B73A379234430465B78A6
:109F70006B75124B2672AB6112F00AF8002299E75A
:109F800001232B73B8F87530A5F80D30ECE70135D7
:109F9000C4F809505DE730461DF042FBBEE7002AD9
:109FA000C5D00133C4F8093031462046FFF744FFDD
:109FB000BDE700BF9E80002089A102005DA00200D5
:109FC0002DE9F341CFB2054638460C461DF088FB1B
:109FD000204EC1888046D6F8450002F09CFFB8F8B4
:109FE00002300DF10701A8B11846FFF729FE30BB7A
:109FF0009DF807300D2101FB036429462076607629
:10A00000A076E0762046A7750F30FFF715FF02B067
:10A01000BDE8F0811846FFF713FE804678B99DF839
:10A0200007000D2303FB00603946437D0133437570
:10A03000094822F08DF9002DE9D0444600E015B121
:10A0400028461DF0EDFA002CE1D0E0B21DF0E8FA50
:10A05000DDE700BF9E80002089A102002DE9F04FBE
:10A060001C2185B08146304C1DF0CEFC94F8432075
:10A07000834600250D21954215D32C4B1B687BB9D7
:10A0800010F073FA014658B904230093CDF80490F8
:10A090004FF4BA7340F25B324FF0FF3022F0DAFE39
:10A0A00005B0BDE8F08F01FB05F804EB0803D87D8F
:10A0B00048450DD10026DE7548461DF02BFD48B100
:10A0C0006FF07303A670E67026716370012609E0D5
:10A0D0000135D0E701236070A070E070207184F832
:10A0E0004A3006460D2707FB054702A8F97B1CF0FE
:10A0F000EDFAD4F809A0BAF1000F07D07B7D1F4418
:10A1000002A9BBF80A303A7C3046D0470D2303FB46
:10A11000054508F10F00AB690133AB6149462044A6
:10A12000FFF78AFEBCE700BF9E800020E895002074
:10A1300070B50E460546014630461DF0F2FC8C2DEA
:10A140000F4C03D1072384F8783002E0B5B984F8C6
:10A1500078502378052B06D1002394F878200C2121
:10A16000304622F0C7FE00232370202384F88A3073
:10A1700031460448BDE8704022F0EAB80623E2E721
:10A180009E8000202DD304002DE9F34105461DF0EB
:10A19000A7FA0DF105014088FFF752FD0746002898
:10A1A0004AD19DF80530274C0D2202FB0346717DF4
:10A1B000307D884222D93144284691F8108003210D
:10A1C0001DF0E0FA03223946044632F0D0FBF17B61
:10A1D0000DF106001CF0BCFABDF80630238084F8AF
:10A1E00002801949284625F0D1FFFF2803D12946CE
:10A1F0008A20FFF79DFF02B0BDE8F081FF21022B0E
:10A20000F1730BD803FB022000F10F01C3F103032C
:10A2100002305A432144204432F090FB94F84330FA
:10A22000013BDBB284F8433033B9D4F801208C2AE7
:10A2300008BF072384F87830002DDCD028461DF0B5
:10A24000EFF9D8E79E800020BD9C02002DE9FF4772
:10A25000364D80461DF044FA95F80090B9F1040F90
:10A2600007465AD10DF10D014088FFF7E9FC8246FF
:10A27000002858D19DF80D400D2606FB04560DF11F
:10A280000E00F17B1CF064FA3B793375042B86F8E1
:10A2900015A029D9264B1A689A4602BB10F065F919
:10A2A000014650B9337D40F25B32CDE900934FF067
:10A2B000FF3040F2B33322F0CDFDDAF8003073B94D
:10A2C00010F053F9014650B90423CDE9003340F2B0
:10A2D0005B3240F2B5334FF0FF3022F0BBFD0D236F
:10A2E00003FB045304221A750D2303FB0453197D49
:10A2F00004EB440304EB830400238B4206D3414662
:10A300000C4822F025F804B0BDE8F087FA1850791F
:10A310001A192A4401331074EFE76FF00700414621
:10A32000FFF706FFEFE70020F9E700BF9E8000205F
:10A33000E895002089A102002DE9F047664D2B78B1
:10A34000042B8CB0064640F0C380D5F801301C3396
:10A3500004D100236B70AB70EB702B711B21304666
:10A360001DF052FB1B22014605A832F0DCFA03A9BE
:10A37000BDF815001CF050FD28B9584B93F8340E69
:10A3800010F0200414D0062130461DF03DFBBDF82E
:10A39000153043800380002383805149304625F0E7
:10A3A000F5FDFF2874D131468A20FFF7C1FE6FE02A
:10A3B000FF238DF80A302B78BDF815709DF81F909B
:10A3C000042B1FFA87F810D10DF10A014046FFF760
:10A3D00037FC70B195F84330032B04D88DF80A3060
:10A3E000013385F84330204601E06FF00700012477
:10A3F00000E004469DF80AA0BAF1FF0F4DD0002CF2
:10A4000049D000220DF10B03114640461CF0D8FC48
:10A41000002842D10D2303FB0A539DF80B20DA7369
:10A42000187558754FF00D0808FB0A5898F8143045
:10A43000032B35D808EB0302013382F8109088F81B
:10A440001430002C43D0052130461DF09BF9052225
:10A450000446002132F08BFA002363700D2303FBC6
:10A460000A5567802B7D23711E4B1B6863B910F062
:10A470007CF8014640B900904FF45F7340F25B32C4
:10A480004FF0FF3022F0E6FC3146174821F060FF24
:10A490000CB0BDE8F0870028C4D0314600B284E794
:10A4A000104B1B68002BCCD110F05FF80146002840
:10A4B000C7D198F8143001930423009340F25B3223
:10A4C00040F271334FF0FF3022F0C4FCB9E7304660
:10A4D0001DF0A6F8DCE700BF9E8000206C870020FE
:10A4E00089A50200E895002089A10200F7B50E4673
:10A4F00002A9FF25044601F8025D3046FFF7A0FBE4
:10A50000A0B31F4A92F84330032B04D88DF80630CD
:10A51000013382F843309DF80650FF2D29D002AB5D
:10A52000002203F8012D114630461CF049FC074675
:10A53000F8B9134B0D2202FB05359DF80730EB737C
:10A54000022120461DF01EF905460222394632F04E
:10A550000EFA2E800B49204625F031FEFF2803D14C
:10A5600021468A20FFF7E4FD03B0F0BD8DF80650C8
:10A57000D1E7002CF8D020461DF052F8F4E700BFD8
:10A580009E8000204DA2020037B504461DF0A8F8B9
:10A59000054620461DF0BEFA024658B969890DF1FC
:10A5A0000703A81C1CF032FD69892046FFF79EFFB7
:10A5B00003B030BD20461DF033F8F9E70D4930B542
:10A5C000A1F5BC720225914201D800200EE08B1A41
:10A5D000DB1093FBF5F302EBC30452F833308342F4
:10A5E00005DC02DA04F10802EDE7606830BD2146BF
:10A5F000E9E700BFC0EE050008B5FFF7DFFF024B3B
:10A60000002808BF184608BD2EEA05002DE9F743CB
:10A610000A9F1E4680468946154603F08DF9D0F8FC
:10A62000B030DBB103F088F90097D0F8B040334682
:10A630002A4649464046A04704464A4641462846DF
:10A6400006F0B5FC14F1450F03460BD148B13A466C
:10A650002946304603B0BDE8F04318476FF0440484
:10A66000EBE70446204603B0BDE8F0832DE9F04156
:10A67000069F05461E4606F0AFFC044630B13A463A
:10A68000314628462346BDE8F0411847BDE8F08131
:10A69000B0F80F30B3F5A06F01D105F0C9BB70471A
:10A6A0000020704770B51B2188B005461DF0ACF93D
:10A6B0001B22014601A832F036F903F03DF9D0F82B
:10A6C000AC604EB103F038F9D0F8AC309DF8100012
:10A6D00098476FF01E0017E003F02EF9D0F89C3079
:10A6E000002BF6D0342128461DF08EF91D2303706F
:10A6F0009DF8103043704660044603F01DF9D0F811
:10A700009C3028469847606803F062F901A9024628
:10A71000284606F0FBFC08B070BD000010B5FF280D
:10A7200088B0044607D103F007F90C4BC0F8583243
:10A73000012008B010BD1B211DF066F91B22014647
:10A7400001A832F0F0F89DF8173023B921460448EB
:10A7500021F0FEFDECE70020EBE700BF48380020C9
:10A76000A5A6020007B5054B00930023044A01216A
:10A77000184606F085FA03B05DF804FB1DA7020039
:10A78000A1A60200F8B50C46154607461E4602F083
:10A79000B9FA0122002102F0EEFB90B1122301224E
:10A7A0000021384604F096F958B14368187840B94A
:10A7B0001EB1052C05D90B2C02D1032D01D0002090
:10A7C000F8BD0120FCE708B50346104644F202023A
:10A7D000934236D012D8042B05D8032B05D2012B77
:10A7E00028D900202CE0072BFBD102F06DFEB0F53C
:10A7F0007F4F4FF0FF3038BF002021E044F20C02C1
:10A8000093420FD844F20B029342EED244F2030279
:10A8100093421DD044F20A029342E2D102F054FE68
:10A820001F2810E04FF6FD729342DAD102F04CFE81
:10A83000032808E00078FF284FF0FF3018BF002001
:10A8400008BD007802284FF0FF3098BF0020F7E7DE
:10A8500000780128F7E710B544F20A030C460122FC
:10A860004FF4407104F036F900B34368432C188864
:10A870000CD8402C1BD2092C04D8072C14D3C0F3BD
:10A88000C00013E00A2C0CD000200FE0472C11D0A0
:10A8900004D8442CF8D1C0F3800007E04B3C012CD5
:10A8A000F2D8C0F3001001E000F0010010BDC0F3C9
:10A8B0004000FBE710F01B0F14BF01200020F5E75C
:10A8C00008B501220B464FF4407104F003F94368C8
:10A8D000187808BD08B501220B464FF4407104F00A
:10A8E000F9F84368188808BD2DE9F0430F4687B092
:10A8F00006211C46154606461DF086F80621848072
:10A900000770458030461DF07FF80622014604A8F6
:10A9100032F009F8BDF812309DF8100001224FF412
:10A92000407104F0D7F88378212B04461FD1436887
:10A930001A88BDF814309A426CD002F0FDFFD0F8AE
:10A940009C300DF114080BBB00240022CDE90082DD
:10A95000BDF812309DF8100001224FF4407102F052
:10A9600023FB201C18BF012007B0BDE8F0839DF831
:10A9700014308DF80F30426812789A424AD002F0B3
:10A98000DBFF0DF10F08D0F89C30DCE734213046B6
:10A990001DF03AF861680546A07802F049F8A378FE
:10A9A000482B074603D028D8413B022B29D83946EB
:10A9B00030461CF0E7FE3421814630461DF024F875
:10A9C00005463A464146484631F0ADFF2F73C5F87B
:10A9D000109000232B709DF810306B70A378AB7033
:10A9E0004FF440732B8123886B8102F0A5FFD0F8D0
:10A9F0009C30304698476C68A7E74A2BD7D0F12B9C
:10AA0000D5D03A46414605F10C0031F08CFF002DBF
:10AA10009AD0DEE70024A4E738B501224388054632
:10AA20004FF44071007804F055F882784368B5F926
:10AA30000440212A0CBF1B881B78002C234417DDFF
:10AA40002989994207DAA879F8B1212A4FF6FF72CD
:10AA500018BFFF229B1A00249BB26A882978687865
:10AA6000FFF742FFA0B984F0010000F0010038BDFB
:10AA7000F2D029899942EEDDA87930B1212A4FF62A
:10AA8000FF7218BFFF221344E5E70B460124E3E7FA
:10AA90000020EAE72DE9F04190B005460FF0D8FF1D
:10AAA0003421064628461CF0AFFF3422014603A895
:10AAB00031F039FF0C9B374AF41A944288BF9C1B33
:10AAC0000D9BB4FBF3F414F0FF041ED1DDE90C136D
:10AAD00004FB03320A442F48971B874200D9B71A58
:10AAE00004FB03142846342127EAE7770C941CF072
:10AAF0008BFF342203A931F016FF3A462946264837
:10AB000021F04CFD10B0BDE8F081BDF828309DF873
:10AB10001820ADF8023023F480438DF80020B3FAFA
:10AB200083F3BDF82A208DF801505B091FFA84F8E1
:10AB300012FB08F28DF806306846BDF82C30ADF8EF
:10AB40000830ADF80420FFF767FFBDF8383007463E
:10AB5000CBB1ADF80230BDF83A309DF818208DF831
:10AB6000002013FB08F3ADF8043000238DF8063005
:10AB70006846BDF83C308DF80150ADF80830FFF75D
:10AB80004BFF0743FFB2002FA0D128461CF048FD21
:10AB9000B8E700BFFEFFFF7F95AA0200F0B591B0B5
:10ABA00005460FF055FF3021064628461CF02CFFC5
:10ABB0003022014604A831F0B6FE0B9A454BBDF990
:10ABC00032708DF80550B41A9C4288BF941B4FF424
:10ABD00070534FF47A715C43B4FBF1F4BDF8361056
:10ABE000BDF83030ADF80630A4B2214407FB01F2C5
:10ABF0004FF47A70B3FA83F392FBF0F212B25B096E
:10AC000012FB00F090FBF7F0091AADF836108DF842
:10AC10000A309DF81C10BDF834308DF8041001A8DE
:10AC2000ADF80820ADF80C30FFF7F6FEA0B1BDF886
:10AC30003010072912D19DF80400FFF74BFEBDF834
:10AC400034703F1A18BF0127BDF8381041B987BBCF
:10AC500028461CF0E5FC3AE00746F5E70127F3E754
:10AC6000BDF83E30BDF93A008DF805501C4400FB9C
:10AC700004F34FF47A7293FBF2F31BB213FB02F26C
:10AC8000ADF80830002392FBF0F28DF80A30A41AD8
:10AC9000BDF83C309DF81C20ADF83E4001A88DF871
:10ACA0000420ADF80610ADF80C30FFF7B5FE002813
:10ACB000CDD0302128460B961CF0A6FE302204A9E8
:10ACC00031F031FE05222946034821F067FC11B01E
:10ACD000F0BD00BFFEFFFF7F9DAB02002DE9F041FC
:10ACE00088B006460FF0B4FE2021054630461CF021
:10ACF0008BFE20220146684631F015FE9DF80C407F
:10AD000044F202012046FFF7DBFD00283FD044F269
:10AD100003012046FFF7D4FD44F204010128204638
:10AD20000CBF4FF001084FF0FF38FFF7D3FD4FF491
:10AD30008043074601224FF44071204603F0CAFECB
:10AD40004368234A1888079943F6FF3302FB073705
:10AD50004FF47053B7FBF3F74FF6FF73B3FBF7F302
:10AD60001C4F6A1ABA4288BF4A1B03FB08F302FB56
:10AD700003034FF6FE72934224DDA3F57F43FF3BAE
:10AD80009BB24FF4804221463046FFF7ADFD079B52
:10AD9000104A0795DC1D641B944284BFEC1A073CE3
:10ADA000202130461CF030FE24EAE474694620225B
:10ADB00031F0B9FD22463146074821F0EFFB08B0DB
:10ADC000BDE8F081002BBCBF03F57F43FF33D7E71D
:10ADD00040420F00FEFFFF7FDDAC02001FB504AB59
:10ADE00023F8022D0022CDE900320B4601224FF458
:10ADF000407102F0D9F805B05DF804FBF0B58FB0F2
:10AE000006460FF025FE3421044630461CF0FCFDBA
:10AE10003422014601A831F086FD0C98404B0D9D6F
:10AE2000404A211A994288BF041B4FF4705394BFC3
:10AE300003FB01F45C43B4FBF2F4A4B2BDF8203090
:10AE40009DF8100001224FF440712D1B03F042FECB
:10AE5000BDF82430F5B18278BDF82070BDF822002D
:10AE6000212A27F480474FF6FF71A3EB000218BF99
:10AE7000FF2137B99DF82670002F4DD0834200D2B4
:10AE80000A4402FB04F30D9AB3FBF2F30344994224
:10AE9000B8BF5B1A9BB2BDF820209DF81010304659
:10AEA000FFF722FDBDF82830CBB101224FF44071ED
:10AEB0009DF8100003F00EFEBDF82C303DB1BDF83A
:10AEC0002A209B1A63430D9CB3FBF4F313449BB2FB
:10AED000BDF828209DF810103046FFF705FD25EA43
:10AEE000E57292B202219DF81000FFF777FF002D66
:10AEF0000EDD342130461CF087FD342201A931F0EB
:10AF000012FD05223146084821F048FB0FB0F0BD84
:10AF100030461CF085FBF9E78342B2D9521AB0E7FC
:10AF2000FEFFFF7FA0860100FDAD02001FB504AB50
:10AF300003F8012D0022CDE900320B4601224FF427
:10AF4000407102F031F805B05DF804FB2DE9F84FCF
:10AF500001220E4608234FF44071044603F0BAFD67
:10AF600043681B78B342074667D044F2010120468C
:10AF7000FFF7A6FC8146032800F2F580DFE800F029
:10AF80000D67B2024FF480412046FFF7A3FC002179
:10AF9000C0F307222046FFF7C9FF00212046FFF734
:10AFA0008FFC012105462046FFF78AFC6F4A05EB1E
:10AFB000000C1FFA8CFC01214FF000089646937993
:10AFC00092F807B0EB1A002BA0EB0B0BB8BF5B425B
:10AFD000BBF1000FB8BFCBF1000B5B449BB26345E4
:10AFE0005FFA81FA01F101013CBF9C46D046082975
:10AFF00002F10602E3D1062303FB08E8032198F8D7
:10B00000022020461202FFF7E9FE98F803200421EF
:10B0100012022046FFF7E2FEB8F80420072120467E
:10B02000FFF7DCFEB9F1030F07D02A0202F47F42DA
:10B030004FF480412046FFF7D1FE7B681E703246F8
:10B04000204644F20101BDE8F84FFFF76FBF03212E
:10B050002046FFF73FFC042105462046FFF73AFC57
:10B06000C5F30F25C0F30F20404A05EB000C1FFA73
:10B070008CFC01214FF000089646137A92F809A043
:10B08000EB1A002BA0EB0A0AB8BF5B42BAF1000F23
:10B09000B8BFCAF1000A53449BB263455FFA81F915
:10B0A00001F101013CBF9C46C846082902F1060295
:10B0B000E3D1062303FB08F80EEB08091EF808503D
:10B0C00020462A460021FFF731FF99F8012020464B
:10B0D0000121FFF72BFFB9F8042007212046FFF7D5
:10B0E0007DFEA2E707212046FFF7F4FBDFF87CC0D6
:10B0F0008646012200214FF00608654608FB02C380
:10B100005FFA82F99B88AEEB0303002BB8BF5B426A
:10B110009BB2834202F101023CBF18464946082A0D
:10B12000ECD14FF0060808FB01F805EB08092046B2
:10B1300099F8022003211202FFF750FE99F803202C
:10B14000204612020421FFF749FE15F80850204658
:10B150002A460021FFF7EAFE99F801200121204646
:10B16000FFF7E4FE61E700255FE700BFC0EE0500E2
:10B170002DE9F0410F4606460F2301224FF440719E
:10B18000384603F0A7FC10B90120BDE8F081436800
:10B1900030461C781CF0AEFA01281FD80025A846BE
:10B1A00018F0010F05D0EB074CBF44F0010404F088
:10B1B000FE04384601F0A6FD0122062101F0DBFE67
:10B1C0000028E1D0002103F081FB0028DCD0436897
:10B1D0001B78002BD8D104F00100D6E730461CF0D4
:10B1E0007FFA0028DAD090F80080457802213046B6
:10B1F0001CF040FBD4E70000FF2810B5044606D140
:10B2000002F09AFB0E4BC0F85832012010BD1B21F2
:10B210001CF0FAFBC37C0A2B09D9403BDBB20C2B98
:10B220000BD841F69F0222FA03F3DB0705D5002273
:10B23000214604481CF08BF9E7E70020E6E700BF51
:10B240006C38002089B2020007B5FE210DF107021B
:10B2500021F06CFB9DF8070008B11CF0E1F903B088
:10B260005DF804FB08B50548FFF7EEFF0448FFF75B
:10B27000EBFF0448BDE80840FFF7E6BFFDAD020064
:10B280009DAB020095AA02002DE9F04FCCB29DB013
:10B290001B21064620461CF0B7FB1B2201460EA8C8
:10B2A00031F041FB9DF84B30092B00F0918672D8AC
:10B2B000042B00F06E840CD8012B00F00683C0F044
:10B2C0005982022B00F08283032B00F0F0830025CB
:10B2D0006EE3062B00F03785C0F0C484072B00F026
:10B2E000BF85082BF3D11B2120461CF08DFB1B22B0
:10B2F000014615A831F017FB20461CF0FBF9032886
:10B3000000F2498601259DF867109DF86000FFF75F
:10B31000A2FA002800F04482002D41F00D829DF831
:10B3200060102046FFF724FF002800F06182BDF97D
:10B330002C3023B9BDF92E30002B00F05C849DF831
:10B340006050FFF78FFF28460121FFF7FFFD3021F6
:10B3500020461CF059FB1B2215A9054631F0EEFAD8
:10B360000FF076FB0323E8612B84BDF82C306B844F
:10B370004FF6FF680027C5F824802F85EF85302120
:10B3800020461CF041FB04230385BDF82E30438585
:10B39000A0F82C8001E3432B00F0FC8700F2F18041
:10B3A000402B00F0C28678D80A2B90D11B21204672
:10B3B0001CF02AFB1B22014615A831F0B4FA2046E6
:10B3C0001CF098F9032800F2898601259DF8671082
:10B3D0009DF86000FFF73FFA002800F0E181002DA2
:10B3E00041F0AA81BDF82C204FF6FF739A4200F07D
:10B3F000F7819DF860102046FFF7BAFE002800F0A4
:10B40000F7819DF86050072301224FF440712846D0
:10B4100003F060FBBDF82E30804613B90123ADF870
:10B420002E3044F20B012846BDF82C70FFF752FA7B
:10B43000874280F06C8644F20B012846FFF74AFAF7
:10B44000ADF82C00FFF70EFF28460221FFF77EFD26
:10B45000342120461CF0D8FA1B22054615A931F0EC
:10B460006DFA0723AB83D8F804301B88EB83BDF853
:10B470002C202A840027AF84D8F804301B889342FC
:10B480002CBF0023012385F822300FF0E1FAE86297
:10B49000BDF82E302B6300F0C9BC412B00F0E686CE
:10B4A000422B7FF414AF1B2120461CF0ADFA1B2267
:10B4B000014615A831F037FA20461CF01BF9042884
:10B4C00000F2458701259DF867109DF86000FFF7A1
:10B4D000C2F9002800F06481002D41F02D81BDF8F3
:10B4E0002D30002B00F07C819DF860102046FFF786
:10B4F0003FFE002800F07C81BDF82F309DF8607081
:10B5000023B901238DF82F308DF83050FFF7AAFEB4
:10B5100038460021FFF71AFD0322384644F20101A4
:10B52000FFF704FD342120461CF06EFA15A90546EC
:10B530001B2231F003FA00274FF48043AB83AF8521
:10B540009DF82C20BDF82D30012A4FF6FF780CBF56
:10B550000122424613FB02F3EB830FF079FA686293
:10B56000BDF82F30CD49A5F8208043F6FF3201FB0E
:10B570000323CB484FF470522146B3FBF2F3AB6286
:10B580000DE2472B00F0FD877DD8442B7FF49FAE62
:10B590001B2120461CF038FA1B22014615A831F069
:10B5A000C2F920469DF860701CF0A4F8062800F24D
:10B5B000828701259DF867109DF86000FFF74BF921
:10B5C000002800F0ED80002D41F0B6809DF860105D
:10B5D0002046FFF7CDFD002800F00A8129463846B5
:10B5E000FFF7B4FC9DF82C309B0706D59DF82E2064
:10B5F00044F203013846FFF799FC9DF82C305D07B3
:10B6000006D5BDF82F2044F204013846FFF7E6FBCB
:10B610009DF82C30180706D5BDF8312044F20501FD
:10B620003846FFF7DBFB9DF82C5015F0010500F0C4
:10B6300077819DF82D20003218BF012244F20201CB
:10B640003846FFF773FC9DF82D50012D00F06F87F1
:10B65000C0F05487022D40F0C3804FF48043012294
:10B660004FF44071384603F035FA436801221D88D3
:10B670004FF4407144F20603384603F02BFA436856
:10B680001D8000F06ABF4B2B00F0A6874C2B7FF487
:10B690001EAE1B2120461CF0B7F91B22014615A83F
:10B6A00031F041F920469DF860501CF023F808283D
:10B6B00001F2188001279DF867102846FFF7CBF8A4
:10B6C00000286DD0002F41F0378029462046FFF733
:10B6D0004FFD002800F07E82BDF82F3023B90123F2
:10B6E0008DF82F308DF83070FFF7BCFD9DF82C30B1
:10B6F000012B01F05780BDF831702FB944F20B01D6
:10B700002846FFF7E7F8074628460221FFF71EFC08
:10B710000222284644F20101FFF708FC34212046AA
:10B720001CF072F915A905461B2231F007F94FF0FC
:10B7300000080723AB83A5F82C809DF82C20BDF8CA
:10B740002D30012A4FF6FF7208BF012213FB02F3CE
:10B75000EB830FF07DF96862BDF82F304F492F84DD
:10B7600043F6FF3201FB03234FF47052B3FBF2F3B5
:10B77000AB6288E11B2120461CF046F91B220146E2
:10B7800015A831F0D0F820461BF0B4FF032809D8E3
:10B7900001259DF867109DF86000FFF75CF8C0B9BF
:10B7A000812226E020461BF09BFF0028F0D0037882
:10B7B0008DF82C30022243788DF82D3081180DF150
:10B7C0002E0031F0B0F8042120461CF053F800257B
:10B7D000DFE7002D40F0B0879DF82C30FF2B01D122
:10B7E000872206E09DF860102046FFF7C1FC38B9BB
:10B7F0002A4615A9204605F089FC6FF003058FE065
:10B800009DF8608029464046FFF75AF8BDF82E3073
:10B81000074613B90123ADF82E30FFF723FD0021B1
:10B820004046FFF793FB9DF82D50012D3CD027D3C8
:10B83000A91E4D424D41342120461CF0E5F88046BA
:10B840001B2215A94FF0000931F078F8A8F81C90D8
:10B85000A8F81E709DF82C30A8F82030A8F8249085
:10B8600088F822500FF0F4F8C8F82C00BDF82E30FC
:10B87000C8F830300B48214620F06AFD00F07EBE4B
:10B880009DF82C309F422CBFFF220022DD1B154467
:10B890007F2D8CBF00250125CDE700BFA0860100CC
:10B8A00095AA0200FDAD02009DF82C309F422CBFEE
:10B8B000FF2500256D429D420CBF7D42C7F1010569
:10B8C0007E2D94BF00250125B5E71B2120461CF0E5
:10B8D0009BF81B22014615A831F025F820469DF85B
:10B8E00060701BF007FF01281ED801259DF8671026
:10B8F0009DF86000FEF7AFFF00283FF451AF002D28
:10B9000040F01A879DF860102046FFF731FC0028B0
:10B910003FF46EAFBBF1000F15D1FFF7A3FC00257C
:10B92000002E45D000F045BE20461BF0D9FE002871
:10B93000DBD0437890F800B00693022120461BF03C
:10B9400099FF0025D2E7069B23B90BF0FD03012BDD
:10B950003FF446AFFFF786FC38460021FFF7F6FAC2
:10B96000302120461CF050F81B2215A9054630F066
:10B97000E5FF0FF06DF8BBF1010F069AE8614FF695
:10B98000FF7308BF012312FB03FA0027FE232F8455
:10B99000A5F822A06B622F85EF85AF48214620F0E5
:10B9A000D7FC3A4615A9304605F0B0FB6FF0030509
:10B9B0009DF84F30002B00F0C386002D40F0FB8631
:10B9C00020461BF02DFE1DB0BDE8F08F1B21204648
:10B9D0001CF01AF81B22014615A830F0A4FF2046DF
:10B9E0001BF088FE022851D801259DF867109DF8AC
:10B9F0006000FEF730FF00283FF4D2AE002D40F08B
:10BA00009B86079B002B3FF4EBAE9DF86010204611
:10BA1000FFF7AEFB00283FF4EBAE9DF86070B8F185
:10BA2000000F08BF4FF00108FFF71CFC38462946FD
:10BA3000FFF78CFA342120461BF0E6FF1B2215A9E4
:10BA4000074630F07BFFBAF1010F079ABD834FF62E
:10BA5000FF7308BF012312FB03F9BD85A7F81E90F1
:10BA60000EF0F6FF7D4A786243F6FF33BAF1010F1C
:10BA700002FB08384FF47053B8FBF3F3BB620CBF02
:10BA8000FE2300233B8421467548F5E620461BF043
:10BA900027FE0028A8D0437890F800A090F80280F4
:10BAA0000793032120461BF0E5FE00259DE71B219F
:10BAB00020461BF0A9FF1B22014615A830F033FFDA
:10BAC00020461BF017FE02284ED801259DF867106E
:10BAD0009DF86000FEF7BFFE00283FF461AE002D28
:10BAE00040F02A869DF82C30FF2B3FF479AE9DF86C
:10BAF00060102046FFF73CFB00283FF479AE9DF82C
:10BB0000608001214046FEF7DBFEBDF82D30074680
:10BB100023B901238DF82D308DF82E50FFF7A2FBAD
:10BB200040460021FFF712FA342120461BF06CFF3B
:10BB30001B22054615A930F001FF0123EF83AB83DB
:10BB40009DF82C302B849F422CBF002701274FF0FB
:10BB50000008A5F8248085F822700EF079FFE862CD
:10BB6000BDF82D302B6385E620461BF0B9FD00287B
:10BB7000ABD00146022211F8013B8DF82C300DF1BB
:10BB80002D0030F0D0FE032120461BF073FE00256F
:10BB90009CE71B2120461BF037FF1B22014615A8FE
:10BBA00030F0C1FE20461BF0A5FD012814D8012766
:10BBB0009DF867109DF86000FEF74DFE00283FF4E9
:10BBC000EFAD002F40F0B8859DF860102046FFF7DC
:10BBD000CFFA78B93A460CE620461BF081FD0028E2
:10BBE000E5D0437805780893022120461BF042FEF9
:10BBF0000027DDE715B9FFF735FB91E6089B002B21
:10BC00003FF4EEAD9DF86080FFF72CFB40463946CF
:10BC1000FFF79CF9302120461BF0F6FE1B2215A9E8
:10BC2000804630F08BFE0EF013FF01239D42089AF0
:10BC3000A8F820304FF6FF7308BF012312FB03F36F
:10BC4000A8F82230FE23C8F81C00C8F82430A8F851
:10BC50002870A8F82E70A0E69DAB0200A086010017
:10BC600095AA02001B2120461BF0CEFE1B22014696
:10BC700015A830F058FE20461BF03CFD022852D893
:10BC800001259DF867109DF86000FEF7E4FD00288F
:10BC90003FF486AD002D40F04F85099B002B3FF40B
:10BCA0009FAD9DF860102046FFF762FA00283FF430
:10BCB0009FAD9DF86080002F08BF0127FFF7D2FAE3
:10BCC00040462946FFF742F9342120461BF09CFEEE
:10BCD0001B2215A9804630F031FE01239945099AAF
:10BCE000A8F81C304FF6FF7308BF012312FB03F3C3
:10BCF000A8F81E30A8F82C500EF0AAFEB24AC8F8D8
:10BD0000240043F6FF33B9F1010F02FB07374FF46C
:10BD10007053B7FBF3F70CBFFE230023C8F828705D
:10BD2000A8F82030AFE620461BF0DAFC0028A7D0A8
:10BD3000437890F8009087780993032120461BF000
:10BD400099FD00259DE71B2120461BF05DFE1B226F
:10BD5000014615A830F0E7FD20461BF0CBFC032878
:10BD600067D801259DF867109DF86000FEF773FD08
:10BD700000283FF415AD002D40F0DE849DF82C30F6
:10BD8000FF2B3FF42DAD9DF82D30FF2B3FF428AD58
:10BD90009DF860102046FFF7EBF900283FF428AD2E
:10BDA0009DF860802B4601224FF44071404602F01E
:10BDB00091FEBDF82E30814613B90123ADF82E3027
:10BDC000FFF750FA00214046FFF7C0F83421204623
:10BDD0001BF01AFE054615A91B22002730F0AEFD08
:10BDE000AF83D9F804301B78EB839DF82C202A848C
:10BDF000AF84D9F804301B7893422CBF0023012371
:10BE000085F822300EF024FEE862BDF82E302B6358
:10BE1000342120461BF0F8FD01210546818440466F
:10BE2000FEF74EFDE8849DF82D302B8521466748AE
:10BE3000B5E520461BF054FC002892D003788DF81D
:10BE40002C30022243788DF82D3081180DF12E0010
:10BE500030F069FD042120461BF00CFD002581E730
:10BE60001B2120461BF0D0FD1B22014615A830F0F7
:10BE70005AFD20461BF03EFC052870D801259DF890
:10BE800067109DF86000FEF7E6FC00283FF488ACE0
:10BE9000002D40F05184BDF82C30B3F57F4FBFF436
:10BEA0009FACBDF82E30B3F57F4FBFF499AC9DF831
:10BEB00060102046FFF75CF900283FF499AC9DF82C
:10BEC0006070032301224FF44071384602F002FEF5
:10BED000BDF83030814613B90123ADF83030FFF79B
:10BEE000C1F901213846FFF731F8342120461BF013
:10BEF0008BFD15A905461B2230F020FD0323AB83E3
:10BF0000D9F804301B88EB83BDF82C202A844FF02D
:10BF10000008A5F82480D9F804301B8893422CBF70
:10BF20000023012385F822300EF092FDE862BDF86F
:10BF300030302B63012204234FF44071384602F065
:10BF4000C9FD3421054620461BF05EFD0423838491
:10BF50006B681B88C384BDF82E3003858AE42046B5
:10BF60001BF0BEFB0546002888D0014602220BA824
:10BF700030F0D9FC0222A9180DF12E0030F0D3FCCC
:10BF8000291D02220CA830F0CEFC062120461BF011
:10BF900071FC002573E720461BF0A2FB0546002834
:10BFA0003FF4B0A9014602220BA830F0BCFC0222EB
:10BFB000A9180DF12E0030F0B6FC042120461BF02C
:10BFC00059FC0025FFF79FB9A0860100FDAD0200D6
:10BFD0001B2120461BF018FD1B22014615A830F03E
:10BFE000A2FC20461BF086FB05285BD801259DF8A6
:10BFF00067109DF86000FEF72EFC00283FF4D0ABE0
:10C00000002D40F099839DF860102046FFF7B0F8AE
:10C0100000283FF4EDABBDF830309DF8605013B907
:10C020000123ADF83030FFF71DF928460121FEF756
:10C030008DFF342120461BF0E7FC1B22054615A985
:10C0400030F07CFC4FF000080323AB83A5F82C8074
:10C05000BDF82C30EB830EF0FBFC6862BDF830308D
:10C06000CA4943F6FF3201FB03234FF47052B3FB7E
:10C07000F2F3AB62BDF92C304FF6FF674345CCBFFE
:10C080003B4643462B84342120461BF0BDFC042351
:10C090008385BDF82E30C3851BB24345D8BF4746C4
:10C0A0000786F0E420461BF01BFB054600289DD0C8
:10C0B000014602220BA830F036FC0222A9180DF12D
:10C0C0002E0030F030FC291D02220CA830F02BFC91
:10C0D000062120461BF0CEFB002588E720461BF0FA
:10C0E000FFFA054600283FF470A9014602220BA87A
:10C0F00030F019FC0222A9180DF12E0030F013FCCB
:10C10000042120461BF0B6FB0025FFF75FB944F27F
:10C110000C012846BDF82C70FEF7DCFB87427FF649
:10C1200091A944F20C01FFF788B91B2120461BF0AE
:10C130006BFC1B22014615A830F0F5FB20461BF0D6
:10C14000D9FA042859D801259DF867109DF8600098
:10C15000FEF781FB00283FF423AB002D40F0EC827A
:10C160009DF860102046FFF703F800283FF440AB2D
:10C170009DF860804FF480414046FEF7ABFBBDF870
:10C180002F30074623B901238DF82F308DF830501A
:10C19000FFF768F800214046FEF7D8FE032244F27C
:10C1A00001014046FEF7C2FE9DF82E50012D4ED0F3
:10C1B0003DD3AA1E55425541342120461BF024FC94
:10C1C0001B22804615A930F0B9FB4FF48043A8F834
:10C1D0001E70A8F81C30BDF82C30A8F820300027BD
:10C1E000A8F8247088F822500EF032FCC8F82C0011
:10C1F000BDF82F30C8F8303018E620461BF070FA32
:10C20000054600289FD0014602220BA830F08BFB88
:10C21000AB788DF82E30E91C02220DF12F0030F0A2
:10C2200082FB052120461BF025FB00258CE7BDF88D
:10C230002C304FF6FF759F422CBF2A460022DD1B93
:10C240001544B5F5004F2CBF00250125B4E7BDF816
:10C250002C309F422CBFFF220022DD1B154447F6E5
:10C26000FE739D4294BF00250125A5E71B212046B2
:10C270001BF0CAFB1B22014615A830F054FB2046D8
:10C280009DF860701BF036FA02284BD801259DF806
:10C2900067103846FEF7DFFA00283FF481AA002D28
:10C2A00040F04A8239462046FEF762FF00283FF4FC
:10C2B0009FAA9DF82C30002B3FF49DACBDF82D308B
:10C2C000002B3FF48DAAFEF7CDFF38462946FEF736
:10C2D0003DFE0322384644F20101FEF727FE3021DD
:10C2E00020461BF091FB15A91B22074630F026FBC8
:10C2F0000EF0AEFB4FF48043F8613B849DF82C3088
:10C300002348012B4FF6FF72BDF82D307A620CBF27
:10C310000121114613FB01F37B843D85FD852146F8
:10C32000FFF7AABA20461BF0DBF90028AED0014681
:10C33000022211F8013B8DF82C300DF12D0030F068
:10C34000F2FA032120461BF095FA00259FE72046CC
:10C350001BF0C6F9054600283FF4B4A801460222A6
:10C3600011F8013B8DF82C300DF12D0030F0DBFA87
:10C37000E91C02220DF12F0030F0D5FA05212046EC
:10C380001BF078FA0025FFF79EB800BFA0860100D9
:10C390009DAB02001B2120461BF036FB1B220146F1
:10C3A00015A830F0C0FA20461BF0A4F9042868D87C
:10C3B00001259DF867109DF86000FEF74CFA0028F3
:10C3C0003FF4EEA9002D40F0B7819DF860102046A3
:10C3D000FEF7CEFE00283FF40BAA9DF860702B46B6
:10C3E00001224FF44071384602F074FBBDF82F3043
:10C3F000814623B901238DF82F308DF83050FEF798
:10C4000031FF00213846FEF7A1FD032244F201016D
:10C410003846FEF78BFD342120461BF0F5FA15A9AE
:10C4200005461B2230F08AFA4FF48043AB83D9F8DB
:10C4300004301B88EB83BDF82C202A844FF00008C1
:10C44000A5F82480D9F804301B8893422CBF002320
:10C45000012385F822300EF0FBFAE862BDF82F3098
:10C460002B63342120461BF0CFFA0121054681843D
:10C470003846FEF725FAE8849DF82E302B85FFF725
:10C48000F9B920461BF02CF90546002890D001464A
:10C4900002220BA830F047FAAB788DF82E30E91C59
:10C4A00002220DF12F0030F03EFA052120461BF04C
:10C4B000E1F900257DE720461BF012F9054600282A
:10C4C0003FF477A803788DF82C3043788DF82D3021
:10C4D00083788DF82E30C11C02220DF12F0030F030
:10C4E00022FA691D02220DF1310030F01CFA0721F9
:10C4F00020461BF0BFF90025FFF75CB8B748FEF7F0
:10C50000A3FE44F2060301224FF44071384602F0C4
:10C51000E1FA436801221D884FF440714FF48043D3
:10C52000384602F0D7FA43681D80FFF7F8B94FF498
:10C5300080432A464FF44071384602F0CBFA4368F4
:10C540002A46B3F800804FF4407144F205033846A0
:10C5500002F0C0FA4368A3F80080202120461BF0B7
:10C5600053FA1B2215A9054630F0E8F90EF070FACF
:10C570000022E8612146994820F010F80022FFF7D8
:10C5800011BA1B2120461BF03FFA1B22014615A8B9
:10C5900030F0C9F99DF860709DF867103846FEF7D5
:10C5A0005AF958B9812215A9204604F0AFFD6FF061
:10C5B000030530461BF034F8FFF7FAB93946204638
:10C5C000FEF7D6FD30B1002202213846FEF706FC08
:10C5D000FEF748FE0025ECE71B2120461BF014FA6D
:10C5E0001B22014615A830F09EF920469DF8608078
:10C5F0001BF080F8062853D801259DF867109DF898
:10C600006000FEF728F900283FF4CAA8002D40F08A
:10C6100093809DF860102046FEF7AAFD00283FF4A5
:10C62000E7A89DF82C30002B3FF4E5AABDF82D209B
:10C63000002A3FF4D5A8012BBDF8317000F0AC8082
:10C64000BDF82F702FB944F20B014046FEF742F9B6
:10C650000746FEF707FE02214046FEF777FC302131
:10C6600020461BF0D1F91B2215A9054630F066F9CA
:10C670000EF0EEF90723E8612B849DF82C30012B96
:10C680004FF6FF7318BF1A46BDF82D30AF8408BFB0
:10C69000012213FB02F300276B84EF84FFF77BB9C1
:10C6A00020461BF01DF805460028A5D001460222B1
:10C6B00011F8013B8DF82C300DF12D0030F033F9DD
:10C6C000E91C02220DF12F0030F02DF9691D022224
:10C6D0000DF1310030F027F9072120461BF0CAF890
:10C6E00000258AE720461AF0FBFF074600283EF4A3
:10C6F000E1AF0146022211F8013B8DF82C300DF11B
:10C700002D0030F010F9F91C02220DF12F0030F04D
:10C710000AF9791D02220DF1310030F004F9F91DFA
:10C7200002220DF1330030F0FEF8092120461BF003
:10C73000A1F80027FEF7BFBF6FF00905FFF7F0B8BB
:10C74000291D3FF440A920461BF056F8182303701A
:10C750009DF84D3043700B2383709DF84B30C370B0
:10C76000002D0CBF00238523037100224FF440737A
:10C77000CDE90332BDF8493002939DF8443001936E
:10C780009DF843300093411D02230DF139022046EC
:10C7900001F042F8FFF717B9002F7FF45AAF44F2C7
:10C7A0000C0152E7BDF83370002F7EF4ADAF44F2B8
:10C7B0000C01FEF7A5BF04353FF405A920461BF088
:10C7C0001BF8182303709DF84D3043700B238370C2
:10C7D0009DF84B30C3708523C6E700BFDDAC020077
:10C7E00007B5064B0093064A002301214FF4407021
:10C7F00004F046FA03B05DF804FB00BFF9B1020093
:10C80000C7A7020037B50146044600220F481AF0B8
:10C810009EFE0546B8B10E4B1B6873B90DF0A5FE20
:10C82000014650B90423009301954FF49F6340F6ED
:10C830000F024FF0FF3020F00DFB204603B0BDE8A3
:10C8400030401AF0EDBE03B030BD00BF81D202000F
:10C85000E895002013B5154AD2F844391BB1D2F837
:10C8600048392BB90123023302EB8303C3F83C0997
:10C87000D2F84039BBB9C2F840090D481AF042FE5F
:10C88000044680B10B4B1B686BB90DF06EFE014680
:10C8900048B90423009301947D2340F60F024FF022
:10C8A000FF3020F0D7FA02B010BD00BF6C87002027
:10C8B00041D30200E8950020F8B5124BD3F8E839CF
:10C8C0000446007803B198470F4F22783A7000254C
:10C8D000237C9D4202D3FF233B70F8BDD4F8113076
:10C8E000C5EB05163344D3F80B3003B19847D4F8A1
:10C8F0001120B4F801102078324406F0B9FA01355D
:10C90000E6E700BF6C8700207C3800202DE9F04F5F
:10C91000454BD3F840398DB0002593F800A007931C
:10C92000AC465FFA8CF9CA457CD9079BD3F8013035
:10C9300053F805B05A199BF8103009920A93002257
:10C9400001231AE0C3EB0311C2EB02180B91002084
:10C950000999DDF82CE051F820100691097C089126
:10C960001946089C8C4210D8013009EB0001C9B26D
:10C970008A45EDD801330132DBB20A98D1B2884240
:10C98000E0D80CF1010C0435CBE7DBF81170069E02
:10C9900007EB08040594D6F811602488764437889C
:10C9A000A7423AD1059F367A3F7AB74235D1042C57
:10C9B00012D0192C10D0202C0ED040F20B76B4429D
:10C9C0000AD040F20126B44206D0B4F5006F03D07D
:10C9D0004FF65746B44220D1144B1B68CBB90DF02B
:10C9E000C4FDB0B9104BD3F84039D3F801305B59CE
:10C9F000D3F811309844014698F80830CDE9014346
:10CA00000823009340F60F02D2234FF0FF3020F0AE
:10CA100021FA00200DB0BDE8F08F0131C9B20EF14E
:10CA20000F0E9EE70120F5E76C870020E8950020B7
:10CA3000272807B5034620D041D81A2838D022D855
:10CA40000D2800F0978011D80A2831D007D808287F
:10CA500000F0898009287DD04FF0FF3084E00B285A
:10CA600000F086800C28F7D105207DE010287AD0D0
:10CA700005D80E2821D00F28EED1082074E0182800
:10CA800071D01928E7E720286DD00AD81D2871D069
:10CA900003D81B286CD01C28E5E71E280DD01F28C2
:10CAA000EAE7232864D005D8212853D02228D3D1FF
:10CAB000032059E025285DD0D6D9072054E03A2834
:10CAC000DBD019D82D2855D00AD82A28F0D003D881
:10CAD000282848D02928BEE72B2849D02C28C2E78F
