:1010000000000420B5120000DD120000DF12000015
:10101000E1120000E3120000E512000000000000F1
:10102000000000000000000000000000E7120000C7
:10103000E912000000000000EB120000ED120000B9
:1010400015B5000085AC0300DDB90000EF1200000B
:10105000EF120000EF12000039B80000EF1200009C
:10106000EF120000EF120000EF120000EF1200007C
:10107000EF120000EDBA0000EF120000EF120000C6
:10108000EF120000BDA10000EF120000EF120000FF
:10109000EF120000EF120000EF120000EF1200004C
:1010A000EF120000EF120000EF120000EF1200003C
:1010B000EF120000EF12000000000000000000002E
:1010C000EF120000EF120000EF120000EF1200001C
:1010D00085DA0300EF120000EF120000EF120000AB
:1010E000EF120000EF120000EF12000000000000FD
:1010F00000000000EF12000000000000EF120000EE
:1011000000000000000000000000000000000000DF
:1011100000000000000000000000000000000000CF
:1011200000000000000000000000000000000000BF
:1011300000000000000000000000000000000000AF
:10114000000000000000000000000000000000009F
:10115000000000000000000000000000000000008F
:10116000000000000000000000000000000000007F
:10117000000000000000000000000000000000006F
:10118000000000000000000000000000000000005F
:10119000000000000000000000000000000000004F
:1011A000000000000000000000000000000000003F
:1011B000000000000000000000000000000000002F
:1011C000000000000000000000000000000000001F
:1011D000000000000000000000000000000000000F
:1011E00000000000000000000000000000000000FF
:1011F00000000000000000000000000000000000EF
:1012000010B5054C237833B9044B13B10448AFF340
:1012100000800123237010BDE004002000000000C6
:101220009021040008B5034B1BB103490348AFF3F9
:10123000008008BD00000000E404002090210400AC
:10124000154B002B08BF134B9D46A3F5803A002198
:101250008B460F461348144A121A3CF0A2FF0F4B5C
:10126000002B00D098470E4B002B00D09847002051
:10127000002104000D000D48002802D00C48AFF3F7
:1012800000803CF017FF200029000BF065FC3CF0CB
:10129000EBFE00BF0000080000000420000000007A
:1012A00000000000E0040020209300200000000067
:1012B000000000000649074A074B9B1A03DD043B68
:1012C000C858D050FBDC0BF0C3FCFFF7B9FF00009F
:1012D0009422040008000020E0040020FEE7FEE75E
:1012E000FEE7FEE7FEE7FEE7FEE7FEE7FEE7FEE7D6
:1012F000F0B595B01C46164608460D4609F0EAFCC6
:101300001A9B0D93CDE9086400242346082205A901
:1013100028460A948DF82C400C9409F0F9FC079BA0
:101320000293BDF81830ADF80C30BDF81A30ADF8A6
:101330000E309DF814308DF8114003F00302012A9D
:101340001DD1BDF81440059EC3F3C203C4F383143A
:101350008DF81030A20008230EA9284609F0D8FC09
:10136000C6F3952608AB0093224602AB0EA9304681
:1013700000F02EFD284609F0B1FC15B0F0BD022AA0
:10138000F8D1BDF81640C3F3C203A4098DF810309C
:101390000827082C264628BF08263B4632460EA9B9
:1013A000284609F0B5FCA41B08AB02AA31460EA8DA
:1013B000374400F071FD002CEBD1DBE7014B01223B
:1013C0001A7070473D0500207047000070B50F4D42
:1013D00006460FCD88B06C460FC495E80F00002E6E
:1013E00084E80F004FF01F030093094A09484FF0AB
:1013F000805308BF00226946069309F069FF08B1CF
:1014000008F0BAFB044B1E7008B070BD6CF9030005
:10141000BD13000008000020FC04002007B5044BA9
:101420000093044A4023FFF763FF03B05DF804FB19
:1014300039140000FD04002038B50D4B0D4D00207F
:1014400018700D4804782D5DD2B21C4665B1043089
:101450000AF0F6FF08B108F08FFB084B1A7812B1BA
:101460002378002BFBD038BD0C300AF085FDF1E766
:101470003D0500207072002008000020FC040020C0
:1014800008B50848084A0378D35C3BB104300AF039
:1014900069FF0020BDE80840FFF798BF0C300AF054
:1014A00011FDF6E708000020707200200120FFF710
:1014B0008DBF000008B5FFF7F9FF0421034800F0D5
:1014C000E5FB034B01225A7108BD00BF64220400F2
:1014D0001C000020037813F0040216D003F003036D
:1014E000012B03D0022B09D0012070470A68008825
:1014F0000232C0F3831002440A60F5E70B684288A9
:10150000023303EB92130B60EEE7104670470000C6
:101510002DE9F04F484C87B00F460546861C002049
:10152000019208F0FDFC23683B60D4E901231344D9
:10153000226801339B1A04F21C4704F5836A04F203
:101540001448B34219D3019A0023002A6CD0012217
:1015500062F3010343F0040365F389132168A26871
:101560000A4003320E44002044F82230266008F07E
:10157000D9FC012007B0BDE8F08F0121384608F002
:10158000E5FE504608F0FBFE404608F0F8FE0DF17F
:1015900018096068D4F808B049F8100D00EA0B008B
:1015A000033004EB80004946FFF794FF029BB0B97B
:1015B0000BEA030204EB8202D16803919A1C013307
:1015C00003EA0B0B04EB8B0C01F00303012B0292DB
:1015D000DCF80CB020D0022B04D083460BE00BEAE1
:1015E0000300DDE7BDF80E309B0903334FEA1B4BC8
:1015F00002EB93030293404608F0C4FE08B1029B3D
:1016000063605946384608F0A1FED4E9012313442B
:10161000226801339B1A94E7BDF80C30C3F383139F
:101620004FEA1B4B1344E5E7022262F3010343F048
:10163000040365F39F5391E71006002030B50A4B71
:101640000A4A0B49D21AD20800239A4201D1052036
:1016500006E031F823500468A54202D1036000205F
:1016600030BD0133F1E700BFAC2104006422040067
:10167000100400202DE9F84F224B2348FF229A60E6
:101680000022C3F81824C3E90022C3F8142483F805
:10169000202409F0D8FA804688B91C481C4E1D4DFC
:1016A000DFF874A009F042FCAD1BED084446AC42E3
:1016B00008D10023184919481A469C421BD14046BC
:1016C000BDE8F88F4FF000094F4606EBC40BBC4253
:1016D0000AD0142256F83710DBF800003DF0CCF8A1
:1016E0000028C8BF09F101090137BD42EFD12AF82E
:1016F00024900134DBE701EB830540F823206A8066
:101700000133DAE71006002074220400ACF903006C
:10171000AC21040064220400100400206C040020AA
:1017200007B5019031B9019A064B53F8320003B066
:101730005DF804FB01A8FFF781FF0028F3D000202B
:10174000F5E700BFAC210400094B013903EBC000F1
:10175000032909D8DFE801F00A02040604207047D3
:101760000079704740797047002070470220704729
:10177000AC21040030B5124C00EB400054F821506D
:101780008240072303FA00F06A4002400D4B6A4092
:10179000C2F3821044F8212003EB8101C2F3C2039B
:1017A000834238BF0346C2F34220834202F007025D
:1017B00038BF03469A4238BF1A464A8030BD00BF40
:1017C0006C0400201004002037B5164B93F8203429
:1017D00004460BB918B90024204603B030BD3DF0D3
:1017E00043F802AA013042F8080D012301A90E486E
:1017F00009F0AAFB05460028EDD12146009A019880
:101800003CF0ABFCDDE900231344074803F8015C1E
:10181000009909F0D0FB0099034809F0E5FB019C11
:10182000DAE700BF10060020ACF90300034BD3E950
:101830000030C31A58425841704700BF10060020BC
:101840002DE9F04F85B0FFF7F1FF0646002840F084
:1018500018818D4DC5F81804BFF34F8F6868AC68C8
:1018600004AF47F8100D2040033005EB80003946E7
:10187000FFF730FE009B18B1D5F81824002A66D077
:1018800004EA0302991C013305EB8202234005EBB5
:101890008303D268DB68029302F00303022B0192F8
:1018A000009169D1BDF8063078489DF804604FEA90
:1018B000931ABAF1500FD14628BF4FF0500969F37F
:1018C0008F1309F10801ADF8063009F0D4F9C6F319
:1018D000C2068046002800F0BB8009F0FBF901A990
:1018E00000230822404609F008FA009924EA01077B
:1018F0000137BF00B94538D95FFA89F997B3FFB20C
:10190000A9EB0709214003315FFA89FBB946604F13
:1019100005EB810108234A46404609F0EEF937B14C
:1019200009F108035A463946404609F0E6F9009B9A
:101930000AF1030A03EB9A030093D5F81834002B3D
:1019400050D1D5F81044DFF85C9107276FE02A6882
:101950009A4204D86A60304605B0BDE8F08F04EAC8
:10196000030081E74A49BB46D4E7214003310823FD
:101970004A4605EB8101D7E7012B69D1BDF8046028
:101980004248C6F38311062928BF062161F3891650
:1019900002318900ADF8046009F06DF9C6F3C206A2
:1019A0008046002854D009F095F90023082201A9A7
:1019B000404609F0A2F90027BDF80420C2F38312C3
:1019C000BB1C97424FEA8303B7D200994A1C2140BF
:1019D0000331009205EB81010422404609F08DF9A4
:1019E0000137E9E7404609F079F9FFF71FFF80F07A
:1019F0000100C6B2AFE7E3685A79B2B11B79BDF80E
:101A0000081003EB430259F8211007FA02F3052EE0
:101A100003EA010323FA02F308BF0326B34204D307
:101A2000236841461B6820469847E3681C68002CE1
:101A3000E1D1404609F052F9204608F071FAD5F894
:101A400018340BB9009B6B60002008F06BFACCE7F0
:101A5000D5F8104474B90F4B5B88012BC5D90E4BD8
:101A60000E480F49C01AC008000440F0020000F000
:101A700073F8BAE7236820469B689847E3681C68B8
:101A8000E8E7002667E700BF100600207422040084
:101A90001C06002028040020AC210400DC210400E6
:101AA000B8F903006C0400202DE9F74F284C80465C
:101AB0000F46924601A9012218469B46D4F8089089
:101AC000FFF726FD88B3019D0026A91C5E4506EBA5
:101AD000010234D100211F4808F002FC80F31000FD
:101AE0006A1C02EA090204EB8202000405EA090307
:101AF000033340EA1840D06014F8232068F3C5028D
:101B000004F8232034F8232066F3891224F82320D4
:101B100054F82320012167F39F2244F8232061F326
:101B200001026FF3820204F8232094F820341BB1E1
:101B3000FFF786FE0028FBD103B0BDE8F08F09EA6D
:101B4000020204EB82025AF82630D3600136BDE768
:101B5000100600202C0A002000231A46FFF7A4BF1D
:101B600013B502AC012344F8042D2246FFF79CFF75
:101B700002B010BD07B5CDE9002302236A46FFF786
:101B800093FF03B05DF804FB1FB5CDE90123069B6D
:101B9000039301AA0323FFF787FF05B05DF804FB59
:101BA0001FB5CDE90023069B0293079B03936A466A
:101BB0000423FFF779FF05B05DF804FB2DE9F34737
:101BC0008046304CD01C8A46174601A90022800866
:101BD000A568FFF79DFC002840D0DDF80490A668BA
:101BE00009F10200019001362840361AB600033090
:101BF000B74204EB80003BD83A4651463CF0ADFA80
:101C00000021214808F06CFB80F3100009F101036A
:101C10002B4004EB83034FEA184242EA0040D860AD
:101C200005EA0903033304EB830214F8231068F375
:101C3000C50104F8231034F823106FF38F1124F832
:101C40002310518867F38F11518014F8232002214B
:101C500061F301026FF3820204F8232094F8203428
:101C60001BB1FFF7EDFD0028FBD102B0BDE8F08706
:101C7000324651463CF071FABA1B0AEB060104F1F8
:101C80000C00BBE7100600202C0A00202DE9F843C9
:101C90001F4B8846D3F81014054600240A469AB90B
:101CA000E9680C71D3F81014A1B9C3F81054EB68AB
:101CB0001A60184F184EF61BF6084FF00009B14590
:101CC00011D12046BDE8F883D2681079A04218D01F
:101CD0001268E4E7C968EA6809681160D3F810344B
:101CE000DB681D60E5E707EBC9034946DA79EB6875
:101CF000424528BF42461879FFF73CFD09F101092A
:101D0000DDE701340A2CC9D14FF0FF34D9E700BF19
:101D100010060020AC2104006422040010B5037AF0
:101D2000052B0C460FD0437A23B1084A08492046B8
:101D300008F087FB0749204608F083FB2046BDE8F2
:101D4000104008F073BB002AF8D0F3E713FA030041
:101D50003306040035FA030073B5C38804460D4604
:101D600033B1144A00921449144A284608F069FB1A
:101D7000217A05291CD0637A4BB1A088FFF7E4FCD7
:101D80000F4B104953F82020284608F05AFB227ABE
:101D90000D4BA08853F822600021FFF7C1FC0B49CE
:101DA00003463246284602B0BDE8704008F049BB01
:101DB00002B070BD13FA030020FA030018FA030002
:101DC000E0F903003306040044FA030038FA030084
:101DD0002DE9F04385B01F460C9D002306460C46B6
:101DE000904695F80C902B7329463846FFF7B4FFC0
:101DF000B8F1060F09D8DFE808F00412181F2833DD
:101E000040003146284608F01CFB0022294638468F
:101E1000FFF784FF85F80C9005B0BDE8F0832268D9
:101E20003146284608F00DFBEFE7D4E900233146A0
:101E3000284608F006FBE8E7A36800933146D4E99A
:101E40000023284608F0FDFADFE7E3680193A36862
:101E500000933146D4E90023284608F0F2FAD4E78B
:101E600023690293E3680193A36800933146D4E9A0
:101E70000023284608F0E5FAC7E76369039323695E
:101E80000293E3680193A36800933146D4E90023E9
:101E9000284608F0D6FAB8E708292DE9F84F804619
:101EA0000E4617461C4635D8002593F80C901D7336
:101EB00019461046FFF750FFDFF88CA0DFF88CB012
:101EC000AE4229D918F805205946204608F0B9FA3B
:101ED0000135082DF4D11A49DFF874B0204608F016
:101EE000B0FA4FF0000A564524D918F80A507E2D52
:101EF00017D92E225946204608F0A3FA0AF1010A02
:101F0000BAF1080FEFD1012221463846FFF706FF4C
:101F100084F80C90BDE8F88F5146204608F091FAFD
:101F2000D6E73CF0EBF82844427812F0970FE0D067
:101F30002A46DFE70349204608F083FADEE700BFC0
:101F40000EFA03000CFA03000AFA030004FA030075
:101F500010FA0300074B1B5C1F2B8ABF064A4FF089
:101F6000A04203F01F03D2F80405D840C04300F09C
:101F700001007047A9FA030000030050074B1B5CE7
:101F80001F2B86BF03F01F0305494FF0A04101221C
:101F900002FA03F3C1F80C35704700BFA9FA030039
:101FA00000030050074B1B5C1F2B86BF03F01F0371
:101FB00005494FF0A041012202FA03F3C1F80835A8
:101FC000704700BFA9FA03000003005008B50020C5
:101FD000FFF7E8FF0120FFF7E5FF0220FFF7E2FF30
:101FE0000320BDE80840FFF7DDBF08B50020FFF77C
:101FF000C5FF0120FFF7C2FF0220FFF7BFFF03204C
:10200000BDE80840FFF7BABF0A4B185C1F288ABF1B
:10201000094B4FF0A04300F01F00D3F80425012125
:10202000814021EA02000A40C3F80805C3F80C25E4
:10203000704700BFA9FA030000030050263818BFFC
:102040004FF0FF3070470000C10710B5044642D57D
:102050004FF08043D3F84036DA072ED54FF01023E7
:10206000D3F8043303F00703072B26D11D4B0122BD
:10207000C3F80425D3F80024002AFBD04FF0102128
:10208000D1F8042322F0070242F00402C1F804232D
:102090000022C3F80425134AD2F80034002BFBD0E9
:1020A000BFF34F8F1049114BCA6802F4E06213432B
:1020B000CB60BFF34F8F00BFFDE74FF0A0420C494C
:1020C0000323C2F81837C2F82037C1F82437C2F802
:1020D0003037FFF77BFFA30742BF054B0C22C3F845
:1020E000182710BD00E0014000ED00E00400FA05F3
:1020F00000030050F8B50F4B002420220F460D219D
:1021000083F88A201C7083F8784083F88C1022466C
:102110002346054623F0B6FF064650B12146284621
:102120001DF057FE377029460348BDE8F84023F0FC
:102130005FB9F8BDE2710020D564020073B502AB4F
:1021400000220C4603F8012D11461CF091FF38B90E
:102150000A4B9DF8071093F843200D25824202D8C0
:102160006FF01B0006E005FB0036F67B8E4203D1C4
:102170002070002002B070BD0130EFE7E271002056
:102180000B4BD3F801202AB983F87820114609486F
:102190001DF035BB8C2A0BBF0722062283F878205E
:1021A00083F8782007BF0022032100220221EEE7F6
:1021B000E2710020F520000037B5114C05461DF0F6
:1021C000E7FB2278042A07D142782AB929460D482C
:1021D0001DF015FB03B030BD0DF107014088FFF77E
:1021E000ADFF0028F6D19DF8073007480D2202FB0D
:1021F000034329465A7D01325A7523F0F9F8E9E77D
:10220000E2710020952400005D26000008B5002240
:10221000FF21094823F0DAFB0022FF21074823F0C1
:10222000D5FB7522002106483BF0BBFF054B064A53
:10223000C3F8942D08BD00BF812100007D2200005D
:10224000E2710020747200200D28000010B50022F9
:10225000084C0948114623F0B9FB94F8440003F0F8
:1022600061F900232022237084F88A2084F87830D2
:1022700010BD00BFE27100207D22000010B50446B1
:1022800020B90948BDE810401DF094BAFFF7DEFF01
:1022900000230C2120461A4623F0F4FE2146034871
:1022A000BDE8104023F0A4B87D220000D5640200F0
:1022B00008B50022FE21054823F088FB00220121F9
:1022C0000348BDE808401DF09ABA00BF8121000014
:1022D000F520000070B50C4BD3F845302BB11C7CB9
:1022E000D3F811500023A34201DB002070BDC3EBE3
:1022F00003122A441688864202D1127A8A4201D1F8
:102300000133F0E70120F1E7E27100202DE9F04709
:10231000044688B0C0790E461DF03AFB90F80BA039
:10232000077B80465744D4F80950BD4280F0908026
:102330002B1D08EB4303AA4594BF02210121B3F8EA
:1023400005904846FFF7C6FF002800F08A80DFF8B6
:1023500038A11C2130461DF0AFFCDAF809300546E3
:10236000D046002B50D0217806A81CF007FBA2799C
:10237000DAF809A022444B46527806A90220D04739
:10238000002841D16FF04402D4F809309F4270D147
:102390003D4F97F84A30002B67D0B7F875204FF6BD
:1023A000FF739A4261D00025217806A81CF028FB13
:1023B0002B462A4601210095304601F02FFCB7F844
:1023C000751022F0FCFE01464FF48273042201F8DE
:1023D000015BCDE90232049597F844300193A3796B
:1023E000234406AA5B7800933046022301F0A4FB45
:1023F000A379E17925480133A37122F0F9FF002385
:10240000E37108B0BDE8F0871C22002128463BF0AC
:10241000C8FE284623F0DEFF98F844302B72A5F85A
:102420000A90B8F875204FF6FF739A4212D12178BE
:1024300005F10D001CF0A2FA03232B73A3792344AA
:1024400030465B786B75124B2672AB610BF0EEFF7A
:10245000002299E701232B73B8F87530A5F80D30E9
:10246000ECE70135C4F809505DE730461DF030FA5D
:10247000BEE7002AC5D00133C4F8093031462046F2
:10248000FFF744FFBDE700BFE27100205D260000BA
:10249000312500002DE9F341CFB2054638460C4600
:1024A0001DF076FA204EC1888046D6F8450000F02F
:1024B00056FEB8F802300DF10701A8B11846FFF733
:1024C0003DFE30BB9DF807300D2101FB036429461A
:1024D00020766076A076E0762046A7750F30FFF76D
:1024E00015FF02B0BDE8F0811846FFF727FE8046D1
:1024F00078B99DF807000D2303FB00603946437D42
:1025000001334375094822F073FF002DE9D044469A
:1025100000E015B128461DF0DBF9002CE1D0E0B257
:102520001DF0D6F9DDE700BFE27100205D26000056
:102530002DE9F04F1C2185B08146304C1DF0BCFBCD
:1025400094F84320834600250D21954215D32C4B4A
:102550001B687BB90AF038FD014658B90423009383
:10256000CDF804904FF4BA7340F25B324FF0FF3075
:1025700023F038FD05B0BDE8F08F01FB05F804EB52
:102580000803D87D48450DD10026DE7548461DF06C
:1025900019FC48B16FF07303A670E6702671637082
:1025A000012609E00135D0E701236070A070E070DA
:1025B000207184F84A3006460D2707FB054702A81C
:1025C000F97B1CF0DBF9D4F809A0BAF1000F07D0B1
:1025D0007B7D1F4402A9BBF80A303A7C3046D047C5
:1025E0000D2303FB054508F10F00AB690133AB6117
:1025F00049462044FFF78AFEBCE700BFE271002095
:102600008C82002070B50E460546014630461DF00E
:10261000E0FB8C2D0F4C03D1072384F8783002E0C7
:10262000B5B984F878502378052B06D1002394F8A7
:1026300078200C21304623F025FD00232370202331
:1026400084F88A3031460448BDE8704022F0D0BE9C
:102650000623E2E7E2710020D56402002DE9F34190
:1026600005461DF095F90DF105014088FFF766FD5F
:10267000074600284AD19DF80530274C0D2202FB61
:102680000346717D307D884222D93144284691F835
:10269000108003211DF0CEF90322394604463BF099
:1026A00080FDF17B0DF106001CF0AAF9BDF80630A3
:1026B000238084F802801949284627F017FEFF2856
:1026C00003D129468A20FFF79DFF02B0BDE8F081C3
:1026D000FF21022BF1730BD803FB022000F10F0145
:1026E000C3F1030302305A43214420443BF040FD30
:1026F00094F84330013BDBB284F8433033B9D4F86B
:1027000001208C2A08BF072384F87830002DDCD004
:1027100028461DF0DDF8D8E7E2710020B92100005D
:102720002DE9FF47364D80461DF032F995F80090AF
:10273000B9F1040F07465AD10DF10D014088FFF79A
:10274000FDFC8246002858D19DF80D400D2606FB61
:1027500004560DF10E00F17B1CF052F93B793375F4
:10276000042B86F815A029D9264B1A689A4602BB75
:102770000AF02AFC014650B9337D40F25B32CDE9C4
:1027800000934FF0FF3040F2B33323F02BFCDAF824
:10279000003073B90AF018FC014650B90423CDE9A2
:1027A000003340F25B3240F2B5334FF0FF3023F09C
:1027B00019FC0D2303FB045304221A750D2303FB9C
:1027C0000453197D04EB440304EB830400238B4280
:1027D00006D341460C4822F00BFE04B0BDE8F0875A
:1027E000FA1850791A192A4401331074EFE76FF080
:1027F00007004146FFF706FFEFE70020F9E700BFBB
:10280000E27100208C8200205D2600002DE9F04757
:10281000664D2B78042B8CB0064640F0C380D5F86B
:1028200001301C3304D100236B70AB70EB702B7143
:102830001B2130461DF040FA1B22014605A83BF043
:102840008CFC03A9BDF815001CF03EFC28B9584BC0
:1028500093F8D00F10F0200414D0062130461DF05C
:102860002BFABDF815304380038000238380514943
:10287000304627F03BFCFF2874D131468A20FFF711
:10288000C1FE6FE0FF238DF80A302B78BDF815707C
:102890009DF81F90042B1FFA87F810D10DF10A0143
:1028A0004046FFF74BFC70B195F84330032B04D83A
:1028B0008DF80A30013385F84330204601E06FF08F
:1028C0000700012400E004469DF80AA0BAF1FF0FBA
:1028D0004DD0002C49D000220DF10B03114640468B
:1028E0001CF0C6FB002842D10D2303FB0A539DF8C0
:1028F0000B20DA73187558754FF00D0808FB0A584D
:1029000098F81430032B35D808EB0302013382F812
:10291000109088F81430002C43D0052130461DF06B
:1029200089F80522044600213BF03BFC002363703C
:102930000D2303FB0A5567802B7D23711E4B1B68FB
:1029400063B90AF041FB014640B900904FF45F7350
:1029500040F25B324FF0FF3023F044FB3146174822
:1029600022F046FD0CB0BDE8F0870028C4D0314607
:1029700000B284E7104B1B68002BCCD10AF024FB7B
:1029800001460028C7D198F814300193042300931E
:1029900040F25B3240F271334FF0FF3023F022FB04
:1029A000B9E730461CF094FFDCE700BFE27100207D
:1029B000747200205D2A00008C8200205D260000D9
:1029C000F7B50E4602A9FF25044601F8025D304620
:1029D000FFF7B4FBA0B31F4A92F84330032B04D88F
:1029E0008DF80630013382F843309DF80650FF2DF4
:1029F00029D002AB002203F8012D114630461CF00D
:102A000037FB0746F8B9134B0D2202FB05359DF83D
:102A10000730EB73022120461DF00CF80546022218
:102A200039463BF0BEFB2E800B49204627F077FC51
:102A3000FF2803D121468A20FFF7E4FD03B0F0BD53
:102A40008DF80650D1E7002CF8D020461CF040FF4E
:102A5000F4E700BFE27100202127000037B50446EB
:102A60001CF096FF054620461DF0ACF9024658B909
:102A700069890DF10703A81C1CF020FC6989204618
:102A8000FFF79EFF03B030BD20461CF021FFF9E7A1
:102A90000D4930B5A1F5BC720225914201D8002044
:102AA0000EE08B1ADB1093FBF5F302EBC30452F834
:102AB0003330834205DC02DA04F10802EDE7606896
:102AC00030BD2146E9E700BF40FF030008B5FFF72E
:102AD000DFFF024B002808BF184608BDADFA03000F
:102AE0002DE9F7430A9F1E4680468946154601F0A8
:102AF000B3F8D0F8B030DBB101F0AEF80097D0F801
:102B0000B04033462A4649464046A04704464A4616
:102B10004146284602F063FF14F1450F03460BD1EE
:102B200048B13A462946304603B0BDE8F04318475D
:102B30006FF04404EBE70446204603B0BDE8F083A1
:102B40002DE9F041069F05461E4602F05DFF044652
:102B500030B13A46314628462346BDE8F041184791
:102B6000BDE8F081B0F80F30B3F5A06F01D102F0ED
:102B70001DBC7047F8B50C46154607461E4600F0CA
:102B8000DFF90122002100F01AFB90B1122301228B
:102B90000021384601F0F4FD58B14368187840B977
:102BA0001EB1052C05D90B2C02D1032D01D000201C
:102BB000F8BD0120FCE7000037B5014604460022BD
:102BC0000F481CF01CFE0546B8B10E4B1B6873B9CC
:102BD0000AF0FAF9014650B90423009301954FF425
:102BE0009F6340F60F024FF0FF3023F0FBF92046C1
:102BF00003B0BDE830401CF06BBE03B030BD00BF79
:102C0000C93400008C82002013B5154AD2F8E03A8E
:102C10001BB1D2F8E43A2BB90123023302EB830350
:102C2000C3F8D80AD2F8DC3ABBB9C2F8DC0A0D48BE
:102C30001CF0C0FD044680B10B4B1B686BB90AF059
:102C4000C3F9014648B90423009301947D2340F65B
:102C50000F024FF0FF3023F0C5F902B010BD00BFE6
:102C600074720020893500008C820020272807B567
:102C7000034620D041D81A2838D022D80D2800F099
:102C8000978011D80A2831D007D8082800F0898009
:102C900009287DD04FF0FF3084E00B2800F08680BB
:102CA0000C28F7D105207DE010287AD005D80E2811
:102CB00021D00F28EED1082074E0182871D01928EF
:102CC000E7E720286DD00AD81D2871D003D81B282B
:102CD0006CD01C28E5E71E280DD01F28EAE7232822
:102CE00064D005D8212853D02228D3D1032059E01D
:102CF00025285DD0D6D9072054E03A28DBD019D852
:102D00002D2855D00AD82A28F0D003D8282848D012
:102D10002928BEE72B2849D02C28C2E7302840D0EC
:102D200003D82E28E7D02F28C4E7382830D03DD844
:102D30003128AEE7E22826D8E02837D243280ED043
:102D400009D84128A6D30029A4D00878FF28A1D00B
:102D50000130C0B226E0482801D04A289AD102A802
:102D60000022482B20F8022D4FF0020201D0432B05
:102D700020D13BF0F2F9BDF806004FF6FF73984200
:102D800088D002300EE0EA2810D003D8E82881D39A
:102D9000022007E0F0288ED0F1287FF47BAF1020CE
:102DA00000E00120C0B203B05DF804FB0420F9E7A5
:102DB0000620F7E73BF0D1F9BDF806309B00ADF8EF
:102DC0000630D8E7252973B5044615463DD026D8E8
:102DD000182930D016D80A296BD006D808292AD04D
:102DE00009295FD0204602B070BD0F297ED010297E
:102DF00021D00B29F6D12046042229463BF0ADF91B
:102E00000434EFE7202916D004D81A2951D049D329
:102E10001B29EFE722294CD044D32329EAE7422992
:102E20001AD841294CD22B29E5D008D8292939D0E4
:102E30003FD82829D6D12B7804F8013BD2E7302996
:102E4000F9D031292ED02D29CCD120460622294671
:102E50003BF083F90634C5E74A2904D01CD843293E
:102E600001D04829BED102A80023482920F8023DFC
:102E70004FF0020201D043292FD129463BF06DF9D2
:102E8000BDF806604FF6FF739E42ABD00236B6B275
:102E90003246294620461CE0F02927D0F1292CD0C3
:102EA000E229A7E72046022229463BF056F90234E0
:102EB00098E72046032229463BF04FF9033491E777
:102EC000002A8FD01678FF2E8CD00136F6B232460B
:102ED00029463BF042F9344484E729463BF03DF96A
:102EE000BDF806309B00ADF80630C9E72046082241
:102EF00029463BF032F9083474E7102229463BF0AA
:102F00002CF910346EE700002038C0B20D289ABFAB
:102F1000014B185C0020704740FF03002B2809D8A4
:102F2000282805D2202809D3232801D9252805D10E
:102F3000012070472D28FBD0E228F8E700207047D9
:102F400070B51449D1F8E02A0AB315780024AC42D0
:102F500008D2D2F8013053F824301E78864202D0CD
:102F60000134F4E70023D1F8E44A2CB1257800229B
:102F7000AA4203D319460B46184670BDD4F8011077
:102F800051F822100E788642F5D00132F0E7134650
:102F9000F2E700BF7472002070B51B2188B00446B0
:102FA0001CF08AFE1B22014601A83BF0D6F89DF8D2
:102FB00010603046FFF7C4FF9DF81A30BDF81320AB
:102FC0009DF8171005463046FFF7D4FD20B920467E
:102FD0001CF07EFC08B070BD05F084F940B9D5F84E
:102FE0000330EBB9204602F03AFD024650B9F1E752
:102FF000BDF8130004F0B7F948B19DF812301B0773
:1030000005D47E2201A9204602F098FDE2E7BDF832
:103010001310BDF8050004F057F90028DFD1F0E7E0
:10302000074BD3F88C3D33B9D5F803302046984789
:103030000028D7D0CEE701A898470028D2D1F3E7DF
:103040007472002000F52D33F0B503F2A513104D76
:1030500003F00F0213462C469F1C05EBC70696F89B
:10306000DCCABCF1000F07D104EBC70383F8DC0A0C
:10307000C3F8D81A0020F0BDD6F8D86A002EF3D0D5
:10308000013303F00F039A42E6D16FF01500F2E727
:1030900074720020F8B500F52D3303F2A513194919
:1030A00003F00F02054613460E469C1C01EBC400BC
:1030B00090F8DC7AAF421CD119F03AFC28B12846CE
:1030C0001CF080FE08B129F02DFB06EBC405D5F8F5
:1030D000D80A58B1394622F08BF90020C5F8D80A31
:1030E00006EBC404002384F8DC3AF8BD6FF01B0043
:1030F000F6E7013303F00F039A42D6D16FF01B00BD
:10310000F3E700BF7472002037B50D461446194628
:103110009DF81C30E8B14268DAB13BB1C3785A0679
:1031200017D49B0702D4882003B030BD069A0388C9
:10313000009220462A46FFF7D3FC411C0BD0821D8B
:103140000BD0831CEFD010F1280F14BF00207E207D
:10315000EAE78620E8E78720E6E70020E4E7034681
:1031600048B3D0F8150028B3B3F80130994224D001
:10317000B1F5827F1FD06FF480728A18072A0DD9AB
:103180004FF6FF72914211D1B3F5827F15D04CF208
:103190005E00834214BF00200120704701204CF2E2
:1031A0005E02914204D1B3F5827FF3E70020F6E797
:1031B0000028F8D17047002070470120FAE770B569
:1031C00098B1057C0024AC4202D30023184670BDA0
:1031D000D0F81130C4EB041633441E888E4202D15D
:1031E0001E7A9642F2D00134EDE70346EEE7000086
:1031F0002DE9F04F87B083460D4616461F46109CBA
:1032000001F0BEFA8046002800F08780002C00F014
:1032100084809DF844302A46CDE900435946334620
:10322000FFF772FF0390A0BB3B4632462946584643
:103230000094FFF785FC214698F80200D8F8049026
:10324000FFF714FD2146024648463AF086FF98F8FB
:103250000330590705D53B4632462946584603F008
:1032600011FD98F803301A0713D54FF0000A2C4BC4
:103270005344D3F8E09AB9F1000F0AD04FF0000898
:1032800099F80030984508D30AF1040ABAF1080FFA
:10329000EDD1039807B0BDE8F08F4FEA880304939F
:1032A000D9F8013053F8280003785B4532D0324614
:1032B0002946FFF784FF0028E2D0394601F05CF987
:1032C00002900028DCD0D9F80130049A9B58294696
:1032D0001878009432463B46FFF732FC029B5B684D
:1032E0000593029B21469878FFF7C0FC059B024698
:1032F000214618463AF031FF029BDB785B0709D57F
:10330000D9F80130049A985829463B46324600784D
:1033100003F0B8FC08F10108B2E701230393B8E712
:10332000747200202DE9F74F002506468946934622
:1033300001930095264BEB18D3F8E07A17B3002ED3
:1033400043D03A7800239A4203F1010403D84FEAAC
:10335000840A06B313E0D7F8011051F82330197826
:10336000B1422346EFD10026F1E7012080B1019957
:103370004046FFF7F4FE58B198F80030009304354A
:10338000082DD7D1009803B0BDE8F08F5A4614E05D
:1033900001340AF1040A3B78A342F0D9D7F801308E
:1033A000BBF1030F53F80A80F0D101224946404691
:1033B000FFF705FF0028D8D1022249464046FFF713
:1033C000FEFE003018BF0120D0E73446BFE700BF43
:1033D0007472002037B51B2105461CF06DFC037B81
:1033E000FF2B044630D1037DB0F80F10002B08BF2F
:1033F0000122B0F8113018BF02220020FFF792FF1F
:1034000028B9284603B0BDE830401CF061BA2073EB
:103410000022294610481CF0F2F90446D0B10F4BA7
:103420001B68002BEDD109F0CFFD01460028E8D143
:1034300004230093019440F2525340F60F024FF0E0
:10344000FF3022F0CFFDDCE7284603B0BDE8304076
:10345000FFF7A2BD03B030BDC93400008C8200204C
:1034600030B589B004461B22002101A83AF099FE2C
:1034700001A9204602F0A4F801A90546024620460B
:1034800010F0D2FBB8B920461CF082FA037813F092
:10349000040F14BF0521032120461CF043FB1B2110
:1034A00020461CF009FC1B2201A93AF056FE25B962
:1034B0002046FFF78FFF09B030BD2A4601A92046FC
:1034C00002F03CFBF7E700002DE9F041CDB20746E2
:1034D0001B2128461CF0F0FB0446294638461CF008
:1034E00078FA94F80C80124E21F042FE3946B0FB77
:1034F000F6F61048324622F0A1F8237DB4F80F10FA
:10350000002B0CBF01220222B4F811304046FFF715
:1035100009FF20B92846BDE8F0411CF0D9B9207355
:10352000324629460448BDE8F04122F087B800BF82
:103530007CF0C107992F0000B92B00002DE9F84F4E
:10354000002481468A4627460E4BE318D3F8E06AEA
:103550009EB196F800B00025AB450BD9D6F80120F6
:1035600052F82580494652464046FFF728FE38B1BA
:1035700098F800700434082CE6D13846BDE8F88F7E
:103580000135E9E77472002013B50446B8B9144850
:103590001CF010F9044680B1124B1B686BB909F09E
:1035A00013FD014648B9042300930194402340F6DB
:1035B0000F024FF0FF3022F015FD02B010BD0121C7
:1035C0002020FFF7BBFF0146204621B102B0BDE835
:1035D000104002F0C7BF02B0BDE810401CF078B93F
:1035E000893500008C820020F0B50E4E0546002380
:1035F0004FF6FF709A19D2F8E01A81B10F780022C5
:10360000974209D9D1F8014054F8224094F800C0FB
:10361000AC4505D1B4F801000433082BEAD1F0BD64
:103620000132EDE77472002038B504460D46FFF70D
:10363000DBFF44B1B0F5827F05D14FF657402B1A1E
:103640005842584138BD0020FCE700002DE9F84FF2
:103650000024824688462746104BE318D3F8E06AD8
:103660003EB196F800B000255D4505D30434082C22
:10367000F2D13846BDE8F88FD6F8012052F82590EF
:10368000514642464846FFF79AFD10B1027A42453C
:1036900001D00135E8E74F46E8E700BF747200202B
:1036A00038B51B211CF008FB0446007BFFF748FCE3
:1036B000257DB4F80F10002D14BF02220122FFF760
:1036C0007EFD124B1B7A012B15D0227EA37D6AB1A1
:1036D000002B0CBF83238423A8B1012D0DD1027AC6
:1036E00012F0020F18BF0023184638BD002B0CBF84
:1036F00081238223F0E78123EEE7002DF4D1027AC3
:1037000012F0010FEEE7C323EEE700BFCC0A002062
:1037100007B5042201460DEB02003AF01EFD0198A8
:1037200003B05DF804FBF7B50191102116461F4662
:1037300005461CF0C1FA0446284615F013FF9523F0
:10374000032E23609DF8203008BF0199A37316BF94
:1037500001A90822022227716671A01D3AF0FDFC22
:103760002946099821F044FE03B0F0BD2DE9F04F41
:1037700087B09A46BDF8443001939DF84C300293CF
:10378000BDF8583003939DF85C309DF84080BDF83B
:10379000489004930D4617460446149E9DF854B075
:1037A0001CF0F6F80378817813F0030F0CBF0123A7
:1037B00000234A464046FFF7DDF988B956B1534623
:1037C0003A4629462046CDE9108607B0BDE8F04FBD
:1037D000FFF7A9BF204607B0BDE8F04F1CF078B84E
:1037E000182120461CF068FA1822002105903AF0B2
:1037F000D8FC059BDF732A681A606A685A60019AD0
:103800001A81BBF1010F029A83F80CA083F80D8096
:10381000A3F80A909A7305D1039A5A82049A1A75EA
:1038200083F811B0012F06D029884FF6F772914224
:103830009CBF04221A7431462046FFF703FC00287F
:10384000BDD1012028F016FF0348214607B0BDE88E
:10385000F04F21F0CDBD00BF75FE0000A1F5E06383
:103860000B2B04D9A1F50063584258417047012041
:10387000704700002DE9F04F8DB08B46089318215A
:10388000BDF858300793924606461CF015FA0446D8
:1038900030461CF07DF8237B0693637B0593037809
:1038A000B4F80A808178E77B13F0030F81460CBFE0
:1038B0000123002342460598FFF75CF90546B0B99D
:1038C000BAF1000F0DD0059B0093CDF804A0069B24
:1038D0003A4621463046FFF726FF28460DB0BDE8A0
:1038E000F08F30461BF0F4FF6FF00705F5E7414617
:1038F0002089FFF7B3FF0546BBF1000F17D05946EB
:1039000030461CF0ECF8099030461CF04BF8099B4F
:1039100083420CD9594630461CF0E1F883463046C4
:103920001CF040F8ABEB000130461CF0D5F9012F3C
:1039300011D0E37B022B04D122884FF6F7739A4211
:1039400009D8404603F0F4FC28B1089B1BB9237C3E
:1039500043F0040323741DB1237C43F00803237454
:103960000AF07CFC0546002862D104F0BBFC00286C
:103970005ED0404603F0F7FC002859D008222946C3
:103980000AA83AF00EFC022F3BD0032F43D0002FA1
:103990000CBF00256FF0270504F0A4FC002840D0E0
:1039A000002F3ED04DB90AA80AF082FC28B10221AE
:1039B0000AA829F057FC002836D15D4B1B6873B963
:1039C00009F002FB014650B90423009340F60F03AF
:1039D000CDF804801A464FF0FF3022F003FB6FF061
:1039E0002705BAF1000F3FF478AF059B0093CDF89F
:1039F00004A0069B3A4621463046FFF794FE002578
:103A00006BE70AA920881BF05FFB002814BF6FF04A
:103A100027050025C0E7082221460AA83AF09DFBA9
:103A2000BAE7002DC9D1C2E7237C43F00103237418
:103A300041460598FFF7F8FD68B1082200210AA861
:103A40003AF0AFFB022F1ED0032F52D03FBB237C96
:103A500043F00103237451463046FFF7F3FA05465D
:103A60000028BED130461BF093FF0378DB0602D45A
:103A7000012028F0FFFD079B002B53D131462D4834
:103A800021F0B6FC29E70AA920881BF01DFB05469A
:103A900030B902210AA829F0E5FB0028D7D100257A
:103AA000234BD3F800B099F802300B2B27D199F8AB
:103AB00000305A0723D199F80430012B1FD1BBF1F4
:103AC000000F12D109F080FA014670B9CDF80880D4
:103AD00099F8033001930823009340F60F0240F653
:103AE00057034FF0FF3022F07DFA002D7FF479AFBD
:103AF000B1E7082221460AA83AF02FFBC9E7BBF13B
:103B0000000F7FF46CAF09F05FFA00287FF467AF15
:103B100004230093CDF8048040F65E0340F60F02C4
:103B2000594658E7079A0348314621F087FDD4E605
:103B30008C82002075FE00002DE9F74F1D469DF890
:103B4000303001930F46109B009318219346064690
:103B50009DF834A0BDF83890BDF83C801CF0ACF85E
:103B60001822044600213AF01CFB032D0CBF08224A
:103B700002225946E57320463AF0EFFA019B009A7B
:103B8000237339460023304684F80DA0A4F808902A
:103B9000A4F80A800C9303B0BDE8F04FFFF76ABEAB
:103BA0002DE9F04F87B01D469DF840300593CDE9D3
:103BB0000101149B0493182103929DF844B0BDF8B1
:103BC00048A0BDF84C909DF854809DF85860BDF811
:103BD0005C701CF071F81822044600213AF0E1FAFA
:103BE000032D0CBF082202220399E57320463AF008
:103BF000B4FADDE90101059B049A2373334684F886
:103C00000DB0A4F808A0A4F80A9084F810801097CA
:103C100007B0BDE8F04FFFF72DBE00002DE9F041E1
:103C2000069D0E4690461F461BF03EFF094B00F8CE
:103C3000016B93F8D84A621C83F8D82A730702D51F
:103C4000414621F0BCFA04704770023005B12C7077
:103C5000BDE8F08174720020004870474C7D002060
:103C600000487047CC0A002002289DBF024B187004
:103C700000206FF005007047CC0A0020014B187A35
:103C8000704700BFCC0A002001289DBF024B18726C
:103C900000206FF005007047CC0A0020134B1B7802
:103CA0001BB391280ED890281AD28A281CD005D888
:103CB000A0F18103032B98BF812070478F2808BF94
:103CC0007E207047C12806D8C02809D2922809D082
:103CD000932805D07047C22804D0C42804D0704768
:103CE000012070477F20704700207047CC0A0020D9
:103CF0002DE9F04788B08146ADF81E101BF0D4FEC8
:103D0000082303700446FFF7A7FF0378DFF8B0A08D
:103D10005A1C027063700A23A370284B1F78033467
:103D20009846052F36D801223AF817301146C4209C
:103D300000F026FD064618B301214CF25D20FFF786
:103D40008DFD2146F0B148461BF0C9FEC0F5CA60A2
:103D5000013085B27168B078FEF788FF0330854284
:103D600016D33188204621F02AFAB37800F8013BB7
:103D70007268B178FFF726F80023044688F800300F
:103D80000137CEE748461BF0AAFEC0F15200E0E73B
:103D900088F8007001230022CDE903324CF25D2146
:103DA000C423CDE9013100930DF11E020223214607
:103DB0004846FFF7C1FE08B0BDE8F087D90A0020E9
:103DC0004EFF0300064B1B7802462BB1032B03D09A
:103DD0004FF6FC71FFF78CBF10461BF079BD00BF9A
:103DE000DA0A002038B5054620B92148BDE8384038
:103DF0001BF0E0BC1F4C227892B3032A30D0012282
:103E000008231146C42000F0BBFC436819884FF614
:103E1000FF739942284620D1FFF7D4FF00221146B4
:103E2000134821F0D3FD2378022B20D101231A4619
:103E30001946C42000F0A4FCB0B1436818880F38BC
:103E400080B221F07FF90F3080B24222424300213C
:103E50000748BDE8384021F0F1BBFFF749FFDDE737
:103E600028461BF035FDD9E74FF49670E7E738BDDB
:103E7000E53D0000DA0A0020F7B50E460446214D64
:103E800040B92A7822B901231F482B701BF0B7FCD8
:103E900003B0F0BDFFF7E0FED0F89C305BB302AF9B
:103EA0003421204607F8046D1BF006FF3422002160
:103EB0003AF077F9342120461BF0FEFE65230370AB
:103EC000342120461BF0F8FE0026466034212046AF
:103ED0001BF0F2FE3421866020461BF0EDFE3421FB
:103EE000C76020461BF0E8FE0661FFF7B5FED0F87C
:103EF0009C3020469847002320462B701BF0E8FC9E
:103F0000C6E700BFDB0A0020793E000010B510B9FB
:103F10000F4B187010BD0128FCD10E4B19780129E8
:103F2000F8D10B4C2278012A09D80B481BF042FC2F
:103F30000A481BF03FFC237801332370EAE7032291
:103F400000201A702070BDE81040FFF795BF00BF39
:103F5000D80A0020DA0A0020A53F0000C53D000075
:103F6000002208B511460D4821F030FD0C4B1B789E
:103F7000022B12D101221146C42000F001FC48B1ED
:103F800043681B88054842225A430021BDE8084087
:103F900021F054BB4FF49673F4E708BDA53F000031
:103FA000DA0A0020F0B5044689B020B920481BF099
:103FB00001FC09B0F0BD1F4B1B78ABB3032B33D012
:103FC00017F022F808AE002726F8020D20461BF055
:103FD0006BFD07700546FFF73FFE03785A1C027021
:103FE00008216B70AF70E81C21F0E9F8092121F07D
:103FF000E6F80A2121F0E3F801254CF25D23CDE932
:104000000235C4230146CDE900333246049702232A
:104010002046FFF791FD40F2BC722946064821F088
:104020000DFBFFF79DFFC4E720461BF051FCF8E7AE
:10403000A53F0000DA0A00200D3F00002DE9F34102
:1040400000220546FF21344821F0C0FC22F02CFA62
:1040500020B1324E33780BB1032B05D1284602B084
:10406000BDE8F0411BF034BC4FF0000828461BF0BF
:1040700099FC02283CD928461BF08AFC04460028FB
:1040800036D08078FFF70AFEA07010BB211DE078C3
:10409000FEF7ECFD0430C7B228461BF083FC28462F
:1040A0001BF080FC874223D8394628461BF03AFD96
:1040B000A278002ADAD12388082B0CD1019204348B
:1040C000012200941146C420FFF792F84FF0010836
:1040D000CCE70327E3E7092BF0D00A2BC6D10192E6
:1040E0000434012200941146C420FFF781F8BDE793
:1040F000B8F1000FB2D00A4B002119703378012BB0
:10410000ACD1022340F2DE320648337021F096FA39
:10411000FFF726FFA2E700BF0D3F0000DA0A0020EC
:10412000D80A0020E53D000038B505461BF030FCFC
:1041300090F84B30044653B90146232210483AF018
:104140000CF8282204F123010E483AF006F80C4C32
:10415000D4F84B0070B194F84F1021F049F90023C6
:1041600084F84F3084F84B3084F84C3084F84D306C
:1041700084F84E302846BDE838401BF0A9BB00BF8C
:104180007C7100209F71002070B5094CD4F84B3031
:1041900005460E464BB98F21064825F083FC18B919
:1041A000C4F84B6084F84F5070BD6FF00300FBE71C
:1041B0007C710020294100002DE9F04F1B218BB0BC
:1041C00083461BF079FD044690F8139058461BF087
:1041D000DFFBB9F1150F827814BF1B2314239A4219
:1041E00088BF83708246FFF737FD40781BF05CFC88
:1041F000237E002B237D0CBF00220422002B14BF42
:104200000023082342F010020546134305F8013B42
:10421000237E2BB12846B4F8191020F0D0FF0546B4
:10422000637D2B70B9F1150F14BF0D2316236B702E
:10423000207BFEF785FE237DB4F80F10002B14BF02
:1042400002220122FEF7BBFF00274368AF704188BE
:104250000246EE1C00296CD10AA94FF6FD733046C8
:1042600021F8023D022239F078FF2123B9F1150F20
:104270006B714FF0010312BFAE1DAB71EE1DAB7041
:10428000FFF7EAFC002340780493B4F80F3003935F
:10429000B4F811300293237B0193E37A0093621CFC
:1042A00002233146FFF748FCFFF7D6FC80F801B047
:1042B0000BB0BDE8F08F1888BAF800C081B28C4509
:1042C00035D8000433D4B9F1150F19D194F818C0BA
:1042D00001F48040BCF1000F10D088B9013751883B
:1042E000F8B20139814203D99AF802C0C445E2D834
:1042F00081428CBF00210121A970C1E70028EDD1C6
:104300003046CDE9063220F05AFF069B079A99788D
:104310000170B9F1150F08BFD97808F1010809BF7C
:1043200001F00301461C4170861C5FFA88F80833CF
:10433000D4E7B846D3E72DE9F04780460E469146CC
:104340001BF01CFA0546002851D04A4631884046E9
:10435000FEF708FCFFF780FCD0F89C30002B41D022
:10436000342128461BF0A8FC71680446B078FEF79B
:104370007DFCB378482B074603D027D8413B022B5E
:1043800028D8394628461BF055FB3421824628465A
:104390001BF092FC04463A464946504639F0DDFE91
:1043A0002773C4F810A00023237098F80C306370B2
:1043B000B378A370B8F80F30238133886381FFF797
:1043C0004BFCD0F89C30284698470BE04A2BD8D0BD
:1043D000F12BD6D03A46494604F10C0039F0BDFE27
:1043E000002CE0D12846BDE8F0471BF071BABDE8CB
:1043F000F087000010B507490446FFF7C5FE0430FA
:1044000006D1214600220448BDE8104021F016B92B
:1044100010BD00BF9B450000F543000070B50C4681
:10442000272C054611461E4623D050D81A2C3FD0C3
:1044300029D80D2C00F09A8014D80A2C38D006D830
:10444000082C00F08980092C76D0284670BD0B2CF2
:1044500000F086800C2CF8D12846052239F07DFE2C
:104460000535F2E7102C77D009D80E2C29D00F2C67
:10447000EBD12846082239F070FE0835E5E7182C04
:104480006AD0192CE0E7202C66D00AD81D2C6DD0FC
:1044900003D81B2C64D01C2CDDE71E2C11D01F2C44
:1044A000E6E7232C5CD009D8212C45D0222CCCD196
:1044B0002846032239F051FE0335C6E7252C55D096
:1044C000CAD92846072239F048FE0735BDE7392CFE
:1044D00046D018D82D2C49D00AD82A2CE8D003D899
:1044E000282C39D0292CAFE72B2C39D02C2CB2E733
:1044F000302C31D003D82E2CE3D02F2CB8E7312C20
:104500001AD0382CA0E7E22C11D8E02C28D2432C6A
:1045100003D8412C05D23A2CAAE7482C01D04A2CCA
:1045200093D12846324639F018FE35448DE7EA2CFF
:1045300016D007D8E82C88D32846022239F00DFE81
:10454000023582E7F02C94D0F12C7FF47EAF10225C
:1045500039F003FE103578E70B7805F8013B74E776
:104560002846042239F0F9FD04356EE72846062274
:1045700039F0F3FD063568E710B5436800220BB942
:10458000184610BD1C888C42FAD0448801329442EF
:1045900003F10803F3D80023F2E72DE9F04F1B21C4
:1045A0008FB007461BF088FB437B0546C3F34013DF
:1045B000007B0893FEF7C4FC2B7DB5F80F10002B91
:1045C0000CBF01220222FEF7FAFD0990FFF744FB1F
:1045D00040781BF069FA2B7E002B2B7D14BF042240
:1045E0000022002B0CBF0823002342F010021343CB
:1045F00000F8013B2B7E1BB1B5F8191020F0DFFD50
:104600006B7D037001234370841C38461BF0C0F996
:10461000824638461BF0C6F943080A934FF000085B
:104620000A9B5FFA88F1994252D202220AEB4101B9
:104630000DF1360039F091FDBDF836100998FFF7FD
:104640009BFFB5F80F100646B5F81100FFF706F905
:1046500008B3FFF701FB214640781BF040FAC0F594
:10466000CA6909F10109FEB9BDF836104FF6FD73AC
:10467000994262D10DF136010222204639F06DFDDA
:104680002123A670E3700121201D20F098FD04462F
:1046900008F10108C4E7FFF7DFFA214640781BF074
:1046A0001EFAC0F15209DEE77168002945D0F3789F
:1046B00013F0400B41D1DA0728D49B073FD5FFF711
:1046C000DDFA01280CBF7E268F26B9F1020F3AD8F9
:1046D000FFF7C2FA089A40780023CDE90432CDE909
:1046E0000633B5F80F300393B5F8113002932B7BE6
:1046F0000193EB7A00936A1C02232146FFF750FADC
:10470000FFF7AAFA47700FB0BDE8F08FB078FEF758
:10471000ADFA011D894514D30B903188204620F055
:104720004EFD80F800B0B2780B9B42709BB272686D
:10473000B1780230FFF772FEA9E78626C5E70126A9
:10474000C3E78926C1E72046BDF8361020F037FDC3
:10475000044604F8016B9BE710B51B2104461BF0CF
:10476000ABFAB0F80F2040F605339A42204603D149
:10477000BDE81040FFF73EBEBDE81040FFF70DBF9B
:1047800070B50D4616461C46FEF7DAFB2946324642
:10479000FEF715FD2146BDE87040FFF7EDBE2DE99F
:1047A000F04F1B218FB081461BF086FA0446007B38
:1047B000FEF7C6FB237DB4F80F10002B0CBF0122BF
:1047C0000222FEF7FCFCE37C0D90052B77D0FFF76F
:1047D00043FA40781BF068F9237E002B237D14BF39
:1047E00004220022002B0CBF0823002342F01002F9
:1047F000134300F8013B237E1BB1B4F8191020F0DD
:10480000DEFC637D037004234370851C48461BF067
:10481000BFF8074648461BF0C5F800230B93012359
:104820000A9009939DF82C300C930A9B032B54D9C2
:10483000002F56D0F91CB878FEF718FA03305FFA4B
:1048400080FB3E460A9B9B4500F2F780002E00F05D
:10485000F480B6F800A00D985146FFF78DFE804613
:10486000002840D14FF6FD739A4514BF4FF0860AD9
:104870004FF0880AE37C052B1ED015B3B4F80F1057
:10488000B4F81100FEF7EAFF002868D0FFF7E4F95A
:10489000294640781BF023F9C0F5CA600130022890
:1048A00094BF00200120B0B12846022200F801ABDD
:1048B000314639F052FC03350023099302E000250C
:1048C000A4E709950A9BA3EB0B030A930B9B013307
:1048D0005F440B93A6E70990F4E700264FF0FF0B27
:1048E000B0E73E46FAE74368002B32D08278B378CF
:1048F0009A4231D1237DB4F80F20217B002B06F1A1
:1049000003030C934FF00103019306F1030300939B
:104910000CBF01230223FEF7F7FB82460028A9D132
:10492000E37C032BCED0237DB4F80F10207B002234
:10493000002BB8F8003001920C9A00920CBF0122B3
:104940000222FEF755FC0C9A41462046FFF7F3FC85
:10495000B8E74FF0860A8DE74FF08D0A8AE7FFF738
:104960007BF9294640781BF0BAF8C0F1520096E76F
:1049700000264FF0FF0B7BE03E46FAE7E37C052B79
:1049800055D0099B2BB115B30C9B03B3002305F83D
:10499000013BB9F1000F43D0FFF75EF900234078E7
:1049A000CDE90633627BC2F34012CDE90432B4F89C
:1049B0000F300393B4F811300293237B0193E37A11
:1049C0000093621C02232946FFF7EAF828E0FFF76C
:1049D00043F940781BF068F8237D002B0CBF1823A7
:1049E00010230370637D43700B238370E37CC370DB
:1049F000802303710546FFF72FF9002640780496BF
:104A0000B4F80F300393B4F811300293237B019371
:104A1000E37A0093621C0223691DFFF78DF8B1460B
:104A2000FFF71AF980F801900FB0BDE8F08F484603
:104A30000FB0BDE8F04F1AF04BBFE37C032B9DD1C4
:104A4000099B002B9AD048461AF0A2FF0746484619
:104A50001AF0A8FF8046B8F1030F89D9002F8BD038
:104A6000F91CB878FEF702F903305FFA80FB3E4686
:104A7000C34583D8002E81D036F8031B0D98FFF76D
:104A80007BFD227DB4F80F108246002A4FF0000211
:104A9000207BBAF80030CDE900620CBF012202226F
:104AA000FEF7A6FB3246514620465F44A8EB0B08B2
:104AB000FFF741FCCFE700002DE9F04F1B2189B043
:104AC00080461BF0F9F80546FFF7C6F840781AF063
:104AD000EBFF2B7E002B14BF1C23182300F8013B97
:104AE0002B7E1BB1B5F8191020F069FB6B7D0370AC
:104AF00009234370841C287BFEF722FA2B7D069045
:104B0000002B0CBF01220222B5F80F10FEF757FB55
:104B1000834640461AF046FF022840F2C0804046D5
:104B20001AF036FF002800F0BA8090F800A0B0F824
:104B30000190032140461AF0F5FFB5F80F10B5F8C3
:104B40001100FEF78BFE00283CD0FFF785F82146C8
:104B500040781AF0C4FFC0F5CA60013086B2032E57
:104B600040F29D8049465846FFF706FD074600285B
:104B700000F08A804368002B00F08680C3785B07D2
:104B800040F1898006989BF80820BBF80010007857
:104B90004B4601F067FF079000287ED0092E7ED992
:104BA0000022227084F801A0A01C494620F007FBD7
:104BB000079B0446BAF1000F0DD0BAF1010FA8D13E
:104BC000198A3DE0FFF748F8214640781AF087FF40
:104BD000C0F15200C2E7BA7800F8012B5A8A198A4C
:104BE000079320F0F8FA0446B878FEF797F9002802
:104BF0008FD0BA78079B203A0B2A8AD801A151F8A6
:104C000022F000BF354C00003D4C0000594C000024
:104C1000694C0000134B0000794C0000134B00005E
:104C2000134B0000354C0000494C0000594C00006B
:104C3000694C00001B7D04F8013B6AE7998A204615
:104C400020F0BDFA044664E72046022203F1140175
:104C500039F083FA02345CE72046032203F11401A1
:104C600039F07BFA033454E72046042203F114019F
:104C700039F073FA04344CE72046062203F114019C
:104C800039F06BFA063444E78623237084F801A0D8
:104C90004946A01CD4E78C23F7E78B23F5E7FEF702
:104CA000DBFF002340780493B5F80F300393B5F889
:104CB000113002932B7B0193EB7A00936A1C022341
:104CC0002146FEF739FFFEF7C7FF80F8018009B0E3
:104CD000BDE8F08F2DE9F04F1B218DB080461AF012
:104CE000EBFF0446007BFEF72BF9237DB4F80F1091
:104CF000002B0CBF01220222FEF761FA0690FEF79C
:104D0000ABFF40781AF0D0FE237E002B14BF1C238B
:104D1000182300F8013B237E1BB1B4F8191020F0D2
:104D20004EFA637D037000270723DFF8E4B1437078
:104D3000851CB94640461AF035FE042844D80026A2
:104D40004FF0FF0A40461AF02DFE824500F2B9806E
:104D5000514640461AF0E6FE002E00F0B280B6F84A
:104D60000130069807931946FFF706FC327809F1DF
:104D70000109002A5AD1079B002842D14FF6FD773E
:104D8000BB4214BF86278C27B4F80F10B4F811006B
:104D9000FEF764FD002800F08B80FEF75DFF2946DA
:104DA00040781AF09CFEC0F5CA60013080B203283A
:104DB00008D92F7033786B70A81CB6F8011020F05A
:104DC000FEF905460127B5E740461AF0E1FD064623
:104DD0000028B4D00378012B0DD0C078FEF79EF8E0
:104DE00060B1F078FEF790F808305FFA80FA40463C
:104DF0001AF0D8FDA6E74FF0050AA3E74FF0080A1E
:104E0000A0E74368002B4BD08378412B48D003F0B8
:104E1000FD02482A44D0C278520743D5F2789A421C
:104E200042D1F38813B1B2889A423FD8237B8DF8E0
:104E30002430227CE37B43EA0223ADF82A30E37A74
:104E40008DF82530B4F80130ADF82630637CA27CB3
:104E500043EA0223ADF82830237D002B0CBF012349
:104E6000022309A930468DF82C3001F0DDFF00281F
:104E70003FF460AFDBF8002082B9079008F0A4F897
:104E8000079B014650B901930423009340F6120298
:104E900040F2D4434FF0FF3021F0A4F8012773E72C
:104EA000862771E78C276FE78D276DE787276BE7EC
:104EB000FEF7D2FE294640781AF011FEC0F15200EA
:104EC00074E7B9F1000F1DD1802305F8013BFEF70F
:104ED000C3FE002340780493B4F80F300393B4F872
:104EE00011300293237B0193E37A0093621C022327
:104EF0002946FEF721FEFEF7AFFE80F801800DB0D7
:104F0000BDE8F08F002FE2D105F8017BDFE700BF9D
:104F10008C8200202DE9F04F8A46C38802794188AF
:104F200089B005464078FFF72BFC90F80390504677
:104F30001AF0BAFD09F02006C9F340194FEA8903B7
:104F400043F0080304460370002E69D06878FDF72B
:104F5000F7FF2A796988FEF732F9B0F80910601C6A
:104F600020F02DF90446FEF777FE03785A1C0270F4
:104F700023700A23637002342E4640F2516BF3888B
:104F8000327971887078FFF7FBFB71880746B08D26
:104F9000FEF764FC214600284CD050461AF09FFDD5
:104FA000ABEB00001FFA80F87968B878FDF75EFE79
:104FB000C21C904507901ED33988204620F0FFF888
:104FC000BA7800F8012B079B7A68B9789BB2FFF793
:104FD00025FA39460446304601F01BFE337A23F0A9
:104FE000160343F0200333724946284601F08DFD35
:104FF00006460028C3D1124B04936B880393AB8DF4
:1050000002936B78019395F82A30009305F12802FA
:10501000002321465046FEF78FFD09B0BDE8F08F12
:10502000FEF71AFE03785A1C027063700A23A370FD
:105030000334A1E750461AF052FDC0F15200B1E727
:10504000656F00002DE9F0438FB000230F461B2150
:10505000069304461AF030FE1B22014607A839F0D9
:105060007CF820461AF09EFC022807D0852207A96A
:10507000204600F01CFD0FB0BDE8F08320461AF07A
:1050800087FC9DF8343006784578002B60D0FEF719
:10509000E3FDD0F8F030002B46D14FF00008512D41
:1050A000204628BF51251AF0FFFC9DF83430002B14
:1050B0009DF8303014BF04220022002B0CBF0823BF
:1050C000002342F01002134300F8013B9DF83430F6
:1050D0001BB1BDF8351020F072F89DF83130037027
:1050E000002F14BF12231423437000238370C11CAC
:1050F0001A46DFB2B84500F288800123837000238E
:105100000493BDF82B300393BDF82D3002939DF826
:10511000283001939DF8273000930DF11D020223E2
:105120002046FEF709FDA6E7FEF796FD0DF1180EE5
:10513000CDE9007E9DF830C0D0F8F080BDF8353064
:10514000BDF82B209DF828106046C0478046A6E792
:105150009DF828009DF83080BDF82B90FDF7F0FEFB
:1051600000289AD0B8F1000F0CBF01220222494654
:10517000FEF725F8002890D0B8F1000F2CD1037A63
:1051800003F00103002B88D09DF83030BDF82B10C0
:105190009DF82800002B0CBF0122022200F00AFC1F
:1051A000034600283FF479AFFF20984700283FF4DA
:1051B00074AFCFB1FEF750FDD0F8583293F80080AD
:1051C000FEF74AFDD0F858325B680693FEF744FDBF
:1051D0000023C0F8583262E7B8F1010F7FF45DAFE9
:1051E000037AC3F34003CDE7FEF736FDD0F858321B
:1051F00093F80880FEF730FDD0F85832DB6806934C
:10520000FEF72AFDC0F8587249E7069FFF5CBE42D0
:1052100006D80132D2B2954201F8017B7FF66FAF1A
:10522000013366E737B51B2105461AF045FDC37CFF
:105230000446162B64D8DFE803F00C123A3A293AF8
:10524000422946663E4E4A666363635C6661664A0F
:1052500066002846FFF780FA012003B030BD324BCC
:10526000D3F8903DB3B9B4F80F300A2B04D12846D7
:1052700002F072FF0028EFD11B2128461AF01CFD16
:10528000B0F811204CF25D239A4208D028461AF05B
:105290001FFBE1E7284698470028E4D0DCE7B0F898
:1052A0000F40012CF2D12846FEF7C8FED4E728466D
:1052B000FFF775FAD0E7284601F0A6FECCE72846AE
:1052C000FFF708FDC8E72846FFF7F6FBC4E72846C6
:1052D000FEF772FFC0E71B2128461AF0EDFCB0F87C
:1052E0000F30192BD2D1284600F0A3FB0028B3D1F0
:1052F000CCE701212846FFF7A5FEADE70021F9E73D
:105300000A4B1B680BB10020A7E707F05DFE0028E1
:10531000F9D1009001464FF4E46340F612024FF0D9
:10532000FF3020F05FFEEEE7747200208C820020D8
:1053300010B504461AF046FD2046BDE810401AF0AC
:10534000C7BA000038B5062104461AF0B5FC037947
:1053500023B12046BDE838401AF0BABA18212046D9
:105360001AF0AAFC054620461AF012FB1822014644
:10537000284638F0F2FE20460249BDE8384023F0C6
:105380009FB800BF3153000010B5102301224FF425
:10539000A0610446FFF7F4F9012243684FF4A061CD
:1053A0002046BDE8104009F041BC000010292DE95D
:1053B000F74304460D46164640F085801AF0DAF9A8
:1053C0002B4601220746B4F80F10207BFFF7D8F9CF
:1053D0001821804638461AF02DFB05461822002178
:1053E00005F10D0938F0DDFE4946B4F8010019F069
:1053F0006BFE10F11C0F19D10DF107030122B4F857
:105400000110304619F05AFF08223146484638F05C
:10541000A4FE314698F80200D8F80490FDF726FC67
:1054200031460246484638F089FE0DE00028EBD1AF
:10543000314698F80200FDF719FC3146024648460D
:1054400038F07CFE0028E4D0207BFFF79DFF064665
:1054500000283BD14EF201030122B4F80F10207B4B
:10546000FFF78EF94368E27A1A70B4F80F10207BC8
:105470004EF202030122FFF783F94368B4F80120DA
:105480001A80284620F0A6FF237B2B72E37A6B75E7
:10549000B4F80F306B8103232B7321F013F808212C
:1054A000E88238461AF008FC08220546314638F0F2
:1054B00078FEB4F80F306B80FF232B70064B6B60C7
:1054C000384608F067FF03B0BDE8F083002FFAD03C
:1054D00038461AF0FDF9F6E74553000038B50122C9
:1054E000002303210546FFF74BF9B8B14368ABB180
:1054F0001C8844B1013C1C80294642220848BDE872
:10550000384020F09BB82846FDF71AFDD0F8070078
:1055100020B12146BDE838401FF06ABF38BD00BF4A
:10552000DD54000037B50023012203210546FFF7B3
:1055300027F9044698B100222946124820F046FA7D
:10554000636800241C802846FDF7FAFCD0F80700A9
:10555000A8B1214603B0BDE830401FF049BF0A4B57
:105560001B6863B907F030FD014640B9009040F276
:10557000A71340F264624FF0FF3020F033FD03B018
:1055800030BD00BFDD5400008C82002010B5FEF756
:1055900063FB4FF43072002138F003FEFEF760FB2E
:1055A0000C22002138F0FDFDFEF756FB04461AF0F0
:1055B000E5F86070FEF750FBBDE8104001F07EB8E2
:1055C000F7B50C461C2106461AF076FB0546304618
:1055D0001AF0E8F9074630461AF0DAF9037813F0C2
:1055E000040F0CBF032305239F4214D22F4B1B68CB
:1055F0001BB18026304603B0F0BD07F0E5FC014644
:105600000028F6D10090D72340F61A024FF0FF3061
:1056100020F0E8FCEDE700232370B5F80130A4F892
:1056200001302B7AE372B5F80330A4F80930EB7936
:1056300023732B7863732B7DA27BC3F3C00363F3C7
:10564000C302A273B5F80930A4F80F30B5F80B30D7
:10565000A4F8113030461AF09BF9037803F00303E5
:10566000012B14BF01230023A37503780146C3F364
:10567000C003237511F8013BC3F30013E3750378EE
:10568000C3F3800305468CBF8526002663B1012342
:105690002376022204F1190038F05FFDE91C0B7833
:1056A00063754B78E374A5E72376F8E78C820020D6
:1056B0002DE9F047DDF820808246894617461E46D0
:1056C000B8F1000F05D122B91BB96FF00600BDE893
:1056D000F087FEF7C1FA90F85432132BF5D8002466
:1056E00009E0FEF7B9FA04F10F052D01284483887B
:1056F000534507D00134FEF7AFFA90F854329C427C
:10570000EFD305E0FEF7A8FA284483794B45F1D1A1
:10571000FEF7A2FA90F854329C4202D06FF01A00C1
:10572000D5E7FEF799FA04F10F052D01284424016D
:10573000A0F804A0FEF790FA284480F80690FEF73F
:105740008BFA2844C0F80880FEF786FA2044C0F897
:10575000FC70FEF781FA0444C4F80061FEF77CFA9D
:1057600090F85432013380F854320020AFE7F8B596
:1057700006460F460025FEF76FFA90F854329D4218
:1057800001D3002012E0FEF767FA05F10F042401AF
:1057900020448388B3420AD1FEF75EFA204483791D
:1057A000BB4204D1FEF758FA20448068F8BD0135A9
:1057B000E1E70000F0B51C4B1B6885B006460F46BC
:1057C0007BB907F001FC014658B908230093CDE9E5
:1057D00001674FF4B87340F61A024FF0FF3020F023
:1057E00001FC0024FEF738FA90F85432A34201D8A5
:1057F000002014E0FEF730FA04F10F052D012844D3
:105800008388B3420DD1FEF727FA28448379BB423F
:1058100007D1FEF721FA00EB0410D0F8FC0005B028
:10582000F0BD0134DEE700BF8C820020F0B51C4BD8
:105830001B6885B006460F467BB907F0C5FB0146DD
:1058400058B908230093CDE9016740F2891340F667
:105850001A024FF0FF3020F0C5FB0024FEF7FCF9E0
:1058600090F85432A34201D8002014E0FEF7F4F976
:1058700004F10F052D0128448388B3420DD1FEF7B2
:10588000EBF928448379BB4207D1FEF7E5F900EB39
:105890000410D0F8000105B0F0BD0134DEE700BF10
:1058A0008C82002070B511F1FF3418BF0124064628
:1058B0000D46FEF7D1F92334240120448388B342F6
:1058C00001D0002070BDFEF7C7F920448379AB42B8
:1058D000F7D1FEF7C1F920448068F3E7F0B5194B22
:1058E0001B6811F1FF3585B007460E4618BF01252C
:1058F0007BB907F069FB014658B908230093CDE94D
:10590000017640F2CD1340F61A024FF0FF3020F03E
:1059100069FBFEF7A1F905F12304240120448388E3
:10592000BB4202D0002005B0F0BDFEF795F920443F
:105930008379B342F6D1FEF78FF900EB0510D0F86A
:105940003C02F0E78C820020F0B5194B1B6811F186
:10595000FF3585B007460E4618BF01257BB907F015
:1059600033FB014658B908230093CDE901764FF483
:10597000EF7340F61A024FF0FF3020F033FBFEF7D2
:105980006BF905F12304240120448388BB4202D033
:10599000002005B0F0BDFEF75FF920448379B342E3
:1059A000F6D1FEF759F900EB0510D0F84002F0E708
:1059B0008C82002070B506460C46154620F074FD1A
:1059C00038B1C42E05D129462046BDE87040FFF706
:1059D00069BF29462046BDE87040FFF7C8BE70B5D4
:1059E00006460C46154620F05FFD38B1C42E05D1A1
:1059F00029462046BDE87040FFF770BF2946204683
:105A0000BDE87040FFF7D6BE70B506460C46154699
:105A100020F04AFD38B1C42E05D129462046BDE804
:105A20007040FFF791BF29462046BDE87040FFF760
:105A3000FDBE10B51B2104461AF03EF9037DB0F8F7
:105A40000F10007B002B0CBF01220222FFF7B2FFD8
:105A5000034618B12046BDE81040184710BD70B588
:105A60001B2106461AF028F905463046FDF718FEB8
:105A7000044680B9AB7D30467BB1FFF7D3FB50B90C
:105A8000FEF7FCF8012810D02A7EAB7D42B1002B36
:105A90000CBF83248424204670BDFFF7CAFFEEE7C5
:105AA000002B0CBF81248224F5E78124F3E770B535
:105AB0001646B1F809204FF6F7739A4286B00546AC
:105AC0000C4634D84B7B13F00C0F30D1CB7D03B197
:105AD0006EB3A37D13B1E37C0B2B28D02378013B5D
:105AE000012B24D9284619F0DFFF237D002B0CBFA2
:105AF000182310230370637D43700B238370E37CB2
:105B0000C370067100230493B4F80F300393B4F804
:105B100011300293237B0193E37A0093411D02230A
:105B2000621C2846FEF708F8012006B070BD284622
:105B3000002DFAD019F0CCFE0020F6E770B516461D
:105B4000B1F809204FF6F7739A4286B005460C4625
:105B500043D84B7B13F00C0F3FD1CB7D0BB1002E04
:105B60003BD0A37D13B1E37C0B2B36D02378013BD4
:105B7000012B32D9284619F097FF237E002B237D75
:105B800014BF04220022002B0CBF0823002342F084
:105B90001002134300F8013B237E1BB1B4F8191027
:105BA0001FF00DFB637D03700B234370E37C837058
:105BB000C67000230493B4F80F300393B4F8113087
:105BC0000293237B0193E37A0093011D0223621C5D
:105BD0002846FDF7B1FF06B070BD284606B0BDE807
:105BE000704019F075BE000030B589B0182302AAC4
:105BF0001CF052F90546002878D101214FF4A0602D
:105C0000FDF79CFC044600285ED0102301224FF4CF
:105C1000A061FEF7B5FD08220DEB0201406838F0E7
:105C20009CFA2B4601224FF4A0612046FEF7A8FD06
:105C300043689DF811201A704FF4A06111230122CE
:105C40002046FEF79DFD43689DF814201A704FF41E
:105C5000A0614EF2010301222046FEF791FD436848
:105C60009DF810201A704FF4A0614EF20203012239
:105C70002046FEF785FD4368BDF812201A804FF4D8
:105C8000A0614FF4604301222046FEF779FD43688E
:105C90009DF81F201A709DF81F30ABB12046FFF70A
:105CA00073FB044680B1124B1B686BB907F08CF98B
:105CB000014648B9042300930194832340F6080267
:105CC0004FF0FF3020F08EF901212020FDF736FC47
:105CD00060B14EF6FE7301222021FEF751FD4368AC
:105CE000BDF816201A809DF815209A7009B030BDB5
:105CF0008C82002070B586B0182205460E46684694
:105D0000002138F04EFA01214FF4A060FDF716FC97
:105D10000446002845D0102301224FF4A061FEF76D
:105D20002FFD08224168684638F017FA0023012247
:105D30004FF4A0612046FEF723FD43681B788DF8E1
:105D4000093001224EF201034FF4A0612046FEF714
:105D500017FD43681B788DF80830012211234FF49A
:105D6000A0612046FEF70CFDA8B343681B788DF8B0
:105D70000C304EF2020301224FF4A0612046FEF7E0
:105D8000FFFC43681B88ADF80A3001224FF46043E2
:105D90004FF4A0612046FEF7F3FC43681B788DF8B2
:105DA000173001212020FDF7C9FB60B14EF6FE73CC
:105DB00001222021FEF7E4FC43681A88ADF80E208A
:105DC0009B788DF80D3018236A46314628461CF022
:105DD00031FC06B070BD8DF80C00CAE72DE9F84320
:105DE000FDF73AFF4468002C36D104EB4400C000B4
:105DF00080B2BDE8F883FDF72FFF4368D3F8013088
:105E000053F82630D3F81A304FEA86089BB1FDF7D5
:105E100023FF4368D3F8013053F82630D3F81A90A3
:105E20000025FDF719FF4368D3F8013053F8083017
:105E30005B7EAB4207D80136FDF70EFF43681B7847
:105E4000B342D8D8D1E707FB059301351B7ADB07AE
:105E500044BF0134A4B2E4E7002426463027EBE730
:105E60002DE9F04F89B08346019100241827B2FB39
:105E7000F7F7FDF7F1FE43681B78A3420BD8002625
:105E800035464FF0180A019BBD420AFB053126D367
:105E900009B0BDE8F08FFDF7DFFE4368D3F80130AD
:105EA00053F82430D3F81A30BBB1FDF7D5FE436860
:105EB000D3F8013053F82430D3F81A50FDF7CCFE54
:105EC0004368D3F8013053F824305A7E02EB420283
:105ED00012010021284638F064F90134C9E718237B
:105EE00002AA58461BF0D8FF002840F082800446E2
:105EF0000AE0FDF7B1FE4368D3F8013053F82430CF
:105F0000D3F81A303BB90134FDF7A6FE43681B787D
:105F1000A342EED80BE0FDF79FFE4368D3F80130B3
:105F200053F824301A789DF809309A42EBD1FDF7E6
:105F300093FE43681B78A34257D9FDF78DFE436853
:105F4000D3F8013053F824304FEA8408D3F81A40CC
:105F50004FF00009FDF780FE4268D2F8012052F8A8
:105F60000820527E4A4502D9227AD30743D4FDF74E
:105F700073FE4268D2F8012052F80820527E4A454A
:105F800033D99DF8082022709DF809306370BDF860
:105F90000A3063809DF80C302371BDF80D30E3802A
:105FA0009DF80F302372BDF81030238222B9BDF85E
:105FB00012306382059B6361BDF8183023859DF81C
:105FC0001A3084F82A309DF81C209DF81B3043EAD3
:105FD0000223A38508224FF0FF3104F11C0038F0A2
:105FE000E0F8204600F048FC013616B1002000F031
:105FF0005FFC013547E709F101093034AAE72DE9D3
:10600000F04F87B080460E46FDF726FE4568002D0E
:1060100043D1284607B0BDE8F08FFDF71DFE436869
:10602000D3F8013053F82530D3F81A304FEA850AF7
:106030009BB1FDF711FE4368D3F8013053F82530CA
:10604000D3F81AB00027FDF707FE4368D3F80130F4
:1060500053F80A305B7EBB4216D80135FDF7FCFDD4
:1060600043681B78AB42D8D8002C40F08B801822B4
:106070002146684638F095F818236A46314640466E
:106080001CF0D8FA0546C4E709FB07B301371B7AB1
:10609000DA0744BF0134E4B2D5E7002425464FF0C7
:1060A0003009DBE7FDF7D8FD4368D3F8013053F83A
:1060B0002930D3F81A304FEA890AA3B1FDF7CCFD95
:1060C0004368D3F8013053F82930D3F81A40002739
:1060D0003034FDF7C1FD4368D3F8013053F80A307E
:1060E0005B7E9F4208D309F10109FDF7B5FD4368C6
:1060F0001B789945D6D38CE714F8283CDB073ED5AE
:1061000018220021684638F04CF814F8303C8DF81D
:10611000003014F82F3C8DF8013034F82E3CADF8E7
:10612000023014F82C3C8DF8043034F82A3CADF8D9
:10613000053014F8283C8DF8073014F8302C34F86A
:10614000203CADF8083032B934F81E3CADF80A30C6
:1061500054F81C3C039334F8083CADF8103014F8A4
:10616000063C8DF8123034F8043CADF8133031465B
:1061700018236A4640461CF05DFA1836054601377A
:106180003034A6E74FF000094D46AEE730B587B092
:1061900018236A461BF080FE0546002854D10121D1
:1061A0002020FDF7CBF92B46012220210446FEF7E3
:1061B000E7FA4368009A1A6001231A462021204614
:1061C000FEF7DEFA4368019A1A600198FA256843DF
:1061D00026F01AFB2021022301222046FEF7D0FAE6
:1061E0004368BDF808201A80BDF80800684326F00F
:1061F000C9FA2021032301222046FEF7C1FA436891
:10620000BDF80A201A80BDF80A00684326F0D4FAC7
:106210000423012220212046FEF7B2FA4368039AA4
:106220001A602021052301222046FEF7A9FA4368BF
:10623000049A1A602021062301222046FEF7A0FAC4
:106240004368BDF814201A8007B030BD70B505460C
:1062500086B00E4620200121FDF770F91822044671
:106260000021684637F09DFF0023012220212046AF
:10627000FEF786FA43681B68009301231A46202123
:106280002046FEF77DFA43681B6801930122022332
:1062900020212046FEF774FA43681B88ADF80830C9
:1062A0000122032320212046FEF76AFA43681B8857
:1062B000ADF80A300122042320212046FEF760FABF
:1062C00043681B6803930122052320212046FEF723
:1062D00057FA43681B6804930122062320212046B5
:1062E000FEF74EFA43681B88ADF814306A4618234F
:1062F000314628461CF09EF906B070BD10B50C461C
:1063000008B119F0E5FA0749074843F6FF3201FBE7
:1063100004244FF470520021B4FBF2F2BDE81040A7
:106320001FF08CB990D00300F164000008B5002084
:1063300026F07CF90420BDE8084001F003B9F8B567
:106340000F4608211646054619F0B6FC08220446F9
:10635000002137F026FF20232770638066602846DF
:10636000BDE8F84008F016B82DE9F04F062189B0D5
:10637000074619F0A1FC012104462020FDF7DEF8B4
:106380000023012220218046FEF7FAF943681E68A7
:106390002379002B67D00024012220214EF6FE73C2
:1063A0004046ADF81E40FEF7EBF945682B68DB432D
:1063B00033F07F431CBF2B88ADF81E3038461ABF20
:1063C00095F802B00224A34619F06EFB192303705E
:1063D0008146FDF741FC03785A1C02704FF0000A19
:1063E00089F80130224B89F802A0202204934FF44F
:1063F0008273CDE9023209F1030123460DF11E0239
:10640000CDE900B83846FDF797FBEB781948012233
:1064100062F30303EB704FF4FA7241461FF00EF97A
:106420004FF4F05026F0C8F9504626F0D3F8FDF7A7
:1064300013FCD0F8A03033B1FDF70EFC5146D0F874
:10644000A0001EF0D5FF0C4B0C4843F6FF3203FBB7
:10645000062600214FF47052B6FBF2F21FF0EEF860
:1064600009B0BDE8F08F384619F032FAEBE700BF0B
:10647000816400002D63000090D00300F1640000EF
:10648000F8B51021064619F017FC01210546202019
:10649000FDF754F84EF6FE73012220210746FEF761
:1064A0006FF92D6844686DB92A4639460E481FF0C9
:1064B0008DFA284626F0DEF84FF4FA7239460A487B
:1064C0001FF0BCF8E37803F00F03012B08D9314625
:1064D00006481EF08DFFE3786FF30303E370F8BD09
:1064E000304619F0F5F9F6E72D630000F16400007D
:1064F00070B5012104462020FDF720F80023012279
:1065000020210646FEF73CF943681D6801224EF63D
:10651000FE7320213046FEF733F95DB14168CB7838
:106520001A070DD003F00F02012A03D8013262F3DB
:106530000303CB708CB12046BDE8704019F0C8B998
:1065400024B90648BDE8704019F034B92046044A21
:10655000FF21BDE87040FFF7F2BE70BDF16400009E
:106560006963000010B5002304460122084620217B
:10657000FEF706F9436820461968BDE81040FFF7AA
:10658000BDBE2DE9F0418046FDF766FB4468002C56
:1065900042D12046BDE8F081FDF75EFB4368D3F8A9
:1065A000013053F825301B7843454FEA850728D141
:1065B000FDF752FB4368D3F8013053F82530D3F888
:1065C0001A30F3B1FDF748FB4368D3F80130DB59CB
:1065D000D3F81A400026FDF73FFB4368D3F801309B
:1065E000DB595B7E9E4202D2237ADB0711D4FDF792
:1065F00033FB4368D3F80130DB595B7E9E4228BFF2
:1066000000240135FDF728FB43681B789D42C3D366
:10661000BFE730340136DEE700252C46F2E72DE9EE
:10662000F041FDF719FB4368002B44D1BDE8F08130
:10663000FDF712FB4368D3F8013053F82430D3F848
:106640001A304FEA84085BB3FDF706FB4368D3F8C2
:10665000013053F82430D3F81A600027FDF7FCFA14
:106660004368D3F8013053F808305B7E9F4217D25D
:10667000337A03F00602062A1AD113F0080517D15F
:10668000FDF7EAFA90F8AA3093B1FDF7E5FA90F831
:10669000AA103046FEF73EFCFDF7DEFA80F8AA505D
:1066A0000134FDF7D9FA43681B789C42C0D3BDE79B
:1066B00030360137D2E70024F3E7000013B5FDF7C9
:1066C000CBFA08220021A43037F06BFD19F056F800
:1066D000044680B1FDF7C0FA80F8AA400022FE21EE
:1066E0000E481FF073F90E480022FE2102B0BDE8EB
:1066F00010401FF06BB90B4B1B68002BEED106F05E
:1067000063FC01460028E9D1009092234FF4026215
:106710004FF0FF301FF066FCE0E700BF8569000026
:10672000316800008C8200202DE9F041064660B9F6
:1067300000244FF0FF35FDF78FFA43681878A84220
:106740008CBF2046FF20BDE8F081FDF785FA436845
:10675000002BEDD00024254610E096F80180FDF7CF
:106760007BFA4368D3F8013053F825301B78434552
:106770004FEA850709D01934E4B20135FDF76CFA08
:1067800043681B78AB42E8D8D5E7FDF765FA436864
:10679000D3F80130DB59D3F81A00034B301A00113B
:1067A00003FB0044E4B2C6E7ABAAAAAA10B50446AC
:1067B000FFF7BAFF0022014608481FF007F9238AB5
:1067C0005BB12046FFF7B0FF238A422201465A43BD
:1067D0000248BDE810401EF031BF10BD3168000016
:1067E000FF2838B5044601D1002038BDFDF734FA42
:1067F0004368002BF8D0002504E0182C09D9193C77
:10680000E4B20135FDF728FA43681B789D42F4D3C2
:10681000EAE7FDF721FA4368D3F8013053F8253051
:10682000D3F81A0004EB440400EB0410DDE7000089
:1068300038B50546FFF7D4FF0446FDF70DFAD0F84A
:10684000983043B1FDF708FAE288D0F898306188B3
:1068500094F82A009847FDF7FFF9B0F8A43043B147
:10686000238A044842225A432946BDE838401EF094
:10687000E5BE38BD3168000038B5058A04463DB92B
:10688000037A43F004029B0702720FD4458A6DB16C
:106890004FF6FF739D4209D006F00AFE237A43F0BB
:1068A00010032372422303FB0500E06038BD0000A3
:1068B0002DE9F0470025DFF8C8902C462F46FDF75C
:1068C000CBF943681B78AB4213D8002F53D006F0A6
:1068D000EFFD00220546FE2128481FF077F8284AE0
:1068E0002B1B93423CD800212448BDE8F0471EF002
:1068F0007FBDFDF7B1F94368D3F8013053F8253077
:10690000D3F81A304FEA850AA3B1FDF7A5F9436819
:10691000D3F8013053F82530D3F81A604FF000084F
:10692000FDF79AF94368D3F8013053F80A305B7EDB
:10693000434501D80135C2E7337A03F00902012A41
:106940000AD1DB0608D5F368002F08BF1C46E11A00
:106950001746494598BF1C46303608F10108DFE765
:10696000641B944294BF22461A4600210348BDE8A6
:10697000F0471EF063BEBDE8F08700BF85690000E8
:10698000FEFFFF7F2DE9F84F06F092FD4FF0000A61
:10699000324F064655464FF04208FDF75DF9436811
:1069A0001B78534509D81DB100212D481EF020FD4C
:1069B0000020BDE8F84FFFF77BBFFDF74DF94368B6
:1069C000D3F8013053F82A30D3F81A304FEA8A0945
:1069D000A3B1FDF741F94368D3F8013053F82A30E9
:1069E000D3F81A404FF0000BFDF736F94368D3F89F
:1069F000013053F809305B7E5B4502D80AF1010A89
:106A0000CBE7237A03F00902012A17D1D80615D55E
:106A1000E268B21ABA4211D8590719D443F00402F5
:106A200022729A0702D50135EDB207E0628A4AB1B7
:106A3000238AD21A92B208FB0262E26030340BF170
:106A4000010BD1E723F0100343F004032372F5E7B1
:106A500023F0100343F002032372E4E7FEFFFF7FFD
:106A60001F6600002DE9F84F9B46804689469246F6
:106A7000FDF7F2F84368002B45D100242046BDE81D
:106A8000F88FFDF7E9F84368D3F8013053F8253063
:106A9000D3F81A30AF003BB90135FDF7DDF8436894
:106AA0001B789D42EDD3E8E7FDF7D6F84368D3F8AD
:106AB000013053F82530D3F81A400026FDF7CCF802
:106AC0004368D3F80130DB595B7E9E4209D3FDF762
:106AD000C3F84368D3F80130DB595B7E9E42DBD2BA
