:1000000000000420B5020000DD020000DF02000055
:10001000E1020000E3020000E50200000000000031
:10002000000000000000000000000000E7020000E7
:10003000E902000000000000EB020000ED020000F9
:10004000C1A40000559C030089A90000EF02000034
:10005000EF020000EF020000E5A70000EF02000041
:10006000EF020000EF020000EF020000EF020000CC
:10007000EF02000099AA0000EF020000EF0200006A
:10008000EF02000069910000EF020000EF020000A3
:10009000EF020000EF020000EF020000EF0200009C
:1000A000EF020000EF020000EF020000EF0200008C
:1000B000EF020000EF02000000000000000000005E
:1000C000EF020000EF020000EF020000EF0200006C
:1000D00055CA0300EF020000EF020000EF0200002B
:1000E000EF020000EF020000EF020000000000003D
:1000F00000000000EF02000000000000EF0200001E
:1001000000000000000000000000000000000000EF
:1001100000000000000000000000000000000000DF
:1001200000000000000000000000000000000000CF
:1001300000000000000000000000000000000000BF
:1001400000000000000000000000000000000000AF
:10015000000000000000000000000000000000009F
:10016000000000000000000000000000000000008F
:10017000000000000000000000000000000000007F
:10018000000000000000000000000000000000006F
:10019000000000000000000000000000000000005F
:1001A000000000000000000000000000000000004F
:1001B000000000000000000000000000000000003F
:1001C000000000000000000000000000000000002F
:1001D000000000000000000000000000000000001F
:1001E000000000000000000000000000000000000F
:1001F00000000000000000000000000000000000FF
:1002000010B5054C237833B9044B13B10448AFF350
:1002100000800123237010BDD804002000000000DE
:100220007811040008B5034B1BB103490348AFF331
:10023000008008BD00000000DC04002078110400EC
:10024000154B002B08BF134B9D46A3F5803A0021A8
:100250008B460F461348144A121A3CF08AFF0F4B84
:10026000002B00D098470E4B002B00D09847002061
:10027000002104000D000D48002802D00C48AFF307
:1002800000803CF0FFFE200029000BF04FFC3CF00A
:10029000D3FE00BF000008000000042000000000A2
:1002A00000000000D8040020289300200000000077
:1002B000000000000649074A074B9B1A03DD043B78
:1002C000C858D050FBDC0BF0ADFCFFF7B9FF0000C5
:1002D0007C12040000000020D8040020FEE7FEE7A6
:1002E000FEE7FEE7FEE7FEE7FEE7FEE7FEE7FEE7E6
:1002F000F0B595B01C46164608460D4609F0C0FC00
:100300001A9B0D93CDE9086400242346082205A911
:1003100028460A948DF82C400C9409F0CFFC079BDA
:100320000293BDF81830ADF80C30BDF81A30ADF8B6
:100330000E309DF814308DF8114003F00302012AAD
:100340001DD1BDF81440059EC3F3C203C4F383144A
:100350008DF81030A20008230EA9284609F0AEFC43
:10036000C6F3952608AB0093224602AB0EA9304691
:1003700000F02EFD284609F087FC15B0F0BD022ADA
:10038000F8D1BDF81640C3F3C203A4098DF81030AC
:100390000827082C264628BF08263B4632460EA9C9
:1003A000284609F08BFCA41B08AB02AA31460EA814
:1003B000374400F071FD002CEBD1DBE7014B01224B
:1003C0001A707047350500207047000070B50F4D5A
:1003D00006460FCD88B06C460FC495E80F00002E7E
:1003E00084E80F004FF006030093094A09484FF0D4
:1003F000805308BF00226946069309F03FFF08B109
:1004000008F090FB044B1E7008B070BD3CE903007F
:10041000BD03000000000020F404002007B5044BD9
:100420000093044A4023FFF763FF03B05DF804FB29
:1004300039040000F504002038B50D4B0D4D0020A7
:1004400018700D4804782D5DD2B21C4665B1043099
:100450000AF0CCFF08B108F065FB084B1A7812B11E
:100460002378002BFBD038BD0C300AF05BFDF1E7A0
:10047000350500207872002000000020F4040020E0
:1004800008B50848084A0378D35C3BB104300AF049
:100490003FFF0020BDE80840FFF798BF0C300AF08E
:1004A000E7FCF6E700000020787200200120FFF74B
:1004B0008DBF000008B5FFF7F9FF0421034800F0E5
:1004C000E5FB034B01225A7108BD00BF4C1204002A
:1004D00014000020037813F0040216D003F0030385
:1004E000012B03D0022B09D0012070470A68008835
:1004F0000232C0F3831002440A60F5E70B684288B9
:10050000023303EB92130B60EEE7104670470000D6
:100510002DE9F04F484C87B00F460546861C002059
:10052000019208F0D3FC23683B60D4E90123134413
:10053000226801339B1A04F21C4704F5836A04F213
:100540001448B34219D3019A0023002A6CD0012227
:1005500062F3010343F0040365F389132168A26881
:100560000A4003320E44002044F82230266008F08E
:10057000AFFC012007B0BDE8F08F0121384608F03C
:10058000BBFE504608F0D1FE404608F0CEFE0DF10D
:1005900018096068D4F808B049F8100D00EA0B009B
:1005A000033004EB80004946FFF794FF029BB0B98B
:1005B0000BEA030204EB8202D16803919A1C013317
:1005C00003EA0B0B04EB8B0C01F00303012B0292EB
:1005D000DCF80CB020D0022B04D083460BE00BEAF1
:1005E0000300DDE7BDF80E309B0903334FEA1B4BD8
:1005F00002EB93030293404608F09AFE08B1029B77
:1006000063605946384608F077FED4E90123134465
:10061000226801339B1A94E7BDF80C30C3F38313AF
:100620004FEA1B4B1344E5E7022262F3010343F058
:10063000040365F39F5391E70806002030B50A4B89
:100640000A4A0B49D21AD20800239A4201D1052046
:1006500006E031F823500468A54202D1036000206F
:1006600030BD0133F1E700BF941104004C120400C7
:10067000080400202DE9F84F224B2348FF229A60FE
:100680000022C3F81824C3E90022C3F8142483F815
:10069000202409F0AEFA804688B91C481C4E1D4D36
:1006A000DFF874A009F018FCAD1BED084446AC421D
:1006B00008D10023184919481A469C421BD14046CC
:1006C000BDE8F88F4FF000094F4606EBC40BBC4263
:1006D0000AD0142256F83710DBF800003DF0B4F8C9
:1006E0000028C8BF09F101090137BD42EFD12AF83E
:1006F00024900134DBE701EB830540F823206A8076
:100700000133DAE7080600205C1204007CE90300EC
:10071000941104004C12040008040020640400201A
:1007200007B5019031B9019A064B53F8320003B076
:100730005DF804FB01A8FFF781FF0028F3D000203B
:10074000F5E700BF94110400094B013903EBC00029
:10075000032909D8DFE801F00A02040604207047E3
:100760000079704740797047002070470220704739
:100770009411040030B5124C00EB400054F82150A5
:100780008240072303FA00F06A4002400D4B6A40A2
:10079000C2F3821044F8212003EB8101C2F3C203AB
:1007A000834238BF0346C2F34220834202F007026D
:1007B00038BF03469A4238BF1A464A8030BD00BF50
:1007C000640400200804002037B5164B93F8203449
:1007D00004460BB918B90024204603B030BD3DF0E3
:1007E0002BF802AA013042F8080D012301A90E4896
:1007F00009F080FB05460028EDD12146009A0198BA
:100800003CF093FCDDE900231344074803F8015C46
:10081000009909F0A6FB0099034809F0BBFB019C75
:10082000DAE700BF080600207CE90300034BD3E9A8
:100830000030C31A58425841704700BF08060020D4
:100840002DE9F04F85B0FFF7F1FF0646002840F094
:1008500018818D4DC5F81804BFF34F8F6868AC68D8
:1008600004AF47F8100D2040033005EB80003946F7
:10087000FFF730FE009B18B1D5F81824002A66D087
:1008800004EA0302991C013305EB8202234005EBC5
:100890008303D268DB68029302F00303022B019208
:1008A000009169D1BDF8063078489DF804604FEAA0
:1008B000931ABAF1500FD14628BF4FF0500969F38F
:1008C0008F1309F10801ADF8063009F0AAF9C6F353
:1008D000C2068046002800F0BB8009F0D1F901A9CA
:1008E00000230822404609F0DEF9009924EA0107B6
:1008F0000137BF00B94538D95FFA89F997B3FFB21C
:10090000A9EB0709214003315FFA89FBB946604F23
:1009100005EB810108234A46404609F0C4F937B186
:1009200009F108035A463946404609F0BCF9009BD4
:100930000AF1030A03EB9A030093D5F81834002B4D
:1009400050D1D5F81044DFF85C9107276FE02A6892
:100950009A4204D86A60304605B0BDE8F08F04EAD8
:10096000030081E74A49BB46D4E72140033108230D
:100970004A4605EB8101D7E7012B69D1BDF8046038
:100980004248C6F38311062928BF062161F3891660
:1009900002318900ADF8046009F043F9C6F3C206DC
:1009A0008046002854D009F06BF90023082201A9E1
:1009B000404609F078F90027BDF80420C2F38312FD
:1009C000BB1C97424FEA8303B7D200994A1C2140CF
:1009D0000331009205EB81010422404609F063F9DE
:1009E0000137E9E7404609F04FF9FFF71FFF80F0B4
:1009F0000100C6B2AFE7E3685A79B2B11B79BDF81E
:100A0000081003EB430259F8211007FA02F3052EF0
:100A100003EA010323FA02F308BF0326B34204D317
:100A2000236841461B6820469847E3681C68002CF1
:100A3000E1D1404609F028F9204608F047FAD5F8F8
:100A400018340BB9009B6B60002008F041FACCE72A
:100A5000D5F8104474B90F4B5B88012BC5D90E4BE8
:100A60000E480F49C01AC008000440F0020000F010
:100A700073F8BAE7236820469B689847E3681C68C8
:100A8000E8E7002667E700BF080600205C120400C4
:100A9000140600202004002094110400C411040056
:100AA00088E90300640400202DE9F74F284C8046B4
:100AB0000F46924601A9012218469B46D4F8089099
:100AC000FFF726FD88B3019D0026A91C5E4506EBB5
:100AD000010234D100211F4808F0D8FB80F3100038
:100AE0006A1C02EA090204EB8202000405EA090317
:100AF000033340EA1840D06014F8232068F3C5029D
:100B000004F8232034F8232066F3891224F82320E4
:100B100054F82320012167F39F2244F8232061F336
:100B200001026FF3820204F8232094F820341BB1F1
:100B3000FFF786FE0028FBD103B0BDE8F08F09EA7D
:100B4000020204EB82025AF82630D3600136BDE778
:100B500008060020240A002000231A46FFF7A4BF3D
:100B600013B502AC012344F8042D2246FFF79CFF85
:100B700002B010BD07B5CDE9002302236A46FFF796
:100B800093FF03B05DF804FB1FB5CDE90123069B7D
:100B9000039301AA0323FFF787FF05B05DF804FB69
:100BA0001FB5CDE90023069B0293079B03936A467A
:100BB0000423FFF779FF05B05DF804FB2DE9F34747
:100BC0008046304CD01C8A46174601A90022800876
:100BD000A568FFF79DFC002840D0DDF80490A668CA
:100BE00009F10200019001362840361AB6000330A0
:100BF000B74204EB80003BD83A4651463CF095FAA8
:100C00000021214808F042FB80F3100009F10103A4
:100C10002B4004EB83034FEA184242EA0040D860BD
:100C200005EA0903033304EB830214F8231068F385
:100C3000C50104F8231034F823106FF38F1124F842
:100C40002310518867F38F11518014F8232002215B
:100C500061F301026FF3820204F8232094F8203438
:100C60001BB1FFF7EDFD0028FBD102B0BDE8F08716
:100C7000324651463CF059FABA1B0AEB060104F120
:100C80000C00BBE708060020240A00202DE9F843E9
:100C90001F4B8846D3F81014054600240A469AB91B
:100CA000E9680C71D3F81014A1B9C3F81054EB68BB
:100CB0001A60184F184EF61BF6084FF00009B145A0
:100CC00011D12046BDE8F883D2681079A04218D02F
:100CD0001268E4E7C968EA6809681160D3F810345B
:100CE000DB681D60E5E707EBC9034946DA79EB6885
:100CF000424528BF42461879FFF73CFD09F101093A
:100D0000DDE701340A2CC9D14FF0FF34D9E700BF29
:100D100008060020941104004C12040010B5037A58
:100D2000052B0C460FD0437A23B1084A08492046C8
:100D300008F05DFB0749204608F059FB2046BDE856
:100D4000104008F049BB002AF8D0F3E7E3E90300BC
:100D50001BF6030005EA030073B5C38804460D467D
:100D600033B1144A00921449144A284608F03FFB54
:100D7000217A05291CD0637A4BB1A088FFF7E4FCE7
:100D80000F4B104953F82020284608F030FB227AF8
:100D90000D4BA08853F822600021FFF7C1FC0B49DE
:100DA00003463246284602B0BDE8704008F01FBB3B
:100DB00002B070BDE3E90300F0E90300E8E90300D5
:100DC000B0E903001BF6030014EA030008EA03007D
:100DD0002DE9F04385B01F460C9D002306460C46C6
:100DE000904695F80C902B7329463846FFF7B4FFD0
:100DF000B8F1060F09D8DFE808F00412181F2833ED
:100E000040003146284608F0F2FA002229463846CA
:100E1000FFF784FF85F80C9005B0BDE8F0832268E9
:100E20003146284608F0E3FAEFE7D4E900233146DB
:100E3000284608F0DCFAE8E7A36800933146D4E9D5
:100E40000023284608F0D3FADFE7E3680193A3689C
:100E500000933146D4E90023284608F0C8FAD4E7C5
:100E600023690293E3680193A36800933146D4E9B0
:100E70000023284608F0BBFAC7E763690393236998
:100E80000293E3680193A36800933146D4E90023F9
:100E9000284608F0ACFAB8E708292DE9F84F804653
:100EA0000E4617461C4635D8002593F80C901D7346
:100EB00019461046FFF750FFDFF88CA0DFF88CB022
:100EC000AE4229D918F805205946204608F08FFA75
:100ED0000135082DF4D11A49DFF874B0204608F026
:100EE00086FA4FF0000A564524D918F80A507E2D8C
:100EF00017D92E225946204608F079FA0AF1010A3C
:100F0000BAF1080FEFD1012221463846FFF706FF5C
:100F100084F80C90BDE8F88F5146204608F067FA37
:100F2000D6E73CF0D3F82844427812F0970FE0D08F
:100F30002A46DFE70349204608F059FADEE700BFFA
:100F4000DEE90300DCE90300DAE90300D4E9030089
:100F5000E0E90300074B1B5C1F2B8ABF064A4FF0DA
:100F6000A04203F01F03D2F80405D840C04300F0AC
:100F70000100704779EA030000030050074B1B5C37
:100F80001F2B86BF03F01F0305494FF0A04101222C
:100F900002FA03F3C1F80C35704700BF79EA030089
:100FA00000030050074B1B5C1F2B86BF03F01F0381
:100FB00005494FF0A041012202FA03F3C1F80835B8
:100FC000704700BF79EA03000003005008B5002015
:100FD000FFF7E8FF0120FFF7E5FF0220FFF7E2FF40
:100FE0000320BDE80840FFF7DDBF08B50020FFF78C
:100FF000C5FF0120FFF7C2FF0220FFF7BFFF03205C
:10100000BDE80840FFF7BABF0A4B185C1F288ABF2B
:10101000094B4FF0A04300F01F00D3F80425012135
:10102000814021EA02000A40C3F80805C3F80C25F4
:10103000704700BF79EA0300000300500B2809D075
:101040000C2809D0182809D019280CBF03204FF00C
:10105000FF30704700207047012070470220704722
:10106000C20710B504460CD54FF0A0430322C3F8C5
:101070003427C3F83827C3F83C27C3F84027FFF7C5
:10108000A5FFA3070AD54FF0A0430C22C3F82C27D5
:10109000C3F83027C3F86027C3F8642710BD0000E9
:1010A000F8B50F4B002420220F460D2183F88A202B
:1010B0001C7083F8784083F88C102246234605463E
:1010C00023F0C8FF064650B1214628461DF069FEB0
:1010D000377029460348BDE8F84023F071B9F8BDE0
:1010E000EA710020A554020073B502AB00220C4641
:1010F00003F8012D11461CF0A3FF38B90A4B9DF8E7
:10110000071093F843200D25824202D86FF01B0090
:1011100006E005FB0036F67B8E4203D120700020EE
:1011200002B070BD0130EFE7EA7100200B4BD3F83D
:1011300001202AB983F87820114609481DF047BBE1
:101140008C2A0BBF0722062283F8782083F87820A8
:1011500007BF0022032100220221EEE7EA710020EE
:10116000A110000037B5114C05461DF0F9FB22789F
:10117000042A07D142782AB929460D481DF027FBD9
:1011800003B030BD0DF107014088FFF7ADFF002827
:10119000F6D19DF8073007480D2202FB034329468C
:1011A0005A7D01325A7523F00BF9E9E7EA71002004
:1011B000411400000916000008B50022FF2109486B
:1011C00023F0ECFB0022FF21074823F0E7FB752208
:1011D000002106483BF0CDFF054B064AC3F8942D8D
:1011E00008BD00BF2D11000029120000EA71002087
:1011F0007C720020B917000010B50022084C094885
:10120000114623F0CBFB94F8440003F061F900236E
:101210002022237084F88A2084F8783010BD00BF23
:10122000EA7100202912000010B5044620B90948CF
:10123000BDE810401DF0A6BAFFF7DEFF00230C2129
:1012400020461A4623F006FF21460348BDE8104019
:1012500023F0B6B829120000A554020008B50022F8
:10126000FE21054823F09AFB002201210348BDE836
:1012700008401DF0ACBA00BF2D110000A110000005
:1012800070B50C4BD3F845302BB11C7CD3F8115002
:101290000023A34201DB002070BDC3EB03122A44EC
:1012A0001688864202D1127A8A4201D10133F0E7D0
:1012B0000120F1E7EA7100202DE9F047044688B0EB
:1012C000C0790E461DF04CFB90F80BA0077B8046C2
:1012D0005744D4F80950BD4280F090802B1D08EB94
:1012E0004303AA4594BF02210121B3F80590484663
:1012F000FFF7C6FF002800F08A80DFF838A11C2124
:1013000030461DF0C1FCDAF809300546D046002B06
:1013100050D0217806A81CF019FBA279DAF809A0B0
:1013200022444B46527806A90220D047002841D1DA
:101330006FF04402D4F809309F4270D13D4F97F8C6
:101340004A30002B67D0B7F875204FF6FF739A42EA
:1013500061D00025217806A81CF03AFB2B462A46CE
:1013600001210095304601F02FFCB7F8751022F0EE
:101370000EFF01464FF48273042201F8015BCDE9B0
:101380000232049597F844300193A379234406AAC6
:101390005B7800933046022301F0A4FBA379E17946
:1013A00025480133A37123F00BF80023E37108B043
:1013B000BDE8F0871C22002128463BF0DAFE2846D3
:1013C00023F0F0FF98F844302B72A5F80A90B8F893
:1013D00075204FF6FF739A4212D1217805F10D0066
:1013E0001CF0B4FA03232B73A379234430465B78B3
:1013F0006B75124B2672AB610CF000F8002299E776
:1014000001232B73B8F87530A5F80D30ECE70135E2
:10141000C4F809505DE730461DF042FABEE7002AE5
:10142000C5D00133C4F8093031462046FFF744FFE8
:10143000BDE700BFEA71002009160000DD140000BE
:101440002DE9F341CFB2054638460C461DF088FA27
:10145000204EC1888046D6F8450000F056FEB8F808
:1014600002300DF10701A8B11846FFF73DFE30BB71
:101470009DF807300D2101FB036429462076607634
:10148000A076E0762046A7750F30FFF715FF02B073
:10149000BDE8F0811846FFF727FE804678B99DF831
:1014A00007000D2303FB00603946437D013343757C
:1014B000094822F085FF002DE9D0444600E015B12F
:1014C00028461DF0EDF9002CE1D0E0B21DF0E8F95E
:1014D000DDE700BFEA710020091600002DE9F04F9A
:1014E0001C2185B08146304C1DF0CEFB94F8432082
:1014F000834600250D21954215D32C4B1B687BB9E3
:101500000AF04CFD014658B904230093CDF804902D
:101510004FF4BA7340F25B324FF0FF3023F04AFDD4
:1015200005B0BDE8F08F01FB05F804EB0803D87D9A
:1015300048450DD10026DE7548461DF02BFC48B10C
:101540006FF07303A670E67026716370012609E0E0
:101550000135D0E701236070A070E070207184F83D
:101560004A3006460D2707FB054702A8F97B1CF009
:10157000EDF9D4F809A0BAF1000F07D07B7D1F4424
:1015800002A9BBF80A303A7C3046D0470D2303FB52
:10159000054508F10F00AB690133AB6149462044B2
:1015A000FFF78AFEBCE700BFEA71002094820020AA
:1015B00070B50E460546014630461DF0F2FB8C2DF7
:1015C0000F4C03D1072384F8783002E0B5B984F8D2
:1015D00078502378052B06D1002394F878200C212D
:1015E000304623F037FD00232370202384F88A300F
:1015F00031460448BDE8704022F0E2BE0623E2E72F
:10160000EA710020A55402002DE9F34105461DF0C2
:10161000A7F90DF105014088FFF766FD0746002890
:101620004AD19DF80530274C0D2202FB0346717DFF
:10163000307D884222D93144284691F81080032118
:101640001DF0E0F90322394604463BF092FDF17BA0
:101650000DF106001CF0BCF9BDF80630238084F8BB
:1016600002801949284627F029FEFF2803D1294680
:101670008A20FFF79DFF02B0BDE8F081FF21022B19
:10168000F1730BD803FB022000F10F01C3F1030338
:1016900002305A43214420443BF052FD94F8433039
:1016A000013BDBB284F8433033B9D4F801208C2AF3
:1016B00008BF072384F87830002DDCD028461DF0C1
:1016C000EFF8D8E7EA710020651100002DE9FF4727
:1016D000364D80461DF044F995F80090B9F1040F9D
:1016E00007465AD10DF10D014088FFF7FDFC8246F7
:1016F000002858D19DF80D400D2606FB04560DF12B
:101700000E00F17B1CF064F93B793375042B86F8ED
:1017100015A029D9264B1A689A4602BB0AF03EFC4E
:10172000014650B9337D40F25B32CDE900934FF072
:10173000FF3040F2B33323F03DFCDAF8003073B9E8
:101740000AF02CFC014650B90423CDE9003340F2E5
:101750005B3240F2B5334FF0FF3023F02BFC0D230A
:1017600003FB045304221A750D2303FB0453197D54
:1017700004EB440304EB830400238B4206D341466D
:101780000C4822F01DFE04B0BDE8F087FA1850792D
:101790001A192A4401331074EFE76FF0070041462D
:1017A000FFF706FFEFE70020F9E700BFEA7100202E
:1017B00094820020091600002DE9F047664D2B7831
:1017C000042B8CB0064640F0C380D5F801301C33A2
:1017D00004D100236B70AB70EB702B711B21304672
:1017E0001DF052FA1B22014605A83BF09EFC03A9FE
:1017F000BDF815001CF050FC28B9584B93F8D00FD9
:1018000010F0200414D0062130461DF03DFABDF83A
:10181000153043800380002383805149304627F0F0
:101820004DFCFF2874D131468A20FFF7C1FE6FE0DE
:10183000FF238DF80A302B78BDF815709DF81F90A6
:10184000042B1FFA87F810D10DF10A014046FFF76B
:101850004BFC70B195F84330032B04D88DF80A3057
:10186000013385F84330204601E06FF00700012482
:1018700000E004469DF80AA0BAF1FF0F4DD0002CFD
:1018800049D000220DF10B03114640461CF0D8FB55
:10189000002842D10D2303FB0A539DF80B20DA7375
:1018A000187558754FF00D0808FB0A5898F8143051
:1018B000032B35D808EB0302013382F8109088F827
:1018C0001430002C43D0052130461DF09BF8052232
:1018D000044600213BF04DFC002363700D2303FB05
:1018E0000A5567802B7D23711E4B1B6863B90AF074
:1018F00055FB014640B900904FF45F7340F25B32F4
:101900004FF0FF3023F056FB3146174822F058FDC8
:101910000CB0BDE8F0870028C4D0314600B284E79F
:10192000104B1B68002BCCD10AF038FB0146002875
:10193000C7D198F8143001930423009340F25B322E
:1019400040F271334FF0FF3023F034FBB9E73046FB
:101950001CF0A6FFDCE700BFEA7100207C720020CB
:10196000091A00009482002009160000F7B50E46FF
:1019700002A9FF25044601F8025D3046FFF7B4FBDB
:10198000A0B31F4A92F84330032B04D88DF80630D9
:10199000013382F843309DF80650FF2D29D002AB69
:1019A000002203F8012D114630461CF049FB074682
:1019B000F8B9134B0D2202FB05359DF80730EB7388
:1019C000022120461DF01EF80546022239463BF052
:1019D000D0FB2E800B49204627F089FCFF2803D13D
:1019E00021468A20FFF7E4FD03B0F0BD8DF80650D4
:1019F000D1E7002CF8D020461CF052FFF4E700BFDE
:101A0000EA710020CD16000037B504461CF0A8FF8F
:101A1000054620461DF0BEF9024658B969890DF108
:101A20000703A81C1CF032FC69892046FFF79EFFC3
:101A300003B030BD20461CF033FFF9E70D4930B547
:101A4000A1F5BC720225914201D800200EE08B1A4C
:101A5000DB1093FBF5F302EBC30452F833308342FF
:101A600005DC02DA04F10802EDE7606830BD2146CA
:101A7000E9E700BF10EF030008B5FFF7DFFF024BF7
:101A8000002808BF184608BD7DEA03002DE9F7438A
:101A90000A9F1E4680468946154601F0B3F8D0F8E5
:101AA000B030DBB101F0AEF80097D0F8B04033466B
:101AB0002A4649464046A04704464A4641462846EB
:101AC00002F063FF14F1450F03460BD148B13A46CB
:101AD0002946304603B0BDE8F04318476FF0440490
:101AE000EBE70446204603B0BDE8F0832DE9F04162
:101AF000069F05461E4602F05DFF044630B13A4699
:101B0000314628462346BDE8F0411847BDE8F0813C
:101B1000B0F80F30B3F5A06F01D102F01DBC7047D3
:101B2000F8B50C46154607461E4600F0DFF90122BF
:101B3000002100F01AFB90B1122301220021384647
:101B400001F0F4FD58B14368187840B91EB1052C76
:101B500005D90B2C02D1032D01D00020F8BD0120A6
:101B6000FCE7000037B50146044600220F481CF090
:101B70002EFE0546B8B10E4B1B6873B90AF00EFA7B
:101B8000014650B90423009301954FF49F6340F63A
:101B90000F024FF0FF3023F00DFA204603B0BDE8EE
:101BA00030401CF07DBE03B030BD00BF7524000086
:101BB0009482002013B5154AD2F8E03A1BB1D2F84E
:101BC000E43A2BB90123023302EB8303C3F8D80AAA
:101BD000D2F8DC3ABBB9C2F8DC0A0D481CF0D2FDE1
:101BE000044680B10B4B1B686BB90AF0D7F901466C
:101BF00048B90423009301947D2340F60F024FF06F
:101C0000FF3023F0D7F902B010BD00BF7C72002076
:101C10003525000094820020272807B5034620D0F0
:101C200041D81A2838D022D80D2800F0978011D832
:101C30000A2831D007D8082800F0898009287DD0EB
:101C40004FF0FF3084E00B2800F086800C28F7D19D
:101C500005207DE010287AD005D80E2821D00F2845
:101C6000EED1082074E0182871D01928E7E7202861
:101C70006DD00AD81D2871D003D81B286CD01C2821
:101C8000E5E71E280DD01F28EAE7232864D005D8F1
:101C9000212853D02228D3D1032059E025285DD014
:101CA000D6D9072054E03A28DBD019D82D2855D0B2
:101CB0000AD82A28F0D003D8282848D02928BEE7F7
:101CC0002B2849D02C28C2E7302840D003D82E2812
:101CD000E7D02F28C4E7382830D03DD83128AEE7E8
:101CE000E22826D8E02837D243280ED009D8412848
:101CF000A6D30029A4D00878FF28A1D00130C0B213
:101D000026E0482801D04A289AD102A80022482B70
:101D100020F8022D4FF0020201D0432B20D13BF0DE
:101D200004FABDF806004FF6FF73984288D00230DF
:101D30000EE0EA2810D003D8E82881D3022007E07B
:101D4000F0288ED0F1287FF47BAF102000E0012036
:101D5000C0B203B05DF804FB0420F9E70620F7E702
:101D60003BF0E3F9BDF806309B00ADF80630D8E74C
:101D7000252973B5044615463DD026D8182930D0FC
:101D800016D80A296BD006D808292AD009295FD08D
:101D9000204602B070BD0F297ED0102921D00B291A
:101DA000F6D12046042229463BF0BFF90434EFE780
:101DB000202916D004D81A2951D049D31B29EFE77E
:101DC00022294CD044D32329EAE742291AD84129B1
:101DD0004CD22B29E5D008D8292939D03FD8282939
:101DE000D6D12B7804F8013BD2E73029F9D031293C
:101DF0002ED02D29CCD12046062229463BF095F93C
:101E00000634C5E74A2904D01CD8432901D0482903
:101E1000BED102A80023482920F8023D4FF002025B
:101E200001D043292FD129463BF07FF9BDF8066048
:101E30004FF6FF739E42ABD00236B6B23246294609
:101E400020461CE0F02927D0F1292CD0E229A7E771
:101E50002046022229463BF068F9023498E72046E2
:101E6000032229463BF061F9033491E7002A8FD021
:101E70001678FF2E8CD00136F6B2324629463BF05A
:101E800054F9344484E729463BF04FF9BDF8063055
:101E90009B00ADF80630C9E72046082229463BF0F2
:101EA00044F9083474E7102229463BF03EF9103417
:101EB0006EE700002038C0B20D289ABF014B185CB5
:101EC0000020704710EF03002B2809D8282805D2DE
:101ED000202809D3232801D9252805D101207047BE
:101EE0002D28FBD0E228F8E70020704770B5144990
:101EF000D1F8E02A0AB315780024AC4208D2D2F80F
:101F0000013053F824301E78864202D00134F4E7C1
:101F10000023D1F8E44A2CB125780022AA4203D349
:101F200019460B46184670BDD4F8011051F822101E
:101F30000E788642F5D00132F0E71346F2E700BF93
:101F40007C72002070B51B2188B004461CF09CFEFA
:101F50001B22014601A83BF0E8F89DF810603046CE
:101F6000FFF7C4FF9DF81A30BDF813209DF8171035
:101F700005463046FFF7D4FD20B920461CF090FC02
:101F800008B070BD05F084F940B9D5F80330EBB95D
:101F9000204602F03AFD024650B9F1E7BDF81300C1
:101FA00004F0B7F948B19DF812301B0705D47E2222
:101FB00001A9204602F098FDE2E7BDF81310BDF834
:101FC000050004F057F90028DFD1F0E7074BD3F8FC
:101FD0008C3D33B9D5F80330204698470028D7D038
:101FE000CEE701A898470028D2D1F3E77C72002001
:101FF00000F52D33F0B503F2A513104D03F00F02D9
:1020000013462C469F1C05EBC70696F8DCCABCF1AC
:10201000000F07D104EBC70383F8DC0AC3F8D81A12
:102020000020F0BDD6F8D86A002EF3D0013303F0BB
:102030000F039A42E6D16FF01500F2E77C720020A0
:10204000F8B500F52D3303F2A513194903F00F027B
:10205000054613460E469C1C01EBC40090F8DC7A42
:10206000AF421CD119F04CFC28B128461CF092FE5E
:1020700008B129F03FFB06EBC405D5F8D80A58B1E2
:10208000394622F09DF90020C5F8D80A06EBC404B1
:10209000002384F8DC3AF8BD6FF01B00F6E701334B
:1020A00003F00F039A42D6D16FF01B00F3E700BF95
:1020B0007C72002037B50D46144619469DF81C3039
:1020C000E8B14268DAB13BB1C3785A0617D49B072E
:1020D00002D4882003B030BD069A038800922046BF
:1020E0002A46FFF7D3FC411C0BD0821D0BD0831C6A
:1020F000EFD010F1280F14BF00207E20EAE78620E1
:10210000E8E78720E6E70020E4E7034648B3D0F895
:10211000150028B3B3F80130994224D0B1F5827F7D
:102120001FD06FF480728A18072A0DD94FF6FF72FC
:10213000914211D1B3F5827F15D04CF25E008342FB
:1021400014BF00200120704701204CF25E02914232
:1021500004D1B3F5827FF3E70020F6E70028F8D139
:102160007047002070470120FAE770B598B1057CF0
:102170000024AC4202D30023184670BDD0F81130C1
:10218000C4EB041633441E888E4202D11E7A964256
:10219000F2D00134EDE70346EEE700002DE9F04F01
:1021A00087B083460D4616461F46109C01F0BEFAC6
:1021B0008046002800F08780002C00F084809DF885
:1021C00044302A46CDE9004359463346FFF772FFB3
:1021D0000390A0BB3B463246294658460094FFF781
:1021E00085FC214698F80200D8F80490FFF714FD0A
:1021F0002146024648463AF098FF98F803305907BE
:1022000005D53B4632462946584603F011FD98F85D
:1022100003301A0713D54FF0000A2C4B5344D3F860
:10222000E09AB9F1000F0AD04FF0000899F8003099
:10223000984508D30AF1040ABAF1080FEDD10398C2
:1022400007B0BDE8F08F4FEA88030493D9F8013056
:1022500053F8280003785B4532D032462946FFF711
:1022600084FF0028E2D0394601F05CF90290002892
:10227000DCD0D9F80130049A9B582946187800948C
:1022800032463B46FFF732FC029B5B680593029B9C
:1022900021469878FFF7C0FC059B02462146184668
:1022A0003AF043FF029BDB785B0709D5D9F8013090
:1022B000049A985829463B463246007803F0B8FC09
:1022C00008F10108B2E701230393B8E77C7200200C
:1022D0002DE9F74F00250646894693460193009560
:1022E000264BEB18D3F8E07A17B3002E43D03A7898
:1022F00000239A4203F1010403D84FEA840A06B38B
:1023000013E0D7F8011051F823301978B142234671
:10231000EFD10026F1E7012080B101994046FFF797
:10232000F4FE58B198F8003000930435082DD7D149
:10233000009803B0BDE8F08F5A4614E001340AF16A
:10234000040A3B78A342F0D9D7F80130BBF1030F60
:1023500053F80A80F0D1012249464046FFF705FFB5
:102360000028D8D1022249464046FFF7FEFE003041
:1023700018BF0120D0E73446BFE700BF7C720020C1
:1023800037B51B2105461CF07FFC037BFF2B044661
:1023900030D1037DB0F80F10002B08BF0122B0F838
:1023A000113018BF02220020FFF792FF28B92846FB
:1023B00003B0BDE830401CF073BA207300222946F8
:1023C00010481CF004FA0446D0B10F4B1B68002BD8
:1023D000EDD109F0E3FD01460028E8D10423009384
:1023E000019440F2525340F60F024FF0FF3022F0BA
:1023F000E1FDDCE7284603B0BDE83040FFF7A2BDB1
:1024000003B030BD752400009482002030B589B03F
:1024100004461B22002101A83AF0ABFE01A9204688
:1024200002F0A4F801A905460246204610F0E4FB9C
:10243000B8B920461CF094FA037813F0040F14BFC7
:102440000521032120461CF055FB1B2120461CF0D2
:102450001BFC1B2201A93AF068FE25B92046FFF7B4
:102460008FFF09B030BD2A4601A9204602F03CFB8F
:10247000F7E700002DE9F041CDB207461B212846C1
:102480001CF002FC0446294638461CF08AFA94F8EF
:102490000C80124E21F054FE3946B0FBF6F610487F
:1024A000324622F0B3F8237DB4F80F10002B0CBF96
:1024B00001220222B4F811304046FFF709FF20B98B
:1024C0002846BDE8F0411CF0EBB92073324629469E
:1024D0000448BDE8F04122F099B800BF7CF0C10784
:1024E000451F0000651B00002DE9F84F00248146C0
:1024F0008A4627460E4BE318D3F8E06A9EB196F859
:1025000000B00025AB450BD9D6F8012052F8258044
:10251000494652464046FFF728FE38B198F8007009
:102520000434082CE6D13846BDE8F88F0135E9E7D8
:102530007C72002013B50446B8B914481CF022F987
:10254000044680B1124B1B686BB909F027FD0146A8
:1025500048B9042300930194402340F60F024FF042
:10256000FF3022F027FD02B010BD01212020FFF72F
:10257000BBFF0146204621B102B0BDE8104002F089
:10258000C7BF02B0BDE810401CF08AB93525000075
:1025900094820020F0B50E4E054600234FF6FF70E2
:1025A0009A19D2F8E01A81B10F780022974209D91E
:1025B000D1F8014054F8224094F800C0AC4505D150
:1025C000B4F801000433082BEAD1F0BD0132EDE785
:1025D0007C72002038B504460D46FFF7DBFF44B19E
:1025E000B0F5827F05D14FF657402B1A584258411B
:1025F00038BD0020FCE700002DE9F84F002482469A
:1026000088462746104BE318D3F8E06A3EB196F8A7
:1026100000B000255D4505D30434082CF2D13846BE
:10262000BDE8F88FD6F8012052F825905146424671
:102630004846FFF79AFD10B1027A424501D00135B4
:10264000E8E74F46E8E700BF7C72002038B51B2161
:102650001CF01AFB0446007BFFF748FC257DB4F80C
:102660000F10002D14BF02220122FFF77EFD124B36
:102670001B7A012B15D0227EA37D6AB1002B0CBFE3
:1026800083238423A8B1012D0DD1027A12F0020F09
:1026900018BF0023184638BD002B0CBF81238223AE
:1026A000F0E78123EEE7002DF4D1027A12F0010F5A
:1026B000EEE7C323EEE700BFC40A002007B50422FB
:1026C00001460DEB02003AF030FD019803B05DF8D1
:1026D00004FBF7B50191102116461F4605461CF074
:1026E000D3FA0446284615F025FF9523032E2360D0
:1026F0009DF8203008BF0199A37316BF01A90822D5
:10270000022227716671A01D3AF00FFD2946099833
:1027100021F056FE03B0F0BD2DE9F04F87B09A4688
:10272000BDF8443001939DF84C300293BDF8583009
:1027300003939DF85C309DF84080BDF84890049369
:102740000D4617460446149E9DF854B01CF008F937
:102750000378817813F0030F0CBF012300234A464E
:102760004046FFF7DDF988B956B153463A46294647
:102770002046CDE9108607B0BDE8F04FFFF7A9BFAE
:10278000204607B0BDE8F04F1CF08AB8182120465B
:102790001CF07AFA1822002105903AF0EAFC059B19
:1027A000DF732A681A606A685A60019A1A81BBF15D
:1027B000010F029A83F80CA083F80D80A3F80A9009
:1027C0009A7305D1039A5A82049A1A7583F811B044
:1027D000012F06D029884FF6F77291429CBF042240
:1027E0001A7431462046FFF703FC0028BDD10120B2
:1027F00028F028FF0348214607B0BDE8F04F21F03C
:10280000DFBD00BF45EE0000A1F5E0630B2B04D94E
:10281000A1F50063584258417047012070470000FD
:102820002DE9F04F8DB08B4608931821BDF8583034
:102830000793924606461CF027FA044630461CF0E1
:102840008FF8237B0693637B05930378B4F80A80A3
:102850008178E77B13F0030F81460CBF012300232F
:1028600042460598FFF75CF90546B0B9BAF1000F8A
:102870000DD0059B0093CDF804A0069B3A46214657
:102880003046FFF726FF28460DB0BDE8F08F3046F2
:102890001CF006F86FF00705F5E741462089FFF7C1
:1028A000B3FF0546BBF1000F17D0594630461CF068
:1028B000FEF8099030461CF05DF8099B83420CD964
:1028C000594630461CF0F3F8834630461CF052F867
:1028D000ABEB000130461CF0E7F9012F11D0E37B90
:1028E000022B04D122884FF6F7739A4209D840464A
:1028F00003F0F4FC28B1089B1BB9237C43F00403CC
:1029000023741DB1237C43F0080323740AF08EFC6A
:102910000546002862D104F0BBFC00285ED040468A
:1029200003F0F7FC002859D0082229460AA83AF0FB
:1029300020FC022F3BD0032F43D0002F0CBF0025DB
:102940006FF0270504F0A4FC002840D0002F3ED0F3
:102950004DB90AA80AF094FC28B102210AA829F06E
:1029600069FC002836D15D4B1B6873B909F016FB72
:10297000014650B90423009340F60F03CDF80480BC
:102980001A464FF0FF3022F015FB6FF02705BAF121
:10299000000F3FF478AF059B0093CDF804A0069B91
:1029A0003A4621463046FFF794FE00256BE70AA918
:1029B00020881BF071FB002814BF6FF0270500254D
:1029C000C0E7082221460AA83AF0AFFBBAE7002D7B
:1029D000C9D1C2E7237C43F0010323744146059823
:1029E000FFF7F8FD68B1082200210AA83AF0C1FB00
:1029F000022F1ED0032F52D03FBB237C43F0010394
:102A0000237451463046FFF7F3FA05460028BED13D
:102A100030461BF0A5FF0378DB0602D4012028F026
:102A200011FE079B002B53D131462D4821F0C8FCE5
:102A300029E70AA920881BF02FFB054630B902219F
:102A40000AA829F0F7FB0028D7D10025234BD3F89B
:102A500000B099F802300B2B27D199F800305A07B3
:102A600023D199F80430012B1FD1BBF1000F12D1F3
:102A700009F094FA014670B9CDF8088099F803304E
:102A800001930823009340F60F0240F657034FF0DE
:102A9000FF3022F08FFA002D7FF479AFB1E70822E2
:102AA00021460AA83AF041FBC9E7BBF1000F7FF4C9
:102AB0006CAF09F073FA00287FF467AF042300932A
:102AC000CDF8048040F65E0340F60F02594658E701
:102AD000079A0348314621F099FDD4E694820020FC
:102AE00045EE00002DE9F74F1D469DF8303001936B
:102AF0000F46109B00931821934606469DF834A07C
:102B0000BDF83890BDF83C801CF0BEF81822044691
:102B100000213AF02EFB032D0CBF08220222594659
:102B2000E57320463AF001FB019B009A2373394676
:102B30000023304684F80DA0A4F80890A4F80A8079
:102B40000C9303B0BDE8F04FFFF76ABE2DE9F04FDC
:102B500087B01D469DF840300593CDE90101149BD7
:102B60000493182103929DF844B0BDF848A0BDF825
:102B70004C909DF854809DF85860BDF85C701CF036
:102B800083F81822044600213AF0F3FA032D0CBF13
:102B9000082202220399E57320463AF0C6FADDE9DD
:102BA0000101059B049A2373334684F80DB0A4F801
:102BB00008A0A4F80A9084F81080109707B0BDE828
:102BC000F04FFFF72DBE00002DE9F041069D0E46A7
:102BD00090461F461BF050FF094B00F8016B93F81D
:102BE000D84A621C83F8D82A730702D5414621F0DF
:102BF000CEFA04704770023005B12C70BDE8F08148
:102C00007C72002000487047547D002000487047C7
:102C1000C40A002002289DBF024B187000206FF0EC
:102C200005007047C40A0020014B187A704700BFA6
:102C3000C40A002001289DBF024B187200206FF0CB
:102C400005007047C40A0020134B1B781BB3912862
:102C50000ED890281AD28A281CD005D8A0F181035A
:102C6000032B98BF812070478F2808BF7E207047B4
:102C7000C12806D8C02809D2922809D0932805D0A7
:102C80007047C22804D0C42804D070470120704780
:102C90007F20704700207047C40A00202DE9F047CC
:102CA00088B08146ADF81E101BF0E6FE08230370C5
:102CB0000446FFF7A7FF0378DFF8B0A05A1C0270A4
:102CC00063700A23A370284B1F7803349846052F9E
:102CD00036D801223AF817301146C42000F026FDFC
:102CE000064618B301214CF25D20FFF78DFD214609
:102CF000F0B148461BF0DBFEC0F5CA60013085B27A
:102D00007168B078FEF788FF0330854216D33188AA
:102D1000204621F03CFAB37800F8013B7268B178A4
:102D2000FFF726F80023044688F800300137CEE785
:102D300048461BF0BCFEC0F15200E0E788F8007086
:102D400001230022CDE903324CF25D21C423CDE9F9
:102D5000013100930DF11E02022321464846FFF780
:102D6000C1FE08B0BDE8F087D10A00201EEF0300C5
:102D7000064B1B7802462BB1032B03D04FF6FC7198
:102D8000FFF78CBF10461BF08BBD00BFD20A00209E
:102D900038B5054620B92148BDE838401BF0F2BCE3
:102DA0001F4C227892B3032A30D001220823114607
:102DB000C42000F0BBFC436819884FF6FF739942AA
:102DC000284620D1FFF7D4FF00221146134821F0F6
:102DD000E5FD2378022B20D101231A461946C42091
:102DE00000F0A4FCB0B1436818880F3880B221F01D
:102DF00091F90F3080B24222424300210748BDE8DA
:102E0000384021F003BCFFF749FFDDE728461BF0FF
:102E100047FDD9E74FF49670E7E738BD912D0000E4
:102E2000D20A0020F7B50E460446214D40B92A7853
:102E300022B901231F482B701BF0C9FC03B0F0BD61
:102E4000FFF7E0FED0F89C305BB302AF34212046A0
:102E500007F8046D1BF018FF342200213AF089F9BD
:102E6000342120461BF010FF6523037034212046D7
:102E70001BF00AFF00264660342120461BF004FFA9
:102E80003421866020461BF0FFFE3421C7602046B7
:102E90001BF0FAFE0661FFF7B5FED0F89C30204625
:102EA0009847002320462B701BF0FAFCC6E700BFB2
:102EB000D30A0020252E000010B510B90F4B187052
:102EC00010BD0128FCD10E4B19780129F8D10B4C0B
:102ED0002278012A09D80B481BF054FC0A481BF041
:102EE00051FC237801332370EAE7032200201A7093
:102EF0002070BDE81040FFF795BF00BFD00A00204A
:102F0000D20A0020512F0000712D0000002208B5C8
:102F100011460D4821F042FD0C4B1B78022B12D1BB
:102F200001221146C42000F001FC48B143681B880F
:102F3000054842225A430021BDE8084021F066BB03
:102F40004FF49673F4E708BD512F0000D20A002019
:102F5000F0B5044689B020B920481BF013FC09B035
:102F6000F0BD1F4B1B78ABB3032B33D017F034F8F5
:102F700008AE002726F8020D20461BF07DFD0770E5
:102F80000546FFF73FFE03785A1C027008216B705C
:102F9000AF70E81C21F0FBF8092121F0F8F80A21B4
:102FA00021F0F5F801254CF25D23CDE90235C4236B
:102FB0000146CDE900333246049702232046FFF74D
:102FC00091FD40F2BC722946064821F01FFBFFF735
:102FD0009DFFC4E720461BF063FCF8E7512F00007B
:102FE000D20A0020B92E00002DE9F3410022054647
:102FF000FF21344821F0D2FC22F03EFA20B1324EBB
:1030000033780BB1032B05D1284602B0BDE8F0415F
:103010001BF046BC4FF0000828461BF0ABFC022812
:103020003CD928461BF09CFC0446002836D080780A
:10303000FFF70AFEA07010BB211DE078FEF7ECFD43
:103040000430C7B228461BF095FC28461BF092FCC2
:10305000874223D8394628461BF04CFDA278002A27
:10306000DAD12388082B0CD1019204340122009478
:103070001146C420FFF792F84FF00108CCE7032770
:10308000E3E7092BF0D00A2BC6D1019204340122C8
:1030900000941146C420FFF781F8BDE7B8F1000F96
:1030A000B2D00A4B002119703378012BACD1022326
:1030B00040F2DE320648337021F0A8FAFFF726FF0F
:1030C000A2E700BFB92E0000D20A0020D00A0020DB
:1030D000912D000038B505461BF042FC90F84B30AE
:1030E000044653B90146232210483AF01EF828221C
:1030F00004F123010E483AF018F80C4CD4F84B00B8
:1031000070B194F84F1021F05BF9002384F84F3030
:1031100084F84B3084F84C3084F84D3084F84E30CD
:103120002846BDE838401BF0BBBB00BF84710020BF
:10313000A771002070B5094CD4F84B3005460E46F7
:103140004BB98F21064825F095FC18B9C4F84B609F
:1031500084F84F5070BD6FF00300FBE784710020CE
:10316000D53000002DE9F04F1B218BB083461BF0BA
:103170008BFD044690F8139058461BF0F1FBB9F113
:10318000150F827814BF1B2314239A4288BF8370C3
:103190008246FFF737FD40781BF06EFC237E002B44
:1031A000237D0CBF00220422002B14BF0023082320
:1031B00042F010020546134305F8013B237E2BB174
:1031C0002846B4F8191020F0E2FF0546637D2B7005
:1031D000B9F1150F14BF0D2316236B70207BFEF77A
:1031E00085FE237DB4F80F10002B14BF02220122AC
:1031F000FEF7BBFF00274368AF7041880246EE1C14
:1032000000296CD10AA94FF6FD73304621F8023D22
:10321000022239F08AFF2123B9F1150F6B714FF0AB
:10322000010312BFAE1DAB71EE1DAB70FFF7EAFCE0
:10323000002340780493B4F80F300393B4F81130AE
:103240000293237B0193E37A0093621C02233146AD
:10325000FFF748FCFFF7D6FC80F801B00BB0BDE8E3
:10326000F08F1888BAF800C081B28C4535D80004B8
:1032700033D4B9F1150F19D194F818C001F4804076
:10328000BCF1000F10D088B901375188F8B201396C
:10329000814203D99AF802C0C445E2D881428CBF6A
:1032A00000210121A970C1E70028EDD13046CDE908
:1032B000063220F06CFF069B079A99780170B9F1ED
:1032C000150F08BFD97808F1010809BF01F0030103
:1032D000461C4170861C5FFA88F80833D4E7B8466C
:1032E000D3E72DE9F04780460E4691461BF02EFAB3
:1032F0000546002851D04A4631884046FEF708FC72
:10330000FFF780FCD0F89C30002B41D034212846B8
:103310001BF0BAFC71680446B078FEF77DFCB37808
:10332000482B074603D027D8413B022B28D83946E3
:1033300028461BF067FB3421824628461BF0A4FC7C
:1033400004463A464946504639F0EFFE2773C4F822
:1033500010A00023237098F80C306370B378A3702A
:10336000B8F80F30238133886381FFF74BFCD0F826
:103370009C30284698470BE04A2BD8D0F12BD6D06A
:103380003A46494604F10C0039F0CFFE002CE0D15A
:103390002846BDE8F0471BF083BABDE8F08700007F
:1033A00010B507490446FFF7C5FE043006D1214693
:1033B00000220448BDE8104021F028B910BD00BF2C
:1033C00047350000A133000070B50C46272C054698
:1033D00011461E4623D050D81A2C3FD029D80D2C88
:1033E00000F09A8014D80A2C38D006D8082C00F0A7
:1033F0008980092C76D0284670BD0B2C00F0868081
:103400000C2CF8D12846052239F08FFE0535F2E75D
:10341000102C77D009D80E2C29D00F2CEBD12846B0
:10342000082239F082FE0835E5E7182C6AD0192CFD
:10343000E0E7202C66D00AD81D2C6DD003D81B2CB9
:1034400064D01C2CDDE71E2C11D01F2CE6E7232CAA
:103450005CD009D8212C45D0222CCCD1284603227F
:1034600039F063FE0335C6E7252C55D0CAD9284666
:10347000072239F05AFE0735BDE7392C46D018D857
:103480002D2C49D00AD82A2CE8D003D8282C39D0A2
:10349000292CAFE72B2C39D02C2CB2E7302C31D093
:1034A00003D82E2CE3D02F2CB8E7312C1AD0382C8F
:1034B000A0E7E22C11D8E02C28D2432C03D8412CD1
:1034C00005D23A2CAAE7482C01D04A2C93D12846A1
:1034D000324639F02AFE35448DE7EA2C16D007D85B
:1034E000E82C88D32846022239F01FFE023582E7F5
:1034F000F02C94D0F12C7FF47EAF102239F015FE21
:10350000103578E70B7805F8013B74E7284604226C
:1035100039F00BFE04356EE72846062239F005FE29
:10352000063568E710B5436800220BB9184610BD90
:103530001C888C42FAD044880132944203F108037B
:10354000F3D80023F2E72DE9F04F1B218FB0074697
:103550001BF09AFB437B0546C3F34013007B0893A3
:10356000FEF7C4FC2B7DB5F80F10002B0CBF012219
:103570000222FEF7FAFD0990FFF744FB40781BF0AA
:103580007BFA2B7E002B2B7D14BF04220022002B04
:103590000CBF0823002342F01002134300F8013B44
:1035A0002B7E1BB1B5F8191020F0F1FD6B7D037077
:1035B00001234370841C38461BF0D2F982463846FA
:1035C0001BF0D8F943080A934FF000080A9B5FFAF2
:1035D00088F1994252D202220AEB41010DF13600E4
:1035E00039F0A3FDBDF836100998FFF79BFFB5F839
:1035F0000F100646B5F81100FFF706F908B3FFF7FC
:1036000001FB214640781BF052FAC0F5CA6909F166
:103610000109FEB9BDF836104FF6FD73994262D12B
:103620000DF136010222204639F07FFD2123A670DC
:10363000E3700121201D20F0AAFD044608F10108D5
:10364000C4E7FFF7DFFA214640781BF030FAC0F1FB
:103650005209DEE77168002945D0F37813F0400B7A
:1036600041D1DA0728D49B073FD5FFF7DDFA0128BF
:103670000CBF7E268F26B9F1020F3AD8FFF7C2FAA7
:10368000089A40780023CDE90432CDE90633B5F835
:103690000F300393B5F8113002932B7B0193EB7A33
:1036A00000936A1C02232146FFF750FAFFF7AAFA9B
:1036B00047700FB0BDE8F08FB078FEF7ADFA011D8E
:1036C000894514D30B903188204620F060FD80F8A6
:1036D00000B0B2780B9B42709BB27268B178023036
:1036E000FFF772FEA9E78626C5E70126C3E789260C
:1036F000C1E72046BDF8361020F049FD044604F825
:10370000016B9BE710B51B2104461BF0BDFAB0F816
:103710000F2040F605339A42204603D1BDE8104001
:10372000FFF73EBEBDE81040FFF70DBF70B50D4678
:1037300016461C46FEF7DAFB29463246FEF715FD13
:103740002146BDE87040FFF7EDBE2DE9F04F1B218B
:103750008FB081461BF098FA0446007BFEF7C6FB4B
:10376000237DB4F80F10002B0CBF01220222FEF7BC
:10377000FCFCE37C0D90052B77D0FFF743FA4078F3
:103780001BF07AF9237E002B237D14BF0422002234
:10379000002B0CBF0823002342F01002134300F853
:1037A000013B237E1BB1B4F8191020F0F0FC637DBF
:1037B000037004234370851C48461BF0D1F807466C
:1037C00048461BF0D7F800230B9301230A90099376
:1037D0009DF82C300C930A9B032B54D9002F56D004
:1037E000F91CB878FEF718FA03305FFA80FB3E4602
:1037F0000A9B9B4500F2F780002E00F0F480B6F89B
:1038000000A00D985146FFF78DFE8046002840D15C
:103810004FF6FD739A4514BF4FF0860A4FF0880AA1
:10382000E37C052B1ED015B3B4F80F10B4F81100CB
:10383000FEF7EAFF002868D0FFF7E4F92946407850
:103840001BF035F9C0F5CA600130022894BF002092
:103850000120B0B12846022200F801AB314639F010
:1038600064FC03350023099302E00025A4E70995D1
:103870000A9BA3EB0B030A930B9B01335F440B934F
:10388000A6E70990F4E700264FF0FF0BB0E73E46AD
:10389000FAE74368002B32D08278B3789A4231D16C
:1038A000237DB4F80F20217B002B06F103030C933A
:1038B0004FF00103019306F1030300930CBF0123B2
:1038C0000223FEF7F7FB82460028A9D1E37C032BF5
:1038D000CED0237DB4F80F10207B0022002BB8F847
:1038E000003001920C9A00920CBF01220222FEF7D6
:1038F00055FC0C9A41462046FFF7F3FCB8E74FF021
:10390000860A8DE74FF08D0A8AE7FFF77BF9294693
:1039100040781BF0CCF8C0F1520096E700264FF03B
:10392000FF0B7BE03E46FAE7E37C052B55D0099B75
:103930002BB115B30C9B03B3002305F8013BB9F180
:10394000000F43D0FFF75EF900234078CDE906333E
:10395000627BC2F34012CDE90432B4F80F30039316
:10396000B4F811300293237B0193E37A0093621C35
:1039700002232946FFF7EAF828E0FFF743F94078E9
:103980001BF07AF8237D002B0CBF18231023037043
:10399000637D43700B238370E37CC37080230371CA
:1039A0000546FFF72FF9002640780496B4F80F304B
:1039B0000393B4F811300293237B0193E37A0093CD
:1039C000621C0223691DFFF78DF8B146FFF71AF953
:1039D00080F801900FB0BDE8F08F48460FB0BDE809
:1039E000F04F1AF05DBFE37C032B9DD1099B002BA8
:1039F0009AD048461AF0B4FF074648461AF0BAFF74
:103A00008046B8F1030F89D9002F8BD0F91CB87804
:103A1000FEF702F903305FFA80FB3E46C34583D8C8
:103A2000002E81D036F8031B0D98FFF77BFD227D19
:103A3000B4F80F108246002A4FF00002207BBAF83B
:103A40000030CDE900620CBF01220222FEF7A6FB86
:103A50003246514620465F44A8EB0B08FFF741FC75
:103A6000CFE700002DE9F04F1B2189B080461BF005
:103A70000BF90546FFF7C6F840781AF0FDFF2B7EDC
:103A8000002B14BF1C23182300F8013B2B7E1BB115
:103A9000B5F8191020F07BFB6B7D03700923437090
:103AA000841C287BFEF722FA2B7D0690002B0CBF8E
:103AB00001220222B5F80F10FEF757FB834640465D
:103AC0001AF058FF022840F2C08040461AF048FF22
:103AD000002800F0BA8090F800A0B0F8019003210F
:103AE00040461BF007F8B5F80F10B5F81100FEF7C7
:103AF0008BFE00283CD0FFF785F8214640781AF06D
:103B0000D6FFC0F5CA60013086B2032E40F29D8018
:103B100049465846FFF706FD0746002800F08A8010
:103B20004368002B00F08680C3785B0740F18980F2
:103B300006989BF80820BBF8001000784B4601F06F
:103B400067FF079000287ED0092E7ED900222270C0
:103B500084F801A0A01C494620F019FB079B0446ED
:103B6000BAF1000F0DD0BAF1010FA8D1198A3DE0CA
:103B7000FFF748F8214640781AF099FFC0F152004B
:103B8000C2E7BA7800F8012B5A8A198A079320F005
:103B90000AFB0446B878FEF797F900288FD0BA7868
:103BA000079B203A0B2A8AD801A151F822F000BFC6
:103BB000E13B0000E93B0000053C0000153C000033
:103BC000BF3A0000253C0000BF3A0000BF3A0000A9
:103BD000E13B0000F53B0000053C0000153C000007
:103BE0001B7D04F8013B6AE7998A204620F0CFFA52
:103BF000044664E72046022203F1140139F095FAE5
:103C000002345CE72046032203F1140139F08DFAF7
:103C1000033454E72046042203F1140139F085FAF5
:103C200004344CE72046062203F1140139F07DFAF2
:103C3000063444E78623237084F801A04946A01C7B
:103C4000D4E78C23F7E78B23F5E7FEF7DBFF0023B0
:103C500040780493B5F80F300393B5F81130029310
:103C60002B7B0193EB7A00936A1C02232146FEF71B
:103C700039FFFEF7C7FF80F8018009B0BDE8F08F7B
:103C80002DE9F04F1B218DB080461AF0FDFF044650
:103C9000007BFEF72BF9237DB4F80F10002B0CBF2F
:103CA00001220222FEF761FA0690FEF7ABFF407890
:103CB0001AF0E2FE237E002B14BF1C23182300F809
:103CC000013B237E1BB1B4F8191020F060FA637D2C
:103CD000037000270723DFF8E4B14370851CB94661
:103CE00040461AF047FE042844D800264FF0FF0A49
:103CF00040461AF03FFE824500F2B98051464046E8
:103D00001AF0F8FE002E00F0B280B6F801300698E6
:103D100007931946FFF706FC327809F10109002ADA
:103D20005AD1079B002842D14FF6FD77BB4214BF02
:103D300086278C27B4F80F10B4F81100FEF764FD45
:103D4000002800F08B80FEF75DFF294640781AF0CE
:103D5000AEFEC0F5CA60013080B2032808D92F70CA
:103D600033786B70A81CB6F8011020F010FA0546E5
:103D70000127B5E740461AF0F3FD06460028B4D007
:103D80000378012B0DD0C078FEF79EF860B1F07873
:103D9000FEF790F808305FFA80FA40461AF0EAFD24
:103DA000A6E74FF0050AA3E74FF0080AA0E743682B
:103DB000002B4BD08378412B48D003F0FD02482ADA
:103DC00044D0C278520743D5F2789A4242D1F38860
:103DD00013B1B2889A423FD8237B8DF82430227CDD
:103DE000E37B43EA0223ADF82A30E37A8DF82530ED
:103DF000B4F80130ADF82630637CA27C43EA02239C
:103E0000ADF82830237D002B0CBF0123022309A924
:103E100030468DF82C3001F0DDFF00283FF460AF14
:103E2000DBF8002082B9079008F0B8F8079B01463C
:103E300050B901930423009340F6120240F2D44398
:103E40004FF0FF3021F0B6F8012773E7862771E7BE
:103E50008C276FE78D276DE787276BE7FEF7D2FE8C
:103E6000294640781AF023FEC0F1520074E7B9F1F8
:103E7000000F1DD1802305F8013BFEF7C3FE002390
:103E800040780493B4F80F300393B4F811300293E0
:103E9000237B0193E37A0093621C02232946FEF7F9
:103EA00021FEFEF7AFFE80F801800DB0BDE8F08F77
:103EB000002FE2D105F8017BDFE700BF94820020EC
:103EC0002DE9F04F8A46C3880279418889B00546BA
:103ED0004078FFF72BFC90F8039050461AF0CCFD89
:103EE00009F02006C9F340194FEA890343F008039B
:103EF00004460370002E69D06878FDF7F7FF2A7931
:103F00006988FEF732F9B0F80910601C20F03FF91B
:103F10000446FEF777FE03785A1C027023700A23CA
:103F2000637002342E4640F2516BF3883279718807
:103F30007078FFF7FBFB71880746B08DFEF764FCD5
:103F4000214600284CD050461AF0B1FDABEB0000E2
:103F50001FFA80F87968B878FDF75EFEC21C9045BC
:103F600007901ED33988204620F011F9BA7800F85E
:103F7000012B079B7A68B9789BB2FFF725FA39467F
:103F80000446304601F01BFE337A23F0160343F05B
:103F9000200333724946284601F08DFD064600286D
:103FA000C3D1124B04936B880393AB8D02936B7850
:103FB000019395F82A30009305F128020023214649
:103FC0005046FEF78FFD09B0BDE8F08FFEF71AFEF0
:103FD00003785A1C027063700A23A3700334A1E7AC
:103FE00050461AF064FDC0F15200B1E7115F0000C5
:103FF0002DE9F0438FB000230F461B2106930446A2
:104000001AF042FE1B22014607A839F08EF820461E
:104010001AF0B0FC022807D0852207A9204600F03C
:104020001CFD0FB0BDE8F08320461AF099FC9DF806
:10403000343006784578002B60D0FEF7E3FDD0F8E9
:10404000F030002B46D14FF00008512D204628BFFC
:1040500051251AF011FD9DF83430002B9DF83030B9
:1040600014BF04220022002B0CBF0823002342F0BF
:104070001002134300F8013B9DF834301BB1BDF82A
:10408000351020F084F89DF831300370002F14BFF4
:1040900012231423437000238370C11C1A46DFB21D
:1040A000B84500F288800123837000230493BDF893
:1040B0002B300393BDF82D3002939DF828300193E7
:1040C0009DF8273000930DF11D0202232046FEF7D4
:1040D00009FDA6E7FEF796FD0DF1180ECDE9007E6D
:1040E0009DF830C0D0F8F080BDF83530BDF82B20F9
:1040F0009DF828106046C0478046A6E79DF8280036
:104100009DF83080BDF82B90FDF7F0FE00289AD086
:10411000B8F1000F0CBF012202224946FEF725F834
:10412000002890D0B8F1000F2CD1037A03F00103DE
:10413000002B88D09DF83030BDF82B109DF828005A
:10414000002B0CBF0122022200F00AFC03460028CB
:104150003FF479AFFF20984700283FF474AFCFB108
:10416000FEF750FDD0F8583293F80080FEF74AFD74
:10417000D0F858325B680693FEF744FD0023C0F880
:10418000583262E7B8F1010F7FF45DAF037AC3F3F1
:104190004003CDE7FEF736FDD0F8583293F808809B
:1041A000FEF730FDD0F85832DB680693FEF72AFDA3
:1041B000C0F8587249E7069FFF5CBE4206D801323C
:1041C000D2B2954201F8017B7FF66FAF013366E70B
:1041D00037B51B2105461AF057FDC37C0446162B44
:1041E00064D8DFE803F00C123A3A293A42294666CD
:1041F0003E4E4A666363635C6661664A66002846B3
:10420000FFF780FA012003B030BD324BD3F8903D68
:10421000B3B9B4F80F300A2B04D1284602F072FF6C
:104220000028EFD11B2128461AF02EFDB0F81120EE
:104230004CF25D239A4208D028461AF031FBE1E7A0
:10424000284698470028E4D0DCE7B0F80F40012C5E
:10425000F2D12846FEF7C8FED4E72846FFF775FAE4
:10426000D0E7284601F0A6FECCE72846FFF708FD78
:10427000C8E72846FFF7F6FBC4E72846FEF772FFBB
:10428000C0E71B2128461AF0FFFCB0F80F30192BAD
:10429000D2D1284600F0A3FB0028B3D1CCE70121FE
:1042A0002846FFF7A5FEADE70021F9E70A4B1B689A
:1042B0000BB10020A7E707F071FE0028F9D10090AC
:1042C00001464FF4E46340F612024FF0FF3020F055
:1042D00071FEEEE77C7200209482002010B5044647
:1042E0001AF058FD2046BDE810401AF0D9BA000077
:1042F00038B5062104461AF0C7FC037923B12046DD
:10430000BDE838401AF0CCBA182120461AF0BCFC9F
:10431000054620461AF024FB18220146284638F0AC
:1043200004FF20460249BDE8384023F0B1B800BF81
:10433000DD42000010B5102301224FF4A0610446B5
:10434000FFF7F4F9012243684FF4A0612046BDE86D
:10435000104009F053BC000010292DE9F743044632
:104360000D46164640F085801AF0ECF92B460122E6
:104370000746B4F80F10207BFFF7D8F918218046C4
:1043800038461AF03FFB05461822002105F10D09B9
:1043900038F0EFFE4946B4F8010019F07DFE10F147
:1043A0001C0F19D10DF107030122B4F8011030469A
:1043B00019F06CFF08223146484638F0B6FE314607
:1043C00098F80200D8F80490FDF726FC3146024622
:1043D000484638F09BFE0DE00028EBD1314698F8B6
:1043E0000200FDF719FC31460246484638F08EFEC1
:1043F0000028E4D0207BFFF79DFF064600283BD134
:104400004EF201030122B4F80F10207BFFF78EF962
:104410004368E27A1A70B4F80F10207B4EF2020360
:104420000122FFF783F94368B4F801201A80284677
:1044300020F0B8FF237B2B72E37A6B75B4F80F3052
:104440006B8103232B7321F025F80821E88238467D
:104450001AF01AFC08220546314638F08AFEB4F8F4
:104460000F306B80FF232B70064B6B60384608F0D3
:1044700079FF03B0BDE8F083002FFAD038461AF078
:104480000FFAF6E7F142000038B5012200230321BC
:104490000546FFF74BF9B8B14368ABB11C8844B18E
:1044A000013C1C80294642220848BDE8384020F0E3
:1044B000ADB82846FDF71AFDD0F8070020B1214617
:1044C000BDE838401FF07CBF38BD00BF8944000004
:1044D00037B50023012203210546FFF727F90446DB
:1044E00098B100222946124820F058FA6368002447
:1044F0001C802846FDF7FAFCD0F80700A8B1214639
:1045000003B0BDE830401FF05BBF0A4B1B6863B9C6
:1045100007F044FD014640B9009040F2A71340F275
:1045200064624FF0FF3020F045FD03B030BD00BFA6
:10453000894400009482002010B5FEF763FB4FF41D
:104540003072002138F015FEFEF760FB0C220021CE
:1045500038F00FFEFEF756FB04461AF0F7F86070CD
:10456000FEF750FBBDE8104001F07EB8F7B50C46F1
:104570001C2106461AF088FB054630461AF0FAF967
:10458000074630461AF0ECF9037813F0040F0CBF1D
:10459000032305239F4214D22F4B1B681BB1802697
:1045A000304603B0F0BD07F0F9FC01460028F6D113
:1045B0000090D72340F61A024FF0FF3020F0FAFCAB
:1045C000EDE700232370B5F80130A4F801302B7A11
:1045D000E372B5F80330A4F80930EB7923732B7834
:1045E00063732B7DA27BC3F3C00363F3C302A27387
:1045F000B5F80930A4F80F30B5F80B30A4F8113035
:1046000030461AF0ADF9037803F00303012B14BF11
:1046100001230023A37503780146C3F3C003237568
:1046200011F8013BC3F30013E3750378C3F3800370
:1046300005468CBF8526002663B10123237602221E
:1046400004F1190038F071FDE91C0B7863754B78A3
:10465000E374A5E72376F8E7948200202DE9F0477C
:10466000DDF820808246894617461E46B8F1000FC5
:1046700005D122B91BB96FF00600BDE8F087FEF73F
:10468000C1FA90F85432132BF5D8002409E0FEF754
:10469000B9FA04F10F052D0128448388534507D04A
:1046A0000134FEF7AFFA90F854329C42EFD305E0A4
:1046B000FEF7A8FA284483794B45F1D1FEF7A2FA18
:1046C00090F854329C4202D06FF01A00D5E7FEF702
:1046D00099FA04F10F052D0128442401A0F804A043
:1046E000FEF790FA284480F80690FEF78BFA2844EB
:1046F000C0F80880FEF786FA2044C0F8FC70FEF788
:1047000081FA0444C4F80061FEF77CFA90F8543250
:10471000013380F854320020AFE7F8B506460F4663
:104720000025FEF76FFA90F854329D4201D3002025
:1047300012E0FEF767FA05F10F0424012044838894
:10474000B3420AD1FEF75EFA20448379BB4204D11A
:10475000FEF758FA20448068F8BD0135E1E7000013
:10476000F0B51C4B1B6885B006460F467BB907F0B9
:1047700015FC014658B908230093CDE901674FF4B1
:10478000B87340F61A024FF0FF3020F013FC0024FB
:10479000FEF738FA90F85432A34201D8002014E012
:1047A000FEF730FA04F10F052D0128448388B34247
:1047B0000DD1FEF727FA28448379BB4207D1FEF7D3
:1047C00021FA00EB0410D0F8FC0005B0F0BD013474
:1047D000DEE700BF94820020F0B51C4B1B6885B05B
:1047E00006460F467BB907F0D9FB014658B90823A6
:1047F0000093CDE9016740F2891340F61A024FF0A9
:10480000FF3020F0D7FB0024FEF7FCF990F854327B
:10481000A34201D8002014E0FEF7F4F904F10F05DB
:104820002D0128448388B3420DD1FEF7EBF92844CB
:104830008379BB4207D1FEF7E5F900EB0410D0F80D
:10484000000105B0F0BD0134DEE700BF9482002016
:1048500070B511F1FF3418BF012406460D46FEF76E
:10486000D1F92334240120448388B34201D00020AD
:1048700070BDFEF7C7F920448379AB42F7D1FEF74C
:10488000C1F920448068F3E7F0B5194B1B6811F1BA
:10489000FF3585B007460E4618BF01257BB907F0E6
:1048A0007DFB014658B908230093CDE9017640F21B
:1048B000CD1340F61A024FF0FF3020F07BFBFEF7DD
:1048C000A1F905F12304240120448388BB4202D0CE
:1048D000002005B0F0BDFEF795F920448379B3427E
:1048E000F6D1FEF78FF900EB0510D0F83C02F0E7A7
:1048F00094820020F0B5194B1B6811F1FF3585B08B
:1049000007460E4618BF01257BB907F047FB014655
:1049100058B908230093CDE901764FF4EF7340F6C0
:104920001A024FF0FF3020F045FBFEF76BF905F15E
:104930002304240120448388BB4202D0002005B018
:10494000F0BDFEF75FF920448379B342F6D1FEF75C
:1049500059F900EB0510D0F84002F0E794820020EE
:1049600070B506460C46154620F086FD38B1C42EBB
:1049700005D129462046BDE87040FFF769BF2946AA
:104980002046BDE87040FFF7C8BE70B506460C462D
:10499000154620F071FD38B1C42E05D129462046B8
:1049A000BDE87040FFF770BF29462046BDE8704063
:1049B000FFF7D6BE70B506460C46154620F05CFDE6
:1049C00038B1C42E05D129462046BDE87040FFF716
:1049D00091BF29462046BDE87040FFF7FDBE10B5E7
:1049E0001B2104461AF050F9037DB0F80F10007B2C
:1049F000002B0CBF01220222FFF7B2FF034618B1C1
:104A00002046BDE81040184710BD70B51B21064672
:104A10001AF03AF905463046FDF718FE044680B90B
:104A2000AB7D30467BB1FFF7D3FB50B9FEF7FCF806
:104A3000012810D02A7EAB7D42B1002B0CBF83240D
:104A40008424204670BDFFF7CAFFEEE7002B0CBFA1
:104A500081248224F5E78124F3E770B51646B1F886
:104A600009204FF6F7739A4286B005460C4634D8B3
:104A70004B7B13F00C0F30D1CB7D03B16EB3A37D14
:104A800013B1E37C0B2B28D02378013B012B24D9D5
:104A9000284619F0F1FF237D002B0CBF18231023AB
:104AA0000370637D43700B238370E37CC3700671D6
:104AB00000230493B4F80F300393B4F81130029339
:104AC000237B0193E37A0093411D0223621C284655
:104AD000FEF708F8012006B070BD2846002DFAD078
:104AE00019F0DEFE0020F6E770B51646B1F8092091
:104AF0004FF6F7739A4286B005460C4643D84B7B77
:104B000013F00C0F3FD1CB7D0BB1002E3BD0A37D1A
:104B100013B1E37C0B2B36D02378013B012B32D928
:104B2000284619F0A9FF237E002B237D14BF042201
:104B30000022002B0CBF0823002342F01002134375
:104B400000F8013B237E1BB1B4F819101FF01FFBC6
:104B5000637D03700B234370E37C8370C670002376
:104B60000493B4F80F300393B4F811300293237B0D
:104B70000193E37A0093011D0223621C2846FDF78E
:104B8000B1FF06B070BD284606B0BDE8704019F010
:104B900087BE000030B589B0182302AA1CF064F962
:104BA0000546002878D101214FF4A060FDF79CFC58
:104BB000044600285ED0102301224FF4A061FEF7C6
:104BC000B5FD08220DEB0201406838F0AEFA2B4625
:104BD00001224FF4A0612046FEF7A8FD43689DF82E
:104BE00011201A704FF4A061112301222046FEF714
:104BF0009DFD43689DF814201A704FF4A0614EF299
:104C0000010301222046FEF791FD43689DF8102024
:104C10001A704FF4A0614EF2020301222046FEF703
:104C200085FD4368BDF812201A804FF4A0614FF44F
:104C3000604301222046FEF779FD43689DF81F205E
:104C40001A709DF81F30ABB12046FFF773FB044686
:104C500080B1124B1B686BB907F0A0F9014648B947
:104C6000042300930194832340F608024FF0FF30A1
:104C700020F0A0F901212020FDF736FC60B14EF6AE
:104C8000FE7301222021FEF751FD4368BDF8162076
:104C90001A809DF815209A7009B030BD94820020CA
:104CA00070B586B0182205460E466846002138F0D9
:104CB00060FA01214FF4A060FDF716FC04460028BD
:104CC00045D0102301224FF4A061FEF72FFD0822EA
:104CD0004168684638F029FA002301224FF4A061A8
:104CE0002046FEF723FD43681B788DF8093001222A
:104CF0004EF201034FF4A0612046FEF717FD436812
:104D00001B788DF80830012211234FF4A061204652
:104D1000FEF70CFDA8B343681B788DF80C304EF2FB
:104D2000020301224FF4A0612046FEF7FFFC436816
:104D30001B88ADF80A3001224FF460434FF4A061A4
:104D40002046FEF7F3FC43681B788DF817300121ED
:104D50002020FDF7C9FB60B14EF6FE730122202131
:104D6000FEF7E4FC43681A88ADF80E209B788DF8B6
:104D70000D3018236A46314628461CF043FC06B025
:104D800070BD8DF80C00CAE72DE9F843FDF73AFF36
:104D90004468002C36D104EB4400C00080B2BDE86A
:104DA000F883FDF72FFF4368D3F8013053F826301E
:104DB000D3F81A304FEA86089BB1FDF723FF43680A
:104DC000D3F8013053F82630D3F81A900025FDF7B8
:104DD00019FF4368D3F8013053F808305B7EAB42CB
:104DE00007D80136FDF70EFF43681B78B342D8D8C9
:104DF000D1E707FB059301351B7ADB0744BF01347C
:104E0000A4B2E4E7002426463027EBE72DE9F04F73
:104E100089B08346019100241827B2FBF7F7FDF70C
:104E2000F1FE43681B78A3420BD8002635464FF0AD
:104E3000180A019BBD420AFB053126D309B0BDE823
:104E4000F08FFDF7DFFE4368D3F8013053F82430CC
:104E5000D3F81A30BBB1FDF7D5FE4368D3F8013063
:104E600053F82430D3F81A50FDF7CCFE4368D3F83A
:104E7000013053F824305A7E02EB42021201002125
:104E8000284638F076F90134C9E7182302AA5846B3
:104E90001BF0EAFF002840F0828004460AE0FDF79C
:104EA000B1FE4368D3F8013053F82430D3F81A30F8
:104EB0003BB90134FDF7A6FE43681B78A342EED848
:104EC0000BE0FDF79FFE4368D3F8013053F8243020
:104ED0001A789DF809309A42EBD1FDF793FE4368AA
:104EE0001B78A34257D9FDF78DFE4368D3F80130F4
:104EF00053F824304FEA8408D3F81A404FF00009E1
:104F0000FDF780FE4268D2F8012052F80820527E58
:104F10004A4502D9227AD30743D4FDF773FE42688B
:104F2000D2F8012052F80820527E4A4533D99DF824
:104F3000082022709DF809306370BDF80A30638044
:104F40009DF80C302371BDF80D30E3809DF80F30D3
:104F50002372BDF81030238222B9BDF8123063826B
:104F6000059B6361BDF8183023859DF81A3084F8DD
:104F70002A309DF81C209DF81B3043EA0223A385AC
:104F800008224FF0FF3104F11C0038F0F2F82046FF
:104F900000F048FC013616B1002000F05FFC01353E
:104FA00047E709F101093034AAE72DE9F04F87B04E
:104FB00080460E46FDF726FE4568002D43D1284663
:104FC00007B0BDE8F08FFDF71DFE4368D3F8013050
:104FD00053F82530D3F81A304FEA850A9BB1FDF714
:104FE00011FE4368D3F8013053F82530D3F81AB0D6
:104FF0000027FDF707FE4368D3F8013053F80A3065
:105000005B7EBB4216D80135FDF7FCFD43681B787B
:10501000AB42D8D8002C40F08B801822214668463D
:1050200038F0A7F818236A46314640461CF0EAFAE1
:105030000546C4E709FB07B301371B7ADA0744BF0B
:105040000134E4B2D5E7002425464FF03009DBE710
:10505000FDF7D8FD4368D3F8013053F82930D3F871
:105060001A304FEA890AA3B1FDF7CCFD4368D3F8A3
:10507000013053F82930D3F81A4000273034FDF7B7
:10508000C1FD4368D3F8013053F80A305B7E9F427C
:1050900008D309F10109FDF7B5FD43681B7899456F
:1050A000D6D38CE714F8283CDB073ED51822002124
:1050B000684638F05EF814F8303C8DF8003014F88B
:1050C0002F3C8DF8013034F82E3CADF8023014F846
:1050D0002C3C8DF8043034F82A3CADF8053014F837
:1050E000283C8DF8073014F8302C34F8203CADF80B
:1050F000083032B934F81E3CADF80A3054F81C3C84
:10510000039334F8083CADF8103014F8063C8DF8E1
:10511000123034F8043CADF81330314618236A4697
:1051200040461CF06FFA1836054601373034A6E7C2
:105130004FF000094D46AEE730B587B018236A46F8
:105140001BF092FE0546002854D101212020FDF7D6
:10515000CBF92B46012220210446FEF7E7FA4368EB
:10516000009A1A6001231A4620212046FEF7DEFA33
:105170004368019A1A600198FA25684326F02CFBCF
:105180002021022301222046FEF7D0FA4368BDF811
:1051900008201A80BDF80800684326F0DBFA2021B9
:1051A000032301222046FEF7C1FA4368BDF80A2016
:1051B0001A80BDF80A00684326F0E6FA04230122AB
:1051C00020212046FEF7B2FA4368039A1A60202194
:1051D000052301222046FEF7A9FA4368049A1A60C3
:1051E0002021062301222046FEF7A0FA4368BDF8DD
:1051F00014201A8007B030BD70B5054686B00E4643
:1052000020200121FDF770F918220446002168468C
:1052100037F0AFFF0023012220212046FEF786FA57
:1052200043681B68009301231A4620212046FEF79D
:105230007DFA43681B680193012202232021204646
:10524000FEF774FA43681B88ADF808300122032387
:1052500020212046FEF76AFA43681B88ADF80A3021
:105260000122042320212046FEF760FA43681B68D0
:1052700003930122052320212046FEF757FA4368B5
:105280001B6804930122062320212046FEF74EFAD4
:1052900043681B88ADF814306A4618233146284607
:1052A0001CF0B0F906B070BD10B50C4608B119F08D
:1052B000F7FA0749074843F6FF3201FB04244FF48D
:1052C00070520021B4FBF2F2BDE810401FF09EB90D
:1052D00090D003009D54000008B5002026F08EF900
:1052E0000420BDE8084001F003B9F8B50F460821D5
:1052F0001646054619F0C8FC08220446002137F07E
:1053000038FF20232770638066602846BDE8F84098
:1053100008F028B82DE9F04F062189B0074619F0AA
:10532000B3FC012104462020FDF7DEF80023012212
:1053300020218046FEF7FAF943681E682379002B86
:1053400067D00024012220214EF6FE734046ADF8BE
:105350001E40FEF7EBF945682B68DB4333F07F43D3
:105360001CBF2B88ADF81E3038461ABF95F802B026
:105370000224A34619F080FB192303708146FDF730
:1053800041FC03785A1C02704FF0000A89F8013082
:10539000224B89F802A0202204934FF48273CDE9B6
:1053A000023209F1030123460DF11E02CDE900B8D6
:1053B0003846FDF797FBEB781948012262F30303A7
:1053C000EB704FF4FA7241461FF020F94FF4F050A1
:1053D00026F0DAF9504626F0E5F8FDF713FCD0F890
:1053E000A03033B1FDF70EFC5146D0F8A0001EF0FE
:1053F000E7FF0C4B0C4843F6FF3203FB0626002167
:105400004FF47052B6FBF2F21FF000F909B0BDE89C
:10541000F08F384619F044FAEBE700BF2D54000036
:10542000D952000090D003009D540000F8B510211F
:10543000064619F029FC012105462020FDF754F805
:105440004EF6FE73012220210746FEF76FF92D6804
:1054500044686DB92A4639460E481FF09FFA28461F
:1054600026F0F0F84FF4FA7239460A481FF0CEF8E9
:10547000E37803F00F03012B08D9314606481EF0EC
:105480009FFFE3786FF30303E370F8BD304619F034
:1054900007FAF6E7D95200009D54000070B50121CB
:1054A00004462020FDF720F8002301222021064693
:1054B000FEF73CF943681D6801224EF6FE73202179
:1054C0003046FEF733F95DB14168CB781A070DD04D
:1054D00003F00F02012A03D8013262F30303CB70F9
:1054E0008CB12046BDE8704019F0DAB924B90648FD
:1054F000BDE8704019F046B92046044AFF21BDE8D6
:105500007040FFF7F2BE70BD9D54000015530000BF
:1055100010B500230446012208462021FEF706F9B3
:10552000436820461968BDE81040FFF7BDBE2DE96D
:10553000F0418046FDF766FB4468002C42D12046CE
:10554000BDE8F081FDF75EFB4368D3F8013053F806
:1055500025301B7843454FEA850728D1FDF752FBDC
:105560004368D3F8013053F82530D3F81A30F3B13B
:10557000FDF748FB4368D3F80130DB59D3F81A40F4
:105580000026FDF73FFB4368D3F80130DB595B7E13
:105590009E4202D2237ADB0711D4FDF733FB436826
:1055A000D3F80130DB595B7E9E4228BF00240135D1
:1055B000FDF728FB43681B789D42C3D3BFE7303417
:1055C0000136DEE700252C46F2E72DE9F041FDF734
:1055D00019FB4368002B44D1BDE8F081FDF712FBB5
:1055E0004368D3F8013053F82430D3F81A304FEA27
:1055F00084085BB3FDF706FB4368D3F8013053F82A
:105600002430D3F81A600027FDF7FCFA4368D3F87A
:10561000013053F808305B7E9F4217D2337A03F093
:105620000602062A1AD113F0080517D1FDF7EAFA87
:1056300090F8AA3093B1FDF7E5FA90F8AA10304639
:10564000FEF73EFCFDF7DEFA80F8AA500134FDF7C4
:10565000D9FA43681B789C42C0D3BDE73036013786
:10566000D2E70024F3E7000013B5FDF7CBFA0822D8
:105670000021A43037F07DFD19F068F8044680B1B0
:10568000FDF7C0FA80F8AA400022FE210E481FF064
:1056900085F90E480022FE2102B0BDE810401FF03F
:1056A0007DB90B4B1B68002BEED106F077FC014651
:1056B0000028E9D1009092234FF402624FF0FF30AE
:1056C0001FF078FCE0E700BF31590000DD57000013
:1056D000948200202DE9F041064660B900244FF085
:1056E000FF35FDF78FFA43681878A8428CBF204633
:1056F000FF20BDE8F081FDF785FA4368002BEDD06F
:105700000024254610E096F80180FDF77BFA4368F7
:10571000D3F8013053F825301B7843454FEA85070D
:1057200009D01934E4B20135FDF76CFA43681B78EF
:10573000AB42E8D8D5E7FDF765FA4368D3F8013006
:10574000DB59D3F81A00034B301A001103FB004455
:10575000E4B2C6E7ABAAAAAA10B50446FFF7BAFF9F
:105760000022014608481FF019F9238A5BB1204640
:10577000FFF7B0FF238A422201465A430248BDE8A0
:1057800010401EF043BF10BDDD570000FF2838B5A4
:10579000044601D1002038BDFDF734FA4368002BE0
:1057A000F8D0002504E0182C09D9193CE4B20135E1
:1057B000FDF728FA43681B789D42F4D3EAE7FDF72A
:1057C00021FA4368D3F8013053F82530D3F81A0092
:1057D00004EB440400EB0410DDE7000038B5054697
:1057E000FFF7D4FF0446FDF70DFAD0F8983043B127
:1057F000FDF708FAE288D0F89830618894F82A001A
:105800009847FDF7FFF9B0F8A43043B1238A044864
:1058100042225A432946BDE838401EF0F7BE38BD43
:10582000DD57000038B5058A04463DB9037A43F0D8
:1058300004029B0702720FD4458A6DB14FF6FF73C5
:105840009D4209D006F01CFE237A43F01003237218
:10585000422303FB0500E06038BD00002DE9F0475E
:105860000025DFF8C8902C462F46FDF7CBF943689A
:105870001B78AB4213D8002F53D006F001FE002254
:105880000546FE2128481FF089F8284A2B1B934221
:105890003CD800212448BDE8F0471EF091BDFDF73B
:1058A000B1F94368D3F8013053F82530D3F81A30F2
:1058B0004FEA850AA3B1FDF7A5F94368D3F8013093
:1058C00053F82530D3F81A604FF00008FDF79AF925
:1058D0004368D3F8013053F80A305B7E434501D862
:1058E0000135C2E7337A03F00902012A0AD1DB0647
:1058F00008D5F368002F08BF1C46E11A1746494532
:1059000098BF1C46303608F10108DFE7641B94425B
:1059100094BF22461A4600210348BDE8F0471EF016
:1059200075BEBDE8F08700BF31590000FEFFFF7F64
:105930002DE9F84F06F0A4FD4FF0000A324F06465D
:1059400055464FF04208FDF75DF943681B78534513
:1059500009D81DB100212D481EF032FD0020BDE800
:10596000F84FFFF77BBFFDF74DF94368D3F80130DF
:1059700053F82A30D3F81A304FEA8A09A3B1FDF759
:1059800041F94368D3F8013053F82A30D3F81A406C
:105990004FF0000BFDF736F94368D3F8013053F8A8
:1059A00009305B7E5B4502D80AF1010ACBE7237A16
:1059B00003F00902012A17D1D80615D5E268B21AF8
:1059C000BA4211D8590719D443F0040222729A0737
:1059D00002D50135EDB207E0628A4AB1238AD21AB4
:1059E00092B208FB0262E26030340BF1010BD1E7A6
:1059F00023F0100343F004032372F5E723F01003B0
:105A000043F002032372E4E7FEFFFF7FCB55000063
:105A10002DE9F84F9B46804689469246FDF7F2F8FD
:105A20004368002B45D100242046BDE8F88FFDF7E0
:105A3000E9F84368D3F8013053F82530D3F81A3029
:105A4000AF003BB90135FDF7DDF843681B789D4297
:105A5000EDD3E8E7FDF7D6F84368D3F8013053F803
:105A60002530D3F81A400026FDF7CCF84368D3F868
:105A70000130DB595B7E9E4209D3FDF7C3F84368D2
:105A8000D3F80130DB595B7E9E42DBD2CCE76378F2
:105A900043450BD163884B4508D12379534505D144
:105AA000E3885B4502D1237ADB07E6D43034013644
:105AB000DAE70025C7E72DE9F04107468846FDF7FC
:105AC000A1F843680BB900246AE000240BE0FDF75D
:105AD00099F84368D3F8013053F824301A787B786A
