:1000000000000220B5020000DD020000DF02000057
:10001000E1020000E3020000E50200000000000031
:100020000000000000000000000000009911000026
:10003000E902000000000000B9110000ED0200001C
:10004000E9BB000005B80200A9C00000EF020000F3
:10005000EF020000EF02000005BF0000EF02000009
:10006000EF020000EF020000EF020000EF020000CC
:10007000EF020000B9C10000EF020000EF02000033
:10008000EF020000B9120000EF020000EF020000D2
:10009000EF020000EF020000EF020000EF0200009C
:1000A000EF020000EF020000EF020000EF0200008C
:1000B000EF020000EF02000000000000000000005E
:1000C000EF020000EF020000EF020000EF0200006C
:1000D00089E00200EF020000EF020000EF020000E2
:1000E000EF0200000000000000000000000000001F
:1000F00000000000EF02000000000000EF0200001E
:1001000000000000000000000000000000000000EF
:1001100000000000000000000000000000000000DF
:1001200000000000000000000000000000000000CF
:1001300000000000000000000000000000000000BF
:1001400000000000000000000000000000000000AF
:10015000000000000000000000000000000000009F
:10016000000000000000000000000000000000008F
:10017000000000000000000000000000000000007F
:10018000000000000000000000000000000000006F
:10019000000000000000000000000000000000005F
:1001A000000000000000000000000000000000004F
:1001B000000000000000000000000000000000003F
:1001C000000000000000000000000000000000002F
:1001D000000000000000000000000000000000001F
:1001E000000000000000000000000000000000000F
:1001F00000000000000000000000000000000000FF
:1002000010B5054C237833B9044B13B10448AFF350
:1002100000800123237010BDD004002000000000E6
:10022000AC25030008B5034B1BB103490348AFF3EA
:10023000008008BD00000000D4040020AC250300AD
:10024000154B002B08BF134B9D46A3F5803A0021A8
:100250008B460F461348144A121A2EF0A4FA0F4B7D
:10026000002B00D098470E4B002B00D09847002061
:10027000002104000D000D48002802D00C48AFF307
:1002800000802EF019FA200029000DF041F82EF020
:10029000EDF900BF0000080000000220000000008F
:1002A00000000000D0040020806F0020000000004B
:1002B000000000000649074A074B9B1A03DD043B78
:1002C000C858D050FBDC0DF09DF9FFF7B9FF0000D6
:1002D0007826030000000020D0040020FEE7FEE79F
:1002E000FEE7FEE7FEE7FEE7FEE7FEE7FEE7FEE7E6
:1002F000F0B595B01C46164608460D460BF04EF874
:100300001A9B0D93CDE9086400242346082205A911
:1003100028460A948DF82C400C940BF05DF8079B4E
:100320000293BDF81830ADF80C30BDF81A30ADF8B6
:100330000E309DF814308DF8114003F00302012AAD
:100340001DD1BDF81440059EC3F3C203C4F383144A
:100350008DF81030A20008230EA928460BF03CF8B7
:10036000C6F3952608AB0093224602AB0EA9304691
:1003700000F02EFD28460BF015F815B0F0BD022A4E
:10038000F8D1BDF81640C3F3C203A4098DF81030AC
:100390000827082C264628BF08263B4632460EA9C9
:1003A00028460BF019F8A41B08AB02AA31460EA888
:1003B000374400F071FD002CEBD1DBE7014B01224B
:1003C0001A7070472D0500207047000070B50F4D62
:1003D00006460FCD88B06C460FC495E80F00002E7E
:1003E00084E80F004FF006030093094A09484FF0D4
:1003F000805308BF0022694606930BF0D9FA08B172
:100400000AF05AF9044B1E7008B070BD6CFF020070
:10041000BD03000000000020EC04002007B5044BE1
:100420000093044A4023FFF763FF03B05DF804FB29
:1004300039040000ED04002038B50D4B0D4D0020AF
:1004400018700D4804782D5DD2B21C4665B1043099
:100450000CF05CFB08B10AF02FF9084B1A7812B1C6
:100460002378002BFBD038BD0C300CF0EBF8F1E713
:100470002D0500209854002000000020EC040020EE
:1004800008B50848084A0378D35C3BB104300CF047
:10049000CFFA0020BDE80840FFF798BF0C300CF001
:1004A00077F8F6E700000020985400200120FFF7BD
:1004B0008DBF000008B5FFF7F9FF0421034800F0E5
:1004C000E5FB034B01225A7108BD00BF482603001B
:1004D00014000020037813F0040216D003F0030385
:1004E000012B03D0022B09D0012070470A68008835
:1004F0000232C0F3831002440A60F5E70B684288B9
:10050000023303EB92130B60EEE7104670470000D6
:100510002DE9F04F484C87B00F460546861C002059
:1005200001920AF0B5F923683B60D4E90123134432
:10053000226801339B1A04F21C4704F5836A04F213
:100540001448B34219D3019A0023002A6CD0012227
:1005500062F3010343F0040365F389132168A26881
:100560000A4003320E44002044F8223026600AF08C
:1005700091F9012007B0BDE8F08F012138460AF05B
:1005800049FA50460AF05FFA40460AF05CFA0DF16B
:1005900018096068D4F808B049F8100D00EA0B009B
:1005A000033004EB80004946FFF794FF029BB0B98B
:1005B0000BEA030204EB8202D16803919A1C013317
:1005C00003EA0B0B04EB8B0C01F00303012B0292EB
:1005D000DCF80CB020D0022B04D083460BE00BEAF1
:1005E0000300DDE7BDF80E309B0903334FEA1B4BD8
:1005F00002EB9303029340460AF028FA08B1029BEB
:100600006360594638460AF005FAD4E901231344D9
:10061000226801339B1A94E7BDF80C30C3F38313AF
:100620004FEA1B4B1344E5E7022262F3010343F058
:10063000040365F39F5391E70006002030B50A4B91
:100640000A4A0B49D21AD20800239A4201D1052046
:1006500006E031F823500468A54202D1036000206F
:1006600030BD0133F1E700BFC82503004826030071
:10067000380400202DE9F84F224B2348FF229A60CE
:100680000022C3F81824C3E90022C3F8142483F815
:1006900020240AF03CFE804688B91C481C4E1D4DA3
:1006A000DFF874A00AF0A6FFAD1BED084446AC428B
:1006B00008D10023184919481A469C421BD14046CC
:1006C000BDE8F88F4FF000094F4606EBC40BBC4263
:1006D0000AD0142256F83710DBF800002EF0CEFBBB
:1006E0000028C8BF09F101090137BD42EFD12AF83E
:1006F00024900134DBE701EB830540F823206A8076
:100700000133DAE70006002058260300ACFF0200A0
:10071000C825030048260300380400207804002080
:1007200007B5019031B9019A064B53F8320003B076
:100730005DF804FB01A8FFF781FF0028F3D000203B
:10074000F5E700BFC8250300094B013903EBC000E2
:10075000032909D8DFE801F00A02040604207047E3
:100760000079704740797047002070470220704739
:10077000C825030030B5124C00EB400054F821505E
:100780008240072303FA00F06A4002400D4B6A40A2
:10079000C2F3821044F8212003EB8101C2F3C203AB
:1007A000834238BF0346C2F34220834202F007026D
:1007B00038BF03469A4238BF1A464A8030BD00BF50
:1007C000780400203804002037B5164B93F8203405
:1007D00004460BB918B90024204603B030BD2EF0F2
:1007E00045FB02AA013042F8080D012301A90E4879
:1007F0000AF00EFF05460028EDD12146009A019827
:100800002DF0ADFFDDE900231344074803F8015C38
:1008100000990AF034FF009903480AF049FF019C4F
:10082000DAE700BF00060020ACFF0200034BD3E96B
:100830000030C31A58425841704700BF00060020DC
:100840002DE9F04F85B0FFF7F1FF0646002840F094
:1008500018818D4DC5F81804BFF34F8F6868AC68D8
:1008600004AF47F8100D2040033005EB80003946F7
:10087000FFF730FE009B18B1D5F81824002A66D087
:1008800004EA0302991C013305EB8202234005EBC5
:100890008303D268DB68029302F00303022B019208
:1008A000009169D1BDF8063078489DF804604FEAA0
:1008B000931ABAF1500FD14628BF4FF0500969F38F
:1008C0008F1309F10801ADF806300AF038FDC6F3C0
:1008D000C2068046002800F0BB800AF05FFD01A937
:1008E0000023082240460AF06CFD009924EA010723
:1008F0000137BF00B94538D95FFA89F997B3FFB21C
:10090000A9EB0709214003315FFA89FBB946604F23
:1009100005EB810108234A4640460AF052FD37B1F3
:1009200009F108035A46394640460AF04AFD009B41
:100930000AF1030A03EB9A030093D5F81834002B4D
:1009400050D1D5F81044DFF85C9107276FE02A6892
:100950009A4204D86A60304605B0BDE8F08F04EAD8
:10096000030081E74A49BB46D4E72140033108230D
:100970004A4605EB8101D7E7012B69D1BDF8046038
:100980004248C6F38311062928BF062161F3891660
:1009900002318900ADF804600AF0D1FCC6F3C2064A
:1009A0008046002854D00AF0F9FC0023082201A94F
:1009B00040460AF006FD0027BDF80420C2F383126A
:1009C000BB1C97424FEA8303B7D200994A1C2140CF
:1009D0000331009205EB8101042240460AF0F1FC4C
:1009E0000137E9E740460AF0DDFCFFF71FFF80F022
:1009F0000100C6B2AFE7E3685A79B2B11B79BDF81E
:100A0000081003EB430259F8211007FA02F3052EF0
:100A100003EA010323FA02F308BF0326B34204D317
:100A2000236841461B6820469847E3681C68002CF1
:100A3000E1D140460AF0B6FC204609F029FFD5F87E
:100A400018340BB9009B6B60002009F023FFCCE742
:100A5000D5F8104474B90F4B5B88012BC5D90E4BE8
:100A60000E480F49C01AC008000440F0020000F010
:100A700073F8BAE7236820469B689847E3681C68C8
:100A8000E8E7002667E700BF0006002058260300BD
:100A90000C06002050040020C8250300F8250300A0
:100AA000B8FF0200780400202DE9F74F284C80465B
:100AB0000F46924601A9012218469B46D4F8089099
:100AC000FFF726FD88B3019D0026A91C5E4506EBB5
:100AD000010234D100211F4809F066FF80F31000A5
:100AE0006A1C02EA090204EB8202000405EA090317
:100AF000033340EA1840D06014F8232068F3C5029D
:100B000004F8232034F8232066F3891224F82320E4
:100B100054F82320012167F39F2244F8232061F336
:100B200001026FF3820204F8232094F820341BB1F1
:100B3000FFF786FE0028FBD103B0BDE8F08F09EA7D
:100B4000020204EB82025AF82630D3600136BDE778
:100B5000000600201C0A002000231A46FFF7A4BF4D
:100B600013B502AC012344F8042D2246FFF79CFF85
:100B700002B010BD07B5CDE9002302236A46FFF796
:100B800093FF03B05DF804FB1FB5CDE90123069B7D
:100B9000039301AA0323FFF787FF05B05DF804FB69
:100BA0001FB5CDE90023069B0293079B03936A467A
:100BB0000423FFF779FF05B05DF804FB2DE9F34747
:100BC0008046304CD01C8A46174601A90022800876
:100BD000A568FFF79DFC002840D0DDF80490A668CA
:100BE00009F10200019001362840361AB6000330A0
:100BF000B74204EB80003BD83A4651462DF0AFFD9A
:100C00000021214809F0D0FE80F3100009F1010312
:100C10002B4004EB83034FEA184242EA0040D860BD
:100C200005EA0903033304EB830214F8231068F385
:100C3000C50104F8231034F823106FF38F1124F842
:100C40002310518867F38F11518014F8232002215B
:100C500061F301026FF3820204F8232094F8203438
:100C60001BB1FFF7EDFD0028FBD102B0BDE8F08716
:100C7000324651462DF073FDBA1B0AEB060104F112
:100C80000C00BBE7000600201C0A00202DE9F843F9
:100C90001F4B8846D3F81014054600240A469AB91B
:100CA000E9680C71D3F81014A1B9C3F81054EB68BB
:100CB0001A60184F184EF61BF6084FF00009B145A0
:100CC00011D12046BDE8F883D2681079A04218D02F
:100CD0001268E4E7C968EA6809681160D3F810345B
:100CE000DB681D60E5E707EBC9034946DA79EB6885
:100CF000424528BF42461879FFF73CFD09F101093A
:100D0000DDE701340A2CC9D14FF0FF34D9E700BF29
:100D100000060020C82503004826030010B5037A0A
:100D2000052B0C460FD0437A23B1084A08492046C8
:100D300009F0EBFE0749204609F0E7FE2046BDE832
:100D4000104009F0D7BE002AF8D0F3E713000300E3
:100D50001B0C03003500030073B5C38804460D4621
:100D600033B1144A00921449144A284609F0CDFEC2
:100D7000217A05291CD0637A4BB1A088FFF7E4FCE7
:100D80000F4B104953F82020284609F0BEFE227A66
:100D90000D4BA08853F822600021FFF7C1FC0B49DE
:100DA00003463246284602B0BDE8704009F0ADBEA9
:100DB00002B070BD13000300200003001800030000
:100DC000E0FF02001B0C0300440003003800030096
:100DD0002DE9F04385B01F460C9D002306460C46C6
:100DE000904695F80C902B7329463846FFF7B4FFD0
:100DF000B8F1060F09D8DFE808F00412181F2833ED
:100E000040003146284609F080FE00222946384637
:100E1000FFF784FF85F80C9005B0BDE8F0832268E9
:100E20003146284609F071FEEFE7D4E90023314648
:100E3000284609F06AFEE8E7A36800933146D4E942
:100E40000023284609F061FEDFE7E3680193A36809
:100E500000933146D4E90023284609F056FED4E732
:100E600023690293E3680193A36800933146D4E9B0
:100E70000023284609F049FEC7E763690393236905
:100E80000293E3680193A36800933146D4E90023F9
:100E9000284609F03AFEB8E708292DE9F84F8046C0
:100EA0000E4617461C4635D8002593F80C901D7346
:100EB00019461046FFF750FFDFF88CA0DFF88CB022
:100EC000AE4229D918F805205946204609F01DFEE2
:100ED0000135082DF4D11A49DFF874B0204609F025
:100EE00014FE4FF0000A564524D918F80A507E2DFA
:100EF00017D92E225946204609F007FE0AF1010AA9
:100F0000BAF1080FEFD1012221463846FFF706FF5C
:100F100084F80C90BDE8F88F5146204609F0F5FDA5
:100F2000D6E72DF0EDFB2844427812F0970FE0D081
:100F30002A46DFE70349204609F0E7FDDEE700BF68
:100F40000E0003000C0003000A000300040003006D
:100F500010000300074B1B5C1F2B8ABF064A4FF093
:100F6000A04203F01F03D2F80405D840C04300F0AC
:100F700001007047A900030000030050074B1B5CF1
:100F80001F2B86BF03F01F0305494FF0A04101222C
:100F900002FA03F3C1F80C35704700BFA900030043
:100FA00000030050074B1B5C1F2B86BF03F01F0381
:100FB00005494FF0A041012202FA03F3C1F80835B8
:100FC000704700BFA90003000003005008B50020CF
:100FD000FFF7E8FF0120FFF7E5FF0220FFF7E2FF40
:100FE0000320BDE80840FFF7DDBF08B50020FFF78C
:100FF000C5FF0120FFF7C2FF0220FFF7BFFF03205C
:10100000BDE80840FFF7BABF0A4B185C1F288ABF2B
:10101000094B4FF0A04300F01F00D3F80425012135
:10102000814021EA02000A40C3F80805C3F80C25F4
:10103000704700BFA9000300000300500B2809D02F
:101040000C2809D0182809D019280CBF03204FF00C
:10105000FF30704700207047012070470220704722
:10106000C20710B504460CD54FF0A0430322C3F8C5
:101070003427C3F83827C3F83C27C3F84027FFF7C5
:10108000A5FFA3070AD54FF0A0430C22C3F82C27D5
:10109000C3F83027C3F86027C3F8642710BD0000E9
:1010A00038B5430704461CBF20F00704083400F09D
:1010B00001FE0C4B1A681AB90B4A22F007021A609B
:1010C0000A490A6841F6F7701444844208D8A242DB
:1010D00006D21D680C60154400F086FE284638BD17
:1010E0000025F9E7BC0A0020C80A0020C02A002019
:1010F000704700F108034FF0FF324360C0E902235C
:101100000361002303607047002303617047436855
:101110004B609A688A609A685160996008610368B8
:101120000133036070470A68531C30B50AD1036964
:101130005A684A6091608B605960086103680133A6
:10114000036030BD00F108035C6825689542EFD864
:101150002346F9E7D0E9012103699160D0E9011242
:1011600051605A68824204BF82685A60002202615C
:101170001A68013A1A60186870470000054800684C
:1011800080F3088862B661B6BFF34F8FBFF36F8FED
:1011900000DF00BF00000000064B19680868B0E8D7
:1011A000F04F80F30988BFF36F8F4FF0000080F39A
:1011B00011887047C82A0020EFF30980BFF36F8FB2
:1011C000144B1A681EF0100F08BF20ED108A20E99A
:1011D000F04F10604DF8043D4FF0400080F311884F
:1011E000BFF34F8FBFF36F8F00F0AAFE4FF00000E8
:1011F00080F3118808BC19680868B0E8F04F1EF049
:10120000100F08BFB0EC108A80F30988BFF36F8F0E
:10121000704700BFC82A0020402383F31188FEE7EF
:101220004FF0807340E90213054B40F80C3C6FF01F
:10123000020340F8202C40F8243C4438704700BF9B
:10124000191200000F4C08B5E02384F8223000F09A
:1012500067F80D4B00221A60D4F888300B4A43F42B
:101260007003C4F88830536843F0404353602369E7
:1012700043F010032361FFF781FF402383F31188BC
:10128000FEE700BF00ED00E0C42A002030EF00E0E0
:10129000402383F31188024A1368013313607047B7
:1012A000C42A0020034A1368013B13600BB983F37F
:1012B00011887047C42A002073B5EFF311864023CC
:1012C00083F31188144B0022D3F80445C3F800219E
:1012D00003F580731B680193019B00F0F3FC241A53
:1012E00024F07F44012C04D900F00CFF022818BF21
:1012F0000124002514F1FF3409D225B1074B4FF02A
:1013000080525A6040BF86F3118802B070BD00F071
:10131000E5FC0543EEE700BF0010014000ED00E0F2
:1013200008B500200AF04EFA0A4B0B491F22C3F8F9
:1013300008250122C3F804230A601A600222C3F8B8
:101340004423064BE02283F811234FF400321A6045
:1013500008BD00BF001001400810014000E100E09E
:1013600010B50446FFF794FFA46BFFF79BFFB4FA98
:1013700084F0400910BD70B51546026C866B0446BA
:1013800042B905689DB9406800F01EFF65600136EE
:10139000A66370BD6DB980682DF0E1F9A368226C79
:1013A00013446268A360934201D32368A3600020C2
:1013B000EDE7C0682DF0D3F9236CE26821685B4249
:1013C0001A448A42E2603EBF62689B18E360022DC5
:1013D000EDD10EB1013EEAE73046D8E7034610B43E
:1013E0001A6C084662B1D9685C681144A142D960A0
:1013F00024BF1968D960D9685DF8044B2DF0AFB9E6
:101400005DF8044B704770B50446FFF741FF94F850
:10141000455004F124066DB2002D14DCFF2384F83E
:101420004530FFF73FFFFFF733FF94F8445004F1D6
:1014300010066DB2002D12DCFF2384F84430BDE8A5
:101440007040FFF72FBF636A002BE7D0304600F0F3
:10145000E1FD08B100F04AFE013D6DB2DCE7236911
:10146000002BE9D0304600F0D5FD08B100F03EFE7B
:10147000013D6DB2DEE7000038B504460D46FFF7CA
:1014800007FFD4E90F302268A2604343D1181B1A2A
:1014900013446160E3600021FF23A16384F84430BA
:1014A00084F845309DB923696BB104F1100000F058
:1014B000B1FD40B10A4B4FF080525A6040BFBFF3BC
:1014C0004F8FBFF36F8FFFF7EDFE012038BD04F1A2
:1014D0001000FFF70EFE04F12400FFF70AFEF2E70A
:1014E00000ED00E070B50646484348300D46FFF772
:1014F000D7FD044638B145B92060C4E90F65012124
:101500002046FFF7B9FF204670BD00F14803036095
:10151000F3E700002DE9FF470026DFF8F490019281
:1015200004468A461F46B046FFF7B2FEA26BE36B45
:101530009A4201D3022F1AD13A4651462046FFF76C
:101540001AFF636A1BB104F1240000F063FD40B18F
:101550002F4B4FF080525A6040BFBFF34F8FBFF305
:101560006F8FFFF79FFE012004B0BDE8F087019D5B
:101570001DB9FFF797FE0020F6E716B902A800F0A4
:1015800081FDFFF78FFE00F095FBFFF781FE94F8D9
:101590004430FF2B08BF84F8448094F84530FF2B7B
:1015A00008BF84F84580FFF77DFE01A902A800F07E
:1015B00075FD30BBFFF76CFEA26BE36B9A420ED158
:1015C000FFF770FE019904F1100000F0FFFC2046C7
:1015D000FFF719FF00F008FC48B10126A4E7FFF768
:1015E00061FE2046FFF70FFF00F0FEFBF5E74FF02E
:1015F0008053C9F8043040BFBFF34F8FBFF36F8FE4
:10160000EBE72046FFF7FFFE00F0EEFBB3E700BF7D
:1016100000ED00E010B5024600210120FFF762FF57
:10162000044638B10023C0E90033C3601A461946A6
:10163000FFF770FF204610BD38B50446456800F03E
:101640005BFD85420AD1E368013BE36023B91A469A
:1016500019462046FFF75EFF012000E0002038BD5C
:10166000F8B505461746EFF31186402282F311883C
:10167000806BEA6B904201D3022B1ED195F8454056
:101680001A4664B22846FFF776FE631C10D16B6AD7
:101690000BB9012009E005F1240000F0BBFC002893
:1016A000F7D0002FF5D00120386086F31188F8BDFF
:1016B000013464B285F84540EBE70020F5E700000F
:1016C0002DE9F04385B00026DFF8E490019204464E
:1016D00088463746FFF7DCFDA56BDDB14146204665
:1016E000013DFFF77BFEA56323696BB104F1100098
:1016F00000F090FC40B12E4B4FF080525A6040BF3A
:10170000BFF34F8FBFF36F8FFFF7CCFD012005B004
:10171000BDE8F083019D1DB9FFF7C4FD0020F6E789
:1017200016B902A800F0AEFCFFF7BCFD00F0C2FA4B
:10173000FFF7AEFD94F84430FF2B08BF84F84470E7
:1017400094F84530FF2B08BF84F84570FFF7AAFDD9
:1017500001A902A800F0A2FCF8B92046FFF700FE9C
:10176000A8B1019904F1240000F030FC2046FFF7F5
:101770004AFE00F039FB40B94FF08053C9F80430FD
:1017800040BFBFF34F8FBFF36F8F0126A2E7204604
:10179000FFF739FE00F028FBF7E72046FFF733FE9E
:1017A00000F022FB2046FFF7DBFD0028EDD0B5E777
:1017B00000ED00E02DE9F04385B00025DFF81C9135
:1017C000019104462F462E46FFF762FDA36BEBB155
:1017D000013BA363236813B900F06EFD60602369C9
:1017E0006BB104F1100000F015FC40B13B4B4FF021
:1017F00080525A6040BFBFF34F8FBFF36F8FFFF728
:1018000051FD0125284605B0BDE8F083DDF80480D0
:10181000B8F1000F03D1FFF745FD0025F2E717B936
:1018200002A800F02FFCFFF73DFD00F043FAFFF7A0
:101830002FFD94F84430FF2B08BF84F8446094F8DF
:101840004530FF2B08BF84F84560FFF72BFD01A949
:1018500002A800F023FC48BB2046FFF781FDF8B149
:1018600023683BB9FFF714FD606800F05BFC054698
:10187000FFF718FD019904F1240000F0A7FB2046B2
:10188000FFF7C1FD00F0B0FA40B94FF08053C9F83E
:10189000043040BFBFF34F8FBFF36F8F012793E733
:1018A0002046FFF7B0FD00F09FFAF7E72046FFF76C
:1018B000AAFD00F099FA2046FFF752FD0028EDD06E
:1018C000002D9FD0FFF7E4FC616A19B1236B196802
:1018D000C1F10401606800F0AFFC9CE700ED00E09E
:1018E00070B5044646680D4600F006FC864204D1F9
:1018F000E3680133E360012070BD29462046FFF70D
:1019000059FF0028F8D0E3680133E360F4E70000F2
:10191000054B1A6812B19A682AB9012243F83210AD
:1019200003EBC203586070479453002070B504461F
:101930000D461646FFF7ACFC94F84430FF2B04BF6D
:10194000002384F8443094F84530FF2B04BF002373
:1019500084F84530FFF7A6FCA36B2BB93246294625
:1019600004F1240000F042FB2046BDE87040FFF780
:101970004ABD0000064A13681968064B19B94FF0B2
:10198000FF321A6070471268D268D2685268F8E76E
:10199000CC2A0020682B0020F8B51B4B1B4E1C687E
:1019A0000546306804300F46FFF7D4FB334640B994
:1019B0003168174EC96A32680120884022EA000265
:1019C00032606A1C07D137B1196812480431BDE88A
:1019D000F840FFF79CBB1A686419546007D30E4A9D
:1019E00010681968BDE8F8400431FFF79CBB0B4A4A
:1019F000106819680431FFF796FB094B1A68A24278
:101A000088BF1C60F8BD00BFB02B0020C82A002092
:101A1000382B0020882B0020D02A0020CC2A002040
:101A2000682B002080B5154C154F164E23687BB9E6
:101A3000154B1B68012B08D9144B4FF080525A608C
:101A400040BFBFF34F8FBFF36F8F0BF041FCECE74C
:101A5000FFF71EFCFB68DD68281DFFF77BFB336882
:101A6000013B33602368013B2360FFF71BFC286BBD
:101A7000FFF73EFB2846FFF73BFBD7E7282B00206C
:101A80009C2B0020242B0020D42A002000ED00E015
:101A90002DE9F84F4FEA820A804650460D46994696
:101AA0000B9EFFF7FDFA0746002800F0A2804820B1
:101AB000FFF7F6FA0446002800F0988052460763C4
:101AC000A52138462CF06FFE236BAAF1040A9A4434
:101AD0002AF0070A6B1E04F13402033513F8011FC4
:101AE00002F8011B197809B1AB42F7D10A9D032D09
:101AF00028BF03254FF0000B271DE562C4E90E5BEC
:101B0000384684F837B0FFF7FFFAC5F1040504F151
:101B10001800FFF7F9FAC4F840B02461A5616462C7
:101B200084F844B04A4641465046FFF779FB2060AE
:101B300006B13460FFF7ACFB354B364E1A68DFF860
:101B40000C8101321A603268002A55D134601B685A
:101B5000012B22D13048DFF8F890304DFFF7C9FA59
:101B60002F48FFF7C6FA2F48FFF7C3FA2E48FFF7B2
:101B7000C0FA4846FFF7BDFA2846FFF7BAFA2B48E5
:101B8000FFF7B7FA2A48FFF7B4FA2A48FFF7B1FA85
:101B9000294BC3F80090294B1D60294A2949136835
:101BA000086801331360E26A012505FA02F3034372
:101BB0000B60194B142000FB02303946FFF7A7FADF
:101BC000FFF770FBD8F800306BB13368DA6AE36A6C
:101BD0009A4208D21C4B4FF080525A6040BFBFF36C
:101BE0004F8FBFF36F8F2846BDE8F88F3846FFF759
:101BF0007FFA4FF0FF35F6E7D8F80030002BCCD154
:101C00003368DA6AE36A9A4298BF3460C5E700BF76
:101C1000242B0020C82A0020D42A0020502B00208A
:101C2000E82A0020FC2A0020102B0020702B002026
:101C30009C2B0020882B0020CC2A0020D02A0020BA
:101C4000342B0020382B002000ED00E0842B0020F6
:101C50003C2B002013B5114B019300240094234624
:101C60003C220F490F48FFF713FF012813D100F062
:101C700079FB01280FD1402383F311880A4B4FF0E1
:101C8000FF321A60094B1860094B1C6002B0BDE8B6
:101C90001040FFF7D7BA02B010BD00BF642B002080
:101CA00019160300251A0000682B0020842B002041
:101CB000B02B0020024A136801331360704700BF45
:101CC000302B0020014B1868704700BFB02B00205C
:101CD000014B1868704700BFB02B00202DE9F84F6A
:101CE000364B1B68002B62D1354B1C6801341C60DD
:101CF0005CB9344A344B116818681060334A196073
:101D0000136801331360FFF735FE314D314F2B68F7
:101D1000A3424FF0000B11D93A682F4BD16A14221D
:101D20004A439A58022A28BF4FF0010B2B4A1268E7
:101D3000002A0CBF58460120BDE8F88FDFF884A0C8
:101D4000DFF8A090DAF8002012681AB94FF0FF32DD
:101D50002A60E1E7DAF80020D268D66871688C4220
:101D600001D22960D8E706F104084046FFF7F2F9EE
:101D7000B16A19B106F11800FFF7ECF9F06AD9F869
:101D80000030012202FA00F11943134BC9F8001088
:101D90004FF0140C41460CFB0030FFF7B8F93868DF
:101DA000F16AC26A914228BF4FF0010BCAE70C4AA0
:101DB0001368013313604FF0000BB7E7302B00209E
:101DC000B02B0020CC2A0020D02A00206C2B002031
:101DD000682B0020C82A0020D42A0020B42B002021
:101DE0002C2B0020382B00202DE9F843FFF750FA68
:101DF0002A4B1A68013A1A601C682CB10024FFF7BC
:101E000051FA2046BDE8F883254B1B68002BF5D01E
:101E1000244D254EDFF8A4801FE0EB68DC6804F158
:101E2000040904F11800FFF795F94846FFF792F905
:101E3000E26A3168012707FA02F314200B4300FB22
:101E4000028049463360FFF762F9184BE26A1B686B
:101E5000DB6A9A4201D3164B1F602B68002BDCD142
:101E60000CB1FFF787FD134D2C6844B1104E0127CC
:101E7000FFF734FF00B13760013CF9D12C600C4B07
:101E80001B68002BBAD00C4B4FF080525A6040BFF9
:101E9000BFF34F8FBFF36F8F0124B0E7302B0020CB
:101EA000242B0020702B0020382B0020C82A002073
:101EB000B42B00202C2B002000ED00E0D42A0020C1
:101EC00010B5FFF7F7FE104B04681A6863182CBFB3
:101ED00001210021944203600DD969B9FFF784FF05
:101EE00040B90A4B4FF080525A6040BFBFF34F8F4A
:101EF000BFF36F8F10BD09B99A42EFD20021981A33
:101F0000FFF74AFDEAE700BFB02B002000ED00E03C
:101F100008B548B9094B4FF080525A6040BFBFF333
:101F20004F8FBFF36F8F08BDFFF7C4FE0021FFF78F
:101F300033FDFFF759FF0028ECD0F4E700ED00E097
:101F400070B51D4B1A681D4B12B101221A6070BD8D
:101F50001B4C1A6023681B6B1A68B2F1A53F0BD1AA
:101F60005A68B2F1A53F07D19A68B2F1A53F03D1F3
:101F7000DB68B3F1A53F04D02068216834310BF051
:101F8000A9F9104B10491B68B3FA83F3C3F11F037F
:101F9000142000FB03F28D1808326E6876686E60BC
:101FA0000A44964204BF72686A6000FB03135B68D0
:101FB000DB682360CBE700BF302B0020B42B002070
:101FC000C82A0020382B0020D42A002010B5064B48
:101FD0000C4619681831FFF7A6F820460121BDE824
:101FE0001040FFF7D9BC00BFC82A002038B5084B05
:101FF0000D46196814461831FFF789F8002C214660
:102000000CBF28464FF0FF30BDE83840FFF7C4BC96
:10201000C82A002038B5C368DC6804F118052846D2
:10202000FFF798F8114B1B68E3B9251D2846FFF709
:1020300091F80F49E26A08680123934003430B605B
:102040000C4B1420294600FB0230FFF760F80A4BC6
:10205000E26A1B68DB6A9A4283BF084B0120186062
:10206000002038BD29460648EFE700BF302B00208E
:10207000382B0020D42A0020C82A0020B42B0020AE
:10208000702B0020034B1B680360034B1B684360ED
:10209000704700BF6C2B0020B02B002070B50C46A1
:1020A0000546FFF7F5F80F4B1A682368591C0FD047
:1020B0000D482E6800686968864201D091420ED9A9
:1020C000521A934209D99B1A23602846FFF7DAFF78
:1020D0000024FFF7E7F8204670BD002323600124A9
:1020E000F7E700BFB02B00206C2B0020014B012232
:1020F0001A607047B42B0020014B1868704700BF6E
:10210000C82A0020054B1B6833B1054B1B68002B08
:102110000CBF02200020704701207047842B002054
:10212000302B00202DE9F041044658B3234AC36AFE
:102130001168C96A8B42174638D28269204D002A3D
:10214000A1BF3A68D26AC2F10402826114264269D0
:1021500006FB03539A4217D100F104084046FEF7EC
:10216000F9FF184BB0B13A681968D26AE2620124EB
:1021700004FA02F0084318601420414600FB0250A4
:10218000FEF7C5FF204603E03B68DB6AC36201201F
:10219000BDE8F081E06A4643AA59002AE3D11A68F3
:1021A0000121814022EA01021A60DCE71368806B9A
:1021B000DC6AA0422CBF00200120E9E7C82A0020E9
:1021C000D42A0020382B0020F8B5044608B9002096
:1021D000F8BDC36BC16A826B013B9142C363F6D009
:1021E000002BF4D1051D2846FEF7B4FF104E114A0E
:1021F00050B9E76A1421794373582BB91368012049
:10220000B84023EA00031360A36BE362C3F1040147
:10221000A1611168012404FA03F00843106014203E
:1022200000FB03602946FEF772FF2046D0E700BF9F
:10223000D42A0020382B0020F8B50446002836D0D8
:10224000836B994238BF1946C36A8B422FD0C26B49
:10225000012A2CD18269164DC162002A4FF0140662
:102260004269A8BFC1F1040106FB0353A8BF816105
:102270009A421CD1071D3846FEF76CFFE26A0D4CEE
:1022800040B95643AB592BB923680121914023EA49
:10229000010323602168012393400B432360142032
:1022A000394600FB0250BDE8F840FEF730BFF8BDEC
:1022B000D42A0020382B0020044B1A681AB1196860
:1022C000CA6B0132CA631868704700BFC82A002071
:1022D000F8B50F4CFEF7DCFF2568ADB90D4F0E4E7B
:1022E0003846FEF706FF3046FEF703FF0B4B1F6034
:1022F0000B4B2A46102120201E60FFF7F3F82060C8
:1023000010B10849FFF704FBBDE8F840FEF7CABF6B
:10231000EC2B0020C02B0020D42B0020B82B002059
:10232000BC2B0020AD000300914208B54160006164
:102330000AD8D21A83699A420DD2084B011D186837
:10234000FEF7F1FE002008BD9A4201D2994202D266
:10235000011D034BF3E70120F5E700BFBC2B002074
:10236000B82B002007B5FFF7B3FF084B186848B13A
:10237000074B01930323009350220023054906488D
:10238000FFF786FB03B05DF804FB00BFEC2B0020D9
:10239000F02B0020B20003007D2400002DE9F04165
:1023A000804628200F4616461D46FEF779FE044655
:1023B00058B1FFF78DFF069BC4F80080C4E906768C
:1023C00025626362201DFEF79FFE2046BDE8F08176
:1023D0007FB50F4C0546206816461A4680B1052980
:1023E000CDE9001602950DDCFFF78CFE00230228D4
:1023F00008BF089A206818BF1A466946FFF78AF88E
:1024000004B070BD00236946FFF72AF9F8E700BF62
:10241000EC2B00202DE9F341164D4FF000082B68FE
:102420001A6832B9144A11682960136002B0BDE815
:10243000F081DB68DC681E68271D3846FEF78AFEDF
:10244000636A20469847E369012BE8D1A3693344C6
:102450009E4206D26360246139462868FEF763FE17
:10246000DDE70023CDF80080324619462046FFF70D
:10247000AFFFD4E7B82B0020BC2B00202DE9F04F94
:102480005B4D89B0A9464FF0000A2A681368002BFB
:102490004AD0D268D2F800B0564C0393FFF70AFC3A
:1024A000FFF710FC2268544E039B9042804627465B
:1024B0003CD2FFF7AFFFC4F80080FFF795FC4FF068
:1024C000010B002204A93068FFF7FAF80028DCD0DD
:1024D000049B002B03DADDE90601059B9847049B6A
:1024E000002BEEDB069C636913B1201DFEF732FE64
:1024F000FFF7E8FB3B689842024603D20390FFF7E0
:1025000089FF039A049B3A60092BDAD80BFA03F38C
:1025100013F4047863D113F0C70F46D19B06D0D5CE
:102520002046FEF7E5FDCCE79B46B5E720600BB300
:10253000834538D8FFF758FCD9F80030DB68DC68F1
:10254000201DFEF707FEE369012B0FD1A1695B4651
:10255000424659442046FFF7E7FE38B10023CDF844
:1025600000A05A4619462046FFF732FF636A20460C
:102570009847A4E7214B1B681A68B2FA82F2520905
:10258000ABEB08013068FFF7D1F9FFF72DFC00280D
:1025900095D11B4B4FF080525A6040BFBFF34F8F15
:1025A000BFF36F8F8BE70022EAE7A169059B204606
:1025B0001944FFF7B9FE002883D0636A2046984784
:1025C000E369012B7FF47DAFA2690599CDF8008006
:1025D0000A44434641462046FFF7FAFE71E7059953
:1025E000A161134611442046FFF79EFE69E700BF34
:1025F000B82B0020E82B0020EC2B0020BC2B002067
:1026000000ED00E010B50446FEF742FE64690034B8
:1026100018BF0124FEF746FE204610BD10B5044643
:10262000FEF736FE246AFEF73DFE204610BD000090
:10263000F8B50F4B002420220F460D2183F88A2085
:102640001C7083F8784083F88C1022462346054698
:102650001DF0A8FA064650B12146284618F0B9F8F0
:10266000377029460348BDE8F8401CF0C9BCF8BDE6
:102670000A540020DDFF010073B502AB00220C46B6
:1026800003F8012D114617F0F3F938B90A4B9DF8FC
:10269000071093F843200D25824202D86FF01B00EB
:1026A00006E005FB0036F67B8E4203D12070002049
:1026B00002B070BD0130EFE70A5400200B4BD3F895
:1026C00001202AB983F878201146094817F097BDF0
:1026D0008C2A0BBF0722062283F8782083F8782003
:1026E00007BF0022032100220221EEE70A54002046
:1026F0003126000037B5114C054617F049FE227807
:10270000042A07D142782AB929460D4817F077FDE7
:1027100003B030BD0DF107014088FFF7ADFF002881
:10272000F6D19DF8073007480D2202FB03432946E6
:102730005A7D01325A751CF063FCE9E70A54002007
:10274000D1290000992B000008B50022FF2109487B
:102750001CF044FF0022FF2107481CF03FFF7522B8
:10276000002106482CF01FF8054B064AC3F8F82B49
:1027700008BD00BFBD260000B92700000A54002094
:10278000FC540020492D000010B50022084C0948D7
:1027900011461CF023FF94F8440003F005FC0023CD
:1027A0002022237084F88A2084F8783010BD00BF7E
:1027B0000A540020B927000010B5044620B9094882
:1027C000BDE8104017F0F6BCFFF7DEFF00230C2138
:1027D00020461A461DF0E6F921460348BDE81040A0
:1027E0001CF00EBCB9270000DDFF010008B5002277
:1027F000FE2105481CF0F2FE002201210348BDE83D
:10280000084017F0FCBC00BFBD26000031260000C8
:1028100070B50C4BD3F845302BB11C7CD3F811505C
:102820000023A34201DB002070BDC3EB03122A4446
:102830001688864202D1127A8A4201D10133F0E72A
:102840000120F1E70A5400202DE9F047044688B042
:10285000C0790E4617F09CFD90F80BA0077B8046D0
:102860005744D4F80950BD4280F090802B1D08EBEE
:102870004303AA4594BF02210121B3F805904846BD
:10288000FFF7C6FF002800F08A80DFF838A11C217E
:10289000304617F011FFDAF809300546D046002B14
:1028A00050D0217806A816F069FDA279DAF809A0BF
:1028B00022444B46527806A90220D047002841D135
:1028C0006FF04402D4F809309F4270D13D4F97F821
:1028D0004A30002B67D0B7F875204FF6FF739A4245
:1028E00061D00025217806A816F08AFD2B462A46DD
:1028F00001210095304601F0EBFCB7F875101CF093
:1029000070FA01464FF48273042201F8015BCDE9AD
:102910000232049597F844300193A379234406AA20
:102920005B7800933046022301F060FCA379E179E3
:1029300025480133A3711CF063FB0023E37108B049
:10294000BDE8F0871C22002128462BF02CFF2846EA
:102950001DF0DEFA98F844302B72A5F80A90B8F80A
:1029600075204FF6FF739A4212D1217805F10D00C0
:1029700016F004FD03232B73A379234430465B78C0
:102980006B75124B2672AB610CF0B4FB002299E719
:1029900001232B73B8F87530A5F80D30ECE701353D
:1029A000C4F809505DE7304617F092FCBEE7002AF4
:1029B000C5D00133C4F8093031462046FFF744FF43
:1029C000BDE700BF0A540020992B00006D2A0000CB
:1029D0002DE9F341CFB2054638460C4617F0D8FC36
:1029E000204EC1888046D6F8450000F07EFFB8F83A
:1029F00002300DF10701A8B11846FFF73DFE30BBCC
:102A00009DF807300D2101FB03642946207660768E
:102A1000A076E0762046A7750F30FFF715FF02B0CD
:102A2000BDE8F0811846FFF727FE804678B99DF88B
:102A300007000D2303FB00603946437D01334375D6
:102A400009481CF0DDFA002DE9D0444600E015B13C
:102A5000284617F03DFC002CE1D0E0B217F038FC1E
:102A6000DDE700BF0A540020992B00002DE9F04F4C
:102A70001C2185B08146304C17F01EFE94F843208F
:102A8000834600250D21954215D32C4B1B687BB93D
:102A90000AF052FF014658B904230093CDF8049080
:102AA0004FF4BA7340F25B324FF0FF301DF02AF85A
:102AB00005B0BDE8F08F01FB05F804EB0803D87DF5
:102AC00048450DD10026DE75484617F07BFE48B11B
:102AD0006FF07303A670E67026716370012609E03B
:102AE0000135D0E701236070A070E070207184F898
:102AF0004A3006460D2707FB054702A8F97B16F06A
:102B00003DFCD4F809A0BAF1000F07D07B7D1F442B
:102B100002A9BBF80A303A7C3046D0470D2303FBAC
:102B2000054508F10F00AB690133AB61494620440C
:102B3000FFF78AFEBCE700BF0A540020786300203C
:102B400070B50E4605460146304617F042FE8C2D04
:102B50000F4C03D1072384F8783002E0B5B984F82C
:102B600078502378052B06D1002394F878200C2187
:102B700030461DF017F800232370202384F88A3094
:102B800031460448BDE870401CF03ABA0623E2E73B
:102B90000A540020DDFF01002DE9F341054617F03E
:102BA000F7FB0DF105014088FFF766FD0746002899
:102BB0004AD19DF80530274C0D2202FB0346717D5A
:102BC000307D884222D93144284691F81080032173
:102BD00017F030FC0322394604462BF0E4FDF17B6C
:102BE0000DF1060016F00CFCBDF80630238084F8C9
:102BF00002801949284620F00FF9FF2803D1294601
:102C00008A20FFF79DFF02B0BDE8F081FF21022B73
:102C1000F1730BD803FB022000F10F01C3F1030392
:102C200002305A43214420442BF0A4FD94F8433051
:102C3000013BDBB284F8433033B9D4F801208C2A4D
:102C400008BF072384F87830002DDCD0284617F021
:102C50003FFBD8E70A540020F52600002DE9FF4786
:102C6000364D804617F094FB95F80090B9F1040FAB
:102C700007465AD10DF10D014088FFF7FDFC824651
:102C8000002858D19DF80D400D2606FB04560DF185
:102C90000E00F17B16F0B4FB3B793375042B86F8FC
:102CA00015A029D9264B1A689A4602BB0AF044FEA1
:102CB000014650B9337D40F25B32CDE900934FF0CD
:102CC000FF3040F2B3331CF01DFFDAF8003073B967
:102CD0000AF032FE014650B90423CDE9003340F238
:102CE0005B3240F2B5334FF0FF301CF00BFF0D2389
:102CF00003FB045304221A750D2303FB0453197DAF
:102D000004EB440304EB830400238B4206D34146C7
:102D10000C481CF075F904B0BDE8F087FA1850793A
:102D20001A192A4401331074EFE76FF00700414687
:102D3000FFF706FFEFE70020F9E700BF0A54002085
:102D400078630020992B00002DE9F047664D2B7821
:102D5000042B8CB0064640F0C380D5F801301C33FC
:102D600004D100236B70AB70EB702B711B213046CC
:102D700017F0A2FC1B22014605A82BF0F0FC03A9CA
:102D8000BDF8150016F0A0FE28B9584B93F8340E84
:102D900010F0200414D00621304617F08DFCBDF849
:102DA00015304380038000238380514930461FF053
:102DB00033FFFF2874D131468A20FFF7C1FE6FE050
:102DC000FF238DF80A302B78BDF815709DF81F9001
:102DD000042B1FFA87F810D10DF10A014046FFF7C6
:102DE0004BFC70B195F84330032B04D88DF80A30B2
:102DF000013385F84330204601E06FF007000124DD
:102E000000E004469DF80AA0BAF1FF0F4DD0002C57
:102E100049D000220DF10B031146404616F028FE62
:102E2000002842D10D2303FB0A539DF80B20DA73CF
:102E3000187558754FF00D0808FB0A5898F81430AB
:102E4000032B35D808EB0302013382F8109088F881
:102E50001430002C43D00521304617F0EBFA052240
:102E6000044600212BF09FFC002363700D2303FB1D
:102E70000A5567802B7D23711E4B1B6863B90AF0CE
:102E80005BFD014640B900904FF45F7340F25B3246
:102E90004FF0FF301CF036FE314617481CF0B0F8FA
:102EA0000CB0BDE8F0870028C4D0314600B284E7FA
:102EB000104B1B68002BCCD10AF03EFD01460028C8
:102EC000C7D198F8143001930423009340F25B3289
:102ED00040F271334FF0FF301CF014FEB9E730467A
:102EE00017F0F6F9DCE700BF0A540020FC5400207C
:102EF000992F000078630020992B0000F7B50E464B
:102F000002A9FF25044601F8025D3046FFF7B4FB35
:102F1000A0B31F4A92F84330032B04D88DF8063033
:102F2000013382F843309DF80650FF2D29D002ABC3
:102F3000002203F8012D1146304616F099FD074690
:102F4000F8B9134B0D2202FB05359DF80730EB73E2
:102F50000221204617F06EFA0546022239462BF070
:102F600022FC2E800B4920461FF06FFFFF2803D163
:102F700021468A20FFF7E4FD03B0F0BD8DF806502E
:102F8000D1E7002CF8D0204617F0A2F9F4E700BFF3
:102F90000A5400205D2C000037B5044617F0F8F9FC
:102FA0000546204617F00EFC024658B969890DF116
:102FB0000703A81C16F082FE69892046FFF79EFFD2
:102FC00003B030BD204617F083F9F9E70D4930B55D
:102FD000A1F5BC720225914201D800200EE08B1AA7
:102FE000DB1093FBF5F302EBC30452F8333083425A
:102FF00005DC02DA04F10802EDE7606830BD214625
:10300000E9E700BF4C05030008B5FFF7DFFF024BFF
:10301000002808BF184608BDBA0003002DE9F74391
:103020000A9F1E4680468946154601F06FF9D0F882
:10303000B030DBB101F06AF90097D0F8B040334608
:103040002A4649464046A04704464A464146284645
:1030500003F01FFA14F1450F03460BD148B13A466D
:103060002946304603B0BDE8F04318476FF04404EA
:10307000EBE70446204603B0BDE8F0832DE9F041BC
:10308000069F05461E4603F019FA044630B13A463B
:10309000314628462346BDE8F0411847BDE8F08197
:1030A000B0F80F30B3F5A06F01D102F0F5BC704756
:1030B0000020704770B51B2188B0054617F0FCFA58
:1030C0001B22014601A82BF04AFB01F01FF9D0F8A2
:1030D000AC604EB101F01AF9D0F8AC309DF8100098
:1030E00098476FF01E0017E001F010F9D0F89C30FF
:1030F000002BF6D03421284617F0DEFA1D2303708A
:103100009DF8103043704660044601F0FFF8D0F897
:103110009C3028469847606801F044F901A90246AE
:10312000284603F065FA08B070BD000010B5FF280E
:1031300088B0044607D101F0E9F80C4BC0F85832CA
:10314000012008B010BD1B2117F0B6FA1B22014662
:1031500001A82BF004FB9DF8173023B92146044841
:103160001BF04EFFECE70020EBE700BF1C00002047
:10317000B530000007B5054B00930023044A012138
:10318000184602F0EFFF03B05DF804FB2D3100009C
:10319000B1300000F8B50C46154607461E4600F053
:1031A0009BFA0122002100F0D0FB90B112230122F2
:1031B0000021384601F05AFE58B14368187840B9EA
:1031C0001EB1052C05D90B2C02D1032D01D00020F6
:1031D000F8BD0120FCE7000037B501460446002297
:1031E0000F4817F00CF80546B8B10E4B1B6873B9C1
:1031F0000AF0A2FB014650B90423009301954FF455
:103200009F6340F60F024FF0FF301CF07BFC20461E
:1032100003B0BDE8304017F05BB803B030BD00BF6D
:10322000553C00007863002013B5154AD2F84439A4
:103230001BB1D2F848392BB90123023302EB8303C7
:10324000C3F83C09D2F84039BBB9C2F840090D486F
:1032500016F0B0FF044680B10B4B1B686BB90AF047
:103260006BFB014648B90423009301947D2340F68B
:103270000F024FF0FF301CF045FC02B010BD00BF44
:10328000FC540020153D000078630020F8B5124B77
:10329000D3F8E8390446007803B198470F4F2278F5
:1032A0003A700025237C9D4202D3FF233B70F8BD7A
:1032B000D4F81130C5EB05163344D3F80B3003B105
:1032C0009847D4F81120B4F801102078324404F063
:1032D0002DFC0135E6E700BFFC5400202C00002047
:1032E0002DE9F04F454BD3F840398DB0002593F8C8
:1032F00000A00793AC465FFA8CF9CA457CD9079BBE
:10330000D3F8013053F805B05A199BF810300992E0
:103310000A93002201231AE0C3EB0311C2EB021847
:103320000B9100200999DDF82CE051F8201006914E
:10333000097C08911946089C8C4210D8013009EB91
:103340000001C9B28A45EDD801330132DBB20A98D7
:10335000D1B28842E0D80CF1010C0435CBE7DBF8A0
:103360001170069E07EB08040594D6F811602488B6
:1033700076443788A7423AD1059F367A3F7AB742DA
:1033800035D1042C12D0192C10D0202C0ED040F2A4
:103390000B76B4420AD040F20126B44206D0B4F50E
:1033A000006F03D04FF65746B44220D1144B1B6830
:1033B000CBB90AF0C1FAB0B9104BD3F84039D3F801
:1033C00001305B59D3F811309844014698F8083021
:1033D000CDE901430823009340F60F02D2234FF0BA
:1033E000FF301CF08FFB00200DB0BDE8F08F0131E5
:1033F000C9B20EF10F0E9EE70120F5E7FC54002044
:1034000078630020272807B5034620D041D81A2822
:1034100038D022D80D2800F0978011D80A2831D052
:1034200007D8082800F0898009287DD04FF0FF30A8
:1034300084E00B2800F086800C28F7D105207DE081
:1034400010287AD005D80E2821D00F28EED10820D8
:1034500074E0182871D01928E7E720286DD00AD821
:103460001D2871D003D81B286CD01C28E5E71E2826
:103470000DD01F28EAE7232864D005D8212853D08F
:103480002228D3D1032059E025285DD0D6D90720A2
:1034900054E03A28DBD019D82D2855D00AD82A284C
:1034A000F0D003D8282848D02928BEE72B2849D0B7
:1034B0002C28C2E7302840D003D82E28E7D02F2868
:1034C000C4E7382830D03DD83128AEE7E22826D8E6
:1034D000E02837D243280ED009D84128A6D30029A6
:1034E000A4D00878FF28A1D00130C0B226E0482837
:1034F00001D04A289AD102A80022482B20F8022D98
:103500004FF0020201D0432B20D12BF028F9BDF857
:1035100006004FF6FF73984288D002300EE0EA288A
:1035200010D003D8E82881D3022007E0F0288ED0FD
:10353000F1287FF47BAF102000E00120C0B203B07F
:103540005DF804FB0420F9E70620F7E72BF007F904
:10355000BDF806309B00ADF80630D8E7252973B5D5
:10356000044615463DD026D8182930D016D80A2949
:103570006BD006D808292AD009295FD0204602B08E
:1035800070BD0F297ED0102921D00B29F6D12046FD
:10359000042229462BF0E3F80434EFE7202916D063
:1035A00004D81A2951D049D31B29EFE722294CD03E
:1035B00044D32329EAE742291AD841294CD22B299E
:1035C000E5D008D8292939D03FD82829D6D12B7859
:1035D00004F8013BD2E73029F9D031292ED02D292A
:1035E000CCD12046062229462BF0B9F80634C5E78F
:1035F0004A2904D01CD8432901D04829BED102A8A9
:103600000023482920F8023D4FF0020201D043294F
:103610002FD129462BF0A3F8BDF806604FF6FF73B3
:103620009E42ABD00236B6B23246294620461CE056
:10363000F02927D0F1292CD0E229A7E72046022241
:1036400029462BF08CF8023498E7204603222946BD
:103650002BF085F8033491E7002A8FD01678FF2EDF
:103660008CD00136F6B2324629462BF078F8344435
:1036700084E729462BF073F8BDF806309B00ADF8BF
:103680000630C9E72046082229462BF068F808349E
:1036900074E7102229462BF062F810346EE7000020
:1036A0002038C0B20D289ABF014B185C002070472B
:1036B0004C0503002B2809D8282805D2202809D337
:1036C000232801D9252805D1012070472D28FBD0BA
:1036D000E228F8E70020704770B51449D1F8442972
:1036E0000AB315780024AC4208D2D2F8013053F85E
:1036F00024301E78864202D00134F4E70023D1F84A
:1037000048492CB125780022AA4203D319460B461A
:10371000184670BDD4F8011051F822100E78864278
:10372000F5D00132F0E71346F2E700BFFC54002069
:1037300070B51B2188B0044616F0BEFF1B2201465F
:1037400001A82BF00CF89DF810603046FFF7C4FF7D
:103750009DF81A30BDF813209DF817100546304625
:10376000FFF718FD20B9204616F0B2FD08B070BD75
:1037700005F0DCFC40B9D5F80330EBB9204602F087
:10378000C8FE024650B9F1E7BDF8130004F0B5FCDD
:1037900048B19DF812301B0705D47E2201A92046AE
:1037A00002F0AEFFE2E7BDF81310BDF8050004F02B
:1037B00055FC0028DFD1F0E7074BD3F8F03B33B9D5
:1037C000D5F80330204698470028D7D0CEE701A887
:1037D00098470028D2D1F3E7FC54002000F52D33A0
:1037E000F0B503F2A513104D03F00F0213462C465B
:1037F0009F1C05EBC70696F840C9BCF1000F07D126
:1038000004EBC70383F84009C3F83C190020F0BD5E
:10381000D6F83C69002EF3D0013303F00F039A422F
:10382000E6D16FF01500F2E7FC540020F8B500F582
:103830002D3303F2A513164903F00F0213460D466C
:103840009C1C01EBC40696F84079874218D116F00B
:10385000B9FF08B121F03CF805EBC406D6F83C09E5
:1038600058B139461BF0CCFB0020C6F83C0905EBEB
:10387000C404002384F84039F8BD6FF01B00F6E75C
:10388000013303F00F039A42DAD16FF01B00F3E724
:10389000FC54002037B50D46144619469DF81C30DF
:1038A000E8B14268DAB13BB1C3785A0617D49B0736
:1038B00002D4882003B030BD069A038800922046C7
:1038C0002A46FFF7ABFB411C0BD0821D0BD0831C9B
:1038D000EFD010F1280F14BF00207E20EAE78620E9
:1038E000E8E78720E6E70020E4E7034648B3D0F89E
:1038F000150028B3B3F80130994224D0B1F5827F86
:103900001FD06FF480728A18072A0DD94FF6FF7204
:10391000914211D1B3F5827F15D04CF25E00834203
:1039200014BF00200120704701204CF25E0291423A
:1039300004D1B3F5827FF3E70020F6E70028F8D141
:103940007047002070470120FAE770B598B1057CF8
:103950000024AC4202D30023184670BDD0F81130C9
:10396000C4EB041633441E888E4202D11E7A96425E
:10397000F2D00134EDE70346EEE700002DE9F04F09
:1039800087B083460D4616461F46109C01F06EFA1E
:103990008046002800F08780002C00F084809DF88D
:1039A00044302A46CDE9004359463346FFF772FFBB
:1039B0000390A0BB3B463246294658460094FFF789
:1039C0005DFB214698F80200D8F80490FFF71AFD35
:1039D0002146024648462AF0C2FE98F803305907AD
:1039E00005D53B4632462946584603F02DFF98F848
:1039F00003301A0713D54FF0000A2C4B5344D3F869
:103A00004499B9F1000F0AD04FF0000899F800303E
:103A1000984508D30AF1040ABAF1080FEDD10398CA
:103A200007B0BDE8F08F4FEA88030493D9F801305E
:103A300053F8280003785B4532D032462946FFF719
:103A400084FF0028E2D0394601F00CF902900028EA
:103A5000DCD0D9F80130049A9B5829461878009494
:103A600032463B46FFF70AFB029B5B680593029BCD
:103A700021469878FFF7C6FC059B0246214618466A
:103A80002AF06DFE029BDB785B0709D5D9F801307F
:103A9000049A985829463B463246007803F0D4FEF3
:103AA00008F10108B2E701230393B8E7FC540020B2
:103AB0002DE9F74F00250646894693460193009568
:103AC000264BEB18D3F8447917B3002E43D03A783D
:103AD00000239A4203F1010403D84FEA840A06B393
:103AE00013E0D7F8011051F823301978B14223467A
:103AF000EFD10026F1E7012080B101994046FFF7A0
:103B0000F4FE58B198F8003000930435082DD7D151
:103B1000009803B0BDE8F08F5A4614E001340AF172
:103B2000040A3B78A342F0D9D7F80130BBF1030F68
:103B300053F80A80F0D1012249464046FFF705FFBD
:103B40000028D8D1022249464046FFF7FEFE003049
:103B500018BF0120D0E73446BFE700BFFC54002067
:103B600037B51B21054616F0A7FD037BFF2B044646
:103B700030D1037DB0F80F10002B08BF0122B0F840
:103B8000113018BF02220020FFF792FF28B9284603
:103B900003B0BDE8304016F09BBB207300222946DD
:103BA000104816F02CFB0446D0B10F4B1B68002BBD
:103BB000EDD109F0C1FE01460028E8D104230093AD
:103BC000019440F2525340F60F024FF0FF301BF0C9
:103BD00099FFDCE7284603B0BDE83040FFF7A8BDF9
:103BE00003B030BD553C00007863002030B589B08B
:103BF00004461B22002101A82AF0D5FD01A9204678
:103C000002F038FA01A905460246204610F06CF988
:103C1000B8B9204616F0BCFB037813F0040F14BFAC
:103C200005210321204616F07DFC1B21204616F0BD
:103C300043FD1B2201A92AF092FD25B92046FFF77A
:103C40008FFF09B030BD2A4601A9204602F058FD79
:103C5000F7E700002DE9F041CDB207461B212846C9
:103C600016F02AFD04462946384616F0B2FB94F8B1
:103C70000C80124E1BF08EF83946B0FBF6F6104859
:103C800032461BF0E3FA237DB4F80F10002B0CBF73
:103C900001220222B4F811304046FFF709FF20B993
:103CA0002846BDE8F04116F013BB20733246294682
:103CB0000448BDE8F0411BF0C9BA00BF7CF0C10761
:103CC00031370000D93100002DE9F84F002481463A
:103CD0008A4627460E4BE318D3F844699EB196F8FE
:103CE00000B00025AB450BD9D6F8012052F825804D
:103CF000494652464046FFF728FE38B198F8007012
:103D00000434082CE6D13846BDE8F88F0135E9E7E0
:103D1000FC54002013B50446B8B9144816F04AFA0A
:103D2000044680B1124B1B686BB909F005FE0146D1
:103D300048B9042300930194402340F60F024FF04A
:103D4000FF301BF0DFFE02B010BD01212020FFF785
:103D5000BBFF0146204621B102B0BDE8104003F090
:103D6000E3B902B0BDE8104016F0B2BA153D00004C
:103D700078630020F0B50E4E054600234FF6FF7025
:103D80009A19D2F8441981B10F780022974209D9C3
:103D9000D1F8014054F8224094F800C0AC4505D158
:103DA000B4F801000433082BEAD1F0BD0132EDE78D
:103DB000FC54002038B504460D46FFF7DBFF44B144
:103DC000B0F5827F05D14FF657402B1A5842584123
:103DD00038BD0020FCE700002DE9F84F00248246A2
:103DE00088462746104BE318D3F844693EB196F84D
:103DF00000B000255D4505D30434082CF2D13846C7
:103E0000BDE8F88FD6F8012052F825905146424679
:103E10004846FFF79AFD10B1027A424501D00135BC
:103E2000E8E74F46E8E700BFFC54002038B51B2107
:103E300016F042FC0446007BFFF74EFC257DB4F8EB
:103E40000F10002D14BF02220122FFF77EFD124B3E
:103E50001B7A012B15D0227EA37D6AB1002B0CBFEB
:103E600083238423A8B1012D0DD1027A12F0020F11
:103E700018BF0023184638BD002B0CBF81238223B6
:103E8000F0E78123EEE7002DF4D1027A12F0010F62
:103E9000EEE7C323EEE700BFF82B002007B501468D
:103EA00002220DF106002AF05AFCBDF9060003B00B
:103EB0005DF804FB07B5042201460DEB02002AF071
:103EC0004EFC019803B05DF804FBF7B50191102199
:103ED00016461F46054616F0EFFB0446284612F02C
:103EE00085F99523032E23609DF8203008BF0199A2
:103EF000A37316BF01A90822022227716671A01DB3
:103F00002AF02DFC294609981BF07AF803B0F0BD81
:103F1000A1F5E0630B2B04D9A1F500635842584189
:103F200070470120704700002DE9F04F8DB08B469F
:103F300008931821BDF8583007939246064616F0AC
:103F4000BBFB0446304616F023FA237B0693637BC3
:103F500005930378B4F80A808178E77B13F0030FA8
:103F600081460CBF0123002342460598FFF712F952
:103F70000546B0B9BAF1000F0DD0059B0093CDF8FE
:103F800004A0069B3A4621463046FFF79EFF28468E
:103F90000DB0BDE8F08F304616F09AF96FF00705C6
:103FA000F5E741462089FFF7B3FF0546BBF1000F57
:103FB00017D05946304616F092FA0990304616F05E
:103FC000F1F9099B83420CD95946304616F087FA1D
:103FD0008346304616F0E6F9ABEB0001304616F0AA
:103FE0007BFB012F11D0E37B022B04D122884FF6FB
:103FF000F7739A4209D8404604F064F828B1089B48
:104000001BB9237C43F0040323741DB1237C43F0CC
:10401000080323740AF086FF0546002862D105F0E4
:1040200085F800285ED0404604F067F8002859D093
:10403000082229460AA82AF0B6FB022F3BD0032FFC
:1040400043D0002F0CBF00256FF0270505F06EF858
:10405000002840D0002F3ED04DB90AA80AF08CFFAE
:1040600028B102210AA821F029F8002836D15D4B99
:104070001B6873B909F060FC014650B90423009332
:1040800040F60F03CDF804801A464FF0FF301BF0C6
:1040900039FD6FF02705BAF1000F3FF478AF059BAB
:1040A0000093CDF804A0069B3A4621463046FFF720
:1040B0000CFF00256BE70AA9208815F005FD0028F4
:1040C00014BF6FF027050025C0E7082221460AA883
:1040D0002AF045FBBAE7002DC9D1C2E7237C43F0A3
:1040E0000103237441460598FFF764FE68B1082276
:1040F00000210AA82AF057FB022F1ED0032F52D00E
:104100003FBB237C43F00103237451463046FFF745
:1041100065FB05460028BED1304616F039F9037814
:10412000DB0602D4012020F085FB079B002B53D136
:1041300031462D481AF064FF29E70AA9208815F0B6
:10414000C3FC054630B902210AA820F0B7FF0028B9
:10415000D7D10025234BD3F800B099F802300B2BB0
:1041600027D199F800305A0723D199F80430012B50
:104170001FD1BBF1000F12D109F0DEFB014670B96F
:10418000CDF8088099F8033001930823009340F696
:104190000F0240F657034FF0FF301BF0B3FC002D29
:1041A0007FF479AFB1E7082221460AA82AF0D7FAAE
:1041B000C9E7BBF1000F7FF46CAF09F0BDFB00282D
:1041C0007FF467AF04230093CDF8048040F65E03CC
:1041D00040F60F02594658E7079A034831461BF04C
:1041E00035F8D4E678630020850901002DE9F74F02
:1041F0001D469DF8303001930F46109B0093182107
:10420000934606469DF834A0BDF83890BDF83C8032
:1042100016F052FA1822044600212AF0C4FA032D9F
:104220000CBF082202225946E57320462AF097FA6D
:10423000019B009A237339460023304684F80DA071
:10424000A4F80890A4F80A800C9303B0BDE8F04FDE
:10425000FFF76ABE2DE9F04F87B01D469DF840304C
:104260000593CDE90101149B0493182103929DF855
:1042700044B0BDF848A0BDF84C909DF854809DF81E
:104280005860BDF85C7016F017FA18220446002139
:104290002AF089FA032D0CBF082202220399E57344
:1042A00020462AF05CFADDE90101059B049A23739C
:1042B000334684F80DB0A4F808A0A4F80A9084F856
:1042C0001080109707B0BDE8F04FFFF72DBE00003B
:1042D0002DE9F041069D0E4690461F4616F0E4F883
:1042E000094B00F8016B93F83C49621C83F83C29A8
:1042F000730702D541461AF074FD0470477002300E
:1043000005B12C70BDE8F081FC54002000487047D6
:10431000385E002000487047F82B002002289DBF1F
:10432000024B187000206FF005007047F82B00203A
:10433000014B187A704700BFF82B002001289DBF61
:10434000024B187200206FF005007047F82B002018
:10435000134B1B781BB391280ED890281AD28A28A9
:104360001CD005D8A0F18103032B98BF8120704792
:104370008F2808BF7E207047C12806D8C02809D2E0
:10438000922809D0932805D07047C22804D0C428A9
:1043900004D07047012070477F207047002070478D
:1043A000F82B002010F1170F12D009DC10F11F0FAD
:1043B00010D0094B1B7A012B0CBF0120C02004E058
:1043C00010F10A0F02D00028F3D170478520704702
:1043D0008720704781207047F82B00202DE9F04797
:1043E00088B08146ADF81E1016F05EF80823037001
:1043F0000446FFF78BFF0378DFF8B0A05A1C027069
:1044000063700A23A370284B1F7803349846052F46
:1044100036D801223AF817301146C42000F026FDA4
:10442000064618B301214CF25D20FFF771FD2146CD
:10443000F0B1484616F053F8C0F5CA60013085B2B5
:104440007168B078FEF7DEFF0330854216D33188FD
:1044500020461AF0C6FCB37800F8013B7268B178C8
:10446000FFF77CF80023044688F800300137CEE7D8
:10447000484616F034F8C0F15200E0E788F80070C2
:1044800001230022CDE903324CF25D21C423CDE9A2
:10449000013100930DF11E02022321464846FFF729
:1044A000A5FE08B0BDE8F087052C00205A050300E2
:1044B000064B1B7802462BB1032B03D04FF6FC7141
:1044C000FFF78CBF104615F003BF00BF062C00207D
:1044D00038B5054620B92148BDE8384015F06ABE18
:1044E0001F4C227892B3032A30D0012208231146B0
:1044F000C42000F0BBFC436819884FF6FF73994253
:10450000284620D1FFF7D4FF0022114613481BF0A4
:1045100065F82378022B20D101231A461946C420BE
:1045200000F0A4FCB0B1436818880F3880B21AF0CC
:104530001BFC0F3080B24222424300210748BDE8F5
:1045400038401AF083BEFFF749FFDDE7284615F033
:10455000BFFED9E74FF49670E7E738BDD1440000BD
:10456000062C0020F7B50E460446214D40B92A78A6
:1045700022B901231F482B7015F041FE03B0F0BD96
:10458000FFF7C4FED0F89C305BB302AF3421204665
:1045900007F8046D16F090F8342200212AF003F990
:1045A0003421204616F088F8652303703421204614
:1045B00016F082F8002646603421204616F07CF87A
:1045C00034218660204616F077F83421C7602046F3
:1045D00016F072F80661FFF799FED0F89C3020467D
:1045E0009847002320462B7015F072FEC6E700BFE7
:1045F000072C00206545000010B510B90F4B18704E
:1046000010BD0128FCD10E4B19780129F8D10B4CB3
:104610002278012A09D80B4815F0CCFD0A4815F07C
:10462000C9FD237801332370EAE7032200201A70C2
:104630002070BDE81040FFF795BF00BF042C00209C
:10464000062C002091460000B1440000002208B56D
:1046500011460D481AF0C2FF0C4B1B78022B12D1E9
:1046600001221146C42000F001FC48B143681B88B8
:10467000054842225A430021BDE808401AF0E6BD31
:104680004FF49673F4E708BD91460000062C002015
:10469000F0B5044689B020B9204815F08BFD09B06B
:1046A000F0BD1F4B1B78ABB3032B33D012F0A2FC31
:1046B00008AE002726F8020D204615F0F5FE07701B
:1046C0000546FFF723FE03785A1C027008216B7021
:1046D000AF70E81C1AF085FB09211AF082FB0A2151
:1046E0001AF07FFB01254CF25D23CDE90235C4238E
:1046F0000146CDE900333246049702232046FFF7F6
:1047000075FD40F2BC72294606481AF09FFDFFF77E
:104710009DFFC4E7204615F0DBFDF8E79146000059
:10472000062C0020F94500002DE9F3410022054642
:10473000FF2134481AF052FF1BF03AFC20B1324EF0
:1047400033780BB1032B05D1284602B0BDE8F04108
:1047500015F0BEBD4FF00008284615F023FE0228D4
:104760003CD9284615F014FE0446002836D080783F
:10477000FFF7EEFDA07010BB211DE078FEF742FEB2
:104780000430C7B2284615F00DFE284615F00AFE83
:10479000874223D83946284615F0C4FEA278002A5D
:1047A000DAD12388082B0CD1019204340122009421
:1047B0001146C420FFF7E2F84FF00108CCE70327C9
:1047C000E3E7092BF0D00A2BC6D101920434012271
:1047D00000941146C420FFF7D1F8BDE7B8F1000FEF
:1047E000B2D00A4B002119703378012BACD10223CF
:1047F00040F2DE32064833701AF028FDFFF726FF3C
:10480000A2E700BFF9450000062C0020042C002080
:10481000D144000038B5054615F0BAFD90F84B308C
:10482000044653B901462322104829F098FF282254
:1048300004F123010E4829F092FF0C4CD4F84B00F0
:1048400070B194F84F101AF0DBFB002384F84F305E
:1048500084F84B3084F84C3084F84D3084F84E3076
:104860002846BDE8384015F033BD00BFA4530020F2
:10487000C753002070B5094CD4F84B3005460E469E
:104880004BB98F2106481DF0BBFE18B9C4F84B6028
:1048900084F84F5070BD6FF00300FBE7A453002075
:1048A000154800002DE9F04F1B218BB0834615F011
:1048B00003FF044690F81390584615F069FDB9F1CE
:1048C000150F827814BF1B2314239A4288BF83706C
:1048D0008246FFF71BFD407815F0E6FD237E002B96
:1048E000237D0CBF00220422002B14BF00230823C9
:1048F00042F010020546134305F8013B237E2BB11D
:104900002846B4F819101AF06CFA0546637D2B702E
:10491000B9F1150F14BF0D2316236B70207BFEF722
:10492000DBFE237DB4F80F10002B14BF02220122FE
:10493000FFF70BF800274368AF7041880246EE1C72
:1049400000296CD10AA94FF6FD73304621F8023DCB
:10495000022229F004FF2123B9F1150F6B714FF0EA
:10496000010312BFAE1DAB71EE1DAB70FFF7CEFCA5
:10497000002340780493B4F80F300393B4F8113057
:104980000293237B0193E37A0093621C0223314656
:10499000FFF72CFCFFF7BAFC80F801B00BB0BDE8C4
:1049A000F08F1888BAF800C081B28C4535D8000461
:1049B00033D4B9F1150F19D194F818C001F480401F
:1049C000BCF1000F10D088B901375188F8B2013915
:1049D000814203D99AF802C0C445E2D881428CBF13
:1049E00000210121A970C1E70028EDD13046CDE9B1
:1049F00006321AF0F6F9069B079A99780170B9F118
:104A0000150F08BFD97808F1010809BF01F00301AB
:104A1000461C4170861C5FFA88F80833D4E7B84614
:104A2000D3E72DE9F04780460E46914615F0A6FBE8
:104A30000546002851D04A4631884046FEF730FBF3
:104A4000FFF764FCD0F89C30002B41D0342128467D
:104A500015F032FE71680446B078FEF7D3FCB378E7
:104A6000482B074603D027D8413B022B28D839468C
:104A7000284615F0DFFC34218246284615F01CFE3E
:104A800004463A464946504629F069FE2773C4F861
:104A900010A00023237098F80C306370B378A370D3
:104AA000B8F80F30238133886381FFF72FFCD0F8EB
:104AB0009C30284698470BE04A2BD8D0F12BD6D013
:104AC0003A46494604F10C0029F049FE002CE0D199
:104AD0002846BDE8F04715F0FBBBBDE8F0870000B5
:104AE00010B507490446FFF7C5FE043006D121463C
:104AF00000220448BDE810401AF0A8BB10BD00BF5A
:104B0000874C0000E14A000070B50C46272C054692
:104B100011461E4623D050D81A2C3FD029D80D2C30
:104B200000F09A8014D80A2C38D006D8082C00F04F
:104B30008980092C76D0284670BD0B2C00F0868029
:104B40000C2CF8D12846052229F009FE0535F2E79C
:104B5000102C77D009D80E2C29D00F2CEBD1284659
:104B6000082229F0FCFD0835E5E7182C6AD0192C3D
:104B7000E0E7202C66D00AD81D2C6DD003D81B2C62
:104B800064D01C2CDDE71E2C11D01F2CE6E7232C53
:104B90005CD009D8212C45D0222CCCD12846032228
:104BA00029F0DDFD0335C6E7252C55D0CAD92846A6
:104BB000072229F0D4FD0735BDE7392C46D018D897
:104BC0002D2C49D00AD82A2CE8D003D8282C39D04B
:104BD000292CAFE72B2C39D02C2CB2E7302C31D03C
:104BE00003D82E2CE3D02F2CB8E7312C1AD0382C38
:104BF000A0E7E22C11D8E02C28D2432C03D8412C7A
:104C000005D23A2CAAE7482C01D04A2C93D1284649
:104C1000324629F0A4FD35448DE7EA2C16D007D89A
:104C2000E82C88D32846022229F099FD023582E734
:104C3000F02C94D0F12C7FF47EAF102229F08FFD60
:104C4000103578E70B7805F8013B74E72846042215
:104C500029F085FD04356EE72846062229F07FFD00
:104C6000063568E710B5436800220BB9184610BD39
:104C70001C888C42FAD044880132944203F1080324
:104C8000F3D80023F2E72DE9F04F1B218FB0074640
:104C900015F012FD437B0546C3F34013007B0893D8
:104CA000FEF71AFD2B7DB5F80F10002B0CBF01226B
:104CB0000222FEF74AFE0990FFF728FB407815F024
:104CC000F3FB2B7E002B2B7D14BF04220022002B34
:104CD0000CBF0823002342F01002134300F8013BED
:104CE0002B7E1BB1B5F819101AF07BF86B7D0370A1
:104CF00001234370841C384615F04AFB824638462F
:104D000015F050FB43080A934FF000080A9B5FFA26
:104D100088F1994252D202220AEB41010DF136008C
:104D200029F01DFDBDF836100998FFF79BFFB5F877
:104D30000F100646B5F81100FFF7EAF808B3FFF7C1
:104D4000E5FA2146407815F0CAFBC0F5CA6909F1B9
:104D50000109FEB9BDF836104FF6FD73994262D1D4
:104D60000DF136010222204629F0F9FC2123A6701C
:104D7000E3700121201D1AF034F8044608F10108FF
:104D8000C4E7FFF7C3FA2146407815F0A8FBC0F14D
:104D90005209DEE77168002945D0F37813F0400B23
:104DA00041D1DA0728D49B073FD5FFF7C1FA012884
:104DB0000CBF7E268F26B9F1020F3AD8FFF7A6FA6C
:104DC000089A40780023CDE90432CDE90633B5F8DE
:104DD0000F300393B5F8113002932B7B0193EB7ADC
:104DE00000936A1C02232146FFF734FAFFF78EFA7C
:104DF00047700FB0BDE8F08FB078FEF703FB011DE0
:104E0000894514D30B903188204619F0EAFF80F8C9
:104E100000B0B2780B9B42709BB27268B1780230DE
:104E2000FFF772FEA9E78626C5E70126C3E78926B4
:104E3000C1E72046BDF8361019F0D3FF044604F848
:104E4000016B9BE710B51B21044615F035FCB0F84B
:104E50000F2040F605339A42204603D1BDE81040AA
:104E6000FFF73EBEBDE81040FFF70DBF70B50D4621
:104E700016461C46FEF730FC29463246FEF765FD15
:104E80002146BDE87040FFF7EDBE2DE9F04F1B2134
:104E90008FB0814615F010FC0446007BFEF71CFC29
:104EA000237DB4F80F10002B0CBF01220222FEF765
:104EB0004CFDE37C0D90052B77D0FFF727FA407867
:104EC00015F0F2FA237E002B237D14BF042200226A
:104ED000002B0CBF0823002342F01002134300F8FC
:104EE000013B237E1BB1B4F8191019F07AFF637DE2
:104EF000037004234370851C484615F049FA0746A1
:104F0000484615F04FFA00230B9301230A900993AA
:104F10009DF82C300C930A9B032B54D9002F56D0AC
:104F2000F91CB878FEF76EFA03305FFA80FB3E4654
:104F30000A9B9B4500F2F780002E00F0F480B6F843
:104F400000A00D985146FFF78DFE8046002840D105
:104F50004FF6FD739A4514BF4FF0860A4FF0880A4A
:104F6000E37C052B1ED015B3B4F80F10B4F8110074
:104F7000FEF7CEFF002868D0FFF7C8F92946407831
:104F800015F0ADFAC0F5CA600130022894BF0020C8
:104F90000120B0B12846022200F801AB314629F0C9
:104FA000DEFB03350023099302E00025A4E7099501
:104FB0000A9BA3EB0B030A930B9B01335F440B93F8
:104FC000A6E70990F4E700264FF0FF0BB0E73E4656
:104FD000FAE74368002B32D08278B3789A4231D115
:104FE000237DB4F80F20217B002B06F103030C93E3
:104FF0004FF00103019306F1030300930CBF01235B
:105000000223FEF747FC82460028A9D1E37C032B4C
:10501000CED0237DB4F80F10207B0022002BB8F8EF
:10502000003001920C9A00920CBF01220222FEF77E
:10503000A5FC0C9A41462046FFF7F3FCB8E74FF079
:10504000860A8DE74FF08D0A8AE7FFF75FF9294658
:10505000407815F044FAC0F1520096E700264FF070
:10506000FF0B7BE03E46FAE7E37C052B55D0099B1E
:105070002BB115B30C9B03B3002305F8013BB9F129
:10508000000F43D0FFF742F900234078CDE9063303
:10509000627BC2F34012CDE90432B4F80F300393BF
:1050A000B4F811300293237B0193E37A0093621CDE
:1050B00002232946FFF7CEF828E0FFF727F94078CA
:1050C00015F0F2F9237D002B0CBF18231023037079
:1050D000637D43700B238370E37CC3708023037173
:1050E0000546FFF713F9002640780496B4F80F3010
:1050F0000393B4F811300293237B0193E37A009376
:10510000621C0223691DFFF771F8B146FFF7FEF834
:1051100080F801900FB0BDE8F08F48460FB0BDE8B1
:10512000F04F15F0D5B8E37C032B9DD1099B002BE4
:105130009AD0484615F02CF90746484615F032F942
:105140008046B8F1030F89D9002F8BD0F91CB878AD
:10515000FEF758F903305FFA80FB3E46C34583D81B
:10516000002E81D036F8031B0D98FFF77BFD227DC2
:10517000B4F80F108246002A4FF00002207BBAF8E4
:105180000030CDE900620CBF01220222FEF7F6FBDF
:105190003246514620465F44A8EB0B08FFF741FC1E
:1051A000CFE700002DE9F04F1B2189B0804615F0B4
:1051B00083FA0546FFF7AAF8407815F075F92B7EBB
:1051C000002B14BF1C23182300F8013B2B7E1BB1BE
:1051D000B5F8191019F005FE6B7D037009234370B3
:1051E000841C287BFEF778FA2B7D0690002B0CBFE1
:1051F00001220222B5F80F10FEF7A7FB83464046B6
:1052000015F0D0F8022840F2C080404615F0C0F8F2
:10521000002800F0BA8090F800A0B0F801900321B7
:10522000404615F07FF9B5F80F10B5F81100FEF7FC
:105230006FFE00283CD0FFF769F82146407815F052
:105240004EF9C0F5CA60013086B2032E40F29D804F
:1052500049465846FFF706FD0746002800F08A80B9
:105260004368002B00F08680C3785B0740F189809B
:1052700006989BF80820BBF8001000784B4602F017
:10528000D3F9079000287ED0092E7ED90022227003
:1052900084F801A0A01C494619F0A3FD079B044611
:1052A000BAF1000F0DD0BAF1010FA8D1198A3DE073
:1052B000FFF72CF82146407815F011F9C0F15200A3
:1052C000C2E7BA7800F8012B5A8A198A079319F0B5
:1052D00094FD0446B878FEF7EDF900288FD0BA782F
:1052E000079B203A0B2A8AD801A151F822F000BF6F
:1052F000215300002953000045530000555300007E
:10530000FF51000065530000FF510000FF510000F5
:105310002153000035530000455300005553000051
:105320001B7D04F8013B6AE7998A204619F059FD74
:10533000044664E72046022203F1140129F00FFA23
:1053400002345CE72046032203F1140129F007FA36
:10535000033454E72046042203F1140129F0FFF935
:1053600004344CE72046062203F1140129F0F7F932
:10537000063444E78623237084F801A04946A01C24
:10538000D4E78C23F7E78B23F5E7FEF7BFFF002375
:1053900040780493B5F80F300393B5F811300293B9
:1053A0002B7B0193EB7A00936A1C02232146FEF7C4
:1053B0001DFFFEF7ABFF80F8018009B0BDE8F08F5C
:1053C0002DE9F04F1B218DB0804615F075F904468C
:1053D000007BFEF781F9237DB4F80F10002B0CBF82
:1053E00001220222FEF7B1FA0690FEF78FFF407805
:1053F00015F05AF8237E002B14BF1C23182300F845
:10540000013B237E1BB1B4F8191019F0EAFC637D4F
:10541000037000270723DFF8E4B14370851CB94609
:10542000404614F0BFFF042844D800264FF0FF0A7E
:10543000404614F0B7FF824500F2B980514640461D
:1054400015F070F8002E00F0B280B6F80130069822
:1054500007931946FFF706FC327809F10109002A83
:105460005AD1079B002842D14FF6FD77BB4214BFAB
:1054700086278C27B4F80F10B4F81100FEF748FD0A
:10548000002800F08B80FEF741FF2946407815F098
:1054900026F8C0F5CA60013080B2032808D92F7001
:1054A00033786B70A81CB6F8011019F09AFC054609
:1054B0000127B5E7404614F06BFF06460028B4D03C
:1054C0000378012B0DD0C078FEF7F4F860B1F078C6
:1054D000FEF7E6F808305FFA80FA404614F062FF03
:1054E000A6E74FF0050AA3E74FF0080AA0E74368D4
:1054F000002B4BD08378412B48D003F0FD02482A83
:1055000044D0C278520743D5F2789A4242D1F38808
:1055100013B1B2889A423FD8237B8DF82430227C85
:10552000E37B43EA0223ADF82A30E37A8DF8253095
:10553000B4F80130ADF82630637CA27C43EA022344
:10554000ADF82830237D002B0CBF0123022309A9CD
:1055500030468DF82C3002F031FB00283FF460AF6C
:10556000DBF8002082B9079008F0E6F9079B0146B6
:1055700050B901930423009340F6120240F2D44341
:105580004FF0FF301AF0BEFA012773E7862771E764
:105590008C276FE78D276DE787276BE7FEF7B6FE51
:1055A0002946407814F09BFFC0F1520074E7B9F12E
:1055B000000F1DD1802305F8013BFEF7A7FE002355
:1055C00040780493B4F80F300393B4F81130029389
:1055D000237B0193E37A0093621C02232946FEF7A2
:1055E00005FEFEF793FE80F801800DB0BDE8F08F58
:1055F000002FE2D105F8017BDFE700BF78630020D0
:105600002DE9F04F8A46C3880279418889B0054662
:105610004078FFF72BFC90F80390504614F044FFBD
:1056200009F02006C9F340194FEA890343F0080343
:1056300004460370002E69D06878FEF74DF82A7989
:105640006988FEF782F9B0F80910601C19F0C9FBEF
:105650000446FEF75BFE03785A1C027023700A238F
:10566000637002342E4640F2516BF38832797188B0
:105670007078FFF7FBFB71880746B08DFEF748FC9A
:10568000214600284CD0504614F029FFABEB000017
:105690001FFA80F87968B878FDF7B4FEC21C90450F
:1056A00007901ED33988204619F09BFBBA7800F882
:1056B000012B079B7A68B9789BB2FFF725FA394628
:1056C0000446304602F087F8337A23F0160343F09D
:1056D000200333724946284601F0F9FF06460028A8
:1056E000C3D1124B04936B880393AB8D02936B78F9
:1056F000019395F82A30009305F1280200232146F2
:105700005046FEF773FD09B0BDE8F08FFEF7FEFDD1
:1057100003785A1C027063700A23A3700334A1E754
:10572000504614F0DCFEC0F15200B1E7F97C0000F5
:105730002DE9F0438FB000230F461B21069304464A
:1057400014F0BAFF1B22014607A829F008F82046EA
:1057500014F028FE022807D0852207A9204600F071
:1057600000FF0FB0BDE8F083204614F011FE9DF855
:10577000343006784578002B60D0FEF7C7FDD0F8AE
:10578000F030002B46D14FF00008512D204628BFA5
:10579000512514F089FE9DF83430002B9DF83030EF
:1057A00014BF04220022002B0CBF0823002342F068
:1057B0001002134300F8013B9DF834301BB1BDF8D3
:1057C000351019F00EFB9DF831300370002F14BF17
:1057D00012231423437000238370C11C1A46DFB2C6
:1057E000B84500F288800123837000230493BDF83C
:1057F0002B300393BDF82D3002939DF82830019390
:105800009DF8273000930DF11D0202232046FEF77C
:10581000EDFCA6E7FEF77AFD0DF1180ECDE9007E4E
:105820009DF830C0D0F8F080BDF83530BDF82B20A1
:105830009DF828106046C0478046A6E79DF82800DE
:105840009DF83080BDF82B90FDF746FF00289AD0D8
:10585000B8F1000F0CBF012202224946FEF775F88D
:10586000002890D0B8F1000F2CD1037A03F0010387
:10587000002B88D09DF83030BDF82B109DF8280003
:10588000002B0CBF0122022200F0EEFD034600288F
:105890003FF479AFFF20984700283FF474AFCFB1B1
:1058A000FEF734FDD0F8583293F80080FEF72EFD55
:1058B000D0F858325B680693FEF728FD0023C0F845
:1058C000583262E7B8F1010F7FF45DAF037AC3F39A
:1058D0004003CDE7FEF71AFDD0F8583293F8088060
:1058E000FEF714FDD0F85832DB680693FEF70EFD84
:1058F000C0F8587249E7069FFF5CBE4206D80132E5
:10590000D2B2954201F8017B7FF66FAF013366E7B3
:1059100037B51B21054614F0CFFEC37C0446162B79
:1059200064D8DFE803F00C123A3A293A4229466675
:105930003E4E4A666363635C6661664A660028465B
:10594000FFF780FA012003B030BD324BD3F8F43BAF
:10595000B3B9B4F80F300A2B04D1284603F020FB6A
:105960000028EFD11B21284614F0A6FEB0F8112024
:105970004CF25D239A4208D0284614F0A9FCE1E7D6
:10598000284698470028E4D0DCE7B0F80F40012C07
:10599000F2D12846FEF7C8FED4E72846FFF775FA8D
:1059A000D0E7284602F0FAF9CCE72846FFF708FDD1
:1059B000C8E72846FFF7F6FBC4E72846FEF772FF64
:1059C000C0E71B21284614F077FEB0F80F30192BE2
:1059D000D2D1284600F087FD0028B3D1CCE70121C1
:1059E0002846FFF7A5FEADE70021F9E70A4B1B6843
:1059F0000BB10020A7E707F09FFF0028F9D1009026
:105A000001464FF4E46340F612024FF0FF301AF003
:105A100079F8EEE7FC5400207863002010B50446C6
:105A200014F0D0FE2046BDE8104014F051BC000038
:105A300038B50621044614F03FFE037923B1204611
:105A4000BDE8384014F044BC1821204614F034FE60
:105A50000546204614F09CFC18220146284628F0F2
:105A60007EFE20460249BDE838401BF079BD00BFEC
:105A70001D5A000010B5102301224FF4A061044606
:105A8000FFF7F4F9012243684FF4A0612046BDE816
:105A9000104009F02FBF000010292DE9F7430446FC
:105AA0000D46164640F0858014F064FB2B4601221B
:105AB0000746B4F80F10207BFFF7D8F9182180466D
:105AC000384614F0B7FC05461822002105F10D09EF
:105AD00028F069FE4946B4F8010013F0F5FF10F113
