:020000022000DC
:1070000000000220B5720200DD720200DF72020091
:10701000E1720200E3720200E5720200000000006B
:10702000000000000000000000000000E772020005
:10703000E972020000000000EB720200ED72020033
:10704000813B0300EF72020071430300EF72020004
:10705000EF720200EF72020081400300EF72020043
:10706000EF720200EF720200B9460300EF720200F5
:10707000EF7202008D440300EF720200EF72020013
:10708000EF720200798E0200EF720200EF720200CE
:10709000EF720200EF720200B1520300E9960500A0
:1070A000EF720200EF720200EF720200EF72020054
:1070B000EF720200EF72020000000000000000000A
:1070C000EF720200EF720200EF720200EF72020034
:1070D00035860500EF720200EF720200EF720200C7
:1070E000EF7202000000000000000000000000003D
:1070F00000000000EF72020000000000EF720200CA
:10710000000000000000000000000000000000007F
:10711000000000000000000000000000000000006F
:10712000000000000000000000000000000000005F
:10713000000000000000000000000000000000004F
:10714000000000000000000000000000000000003F
:10715000000000000000000000000000000000002F
:10716000000000000000000000000000000000001F
:10717000000000000000000000000000000000000F
:1071800000000000000000000000000000000000FF
:1071900000000000000000000000000000000000EF
:1071A00000000000000000000000000000000000DF
:1071B00000000000000000000000000000000000CF
:1071C00000000000000000000000000000000000BF
:1071D00000000000000000000000000000000000AF
:1071E000000000000000000000000000000000009F
:1071F000000000000000000000000000000000008F
:1072000010B5054C237833B9044B13B10448AFF3E0
:1072100000800123237010BD4031002000000000D9
:10722000A0E2050008B5034B1BB103490348AFF3C7
:10723000008008BD0000000044310020A0E20500ED
:10724000154B002B08BF134B9D46A3F5803A002138
:107250008B460F461348144A121A32F00AFC0F4BA1
:10726000002B00D098470E4B002B00D098470020F1
:10727000002104000D000D48002802D00C48AFF397
:10728000008032F07BFB200029000EF0A7FC32F0DA
:107290004FFB00BF000008000000022000000000BB
:1072A0000000000040310020A47D0020000000000C
:1072B000000000000649074A074B9B1A03DD043B08
:1072C000C858D050FBDC0FF0CBFEFFF7B9FF000031
:1072D0006CE40500E82A002040310020FEE7FEE7CC
:1072E000FEE7FEE7FEE7FEE7FEE7FEE7FEE7FEE776
:1072F000F0B595B01C46164608460D4603F076FBE1
:107300001A9B0D93CDE9086400242346082205A9A1
:1073100028460A948DF82C400C9403F085FB079BBB
:107320000293BDF81830ADF80C30BDF81A30ADF846
:107330000E309DF814308DF8114003F00302012A3D
:107340001DD1BDF81440059EC3F3C203C4F38314DA
:107350008DF81030A20008230EA9284603F064FB24
:10736000C6F3952608AB0093224602AB0EA9304621
:1073700000F026FD284603F03DFB15B0F0BD022AC3
:10738000F8D1BDF81640C3F3C203A4098DF810303C
:107390000827082C264628BF08263B4632460EA959
:1073A000284603F041FBA41B08AB02AA31460EA8F5
:1073B000374400F069FD002CEBD1DBE7014B0122E3
:1073C0001A7070479D3100207047000070B50F4D56
:1073D00006460FCD88B06C460FC495E80F00002E0E
:1073E00084E80F004FF006030093094A09484FF064
:1073F000805308BF0022694606930CF025FB08B1B4
:1074000000F014FF044B1E7008B070BDCCB3050033
:10741000BD730200E82A00205C31002007B5044B50
:107420000093044A4023FFF763FF03B05DF804FBB9
:10743000397402005D31002038B50D4B0D4D002030
:1074400018700D4804782D5DD2B21C4665B1043029
:107450000DF0EEFD08B100F0E9FE084B1A7812B10C
:107460002378002BFBD038BD0C300DF07DFBF1E70D
:107470009D310020C8620020E82A00205C310020F5
:1074800008B50848084A0378D35C3BB104300DF0D6
:1074900061FD0020BDE80840FFF798BF0C300DF0FB
:1074A00009FBF6E7E82A0020C86200200120FFF768
:1074B0008DBF000008B5FFF7F9FF0421034800F075
:1074C000DDFB034B01225A7108BD00BF54E40500E7
:1074D000FC2A0020037813F0040216D003F0030303
:1074E000012B03D0022B09D0012070470A680088C5
:1074F0000232C0F3831002440A60F5E70B68428849
:10750000023303EB92130B60EEE710467047000066
:107510002DE9F04F89B00546861C08A8484C019219
:1075200000230F4600F8113D01F008FB23683B6083
:10753000D4E901231344226801339B1A04F21C4747
:1075400004F5836A04F21448B3421AD3019A002363
:10755000002A6DD0012262F3010343F0040365F3B6
:1075600089132168A2689DF80F000A4003320E4477
:1075700044F82230266001F005FB012009B0BDE887
:10758000F08F0121384602F056FC504602F06CFCA8
:10759000404602F069FC0DF120096068D4F808B09B
:1075A00049F8100D00EA0B00033004EB8000494657
:1075B000FFF790FF049BB0B90BEA030204EB8202D1
:1075C000D16805919A1C013303EA0B0B04EB8B0C79
:1075D00001F00303012B0492DCF80CB020D0022B45
:1075E00004D083460BE00BEA0300DDE7BDF816305C
:1075F0009B0903334FEA1B4B02EB93030493404672
:1076000002F035FC08B1049B63605946384602F02D
:1076100012FCD4E901231344226801339B1A93E737
:10762000BDF81430C3F383134FEA1B4B1344E5E753
:10763000022262F3010343F0040365F39F5390E7D2
:107640007032002030B50A4B0A4A0B49D21AD208D0
:1076500000239A4201D1052006E031F82350046846
:10766000A54202D10360002030BD0133F1E700BF25
:1076700054E3050054E40500403000202DE9F84FA4
:10768000224B2348FF229A600022C3F81824C3E942
:107690000022C3F8142483F8202403F060F9804604
:1076A00088B91C481C4E1D4DDFF874A003F0EBFA9E
:1076B000AD1BED084446AC4208D1002318491948D7
:1076C0001A469C421BD14046BDE8F88F4FF0000996
:1076D0004F4606EBC40BBC420AD0142256F83710B2
:1076E000DBF8000032F03AFD0028C8BF09F10109BB
:1076F0000137BD42EFD12AF824900134DBE701EBDA
:10770000830540F823206A800133DAE770320020D5
:107710003CE305000CB4050054E3050054E4050007
:1077200040300020C030002007B5019031B9019AE7
:10773000064B53F8320003B05DF804FB01A8FFF7D5
:1077400081FF0028F3D00020F5E700BF54E30500D7
:10775000094B013903EBC000032909D8DFE801F028
:107760000A02040604207047007970474079704788
:10777000002070470220704754E3050030B5124CDA
:1077800000EB400054F821508240072303FA00F038
:107790006A4002400D4B6A40C2F3821044F8212037
:1077A00003EB8101C2F3C203834238BF0346C2F335
:1077B0004220834202F0070238BF03469A4238BF94
:1077C0001A464A8030BD00BFC03000204030002043
:1077D00037B5164B93F8203404460BB918B900247A
:1077E000204603B030BD32F0B1FC02AA013042F8AD
:1077F000080D012301A90E4803F053FA054600289D
:10780000EDD12146009A019832F00FF9DDE900230D
:107810001344074803F8015C009903F079FA0099D2
:10782000034803F08EFA019CDAE700BF70320020B3
:107830000CB40500034BD3E90030C31A5842584139
:10784000704700BF703200202DE9F04F87B0FFF77E
:10785000F1FF0646002840F01B818E4DC5F8180444
:10786000BFF34F8F6868AC6806AF47F8100D204033
:10787000033005EB80003946FFF72CFE029B18B160
:10788000D5F81824002A66D004EA0302991C0133B3
:1078900005EB8202234005EB8303D268DB68049387
:1078A00002F00303022B0392029169D1BDF80E305E
:1078B00079489DF80C604FEA931ABAF1500FD146FF
:1078C00028BF4FF0500969F38F1309F10801ADF893
:1078D0000E3003F05CF8C6F3C2068046002800F0C4
:1078E000BE8003F083F803A900230822404603F07A
:1078F00090F8029924EA01070137BF00B94538D949
:107900005FFA89F997B3FFB2A9EB07092140033168
:107910005FFA89FBB946614F05EB810108234A46AE
:10792000404603F076F837B109F108035A46394664
:10793000404603F06EF8029B0AF1030A03EB9A0338
:107940000293D5F81834002B50D1D5F81044DFF845
:10795000609107276FE02A689A4204D86A6030462F
:1079600007B0BDE8F08F04EA030081E74B49BB464E
:10797000D4E72140033108234A4605EB8101D7E7CC
:10798000012B6CD1BDF80C604348C6F38311062966
:1079900028BF062161F3891602318900ADF80C6019
:1079A00002F0F5FFC6F3C2068046002857D003F068
:1079B0001DF80023082203A9404603F02AF80027F7
:1079C000BDF80C20C2F38312BB1C97424FEA83031D
:1079D000B7D202994A1C21400331029205EB810182
:1079E0000422404603F015F80137E9E7404603F06A
:1079F00001F8FFF71FFF80F00100C6B2AFE7E368B0
:107A00005A79B2B11B79BDF8101003EB430259F853
:107A1000211007FA02F3052E03EA010323FA02F309
:107A200008BF0326B34204D3236841461B6820469F
:107A30009847E3681C68002CE1D1404602F0DAFF69
:107A400006A800F8114D01F079F8D5F818340BB9F3
:107A5000029B6B609DF8070001F094F8C9E7D5F828
:107A6000104474B90E4B5B88012BC2D90D4B0E48E4
:107A70000E49C01AC008000440F0020000F072F87D
:107A8000B7E7236820469B689847E3681C68E8E7E7
:107A9000002664E7703200203CE305007C320020C1
:107AA0006030002054E3050094E3050018B405009D
:107AB000C03000202DE9F74F284C80460F469246F3
:107AC00001A9012218469B46D4F80890FFF720FD33
:107AD00088B3019D0026A91C5E4506EB010234D146
:107AE00000211F4802F066F980F310006A1C02EAC8
:107AF000090204EB8202000405EA0903033340EAA9
:107B00001840D06014F8232068F3C50204F823203D
:107B100034F8232066F3891224F8232054F8232014
:107B2000012167F39F2244F8232061F301026FF3E0
:107B3000820204F8232094F820341BB1FFF784FE5E
:107B40000028FBD103B0BDE8F08F09EA020204EB84
:107B500082025AF82630D3600136BDE77032002029
:107B60008C36002000231A46FFF7A4BF13B502ACE1
:107B7000012344F8042D2246FFF79CFF02B010BDFC
:107B800007B5CDE9002302236A46FFF793FF03B050
:107B90005DF804FB1FB5CDE90123069B039301AA01
:107BA0000323FFF787FF05B05DF804FB2DE9F347DA
:107BB0008046304CD01C8A46174601A90022800816
:107BC000A568FFF7A5FC002840D0DDF80490A66862
:107BD00009F10200019001362840361AB600033040
:107BE000B74204EB80003BD83A46514631F01DFFC6
:107BF0000021214802F0DEF880F3100009F10103B2
:107C00002B4004EB83034FEA184242EA0040D8605D
:107C100005EA0903033304EB830214F8231068F325
:107C2000C50104F8231034F823106FF38F1124F8E2
:107C30002310518867F38F11518014F823200221FB
:107C400061F301026FF3820204F8232094F82034D8
:107C50001BB1FFF7F9FD0028FBD102B0BDE8F087AA
:107C60003246514631F0E1FEBA1B0AEB060104F13F
:107C70000C00BBE7703200208C3600202DE9F84361
:107C80001F4B8846D3F81014054600240A469AB9BB
:107C9000E9680C71D3F81014A1B9C3F81054EB685B
:107CA0001A60184F184EF61BF6084FF00009B14540
:107CB00011D12046BDE8F883D2681079A04218D0CF
:107CC0001268E4E7C968EA6809681160D3F81034FB
:107CD000DB681D60E5E707EBC9034946DA79EB6825
:107CE000424528BF42461879FFF748FD09F10109CE
:107CF000DDE701340A2CC9D14FF0FF34D9E700BFCA
:107D00007032002054E3050054E4050010B5037AF6
:107D1000052B0C460FD0437A23B1084A0849204668
:107D200002F00BF90749204602F007F92046BDE8AA
:107D3000104002F0F7B8002AF8D0F3E773B405005A
:107D400068C5050095B4050073B5C38804460D46A3
:107D500033B1144A00921449144A284602F0EDF84F
:107D6000217A05291CD0637A4BB1A088FFF7F0FC7B
:107D70000F4B104953F82020284602F0DEF8227AF3
:107D80000D4BA08853F822600021FFF7CDFC0B4972
:107D900003463246284602B0BDE8704002F0CDB836
:107DA00002B070BD73B4050080B4050078B405005E
:107DB00040B4050068C50500A4B4050098B40500EA
:107DC0002DE9F04385B01F460C9D002306460C4666
:107DD000904695F80C902B7329463846FFF7B4FF70
:107DE000B8F1060F09D8DFE808F00412181F28338D
:107DF00040003146284602F0A0F8002229463846C5
:107E0000FFF784FF85F80C9005B0BDE8F083226889
:107E10003146284602F091F8EFE7D4E900233146D5
:107E2000284602F08AF8E8E7A36800933146D4E9CF
:107E30000023284602F081F8DFE7E3680193A36896
:107E400000933146D4E90023284602F076F8D4E7BF
:107E500023690293E3680193A36800933146D4E950
:107E60000023284602F069F8C7E763690393236992
:107E70000293E3680193A36800933146D4E9002399
:107E8000284602F05AF8B8E708292DE9F84F80464D
:107E90000E4617461C4635D8002593F80C901D73E6
:107EA00019461046FFF750FFDFF88CA0DFF88CB0C2
:107EB000AE4229D918F805205946204602F03DF86F
:107EC0000135082DF4D11A49DFF874B0204602F0CC
:107ED00034F84FF0000A564524D918F80A507E2D80
:107EE00017D92E225946204602F027F80AF1010A36
:107EF000BAF1080FEFD1012221463846FFF706FFFD
:107F000084F80C90BDE8F88F5146204602F015F831
:107F1000D6E731F05BFD2844427812F0970FE0D0AD
:107F20002A46DFE70349204602F007F8DEE700BFF4
:107F30006EB405006CB405006AB4050064B40500B5
:107F400070B40500C30710B507D4F0234008054AF4
:107F5000145C23401943115410BD0901C9B20F2309
:107F6000F4E700BF4037002030B5094B1C78094BBF
:107F7000196800239C4202DC0022104630BD11F833
:107F80003350854201EBC302F7D00133F2E700BF63
:107F90002C3700206037002070B504460D46FFF7EF
:107FA000E3FF30B1436823B129462046BDE8704065
:107FB000184770BD034B044819680022490800F0B7
:107FC000CABC00BF30370020082B002010B5C0B25B
:107FD000FFF7CAFF044600780CF042F863785A1E97
:107FE00053425341834208D1044BD3E90023134346
:107FF00003D1BDE81040FFF7DDBF10BD38370020CA
:108000002DE9F348394A43080446D35CC2074CBF04
:108010001B0903F00F030D46042B39D8DFE803F0EA
:108020000328303D410099B30121FFF78BFF02A8DF
:10803000002600F8016D00F081FD2D4D0121A4F115
:108040002007C4F1200001FA07FC21FA00F04CEAF5
:10805000000C01FA04FBD5E900014BEA00024CEAEE
:108060000103C5E900239DF8070000F08BFD0FE038
:10807000002914BF022100212046FFF763FF07E01B
:1080800049B10321FFF75EFF01212046FFF784FF7E
:1080900002B0BDE8F0880121EEE70029F8D1042103
:1080A000EAE709B10321E7E7FFF74CFF294620463D
:1080B000FFF772FF02A80E4E00F8015D00F03EFDD2
:1080C000A4F120070121C4F1200001FA07FC21FAE4
:1080D00000F04CEA000C01FA04FBD6E9000120EAAA
:1080E0000B0221EA0C03C6E90023BCE7403700205D
:1080F000383700202DE9F041124E134F0024337819
:10810000A34208DC114BD3E90023134318D0BDE888
:10811000F041FFF74FBF3D6805EBC40815F8340088
:108120000BF09EFF98F801104B1E594259410A1A54
:10813000514215F834005141FFF762FF0134DEE788
:10814000BDE8F0812C370020603700203837002050
:10815000092AF7B505460C4616463FD90BF0B4FD83
:10816000D8B11F4B1F481D601F4B204F1C70204B68
:10817000002120221E6031F07CFC1E4B00200021DB
:10818000C3E90001013CE4B20326FF2C0BD11A4ADB
:108190001A48002100F0D4FB03E00BF05FFD00283B
:1081A000DFD003B0F0BD9DF806308DF8046020B23A
:1081B00003F0FC0305EBC0026FF382038DF8063079
:1081C000937815F830008DF805303A4601A90BF088
:1081D00077FE013CE4B20028D7D0E2E70720E0E7D1
:1081E00060370020403700202C370020CD7F020070
:1081F0003037002038370020F58002000CB505002C
:1082000070B5084D084E00242B789C4201D3002005
:1082100070BD3368012113F834000BF0D7FE013430
:10822000F2E700BF2C370020603700201FB5002187
:10823000039001AA44F20100CDE901110FF004F905
:1082400005B05DF804FB2DE9F8430468054694F891
:1082500020000CF01BF804F11807FF264FF0FF393F
:108260004FF00008207AFF2802D00CF00FF8267299
:10827000607AFF2802D00CF009F866722068431C6F
:1082800003D00BF0A1FDC4F8009084F80B800C34EF
:10829000BC42E7D16868BDE8F8430CF093B9000030
:1082A0002DE9F041134DDFF850800E4600240127E0
:1082B00005EB41052B5D5BB12B5D013BDBB22B5523
:1082C0002B5D93B958F826301B683046DB69984718
:1082D0004CB167B1084B53F8263002215868BDE80D
:1082E000F0410CF0E1B90124E4E70027F0E7BDE834
:1082F000F08100BFBC6100206437002040680C4959
:1083000002798B5CDBB2FF2B0DD0FE2B0DD0006809
:1083100003F5A87350F82330064850F8220098421D
:1083200003D1FF238B54002070470120704700BF0A
:1083300078370020803700202DE9F74F03689046FA
:1083400093F82120022A04460F4640F09B800C251A
:108350004D435A195268904509D1DB691BB9002079
:1083600003B0BDE8F08F426810799847F7E7FFF750
:10837000C5FF8346002840F087806368DFF81491CA
:108380001B79FE2209F80320266896F820000BF0DE
:10839000D7FFCA46B8F1000F1FD13544687A0BF0F9
:1083A000CFFF287A0BF0B4FF63681B79FF2209F82E
:1083B00003200C2303FB0766C6F804802368DB69EF
:1083C000002BCCD063681A79304B03EB42030221B7
:1083D000D95560680CF054F9C1E7B169884507D3F5
:1083E00035441FFA81F8287A0BF0AAFF687AD9E79A
:1083F00007EB47094FEA890906EB090360685A68E9
:1084000091423AD0002A38D0904536D25B460321BB
:108410000CF004F9636896F820B01B6856F8090060
:10842000354403F5A6730193AB7A1BB30BF022FD21
:108430000246019958460BF04BFF96F820000BF0CE
:1084400067FF63681B790AF8037063681A79104B39
:1084500043F822800C2505FB076500234246394678
:1084600060680CF0DBF8287A0BF052FF687A0BF0AA
:108470004FFF9EE70BF0F0FCDAE70379FF220AF8E2
:108480000320E7E708206BE7112069E7BC610020C3
:10849000803700207837002003681B8B5A43642301
:1084A000B2FBF3F292B2FFF747BF00002DE9F04FA5
:1084B00089B0044604928946002900F03C81066890
:1084C00096F82130002B40F038810BF0A1F908B16B
:1084D000852821D10BF0F8FB00B3994B1B6803F002
:1084E000F003302B20D10023964A00211370FF2384
:1084F0004FF0FF3286F82030F172337273723260BF
:10850000F17532757375F26006F120000BF08AFE8A
:1085100060B12046FFF797FE04271AE00BF09EFBA0
:108520000028DAD0032714E00123DDE707464FF0E7
:108530000C0A59F827B0FBB2BBF1FF3F039300F0E0
:108540008980256895F8211049B108272046FFF752
:108550007AFE384609B0BDE8F08F0127E9E709EB5C
:1085600007020AFB07F8137A029305EB0802584644
:108570005160937203228DF818202268424406A9A4
:10858000927AB2FA82F252098DF8192001228DF8FE
:108590001A2005920BF0A2FBD0B9029B45F808B057
:1085A000059A002B00F0AF80BBF11F0F86BF0BF0C8
:1085B0001F0B65494FF0A04102FA0BF2C1F80C25E0
:1085C0000AFB07FB0BF1080028440BF02BFE08B157
:1085D0000427BBE70BF1090028440BF023FE002819
:1085E000F6D105EB0B030593187A0BF0A9FE059B5A
:1085F000587A0BF0A5FE029B55F80800002B00F0FE
:108600008F800BF037FC834655F808000BF024FCF4
:1086100063680AFB07551B6807F1500103EB8101F2
:1086200080465A46287A0BF053FE6368687A1968C8
:10863000424601F5A4710BF04BFE0123EB72636817
:10864000424A1B79039902EB430320460022DA5584
:10865000FFF772FE002F80D0D9F810200023B2F56A
:10866000805F01D3092B63D1364A127812B1002BF7
:1086700008BF01238DF8183000238DF819308DF8CC
:108680001A306068324A07238DF81B30037907934C
:1086900006A90BF011FF074600287FF457AF636867
:1086A000D9F810201B68D3F81055EDB2100FC5F1A2
:1086B0002001120100FA01F1A5F1200322FA05F5CB
:1086C00020FA03F30D431D43B56160684FF00108C4
:1086D0000BF0A0FF04232A4602216068CDF8008039
:1086E0000BF0B7FF022160680BF0DEFF049BF36123
:1086F0006368184A1B7986F8218042F82340164A9D
:10870000FF21D15425E7BBF11F0F86BF0BF01F0BD4
:108710000D494FF0A04102FA0BF2C1F808254FE7CE
:108720000BF09AFB834655F808000BF0A3FB6FE7AC
:108730005208013393E70B270BE7082709E700BF2F
:10874000E80F00F09437002000030050BC610020C7
:10875000A182020064370020783700202DE9F0471D
:108760000768DFF86890002604463D46B0464FF0A3
:108770000C0A63681B7909EB430303F80680EB7A64
:1087800073B1236828680AFB0633997AB1FA81F13C
:1087900049090BF07DFB28680BF04CFBC5F8048001
:1087A0000C357EB16368084A1B79FF21D15460689B
:1087B0000BF030FF60680BF0EBFE022387F82130EE
:1087C000BDE8F0870126D4E778370020BC6100209F
:1087D000D0E90223D1E90201994208BF90422CBF9F
:1087E00001200020704700002DE900480C4800F0EF
:1087F0002FFB0C4BD3E9002312EB000B43F1000CD1
:10880000094BD3E900239C4508BF93455846614670
:1088100003D21BF180704CF10001BDE8008800BF5D
:10882000442B0020A03700200838002037B505462B
:108830000C460A4801A901F02CFA60B105704460A9
:1088400001A9064801F04FFA18B1054800F004FBF1
:10885000002003B030BD0420FBE700BF302B002018
:10886000442B00202DE930481A4B1B7804461BB9D5
:1088700000252846BDE830880028F9D090F820303F
:1088800003F0FF05002BF3D0FFF7AEFFD4E902237E
:10889000994208BF904217D323690BB984F820305E
:1088A000D4E90530984721690029E1D094F82030B7
:1088B00003F0FF05002BDBD0D4E9022312EB010B00
:1088C00043F1000CC4E902BC2146034802F062FAFD
:1088D000CFE700BFA837002044B5050013B5114B02
:1088E00011491868019008235822104801F09CF99A
:1088F000044698B90E4A0F4801A900F081F90446D0
:1089000060B901210B4800F083FA01230A4A0948A3
:10891000194600F0E1F9094B01221A70204602B015
:1089200010BD00BF40B50500AC370020302B002043
:10893000A5890200442B0020FFFF7F00A8370020FC
:108940003AB103685A614A1E5142514119610020EF
:1089500070470720704738B590F8203004460D4620
:1089600083B98261FFF740FF421941F10003C4E976
:108970000223236903B1256121460020BDE8384068
:10898000FFF754BF002038BD0023014680F8203097
:108990000120FFF74BBF0000014800F059BA00BFAB
:1089A000442B00202DE9F74F064600F03AFA40B17B
:1089B0005A49D1E9002312F1807443F10005C1E95D
:1089C00000450021304600F03CFA38B1544C236891
:1089D00023B12068FFF746FF0023236001213046C2
:1089E00000F02FFA20B1FFF7FFFE4E4BC3E9000164
:1089F00001A94D484A4D4D4C4D4F01F084F90028D6
:108A000045D1DFF828A1464CDFF82CB1504602F0E2
:108A1000D7F92368002878D083B12368D0E9020110
:108A2000D3E90223994208BF90422DD2236893F8DC
:108A300020301BB12168504602F0ACF9504602F0DC
:108A4000B9F9D0E902890746FFF7CEFEB8EB000876
:108A500069EB010940464B46012873F1000347DBEF
:108A6000344DA84542D9FFF797FF42194FF49603BA
:108A70000021584600F054F9002841D1236813B969
:108A8000304600F021F9276003B0BDE8F08F03788D
:108A9000012B20D00BD3022B14D14FF0000820461D
:108AA00002F088F9002836D080F82080F7E7436884
:108AB00093F8202032B9012283F820204168204613
:108AC00002F068F901A9184801F048F901A916480F
:108AD00001F019F993E741682B68994202D100230C
:108AE0002B60EFE7204602F06EF9EBE7BA68BDE7CE
:108AF0000021584600F09AF93846FFF7B3FE01E02E
:108B00000D28F9D00023236080E7002BBCD130462C
:108B100000F0DEF8B8E701233B70D3E7A037002070
:108B20001038002008380020302B002044B5050004
:108B3000A8370020FFFFB400442B002070B5EFF3EE
:108B4000108672B60C4A946801239CB993600B4B53
:108B50000B4DD3F8801029401160C3F88050D3F832
:108B6000841051604FF0FF32C3F88420047006B9BE
:108B700062B670BD0370FAE7C861002000E100E052
:108B8000FC06FFBD10B5084B9A685AB150B9EFF317
:108B9000108172B6054A1C6814605C685460986065
:108BA00001B962B610BD00BFC861002000E100E05D
:108BB0002AB113880144884204D1184670474FF601
:108BC000FF73F7E75BBA10F8012B9BB25A40C2F370
:108BD0000313534083EA03331BB25A0102F4FF52DA
:108BE00053409BB2E7E7435882B03BB10023435068
:108BF00043580193019B012002B070471846FBE7E0
:108C000070B5284C4379284D44F82320274C04EBB9
:108C1000C3031B7973B16B88012B09D92448254BF9
:108C20002549C01AC008000440F00200FEF79AFF70
:108C3000082070BD03680A88C3F8082590F904303D
:108C40008A78002B4FEA4212AFBF03F1604303F072
:108C50000F031A49D2B2A9BF03F56143CA54D2B275
:108C600083F8002390F9043015495E09012203F0CE
:108C70001F0302FA03F341F82630437904EBC301E2
:108C800044F833006B880A71022B09D90848094B54
:108C90000C49C01AC008000440F00300FEF762FF50
:108CA0000020C6E71C38002068300020143800205F
:108CB000A4E3050054E3050076B5050014ED00E0DB
:108CC00000E100E098B50500036801221A607047D2
:108CD000036801225A607047F7B505684FF4803485
:108CE0008C40C5F808430568C5F848438D0005F574
:108CF000A0750668ADB20027775175590195019DA1
:108D0000056801F5A87122F07F4245F8212002682C
:108D1000C2F8444313B10368C3F8044303B0F0BD81
:108D20002DE9F34799464FF48038036808FA01F8B3
:108D3000C3F848830368C3F8088322F07F450268BC
:108D40008E000F46D2F80415324406F5A076D2F80C
:108D50004035C2F84015B6B202684FF0000A42F83A
:108D600006A05B1A9259009223F07F43012B044620
:108D7000009A0BD1254B4FF4806043F001039847D4
:108D8000236843F806A09B590193019B2368D3F8FD
:108D90000465C3F84483AB1B23F07F43012B07F525
:108DA000A877236819D1013543F82750174B4FF4A2
:108DB000806043F0010398472368D3F804359E424E
:108DC00009D12368C3F8448323680020C3F80483CF
:108DD00002B0BDE8F0870D20FAE743F8275020687D
:108DE000D0F804156A1A013AC9F1FF1322F07F4244
:108DF00003F57F439342EED3002AE2D1013540F8D8
:108E000027502368D3F804359942D9E770B5050097
:108E100002680223C2F8443311B10268C2F8043375
:108E200070474FF482710068FFF7DDBE4FF4803366
:108E300003FA01F10368C3F848130368C3F8081381
:108E40007047890001F5A07189B20068FFF7CBBEB9
:108E50000368D3F80405704790F9043001215A09DA
:108E600003F01F0301FA03F34032024941F82230B4
:108E7000704700BF00E100E0024B034A1B68106826
:108E8000184700BF1C3800201438002070B5064E6B
:108E90000546002456F824300BB128469847013483
:108EA000042CF7D170BD00BF2C380020033080B2F5
:108EB00040F2FE33984230B51FD8134B1A783AB9B6
:108EC0001C895D892C440444A4B2B4F5806F0AD98E
:108ED0001A7DAAB99A8BDC8B2244024492B2B2F575
:108EE000806F0DD801220A801446142202FB04333D
:108EF0005A8910445881002030BD48F20860FBE7D1
:108F000048F20660F8E700BF603800200B4A0C4BBF
:108F10005188142000FB0131CB6833B90420496823
:108F200010700122074801F0C7BA052306491370E3
:108F300002238B80012200230968F3E744380020D4
:108F40006038002018300020C039002007B5002309
:108F500005490093054A09680548082301F0ECF922
:108F600003B05DF804FB00BFC0390020B8B50500B0
:108F70001830002007B50023009301460823034A58
:108F8000034801F0D9F903B05DF804FBB0B5050062
:108F90001830002013B500230C460093014604232B
:108FA000074A084801F0C8F938B9074B142202FBF8
:108FB00004340123237402B010BD48F20D60FAE7B7
:108FC000ACB50500183000206038002037B50A48DD
:108FD0000A4B42689C88196853880325033305703F
:108FE0009BB2002000909B0001EB8401044801F03B
:108FF000A3F903B030BD00BF44380020C0390020C1
:109000001830002010B50146044800F042FE1C2232
:109010000446002130F02DFD204610BD4C2B0020D1
:109020004388033300EB830399420BD382884FF6C6
:10903000FF739A4208D0038833B18068431C5842BA
:109040005841704702207047012070472DE9F843CE
:109050000223DFF860800B800D46174600F580562E
:1090600000F108044FF00109B4420FD22368013324
:109070000CD031462046FFF7D3FF48B10FB187F837
:10908000009002280BD14FF480632B80BDE8F88359
:10909000A368D8F80020934201D9C8F800302B8883
:1090A0006288033313442B806388033304EB830407
:1090B000DAE700BF5838002070B5144A142303FBC8
:1090C00000200B6844680D4604F580569BB15C880F
:1090D000033403EB8404B4420BD22368013308D079
:1090E00031462046FFF79CFF012809D005D302280E
:1090F000F1D1002003E00834EDE72C60012070BDC1
:109100006388033304EB8304E5E700BF6038002085
:1091100073B5436805460C4673B3254AD1688B4244
:109120002AD31269934227D813F0030224D121498C
:109130000089098988421FD12868996888421BD113
:109140001D494868834203D900F5805083420ED3FD
:109150008A6993420DD902F58052934209D20123C4
:1091600023800020B0FA80F0400902B070BD1346A1
:10917000F6E748F20960F5E7002323801E462388BE
:10918000012B01D90020F0E7019601A92088FFF703
:1091900093FF18B9238801332380F0E7019B2A68E5
:1091A00099689142F1D16B60024B1B892B81DCE7FE
:1091B0001830002044380020603800202DE9F843A2
:1091C0001C46204B1B7806460F461546002B33D015
:1091D000002A34D0002C32D0DFF870804FF0140910
:1091E000A388012B02D948F209601BE009FB03F3B5
:1091F00018F80330C3B1A3880133A380F0E72368D4
:109200001EB19988328891420ED11FB119883A88CF
:10921000914209D19B682B6023686B600A4B1B89C4
:109220002B810020BDE8F8832146A088FFF744FF8A
:109230000028E4D12060DEE748F20160F2E748F25E
:109240000460EFE73C3800204438002060380020FC
:1092500008B5074B191D5888FFF72EFF18B1BDE858
:109260000840FFF7B3BEBDE80840FFF74FBE00BFA0
:10927000443800202DE9F04FA34FDFF8B09289B0B9
:109280000646B8463B6823B94946A04800F03BFD76
:109290003860D8F8005029784B1E052B00F2178152
:1092A000DFE813F00600780078000B010B01650180
:1092B0002EB1974B00225A604FF4064425E02B79DB
:1092C000032B1DD8DFE803F01502434E91490B78BC
:1092D000022B084632D00B7D022B4FF001032FD119
:1092E00014225343C2180020C8545068FFF742FEAE
:1092F00003E001232B71FFF729FE002800F0D7803F
:10930000834B00225A6048F20D641422002103A806
:1093100030F0AFFB41F61D539C4208BF0024D8F843
:10932000003004941A78023A042A00F2D981DFE866
:1093300012F0BA01C601E901F101F8010023CFE7FB
:10934000734A13700023536041F61D54DDE77249E0
:109350007248002302222B718A800122096801F0E1
:10936000ABF8CAE76C4C00262E712068694DFFF7F8
:1093700001FE6B4BD4F800C05A8814235343EA18FB
:10938000EE5451682160A188C2F804C01181022204
:10939000A280B2E7B5F814A0AA7DDFF878B1142353
:1093A000AEB1022A06D903FB0AB3EA88198903324F
:1093B0000A441A81142303FB0ABAEB88BAF80A207C
:1093C000C3F57F43FD331344AAF80A3074E703FB67
:1093D0000AB318895C6804EB8004062A05D8DFE824
:1093E00002F0284F37451E5B690048F20E64AB7DE2
:1093F000022B07D9142202FB0AB2EB88118903332E
:109400000B441381142303FB0ABAEB88BAF80A2031
:10941000C3F57F43FD331344AAF80A3075E741488A
:10942000414900234360AB690360FFF771FE0028E8
:109430005CD00223AB75002300930423EA18214675
:10944000364800F079FF002831D048F20D64CEE7AD
:109450002B69002B0CBF01230323AB750023009362
:1094600005F10C02042304F10801E9E70123AB75BF
:109470000022EB8800929B002A6904F10C01DFE7CF
:10948000032914BF06230523AB750023009304238F
:1094900005F10802E118D3E70623AB75224B1988C2
:1094A000204B5868FFF776FD044600289FD109B08D
:1094B000BDE8F08F41F61D5499E7002E7FF4FCAE15
:1094C0002B79012B34D005D3022B3FF43DAF48F26A
:1094D0000E641AE702232B71CDE904660DF10A012F
:1094E000EB68039303A8FFF713FE10B948F2096471
:1094F0000BE70498BDF80A108388EB8003882B8162
:10950000FFF748FD044628E05C3800204C2B002083
:109510003C38002060380020C0390020183000207E
:109520004438002020380020CC3900205438002056
:10953000DFF80CA203AA53463146A81DFFF73EFEF2
:10954000044670B9BAF804100498FFF723FD0446E6
:1095500048F209639C423FF4F7AE002C7FF4D5AE8D
:10956000A5E708223146504630F083FAF0E7002E96
:109570007FF4A2AE6D4B1A7BB2B11E731A78013A1A
:10958000062AA4D801A151F822F000BF33960200A8
:1095900059960200779602007D960200CF94020051
:1095A00083960200999602001A78072AE6D801A14C
:1095B00051F822F0D59502007D9502007D950200BC
:1095C000FB9502000F9602002F9602002F960200D4
:1095D000F79502001A89564901321A8100225A80F1
:1095E0001A730A78B2FA82F252099A720A7DB2FAB2
:1095F00082F25209DA72012207E04E4958688A88DD
:109600004088033202448A8002221A70B6E7484C2E
:109610005A884849142505FB02420868546850607E
:109620008888108102228A800C600622EDE70722DA
:10963000EBE79A7A32B9DA7A8AB900221A705A803C
:109640005A6081E63A4900229A72CA68002AF2D129
:10965000097C0029EFD05A80FFF7FAFD52E700227B
:10966000DA72334A116A0029E7D192F82420002ADD
:10967000E3D00122EFE7FFF7A9FC43E7FFF746FC41
:1096800040E706221A702A4A5B88142101FB032353
:109690005868FFF76FFC35E707221A7000225A60FE
:1096A000FFF754FC2EE701228DF80C201A89ADF843
:1096B00018209A88ADF81A20DB68059310E0022282
:1096C0008DF80C201A89ADF818209A88ADF81A2068
:1096D000DA6805929B7D9A1F534253418DF81C30E6
:1096E00003A8FFF7D3FB002649461348C8F80060DB
:1096F00000F034FB0121114800F0A8FB00287FF4A2
:10970000C1ADD4E603228DF80C20DA88ADF818201C
:109710001A89CFE704228DF80C20DB88ADF81830C9
:10972000DEE705238DF80C30DAE700BF443800206F
:1097300060380020C03900204C2B0020BC390020AC
:10974000D03900204068FFF795BD000008B5012121
:10975000044800F065FB18B9BDE80840FFF78ABD72
:1097600008BD00BFBC3900202DE9F3419846002315
:10977000ADF80230414B1B7806460D46002B71D0E8
:10978000002972D009884FF6FF73994270D06B8818
:10979000002B6DD06B689B076DD142B92F8969464C
:1097A0003846FFF783FB30B102B0BDE8F081138883
:1097B0005788ADF8003001A8FFF724FC044660B9D3
:1097C000BDF800302E4A142101FB032358890338C9
:1097D000C01B588148F20760E6E780F8008000234C
:1097E0008375BDF8003083826B68036101212548D1
:1097F00000F021FBE0602B8823816B88A380B8F107
:10980000030F04BF0423A375E78004BF3368A3617B
:1098100000220621201DFFF7CBF902AF042127F813
:10982000060D04F10C003A46FFF7C2F9A968ADF83D
:10983000020089003A466868FFF7BAF901A9ADF855
:1098400002006081104800F04EFA3EB100237360C0
:10985000E268B3720D4B32601B893381FFF776FFEC
:109860000020A1E748F201609EE748F204609BE710
:1098700048F2036098E748F2026095E73C38002020
:1098800060380020583800204C2B0020443800203D
:1098900008B5084B1A68042A09D01968064A42F824
:1098A00021000121184600F0C6FA002008BD48F248
:1098B0000B60FBE7C83900202C3800202DE9F04F61
:1098C00089B01422002103A830F0D3F8794A137824
:1098D000914603F0FF0B3BB103A8FFF7D7FA00272F
:1098E000384609B0BDE8F08F101D00F0BAFA054601
:1098F0000028F4D140F6F8734FF080521B685C1CCE
:1099000008BF6D4B6D4C08BF1B6811695269581C2C
:1099100008BF02FB01F3A3F5A0422261A3F50043B7
:1099200000226749E360204600F0CAFC0094074625
:109930000028D5D11C234FF49A7262496248634EC5
:1099400000F072F9B8464FF0030A3C46009BD86815
:1099500058F8003018EB00002ED05D4A934240F0DA
:10996000A78042685B498A4214D001318A4223D1E0
:10997000594BBBF1000F60D1002258491860019388
:10998000FFF764FB019B9B88022B14BF0823042371
:109990001D4335E01421614373180022725401F114
:1099A00010020831586032443144FFF74FFB45F054
:1099B00002050134A4B223E05A1C02D0444A934267
:1099C00030D1031D00F580511A6801322AD10433C9
:1099D0009942F9D1404B1A682AB9022218609A803C
:1099E0004FF0010B0AE0142363430221F218F154F3
:1099F0003B4B50605C8001341181A4B245F00105FD
:109A000008F58058B8F5405FA0D1BAF1010F98BFB2
:109A10000025EDB2022D02D0062D1ED03DBB48F22E
:109A20000A675DE714236343F2180AF1FF3A5060B6
:109A300003221FFA8AFAF254BBE714226243B118D8
:109A40004FF0020C06F802C01A684A60244AA1F8D6
:109A500008C054800134A4B28EE7012389F8003095
:109A600003A80023C9F80430FFF710FA38E702A86A
:109A7000FFF7C8FAC8B10123013D03700A2D09D8C8
:109A8000DFE805F006080608070807080F110F00B1
:109A90000023037102A90C4800F025F9FFF756FED8
:109AA0001EE70323F5E70223F3E748F2076717E70A
:109AB000013385E73C3800201410001018300020D6
:109AC000BCB70500883800204C2B002060380020EF
:109AD000DEC0ADDEFE011EF1C0390020C439002019
:109AE000443800202DE9F3410E46054660B359B3D2
:109AF00001A9FFF70DFB50B36C6800220621204638
:109B0000B4F806806788FFF753F802AA791C22F898
:109B1000020D890004F10800FFF74AF8804519D1C9
:109B20000E4BBDF80400142202FB003001210C3062
:109B300000F081F934606B680C3373600123AB7201
:109B4000002002B0BDE8F08148F20460F9E748F275
:109B50000960F6E748F20C60F3E700BF60380020C8
:109B600013B50446A8B10DF10601FFF7D1FA98B17B
:109B70000C4ABDF80630142101FB0323DA6872B1E8
:109B8000A27A62B1DA680020013ADA60A07202B00B
:109B900010BD48F20460FAE748F20960F7E748F2BE
:109BA0000560F4E76038002002230022FFF7DCBDE7
:109BB00018B103230022FFF7D7BD48F204607047B5
:109BC00007B50F4B1B78A3B101A8FFF71BFA98B19B
:109BD0000623037001A90B4800F085F80A4B1A7898
:109BE0000AB101221A73FFF7B1FD002003B05DF83E
:109BF00004FB48F20160F9E748F20760F6E700BFAE
:109C00003C3800204C2B00204438002007B5ADF82C
:109C1000060002A820F8041D01460DF10600FFF71A
:109C2000CDFA03B05DF804FB10B561B1B2FBF3F4FB
:109C300003FB1424A4B244B9C0E9001484608281F7
:109C4000C381204610BD0E20FCE70920FAE782B050
:109C500050E8022FC188B2EB324F4FF0000317BF1C
:109C600092B241EA014142EA014104E04268B2EBAA
:109C7000324F08BF012340E80212002AE8D18DF8D4
:109C800007309DF80730002B0CBF1120002002B0D8
:109C9000704737B550E8013F9DB2C4892544848997
:109CA000A54228BF2D1B0489A54202BFBFF32F8FF9
:109CB000002207E0C5EA030540E80154002CE9D181
:109CC0004FF001028DF803200193019B9DF80320C2
:109CD0000B6002F0FF0322B10B880068184403B048
:109CE00030BD1846FBE70A884B889A4209D150E8F4
:109CF000012FC2EA024240E80123002BF7D10120E4
:109D000070470020704737B550E8023F1FFAA3F5AF
:109D1000C488A54202BFBFF32F8F00220DE0C48983
:109D200025448489A54228BF2D1BC3EA054540E888
:109D30000254002CE8D14FF001028DF8032001936A
:109D4000019B9DF803200B6002F0FF0322B14B88BA
:109D50000068184403B030BD1846FBE70A884B88FA
:109D60009A4209D150E8022FC2EA224240E8022377
:109D7000002BF7D1012070470020704701F01F022F
:109D80004B090121914000EB830000F028B801F05D
:109D90001F0301229A404B0900EB8300D14300F0DE
:109DA00034B84B0901F01F0150F82300C84000F0FF
:109DB0000100704750E8002F0B4640E8003C9CF043
:109DC000000FF7D11046704750E8002F42EA010318
:109DD00040E8003C9CF0000FF6D11046704750E878
:109DE000003F43EA010240E8002C9CF0000FF6D14E
:109DF0001046704750E8002F02EA010340E8003C9B
:109E00009CF0000FF6D11046704750E8003F03EA7F
:109E1000010240E8002C9CF0000FF6D1104670477C
:109E200050E8002F02EB010340E8003C9CF0000FDB
:109E3000F6D11046704750E8003F03EB010240E8BE
:109E4000002C9CF0000FF6D11046704750E8003F00
:109E5000A3EB010240E8002C9CF0000FF6D1104665
:109E600070470121FFF7B0BF0121FFF7B8BF002104
:109E7000FFF7C0BF0021FFF7C8BF10B590B1D0E910
:109E8000012301689B1ADBB20A60013BDBB2FF2BA6
:109E9000026802D10020107110BD11684C1C1460C2
:109EA0000B70F2E70E20F7E737B5054602A800244D
:109EB00000F8014DFEF742FE2A68696813688B427C
:109EC00010D9591E116013F8014CAA8AEB6802FBE5
:109ED00004342A68AB6811685B1A1179DBB29942C5
:109EE00038BF13719DF80700FEF74CFE204603B003
:109EF00030BD37B5054602A8002300F8013D0C46E9
:109F0000FEF71CFE2A681368591C1160E968641A80
:109F1000A98AB4FBF1F41C709DF80700FEF732FE2D
:109F200003B030BD10B5826804462AB143690168A8
:109F3000006998470023A36010BD0EB403B50399D0
:109F400029B102AA04AB42F8043D00F073F802B054
:109F50005DF804EB03B070470A2938B504460D4696
:109F600002D10D21FFF7F8FFA3682268591CA160F8
:109F7000D554D4E901329A4204D32046BDE8384092
:109F8000FFF7D0BF38BD00002DE9F84F9946DDE955
:109F90000A431746824688460A460126BA420FD22D
:109FA0004E4538BF4E4613F0010B01D164B9002471
:109FB0000125B9F1010F1AD909F1FF397D43F8E7FD
:109FC000B2FBF7F20136E9E79B070ED5B9F1000FB6
:109FD0000CBF30252025A642EAD2013C2946504636
:109FE000FFF7BAFF002CF6D1E1E72025F3E7B8FB35
:109FF000F5F39F42E2D9DFF83890B8FBF5F350460D
:10A0000019F8031005FB1388FFF7A6FFB5FBF7F55A
:10A01000002DF2D1BBF1000F02D00CB1A64201D34A
:10A02000BDE8F88F20215046013CFFF795FFF4E78B
:10A03000CFB505002DE9F74F054690460E4600299D
:10A0400000F03A8116F8011B002958D0252940F06C
:10A05000D180002702E047F001071646324612F889
:10A06000013B2D2BF7D0302B04D02B2B05D147F003
:10A070000407F2E747F00207EFE700242A2B06F176
:10A0800001021BD1D8F80030191DC8F800101B6858
:10A0900016461C4433782E2B1CD101364FF0000A93
:10A0A000314611F8012BA2F13000092814D80A23F7
:10A0B00003FB0A23A3F1300A0E46F1E712F8013C34
:10A0C000A3F130010929E5D80A2101FB0434303C11
:10A0D0001646D3E74FF0000A324612F8011B01F092
:10A0E000FB0068281646F8D0692916D054D858299C
:10A0F00070D00ED825297DD03378002BA2D12B7BB0
:10A10000002B00F0D980284603B0BDE8F04FFFF7E0
:10A1100009BF632968D06429EED1D8F80020111D49
:10A12000C8F80010D2F8009089EAE972A2EBE9724F
:10A130004FF0010B092A61DCD34538BFD3462CB15F
:10A14000B9F1000F01DB790700D5013CBA0702D550
:10A15000BAF1000F04D0FB0702D4002C54D1002424
:10A16000B9F1000F58DAC9F100092D212846FFF78F
:10A17000F3FE07F00302022A05D1BAF1000F02D163
:10A18000002C4DD10024CDE9004753460A22494610
:10A190002846FFF7F9FEAFE7732954D016D8702987
:10A1A000AAD1D8F800301A1DC8F80020302128465E
:10A1B0001C68FFF7D1FE78212846FFF7CDFE00226C
:10A1C0000823CDE9003221461022E1E775292FD07E
:10A1D000782991D1D8F800100A1DC8F80020CDE9DF
:10A1E0000047534610222CE0D8F800301A1DC8F85A
:10A1F000002019782846FFF7AFFE7DE70A230BF110
:10A20000010B92FBF3F295E7A345A9D22021284642
:10A21000013CFFF7A1FEA0E77807AAD52B21A5E70F
:10A22000A345B0D230212846013CFFF795FEA7E7B1
:10A23000D8F80010CDE900470A1DC8F800205346A1
:10A240000A220968A4E7D8F800301A1DC8F80020CF
:10A25000F907D3F8009012D54F46A7EB090B17F872
:10A26000011B41B9A345BFF447AF20212846013C5B
:10A27000FFF772FEF6E72846FFF76EFEEDE7B9F14D
:10A28000000F17D048462FF061FF0746BC4200D9A7
:10A2900054B909F1FF3919F8011F00293FF42CAF17
:10A2A0002846FFF759FEF6E720212846013CFFF734
:10A2B00053FEEBE74F46E9E703B0BDE8F08F00003F
:10A2C00007B50B46A0B9154B5B886BB1144B15480D
:10A2D000154AC01A0E23C0080093144B00041449F9
:10A2E00040F00100FDF756FC0E2003B05DF804FBC2
:10A2F0006BB90A4B5B88002BF6D0094B09480D4A15
:10A30000C01AC0080E2300930004084BE7E703605F
:10A310001B68114603B05DF804EB18479C30002021
:10A3200054E305000CE405008CB60500DFB505001C
:10A3300091B6050008B705002DE9F3419646B0B97E
:10A34000504B5B88002B00F095804F4B4F48504A94
:10A35000C01AC0080E244F4B009400044E4940F030
:10A360000100FDF717FC204602B0BDE8F0816AB994
:10A37000444B5B88002B7DD0434B4448474AC01A6E
:10A38000C0080E2400040094424BE7E7D0F800C058
:10A39000BCF1000F0DD13B4B5B88002B6CD03A4BCE
:10A3A0003A483F4AC01AC008082400040094394BB8
:10A3B000D4E76BB9334B5B88002B5FD0324B33480B
:10A3C000384AC01AC008092400040094314BC5E77C
:10A3D0004768D7F80480B3FBF8F708FB17376FB16D
:10A3E000284B5B88002B49D0274B28482E4AC01A9F
:10A3F000C008092400040094264BAFE78F070DD056
:10A40000204B5B88002B3BD01F4B2048274AC01AAB
:10A41000C0081024000400941E4B9FE712F0030FA5
:10A420000CD0184B5B885BB3174B1848204AC01AF6
:10A43000C008102400040094164B8FE7C768B94287
:10A440000BD34C1E05691C44AC4206D8DCF80C400A
:10A45000A44602B0BDE8F04160470A4B5B887BB17F
:10A46000094B0A48134AC01AC0081024000400947B
:10A47000084B73E70E2476E7082474E7092472E793
:10A48000102470E79C30002054E305000CE4050024
:10A490008CB60500F1B5050091B605000EB70500B4
:10A4A00002B70500C1B6050014B705003EB70500A8
:10A4B00056B7050079B70500F7B5A0B9374B5B88EB
:10A4C000002B63D0364B3748374AC01AC0080E24D9
:10A4D000364B00940004364940F00100FDF75AFB6A
:10A4E000204603B0F0BDD0F800C0BCF1000F0DD184
:10A4F0002A4B5B88002B4BD0294B2A482D4AC01A87
:10A50000C008082400040094284BE4E76AB9234BF0
:10A510005B88002B3ED0224B2248274AC01AC00835
:10A52000092400040094214BD5E74768D7F800E0E0
:10A530000EF1FF370F420CD0184B5B8863B3184BFA
:10A5400018481E4AC01AC008102400040094174B73
:10A55000C1E7C768B9420CD34C1E05690EFB024423
:10A56000AC4206D8DCF81040A44603B0BDE8F04089
:10A5700060470A4B5B887BB1094B0A48104AC01AF6
:10A58000C008102400040094084BA4E70E24A7E799
:10A590000824A5E70924A3E71024A1E79C300020A4
:10A5A00054E305000CE405008CB6050004B6050074
:10A5B00091B6050002B70500C1B6050017B6050043
:10A5C0003DB6050029DF704728DF704770B5056884
:10A5D000AB6886B004460E4673B11422002168466B
:10A5E0002FF047FAA36805932379019633B1012B25
:10A5F0000ED0AB686846984706B070BD01238DF851
:10A60000003023690293E368039363690493F0E7DE
:10A6100002238DF80030E3681B030293F5E7084638
:10A620007047002070470000024B187A003018BFB6
:10A6300001207047643A0020034B187A0122B0FAD7
:10A6400080F05A7440097047643A002008B51046FB
:10A650001A462FF0EAF9002008BD000008B51422C0
:10A66000002104482FF005FA0348FFF7F0FA002014
:10A6700008BD00BF643A0020602B002010B5094CD3
:10A68000094B43602046FFF7ECFB40B90AF0F6FDAA
:10A690001C2320748C2205490548FFF7C5FA0020C9
:10A6A00010BD00BF643A0020B0B70500D8390020C3
:10A6B000602B002070B5244D244E2B7A2C463BB9DC
:10A6C00023492448FFF71FFB306008B9686070BD5C
:10A6D0000223237233681A7972B1012A24D01846F2
:10A6E0000321FFF773FF00232372636018491948A1
:10A6F000BDE87040FFF732BBD3E90520121AB2F56E
:10A70000805F28BF4FF48052D3E903159208012AD5
:10A71000014438BF01222844FFF754FF50B11128EB
:10A72000DDD101232372D2E7D3E903021044FFF7FE
:10A730004BFFF3E7237C002BC9D10146BDE87040F5
:10A74000022000F009B800BF643A00207C3A0020E3
:10A75000783A0020602B002038B5831E012B45D8A5
:10A76000234C237A002B41D0022B09D1032830D06F
:10A77000204B00221B68E2601A793AB1012A22D0EC
:10A78000637C7BBBBDE83840FFF794BFD3E905127B
:10A790008D1AB5F5805F94BF521902F580529A6107
:10A7A0009142EDD102284FF0000308BF19462372F1
:10A7B000104B18BF0D211868FFF708FF0E490F480E
:10A7C000FFF7CCFADCE71A6901321A615B699A4239
:10A7D000E7E7E3680133082B01D8E360D0E7002303
:10A7E000E360DFE7BDE838400AF038BD38BD00BFA0
:10A7F000643A00207C3A0020783A0020602B002048
:10A8000000F0FD03012B08D1044B00225A74421EB4
:10A81000504250411874FFF74DBF7047643A002012
:10A8200010B5064C201DFFF71CFB28B9637C1BB933
:10A83000BDE81040FFF73EBF10BD00BF643A0020E6
:10A840002DE9F34180460D460F4801A916461F46E3
:10A85000FFF71FFA0446A8B11C2200212FF009F9C6
:10A860002D0B0123237101A9C4F80080A760E560C6
:10A8700066610548FFF737FAFFF7D2FF002002B004
:10A88000BDE8F0810420FAE7602B00202DE9F743B2
:10A8900081468846104801A917461E46FFF7F9F978
:10A8A0000446B0B11C2200212FF0E3F800250A9BDA
:10A8B000A36001A92571C4F80090C4E9037866611A
:10A8C0000548FFF710FAFFF7ABFF284603B0BDE8D5
:10A8D000F0830420FAE700BF602B00202DE9F04749
:10A8E000B0F806904479D2F800A09DF8208009FBCA
:10A8F00004F4043C06460AEB0300A0420F4688BF5E
:10A90000A4EB030A191DC2F800A0B1FBF9F509FB7D
:10A9100015114DB9A9EB0104544528BF5446BAF1AD
:10A92000000F04D1BDE8F0873668013DF1E704313E
:10A930007B1970182246B8F1000F0ED00146184658
:10A94000AAEB040A2FF071F8D145254436684C462D
:10A950004FF0000128BF5446E1E71946F0E7FFF742
:10A960008CBAF8B546790146721E0546002393421B
:10A970002D6803D30024A64202D8F8BD0133F6E7C0
:10A980000F682846FFF7B5FA01343946F3E72DE999
:10A99000F843CD1C868A0746FFF786FA043E354405
:10A9A0000446B5FBF6F5F0B14FF48073EDB2838049
:10A9B000C680013D076081464FF00008A84512D2CD
:10A9C0003846FFF771FA064648B16379013363717F
:10A9D00008F10108C9F8000007608146EEE720464B
:10A9E000FFF7BFFF34462046BDE8F883012104305D
:10A9F000FFF721BA10B5012104460430FFF726FA0B
:10AA000010F0FF0F04D12046BDE81040FFF7A9BFAA
:10AA100010BD1FB504AC44F8042D0022009222465C
:10AA2000FFF75CFF04B010BD1FB504AC44F8042D63
:10AA3000012200922246FFF751FF04B010BD41DF12
:10AA400070470000064B10B500241C70054B1C60BD
:10AA5000BFF35F8F0449054800F087F9204610BD19
:10AA6000883A00208C3A0020ECB70500803A00209C
:10AA700007B502A8002300F8013DFEF75FF8F1EEEC
:10AA8000103A23F09F03E1EE103ABFF35F8F0A4BB9
:10AA90004022C3F884219DF80700FEF773F80AF0FE
:10AAA000EDFB20B1FFF7CBFF03B05DF804FB20BF47
:10AAB00040BF20BFF8E700BF00E100E00268136874
:10AAC0005268934291BFD01A80680130801888BFC5
:10AAD000C01A70472DE9F04103681F681D685B6864
:10AAE0009D4284BF83680133164688465D1BC26859
:10AAF0004168AE42044607FB02110CD8724340463F
:10AB00002EF093FFA3683E449E4288BF0026236830
:10AB10001E60BDE8F08105FB02F73A4640462EF084
:10AB200084FFE2686168751B6A4308EB07002EF03A
:10AB30007CFF23681D60ECE7036881681A685B6826
:10AB40008B4234BF01330023D31A58425841704717
:10AB5000F7B5044602A8002300F8013D0D46FDF7B5
:10AB6000EDFF2046FFF7E8FF10B1237C002B3DD11D
:10AB70002168A6684B684A68B24234BF013200229D
:10AB80004A6038B12168A0680A68824234BF013245
:10AB900000220A60E2686068511E072920D8DFE8B9
:10ABA00001F004101F141F1F1F182A78C2542046DA
:10ABB000FFF784FF23689A68824200D298600024DD
:10ABC00015E02A8820F81320F1E72A6840F82320AE
:10ABD000EDE7D5E9006700EBC300C0E90067E6E7F1
:10ABE000294602FB03002EF020FFE0E704249DF835
:10ABF0000700FDF7C7FF204603B0F0BDF7B50646D6
:10AC00000F46144600259AB102A800F8015DFDF731
:10AC100095FF3046FFF752FFA0420CD3224639463B
:10AC20003046FFF757FF2C469DF80700FDF7AAFFB7
:10AC3000204603B0F0BD0524F6E737B5054602A867
:10AC4000002400F8014DFDF779FF0C222146286809
:10AC50002EF00FFF9DF80700FDF794FF03B030BD05
:10AC600013B5044602A8002300F8013DFDF766FF76
:10AC70002046FFF723FF04469DF80700FDF782FFFB
:10AC8000204602B010BD8268002393608268136181
:10AC9000826853618268D3608268536082681360FF
:10ACA0007047F8B505460F4616461C4683B9AB6893
:10ACB0006868D3E9031300F1010CCA1A62450ED18A
:10ACC0000027376014B3A868FFF7D4F80020F8BD58
:10ACD0008068FFF7C6F80028E9D01120F7E701EAFD
:10ACE00000021840824236BF6344ACEB02035B1A99
:10ACF0003168994294BF316033602B6813443B60E4
:10AD0000AA683168D3680B44D360DFE72046DEE7EA
:10AD100038B5846843682569A26801332B449B1ABF
:10AD20008B420CD30A44A26083689A68DA60806818
:10AD3000FFF79DF800280CBF0820002038BD042034
:10AD4000FCE710B5826813699468E41A8C420AD350
:10AD50000B44136183681A695A6180680430FFF7F5
:10AD600089F8002010BD0420FCE701600B684360F7
:10AD70004A68934204BF002343607047436843B16D
:10AD8000026891680B4443605268934204BF0023F9
:10AD90004360704770B5446806460D46206818B198
:10ADA000B3682946984718B923682B60256070BDA1
:10ADB0002468F3E74368186808B102681A607047AE
:10ADC0004368186870474368186800B9704788423C
:10ADD000026802D11A600120704703461046F4E76A
:10ADE0000D4930B5A1F594720225914201D8002099
:10ADF0000EE08B1ADB1093FBF5F302EBC30452F861
:10AE00003330834205D802D204F10802EDE76068CE
:10AE100030BD2146E9E700BF48B9050008B5FFF796
:10AE2000DFFF024B002808BF184608BD0AB805001E
:10AE3000F8B50F4B002420220F460D2183F88A20FD
:10AE40001C7083F8784083F88C1022462346054610
:10AE50001FF0CEF8064650B12146284619F0DFFE15
:10AE6000377029460348BDE8F8401EF0EFBAF8BD38
:10AE70003A62002029A4040073B502AB00220C46FC
:10AE800003F8012D114619F019F838B90A4B9DF84D
:10AE9000071093F843200D25824202D86FF01B0063
:10AEA00006E005FB0036F67B8E4203D120700020C1
:10AEB00002B070BD0130EFE73A6200200B4BD3F8CF
:10AEC00001202AB983F878201146094819F0BDBB42
:10AED0008C2A0BBF0722062283F8782083F878207B
:10AEE00007BF0022032100220221EEE73A62002080
:10AEF00031AE020037B5114C054619F06FFC2278CF
:10AF0000042A07D142782AB929460D4819F09DFB39
:10AF100003B030BD0DF107014088FFF7ADFF0028F9
:10AF2000F6D19DF8073007480D2202FB034329465E
:10AF30005A7D01325A751EF089FAE9E73A6200201B
:10AF4000D1B1020099B3020008B50022FF210948DF
:10AF50001EF06AFD0022FF2107481EF065FD7522E4
:10AF6000002106482EF085FD054B064AC3F8F82B54
:10AF700008BD00BFBDAE0200B9AF02003A620020BA
:10AF80002063002049B5020010B50022084C094892
:10AF900011461EF049FD94F8440004F055F80023D2
:10AFA0002022237084F88A2084F8783010BD00BFF6
:10AFB0003A620020B9AF020010B5044620B9094832
:10AFC000BDE8104019F01CBBFFF7DEFF00230C2189
:10AFD00020461A461FF00CF821460348BDE81040F1
:10AFE0001EF034BAB9AF020029A4040008B500224B
:10AFF000FE2105481EF018FD002201210348BDE88E
:10B00000084019F022BB00BFBDAE020031AE020005
:10B0100070B50C4BD3F845302BB11C7CD3F81150D4
:10B020000023A34201DB002070BDC3EB03122A44BE
:10B030001688864202D1127A8A4201D10133F0E7A2
:10B040000120F1E73A6200202DE9F047044688B07C
:10B05000C0790E4619F0C2FB90F80BA0077B804622
:10B060005744D4F80950BD4280F090802B1D08EB66
:10B070004303AA4594BF02210121B3F80590484635
:10B08000FFF7C6FF002800F08A80DFF838A11C21F6
:10B09000304619F037FDDAF809300546D046002B66
:10B0A00050D0217806A818F08FFBA279DAF809A011
:10B0B00022444B46527806A90220D047002841D1AD
:10B0C0006FF04402D4F809309F4270D13D4F97F899
:10B0D0004A30002B67D0B7F875204FF6FF739A42BD
:10B0E00061D00025217806A818F0B0FB2B462A462F
:10B0F00001210095304601F0B7FCB7F875101EF03D
:10B1000096F801464FF48273042201F8015BCDE901
:10B110000232049597F844300193A379234406AA98
:10B120005B7800933046022301F02CFCA379E1798F
:10B1300025480133A3711EF089F90023E37108B09B
:10B14000BDE8F0871C22002128462EF092FC2846FC
:10B150001FF004F998F844302B72A5F80A90B8F85B
:10B1600075204FF6FF739A4212D1217805F10D0038
:10B1700018F02AFB03232B73A379234430465B7812
:10B180006B75124B2672AB610DF080FF002299E7C0
:10B1900001232B73B8F87530A5F80D30ECE70135B5
:10B1A000C4F809505DE7304619F0B8FABEE7002A46
:10B1B000C5D00133C4F8093031462046FFF744FFBB
:10B1C000BDE700BF3A62002099B302006DB20200F1
:10B1D0002DE9F341CFB2054638460C4619F0FEFA88
:10B1E000204EC1888046D6F8450000F056FFB8F8DA
:10B1F00002300DF10701A8B11846FFF73DFE30BB44
:10B200009DF807300D2101FB036429462076607606
:10B21000A076E0762046A7750F30FFF715FF02B045
:10B22000BDE8F0811846FFF727FE804678B99DF803
:10B2300007000D2303FB00603946437D013343754E
:10B2400009481EF003F9002DE9D0444600E015B18D
:10B25000284619F063FA002CE1D0E0B219F05EFA4A
:10B26000DDE700BF3A62002099B302002DE9F04FFC
:10B270001C2185B08146304C19F044FC94F84320E1
:10B28000834600250D21954215D32C4B1B687BB9B5
:10B290000CF0B5F8014658B904230093CDF804909A
:10B2A0004FF4BA7340F25B324FF0FF301EF050FEA5
:10B2B00005B0BDE8F08F01FB05F804EB0803D87D6D
:10B2C00048450DD10026DE75484619F0A1FC48B16D
:10B2D0006FF07303A670E67026716370012609E0B3
:10B2E0000135D0E701236070A070E070207184F810
:10B2F0004A3006460D2707FB054702A8F97B18F0E0
:10B3000063FAD4F809A0BAF1000F07D07B7D1F447F
:10B3100002A9BBF80A303A7C3046D0470D2303FB24
:10B32000054508F10F00AB690133AB614946204484
:10B33000FFF78AFEBCE700BF3A6200209C71002044
:10B3400070B50E4605460146304619F068FC8C2D56
:10B350000F4C03D1072384F8783002E0B5B984F8A4
:10B3600078502378052B06D1002394F878200C21FF
:10B3700030461EF03DFE00232370202384F88A30DF
:10B3800031460448BDE870401EF060B80623E2E78D
:10B390003A62002029A404002DE9F341054619F082
:10B3A0001DFA0DF105014088FFF766FD07460028EC
:10B3B0004AD19DF80530274C0D2202FB0346717DD2
:10B3C000307D884222D93144284691F810800321EB
:10B3D00019F056FA0322394604462EF04AFBF17B57
:10B3E0000DF1060018F032FABDF80630238084F81B
:10B3F00002801949284621F047FFFF2803D129463A
:10B400008A20FFF79DFF02B0BDE8F081FF21022BEB
:10B41000F1730BD803FB022000F10F01C3F103030A
:10B4200002305A43214420442EF00AFB94F8433062
:10B43000013BDBB284F8433033B9D4F801208C2AC5
:10B4400008BF072384F87830002DDCD0284619F097
:10B4500065F9D8E73A620020F5AE02002DE9FF4712
:10B46000364D804619F0BAF995F80090B9F1040FFD
:10B4700007465AD10DF10D014088FFF7FDFC8246C9
:10B48000002858D19DF80D400D2606FB04560DF1FD
:10B490000E00F17B18F0DAF93B793375042B86F84E
:10B4A00015A029D9264B1A689A4602BB0BF0A7FFB4
:10B4B000014650B9337D40F25B32CDE900934FF045
:10B4C000FF3040F2B3331EF043FDDAF8003073B9B9
:10B4D0000BF095FF014650B90423CDE9003340F24B
:10B4E0005B3240F2B5334FF0FF301EF031FD0D23DB
:10B4F00003FB045304221A750D2303FB0453197D27
:10B5000004EB440304EB830400238B4206D341463F
:10B510000C481DF09BFF04B0BDE8F087FA18507985
:10B520001A192A4401331074EFE76FF007004146FF
:10B53000FFF706FFEFE70020F9E700BF3A620020BF
:10B540009C71002099B302002DE9F047664D2B78DD
:10B55000042B8CB0064640F0C380D5F801301C3374
:10B5600004D100236B70AB70EB702B711B21304644
:10B5700019F0C8FA1B22014605A82EF056FA03A9B5
:10B58000BDF8150018F0C6FC28B9584B93F8340ED6
:10B5900010F0200414D00621304619F0B3FABDF89B
:10B5A000153043800380002383805149304621F0C9
:10B5B0006BFDFF2874D131468A20FFF7C1FE6FE092
:10B5C000FF238DF80A302B78BDF815709DF81F9079
:10B5D000042B1FFA87F810D10DF10A014046FFF73E
:10B5E0004BFC70B195F84330032B04D88DF80A302A
:10B5F000013385F84330204601E06FF00700012455
:10B6000000E004469DF80AA0BAF1FF0F4DD0002CCF
:10B6100049D000220DF10B031146404618F04EFCB4
:10B62000002842D10D2303FB0A539DF80B20DA7347
:10B63000187558754FF00D0808FB0A5898F8143023
:10B64000032B35D808EB0302013382F8109088F8F9
:10B650001430002C43D00521304619F011F9052291
:10B66000044600212EF005FA002363700D2303FB2E
:10B670000A5567802B7D23711E4B1B6863B90BF045
:10B68000BEFE014640B900904FF45F7340F25B325A
:10B690004FF0FF301EF05CFC314617481DF0D6FE1F
:10B6A0000CB0BDE8F0870028C4D0314600B284E772
:10B6B000104B1B68002BCCD10BF0A1FE01460028DB
:10B6C000C7D198F8143001930423009340F25B3201
:10B6D00040F271334FF0FF301EF03AFCB9E73046CC
:10B6E00019F01CF8DCE700BF3A620020206300205C
:10B6F00099B702009C71002099B30200F7B50E467D
:10B7000002A9FF25044601F8025D3046FFF7B4FBAD
:10B71000A0B31F4A92F84330032B04D88DF80630AB
:10B72000013382F843309DF80650FF2D29D002AB3B
:10B73000002203F8012D1146304618F0BFFB0746E2
:10B74000F8B9134B0D2202FB05359DF80730EB735A
:10B750000221204619F094F80546022239462EF0BF
:10B7600088F92E800B49204621F0A7FDFF2803D140
:10B7700021468A20FFF7E4FD03B0F0BD8DF80650A6
:10B78000D1E7002CF8D0204618F0C8FFF4E700BF3E
:10B790003A6200205DB4020037B5044619F01EF885
:10B7A0000546204619F034FA024658B969890DF168
:10B7B0000703A81C18F0A8FC69892046FFF79EFF24
:10B7C00003B030BD204618F0A9FFF9E72DE9F74393
:10B7D0000A9F1E4680468946154601F063F9D0F857
:10B7E000B030DBB101F05EF90097D0F8B0403346DD
:10B7F0002A4649464046A04704464A46414628460E
:10B8000003F097FE14F1450F03460BD148B13A46B9
:10B810002946304603B0BDE8F04318476FF04404B2
:10B82000EBE70446204603B0BDE8F0832DE9F04184
:10B83000069F05461E4603F091FE044630B13A4687
:10B84000314628462346BDE8F0411847BDE8F0815F
:10B85000B0F80F30B3F5A06F01D103F08BB970478A
:10B860000020704770B51B2188B0054619F04AF9D1
:10B870001B22014601A82EF0D8F801F013F9D0F8E8
:10B88000AC604EB101F00EF9D0F8AC309DF810006C
:10B8900098476FF01E0017E001F004F9D0F89C30D3
:10B8A000002BF6D03421284619F02CF91D23037003
:10B8B0009DF8103043704660044601F0F3F8D0F86C
:10B8C0009C3028469847606801F038F901A9024683
:10B8D000284603F0DDFE08B070BD000010B5FF285B
:10B8E00088B0044607D101F0DDF80C4BC0F858329F
:10B8F000012008B010BD1B2119F004F91B220146DC
:10B9000001A82EF092F89DF8173023B9214604487B
:10B910001DF09CFDECE70020EBE700BF742B00203E
:10B9200065B8020007B5054B00930023044A0121C6
:10B93000184603F067FC03B05DF804FBDDB80200B5
:10B9400061B80200F8B50C46154607461E4600F0E1
:10B950009BFA0122002100F0D0FB90B112230122BA
:10B960000021384601F058FF58B14368187840B9B3
:10B970001EB1052C05D90B2C02D1032D01D00020BE
:10B98000F8BD0120FCE7000037B50146044600225F
:10B990000F4818F05AFE0546B8B10E4B1B6873B934
:10B9A0000BF02DFD014650B90423009301954FF48F
:10B9B0009F6340F60F024FF0FF301EF0C9FA204699
:10B9C00003B0BDE8304018F0A9BE03B030BD00BFE1
:10B9D00005C402009C71002013B5154AD2F8443901
:10B9E0001BB1D2F848392BB90123023302EB830390
:10B9F000C3F83C09D2F84039BBB9C2F840090D4838
:10BA000018F0FEFD044680B10B4B1B686BB90BF0C0
:10BA1000F6FC014648B90423009301947D2340F6C7
:10BA20000F024FF0FF301EF093FA02B010BD00BFBE
:10BA300020630020C5C402009C710020F8B5124BA1
:10BA4000D3F8E8390446007803B198470F4F2278BD
:10BA50003A700025237C9D4202D3FF233B70F8BD42
:10BA6000D4F81130C5EB05163344D3F80B3003B1CD
:10BA70009847D4F81120B4F801102078324405F02A
:10BA8000A5F80135E6E700BF20630020842B0020E5
:10BA90002DE9F04F454BD3F840398DB0002593F890
:10BAA00000A00793AC465FFA8CF9CA457CD9079B86
:10BAB000D3F8013053F805B05A199BF810300992A9
:10BAC0000A93002201231AE0C3EB0311C2EB021810
:10BAD0000B9100200999DDF82CE051F82010069117
:10BAE000097C08911946089C8C4210D8013009EB5A
:10BAF0000001C9B28A45EDD801330132DBB20A98A0
:10BB0000D1B28842E0D80CF1010C0435CBE7DBF868
:10BB10001170069E07EB08040594D6F8116024887E
:10BB200076443788A7423AD1059F367A3F7AB742A2
:10BB300035D1042C12D0192C10D0202C0ED040F26C
:10BB40000B76B4420AD040F20126B44206D0B4F5D6
:10BB5000006F03D04FF65746B44220D1144B1B68F8
:10BB6000CBB90BF04CFCB0B9104BD3F84039D3F83B
:10BB700001305B59D3F811309844014698F80830E9
:10BB8000CDE901430823009340F60F02D2234FF082
:10BB9000FF301EF0DDF900200DB0BDE8F08F01315F
:10BBA000C9B20EF10F0E9EE70120F5E720630020D9
:10BBB0009C710020272807B5034620D041D81A28B9
:10BBC00038D022D80D2800F0978011D80A2831D01B
:10BBD00007D8082800F0898009287DD04FF0FF3071
:10BBE00084E00B2800F086800C28F7D105207DE04A
:10BBF00010287AD005D80E2821D00F28EED10820A1
:10BC000074E0182871D01928E7E720286DD00AD8E9
:10BC10001D2871D003D81B286CD01C28E5E71E28EE
:10BC20000DD01F28EAE7232864D005D8212853D057
:10BC30002228D3D1032059E025285DD0D6D907206A
:10BC400054E03A28DBD019D82D2855D00AD82A2814
:10BC5000F0D003D8282848D02928BEE72B2849D07F
:10BC60002C28C2E7302840D003D82E28E7D02F2830
:10BC7000C4E7382830D03DD83128AEE7E22826D8AE
:10BC8000E02837D243280ED009D84128A6D300296E
:10BC9000A4D00878FF28A1D00130C0B226E04828FF
:10BCA00001D04A289AD102A80022482B20F8022D60
:10BCB0004FF0020201D0432B20D12DF0B6FEBDF88B
:10BCC00006004FF6FF73984288D002300EE0EA2853
:10BCD00010D003D8E82881D3022007E0F0288ED0C6
:10BCE000F1287FF47BAF102000E00120C0B203B048
:10BCF0005DF804FB0420F9E70620F7E72DF095FE38
:10BD0000BDF806309B00ADF80630D8E7252973B59D
:10BD1000044615463DD026D8182930D016D80A2911
:10BD20006BD006D808292AD009295FD0204602B056
:10BD300070BD0F297ED0102921D00B29F6D12046C5
:10BD4000042229462DF071FE0434EFE7202916D095
:10BD500004D81A2951D049D31B29EFE722294CD006
:10BD600044D32329EAE742291AD841294CD22B2966
:10BD7000E5D008D8292939D03FD82829D6D12B7821
:10BD800004F8013BD2E73029F9D031292ED02D29F2
:10BD9000CCD12046062229462DF047FE0634C5E7C1
:10BDA0004A2904D01CD8432901D04829BED102A871
:10BDB0000023482920F8023D4FF0020201D0432918
:10BDC0002FD129462DF031FEBDF806604FF6FF73E6
:10BDD0009E42ABD00236B6B23246294620461CE01F
:10BDE000F02927D0F1292CD0E229A7E7204602220A
:10BDF00029462DF01AFE023498E7204603222946F0
:10BE00002DF013FE033491E7002A8FD01678FF2E11
:10BE10008CD00136F6B2324629462DF006FE344467
:10BE200084E729462DF001FEBDF806309B00ADF8F1
:10BE30000630C9E72046082229462DF0F6FD0834D1
:10BE400074E7102229462DF0F0FD10346EE7000053
:10BE50002038C0B20D289ABF014B185C00207047F3
:10BE6000F6BC05002B2809D8282805D2202809D39C
:10BE7000232801D9252805D1012070472D28FBD082
:10BE8000E228F8E70020704770B51449D1F844293A
:10BE90000AB315780024AC4208D2D2F8013053F826
:10BEA00024301E78864202D00134F4E70023D1F812
:10BEB00048492CB125780022AA4203D319460B46E3
:10BEC000184670BDD4F8011051F822100E78864241
:10BED000F5D00132F0E71346F2E700BF20630020FF
:10BEE00070B51B2188B0044618F00CFE1B220146D9
:10BEF00001A82DF09AFD9DF810603046FFF7C4FFB1
:10BF00009DF81A30BDF813209DF8171005463046ED
:10BF1000FFF718FD20B9204618F000FC08B070BDEE
:10BF200006F05EF940B9D5F80330EBB9204603F0CE
:10BF300040FB024650B9F1E7BDF8130005F02DF9BA
:10BF400048B19DF812301B0705D47E2201A9204676
:10BF500003F026FCE2E7BDF81310BDF8050005F07C
:10BF6000CDF80028DFD1F0E7074BD3F8F03B33B929
:10BF7000D5F80330204698470028D7D0CEE701A84F
:10BF800098470028D2D1F3E72063002000F52D3335
:10BF9000F0B503F2A513104D03F00F0213462C4623
:10BFA0009F1C05EBC70696F840C9BCF1000F07D1EE
:10BFB00004EBC70383F84009C3F83C190020F0BD27
:10BFC000D6F83C69002EF3D0013303F00F039A42F8
:10BFD000E6D16FF01500F2E720630020F8B500F518
:10BFE0002D3303F2A513164903F00F0213460D4635
:10BFF0009C1C01EBC40696F84079874218D118F0D2
:10C0000007FE08B122F09CFE05EBC406D6F83C09F9
:10C0100058B139461DF01AFA0020C6F83C0905EB64
:10C02000C404002384F84039F8BD6FF01B00F6E724
:10C03000013303F00F039A42DAD16FF01B00F3E7EC
:10C040002063002037B50D46144619469DF81C3074
:10C05000E8B14268DAB13BB1C3785A0617D49B07FE
:10C0600002D4882003B030BD069A0388009220468F
:10C070002A46FFF7ABFB411C0BD0821D0BD0831C63
:10C08000EFD010F1280F14BF00207E20EAE78620B1
:10C09000E8E78720E6E70020E4E7034648B3D0F866
:10C0A000150028B3B3F80130994224D0B1F5827F4E
:10C0B0001FD06FF480728A18072A0DD94FF6FF72CD
:10C0C000914211D1B3F5827F15D04CF25E008342CC
:10C0D00014BF00200120704701204CF25E02914203
:10C0E00004D1B3F5827FF3E70020F6E70028F8D10A
:10C0F0007047002070470120FAE770B598B1057CC1
:10C100000024AC4202D30023184670BDD0F8113091
:10C11000C4EB041633441E888E4202D11E7A964226
:10C12000F2D00134EDE70346EEE700002DE9F04FD1
:10C1300087B083460D4616461F46109C01F06CFBE7
:10C140008046002800F08780002C00F084809DF855
:10C1500044302A46CDE9004359463346FFF772FF83
:10C160000390A0BB3B463246294658460094FFF751
:10C170005DFB214698F80200D8F80490FFF71AFDFD
:10C180002146024648462DF050FC98F803305907E6
:10C1900005D53B4632462946584604F0A5FB98F89B
:10C1A00003301A0713D54FF0000A2C4B5344D3F831
:10C1B0004499B9F1000F0AD04FF0000899F8003007
:10C1C000984508D30AF1040ABAF1080FEDD1039893
:10C1D00007B0BDE8F08F4FEA88030493D9F8013027
:10C1E00053F8280003785B4532D032462946FFF7E2
:10C1F00084FF0028E2D0394601F00AFA02900028B4
:10C20000DCD0D9F80130049A9B582946187800945C
:10C2100032463B46FFF70AFB029B5B680593029B95
:10C2200021469878FFF7C6FC059B02462146184632
:10C230002DF0FBFB029BDB785B0709D5D9F80130B9
:10C24000049A985829463B463246007804F04CFB45
:10C2500008F10108B2E701230393B8E72063002047
:10C260002DE9F74F00250646894693460193009530
:10C27000264BEB18D3F8447917B3002E43D03A7805
:10C2800000239A4203F1010403D84FEA840A06B35B
:10C2900013E0D7F8011051F823301978B142234642
:10C2A000EFD10026F1E7012080B101994046FFF768
:10C2B000F4FE58B198F8003000930435082DD7D11A
:10C2C000009803B0BDE8F08F5A4614E001340AF13B
:10C2D000040A3B78A342F0D9D7F80130BBF1030F31
:10C2E00053F80A80F0D1012249464046FFF705FF86
:10C2F0000028D8D1022249464046FFF7FEFE003012
:10C3000018BF0120D0E73446BFE700BF20630020FC
:10C3100037B51B21054618F0F5FB037BFF2B0446C0
:10C3200030D1037DB0F80F10002B08BF0122B0F808
:10C33000113018BF02220020FFF792FF28B92846CB
:10C3400003B0BDE8304018F0E9B920730022294657
:10C35000104818F07AF90446D0B10F4B1B68002B37
:10C36000EDD10BF04CF801460028E8D104230093EE
:10C37000019440F2525340F60F024FF0FF301DF08F
:10C38000E7FDDCE7284603B0BDE83040FFF7A8BD75
:10C3900003B030BD05C402009C71002030B589B0E7
:10C3A00004461B22002101A82DF063FB01A92046B1
:10C3B00002F0B0FE01A905460246204611F0BAFF80
:10C3C000B8B9204618F00AFA037813F0040F14BF26
:10C3D00005210321204618F0CBFA1B21204618F036
:10C3E00091FB1B2201A92DF020FB25B92046FFF768
:10C3F0008FFF09B030BD2A4601A9204603F0D0F9CD
:10C40000F7E700002DE9F041CDB207461B21284691
:10C4100018F078FB04462946384618F000FA94F8DC
:10C420000C80124E1CF0DCFE3946B0FBF6F61048CC
:10C4300032461DF031F9237DB4F80F10002B0CBFEC
:10C4400001220222B4F811304046FFF709FF20B95B
:10C450002846BDE8F04118F061B9207332462946FC
:10C460000448BDE8F0411DF017B900BF7CF0C107DA
:10C47000E1BE020089B902002DE9F84F002481468F
:10C480008A4627460E4BE318D3F844699EB196F8C6
:10C4900000B00025AB450BD9D6F8012052F8258015
:10C4A000494652464046FFF728FE38B198F80070DA
:10C4B0000434082CE6D13846BDE8F88F0135E9E7A9
:10C4C0002063002013B50446B8B9144818F098F852
:10C4D000044680B1124B1B686BB90AF090FF01460D
:10C4E00048B9042300930194402340F60F024FF013
:10C4F000FF301DF02DFD02B010BD01212020FFF7FF
:10C50000BBFF0146204621B102B0BDE8104003F058
:10C510005BBE02B0BDE8104018F000B9C5C402000F
:10C520009C710020F0B50E4E054600234FF6FF70BB
:10C530009A19D2F8441981B10F780022974209D98B
:10C54000D1F8014054F8224094F800C0AC4505D120
:10C55000B4F801000433082BEAD1F0BD0132EDE755
:10C560002063002038B504460D46FFF7DBFF44B1D9
:10C57000B0F5827F05D14FF657402B1A58425841EB
:10C5800038BD0020FCE700002DE9F84F002482466A
:10C5900088462746104BE318D3F844693EB196F815
:10C5A00000B000255D4505D30434082CF2D138468F
:10C5B000BDE8F88FD6F8012052F825905146424642
:10C5C0004846FFF79AFD10B1027A424501D0013585
:10C5D000E8E74F46E8E700BF2063002038B51B219D
:10C5E00018F090FA0446007BFFF74EFC257DB4F866
:10C5F0000F10002D14BF02220122FFF77EFD124B07
:10C600001B7A012B15D0227EA37D6AB1002B0CBFB3
:10C6100083238423A8B1012D0DD1027A12F0020FD9
:10C6200018BF0023184638BD002B0CBF812382237E
:10C63000F0E78123EEE7002DF4D1027A12F0010F2A
:10C64000EEE7C323EEE700BF943A002007B50422CB
:10C6500001460DEB02002DF0E8F9019803B05DF8FA
:10C6600004FBF7B50191102116461F46054618F048
:10C6700049FA0446284613F0DFFF9523032E236072
:10C680009DF8203008BF0199A37316BF01A90822A5
:10C69000022227716671A01D2DF0C7F9294609985D
:10C6A0001CF0D4FE03B0F0BDA1F5E0630B2B04D960
:10C6B000A1F50063584258417047012070470000BF
:10C6C0002DE9F04F8DB08B4608931821BDF85830F6
:10C6D00007939246064618F015FA0446304618F0BD
:10C6E0007DF8237B0693637B05930378B4F80A8077
:10C6F0008178E77B13F0030F81460CBF01230023F1
:10C7000042460598FFF71EF90546B0B9BAF1000F89
:10C710000DD0059B0093CDF804A0069B3A46214618
:10C720003046FFF79EFF28460DB0BDE8F08F30463B
:10C7300017F0F4FF6FF00705F5E741462089FFF792
:10C74000B3FF0546BBF1000F17D05946304618F02D
:10C75000ECF80990304618F04BF8099B83420CD94D
:10C760005946304618F0E1F88346304618F040F854
:10C77000ABEB0001304618F0D5F9012F11D0E37B67
:10C78000022B04D122884FF6F7739A4209D840460B
:10C7900004F0E8FC28B1089B1BB9237C43F0040398
:10C7A00023741DB1237C43F0080323740CF078FB41
:10C7B0000546002862D105F013FD00285ED04046F2
:10C7C00004F0EBFC002859D0082229460AA82DF0D5
:10C7D00050F9022F3BD0032F43D0002F0CBF002570
:10C7E0006FF0270505F0FCFC002840D0002F3ED05C
:10C7F0004DB90AA80CF07EFB28B102210AA822F04C
:10C8000095FE002836D15D4B1B6873B90AF0F7FD21
:10C81000014650B90423009340F60F03CDF804807D
:10C820001A464FF0FF301DF093FB6FF02705BAF169
:10C83000000F3FF478AF059B0093CDF804A0069B52
:10C840003A4621463046FFF70CFF00256BE70AA960
:10C85000208817F05FFB002814BF6FF02705002524
:10C86000C0E7082221460AA82DF0DFF8BAE7002D1C
:10C87000C9D1C2E7237C43F00103237441460598E4
:10C88000FFF770FE68B1082200210AA82DF0F1F828
:10C89000022F1ED0032F52D03FBB237C43F0010355
:10C8A000237451463046FFF771FB05460028BED180
:10C8B000304617F093FF0378DB0602D4012022F004
:10C8C000F1F9079B002B53D131462D481CF0BEFDDA
:10C8D00029E70AA9208817F01DFB054630B9022177
:10C8E0000AA822F023FE0028D7D10025234BD3F835
:10C8F00000B099F802300B2B27D199F800305A0775
:10C9000023D199F80430012B1FD1BBF1000F12D1B4
:10C910000AF075FD014670B9CDF8088099F803302A
:10C9200001930823009340F60F0240F657034FF09F
:10C93000FF301DF00DFB002D7FF479AFB1E7082229
:10C9400021460AA82DF071F8C9E7BBF1000F7FF46A
:10C950006CAF0AF054FD00287FF467AF0423009306
:10C96000CDF8048040F65E0340F60F02594658E7C2
:10C97000079A034831461CF08FFED4E69C710020D4
:10C98000D1AD03002DE9F74F1D469DF830300193DE
:10C990000F46109B00931821934606469DF834A03D
:10C9A000BDF83890BDF83C8018F0ACF81822044669
:10C9B00000212DF05EF8032D0CBF082202225946FB
:10C9C000E57320462DF031F8019B009A2373394618
:10C9D0000023304684F80DA0A4F80890A4F80A803B
:10C9E0000C9303B0BDE8F04FFFF76ABE2DE9F04F9E
:10C9F00087B01D469DF840300593CDE90101149B99
:10CA00000493182103929DF844B0BDF848A0BDF8E6
:10CA10004C909DF854809DF85860BDF85C7018F0FB
:10CA200071F81822044600212DF023F8032D0CBFC5
:10CA3000082202220399E57320462CF0F6FFDDE977
:10CA40000101059B049A2373334684F80DB0A4F8C2
:10CA500008A0A4F80A9084F81080109707B0BDE8E9
:10CA6000F04FFFF72DBE00002DE9F041069D0E4668
:10CA700090461F4617F03EFF094B00F8016B93F8F4
:10CA80003C49621C83F83C29730702D541461CF0DF
:10CA9000CEFB04704770023005B12C70BDE8F08108
:10CAA00020630020004870475C6C002000487047FD
:10CAB000943A002002289DBF024B187000206FF0AE
:10CAC00005007047943A0020014B187A704700BF68
:10CAD000943A002001289DBF024B187200206FF08D
