:020000022000DC
:1070000000D00020B5720200DD720200DF720200C3
:10701000E1720200E3720200E5720200000000006B
:10702000000000000000000000000000E772020005
:10703000E972020000000000EB720200ED72020033
:10704000413E0300EF72020001430300EF720200B1
:10705000EF720200EF7202005D4103006144030021
:10706000EF720200EF720200EF720200EF72020094
:10707000EF7202001D440300EF720200EF72020083
:10708000EF720200B9880200EF720200EF72020094
:10709000EF720200EF7202006D510300A598050027
:1070A000EF720200EF720200EF720200EF72020054
:1070B000EF720200EF72020000000000000000000A
:1070C000EF720200EF720200EF720200EF72020034
:1070D000F1870500EF720200EF720200EF7202000A
:1070E000EF7202000000000000000000000000003D
:1070F00000000000EF72020000000000EF720200CA
:10710000000000000000000000000000000000007F
:10711000000000000000000000000000000000006F
:10712000000000000000000000000000000000005F
:10713000000000000000000000000000000000004F
:10714000000000000000000000000000000000003F
:10715000000000000000000000000000000000002F
:10716000000000000000000000000000000000001F
:10717000000000000000000000000000000000000F
:1071800000000000000000000000000000000000FF
:1071900000000000000000000000000000000000EF
:1071A00000000000000000000000000000000000DF
:1071B00000000000000000000000000000000000CF
:1071C00000000000000000000000000000000000BF
:1071D00000000000000000000000000000000000AF
:1071E000000000000000000000000000000000009F
:1071F000000000000000000000000000000000008F
:1072000010B5054C237833B9044B13B10448AFF3E0
:1072100000800123237010BDE03400200000000036
:10722000C0E6050008B5034B1BB103490348AFF3A3
:10723000008008BD00000000E4340020C0E6050026
:10724000154B002B08BF134B9D46A3F5803A002138
:107250008B460F461348144A121A32F0E8FC0F4BC3
:10726000002B00D098470E4B002B00D098470020F1
:10727000002104000D000D48002802D00C48AFF397
:10728000008032F059FC200029000EF0DBFF32F0C4
:107290002DFC00BF0000080000D00020000000000E
:1072A00000000000E0340020BC9C00200000000032
:1072B000000000000649074A074B9B1A03DD043B08
:1072C000C858D050FBDC10F0B9F9FFF7B9FF000047
:1072D00094E80500E82A0020E0340020FEE7FEE7FD
:1072E000FEE7FEE7FEE7FEE7FEE7FEE7FEE7FEE776
:1072F000F0B595B01C46164608460D4602F0BCF99E
:107300001A9B0D93CDE9086400242346082205A9A1
:1073100028460A948DF82C400C9402F0CBF9079B78
:107320000293BDF81830ADF80C30BDF81A30ADF846
:107330000E309DF814308DF8114003F00302012A3D
:107340001DD1BDF81440059EC3F3C203C4F38314DA
:107350008DF81030A20008230EA9284602F0AAF9E1
:10736000C6F3952608AB0093224602AB0EA9304621
:1073700000F026FD284602F083F915B0F0BD022A80
:10738000F8D1BDF81640C3F3C203A4098DF810303C
:107390000827082C264628BF08263B4632460EA959
:1073A000284602F087F9A41B08AB02AA31460EA8B2
:1073B000374400F069FD002CEBD1DBE7014B0122E3
:1073C0001A7070473D3500207047000070B50F4DB2
:1073D00006460FCD88B06C460FC495E80F00002E0E
:1073E00084E80F004FF006030093094A09484FF064
:1073F000805308BF0022694606930CF085FC08B153
:1074000000F014FF044B1E7008B070BD8CB5050071
:10741000BD730200E82A0020FC34002007B5044BAD
:107420000093044A4023FFF763FF03B05DF804FBB9
:1074300039740200FD34002038B50D4B0D4D00208D
:1074400018700D4804782D5DD2B21C4665B1043029
:107450000DF04CFD08B100F0E9FE084B1A7812B1AE
:107460002378002BFBD038BD0C300DF0DBFAF1E7B0
:107470003D35002034820020E82A0020FC34002022
:1074800008B50848084A0378D35C3BB104300DF0D6
:10749000BFFC0020BDE80840FFF798BF0C300DF09E
:1074A00067FAF6E7E82A0020348200200120FFF77F
:1074B0008DBF000008B5FFF7F9FF0421034800F075
:1074C000DDFB034B01225A7108BD00BF7CE80500BB
:1074D000FC2A0020037813F0040216D003F0030303
:1074E000012B03D0022B09D0012070470A680088C5
:1074F0000232C0F3831002440A60F5E70B68428849
:10750000023303EB92130B60EEE710467047000066
:107510002DE9F04F89B00546861C08A8484C019219
:1075200000230F4600F8113D01F042F823683B604C
:10753000D4E901231344226801339B1A04F21C4747
:1075400004F5836A04F21448B3421AD3019A002363
:10755000002A6DD0012262F3010343F0040365F3B6
:1075600089132168A2689DF80F000A4003320E4477
:1075700044F82230266001F03FF8012009B0BDE850
:10758000F08F0121384601F09DFA504601F0B3FA20
:10759000404601F0B0FA0DF120096068D4F808B057
:1075A00049F8100D00EA0B00033004EB8000494657
:1075B000FFF790FF049BB0B90BEA030204EB8202D1
:1075C000D16805919A1C013303EA0B0B04EB8B0C79
:1075D00001F00303012B0492DCF80CB020D0022B45
:1075E00004D083460BE00BEA0300DDE7BDF816305C
:1075F0009B0903334FEA1B4B02EB93030493404672
:1076000001F07CFA08B1049B63605946384601F0EA
:1076100059FAD4E901231344226801339B1A93E7F2
:10762000BDF81430C3F383134FEA1B4B1344E5E753
:10763000022262F3010343F0040365F39F5390E7D2
:107640001036002030B50A4B0A4A0B49D21AD2082C
:1076500000239A4201D1052006E031F82350046846
:10766000A54202D10360002030BD0133F1E700BF25
:1076700074E705007CE80500D83300202DE9F84FB9
:10768000224B2348FF229A600022C3F81824C3E942
:107690000022C3F8142483F8202401F0A6FF8046BA
:1076A00088B91C481C4E1D4DDFF874A002F031F95A
:1076B000AD1BED084446AC4208D1002318491948D7
:1076C0001A469C421BD14046BDE8F88F4FF0000996
:1076D0004F4606EBC40BBC420AD0142256F83710B2
:1076E000DBF8000032F018FE0028C8BF09F10109DC
:1076F0000137BD42EFD12AF824900134DBE701EBDA
:10770000830540F823206A800133DAE71036002031
:107710005CE70500CCB5050074E705007CE80500D2
:10772000D83300205C34002007B5019031B9019AAC
:10773000064B53F8320003B05DF804FB01A8FFF7D5
:1077400081FF0028F3D00020F5E700BF74E70500B3
:10775000094B013903EBC000032909D8DFE801F028
:107760000A02040604207047007970474079704788
:10777000002070470220704774E7050030B5124CB6
:1077800000EB400054F821508240072303FA00F038
:107790006A4002400D4B6A40C2F3821044F8212037
:1077A00003EB8101C2F3C203834238BF0346C2F335
:1077B0004220834202F0070238BF03469A4238BF94
:1077C0001A464A8030BD00BF5C340020D833002008
:1077D00037B5164B93F8203404460BB918B900247A
:1077E000204603B030BD32F08FFD02AA013042F8CE
:1077F000080D012301A90E4802F099F8054600285A
:10780000EDD12146009A019832F0EDF9DDE900232F
:107810001344074803F8015C009902F0BFF800998F
:10782000034802F0D4F8019CDAE700BF10360020CC
:10783000CCB50500034BD3E90030C31A5842584178
:10784000704700BF103600202DE9F04F87B0FFF7DA
:10785000F1FF0646002840F01B818E4DC5F8180444
:10786000BFF34F8F6868AC6806AF47F8100D204033
:10787000033005EB80003946FFF72CFE029B18B160
:10788000D5F81824002A66D004EA0302991C0133B3
:1078900005EB8202234005EB8303D268DB68049387
:1078A00002F00303022B0392029169D1BDF80E305E
:1078B00079489DF80C604FEA931ABAF1500FD146FF
:1078C00028BF4FF0500969F38F1309F10801ADF893
:1078D0000E3001F0A2FEC6F3C2068046002800F07A
:1078E000BE8001F0C9FE03A900230822404601F032
:1078F000D6FE029924EA01070137BF00B94538D9FD
:107900005FFA89F997B3FFB2A9EB07092140033168
:107910005FFA89FBB946614F05EB810108234A46AE
:10792000404601F0BCFE37B109F108035A4639461A
:10793000404601F0B4FE029B0AF1030A03EB9A03EE
:107940000293D5F81834002B50D1D5F81044DFF845
:10795000609107276FE02A689A4204D86A6030462F
:1079600007B0BDE8F08F04EA030081E74B49BB464E
:10797000D4E72140033108234A4605EB8101D7E7CC
:10798000012B6CD1BDF80C604348C6F38311062966
:1079900028BF062161F3891602318900ADF80C6019
:1079A00001F03BFEC6F3C2068046002857D001F026
:1079B00063FE0023082203A9404601F070FE002761
:1079C000BDF80C20C2F38312BB1C97424FEA83031D
:1079D000B7D202994A1C21400331029205EB810182
:1079E0000422404601F05BFE0137E9E7404601F022
:1079F00047FEFFF71FFF80F00100C6B2AFE7E36864
:107A00005A79B2B11B79BDF8101003EB430259F853
:107A1000211007FA02F3052E03EA010323FA02F309
:107A200008BF0326B34204D3236841461B6820469F
:107A30009847E3681C68002CE1D1404601F020FE25
:107A400006A800F8114D00F0B3FDD5F818340BB9B5
:107A5000029B6B609DF8070000F0CEFDC9E7D5F8EA
:107A6000104474B90E4B5B88012BC2D90D4B0E48E4
:107A70000E49C01AC008000440F0020000F072F87D
:107A8000B7E7236820469B689847E3681C68E8E7E7
:107A9000002664E7103600205CE705001C36002055
:107AA000F433002074E70500ACE70500D8B5050005
:107AB0005C3400202DE9F74F284C80460F46924653
:107AC00001A9012218469B46D4F80890FFF720FD33
:107AD00088B3019D0026A91C5E4506EB010234D146
:107AE00000211F4800F0B8FF80F310006A1C02EA72
:107AF000090204EB8202000405EA0903033340EAA9
:107B00001840D06014F8232068F3C50204F823203D
:107B100034F8232066F3891224F8232054F8232014
:107B2000012167F39F2244F8232061F301026FF3E0
:107B3000820204F8232094F820341BB1FFF784FE5E
:107B40000028FBD103B0BDE8F08F09EA020204EB84
:107B500082025AF82630D3600136BDE71036002085
:107B60002C3A002000231A46FFF7A4BF13B502AC3D
:107B7000012344F8042D2246FFF79CFF02B010BDFC
:107B800007B5CDE9002302236A46FFF793FF03B050
:107B90005DF804FB1FB5CDE90123069B039301AA01
:107BA0000323FFF787FF05B05DF804FB2DE9F347DA
:107BB0008046304CD01C8A46174601A90022800816
:107BC000A568FFF7A5FC002840D0DDF80490A66862
:107BD00009F10200019001362840361AB600033040
:107BE000B74204EB80003BD83A46514631F0FBFFE8
:107BF0000021214800F030FF80F3100009F101035B
:107C00002B4004EB83034FEA184242EA0040D8605D
:107C100005EA0903033304EB830214F8231068F325
:107C2000C50104F8231034F823106FF38F1124F8E2
:107C30002310518867F38F11518014F823200221FB
:107C400061F301026FF3820204F8232094F82034D8
:107C50001BB1FFF7F9FD0028FBD102B0BDE8F087AA
:107C60003246514631F0BFFFBA1B0AEB060104F160
:107C70000C00BBE7103600202C3A00202DE9F84319
:107C80001F4B8846D3F81014054600240A469AB9BB
:107C9000E9680C71D3F81014A1B9C3F81054EB685B
:107CA0001A60184F184EF61BF6084FF00009B14540
:107CB00011D12046BDE8F883D2681079A04218D0CF
:107CC0001268E4E7C968EA6809681160D3F81034FB
:107CD000DB681D60E5E707EBC9034946DA79EB6825
:107CE000424528BF42461879FFF748FD09F10109CE
:107CF000DDE701340A2CC9D14FF0FF34D9E700BFCA
:107D00001036002074E705007CE8050010B5037A02
:107D1000052B0C460FD0437A23B1084A0849204668
:107D200000F052FF0749204600F04EFF2046BDE814
:107D3000104000F03EBF002AF8D0F3E733B605004C
:107D400088C9050055B6050073B5C38804460D46BD
:107D500033B1144A00921449144A284600F034FF03
:107D6000217A05291CD0637A4BB1A088FFF7F0FC7B
:107D70000F4B104953F82020284600F025FF227AA7
:107D80000D4BA08853F822600021FFF7CDFC0B4972
:107D900003463246284602B0BDE8704000F014BFEA
:107DA00002B070BD33B6050040B6050038B6050018
:107DB00000B6050088C9050064B6050058B6050080
:107DC0002DE9F04385B01F460C9D002306460C4666
:107DD000904695F80C902B7329463846FFF7B4FF70
:107DE000B8F1060F09D8DFE808F00412181F28338D
:107DF00040003146284600F0E7FE0022294638467A
:107E0000FFF784FF85F80C9005B0BDE8F083226889
:107E10003146284600F0D8FEEFE7D4E9002331468A
:107E2000284600F0D1FEE8E7A36800933146D4E984
:107E30000023284600F0C8FEDFE7E3680193A3684B
:107E400000933146D4E90023284600F0BDFED4E774
:107E500023690293E3680193A36800933146D4E950
:107E60000023284600F0B0FEC7E763690393236947
:107E70000293E3680193A36800933146D4E9002399
:107E8000284600F0A1FEB8E708292DE9F84F804602
:107E90000E4617461C4635D8002593F80C901D73E6
:107EA00019461046FFF750FFDFF88CA0DFF88CB0C2
:107EB000AE4229D918F805205946204600F084FE24
:107EC0000135082DF4D11A49DFF874B0204600F0CE
:107ED0007BFE4FF0000A564524D918F80A507E2D33
:107EE00017D92E225946204600F06EFE0AF1010AEB
:107EF000BAF1080FEFD1012221463846FFF706FFFD
:107F000084F80C90BDE8F88F5146204600F05CFEE6
:107F1000D6E731F039FE2844427812F0970FE0D0CE
:107F20002A46DFE70349204600F04EFEDEE700BFA9
:107F30002EB605002CB605002AB6050024B60500AD
:107F400030B60500C30710B507D4F0234008054A32
:107F5000145C23401943115410BD0901C9B20F2309
:107F6000F4E700BFE03A002030B5094B1C78094B1C
:107F7000196800239C4202DC0022104630BD11F833
:107F80003350854201EBC302F7D00133F2E700BF63
:107F9000CC3A0020003B002070B504460D46FFF7A8
:107FA000E3FF30B1436823B129462046BDE8704065
:107FB000184770BD034B044819680022490800F0B7
:107FC00004BA00BFD03A0020082B002010B5C0B280
:107FD000FFF7CAFF044600780CF0B0F863785A1E29
:107FE00053425341834208D1044BD3E90023134346
:107FF00003D1BDE81040FFF7DDBF10BDD83A002027
:108000002DE9F348394A43080446D35CC2074CBF04
:108010001B0903F00F030D46042B39D8DFE803F0EA
:108020000328303D410099B30121FFF78BFF02A8DF
:10803000002600F8016D00F0BBFA2D4D0121A4F1DE
:108040002007C4F1200001FA07FC21FA00F04CEAF5
:10805000000C01FA04FBD5E900014BEA00024CEAEE
:108060000103C5E900239DF8070000F0C5FA0FE001
:10807000002914BF022100212046FFF763FF07E01B
:1080800049B10321FFF75EFF01212046FFF784FF7E
:1080900002B0BDE8F0880121EEE70029F8D1042103
:1080A000EAE709B10321E7E7FFF74CFF294620463D
:1080B000FFF772FF02A80E4E00F8015D00F078FA9B
:1080C000A4F120070121C4F1200001FA07FC21FAE4
:1080D00000F04CEA000C01FA04FBD6E9000120EAAA
:1080E0000B0221EA0C03C6E90023BCE7E03A0020BA
:1080F000D83A00202DE9F041124E134F0024337876
:10810000A34208DC114BD3E90023134318D0BDE888
:10811000F041FFF74FBF3D6805EBC40815F8340088
:108120000CF00CF898F801104B1E594259410A1AEC
:10813000514215F834005141FFF762FF0134DEE788
:10814000BDE8F081CC3A0020003B0020D83A002066
:10815000092AF7B505460C4616463FD90BF014FF21
:10816000D8B11F4B1F481D601F4B204F1C70204B68
:10817000002120221E6031F05AFD1E4B00200021FC
:10818000C3E90001013CE4B20326FF2C0BD11A4ADB
:108190001A48002100F00EF903E00BF0BFFE0028A2
:1081A000DFD003B0F0BD9DF806308DF8046020B23A
:1081B00003F0FC0305EBC0026FF382038DF8063079
:1081C000937815F830008DF805303A4601A90BF088
:1081D000E5FE013CE4B20028D7D0E2E70720E0E763
:1081E000003B0020E03A0020CC3A0020CD7F020086
:1081F000D03A0020D83A0020F5800200CCB6050025
:1082000070B5084D084E00242B789C4201D3002005
:1082100070BD3368012113F834000BF045FF0134C1
:10822000F2E700BFCC3A0020003B00201FB5002140
:10823000039001AA44F20100CDE901110FF0F0FB17
:1082400005B05DF804FBD0E90223D1E902019942AF
:1082500008BF90422CBF0120002070472DE9004844
:108260000C4800F015FB0C4BD3E9002312EB000B7C
:1082700043F1000C094BD3E900239C4508BF93450B
:108280005846614603D21BF180704CF10001BDE8F5
:10829000008800BF442B0020083B0020703B0020DA
:1082A00037B505460C460A4801A900F044FB60B109
:1082B0000570446001A9064800F067FB18B1054845
:1082C00000F0EAFA002003B030BD0420FBE700BF55
:1082D000302B0020442B00202DE930481A4B1B780E
:1082E00004461BB900252846BDE830880028F9D08F
:1082F00090F8203003F0FF05002BF3D0FFF7AEFF1E
:10830000D4E90223994208BF904217D323690BB9DD
:1083100084F82030D4E90530984721690029E1D05C
:1083200094F8203003F0FF05002BDBD0D4E90223C2
:1083300012EB010B43F1000CC4E902BC21460348D7
:1083400001F06EFBCFE700BF103B002004B7050033
:1083500013B5114B11491868019008235822104891
:1083600000F0B4FA044698B90E4A0F4801A900F08B
:1083700067F9044660B901210B4800F069FA01234E
:108380000A4A0948194600F0C7F9094B01221A7038
:10839000204602B010BD00BF00B70500143B00200E
:1083A000302B002019840200442B0020FFFF7F00A7
:1083B000103B00203AB103685A614A1E51425141B4
:1083C0001961002070470720704738B590F82030B9
:1083D00004460D4683B98261FFF740FF421941F11F
:1083E0000003C4E90223236903B12561214600206B
:1083F000BDE83840FFF754BF002038BD00230146D8
:1084000080F820300120FFF74BBF0000014800F04A
:108410003FBA00BF442B00202DE9F74F064600F07D
:1084200020FA40B15A49D1E9002312F1807443F196
:108430000005C1E900450021304600F022FA38B1BC
:10844000544C236823B12068FFF746FF00232360C4
:108450000121304600F015FA20B1FFF7FFFE4E4B28
:10846000C3E9000101A94D484A4D4D4C4D4F00F064
:108470009CFA002845D1DFF828A1464CDFF82CB142
:10848000504601F0E3FA2368002878D083B12368CE
:10849000D0E90201D3E90223994208BF90422DD2CC
:1084A000236893F820301BB12168504601F0B8FAD8
:1084B000504601F0C5FAD0E902890746FFF7CEFE23
:1084C000B8EB000869EB010940464B46012873F1FF
:1084D000000347DB344DA84542D9FFF797FF421907
:1084E0004FF496030021584600F03AF9002841D194
:1084F000236813B9304600F007F9276003B0BDE8E0
:10850000F08F0378012B20D00BD3022B14D14FF026
:108510000008204601F094FA002836D080F8208028
:10852000F7E7436893F8202032B9012283F820202E
:108530004168204601F074FA01A9184800F060FA79
:1085400001A9164800F031FA93E741682B68994277
:1085500002D100232B60EFE7204601F07AFAEBE727
:10856000BA68BDE70021584600F080F93846FFF7A9
:10857000B3FE01E00D28F9D00023236080E7002B33
:10858000BCD1304600F0C4F8B8E701233B70D3E714
:10859000083B0020783B0020703B0020302B00205F
:1085A00004B70500103B0020FFFFB400442B00205F
:1085B00070B5EFF3108672B60C4A946801239CB92B
:1085C00093600B4B0B4DD3F8801029401160C3F81A
:1085D0008050D3F8841051604FF0FF32C3F88420EC
:1085E000047006B962B670BD0370FAE734810020EA
:1085F00000E100E0FC06FFBD10B5084B9A685AB1D7
:1086000050B9EFF3108172B6054A1C6814605C68BB
:108610005460986001B962B610BD00BF348100207B
:1086200000E100E0435882B03BB10023435043587F
:108630000193019B012002B070471846FBE7000040
:1086400070B5284C4379284D44F82320274C04EB7F
:10865000C3031B7973B16B88012B09D92448254BBF
:108660002549C01AC008000440F00200FFF77AFA5A
:10867000082070BD03680A88C3F8082590F9043003
:108680008A78002B4FEA4212AFBF03F1604303F038
:108690000F031A49D2B2A9BF03F56143CA54D2B23B
:1086A00083F8002390F9043015495E09012203F094
:1086B0001F0302FA03F341F82630437904EBC301A8
:1086C00044F833006B880A71022B09D90848094B1A
:1086D0000C49C01AC008000440F00300FFF742FA3A
:1086E0000020C6E7843B0020FC3300207C3B0020B8
:1086F000BCE7050074E7050036B7050014ED00E09F
:1087000000E100E058B70500036801221A607047D5
:10871000036801225A607047F7B505684FF480344A
:108720008C40C5F808430568C5F848438D0005F539
:10873000A0750668ADB20027775175590195019D66
:10874000056801F5A87122F07F4245F821200268F2
:10875000C2F8444313B10368C3F8044303B0F0BD47
:108760002DE9F34799464FF48038036808FA01F879
:10877000C3F848830368C3F8088322F07F45026882
:108780008E000F46D2F80415324406F5A076D2F8D2
:108790004035C2F84015B6B202684FF0000A42F800
:1087A00006A05B1A9259009223F07F43012B0446E6
:1087B000009A0BD1254B4FF4806043F0010398479A
:1087C000236843F806A09B590193019B2368D3F8C3
:1087D0000465C3F84483AB1B23F07F43012B07F5EB
:1087E000A877236819D1013543F82750174B4FF468
:1087F000806043F0010398472368D3F804359E4214
:1088000009D12368C3F8448323680020C3F8048394
:1088100002B0BDE8F0870D20FAE743F82750206842
:10882000D0F804156A1A013AC9F1FF1322F07F4209
:1088300003F57F439342EED3002AE2D1013540F89D
:1088400027502368D3F804359942D9E730B705009B
:1088500002680223C2F8443311B10268C2F804333B
:1088600070474FF482710068FFF7DCBE4FF480332D
:1088700003FA01F10368C3F848130368C3F8081347
:108880007047890001F5A07189B20068FFF7CABE80
:108890000368D3F80405704790F9043001215A09A0
:1088A00003F01F0301FA03F34032024941F822307A
:1088B000704700BF00E100E0024B034A1B681068EC
:1088C000184700BF843B00207C3B002010B561B1FD
:1088D000B2FBF3F403FB1424A4B244B9C0E90014BE
:1088E00084608281C381204610BD0E20FCE70920F0
:1088F000FAE782B050E8022FC188B2EB324F4FF056
:10890000000317BF92B241EA014142EA014104E08B
:108910004268B2EB324F08BF012340E80212002A3E
:10892000E8D18DF807309DF80730002B0CBF1120DF
:10893000002002B0704737B550E8013F9DB2C489AE
:1089400025448489A54228BF2D1B0489A54202BF66
:10895000BFF32F8F002207E0C5EA030540E801546A
:10896000002CE9D14FF001028DF803200193019B07
:108970009DF803200B6002F0FF0322B10B88006812
:10898000184403B030BD1846FBE70A884B889A426A
:1089900009D150E8012FC2EA024240E80123002B2E
:1089A000F7D1012070470020704737B550E8023FEB
:1089B0001FFAA3F5C488A54202BFBFF32F8F002280
:1089C0000DE0C48925448489A54228BF2D1BC3EA34
:1089D000054540E80254002CE8D14FF001028DF823
:1089E00003200193019B9DF803200B6002F0FF031D
:1089F00022B14B880068184403B030BD1846FBE72D
:108A00000A884B889A4209D150E8022FC2EA2242D2
:108A100040E80223002BF7D1012070470020704767
:108A200001F01F024B090121914000EB830000F08F
:108A300028B801F01F0301229A404B0900EB830084
:108A4000D14300F034B84B0901F01F0150F8230066
:108A5000C84000F00100704750E8002F0B4640E886
:108A6000003C9CF0000FF7D11046704750E8002FF3
:108A700042EA010340E8003C9CF0000FF6D11046AA
:108A8000704750E8003F43EA010240E8002C9CF0A8
:108A9000000FF6D11046704750E8002F02EA01039C
:108AA00040E8003C9CF0000FF6D11046704750E8BB
:108AB000003F03EA010240E8002C9CF0000FF6D1D1
:108AC0001046704750E8003F03EB010240E8002CDD
:108AD0009CF0000FF6D11046704750E8003FA3EB22
:108AE000010240E8002C9CF0000FF6D110467047C0
:108AF0000121FFF7BBBF0121FFF7C3BF0021FFF733
:108B0000CBBF0021FFF7D3BF10B590B1D0E901234F
:108B100001689B1ADBB20A60013BDBB2FF2B0268E3
:108B200002D10020107110BD11684C1C14600B7034
:108B3000F2E70E20F7E737B5054602A8002400F853
:108B4000014DFFF735FD2A68696813688B4210D91B
:108B5000591E116013F8014CAA8AEB6802FB043419
:108B60002A68AB6811685B1A1179DBB2994238BF89
:108B700013719DF80700FFF73FFD204603B030BD9D
:108B800037B5054602A8002300F8013D0C46FFF763
:108B90000FFD2A681368591C1160E968641AA98AD4
:108BA000B4FBF1F41C709DF80700FFF725FD03B03E
:108BB00030BD10B5826804462AB143690168006976
:108BC00098470023A36010BD0EB403B5039929B1E3
:108BD00002AA04AB42F8043D00F072F802B05DF85E
:108BE00004EB03B070470A2938B504460D4602D19C
:108BF0000D21FFF7F8FFA3682268591CA160D55426
:108C0000D4E901329A4204D32046BDE83840FFF748
:108C1000D0BF38BD2DE9F84F9946DDE90A43174624
:108C2000824688460A460126BA420FD24E4538BFD0
:108C30004E4613F0010B01D164B900240125B9F1AE
:108C4000010F1AD909F1FF397D43F8E7B2FBF7F2BA
:108C50000136E9E79B070ED5B9F1000F0CBF3025AF
:108C60002025A642EAD2013C29465046FFF7BBFF29
:108C7000002CF6D1E1E72025F3E7B8FBF5F39F429E
:108C8000E2D9DFF83890B8FBF5F3504619F8031035
:108C900005FB1388FFF7A7FFB5FBF7F5002DF2D111
:108CA000BBF1000F02D00CB1A64201D3BDE8F88F92
:108CB00020215046013CFFF796FFF4E76AB7050014
:108CC0002DE9F74F054690460E46002900F03A81FF
:108CD00016F8011B002958D0252940F0D180002723
:108CE00002E047F001071646324612F8013B2D2BF1
:108CF000F7D0302B04D02B2B05D147F00407F2E737
:108D000047F00207EFE700242A2B06F101021BD1EE
:108D1000D8F80030191DC8F800101B6816461C440E
:108D200033782E2B1CD101364FF0000A314611F852
:108D3000012BA2F13000092814D80A2303FB0A23CF
:108D4000A3F1300A0E46F1E712F8013CA3F130011D
:108D50000929E5D80A2101FB0434303C1646D3E743
:108D60004FF0000A324612F8011B01F0FB006828A0
:108D70001646F8D0692916D054D8582970D00ED884
:108D800025297DD03378002BA2D12B7B002B00F03E
:108D9000D980284603B0BDE8F04FFFF70ABF63292A
:108DA00068D06429EED1D8F80020111DC8F8001051
:108DB000D2F8009089EAE972A2EBE9724FF0010B58
:108DC000092A61DCD34538BFD3462CB1B9F1000F75
:108DD00001DB790700D5013CBA0702D5BAF1000FD3
:108DE00004D0FB0702D4002C54D10024B9F1000FA9
:108DF00058DAC9F100092D212846FFF7F4FE07F0E3
:108E00000302022A05D1BAF1000F02D1002C4DD184
:108E10000024CDE9004753460A2249462846FFF779
:108E2000F9FEAFE7732954D016D87029AAD1D8F823
:108E300000301A1DC8F80020302128461C68FFF7B2
:108E4000D2FE78212846FFF7CEFE00220823CDE986
:108E5000003221461022E1E775292FD0782991D1DF
:108E6000D8F800100A1DC8F80020CDE90047534685
:108E700010222CE0D8F800301A1DC8F8002019780C
:108E80002846FFF7B0FE7DE70A230BF1010B92FBAA
:108E9000F3F295E7A345A9D220212846013CFFF72C
:108EA000A2FEA0E77807AAD52B21A5E7A345B0D25B
:108EB00030212846013CFFF796FEA7E7D8F80010BE
:108EC000CDE900470A1DC8F8002053460A22096868
:108ED000A4E7D8F800301A1DC8F80020F907D3F825
:108EE000009012D54F46A7EB090B17F8011B41B9AB
:108EF000A345BFF447AF20212846013CFFF773FE8E
:108F0000F6E72846FFF76FFEEDE7B9F1000F17D03F
:108F1000484631F0F9F90746BC4200D954B909F185
:108F2000FF3919F8011F00293FF42CAF2846FFF73D
:108F30005AFEF6E720212846013CFFF754FEEBE7F6
:108F40004F46E9E703B0BDE8F08F000007B50B46D8
:108F5000A0B9154B5B886BB1144B1548154AC01A64
:108F60000E23C0080093144B0004144940F0010084
:108F7000FEF710FE0E2003B05DF804FB6BB90A4B40
:108F80005B88002BF6D0094B09480D4AC01AC0086F
:108F90000E2300930004084BE7E703601B681146AB
:108FA00003B05DF804EB18473834002074E705007F
:108FB00034E8050027B805007AB705002CB805008D
:108FC000A3B805002DE9F3419646B0B9504B5B8834
:108FD000002B00F095804F4B4F48504AC01AC008F4
:108FE0000E244F4B009400044E4940F00100FEF760
:108FF000D1FD204602B0BDE8F0816AB9444B5B88E0
:10900000002B7DD0434B4448474AC01AC0080E2469
:1090100000040094424BE7E7D0F800C0BCF1000F19
:109020000DD13B4B5B88002B6CD03A4B3A483F4A02
:10903000C01AC008082400040094394BD4E76BB967
:10904000334B5B88002B5FD0324B3348384AC01A11
:10905000C008092400040094314BC5E74768D7F8DD
:109060000480B3FBF8F708FB17376FB1284B5B8818
:10907000002B49D0274B28482E4AC01AC008092483
:1090800000040094264BAFE78F070DD0204B5B8880
:10909000002B3BD01F4B2048274AC01AC008102481
:1090A000000400941E4B9FE712F0030F0CD0184BE6
:1090B0005B885BB3174B1848204AC01AC0081024BD
:1090C00000040094164B8FE7C768B9420BD34C1EBF
:1090D00005691C44AC4206D8DCF80C40A44602B03A
:1090E000BDE8F04160470A4B5B887BB1094B0A48F9
:1090F000134AC01AC008102400040094084B73E7F8
:109100000E2476E7082474E7092472E7102470E738
:109110003834002074E7050034E8050027B805005E
:109120008CB705002CB80500A9B805009DB805004E
:109130005CB80500AFB80500D9B80500F1B8050066
:1091400014B90500F7B5A0B9374B5B88002B63D085
:10915000364B3748374AC01AC0080E24364B0094A5
:109160000004364940F00100FEF714FD204603B02C
:10917000F0BDD0F800C0BCF1000F0DD12A4B5B88C8
:10918000002B4BD0294B2A482D4AC01AC00808246E
:1091900000040094284BE4E76AB9234B5B88002B5A
:1091A0003ED0224B2248274AC01AC0080924000496
:1091B0000094214BD5E74768D7F800E00EF1FF3760
:1091C0000F420CD0184B5B8863B3184B18481E4AEB
:1091D000C01AC008102400040094174BC1E7C768E8
:1091E000B9420CD34C1E05690EFB0244AC4206D8B2
:1091F000DCF81040A44603B0BDE8F04060470A4BDD
:109200005B887BB1094B0A48104AC01AC008102479
:1092100000040094084BA4E70E24A7E70824A5E760
:109220000924A3E71024A1E73834002074E70500DF
:1092300034E8050027B805009FB705002CB80500E5
:109240009DB805005CB80500B2B70500D8B70500A9
:1092500029DF704728DF704770B50568AB6886B0B6
:1092600004460E4673B114220021684630F0DFFC3C
:10927000A36805932379019633B1012B0ED0AB6817
:109280006846984706B070BD01238DF80030236909
:109290000293E368039363690493F0E702238DF874
:1092A0000030E3681B030293F5E70846704700208F
:1092B00070470000024B187A003018BF0120704739
:1092C000143C0020034B187A0122B0FA80F05A7443
:1092D00040097047143C002008B510461A4630F08B
:1092E00082FC002008BD000008B5142200210448BB
:1092F00030F09DFC0348FFF7FCFA002008BD00BFDA
:10930000143C00204C2B002010B5094C094B436045
:109310002046FFF7EDFB40B90BF00EFF1C23207435
:109320008C2205490548FFF7D1FA002010BD00BF87
:10933000143C002048B90500883B00204C2B00203D
:1093400070B5244D244E2B7A2C463BB92349244832
:10935000FFF72BFB306008B9686070BD02232372F1
:1093600033681A7972B1012A24D018460321FFF715
:1093700073FF00232372636018491948BDE87040E9
:10938000FFF73EBBD3E90520121AB2F5805F28BF74
:109390004FF48052D3E903159208012A014438BFE3
:1093A00001222844FFF754FF50B11128DDD10123D9
:1093B0002372D2E7D3E903021044FFF74BFFF3E730
:1093C000237C002BC9D10146BDE87040022000F08B
:1093D00009B800BF143C00202C3C0020283C002091
:1093E0004C2B002038B5831E012B45D8234C237A03
:1093F000002B41D0022B09D1032830D0204B002272
:109400001B68E2601A793AB1012A22D0637C7BBBE7
:10941000BDE83840FFF794BFD3E905128D1AB5F5C2
:10942000805F94BF521902F580529A619142EDD14A
:1094300002284FF0000308BF19462372104B18BFD3
:109440000D211868FFF708FF0E490F48FFF7D8FAFB
:10945000DCE71A6901321A615B699A42E7E7E3685F
:109460000133082B01D8E360D0E70023E360DFE796
:10947000BDE838400BF050BE38BD00BF143C0020A2
:109480002C3C0020283C00204C2B002000F0FD0349
:10949000012B08D1044B00225A74421E5042504105
:1094A0001874FFF74DBF7047143C002010B5064CF0
:1094B000201DFFF71DFB28B9637C1BB9BDE81040D8
:1094C000FFF73EBF10BD00BF143C00202DE9F34163
:1094D00080460D460F4801A916461F46FFF72BFA96
:1094E0000446A8B11C22002130F0A1FB2D0B012362
:1094F000237101A9C4F80080A760E5606661054892
:10950000FFF743FAFFF7D2FF002002B0BDE8F08179
:109510000420FAE74C2B00202DE9F74381468846CA
:10952000104801A917461E46FFF705FA0446B0B1D8
:109530001C22002130F07BFB00250A9BA36001A9BF
:109540002571C4F80090C4E9037866610548FFF707
:109550001CFAFFF7ABFF284603B0BDE8F0830420F8
:10956000FAE700BF4C2B00202DE9F047B0F8069039
:109570004479D2F800A09DF8208009FB04F4043C53
:1095800006460AEB0300A0420F4688BFA4EB030A7D
:10959000191DC2F800A0B1FBF9F509FB15114DB971
:1095A000A9EB0104544528BF5446BAF1000F04D179
:1095B000BDE8F0873668013DF1E704317B1970188A
:1095C0002246B8F1000F0ED001461846AAEB040A55
:1095D00030F009FBD145254436684C464FF0000178
:1095E00028BF5446E1E71946F0E7FFF78DBAF8B512
:1095F00046790146721E0546002393422D6803D327
:109600000024A64202D8F8BD0133F6E70F682846C9
:10961000FFF7B6FA01343946F3E72DE9F843CD1CDC
:10962000868A0746FFF787FA043E35440446B5FBB1
:10963000F6F5F0B14FF48073EDB28380C680013D42
:10964000076081464FF00008A84512D23846FFF760
:1096500072FA064648B163790133637108F1010873
:10966000C9F8000007608146EEE72046FFF7BFFF1C
:1096700034462046BDE8F88301210430FFF722BAC2
:1096800010B5012104460430FFF727FA10F0FF0F50
:1096900004D12046BDE81040FFF7A9BF10BD1FB59B
:1096A00004AC44F8042D002200922246FFF75CFF30
:1096B00004B010BD1FB504AC44F8042D0122009283
:1096C0002246FFF751FF04B010BD41DF7047000094
:1096D000064B10B500241C70054B1C60BFF35F8F58
:1096E0000449054800F087F9204610BD383C0020A9
:1096F0003C3C002084B90500303C002007B502A89E
:10970000002300F8013DFEF753FFF1EE103A23F07D
:109710009F03E1EE103ABFF35F8F0A4B4022C3F87C
:1097200084219DF80700FEF767FF0BF005FD20B1CF
:10973000FFF7CBFF03B05DF804FB20BF40BF20BFA5
:10974000F8E700BF00E100E0026813685268934246
:1097500091BFD01A80680130801888BFC01A704746
:109760002DE9F04103681F681D685B689D4284BF56
:1097700083680133164688465D1BC2684168AE4265
:10978000044607FB02110CD87243404630F02BFA16
:10979000A3683E449E4288BF002623681E60BDE841
:1097A000F08105FB02F73A46404630F01CFAE268C9
:1097B0006168751B6A4308EB070030F014FA2368F0
:1097C0001D60ECE7036881681A685B688B4234BFF0
:1097D00001330023D31A584258417047F7B5044665
:1097E00002A8002300F8013D0D46FEF7E1FE2046E9
:1097F000FFF7E8FF10B1237C002B3DD12168A6685C
:109800004B684A68B24234BF013200224A6038B124
:109810002168A0680A68824234BF013200220A60CF
:10982000E2686068511E072920D8DFE801F00410C3
:109830001F141F1F1F182A78C2542046FFF784FFE9
:1098400023689A68824200D29860002415E02A8832
:1098500020F81320F1E72A6840F82320EDE7D5E946
:10986000006700EBC300C0E90067E6E7294602FB9A
:10987000030030F0B8F9E0E704249DF80700FEF794
:10988000BBFE204603B0F0BDF7B506460F461446B2
:1098900000259AB102A800F8015DFEF789FE304666
:1098A000FFF752FFA0420CD3224639463046FFF75D
:1098B00057FF2C469DF80700FEF79EFE204603B09A
:1098C000F0BD0524F6E737B5054602A8002400F8E8
:1098D000014DFEF76DFE0C222146286830F0A7F9F5
:1098E0009DF80700FEF788FE03B030BD13B50446AF
:1098F00002A8002300F8013DFEF75AFE2046FFF7BC
:1099000023FF04469DF80700FEF776FE204602B0CE
:1099100010BD82680023936082681361826853617E
:109920008268D36082685360826813607047F8B5BC
:1099300005460F4616461C4683B9AB686868D3E9EE
:10994000031300F1010CCA1A62450ED100273760DB
:1099500014B3A868FFF7D5F80020F8BD8068FFF7BA
:10996000C7F80028E9D01120F7E701EA0002184003
:10997000824236BF6344ACEB02035B1A3168994202
:1099800094BF316033602B6813443B60AA68316830
:10999000D3680B44D360DFE72046DEE738B5846840
:1099A00043682569A26801332B449B1A8B420CD370
:1099B0000A44A26083689A68DA608068FFF79EF8BC
:1099C00000280CBF0820002038BD0420FCE710B59B
:1099D000826813699468E41A8C420AD30B441361B9
:1099E00083681A695A6180680430FFF78AF800209A
:1099F00010BD0420FCE701600B6843604A68934295
:109A000004BF002343607047436843B10268916814
:109A10000B4443605268934204BF00234360704785
:109A200070B5446806460D46206818B1B3682946EB
:109A3000984718B923682B60256070BD2468F3E748
:109A40004368186808B102681A607047436818686C
:109A500070474368186800B970478842026802D1AD
:109A60001A600120704703461046F4E70D4930B5EF
:109A7000A1F594720225914201D800200EE08B1AC4
:109A8000DB1093FBF5F302EBC30452F8333083424F
:109A900005D802D204F10802EDE7606830BD214626
:109AA000E9E700BFE0BA050008B5FFF7DFFF024BAA
:109AB000002808BF184608BDA2B90500F8B50F4B2D
:109AC000002420220F460D2183F88A201C7083F881
:109AD000784083F88C1022462346054620F078FB18
:109AE000064650B1214628461BF089F937702946B1
:109AF0000348BDE8F8401FF099BDF8BDA6810020DD
:109B000009A6040073B502AB00220C4603F8012D30
:109B100011461AF0C3FA38B90A4B9DF8071093F8AA
:109B200043200D25824202D86FF01B0006E005FBA2
:109B30000036F67B8E4203D12070002002B070BD4B
:109B40000130EFE7A68100202DE9F04188B008AD93
:109B500000244FF6FF7325F8083D2246112100949A
:109B60000123074601F08AFE0E4B93F844608046BD
:109B7000304601F0D5FB0C4B04930323CDE90203DF
:109B8000FF2300932A46022341460196384601F0FE
:109B900003FE40F25222214604481FF06DFE08B039
:109BA000BDE8F081A681002045A50200B19B02001E
:109BB0000B4BD3F801202AB983F8782011460948C5
:109BC0001AF033BE8C2A0BBF0722062283F87820B6
:109BD00083F8782007BF0022032100220221EEE74C
:109BE000A6810020BD9A020037B5114C05461AF037
:109BF000E5FE2278042A07D142782AB929460D4881
:109C00001AF013FE03B030BD0DF107014088FFF7D5
:109C100079FF0028F6D19DF8073007480D2202FB96
:109C2000034329465A7D01325A751FF0FFFCE9E7CC
:109C3000A6810020C59E020011A1020008B50022E5
:109C4000FF2109481FF0E0FF0022FF2107481FF015
:109C5000DBFF7522002106482FF0E9FF054B064A7D
:109C6000C3F8F82B08BD00BFB19B0200AD9C0200F9
:109C7000A681002038820020C1A2020010B5002277
:109C8000084C094811461FF0BFFF94F8440003F048
:109C9000D7FF00232022237084F88A2084F87830AC
:109CA00010BD00BFA6810020AD9C020010B5044687
:109CB00020B90948BDE810401AF092BDFFF7DEFF59
:109CC00000230C2120461A4620F082FA2146034840
:109CD000BDE810401FF0AABCAD9C020009A604001C
:109CE00008B50022FE2105481FF08EFF0022012149
:109CF0000348BDE808401AF098BD00BFB19B0200C0
:109D0000BD9A020070B50C4BD3F845302BB11C7CCA
:109D1000D3F811500023A34201DB002070BDC3EB38
:109D200003122A441688864202D1127A8A4201D14D
:109D30000133F0E70120F1E7A68100202DE9F0478B
:109D4000044688B0C0790E461AF038FE90F80BA091
:109D5000077B80465744D4F80950BD4280F090807C
:109D60002B1D08EB4303AA4594BF02210121B3F840
:109D700005904846FFF7C6FF002800F08A80DFF80C
:109D800038A11C2130461AF0ADFFDAF8093005463B
:109D9000D046002B50D0217806A819F005FEA279F4
:109DA000DAF809A022444B46527806A90220D0478F
:109DB000002841D16FF04402D4F809309F4270D19D
:109DC0003D4F97F84A30002B67D0B7F875204FF613
:109DD000FF739A4261D00025217806A819F026FE6B
:109DE0002B462A4601210095304601F047FDB7F881
:109DF00075101FF00CFB01464FF48273042201F82A
:109E0000015BCDE90232049597F844300193A379C0
:109E1000234406AA5B7800933046022301F0BCFC81
:109E2000A379E17925480133A3711FF0FFFB0023DB
:109E3000E37108B0BDE8F0871C22002128462FF00E
:109E4000F6FE284620F07AFB98F844302B72A5F8ED
:109E50000A90B8F875204FF6FF739A4212D1217814
:109E600005F10D0019F0A0FD03232B73A379234402
:109E700030465B786B75124B2672AB610FF050FC6D
:109E8000002299E701232B73B8F87530A5F80D303F
:109E9000ECE70135C4F809505DE730461AF02EFDB5
:109EA000BEE7002AC5D00133C4F809303146204648
:109EB000FFF744FFBDE700BFA681002011A102000B
:109EC000619F02002DE9F341CFB2054638460C46AA
:109ED0001AF074FD204EC1888046D6F8450000F087
:109EE000DAFFB8F802300DF10701A8B11846FFF704
:109EF00009FE30BB9DF807300D2101FB03642946A4
:109F000020766076A076E0762046A7750F30FFF7C2
:109F100015FF02B0BDE8F0811846FFF7F3FD80465B
:109F200078B99DF807000D2303FB00603946437D97
:109F30000133437509481FF079FB002DE9D04446F1
:109F400000E015B128461AF0D9FC002CE1D0E0B2AF
:109F50001AF0D4FCDDE700BFA681002011A10200A9
:109F60002DE9F04F1C2185B08146304C1AF0BAFE25
:109F700094F84320834600250D21954215D32C4BA0
:109F80001B687BB90DF029FD014658B904230093E5
:109F9000CDF804904FF4BA7340F25B324FF0FF30CB
:109FA00020F0C6F805B0BDE8F08F01FB05F804EB22
:109FB0000803D87D48450DD10026DE7548461AF0C5
:109FC00017FF48B16FF07303A670E67026716370D7
:109FD000012609E00135D0E701236070A070E07030
:109FE000207184F84A3006460D2707FB054702A872
:109FF000F97B19F0D9FCD4F809A0BAF1000F07D009
:10A000007B7D1F4402A9BBF80A303A7C3046D0471A
:10A010000D2303FB054508F10F00AB690133AB616C
:10A0200049462044FFF78AFEBCE700BFA681002016
:10A03000B4900020F8B507460E4600F023FE1C4CF5
:10A04000C4F8450058B320F0EBFB58B3257865BB46
:10A0500094F88A30202B28D1082384F88A300123F1
:10A0600084F87830042323706FF01B03637034226C
:10A070004FF0FF33294604F10F00A370E370237102
:10A0800084F84470C4F8096084F843502FF0CFFD81
:10A09000084884F84A501AF0A3FB2846F8BD6FF030
:10A0A0000900FBE76FF02200F8E76FF00300F5E727
:10A0B000A6810020499B020070B50E460546014668
:10A0C00030461AF09CFE8C2D0F4C03D1072384F8E8
:10A0D000783002E0B5B984F878502378052B06D1A2
:10A0E000002394F878200C21304620F071F80023EA
:10A0F0002370202384F88A3031460448BDE870403C
:10A100001FF094BA0623E2E7A681002009A6040006
:10A110002DE9F34105461AF051FC0DF10501408887
:10A12000FFF7F0FC074600284AD19DF80530274C80
:10A130000D2202FB0346717D307D884222D93144D5
:10A14000284691F8108003211AF08AFC0322394630
:10A1500004462FF06CFDF17B0DF1060019F066FC52
:10A16000BDF80630238084F802801949284623F080
:10A1700069F9FF2803D129468A20FFF79DFF02B025
:10A18000BDE8F081FF21022BF1730BD803FB022005
:10A1900000F10F01C3F1030302305A43214420446C
:10A1A0002FF02CFD94F84330013BDBB284F84330B0
:10A1B00033B9D4F801208C2A08BF072384F87830FB
:10A1C000002DDCD028461AF099FBD8E7A6810020A4
:10A1D000E99B02002DE9FF47364D80461AF0EEFB61
:10A1E00095F80090B9F1040F07465AD10DF10D0111
:10A1F0004088FFF787FC8246002858D19DF80D4023
:10A200000D2606FB04560DF10E00F17B19F00EFC35
:10A210003B793375042B86F815A029D9264B1A688B
:10A220009A4602BB0DF0D9FB014650B9337D40F28E
:10A230005B32CDE900934FF0FF3040F2B3331FF0B3
:10A2400077FFDAF8003073B90DF0C7FB014650B95B
:10A250000423CDE9003340F25B3240F2B5334FF0D6
:10A26000FF301FF065FF0D2303FB045304221A7512
:10A270000D2303FB0453197D04EB440304EB830417
:10A2800000238B4206D341460C481FF0CFF904B09F
:10A29000BDE8F087FA1850791A192A44013310746E
:10A2A000EFE76FF007004146FFF706FFEFE70020FA
:10A2B000F9E700BFA6810020B490002011A10200A0
:10A2C0002DE9F047664D2B78042B8CB0064640F004
:10A2D000C380D5F801301C3304D100236B70AB7000
:10A2E000EB702B711B2130461AF0FCFC1B2201463F
:10A2F00005A82FF078FC03A9BDF8150019F0FAFEA7
:10A3000028B9584B93F8340E10F0200414D00621CD
:10A3100030461AF0E7FCBDF8153043800380002377
:10A3200083805149304622F08DFFFF2874D1314699
:10A330008A20FFF7C1FE6FE0FF238DF80A302B78EB
:10A34000BDF815709DF81F90042B1FFA87F810D1E7
:10A350000DF10A014046FFF7D5FB70B195F8433087
:10A36000032B04D88DF80A30013385F8433020469A
:10A3700001E06FF00700012400E004469DF80AA008
:10A38000BAF1FF0F4DD0002C49D000220DF10B0384
:10A390001146404619F082FE002842D10D2303FBEE
:10A3A0000A539DF80B20DA73187558754FF00D0895
:10A3B00008FB0A5898F81430032B35D808EB030231
:10A3C000013382F8109088F81430002C43D0052116
:10A3D00030461AF045FB0522044600212FF027FCE9
:10A3E000002363700D2303FB0A5567802B7D2371C7
:10A3F0001E4B1B6863B90DF0F0FA014640B900909E
:10A400004FF45F7340F25B324FF0FF301FF090FE6D
:10A41000314617481FF00AF90CB0BDE8F087002854
:10A42000C4D0314600B284E7104B1B68002BCCD15E
:10A430000DF0D3FA01460028C7D198F814300193E3
:10A440000423009340F25B3240F271334FF0FF304F
:10A450001FF06EFEB9E730461AF050FADCE700BF95
:10A46000A68100203882002011A50200B4900020AF
:10A4700011A10200F7B50E4602A9FF25044601F816
:10A48000025D3046FFF73EFBA0B31F4A92F843300F
:10A49000032B04D88DF80630013382F843309DF841
:10A4A0000650FF2D29D002AB002203F8012D1146E2
:10A4B000304619F0F3FD0746F8B9134B0D2202FBA5
:10A4C00005359DF80730EB73022120461AF0C8FAD3
:10A4D0000546022239462FF0AAFB2E800B49204662
:10A4E00022F0C9FFFF2803D121468A20FFF7E4FDAF
:10A4F00003B0F0BD8DF80650D1E7002CF8D020460F
:10A500001AF0FCF9F4E700BFA6810020D5A10200F3
:10A5100037B504461AF052FA054620461AF068FC90
:10A52000024658B969890DF10703A81C19F0DCFE31
:10A5300069892046FFF79EFF03B030BD20461AF020
:10A54000DDF9F9E710B504461AF052FC20B92046AF
:10A55000BDE810401AF0D2B920461AF049FC214655
:10A5600000B2BDE81040FFF7A7BD2DE9F7430A9FF1
:10A570001E4680468946154601F09EF9D0F8B03057
:10A58000DBB101F099F90097D0F8B04033462A4684
:10A5900049464046A04704464A464146284604F0FC
:10A5A000A4F914F1450F03460BD148B13A462946A8
:10A5B000304603B0BDE8F04318476FF04404EBE7C2
:10A5C0000446204603B0BDE8F0832DE9F041069F24
:10A5D00005461E4604F09EF9044630B13A4631461F
:10A5E00028462346BDE8F0411847BDE8F081B0F8A1
:10A5F0000F30B3F5A06F01D103F09AB87047002077
:10A60000704770B51B2188B005461AF06BFB1B2202
:10A61000014601A82FF0E7FA01F04EF9D0F8AC603E
:10A620004EB101F049F9D0F8AC309DF810009847D0
:10A630006FF01E0017E001F03FF9D0F89C30002BBE
:10A64000F6D0342128461AF04DFB1D2303709DF8E7
:10A65000103043704660044601F02EF9D0F89C306B
:10A6600028469847606801F073F901A90246284618
:10A6700004F0EAF908B070BD10B5FF2888B00446B0
:10A6800007D101F019F90C4BC0F85832012008B07D
:10A6900010BD1B211AF026FB1B22014601A82FF03A
:10A6A000A2FA9DF8173023B9214604481EF0BEFFD8
:10A6B000ECE70020EBE700BF602B002003A60200C0
:10A6C00007B5054B00930023044A0121184603F007
:10A6D00075FF03B05DF804FB79A60200FFA5020038
:10A6E000F8B50C46154607461E4600F0CBFA012287
:10A6F000002100F000FC90B1122301220021384615
:10A7000002F0A8F958B14368187840B91EB1052C79
:10A7100005D90B2C02D1032D01D00020F8BD01205A
:10A72000FCE708B54FF6FD73984208D1104600F0DB
:10A730008BFE03284FF0FF3098BF002008BD00209B
:10A74000FCE70000FF2808B506D101F0B5F8034B7F
:10A75000C0F85832012008BD0020FCE7702B002013
:10A7600007B5064B0093064A002302214FF44070C0
:10A7700003F024FF03B05DF804FB00BF45A702000F
:10A7800023A7020037B50146044600220F481AF0FD
:10A790004CF80546B8B10E4B1B6873B90DF01DF9A6
:10A7A000014650B90423009301954FF49F6340F68E
:10A7B0000F024FF0FF301FF0BBFC204603B0BDE896
:10A7C00030401AF09BB803B030BD00BF01B20200A8
:10A7D000B490002013B5154AD2F844391BB1D2F811
:10A7E00048392BB90123023302EB8303C3F83C0938
:10A7F000D2F84039BBB9C2F840090D4819F0F0FF52
:10A80000044680B10B4B1B686BB90DF0E6F80146AE
:10A8100048B90423009301947D2340F60F024FF0C2
:10A82000FF301FF085FC02B010BD00BF3882002051
:10A83000C1B20200B4900020F8B5124BD3F8E83949
:10A840000446007803B198470F4F22783A700025EC
:10A85000237C9D4202D3FF233B70F8BDD4F8113016
:10A86000C5EB05163344D3F80B3003B19847D4F841
:10A870001120B4F801102078324405F071FF013541
:10A88000E6E700BF38820020932B00202DE9F04F2F
:10A89000454BD3F840398DB0002593F800A00793BD
:10A8A000AC465FFA8CF9CA457CD9079BD3F80130D6
:10A8B00053F805B05A199BF8103009920A930022F8
:10A8C00001231AE0C3EB0311C2EB02180B91002025
:10A8D0000999DDF82CE051F820100691097C0891C7
:10A8E0001946089C8C4210D8013009EB0001C9B20E
:10A8F0008A45EDD801330132DBB20A98D1B28842E1
:10A90000E0D80CF1010C0435CBE7DBF81170069EA2
:10A9100007EB08040594D6F811602488764437883C
:10A92000A7423AD1059F367A3F7AB74235D1042CF7
:10A9300012D0192C10D0202C0ED040F20B76B4423D
:10A940000AD040F20126B44206D0B4F5006F03D01D
:10A950004FF65746B44220D1144B1B68CBB90DF0CB
:10A960003CF8B0B9104BD3F84039D3F801305B59FB
:10A97000D3F811309844014698F80830CDE90143E6
:10A980000823009340F60F02D2234FF0FF301FF050
:10A99000CFFB00200DB0BDE8F08F0131C9B20EF140
:10A9A0000F0E9EE70120F5E738820020B4900020CA
:10A9B000272807B5034620D041D81A2838D022D8F6
:10A9C0000D2800F0978011D80A2831D007D8082820
:10A9D00000F0898009287DD04FF0FF3084E00B28FB
:10A9E00000F086800C28F7D105207DE010287AD071
:10A9F00005D80E2821D00F28EED1082074E01828A1
:10AA000071D01928E7E720286DD00AD81D2871D009
:10AA100003D81B286CD01C28E5E71E280DD01F2862
:10AA2000EAE7232864D005D8212853D02228D3D19F
:10AA3000032059E025285DD0D6D9072054E03A28D4
:10AA4000DBD019D82D2855D00AD82A28F0D003D821
:10AA5000282848D02928BEE72B2849D02C28C2E72F
:10AA6000302840D003D82E28E7D02F28C4E7382834
:10AA700030D03DD83128AEE7E22826D8E02837D2BA
:10AA800043280ED009D84128A6D30029A4D008789D
:10AA9000FF28A1D00130C0B226E0482801D04A28C2
:10AAA0009AD102A80022482B20F8022D4FF0020272
:10AAB00001D0432B20D12FF096F8BDF806004FF6B9
:10AAC000FF73984288D002300EE0EA2810D003D8F5
:10AAD000E82881D3022007E0F0288ED0F1287FF407
:10AAE0007BAF102000E00120C0B203B05DF804FB92
:10AAF0000420F9E70620F7E72FF075F8BDF80630D7
:10AB00009B00ADF80630D8E7252973B504461546F5
:10AB10003DD026D8182930D016D80A296BD006D8AF
:10AB200008292AD009295FD0204602B070BD0F291C
:10AB30007ED0102921D00B29F6D1204604222946A7
:10AB40002FF051F80434EFE7202916D004D81A2941
:10AB500051D049D31B29EFE722294CD044D32329D4
:10AB6000EAE742291AD841294CD22B29E5D008D846
:10AB7000292939D03FD82829D6D12B7804F8013B90
:10AB8000D2E73029F9D031292ED02D29CCD1204639
:10AB9000062229462FF027F80634C5E74A2904D0B3
:10ABA0001CD8432901D04829BED102A80023482936
:10ABB00020F8023D4FF0020201D043292FD129464F
:10ABC0002FF011F8BDF806604FF6FF739E42ABD030
:10ABD0000236B6B23246294620461CE0F02927D07C
:10ABE000F1292CD0E229A7E72046022229462EF09F
:10ABF000FAFF023498E72046032229462EF0F3FF9D
:10AC0000033491E7002A8FD01678FF2E8CD00136BE
:10AC1000F6B2324629462EF0E6FF344484E7294650
:10AC20002EF0E1FFBDF806309B00ADF80630C9E715
:10AC30002046082229462EF0D6FF083474E7102259
:10AC400029462EF0D0FF10346EE700002038C0B245
:10AC50000D289ABF014B185C002070478EBE05007E
:10AC60002B2809D8282805D2202809D3232801D940
:10AC7000252805D1012070472D28FBD0E228F8E7D0
:10AC80000020704770B51449D1F844290AB31578EB
:10AC90000024AC4208D2D2F8013053F824301E7898
:10ACA000864202D00134F4E70023D1F848492CB1A0
:10ACB00025780022AA4203D319460B46184670BDD8
:10ACC000D4F8011051F822100E788642F5D00132E6
:10ACD000F0E71346F2E700BF3882002070B51B2171
:10ACE00088B0044619F0FEFF1B22014601A82EF091
:10ACF0007AFF9DF810603046FFF7C4FF9DF81A30C8
:10AD0000BDF813209DF8171005463046FFF7E8FC04
:10AD100020B9204619F0F2FD08B070BD07F0B6FB6F
:10AD200040B9D5F80330EBB9204603F01EFE0246C9
:10AD300050B9F1E7BDF8130005F0F9FF48B19DF8EF
:10AD400012301B0705D47E2201A9204603F004FF20
:10AD5000E2E7BDF81310BDF8050005F099FF0028E3
:10AD6000DFD1F0E7074BD3F8F03B33B9D5F8033028
:10AD7000204698470028D7D0CEE701A8984700285A
:10AD8000D2D1F3E73882002000F52D33F0B503F27D
:10AD9000A513104D03F00F0213462C469F1C05EB24
:10ADA000C70696F840C9BCF1000F07D104EBC703F2
:10ADB00083F84009C3F83C190020F0BDD6F83C697F
:10ADC000002EF3D0013303F00F039A42E6D16FF067
:10ADD0001500F2E738820020F8B500F52D3303F2B4
:10ADE000A513164903F00F0213460D469C1C01EBF8
:10ADF000C40696F84079874218D119F0F9FF08B1D6
:10AE000024F07CF805EBC406D6F83C0958B1394665
:10AE10001EF00CFC0020C6F83C0905EBC40400231E
:10AE200084F84039F8BD6FF01B00F6E7013303F0FA
:10AE30000F039A42DAD16FF01B00F3E7388200204B
:10AE400037B50D46144619469DF81C30E8B14268E6
:10AE5000DAB13BB1C3785A0617D49B0702D48820D5
:10AE600003B030BD069A0388009220462A46FFF7B9
:10AE70007CFB411C0BD0821D0BD0831CEFD010F14A
:10AE8000280F14BF00207E20EAE78620E8E787200D
:10AE9000E6E70020E4E7034648B3D0F8150028B3FE
:10AEA000B3F80130994224D0B1F5827F1FD06FF4FE
:10AEB00080728A18072A0DD94FF6FF72914211D17C
:10AEC000B3F5827F15D04CF25E00834214BF0020A0
:10AED0000120704701204CF25E02914204D1B3F58B
:10AEE000827FF3E70020F6E70028F8D170470020C2
:10AEF00070470120FAE770B598B1057C0024AC4298
:10AF000002D30023184670BDD0F81130C4EB0416EC
:10AF100033441E888E4202D11E7A9642F2D001340A
:10AF2000EDE70346EEE700002DE9F04F87B08346DA
:10AF30000D4616461F46109C01F08CFD80460028E9
:10AF400000F08780002C00F084809DF844302A4671
:10AF5000CDE9004359463346FFF772FF0390A0BB8B
:10AF60003B463246294658460094FFF72EFB2146C1
:10AF700098F80200D8F80490FFF71AFD214602461F
:10AF800048462EF030FE98F80330590705D53B4669
:10AF900032462946584605F071FA98F803301A07E8
:10AFA00013D54FF0000A2C4B5344D3F84499B9F110
:10AFB000000F0AD04FF0000899F80030984508D3E8
:10AFC0000AF1040ABAF1080FEDD1039807B0BDE801
:10AFD000F08F4FEA88030493D9F8013053F8280022
:10AFE00003785B4532D032462946FFF784FF0028BC
:10AFF000E2D0394601F02AFC02900028DCD0D9F8D2
:10B000000130049A9B5829461878009432463B46F2
:10B01000FFF7DBFA029B5B680593029B2146987859
:10B02000FFF7C6FC059B0246214618462EF0DBFDC5
:10B03000029BDB785B0709D5D9F80130049A985850
:10B0400029463B463246007805F018FA08F1010817
:10B05000B2E701230393B8E7388200202DE9F74FC8
:10B06000002506468946934601930095264BEB182A
:10B07000D3F8447917B3002E43D03A7800239A428C
:10B0800003F1010403D84FEA840A06B313E0D7F8AA
:10B09000011051F823301978B1422346EFD1002630
:10B0A000F1E7012080B101994046FFF7F4FE58B165
:10B0B00098F8003000930435082DD7D1009803B0DC
:10B0C000BDE8F08F5A4614E001340AF1040A3B78D7
:10B0D000A342F0D9D7F80130BBF1030F53F80A802F
:10B0E000F0D1012249464046FFF705FF0028D8D19C
:10B0F000022249464046FFF7FEFE003018BF0120FD
:10B10000D0E73446BFE700BF3882002037B51B21A7
:10B11000054619F0E7FD037BFF2B044630D1037D84
:10B12000B0F80F10002B08BF0122B0F8113018BF83
:10B1300002220020FFF792FF28B9284603B0BDE89D
:10B14000304019F0DBBB207300222946104819F06B
:10B150006CFB0446D0B10F4B1B68002BEDD10CF0FB
:10B160003CFC01460028E8D104230093019440F2FE
:10B17000525340F60F024FF0FF301EF0D9FFDCE7CC
:10B18000284603B0BDE83040FFF7A8BD03B030BD8E
:10B1900001B20200B490002030B589B004461B22F1
:10B1A000002101A82EF043FD01A9204603F08EF9ED
:10B1B00001A905460246204613F0ACF9B8B920466D
:10B1C00019F0FCFB037813F0040F14BF05210321D1
:10B1D000204619F0BDFC1B21204619F083FD1B22DF
:10B1E00001A92EF000FD25B92046FFF78FFF09B019
:10B1F00030BD2A4601A9204603F0AEFCF7E7000067
:10B200002DE9F041CDB207461B21284619F06AFD11
:10B2100004462946384619F0F2FB94F80C80124E89
:10B220001EF0CEF83946B0FBF6F6104832461EF056
:10B2300023FB237DB4F80F10002B0CBF0122022248
:10B24000B4F811304046FFF709FF20B92846BDE8A1
:10B25000F04119F053BB2073324629460448BDE83B
:10B26000F0411EF009BB00BF7CF0C107DDAC02005D
:10B2700085A702002DE9F84F002481468A4627461B
:10B280000E4BE318D3F844699EB196F800B0002540
:10B29000AB450BD9D6F8012052F8258049465246D5
:10B2A0004046FFF728FE38B198F800700434082CA7
:10B2B000E6D13846BDE8F88F0135E9E7388200204D
:10B2C00013B50446B8B9144819F08AFA044680B197
:10B2D000124B1B686BB90CF080FB014648B9042384
:10B2E00000930194402340F60F024FF0FF301EF010
:10B2F0001FFF02B010BD01212020FFF7BBFF014658
:10B30000204621B102B0BDE8104004F027BD02B0D4
:10B31000BDE8104019F0F2BAC1B20200B4900020AA
:10B32000F0B50E4E054600234FF6FF709A19D2F87D
:10B33000441981B10F780022974209D9D1F8014010
:10B3400054F8224094F800C0AC4505D1B4F801008F
:10B350000433082BEAD1F0BD0132EDE7388200203A
:10B3600038B504460D46FFF7DBFF44B1B0F5827FE8
:10B3700005D14FF657402B1A5842584138BD00208E
:10B38000FCE700002DE9F84F002482468846274656
:10B39000104BE318D3F844693EB196F800B000258D
:10B3A0005D4505D30434082CF2D13846BDE8F88F4A
:10B3B000D6F8012052F82590514642464846FFF7FC
:10B3C0009AFD10B1027A424501D00135E8E74F46B7
:10B3D000E8E700BF3882002038B51B2119F082FC55
:10B3E0000446007BFFF74EFC257DB4F80F10002DBE
:10B3F00014BF02220122FFF77EFD124B1B7A012BA4
:10B4000015D0227EA37D6AB1002B0CBF8323842339
:10B41000A8B1012D0DD1027A12F0020F18BF00233E
:10B42000184638BD002B0CBF81238223F0E781230F
:10B43000EEE7002DF4D1027A12F0010FEEE7C323FC
:10B44000EEE700BF443C002007B5014602220DF1A3
:10B4500006002EF0C8FBBDF8060003B05DF804FB43
:10B4600007B5042201460DEB02002EF0BCFB01984B
:10B4700003B05DF804FBF7B50191102116461F4695
:10B48000054619F02FFC0446284615F0C5F995230A
:10B49000032E23609DF8203008BF0199A37316BFC7
:10B4A00001A90822022227716671A01D2EF09BFBC4
:10B4B000294609981EF0BAF803B0F0BDA1F5E06383
:10B4C0000B2B04D9A1F50063584258417047012065
:10B4D000704700002DE9F04F8DB08B46089318217E
:10B4E000BDF8583007939246064619F0FBFB044618
:10B4F000304619F063FA237B0693637B0593037848
:10B50000B4F80A808178E77B13F0030F81460CBF03
:10B510000123002342460598FFF7E2F80546B0B93B
:10B52000BAF1000F0DD0059B0093CDF804A0069B47
:10B530003A4621463046FFF79EFF28460DB0BDE84B
:10B54000F08F304619F0DAF96FF00705F5E741465C
:10B550002089FFF7B3FF0546BBF1000F17D059460E
:10B56000304619F0D2FA0990304619F031FA099BA9
:10B5700083420CD95946304619F0C7FA8346304603
:10B5800019F026FAABEB0001304619F0BBFB012F96
:10B5900011D0E37B022B04D122884FF6F7739A4235
:10B5A00009D8404605F0A8FB28B1089B1BB9237CAD
:10B5B00043F0040323741DB1237C43F00803237478
:10B5C0000DF0C6FF0546002862D106F05FFF002897
:10B5D0005ED0404605F0ABFB002859D00822294632
:10B5E0000AA82EF024FB022F3BD0032F43D0002FBC
:10B5F0000CBF00256FF0270506F048FF002840D05B
:10B60000002F3ED04DB90AA80DF0CCFF28B1022181
:10B610000AA824F069F8002836D15D4B1B6873B97D
:10B620000CF0DBF9014650B90423009340F60F03F8
:10B63000CDF804801A464FF0FF301EF079FD6FF010
:10B640002705BAF1000F3FF478AF059B0093CDF8C2
:10B6500004A0069B3A4621463046FFF70CFF002522
:10B660006BE70AA9208818F045FD002814BF6FF089
:10B6700027050025C0E7082221460AA82EF0B3FAC4
:10B68000BAE7002DC9D1C2E7237C43F0010323743C
:10B6900041460598FFF764FE68B1082200210AA818
:10B6A0002EF0C5FA022F1ED0032F52D03FBB237CB1
:10B6B00043F00103237451463046FFF765FB05460E
:10B6C0000028BED1304619F079F90378DB0602D4A0
:10B6D000012023F0C5FB079B002B53D131462D4899
:10B6E0001DF0A4FF29E70AA9208818F003FD0546EC
:10B6F00030B902210AA823F0F7FF0028D7D100258E
:10B70000234BD3F800B099F802300B2B27D199F8CE
:10B7100000305A0723D199F80430012B1FD1BBF117
:10B72000000F12D10CF059F9014670B9CDF808801C
:10B7300099F8033001930823009340F60F0240F676
:10B7400057034FF0FF301EF0F3FC002D7FF479AF6C
:10B75000B1E7082221460AA82EF045FAC9E7BBF155
:10B76000000F7FF46CAF0CF038F900287FF467AF5E
:10B7700004230093CDF8048040F65E0340F60F02E8
:10B78000594658E7079A034831461EF075F8D4E643
:10B79000B4900020B1AF03002DE9F74F1D469DF88E
:10B7A000303001930F46109B0093182193460646B4
:10B7B0009DF834A0BDF83890BDF83C8019F092FA9D
:10B7C0001822044600212EF032FA032D0CBF082265
:10B7D00002225946E57320462EF005FA019B009A95
:10B7E000237339460023304684F80DA0A4F808904E
:10B7F000A4F80A800C9303B0BDE8F04FFFF76ABECF
:10B800002DE9F04F87B01D469DF840300593CDE9F6
:10B810000101149B0493182103929DF844B0BDF8D4
:10B8200048A0BDF84C909DF854809DF85860BDF834
:10B830005C7019F057FA1822044600212EF0F7F92F
:10B84000032D0CBF082202220399E57320462EF037
:10B85000CAF9DDE90101059B049A2373334684F894
:10B860000DB0A4F808A0A4F80A9084F810801097EE
:10B8700007B0BDE8F04FFFF72DBE00002DE9F04105
:10B88000069D0E4690461F4619F024F9094B00F814
:10B89000016B93F83C49621C83F83C29730702D57D
:10B8A00041461DF0B4FD04704770023005B12C70A4
:10B8B000BDE8F0813882002000487047748B00207A
:10B8C00000487047443C002002289DBF024B18707E
:10B8D00000206FF005007047443C0020014B187AAF
:10B8E000704700BF443C002001289DBF024B1872E6
:10B8F00000206FF005007047443C0020134B1B787C
:10B900001BB391280ED890281AD28A281CD005D8AB
:10B91000A0F18103032B98BF812070478F2808BFB7
:10B920007E207047C12806D8C02809D2922809D0A5
:10B93000932805D07047C22804D0C42804D070478B
:10B94000012070477F20704700207047443C002052
:10B9500010F1170F12D009DC10F11F0F10D0094B96
:10B960001B7A012B0CBF0120C02004E010F10A0F4C
:10B9700002D00028F3D17047852070478720704798
:10B9800081207047443C00202DE9F041064658B91B
:10B990000024FF25FFF790FF43681878A8428CBF6A
:10B9A0002046FF20BDE8F081FFF786FF4368002BAB
:10B9B000EED00024254610E096F80080FFF77CFFCB
:10B9C0004368D3F8013053F825301B7843454FEADC
:10B9D000850709D01934E4B20135FFF76DFF4368DC
:10B9E0001B78AB42E8D8D5E7FFF766FF4368D3F88A
:10B9F0000130DB59D3F81F00024B301A03FB00441F
:10BA0000E4B2C7E7B76DDBB6FF2838B5044601D10D
:10BA1000002038BDFFF750FF4368002BF8D0002509
:10BA200004E0182C09D9193CE4B20135FFF744FFB2
:10BA300043681B789D42F4D3EAE7FFF73DFF436874
:10BA4000D3F8013053F82530D3F81F00C4EBC404F9
:10BA50002044DEE74288C3889A4201D9438002E04D
:10BA600083889A42FAD370472DE9F34706460F467A
:10BA700015462AB918F094FE07463046FFF7EAFF4C
:10BA80002421384619F02EF9002D18BF0646044629
:10BA90007389002B00F0B880B04203D018223146E1
:10BAA0002EF0A1F896F8089071883088B9F1010F4E
:10BAB00024D18842B57996F804C0C2B2CBB215D26F
:10BAC0001544A5EB0C05ED1AEDB2002D00F09A809F
:10BAD00073894FF6FF72934201D0012B1AD10123D3
:10BAE000A3832383384602B0BDE8F0871D44AD1A16
:10BAF000A5EB0C05EDB24FF00009E6E70D1A002D9D
:10BB0000B8BF6D428842EDB294BF4FF000094FF0CC
:10BB10000109DAE74FF0060A0AFB03FA0023E38380
:10BB20003A4B1A68554534BFA583A4F81CA0984623
:10BB300072B90BF052FF014650B9A38B0193042355
:10BB400000934FF40162E2234FF0FF301EF0F0FA51
:10BB5000A38B012B88BFBAFBF3FAD8F80030A4F806
:10BB600018A073B90BF039FF014650B9238B01932C
:10BB7000042300934FF40162EF234FF0FF301EF0D7
:10BB8000D7FAA38B012B88BF95FBF3F5D8F80030CB
:10BB900065837BB90BF021FF014658B9B4F91A301F
:10BBA0000193042300934FF40162FB234FF0FF3015
:10BBB0001EF0BEFAB9F1000F02D0638B5B426383C3
:10BBC0000CF07EF94FF470535843114BB0FBF3F077
:10BBD00073891844D8F800302062002B82D10BF012
:10BBE000FCFE014600287FF47DAF236A0193042305
:10BBF00000934FF4016240F20B134FF0FF301EF040
:10BC000097FA6FE7A5836DE71F466BE7B4900020B6
:10BC1000A086010000221146FFF726BFF8B50546B1
:10BC2000FFF74AFE4368002B00F093802846FFF799
:10BC3000EBFE0646002800F08C802421407919F0A4
:10BC400051F804460CF03CF962894FF6FF739A42B2
:10BC500024D0012A22D0216A4FF470535843424B1A
:10BC6000B0FBF3F04B1C984237D21318278B4FF0E0
:10BC7000060CB7FBFCFCA3EB0C03994234BF5B1A28
:10BC8000CB1A012B12D9884234BF081A401A60819E
:10BC90000020E08301227179FFF7E6FEA08B0028E7
:10BCA00058D001281CD16388238032E00620E18B24
:10BCB000B7FBF0F300FB13739BB29942A2EB0C02AB
:10BCC00092B238BF091862813EBFE18302F1FF32B0
:10BCD0006281E28BD31AE383E0E70123A383DDE7EC
:10BCE000B4F91A202388E1881344A288934208DB20
:10BCF0008B42D9DD5B1A002BB8BF5B42013A13447B
:10BD0000D2E7D21A002A01F10101B8BF52428A1AC1
:10BD10002280E3683BB1012888BF6289307898BFF0
:10BD2000002221469847A38B012B13D9238B0F4860
:10BD30004FF47A5143F6FF3201FB03234FF4705264
:10BD40002946B3FBF2F21DF097FDA38B0BB1013B2B
:10BD5000A383F8BD317860691DF068FC0023B371DE
:10BD6000707918F0CBFDF0E7A08601001DBC020041
:10BD70002DE9F84F804689469246FFF79DFD4368BE
:10BD8000FF26002B3ED13046BDE8F88FFFF794FD2B
:10BD90004368D3F8013053F825301B7843454FEA08
:10BDA000850B24D1FFF788FD4368D3F8013053F8A1
:10BDB0002530D3F81F400027FFF77EFD4368D3F8F6
:10BDC000013053F80B309B7F9F4210D223784345BC
:10BDD00015D1B4F801304B4511D1B4F803305345B7
:10BDE0000DD1A3795BB12046FFF7CEFD06460135A4
:10BDF000FFF762FD43681B789D42C7D3C3E7073452
:10BE00000137D9E70025F3E770B50546FFF754FD84
:10BE1000436813B90025284670BD2846FFF7F4FD96
:10BE200004460028F6D08379002BF3D0002229465F
:10BE300007481DF0E9FE66792421304618F052FFCC
:10BE4000057C304618F05AFD0023A371E3E700BFDC
:10BE50001DBC02002DE9F04F89B08946079305907B
:10BE60009246FFF729FD4368002B40F0A280FF2790
:10BE7000F8B209B0BDE8F08FFFF71EFDAB000693E6
:10BE80004368D3F8013053F8253093F800B0059B90
:10BE90009B451ED1FFF710FD4368D3F8013053F8DE
:10BEA0002530D3F81F40E4B9444B1B688BB90BF025
:10BEB00094FD014668B9059B01930C230093CDE9DD
:10BEC000029A40F29F234FF401624FF0FF301EF0C0
:10BED0002FF90135FFF7F0FC43681B78AB42CBD854
:10BEE000C6E7524649460598FFF742FFFF288046BD
:10BEF00042D0FFF789FF4046FFF786FD0446002E3B
:10BF0000E7D0079B63714FF0010384F800B0A4F8F9
:10BF10000190A4F803A0A3712421079818F0E2FE71
:10BF2000828B1FFA88F752B3012A2FD0414624484A
:10BF30001DF07CFB28E0FFF7BFFC4268069BD2F8AF
:10BF40000120D258927F08F10108424503D90734F5
:10BF5000A279002AEFD1FFF7AFFC4268069BD2F826
:10BF60000120D258927F424521D984F800B0204662
:10BF7000FFF70AFD8046C2E74FF00008E8E702221B
:10BF800041460F481DF078FC0126A2E744894FF690
:10BF9000FF718C4218BF028B43F6FF314FF47A5089
:10BFA00000FB02124FF47051B2FBF1F2E8E70026F9
:10BFB0008FE70126FF2700258CE700BFB490002003
:10BFC0001DBC02002DE9F04788B08146ADF81E1077
:10BFD00018F080FD082303700446FFF76DFC03781A
:10BFE000DFF8B0A05A1C027063700A23A370284BBC
:10BFF0001F7803349846052F36D801223AF81730B7
:10C000001146C42000F026FD064618B301214CF26B
:10C010005D20FFF753FA2146F0B1484618F075FD50
:10C02000C0F5CA60013085B27168B078FEF7C0FC17
:10C030000330854216D3318820461DF0E8F9B378E5
:10C0400000F8013B7268B178FEF75EFD00230446FC
:10C0500088F800300137CEE7484618F056FDC0F1A9
:10C060005200E0E788F8007001230022CDE9033296
:10C070004CF25D21C423CDE9013100930DF11E0284
:10C08000022321464846FFF787FB08B0BDE8F0874A
:10C09000513C00209CBE0500064B1B7802462BB18C
:10C0A000032B03D04FF6FC71FFF78CBF104618F03E
:10C0B00025BC00BF523C002038B5054620B92148B8
:10C0C000BDE8384018F08CBB1F4C227892B3032A8D
:10C0D00030D0012208231146C42000F0BBFC436885
:10C0E00019884FF6FF739942284620D1FFF7D4FFF5
:10C0F0000022114613481DF087FD2378022B20D122
:10C1000001231A461946C42000F0A4FCB0B14368CC
:10C1100018880F3880B21DF03DF90F3080B24222EE
:10C12000424300210748BDE838401DF0A5BBFFF79A
:10C1300049FFDDE7284618F0E1FBD9E74FF4967098
:10C14000E7E738BDB9C00200523C0020F7B50E4603
:10C150000446214D40B92A7822B901231F482B708B
:10C1600018F063FB03B0F0BDFFF7A6FBD0F89C30DE
:10C170005BB302AF3421204607F8046D18F0B2FD1E
:10C18000342200212DF053FD3421204618F0AAFD61
:10C19000652303703421204618F0A4FD0026466074
:10C1A0003421204618F09EFD34218660204618F088
:10C1B00099FD3421C760204618F094FD0661FFF711
:10C1C0007BFBD0F89C3020469847002320462B70FC
:10C1D00018F094FBC6E700BF533C00204DC102009D
:10C1E00010B510B90F4B187010BD0128FCD10E4BC3
:10C1F00019780129F8D10B4C2278012A09D80B486B
:10C2000018F0EEFA0A4818F0EBFA2378013323709D
:10C21000EAE7032200201A702070BDE81040FFF703
:10C2200095BF00BF503C0020523C002079C2020064
:10C2300099C00200002208B511460D481DF0E4FC2B
:10C240000C4B1B78022B12D101221146C42000F0A6
:10C2500001FC48B143681B88054842225A4300212B
:10C26000BDE808401DF008BB4FF49673F4E708BD25
:10C2700079C20200523C0020F0B5044689B020B9D2
:10C28000204818F0ADFA09B0F0BD1F4B1B78ABB3D6
:10C29000032B33D015F0C4F908AE002726F8020DA1
:10C2A000204618F017FC07700546FFF705FB0378DA
:10C2B0005A1C027008216B70AF70E81C1DF0A7F8C3
:10C2C00009211DF0A4F80A211DF0A1F801254CF266
:10C2D0005D23CDE90235C4230146CDE90033324662
:10C2E000049702232046FFF757FA40F2BC72294612
:10C2F00006481DF0C1FAFFF79DFFC4E7204618F07D
:10C30000FDFAF8E779C20200523C0020E1C10200C8
:10C310002DE9F34100220546FF2134481DF074FC4D
:10C320001EF05CF920B1324E33780BB1032B05D1EE
:10C33000284602B0BDE8F04118F0E0BA4FF000081E
:10C34000284618F045FB02283CD9284618F036FB51
:10C350000446002836D08078FFF7D0FAA07010BBD2
:10C36000211DE078FEF724FB0430C7B2284618F000
:10C370002FFB284618F02CFB874223D83946284645
:10C3800018F0E6FBA278002ADAD12388082B0CD11A
:10C3900001920434012200941146C420FEF7C4FD2A
:10C3A0004FF00108CCE70327E3E7092BF0D00A2B75
:10C3B000C6D101920434012200941146C420FEF734
:10C3C000B3FDBDE7B8F1000FB2D00A4B00211970E0
:10C3D0003378012BACD1022340F2DE3206483370B1
:10C3E0001DF04AFAFFF726FFA2E700BFE1C10200F5
:10C3F000523C0020503C0020B9C0020038B5054630
:10C4000018F0DCFA90F84B30044653B90146232269
:10C4100010482DF0E8FB282204F123010E482DF0EE
:10C42000E2FB0C4CD4F84B0070B194F84F101DF0A7
:10C43000FDF8002384F84F3084F84B3084F84C30FA
:10C4400084F84D3084F84E302846BDE8384018F066
:10C4500055BA00BF408100206381002070B5094CAF
:10C46000D4F84B3005460E464BB98F21064820F0D4
:10C47000DDFB18B9C4F84B6084F84F5070BD6FF005
:10C480000300FBE740810020FDC302002DE9F04FCF
:10C490001B218BB0834618F025FC044690F81390BE
:10C4A000584618F08BFAB9F1150F827814BF1B2388
:10C4B00014239A4288BF83708246FFF7FDF94078C3
:10C4C00018F008FB237E002B237D0CBF00220422E2
:10C4D000002B14BF0023082342F01002054613432B
:10C4E00005F8013B237E2BB12846B4F819101CF047
:10C4F0008EFF0546637D2B70B9F1150F14BF0D2318
:10C5000016236B70207BFEF7BDFB237DB4F80F1064
:10C51000002B14BF02220122FEF7EDFC0027436826
:10C52000AF7041880246EE1C00296CD10AA94FF673
:10C53000FD73304621F8023D02222DF054FB2123E9
:10C54000B9F1150F6B714FF0010312BFAE1DAB7146
:10C55000EE1DAB70FFF7B0F9002340780493B4F8F8
:10C560000F300393B4F811300293237B0193E37AE5
:10C570000093621C02233146FFF70EF9FFF79CF986
:10C5800080F801B00BB0BDE8F08F1888BAF800C091
:10C5900081B28C4535D8000433D4B9F1150F19D1C7
:10C5A00094F818C001F48040BCF1000F10D088B995
:10C5B00001375188F8B20139814203D99AF802C093
:10C5C000C445E2D881428CBF00210121A970C1E796
:10C5D0000028EDD13046CDE906321CF018FF069B4D
:10C5E000079A99780170B9F1150F08BFD97808F149
:10C5F000010809BF01F00301461C4170861C5FFA67
:10C6000088F80833D4E7B846D3E72DE9F0478046E9
:10C610000E46914618F0C8F80546002851D04A4603
:10C6200031884046FDF7E3FFFFF746F9D0F89C302C
:10C63000002B41D03421284618F054FB7168044681
:10C64000B078FEF7B5F9B378482B074603D027D862
:10C65000413B022B28D83946284618F001FA3421EC
:10C660008246284618F03EFB04463A464946504664
:10C670002DF0B9FA2773C4F810A00023237098F89E
:10C680000C306370B378A370B8F80F30238133880F
:10C690006381FFF711F9D0F89C30284698470BE0EA
:10C6A0004A2BD8D0F12BD6D03A46494604F10C009B
:10C6B0002DF099FA002CE0D12846BDE8F04718F09B
:10C6C0001DB9BDE8F087000010B507490446FFF723
:10C6D000C5FE043006D1214600220448BDE81040C2
:10C6E0001DF0CAB810BD00BF6FC80200C9C6020065
:10C6F00070B50C46272C054611461E4623D050D84F
:10C700001A2C3FD029D80D2C00F09A8014D80A2C6E
:10C7100038D006D8082C00F08980092C76D028461D
:10C7200070BD0B2C00F086800C2CF8D12846052219
:10C730002DF059FA0535F2E7102C77D009D80E2CD8
:10C7400029D00F2CEBD1284608222DF04CFA0835C1
:10C75000E5E7182C6AD0192CE0E7202C66D00AD81F
:10C760001D2C6DD003D81B2C64D01C2CDDE71E2C97
:10C7700011D01F2CE6E7232C5CD009D8212C45D002
:10C78000222CCCD1284603222DF02DFA0335C6E702
:10C79000252C55D0CAD9284607222DF024FA073572
:10C7A000BDE7392C46D018D82D2C49D00AD82A2CD0
:10C7B000E8D003D8282C39D0292CAFE72B2C39D03E
:10C7C0002C2CB2E7302C31D003D82E2CE3D02F2CD8
:10C7D000B8E7312C1AD0382CA0E7E22C11D8E02C85
:10C7E00028D2432C03D8412C05D23A2CAAE7482C56
:10C7F00001D04A2C93D1284632462DF0F4F9354425
:10C800008DE7EA2C16D007D8E82C88D328460222D8
:10C810002DF0E9F9023582E7F02C94D0F12C7FF469
:10C820007EAF10222DF0DFF9103578E70B7805F890
:10C83000013B74E7284604222DF0D5F904356EE754
:10C84000284606222DF0CFF9063568E710B5436873
:10C8500000220BB9184610BD1C888C42FAD04488BF
:10C860000132944203F10803F3D80023F2E72DE9E3
:10C87000F04F1B218FB0074618F034FA437B054672
:10C88000C3F34013007B0893FEF7FCF92B7DB5F84A
:10C890000F10002B0CBF01220222FEF72CFB099087
:10C8A000FFF70AF8407818F015F92B7E002B2B7D46
:10C8B00014BF04220022002B0CBF0823002342F0E7
:10C8C0001002134300F8013B2B7E1BB1B5F8191081
:10C8D0001CF09DFD6B7D037001234370841C384662
:10C8E00018F06CF88246384618F072F843080A933C
:10C8F0004FF000080A9B5FFA88F1994252D2022257
:10C900000AEB41010DF136002DF06DF9BDF836103E
:10C910000998FFF79BFFB5F80F100646B5F8110010
:10C92000FEF7CCFD08B3FEF7C7FF2146407818F0AC
:10C93000ECF8C0F5CA6909F10109FEB9BDF8361075
:10C940004FF6FD73994262D10DF136010222204665
:10C950002DF049F92123A670E3700121201D1CF060
:10C9600056FD044608F10108C4E7FEF7A5FF21467D
:10C97000407818F0CAF8C0F15209DEE77168002962
:10C9800045D0F37813F0400B41D1DA0728D49B0748
:10C990003FD5FEF7A3FF01280CBF7E268F26B9F1F5
:10C9A000020F3AD8FEF788FF089A40780023CDE9B5
:10C9B0000432CDE90633B5F80F300393B5F81130E2
:10C9C00002932B7B0193EB7A00936A1C022321468E
:10C9D000FEF716FFFEF770FF47700FB0BDE8F08F4F
:10C9E000B078FDF7E5FF011D894514D30B90318820
:10C9F00020461CF00CFD80F800B0B2780B9B427012
:10CA00009BB27268B1780230FFF772FEA9E7862602
:10CA1000C5E70126C3E78926C1E72046BDF83610E1
:10CA20001CF0F5FC044604F8016B9BE710B51B21D4
:10CA3000044618F057F9B0F80F2040F605339A4233
:10CA4000204603D1BDE81040FFF73EBEBDE81040D0
:10CA5000FFF70DBF70B50D4616461C46FEF712F9DE
:10CA600029463246FEF747FA2146BDE87040FFF7F7
:10CA7000EDBE2DE9F04F1B218FB0814618F032F941
:10CA80000446007BFEF7FEF8237DB4F80F10002B60
:10CA90000CBF01220222FEF72EFAE37C0D90052B3B
:10CAA00077D0FEF709FF407818F014F8237E002BAA
:10CAB000237D14BF04220022002B0CBF0823002377
:10CAC00042F01002134300F8013B237E1BB1B4F87F
:10CAD00019101CF09CFC637D037004234370851CBB
