:020000022000DC
:1070000000000420B5720200DD720200DF7202008F
:10701000E1720200E3720200E5720200000000006B
:10702000000000000000000000000000E772020005
:10703000E972020000000000EB720200ED72020033
:10704000C9740300EF7202004D760300EF72020074
:10705000EF720200EF720200CD710300EF720200C6
:10706000EF720200EF720200D9790300EF720200A2
:10707000EF72020069770300EF720200EF72020004
:10708000EF720200C52B0300EF720200EF720200E4
:10709000EF720200EF720200FD010400AD32070042
:1070A000EF720200EF720200ED790300017A030033
:1070B000EF720200EF72020000000000000000000A
:1070C000EF720200EF720200EF720200EF72020034
:1070D000F9210700EF720200EF720200E59503004C
:1070E000EF720200EF720200EF7202000000000077
:1070F00000000000EF72020000000000EF720200CA
:10710000000000000000000000000000000000007F
:10711000000000000000000000000000000000006F
:10712000000000000000000000000000000000005F
:10713000000000000000000000000000000000004F
:10714000000000000000000000000000000000003F
:10715000000000000000000000000000000000002F
:10716000000000000000000000000000000000001F
:10717000000000000000000000000000000000000F
:1071800000000000000000000000000000000000FF
:1071900000000000000000000000000000000000EF
:1071A00000000000000000000000000000000000DF
:1071B00000000000000000000000000000000000CF
:1071C00000000000000000000000000000000000BF
:1071D00000000000000000000000000000000000AF
:1071E000000000000000000000000000000000009F
:1071F000000000000000000000000000000000008F
:1072000010B5054C237833B9044B13B10448AFF3E0
:1072100000800123237010BD982101200000000090
:107220000CC4070008B5034B1BB103490348AFF377
:10723000008008BD000000009C2101200CC4070054
:10724000154B002B08BF134B9D46A3F5803A002138
:107250008B460F461348144A121A4CF0F0F90F4BA4
:10726000002B00D098470E4B002B00D098470020F1
:10727000002104000D000D48002802D00C48AFF397
:1072800000804CF061F92000290012F09BFD4CF0C9
:1072900035F900BF000008000000042000000000D5
:1072A000000000009821012050D7012000000000BC
:1072B000000000000649074A074B9B1A03DD043B08
:1072C000C858D050FBDC00F0F7F8FFF7B9FF00001A
:1072D000DCC507000016012098210120FEE7FEE72B
:1072E000FEE7FEE7FEE7FEE7FEE7FEE7FEE7FEE776
:1072F000074B1B5C1F2B8ABF064A4FF0A04203F0CE
:107300001F03D2F80405D840C04300F001007047C5
:10731000B05C070000030050074B1B5C1F2B86BFAF
:1073200003F01F0305494FF0A041012202FA03F3C5
:10733000C1F80C35704700BFB05C07000003005077
:10734000074B1B5C1F2B86BF03F01F0305494FF043
:10735000A041012202FA03F3C1F80835704700BFCB
:10736000B05C07000003005008B50020FFF7E8FFFD
:107370000120FFF7E5FF0220FFF7E2FF0320BDE851
:107380000840FFF7DDBF08B50020FFF7C5FF01206B
:10739000FFF7C2FF0220FFF7BFFF0320BDE8084050
:1073A000FFF7BABF0A4B185C1F288ABF094B4FF082
:1073B000A04300F01F00D3F804250121814021EAF9
:1073C00002000A40C3F80805C3F80C25704700BF47
:1073D000B05C0700000300500B2809D00C2809D02E
:1073E000182809D019280CBF03204FF0FF30704730
:1073F000002070470120704702207047C20710B577
:1074000004460CD54FF0A0430322C3F83427C3F839
:107410003827C3F83C27C3F84027FFF7A5FFA30789
:107420000AD54FF0A0430C22C3F82C27C3F830270D
:10743000C3F86027C3F8642710BD000010B586B0FC
:10744000044646F06DFC02281ED10021142201A83A
:107450004CF0F5F84FF4C85301930C490C4BCDE9AF
:1074600003134FF4FA73ADF814303CB1012C09D07A
:1074700001A84BF073FB002006B010BD40F6C4130A
:107480000293F5E7034BFBE70820F5E7000E27071B
:1074900005007E00FF1FA107054B1B68082B01BFDD
:1074A000044B1868B0FA80F0400918BF00207047FC
:1074B000300100103401001008B54FF08043002265
:1074C000C3F80C21C3F81021C3F838254FF08052BF
:1074D00003F54043D2F80414C3F82015D2F8081479
:1074E000C3F82415D2F80C14C3F82815D2F81014D8
:1074F000C3F82C15D2F81414C3F83015D2F81814A8
:10750000C3F83415D2F81C14C3F84015D2F820146F
:10751000C3F84415D2F82414C3F84815D2F8281437
:10752000C3F84C15D2F82C14C3F85015D2F8301407
:10753000C3F85415D2F83414C3F86015D2F83814CF
:10754000C3F86415D2F83C14C3F86815D2F8401497
:10755000C3F86C15D2F84424C3F87025FFF79CFFDC
:1075600010B1384B384A1A60FFF796FF18B1374B05
:10757000FB22C3F81825FFF78FFF48B13449354B7C
:107580000A681B6822F00F0203F00F0313430B601D
:10759000FFF782FF18B1304B4FF400721A604FF0C2
:1075A0008043D3F80024D20744BF6FF00102C3F830
:1075B00000242A4AD2F8883043F47003C2F8883095
:1075C000BFF34F8FBFF36F8F4FF01023D3F800221C
:1075D000002A03DBD3F80432002B2FDA204B0122E0
:1075E000C3F80425D3F80024002AFBD04FF0102262
:1075F0001221C2F80012D3F80024002AFBD04FF069
:1076000010231222C3F80422154B1A46D3F8001493
:107610000029FBD00021C3F80415D2F80034002B58
:10762000FBD0BFF34F8F0D490E4BCA6802F4E062E6
:107630001343CB60BFF34F8F00BFFDE70A4B0B4AEC
:107640001A6008BD8C5600404881030000F00040DD
:10765000E40E0040580200104096024000ED00E0A9
:1076600000E001400400FA05001601200090D0035C
:10767000BFF34F8F0549064BCA6802F4E06213431B
:10768000CB60BFF34F8F00BFFDE700BF00ED00E010
:107690000400FA0546DF704738B504460D4600F091
:1076A000DFF8702C064C08D1B5F5457F05D133F0D5
:1076B00055FE10B90123237038BD0023FBE700BF3E
:1076C000B5210120082807D80123834040F2F11298
:1076D000134201D04BF0F6B9704713B502AC00234A
:1076E00004F8053D01939DF80330032B08D90421CC
:1076F0000DEB01000FF0E2F930B9019802B010BDB6
:1077000020460FF0C9F9EEE70020F7E708B500F0D2
:10771000A7F8044B1B781BB900F0A2F8FFF7A8FFED
:1077200008BD00BFB521012010B50E4B1C78C4B9AF
:1077300001220D481A7034F027F900F077FA00F0B2
:107740008BF820460FF05CF918B1852801D0FFF7BF
:10775000DDFFFFF7C2FF4CF0A1FBBDE810400EF0CB
:1077600053BB10BDB42101209976020000200AF01D
:107770009DBF07B502A8002300F8013D0AF072FF83
:1077800003B05DF804FBFFF7A8BF30B50D468DB020
:107790001446A2B199B190B10146102268464BF04F
:1077A0002AFF102229460DEB02004BF024FF684609
:1077B000FFF770FF102208A920464BF01CFF0DB008
:1077C00030BDEFF30580003018BF01207047000086
:1077D000F7B54FF0805300251C6E596E04F0FF077B
:1077E00045EA010206A5D5E9004502A9224347EA78
:1077F000050361E9022308224BF0FDFE03B0F0BD52
:10780000000000000036CEF470470FF025B908B52F
:1078100000200FF0F5F818B1BDE80840FFF776BF7B
:1078200008BD10B5044658B1FFF7EFFF204600F041
:1078300029FA0EF0FFFA00F04BFA0446FFF7E7FFD3
:10784000204610BD024B1A78024B1A70704700BFD9
:107850006C1E01206D1E012000F006B800F01EB85D
:1078600000F04AB800F012B8054B1A783AB9054A48
:10787000127812B9044A12780AB101221A707047BC
:107880000C2201206D1E0120A8AB0120024B1A68BA
:107890000AB100221A607047082201202DE9F8433E
:1078A000124B1B7880460D46DBB9BDE8F88338687B
:1078B000C0F1500414F0FF0404D1FFF7E7FF002DDE
:1078C000F5D1F2E7AC42A8BFECB208EB06012246C4
:1078D00048444BF090FE3B6823443B6026442D1BFC
:1078E000EDE70026024FDFF80C90E8E70C220120BC
:1078F00008220120B6210120FFF7C8BF0378022B20
:107900009EBF024B00221A70704700BF0D2201205B
:1079100040F6F8731868431C04BF054B18684FF015
:107920008053411C1A695B6908BF03FB02F0704772
:107930001410001008B5FFF7EBFFA0F5104008BDCC
:1079400010B5FFF7E5FF094C2061FFF7F3FF084B87
:10795000E06000220749C3F8082120460DF0CBFF64
:1079600018B1BDE81040FFF7D1BE10BD8021012045
:1079700010220120206607004FF48040704702204B
:10798000704708B513460A4631B143B1014618465F
:107990004BF031FE002008BD6FF00A00FBE76FF0EE
:1079A0000B00F8E70128F8B507460C4616461D46B9
:1079B00010D80B44B3F5804F0FD88AB19DB1FFF7B3
:1079C000B9FF04EB873101442A4630464BF013FEE1
:1079D0000020F8BD6FF03800FBE76FF01600F8E705
:1079E0006FF00B00F5E76FF00C00F2E70128F7B538
:1079F00007460D4616461C4624D80B44B3F5804F67
:107A000023D82AB33CB3A30827D0FFF793FF144B26
:107A100005EB873101441D461A7802F0FF00002A69
:107A2000FAD101221A700090234632460D480DF01B
:107A30006BFF2B78002BFCD1003018BF0120404297
:107A400003B0F0BD6FF03800FAE76FF01600F7E70B
:107A50006FF00B00F4E72046F2E76FF00C00EFE761
:107A60000D2201208021012001282DE9F047064642
:107A700025D8FFF75FFF154FDFF854A000EB8635E0
:107A800005F58048B9463A7802F0FF03002AFAD19A
:107A90000122294650463A700DF064FF90B999F8DA
:107AA000003003F0FF04002BF9D105F58055A845FF
:107AB000E9D130462EF012FE2046BDE8F0876FF087
:107AC0003800FAE74FF0FF30F7E700BF0D22012042
:107AD0008021012010B5084CD4F8083153B19BB275
:107AE0002246D4F8041194F80001FFF77FFF002329
:107AF000C4F8083110BD00BF102201202DE9F84361
:107B00001C4C1E46D4F8083181460F4690466BB196
:107B100094F80021824207D1D4F804211A449142FA
:107B200002D1B3F5807F01D1FFF7D4FFD4F808016B
:107B300018B984F80091C4F80471C0F58075B54295
:107B400034BFADB235464DB12A46414620444BF0D4
:107B500052FDD4F808312B44C4F80831761BB6B274
:107B600016B93046BDE8F883FFF7B4FF2F44A844A8
:107B7000DCE700BF1022012007B50C4B186800900D
:107B8000FFF7D8FE042200F500410DEB02004BF098
:107B900032FD042269460DEB02004BF01DFDB0FAE8
:107BA00080F0400903B05DF804FB00BFB45C07003F
:107BB00038B505460C46FFF7BDFE00F500402A46E5
:107BC00021460430BDE83840FFF7DBBE70B50646FD
:107BD0000D461446FFF7AEFE04F500440434324669
:107BE00029462044BDE87040FFF7CBBE7047000037
:107BF0002DE930484AF08AFC084B09490A68D3E964
:107C000000BC821A1BEB02044CF10005C3E90045DD
:107C10000860D3E90001BDE8308800BF402301209F
:107C20001C23012008B5FFF7E3FF08BD08B54AF0A3
:107C30006DFC034B1860034B01221A7008BD00BF96
:107C40001C2301203823012008B5FFF7D1FF4FF492
:107C5000705200234DF0A0FE08BD704708B5FFF735
:107C600088FD044B1B780BB9FFF7E0FFBDE8084027
:107C7000FFF77CBD38230120014B1878704700BF07
:107C80003823012010B504464AF040FC0C4B186024
:107C9000A4B10C4B0C4A9A600C4A1860944228BF5D
:107CA00014464FF47A725443002118465C60D96040
:107CB0004AF038FCBDE81040FFF79ABF10BD00BF86
:107CC0002023012024230120ED7B020018CC070093
:107CD00038B54AF01BFC074B1C68C4F5797405469F
:107CE0000334FFF785FF2C444FF47A70B4FBF0F0B7
:107CF00038BD00BF202301201F2886BF00F01F00D1
:107D0000044A4FF0A042012303FA00F0C2F80C0528
:107D1000704700BF000300501F2886BF00F01F00FF
:107D2000044B4FF0A04300F5E070032243F82020FD
:107D3000704700BF0003005008B51620FFF7ECFFA6
:107D40001320FFF7E9FF1720FFF7E6FF1120FFF7E9
:107D5000E3FF1420FFF7E0FF2D20FFF7DDFF1349BD
:107D60000223C1F838372F20FFF7D6FF1520FFF781
:107D7000D3FF1620FFF7C0FF1320FFF7BDFF17202A
:107D8000FFF7BAFF1120FFF7B7FF1420FFF7B4FF8A
:107D90004FF40053C1F808354FF40043C1F80835DB
:107DA0001520BDE80840FFF7A7BF00BF0003005043
:107DB00030B510238BB04FF49072154915480BF075
:107DC0004BF808B108F03AFC134D45F081FF0FCD98
:107DD00001AC0FC40FCD0FC42B68236001A848F07D
:107DE0003DFE0020FFF72AFB012045F0E7FF0120C0
:107DF00045F0E8FF094A00231370094A1370094A45
:107E00001370094A1370094B01221A700BB030BD70
:107E10004C2301206C240120B85C0700482301207A
:107E20004A2301204B23012049230120041601206D
:107E300045F04ABF07B502AB23F8020D184645F0DE
:107E400041FF03B05DF804FB07B502AB23F8020D58
:107E5000184645F03BFF03B05DF804FB034B1A786E
:107E60001AB100221A70024B187070474923012082
:107E700004160120034A13781BB100231370024A31
:107E800013707047492301200416012010B5074BD9
:107E90001A78002AFCD101224FF470541A7044431E
:107EA000204645F06BFF0028FAD010BD4A23012080
:107EB000034B1A781AB1034A107000221A707047E7
:107EC0004A2301204B230120034A1378002BFCD1C5
:107ED000024B1B78037070474A2301204B2301207B
:107EE00045F0D8BE45F0E7BE10B5044645F0E5FEC6
:107EF000207010BD45F064BF08B545F025FF00288F
:107F0000FBD008BD08B545F017FF0128FBD008BD20
:107F100008B545F005FFC31E5842584108BD08B5D5
:107F200045F0FEFE023818BF012008BD13B5044617
:107F3000022C104608D0032C10D0012C14D145F08F
:107F400052FF204602B010BDA1F59C420093203A9A
:107F500044F62063002145F009FFF3E7002102B059
:107F6000BDE8104045F0F6BE0020EBE710B50C462A
:107F700017F0F8FB036A013303622046BDE81040A6
:107F80002DF0F4BC10B50C46072942D8DFE801F00B
:107F900004171D23292F353B17F0E4FB436A0133F7
:107FA0004362012000FA04F414F0DA0F03D114F054
:107FB000240F2ED00420BDE810402DF003BD17F093
:107FC000D1FB836A01338362EBE717F0CBFBC36A13
:107FD0000133C362E5E717F0C5FB036B01330363AD
:107FE000DFE717F0BFFB436B01334363D9E717F0BB
:107FF000B9FB836B01338363D3E717F0B3FBC36B28
:108000000133C363CDE717F0ADFB036C01330364A9
:10801000C7E710BD45F0B6BE4378024AC3F300136C
:108020001370704748230120F7B50D4601780939D0
:108030007629044616461F4608D945F0A3FE17F0D8
:1080400091FB83680133836003B0F0BD17F08AFBB6
:1080500001680131016001A90D480AF032FF40B901
:10806000204645F08FFE17F07DFBC3690133C361E5
:10807000EAE7084B04601A7805714671876002735D
:1080800001A9002202481A700AF045FFDCE700BF90
:108090006C2401204823012008B506280AD8DFE80F
:1080A00000F0040D13191F252B0017F05BFB43682C
:1080B00001334360134B00221A7008BD17F052FBC6
:1080C000836801338360F5E717F04CFBC368013325
:1080D000C360EFE717F046FB036901330361E9E78B
:1080E00017F040FB436901334361E3E717F03AFBC4
:1080F000836901338361DDE717F034FBC369013322
:10810000C361D7E74823012011B1114645F065BE90
:10811000114645F059BE08B5002045F061FE01202A
:10812000BDE8084045F05CBE034BD8881B89C01AE7
:1081300018BF0120704700BF6C24012073B50546AD
:1081400010B9002002B070BD01A917480AF0F3FE73
:1081500004460028F5D003681E78284631462CF0E6
:1081600023F92168324601314BF045FA28462CF0BC
:10817000DAF8637900F8023C94F9043000F8013C25
:10818000042128462CF052FAA3680360217B28467C
:108190002DF054FC206845F0F5FD01A902480AF0D5
:1081A000F5FE0120CEE700BF6C240120F8B50F4B8F
:1081B000002420220F460D2183F88A201C7083F8AA
:1081C000784083F88C1022462346054632F014FC92
:1081D000064650B1214628462CF0B5FA377029469C
:1081E0000348BDE8F84031F0BDBDF8BD0AB101203B
:1081F000E5AE050073B502AB00220C4603F8012D75
:1082000011462BF0EFFB38B90A4B9DF8071093F895
:1082100043200D25824202D86FF01B0006E005FBCB
:108220000036F67B8E4203D12070002002B070BD74
:108230000130EFE70AB101200B4BD3F801202AB936
:1082400083F87820114609482BF093BF8C2A0BBF86
:108250000722062283F8782083F8782007BF0022BF
:10826000032100220221EEE70AB10120AD810200C4
:1082700037B5114C05462CF045F82278042A07D171
:1082800042782AB929460D482BF073FF03B030BD60
:108290000DF107014088FFF7ADFF0028F6D19DF8EA
:1082A000073007480D2202FB034329465A7D01325D
:1082B0005A7531F057FDE9E70AB101204D850200FA
:1082C0001587020008B50022FF21094832F038F86E
:1082D0000022FF21074832F033F8752200210648BA
:1082E0004BF0ADF9054B064AC3F8942D08BD00BF0D
:1082F00039820200358302000AB10120A4B60120B0
:10830000C588020010B50022084C0948114632F019
:1083100017F894F8440003F0C3FC002320222370D4
:1083200084F88A2084F8783010BD00BF0AB101209B
:108330003583020010B5044620B90948BDE8104055
:108340002BF0F2BEFFF7DEFF00230C2120461A4679
:1083500032F052FB21460348BDE8104031F002BD27
:1083600035830200E5AE050008B50022FE21054870
:1083700031F0E6FF002201210348BDE808402BF060
:10838000F8BE00BF39820200AD81020070B50C4B0F
:10839000D3F845302BB11C7CD3F811500023A342F5
:1083A00001DB002070BDC3EB03122A44168886420D
:1083B00002D1127A8A4201D10133F0E70120F1E7BC
:1083C0000AB101202DE9F047044688B0C0790E4675
:1083D0002BF098FF90F80BA0077B80465744D4F809
:1083E0000950BD4280F090802B1D08EB4303AA4545
:1083F00094BF02210121B3F805904846FFF7C6FF5C
:10840000002800F08A80DFF838A11C2130462CF0CB
:108410000DF9DAF809300546D046002B50D0217806
:1084200006A82AF065FFA279DAF809A022444B4693
:10843000527806A90220D047002841D16FF04402AB
:10844000D4F809309F4270D13D4F97F84A30002B45
:1084500067D0B7F875204FF6FF739A4261D00025B8
:10846000217806A82AF086FF2B462A46012100958E
:10847000304601F051FDB7F8751031F05AFB014656
:108480004FF48273042201F8015BCDE902320495B6
:1084900097F844300193A379234406AA5B780093AC
:1084A0003046022301F0C6FCA379E1792548013367
:1084B000A37131F057FC0023E37108B0BDE8F087E9
:1084C0001C22002128464BF0BAF8284632F078FCEE
:1084D00098F844302B72A5F80A90B8F875204FF63A
:1084E000FF739A4212D1217805F10D002AF000FFA6
:1084F00003232B73A379234430465B786B75124BAF
:108500002672AB611AF088FA002299E701232B73D7
:10851000B8F87530A5F80D30ECE70135C4F809500E
:108520005DE730462BF08EFEBEE7002AC5D0013352
:10853000C4F8093031462046FFF744FFBDE700BFCD
:108540000AB1012015870200E98502002DE9F341F7
:10855000CFB2054638460C462BF0D4FE204EC188DB
:108560008046D6F8450000F078FFB8F802300DF1EB
:108570000701A8B11846FFF73DFE30BB9DF8073054
:108580000D2101FB0364294620766076A076E07613
:108590002046A7750F30FFF715FF02B0BDE8F08148
:1085A0001846FFF727FE804678B99DF807000D238F
:1085B00003FB00603946437D01334375094831F0C0
:1085C000D1FB002DE9D0444600E015B128462BF040
:1085D00039FE002CE1D0E0B22BF034FEDDE700BF25
:1085E0000AB10120158702002DE9F04F1C2185B04A
:1085F0008146304C2CF01AF894F84320834600252D
:108600000D21954215D32C4B1B687BB9FFF7D9F888
:10861000014658B904230093CDF804904FF4BA737F
:1086200040F25B324FF0FF3032F096F905B0BDE812
:10863000F08F01FB05F804EB0803D87D48450DD108
:108640000026DE7548462CF077F848B16FF07303CA
:10865000A670E67026716370012609E00135D0E747
:1086600001236070A070E070207184F84A300646E3
:108670000D2707FB054702A8F97B2AF039FED4F83D
:1086800009A0BAF1000F07D07B7D1F4402A9BBF8F7
:108690000A303A7C3046D0470D2303FB054508F1EC
:1086A0000F00AB690133AB6149462044FFF78AFEF6
:1086B000BCE700BF0AB10120BCC6012070B50E4660
:1086C0000546014630462CF03EF88C2D0F4C03D168
:1086D000072384F8783002E0B5B984F8785023781D
:1086E000052B06D1002394F878200C21304632F077
:1086F00083F900232370202384F88A30314604480C
:10870000BDE8704031F02EBB0623E2E70AB101203C
:10871000E5AE05002DE9F34105462BF0F3FD0DF123
:1087200005014088FFF766FD074600284AD19DF8FD
:108730000530274C0D2202FB0346717D307D8842B7
:1087400022D93144284691F8108003212BF02CFEC9
:108750000322394604464AF072FFF17B0DF1060010
:108760002AF008FEBDF80630238084F802801949FB
:10877000284636F0C3FAFF2803D129468A20FFF79E
:108780009DFF02B0BDE8F081FF21022BF1730BD8F1
:1087900003FB022000F10F01C3F1030302305A432F
:1087A000214420444AF032FF94F84330013BDBB2CD
:1087B00084F8433033B9D4F801208C2A08BF07234A
:1087C00084F87830002DDCD028462BF03BFDD8E72C
:1087D0000AB10120718202002DE9FF47364D804623
:1087E0002BF090FD95F80090B9F1040F07465AD18F
:1087F0000DF10D014088FFF7FDFC8246002858D19D
:108800009DF80D400D2606FB04560DF10E00F17B80
:108810002AF0B0FD3B793375042B86F815A029D9D1
:10882000264B1A689A4602BBFEF7CBFF014650B9A9
:10883000337D40F25B32CDE900934FF0FF3040F2E0
:10884000B33332F089F8DAF8003073B9FEF7B9FFC4
:10885000014650B90423CDE9003340F25B3240F2C7
:10886000B5334FF0FF3032F077F80D2303FB04539C
:1088700004221A750D2303FB0453197D04EB4403F2
:1088800004EB830400238B4206D341460C4831F0AD
:1088900069FA04B0BDE8F087FA1850791A192A4429
:1088A00001331074EFE76FF007004146FFF706FF52
:1088B000EFE70020F9E700BF0AB10120BCC60120A4
:1088C000158702002DE9F047664D2B78042B8CB0FC
:1088D000064640F0C380D5F801301C3304D1002394
:1088E0006B70AB70EB702B711B2130462BF09EFE32
:1088F0001B22014605A84AF07EFE03A9BDF815001B
:108900002BF09CF828B9584B93F8D00F10F02004A6
:1089100014D0062130462BF089FEBDF81530438077
:108920000380002383805149304636F0E7F8FF2862
:1089300074D131468A20FFF7C1FE6FE0FF238DF826
:108940000A302B78BDF815709DF81F90042B1FFA84
:1089500087F810D10DF10A014046FFF74BFC70B1CA
:1089600095F84330032B04D88DF80A30013385F88D
:108970004330204601E06FF00700012400E0044688
:108980009DF80AA0BAF1FF0F4DD0002C49D000226B
:108990000DF10B03114640462BF024F8002842D17C
:1089A0000D2303FB0A539DF80B20DA7318755875D5
:1089B0004FF00D0808FB0A5898F81430032B35D8EF
:1089C00008EB0302013382F8109088F81430002C71
:1089D00043D0052130462BF0E7FC05220446002158
:1089E0004AF02DFE002363700D2303FB0A556780B8
:1089F0002B7D23711E4B1B6863B9FEF7E2FE014617
:108A000040B900904FF45F7340F25B324FF0FF309B
:108A100031F0A2FF3146174831F0A4F90CB0BDE89F
:108A2000F0870028C4D0314600B284E7104B1B68A1
:108A3000002BCCD1FEF7C5FE01460028C7D198F81F
:108A4000143001930423009340F25B3240F27133FF
:108A50004FF0FF3031F080FFB9E730462BF0F2FBEA
:108A6000DCE700BF0AB10120A4B60120158B02008B
:108A7000BCC6012015870200F7B50E4602A9FF25E6
:108A8000044601F8025D3046FFF7B4FBA0B31F4A6D
:108A900092F84330032B04D88DF80630013382F866
:108AA00043309DF80650FF2D29D002AB002203F879
:108AB000012D114630462AF095FF0746F8B9134BB1
:108AC0000D2202FB05359DF80730EB73022120468D
:108AD0002BF06AFC0546022239464AF0B0FD2E8092
:108AE0000B49204636F023F9FF2803D121468A207E
:108AF000FFF7E4FD03B0F0BD8DF80650D1E7002C80
:108B0000F8D020462BF09EFBF4E700BF0AB101200D
:108B1000D987020037B504462BF0F4FB0546204602
:108B20002BF00AFE024658B969890DF10703A81C0B
:108B30002BF07EF869892046FFF79EFF03B030BD19
:108B400020462BF07FFBF9E72DE9F7430A9F1E46ED
:108B500080468946154601F0FDF9D0F8B030DBB10A
:108B600001F0F8F90097D0F8B04033462A4649465C
:108B70004046A04704464A464146284603F005FBC6
:108B800014F1450F03460BD148B13A462946304609
:108B900003B0BDE8F04318476FF04404EBE7044628
:108BA000204603B0BDE8F0832DE9F041069F05465D
:108BB0001E4603F0FFFA044630B13A4631462846D5
:108BC0002346BDE8F0411847BDE8F081B0F80F300A
:108BD000B3F5A06F01D102F0DBBD704700207047F4
:108BE00070B51B2188B005462BF020FD1B220146E5
:108BF00001A84AF000FD01F0ADF9D0F8AC604EB12B
:108C000001F0A8F9D0F8AC309DF8100098476FF04B
:108C10001E0017E001F09EF9D0F89C30002BF6D032
:108C2000342128462BF002FD1D2303709DF81030DF
:108C300043704660044601F08DF9D0F89C30284618
:108C40009847606801F0D2F901A90246284603F06E
:108C50004BFB08B070BD0000FF2808B506D101F03D
:108C600079F9034BC0F85832012008BD0020FCE719
:108C70000816012010B5FF2888B0044607D101F07E
:108C800069F90C4BC0F85832012008B010BD1B2107
:108C90002BF0CCFC1B22014601A84AF0ACFC9DF84D
:108CA000173023B92146044831F05CF8ECE7002086
:108CB000EBE700BF18160120E18B020007B5054B5A
:108CC00000930023044A0121184603F0C7F803B0BB
:108CD0005DF804FB758C0200DD8B020007B5054BC7
:108CE000009300231A460221184603F0B7F803B098
:108CF0005DF804FB598C0200F8B50C461546074692
:108D00001E4600F09BFA0122002100F0D6FB90B134
:108D1000122301220021384601F0CCFE58B14368ED
:108D2000187840B91EB1052C05D90B2C02D1032DA2
:108D300001D00020F8BD0120FCE7000037B5014656
:108D4000044600220F482BF014FA0546B8B10E4B2A
:108D50001B6873B9FEF735FD014650B90423009333
:108D600001954FF49F6340F60F024FF0FF3031F052
:108D7000F3FD204603B0BDE830402BF063BA03B0EA
:108D800030BD00BFC5970200BCC6012013B5154A0F
:108D9000D2F8E03A1BB1D2F8E43A2BB901230233FE
:108DA00002EB8303C3F8D80AD2F8DC3ABBB9C2F8A5
:108DB000DC0A0D482BF0B8F9044680B10B4B1B6858
:108DC0006BB9FEF7FEFC014648B9042300930194F9
:108DD0007D2340F60F024FF0FF3031F0BDFD02B0B1
:108DE00010BD00BFA4B6012085980200BCC60120BA
:108DF000F8B5124BD3F8843B0446007803B198478A
:108E00000F4F22783A700025237C9D4202D3FF2326
:108E10003B70F8BDD4F81130C5EB05163344D3F8D8
:108E20000B3003B19847D4F81120B4F80110207822
:108E3000324404F0F7FC0135E6E700BFA4B6012098
:108E4000281601202DE9F04F454BD3F8DC3A8DB0C0
:108E5000002593F800A00793AC465FFA8CF9CA4549
:108E60007CD9079BD3F8013053F805B05A199BF809
:108E7000103009920A93002201231AE0C3EB031178
:108E8000C2EB02180B9100200999DDF82CE051F893
:108E900020100691097C08911946089C8C4210D834
:108EA000013009EB0001C9B28A45EDD80133013226
:108EB000DBB20A98D1B28842E0D80CF1010C04353B
:108EC000CBE7DBF81170069E07EB08040594D6F893
:108ED0001160248876443788A7423AD1059F367AB4
:108EE0003F7AB74235D1042C12D0192C10D0202C47
:108EF0000ED040F20B76B4420AD040F20126B442C2
:108F000006D0B4F5006F03D04FF65746B44220D1D7
:108F1000144B1B68CBB9FEF754FCB0B9104BD3F817
:108F2000DC3AD3F801305B59D3F81130984401464C
:108F300098F80830CDE901430823009340F60F026A
:108F4000D2234FF0FF3031F007FD00200DB0BDE817
:108F5000F08F0131C9B20EF10F0E9EE70120F5E747
:108F6000A4B60120BCC60120272807B5034620D09F
:108F700041D81A2838D022D80D2800F0978011D86F
:108F80000A2831D007D8082800F0898009287DD028
:108F90004FF0FF3084E00B2800F086800C28F7D1DA
:108FA00005207DE010287AD005D80E2821D00F2882
:108FB000EED1082074E0182871D01928E7E720289E
:108FC0006DD00AD81D2871D003D81B286CD01C285E
:108FD000E5E71E280DD01F28EAE7232864D005D82E
:108FE000212853D02228D3D1032059E025285DD051
:108FF000D6D9072054E03A28DBD019D82D2855D0EF
:109000000AD82A28F0D003D8282848D02928BEE733
:109010002B2849D02C28C2E7302840D003D82E284E
:10902000E7D02F28C4E7382830D03DD83128AEE724
:10903000E22826D8E02837D243280ED009D8412884
:10904000A6D30029A4D00878FF28A1D00130C0B24F
:1090500026E0482801D04A289AD102A80022482BAD
:1090600020F8022D4FF0020201D0432B20D14AF00C
:10907000C2FABDF806004FF6FF73984288D002305E
:109080000EE0EA2810D003D8E82881D3022007E0B8
:10909000F0288ED0F1287FF47BAF102000E0012073
:1090A000C0B203B05DF804FB0420F9E70620F7E73F
:1090B0004AF0A1FABDF806309B00ADF80630D8E7BB
:1090C000252973B5044615463DD026D8182930D039
:1090D00016D80A296BD006D808292AD009295FD0CA
:1090E000204602B070BD0F297ED0102921D00B2957
:1090F000F6D12046042229464AF07DFA0434EFE7EF
:10910000202916D004D81A2951D049D31B29EFE7BA
:1091100022294CD044D32329EAE742291AD84129ED
:109120004CD22B29E5D008D8292939D03FD8282975
:10913000D6D12B7804F8013BD2E73029F9D0312978
:109140002ED02D29CCD12046062229464AF053FAAA
:109150000634C5E74A2904D01CD8432901D0482940
:10916000BED102A80023482920F8023D4FF0020298
:1091700001D043292FD129464AF03DFABDF80660B7
:109180004FF6FF739E42ABD00236B6B23246294646
:1091900020461CE0F02927D0F1292CD0E229A7E7AE
:1091A0002046022229464AF026FA023498E7204651
:1091B000032229464AF01FFA033491E7002A8FD090
:1091C0001678FF2E8CD00136F6B2324629464AF088
:1091D00012FA344484E729464AF00DFABDF8063005
:1091E0009B00ADF80630C9E72046082229464AF020
:1091F00002FA083474E7102229464AF0FCF91034C8
:109200006EE700002038C0B20D289ABF014B185CF1
:1092100000207047DC5C07002B2809D8282805D2DD
:10922000202809D3232801D9252805D101207047FA
:109230002D28FBD0E228F8E70020704770B51449CC
:10924000D1F8E02A0AB315780024AC4208D2D2F84B
:10925000013053F824301E78864202D00134F4E7FE
:109260000023D1F8E44A2CB125780022AA4203D386
:1092700019460B46184670BDD4F8011051F822105B
:109280000E788642F5D00132F0E71346F2E700BFD0
:10929000A4B6012070B51B2188B004462BF0C6F996
:1092A0001B22014601A84AF0A6F99DF8106030463D
:1092B000FFF7C4FF9DF81A30BDF813209DF8171072
:1092C00005463046FFF718FD20B920462AF0BAFFC0
:1092D00008B070BD05F04CFD40B9D5F80330EBB9CE
:1092E000204602F092FF024650B9F1E7BDF81300A4
:1092F00004F07FFD48B19DF812301B0705D47E2293
:1093000001A9204603F078F8E2E7BDF81310BDF894
:10931000050004F01FFD0028DFD1F0E7074BD3F86C
:109320008C3D33B9D5F80330204698470028D7D074
:10933000CEE701A898470028D2D1F3E7A4B60120D0
:1093400000F52D33F0B503F2A513104D03F00F0215
:1093500013462C469F1C05EBC70696F8DCCABCF1E9
:10936000000F07D104EBC70383F8DC0AC3F8D81A4F
:109370000020F0BDD6F8D86A002EF3D0013303F0F8
:109380000F039A42E6D16FF01500F2E7A4B6012070
:10939000F8B500F52D3303F2A513194903F00F02B8
:1093A000054613460E469C1C01EBC40090F8DC7A7F
:1093B000AF421CD127F076FF28B128462BF0BCF92C
:1093C00008B137F0E7FE06EBC405D5F8D80A58B166
:1093D000394630F0C7FC0020C5F8D80A06EBC404B3
:1093E000002384F8DC3AF8BD6FF01B00F6E7013388
:1093F00003F00F039A42D6D16FF01B00F3E700BFD2
:10940000A4B6012037B50D46144619469DF81C3008
:10941000E8B14268DAB13BB1C3785A0617D49B076A
:1094200002D4882003B030BD069A038800922046FB
:109430002A46FFF789FB411C0BD0821D0BD0831CF1
:10944000EFD010F1280F14BF00207E20EAE786201D
:10945000E8E78720E6E70020E4E7034648B3D0F8D2
:10946000150028B3B3F80130994224D0B1F5827FBA
:109470001FD06FF480728A18072A0DD94FF6FF7239
:10948000914211D1B3F5827F15D04CF25E00834238
:1094900014BF00200120704701204CF25E0291426F
:1094A00004D1B3F5827FF3E70020F6E70028F8D176
:1094B0007047002070470120FAE770B598B1057C2D
:1094C0000024AC4202D30023184670BDD0F81130FE
:1094D000C4EB041633441E888E4202D11E7A964293
:1094E000F2D00134EDE70346EEE700002DE9F04F3E
:1094F00087B083460D4616461F46109C01F0DAFAE7
:109500008046002800F08780002C00F084809DF8C1
:1095100044302A46CDE9004359463346FFF772FFEF
:109520000390A0BB3B463246294658460094FFF7BD
:109530003BFB214698F80200D8F80490FFF714FD91
:109540002146024648464AF056F898F80330590733
:1095500005D53B4632462946584603F0F1FF98F8B8
:1095600003301A0713D54FF0000A2C4B5344D3F89D
:10957000E09AB9F1000F0AD04FF0000899F80030D6
:10958000984508D30AF1040ABAF1080FEDD10398FF
:1095900007B0BDE8F08F4FEA88030493D9F8013093
:1095A00053F8280003785B4532D032462946FFF74E
:1095B00084FF0028E2D0394601F078F902900028B3
:1095C000DCD0D9F80130049A9B58294618780094C9
:1095D00032463B46FFF7E8FA029B5B680593029B25
:1095E00021469878FFF7C0FC059B024621461846A5
:1095F0004AF001F8029BDB785B0709D5D9F8013006
:10960000049A985829463B463246007803F098FF62
:1096100008F10108B2E701230393B8E7A4B60120DB
:109620002DE9F74F0025064689469346019300959C
:10963000264BEB18D3F8E07A17B3002E43D03A78D4
:1096400000239A4203F1010403D84FEA840A06B3C7
:1096500013E0D7F8011051F823301978B1422346AE
:10966000EFD10026F1E7012080B101994046FFF7D4
:10967000F4FE58B198F8003000930435082DD7D186
:10968000009803B0BDE8F08F5A4614E001340AF1A7
:10969000040A3B78A342F0D9D7F80130BBF1030F9D
:1096A00053F80A80F0D1012249464046FFF705FFF2
:1096B0000028D8D1022249464046FFF7FEFE00307E
:1096C00018BF0120D0E73446BFE700BFA4B6012091
:1096D00037B51B2105462AF0A9FF037BFF2B044663
:1096E00030D1037DB0F80F10002B08BF0122B0F875
:1096F000113018BF02220020FFF792FF28B9284638
:1097000003B0BDE830402AF09DBD207300222946F9
:1097100010482AF02EFD0446D0B10F4B1B68002BD9
:10972000EDD1FEF74EF801460028E8D1042300935E
:10973000019440F2525340F60F024FF0FF3031F0E7
:109740000BF9DCE7284603B0BDE83040FFF7A2BDC7
:1097500003B030BDC5970200BCC6012030B589B04A
:1097600004461B22002101A849F069FF01A92046F7
:1097700002F0FCFA01A90546024620461EF00EFF43
:10978000B8B920462AF0BEFD037813F0040F14BFC9
:109790000521032120462AF07FFE1B2120462AF0C6
:1097A00045FF1B2201A949F026FF25B92046FFF7F6
:1097B0008FFF09B030BD2A4601A9204602F01CFEE9
:1097C000F7E700002DE9F041CDB207461B212846FE
:1097D0002AF02CFF0446294638462AF0B4FD94F8B6
:1097E0000C80124E30F07EF93946B0FBF6F6104888
:1097F000324630F0DDFB237DB4F80F10002B0CBF98
:1098000001220222B4F811304046FFF709FF20B9C7
:109810002846BDE8F0412AF015BD2073324629469E
:109820000448BDE8F04130F0C3BB00BF7CF0C10785
:10983000959202003D8D02002DE9F84F00248146EB
:109840008A4627460E4BE318D3F8E06A9EB196F895
:1098500000B00025AB450BD9D6F8012052F8258081
:10986000494652464046FFF728FE38B198F8007046
:109870000434082CE6D13846BDE8F88F0135E9E715
:10988000A4B6012013B50446B8B914482AF04CFC1C
:10989000044680B1124B1B686BB9FDF792FF01467D
:1098A00048B9042300930194402340F60F024FF07F
:1098B000FF3031F051F802B010BD01212020FFF738
:1098C000BBFF0146204621B102B0BDE8104003F0C5
:1098D000A7BA02B0BDE810402AF0B4BC85980200D7
:1098E000BCC60120F0B50E4E054600234FF6FF70B2
:1098F0009A19D2F8E01A81B10F780022974209D95B
:10990000D1F8014054F8224094F800C0AC4505D18C
:10991000B4F801000433082BEAD1F0BD0132EDE7C1
:10992000A4B6012038B504460D46FFF7DBFF44B16D
:10993000B0F5827F05D14FF657402B1A5842584157
:1099400038BD0020FCE700002DE9F84F00248246D6
:1099500088462746104BE318D3F8E06A3EB196F8E4
:1099600000B000255D4505D30434082CF2D13846FB
:10997000BDE8F88FD6F8012052F8259051464246AE
:109980004846FFF79AFD10B1027A424501D00135F1
:10999000E8E74F46E8E700BFA4B6012038B51B2131
:1099A0002AF044FE0446007BFFF748FC257DB4F80E
:1099B0000F10002D14BF02220122FFF77EFD124B73
:1099C0001B7A012B15D0227EA37D6AB1002B0CBF20
:1099D00083238423A8B1012D0DD1027A12F0020F46
:1099E00018BF0023184638BD002B0CBF81238223EB
:1099F000F0E78123EEE7002DF4D1027A12F0010F97
:109A0000EEE7C323EEE700BF8024012007B5042260
:109A100001460DEB020049F0EEFD019803B05DF840
:109A200004FBF7B50191102116461F4605462AF0A2
:109A3000FDFD0446284624F04FFA9523032E2360AB
:109A40009DF8203008BF0199A37316BF01A9082211
:109A5000022227716671A01D49F0CDFD29460998A3
:109A600030F080F903B0F0BD2DE9F04F87B09A4691
:109A7000BDF8443001939DF84C300293BDF8583046
:109A800003939DF85C309DF84080BDF848900493A6
:109A90000D4617460446149E9DF854B02AF032FC39
:109AA0000378817813F0030F0CBF012300234A468B
:109AB0004046FFF721F988B956B153463A46294640
:109AC0002046CDE9108607B0BDE8F04FFFF7A9BFEB
:109AD000204607B0BDE8F04F2AF0B4BB182120465D
:109AE0002AF0A4FD18220021059049F0A8FD059B4D
:109AF000DF732A681A606A685A60019A1A81BBF19A
:109B0000010F029A83F80CA083F80D80A3F80A9045
:109B10009A7305D1039A5A82049A1A7583F811B080
:109B2000012F06D029884FF6F77291429CBF04227C
:109B30001A7431462046FFF703FC0028BDD10120EE
:109B400037F0D0FA0348214607B0BDE8F04F30F0B7
:109B500009B900BF61440400A1F5E0630B2B04D9EF
:109B6000A1F500635842584170470120704700003A
:109B70002DE9F04F8DB08B4608931821BDF8583071
:109B80000793924606462AF051FD044630462AF0D5
:109B9000B9FB237B0693637B05930378B4F80A80B3
:109BA0008178E77B13F0030F81460CBF012300236C
:109BB00042460598FFF7A0F80546B0B9BAF1000F84
:109BC0000DD0059B0093CDF804A0069B3A46214694
:109BD0003046FFF726FF28460DB0BDE8F08F30462F
:109BE0002AF030FB6FF00705F5E741462089FFF7C3
:109BF000B3FF0546BBF1000F17D0594630462AF097
:109C000028FC099030462AF087FB099B83420CD937
:109C1000594630462AF01DFC834630462AF07CFB2C
:109C2000ABEB000130462AF011FD012F11D0E37B90
:109C3000022B04D122884FF6F7739A4209D8404686
:109C400004F0BCF828B1089B1BB9237C43F0040343
:109C500023741DB1237C43F00803237418F0F4FD32
:109C60000546002862D105F083F800285ED0404602
:109C700004F0BFF8002859D0082229460AA849F064
:109C8000DEFC022F3BD0032F43D0002F0CBF00255A
:109C90006FF0270505F06CF8002840D0002F3ED06B
:109CA0004DB90AA818F0FAFD28B102210AA838F027
:109CB00041F8002836D15D4B1B6873B9FDF781FD73
:109CC000014650B90423009340F60F03CDF80480F9
:109CD0001A464FF0FF3030F03FFE6FF02705BAF123
:109CE000000F3FF478AF059B0093CDF804A0069BCE
:109CF0003A4621463046FFF794FE00256BE70AA955
:109D0000208829F09BFE002814BF6FF0270500254E
:109D1000C0E7082221460AA849F06DFCBAE7002DE9
:109D2000C9D1C2E7237C43F001032374414605985F
:109D3000FFF7F8FD68B1082200210AA849F07FFC6E
:109D4000022F1ED0032F52D03FBB237C43F00103D0
:109D5000237451463046FFF7F3FA05460028BED17A
:109D600030462AF0CFFA0378DB0602D4012037F020
:109D7000B9F9079B002B53D131462D482FF0F2FF44
:109D800029E70AA9208829F059FE054630B90221A1
:109D90000AA837F0CFFF0028D7D10025234BD3F8EE
:109DA00000B099F802300B2B27D199F800305A07F0
:109DB00023D199F80430012B1FD1BBF1000F12D130
:109DC000FDF7FFFC014670B9CDF8088099F8033023
:109DD00001930823009340F60F0240F657034FF01B
:109DE000FF3030F0B9FD002D7FF479AFB1E70822E4
:109DF00021460AA849F0FFFBC9E7BBF1000F7FF439
:109E00006CAFFDF7DEFC00287FF467AF04230093FE
:109E1000CDF8048040F65E0340F60F02594658E73D
:109E2000079A0348314630F0C3F8D4E6BCC6012097
:109E3000614404002DE9F74F1D469DF83030019331
:109E40000F46109B00931821934606469DF834A0B8
:109E5000BDF83890BDF83C802AF0E8FB1822044693
:109E6000002149F0ECFB032D0CBF082202225946C9
:109E7000E573204649F0BFFB019B009A23733946E6
:109E80000023304684F80DA0A4F80890A4F80A80B6
:109E90000C9303B0BDE8F04FFFF76ABE2DE9F04F19
:109EA00087B01D469DF840300593CDE90101149B14
:109EB0000493182103929DF844B0BDF848A0BDF862
:109EC0004C909DF854809DF85860BDF85C702AF065
:109ED000ADFB18220446002149F0B1FB032D0CBF55
:109EE000082202220399E573204649F084FBDDE94C
:109EF0000101059B049A2373334684F80DB0A4F83E
:109F000008A0A4F80A9084F81080109707B0BDE864
:109F1000F04FFFF72DBE00002DE9F041069D0E46E3
:109F200090461F462AF07AFA094B00F8016B93F825
:109F3000D84A621C83F8D82A730702D541462FF00D
:109F4000F8FD04704770023005B12C70BDE8F08157
:109F5000A4B60120004870477CC10120004870472A
:109F60008024012002289DBF024B187000206FF052
:109F70000500704780240120014B187A704700BF0C
:109F80008024012001289DBF024B187200206FF031
:109F90000500704780240120134B1B781BB39128C8
:109FA0000ED890281AD28A281CD005D8A0F1810397
:109FB000032B98BF812070478F2808BF7E207047F1
:109FC000C12806D8C02809D2922809D0932805D0E4
:109FD0007047C22804D0C42804D0704701207047BD
:109FE0007F207047002070478024012010F1170F58
:109FF00012D009DC10F11F0F10D0094B1B7A012B76
:10A000000CBF0120C02004E010F10A0F02D000288C
:10A01000F3D17047852070478720704781207047B3
:10A02000802401202DE9F04788B08146ADF81E104C
:10A030002AF0F4F9082303700446FFF78BFF037836
:10A04000DFF8B0A05A1C027063700A23A370284B7B
:10A050001F7803349846052F36D801223AF8173076
:10A060001146C42000F026FD064618B301214CF22B
:10A070005D20FFF771FD2146F0B148462AF0E9F96D
:10A08000C0F5CA60013085B27168B078FEF76CFF28
:10A090000330854216D3318820462FF04AFDB3782D
:10A0A00000F8013B7268B178FFF70AF80023044614
:10A0B00088F800300137CEE748462AF0CAF9C0F1E7
:10A0C0005200E0E788F8007001230022CDE9033256
:10A0D0004CF25D21C423CDE9013100930DF11E0244
:10A0E000022321464846FFF7A5FE08B0BDE8F087E9
:10A0F0008D240120EA5C0700064B1B7802462BB139
:10A10000032B03D04FF6FC71FFF78CBF10462AF0EB
:10A1100099B800BF8E24012038B5054620B92148E2
:10A12000BDE838402AF000B81F4C227892B3032AC9
:10A1300030D0012208231146C42000F0BBFC436844
:10A1400019884FF6FF739942284620D1FFF7D4FFB4
:10A1500000221146134830F0F3F82378022B20D167
:10A1600001231A461946C42000F0A4FCB0B143688C
:10A1700018880F3880B22FF09FFC0F3080B2422237
:10A18000424300210748BDE838402FF011BFFFF7D8
:10A1900049FFDDE728462AF055F8D9E74FF49670D5
:10A1A000E7E738BD19A102008E240120F7B50E465D
:10A1B0000446214D40B92A7822B901231F482B704B
:10A1C00029F0D7FF03B0F0BDFFF7C4FED0F89C30F4
:10A1D0005BB302AF3421204607F8046D2AF026FA5B
:10A1E0003422002149F02BFA342120462AF01EFAAD
:10A1F00065230370342120462AF018FA00264660B1
:10A20000342120462AF012FA3421866020462AF0B2
:10A210000DFA3421C76020462AF008FA0661FFF7DC
:10A2200099FED0F89C3020469847002320462B709A
:10A230002AF008F8C6E700BF8F240120ADA1020074
:10A2400010B510B90F4B187010BD0128FCD10E4B82
:10A2500019780129F8D10B4C2278012A09D80B482A
:10A2600029F062FF0A4829F05FFF23780133237049
:10A27000EAE7032200201A702070BDE81040FFF7C3
:10A2800095BF00BF8C2401208E240120D9A202009A
:10A29000F9A00200002208B511460D4830F050F830
:10A2A0000C4B1B78022B12D101221146C42000F066
:10A2B00001FC48B143681B88054842225A430021EB
:10A2C000BDE808402FF074BE4FF49673F4E708BD64
:10A2D000D9A202008E240120F0B5044689B020B92D
:10A2E000204829F021FF09B0F0BD1F4B1B78ABB30C
:10A2F000032B33D025F042FB08AE002726F8020DD1
:10A3000020462AF08BF807700546FFF723FE0378F6
:10A310005A1C027008216B70AF70E81C2FF009FC0A
:10A3200009212FF006FC0A212FF003FC01254CF235
:10A330005D23CDE90235C4230146CDE90033324621
:10A34000049702232046FFF775FD40F2BC722946B0
:10A3500006482FF02DFEFFF79DFFC4E7204629F0A9
:10A3600071FFF8E7D9A202008E24012041A2020069
:10A370002DE9F34100220546FF2134482FF0E0FF8C
:10A3800030F090FD20B1324E33780BB1032B05D164
:10A39000284602B0BDE8F04129F054BF4FF0000854
:10A3A000284629F0B9FF02283CD9284629F0AAFFFF
:10A3B0000446002836D08078FFF7EEFDA07010BB71
:10A3C000211DE078FEF7D0FD0430C7B2284629F001
:10A3D000A3FF284629F0A0FF874223D83946284604
:10A3E0002AF05AF8A278002ADAD12388082B0CD157
:10A3F00001920434012200941146C420FFF776F83C
:10A400004FF00108CCE70327E3E7092BF0D00A2B34
:10A41000C6D101920434012200941146C420FFF7F2
:10A4200065F8BDE7B8F1000FB2D00A4B00211970F2
:10A430003378012BACD1022340F2DE320648337070
:10A440002FF0B6FDFFF726FFA2E700BF41A20200F2
:10A450008E2401208C24012019A1020038B5054664
:10A4600029F050FF90F84B30044653B9014623229F
:10A47000104849F0C0F8282204F123010E4849F0A1
:10A48000BAF80C4CD4F84B0070B194F84F102FF080
:10A4900069FC002384F84F3084F84B3084F84C304A
:10A4A00084F84D3084F84E302846BDE8384029F015
:10A4B000C9BE00BFA4B00120C7B0012070B5094CCF
:10A4C000D4F84B3005460E464BB98F21064833F081
:10A4D000F1FF18B9C4F84B6084F84F5070BD6FF0AD
:10A4E0000300FBE7A4B001205DA402002DE9F04FBA
:10A4F0001B218BB083462AF099F8044690F81390FC
:10A50000584629F0FFFEB9F1150F827814BF1B23BE
:10A5100014239A4288BF83708246FFF71BFD407860
:10A5200029F07CFF237E002B237D0CBF0022042218
:10A53000002B14BF0023082342F0100205461343EA
:10A5400005F8013B237E2BB12846B4F819102FF0F3
:10A55000F0FA0546637D2B70B9F1150F14BF0D237A
:10A5600016236B70207BFEF769FE237DB4F80F1075
:10A57000002B14BF02220122FEF79FFF0027436831
:10A58000AF7041880246EE1C00296CD10AA94FF633
:10A59000FD73304621F8023D022249F02CF82123B8
:10A5A000B9F1150F6B714FF0010312BFAE1DAB7106
:10A5B000EE1DAB70FFF7CEFC002340780493B4F897
:10A5C0000F300393B4F811300293237B0193E37AA5
:10A5D0000093621C02233146FFF72CFCFFF7BAFC04
:10A5E00080F801B00BB0BDE8F08F1888BAF800C051
:10A5F00081B28C4535D8000433D4B9F1150F19D187
:10A6000094F818C001F48040BCF1000F10D088B954
:10A6100001375188F8B20139814203D99AF802C052
:10A62000C445E2D881428CBF00210121A970C1E755
:10A630000028EDD13046CDE906322FF07AFA069B9C
:10A64000079A99780170B9F1150F08BFD97808F108
:10A65000010809BF01F00301461C4170861C5FFA26
:10A6600088F80833D4E7B846D3E72DE9F0478046A9
:10A670000E46914629F03CFD0546002851D04A4639
:10A6800031884046FEF7A2FAFFF764FCD0F89C3010
:10A69000002B41D03421284629F0C8FF71680446B8
:10A6A000B078FEF761FCB378482B074603D027D873
:10A6B000413B022B28D83946284629F075FE342123
:10A6C0008246284629F0B2FF04463A46494650469B
:10A6D00048F091FF2773C4F810A00023237098F866
:10A6E0000C306370B378A370B8F80F3023813388CF
:10A6F0006381FFF72FFCD0F89C30284698470BE089
:10A700004A2BD8D0F12BD6D03A46494604F10C005A
:10A7100048F071FF002CE0D12846BDE8F04729F051
:10A7200091BDBDE8F087000010B507490446FFF76A
:10A73000C5FE043006D1214600220448BDE8104081
:10A740002FF036BC10BD00BFCFA8020029A7020021
:10A7500070B50C46272C054611461E4623D050D80E
:10A760001A2C3FD029D80D2C00F09A8014D80A2C2E
:10A7700038D006D8082C00F08980092C76D02846DD
:10A7800070BD0B2C00F086800C2CF8D128460522D9
:10A7900048F031FF0535F2E7102C77D009D80E2CA0
:10A7A00029D00F2CEBD12846082248F024FF083589
:10A7B000E5E7182C6AD0192CE0E7202C66D00AD8DF
:10A7C0001D2C6DD003D81B2C64D01C2CDDE71E2C57
:10A7D00011D01F2CE6E7232C5CD009D8212C45D0C2
:10A7E000222CCCD12846032248F005FF0335C6E7CA
:10A7F000252C55D0CAD92846072248F0FCFE07353B
:10A80000BDE7392C46D018D82D2C49D00AD82A2C8F
:10A81000E8D003D8282C39D0292CAFE72B2C39D0FD
:10A820002C2CB2E7302C31D003D82E2CE3D02F2C97
:10A83000B8E7312C1AD0382CA0E7E22C11D8E02C44
:10A8400028D2432C03D8412C05D23A2CAAE7482C15
:10A8500001D04A2C93D12846324648F0CCFE3544EC
:10A860008DE7EA2C16D007D8E82C88D32846022298
:10A8700048F0C1FE023582E7F02C94D0F12C7FF431
:10A880007EAF102248F0B7FE103578E70B7805F858
:10A89000013B74E72846042248F0ADFE04356EE71C
:10A8A0002846062248F0A7FE063568E710B543683B
:10A8B00000220BB9184610BD1C888C42FAD044887F
:10A8C0000132944203F10803F3D80023F2E72DE9A3
:10A8D000F04F1B218FB0074629F0A8FE437B0546A9
:10A8E000C3F34013007B0893FEF7A8FC2B7DB5F85B
:10A8F0000F10002B0CBF01220222FEF7DEFD099093
:10A90000FFF728FB407829F089FD2B7E002B2B7D5B
:10A9100014BF04220022002B0CBF0823002342F0A6
:10A920001002134300F8013B2B7E1BB1B5F8191040
:10A930002FF0FFF86B7D037001234370841C3846B1
:10A9400029F0E0FC8246384629F0E6FC43080A93E9
:10A950004FF000080A9B5FFA88F1994252D2022216
:10A960000AEB41010DF1360048F045FEBDF8361006
:10A970000998FFF79BFFB5F80F100646B5F81100D0
:10A98000FFF7EAF808B3FFF7E5FA2146407829F027
:10A9900060FDC0F5CA6909F10109FEB9BDF83610BC
:10A9A0004FF6FD73994262D10DF136010222204625
:10A9B00048F021FE2123A670E3700121201D2FF015
:10A9C000B8F8044608F10108C4E7FFF7C3FA2146C6
:10A9D000407829F03EFDC0F15209DEE77168002998
:10A9E00045D0F37813F0400B41D1DA0728D49B0708
:10A9F0003FD5FFF7C1FA01280CBF7E268F26B9F19B
:10AA0000020F3AD8FFF7A6FA089A40780023CDE95A
:10AA10000432CDE90633B5F80F300393B5F81130A1
:10AA200002932B7B0193EB7A00936A1C022321464D
:10AA3000FFF734FAFFF78EFA47700FB0BDE8F08FDA
:10AA4000B078FEF791FA011D894514D30B90318837
:10AA500020462FF06EF880F800B0B2780B9B427061
:10AA60009BB27268B1780230FFF772FEA9E78626C2
:10AA7000C5E70126C3E78926C1E72046BDF83610A1
:10AA80002FF057F8044604F8016B9BE710B51B2123
:10AA9000044629F0CBFDB0F80F2040F605339A426A
:10AAA000204603D1BDE81040FFF73EBEBDE8104090
:10AAB000FFF70DBF70B50D4616461C46FEF7BEFBF0
:10AAC00029463246FEF7F9FC2146BDE87040FFF703
:10AAD000EDBE2DE9F04F1B218FB0814629F0A6FD78
:10AAE0000446007BFEF7AAFB237DB4F80F10002B71
:10AAF0000CBF01220222FEF7E0FCE37C0D90052B47
:10AB000077D0FFF727FA407829F088FC237E002BC6
:10AB1000237D14BF04220022002B0CBF0823002336
:10AB200042F01002134300F8013B237E1BB1B4F83E
:10AB300019102EF0FEFF637D037004234370851C03
:10AB4000484629F0DFFB0746484629F0E5FB00238D
:10AB50000B9301230A9009939DF82C300C930A9BC8
:10AB6000032B54D9002F56D0F91CB878FEF7FCF906
:10AB700003305FFA80FB3E460A9B9B4500F2F7805C
:10AB8000002E00F0F480B6F800A00D985146FFF7B3
:10AB90008DFE8046002840D14FF6FD739A4514BFC4
:10ABA0004FF0860A4FF0880AE37C052B1ED015B3C0
:10ABB000B4F80F10B4F81100FEF7CEFF002868D0EB
:10ABC000FFF7C8F92946407829F043FCC0F5CA6070
:10ABD0000130022894BF00200120B0B12846022293
:10ABE00000F801AB314648F006FD03350023099318
:10ABF00002E00025A4E709950A9BA3EB0B030A9347
:10AC00000B9B01335F440B93A6E70990F4E7002602
:10AC10004FF0FF0BB0E73E46FAE74368002B32D017
:10AC20008278B3789A4231D1237DB4F80F20217B0A
:10AC3000002B06F103030C934FF00103019306F17F
:10AC4000030300930CBF01230223FEF7DBFB8246C4
:10AC50000028A9D1E37C032BCED0237DB4F80F10BC
:10AC6000207B0022002BB8F8003001920C9A009251
:10AC70000CBF01220222FEF739FC0C9A4146204605
:10AC8000FFF7F3FCB8E74FF0860A8DE74FF08D0A27
:10AC90008AE7FFF75FF92946407829F0DAFBC0F12F
:10ACA000520096E700264FF0FF0B7BE03E46FAE7A6
:10ACB000E37C052B55D0099B2BB115B30C9B03B33B
:10ACC000002305F8013BB9F1000F43D0FFF742F92B
:10ACD00000234078CDE90633627BC2F34012CDE910
:10ACE0000432B4F80F300393B4F811300293237B8D
:10ACF0000193E37A0093621C02232946FFF7CEF802
:10AD000028E0FFF727F9407829F088FB237D002B06
:10AD10000CBF182310230370637D43700B238370D3
:10AD2000E37CC370802303710546FFF713F9002607
:10AD300040780496B4F80F300393B4F811300293BE
:10AD4000237B0193E37A0093621C0223691DFFF7C2
:10AD500071F8B146FFF7FEF880F801900FB0BDE83A
:10AD6000F08F48460FB0BDE8F04F29F06BBAE37C96
:10AD7000032B9DD1099B002B9AD0484629F0C2FA9B
:10AD80000746484629F0C8FA8046B8F1030F89D92A
:10AD9000002F8BD0F91CB878FEF7E6F803305FFA85
:10ADA00080FB3E46C34583D8002E81D036F8031B76
:10ADB0000D98FFF77BFD227DB4F80F108246002A24
:10ADC0004FF00002207BBAF80030CDE900620CBFE2
:10ADD00001220222FEF78AFB3246514620465F449A
:10ADE000A8EB0B08FFF741FCCFE700002DE9F04F7F
:10ADF0001B2189B0804629F019FC0546FFF7AAF807
:10AE0000407829F00BFB2B7E002B14BF1C2318234A
:10AE100000F8013B2B7E1BB1B5F819102EF089FE0E
:10AE20006B7D037009234370841C287BFEF706FAB0
:10AE30002B7D0690002B0CBF01220222B5F80F10CB
:10AE4000FEF73BFB8346404629F066FA022840F2B3
:10AE5000C080404629F056FA002800F0BA8090F8E9
:10AE600000A0B0F801900321404629F015FBB5F889
:10AE70000F10B5F81100FEF76FFE00283CD0FFF769
:10AE800069F82146407829F0E4FAC0F5CA6001303B
:10AE900086B2032E40F29D8049465846FFF706FDD4
:10AEA0000746002800F08A804368002B00F0868067
:10AEB000C3785B0740F1898006989BF80820BBF8AF
:10AEC000001000784B4602F02BFA079000287ED045
:10AED000092E7ED90022227084F801A0A01C4946C8
:10AEE0002EF027FE079B0446BAF1000F0DD0BAF1F1
:10AEF000010FA8D1198A3DE0FFF72CF821464078D0
:10AF000029F0A7FAC0F15200C2E7BA7800F8012B85
:10AF10005A8A198A07932EF018FE0446B878FEF76D
:10AF20007BF900288FD0BA78079B203A0B2A8AD861
:10AF300001A151F822F000BF69AF020071AF020019
:10AF40008DAF02009DAF020047AE0200ADAF020020
:10AF500047AE020047AE020069AF02007DAF0200BB
:10AF60008DAF02009DAF02001B7D04F8013B6AE734
:10AF7000998A20462EF0DDFD044664E72046022231
:10AF800003F1140148F037FB02345CE7204603224A
:10AF900003F1140148F02FFB033454E72046042248
:10AFA00003F1140148F027FB04344CE72046062245
:10AFB00003F1140148F01FFB063444E78623237095
:10AFC00084F801A04946A01CD4E78C23F7E78B2323
:10AFD000F5E7FEF7BFFF002340780493B5F80F3084
:10AFE0000393B5F8113002932B7B0193EB7A009316
:10AFF0006A1C02232146FEF71DFFFEF7ABFF80F817
:10B00000018009B0BDE8F08F2DE9F04F1B218DB014
:10B01000804629F00BFB0446007BFEF70FF9237DE9
:10B02000B4F80F10002B0CBF01220222FEF745FAE4
:10B030000690FEF78FFF407829F0F0F9237E002B71
:10B0400014BF1C23182300F8013B237E1BB1B4F866
:10B0500019102EF06EFD637D037000270723DFF8C3
:10B06000E4B14370851CB946404629F055F90428DF
:10B0700044D800264FF0FF0A404629F04DF982459A
:10B0800000F2B9805146404629F006FA002E00F041
:10B09000B280B6F80130069807931946FFF706FC10
:10B0A000327809F10109002A5AD1079B002842D1C0
:10B0B0004FF6FD77BB4214BF86278C27B4F80F10DC
:10B0C000B4F81100FEF748FD002800F08B80FEF771
:10B0D00041FF2946407829F0BCF9C0F5CA6001302B
:10B0E00080B2032808D92F7033786B70A81CB6F88B
:10B0F00001102EF01EFD05460127B5E7404629F058
:10B1000001F906460028B4D00378012B0DD0C07891
:10B11000FEF782F860B1F078FEF774F808305FFA55
:10B1200080FA404629F0F8F8A6E74FF0050AA3E7B1
:10B130004FF0080AA0E74368002B4BD08378412BDF
:10B1400048D003F0FD02482A44D0C278520743D5C4
:10B15000F2789A4242D1F38813B1B2889A423FD82A
:10B16000237B8DF82430227CE37B43EA0223ADF875
:10B170002A30E37A8DF82530B4F80130ADF8263066
:10B18000637CA27C43EA0223ADF82830237D002BA8
:10B190000CBF0123022309A930468DF82C3002F0A0
:10B1A00089FB00283FF460AFDBF8002082B90790EC
:10B1B000FCF707FB079B014650B90193042300935A
:10B1C00040F6120240F2D4434FF0FF302FF0C4FBA0
:10B1D000012773E7862771E78C276FE78D276DE7D7
:10B1E00087276BE7FEF7B6FE2946407829F031F94C
:10B1F000C0F1520074E7B9F1000F1DD1802305F8AA
:10B20000013BFEF7A7FE002340780493B4F80F300B
:10B210000393B4F811300293237B0193E37A0093F4
:10B22000621C02232946FEF705FEFEF793FE80F816
:10B2300001800DB0BDE8F08F002FE2D105F8017B51
:10B24000DFE700BFBCC601202DE9F04F8A46C38866
:10B250000279418889B005464078FFF72BFC90F8C9
:10B260000390504629F0DAF809F02006C9F3401996
:10B270004FEA890343F0080304460370002E69D0A7
:10B280006878FDF7DBFF2A796988FEF716F9B0F8D0
:10B290000910601C2EF04DFC0446FEF75BFE03789F
:10B2A0005A1C027023700A23637002342E4640F247
:10B2B000516BF388327971887078FFF7FBFB7188E6
:10B2C0000746B08DFEF748FC214600284CD050467A
:10B2D00029F0BFF8ABEB00001FFA80F87968B87866
:10B2E000FDF742FEC21C904507901ED339882046C8
:10B2F0002EF01FFCBA7800F8012B079B7A68B9780A
:10B300009BB2FFF725FA39460446304602F0DFF8D3
:10B31000337A23F0160343F020033372494628465C
:10B3200002F051F806460028C3D1124B04936B88F3
:10B330000393AB8D02936B78019395F82A300093B9
:10B3400005F12802002321465046FEF773FD09B09F
:10B35000BDE8F08FFEF7FEFD03785A1C02706370A3
:10B360000A23A3700334A1E7504629F072F8C0F114
:10B370005200B1E7F1D902002DE9F0438FB000236C
:10B380000F461B210693044629F050F91B22014663
:10B3900007A848F030F9204628F0BEFF022807D061
:10B3A000852207A9204600F058FF0FB0BDE8F083C2
:10B3B000204628F0A7FF9DF8343006784578002B0A
:10B3C00060D0FEF7C7FDD0F8F030002B46D14FF02B
:10B3D0000008512D204628BF512529F01FF89DF85F
:10B3E0003430002B9DF8303014BF04220022002B93
:10B3F0000CBF0823002342F01002134300F8013B66
:10B400009DF834301BB1BDF835102EF092FB9DF83D
:10B4100031300370002F14BF122314234370002314
:10B420008370C11C1A46DFB2B84500F28880012340
:10B43000837000230493BDF82B300393BDF82D30A7
:10B4400002939DF8283001939DF8273000930DF169
:10B450001D0202232046FEF7EDFCA6E7FEF77AFD6B
:10B460000DF1180ECDE9007E9DF830C0D0F8F080C7
:10B47000BDF83530BDF82B209DF828106046C04738
:10B480008046A6E79DF828009DF83080BDF82B90F7
:10B49000FDF7D4FE00289AD0B8F1000F0CBF0122AE
:10B4A00002224946FEF709F8002890D0B8F1000FB3
:10B4B0002CD1037A03F00103002B88D09DF83030A3
:10B4C000BDF82B109DF82800002B0CBF0122022292
:10B4D00000F046FE034600283FF479AFFF2098476E
:10B4E00000283FF474AFCFB1FEF734FDD0F85832E6
:10B4F00093F80080FEF72EFDD0F858325B68069373
:10B50000FEF728FD0023C0F8583262E7B8F1010FBA
:10B510007FF45DAF037AC3F34003CDE7FEF71AFD76
:10B52000D0F8583293F80880FEF714FDD0F858325E
:10B53000DB680693FEF70EFDC0F8587249E7069FD8
:10B54000FF5CBE4206D80132D2B2954201F8017BBF
:10B550007FF66FAF013366E737B51B21054629F04B
:10B5600065F8C37C0446162B64D8DFE803F00C12A0
:10B570003A3A293A422946663E4E4A666363635C1C
:10B580006661664A66002846FFF780FA012003B02C
:10B5900030BD324BD3F8903DB3B9B4F80F300A2B1D
:10B5A00004D1284603F01EFB0028EFD11B212846BA
:10B5B00029F03CF8B0F811204CF25D239A4208D0F3
:10B5C000284628F03FFEE1E7284698470028E4D0C7
:10B5D000DCE7B0F80F40012CF2D12846FEF7C8FE98
:10B5E000D4E72846FFF775FAD0E7284602F052FA6A
:10B5F000CCE72846FFF708FDC8E72846FFF7F6FB2B
:10B60000C4E72846FEF772FFC0E71B21284629F051
:10B610000DF8B0F80F30192BD2D1284600F0DFFD1D
:10B620000028B3D1CCE701212846FFF7A5FEADE7FE
:10B630000021F9E70A4B1B680BB10020A7E7FCF7D4
:10B64000C0F80028F9D1009001464FF4E46340F6B9
:10B6500012024FF0FF302FF07FF9EEE7A4B6012081
:10B66000BCC6012070B5FF288EB0054607D1FEF795
:10B6700071FC204BC0F8583201200EB070BD1B2168
:10B6800028F0D4FF1B22014607A847F0B4FF9DF81D
:10B690003040012C2CD19DF82F30032B28D89DF859
:10B6A000336028460EBB28F0B9FE182303709DF8BE
:10B6B000313043700B2383709DF82F30C3700671B7
:10B6C000BDF82B300393BDF82D3002939DF8283040
:10B6D00001939DF827300093411D049602230DF13C
:10B6E0001D022846FEF7A6FBC6E728F0ABFDC3E720
:10B6F0000020C2E72C16012007B5054B009300235C
:10B700001A460221042000F0A9FB03B05DF804FBF7
:10B7100065B6020010B5044629F00EF82046BDE8D3
:10B72000104028F08FBD000038B50621044628F0EF
:10B730007DFF037923B12046BDE8384028F082BD63
:10B740001821204628F072FF0546204628F0DAFD31
:10B7500018220146284647F04EFF20460249BDE820
:10B76000384031F0B5BB00BF15B7020010B510234B
:10B7700001224FF4A0610446FFF79CF901224368BF
:10B780004FF4A0612046BDE8104017F045BD000011
:10B7900010292DE9F74304460D46164640F08580F2
:10B7A00028F0A2FC2B4601220746B4F80F10207B9C
:10B7B000FFF780F918218046384628F0F5FD054648
:10B7C0001822002105F10D0947F039FF4946B4F868
:10B7D000010028F033F910F11C0F19D10DF1070306
:10B7E0000122B4F80110304628F022FA082231462E
:10B7F000484647F000FF314698F80200D8F8049018
:10B80000FDF7B2FB31460246484647F0E5FE0DE043
:10B810000028EBD1314698F80200FDF7A5FB314630
:10B820000246484647F0D8FE0028E4D0207BFFF7C8
:10B830009DFF064600283BD14EF201030122B4F8D9
:10B840000F10207BFFF736F94368E27A1A70B4F8DC
:10B850000F10207B4EF202030122FFF72BF9436801
:10B86000B4F801201A8028462FF0AAFA237B2B7205
:10B87000E37A6B75B4F80F306B8103232B732FF0D1
:10B8800029FB0821E882384628F0D0FE0822054628
:10B89000314647F0D4FEB4F80F306B80FF232B7095
:10B8A000064B6B60384617F06BF803B0BDE8F083C9
:10B8B000002FFAD0384628F0C5FCF6E729B7020079
:10B8C0000020704770B51D2188B0054628F0AEFEF7
:10B8D0001B220146064601A847F08DFEFEF73AFB03
:10B8E000D0F89C300BB33421284628F09FFE02226A
:10B8F000044606F11B01083047F088FE062323703A
:10B900009DF81030637000236360FEF723FBD0F8CE
:10B910009C30284698476068FEF768FB01A90246FC
:10B92000284600F0E1FC08B070BD6FF01E00F3E7A0
:10B9300038B50122002303210546FFF7BBF8B8B153
:10B940004368ABB11C8844B1013C1C8029464222AB
:10B950000848BDE838402EF02BBB2846FDF76EFCAA
:10B96000D0F8070020B12146BDE838402EF0FAB9E2
:10B9700038BD00BF31B9020007B5054B0093054A39
:10B98000054B0121032000F069FA03B05DF804FBC8
:10B9900061BC0200C1B8020009BD020007B5054B39
:10B9A000009300231A460221032000F057FA03B047
:10B9B0005DF804FB81BC020070B500230E46012235
:10B9C00003210546FFF776F8F8B14368EBB11C8810
:10B9D0001E8043681B880BB9002070BD002CFBD172
:10B9E000224629460A482EF0ABFC42222946084846
:10B9F0002EF0DEFA2846FDF721FCD0F807000028DB
:10BA0000EAD001212EF0AEF9E6E78620E5E700BF97
:10BA100031B9020013B510B9002002B010BD0023E7
:10BA200001220321FFF746F828B143681888003047
:10BA300018BF0120F1E70A4B1B68002BECD1FBF784
:10BA4000C0FE04460028E7D1009001464FF4C073C1
:10BA50004FF0FF3040F264622EF07EFF2046DCE7BC
:10BA6000BCC6012070B51B2190B0044628F0DEFD55
:10BA70001B22014609A847F0BEFD9DF83730012B77
:10BA800043D005D3402B00F08C80002010B070BD57
:10BA90009DF838508DBB204628F03EFC012804D884
:10BAA0006C4B1B68B3B180250DE0204628F02AFCC2
:10BAB0000222014608A847F09EFDBDF820109DF81F
:10BAC0003000FFF779FF2A4609A9204600F00CFC58
:10BAD0000120DBE7FBF775FE0028E4D1204628F0C3
:10BAE0001BFC04230190009340F26462BD232946AD
:10BAF0004FF0FF302EF030FFD5E7574BD3F8943D91
:10BB0000002BE5D020469847E2E7524B1B685BB913
:10BB1000FBF757FE014638B90090D22340F2646229
:10BB20004FF0FF302EF018FF9DF83000FFF772FF46
:10BB3000024688B30122002303219DF83000FEF75E
:10BB4000B9FF0646204628F069FC192303709DF8CA
:10BB500039304370002585707368033019882DF0E3
:10BB6000E8FF9DF83130C3F34013CDE904530323BC
:10BB70000393BDF8353002939DF8303001939DF862
:10BB80002F3000930146CDE9065502230DF1250221
:10BB90002046FEF783F99BE709A9204600F0E5FB64
:10BBA00096E7204628F0B8FB01281BD9204628F04C
:10BBB000A9FB0222014608A847F01DFD1D212046D1
:10BBC00028F034FD09A905461B2247F01FFD9DF80A
:10BBD0002030EB769DF821302B7721461F482EF040
:10BBE000C1F875E71B4B1B688BB9FBF7EAFD0546EF
:10BBF00068B9204628F090FB04230190009340F29E
:10BC00006462F12329464FF0FF302EF0A5FE204656
:10BC100028F004FC182303709DF8393043700B237F
:10BC200083704023C3708023037100220323CDE976
:10BC30000332BDF8353002939DF8303001939DF802
:10BC40002F300093411D02230DF125022046FEF7FF
:10BC5000F1F83DE7BCC60120A4B60120C5B802003A
:10BC6000FF2808B503D0BDE80840FFF7FBBEFEF78C
:10BC700071F9024BC0F85832012008BD5816012056
:10BC8000FF2808B503D0BDE80840FFF7EBBEFEF77C
:10BC900061F9024BC0F85832012008BD4816012056
:10BCA00037B50023012203210546FEF703FF0446B2
:10BCB00098B10022294612482EF042FB6368002406
:10BCC0001C802846FDF7BAFAD0F80700A8B1214633
:10BCD00003B0BDE830402EF045B80A4B1B6863B98D
:10BCE000FBF76FFD014640B9009040F2A71340F208
:10BCF00064624FF0FF302EF02FFE03B030BD00BF66
:10BD000031B90200BCC6012037B5044602A80023A1
:10BD10000D4620F8023D1146022247F06CFC2DB979
:10BD2000BDF80610204619B1FFF746FE03B030BD3E
:10BD3000FFF7B6FFFAE710B5FEF70CF94FF43072D3
:10BD4000002147F07CFCFEF709F90C22002147F0A6
:10BD500076FCFEF7FFF8044628F0CAF96070FEF79B
:10BD6000F9F8BDE8104001F007B90000F7B50C463E
:10BD70001C21064628F05AFC0546304628F0CCFA2D
:10BD80000746304628F0BEFA037813F0040F0CBFC4
:10BD9000032305239F4214D22F4B1B681BB180261F
:10BDA000304603B0F0BDFBF70CFD01460028F6D18C
:10BDB0000090D72340F61A024FF0FF302EF0CCFD52
:10BDC000EDE700232370B5F80130A4F801302B7A99
:10BDD000E372B5F80330A4F80930EB7923732B78BC
:10BDE00063732B7DA27BC3F3C00363F3C302A2730F
:10BDF000B5F80930A4F80F30B5F80B30A4F81130BD
:10BE0000304628F07FFA037803F00303012B14BFB8
:10BE100001230023A37503780146C3F3C0032375F0
:10BE200011F8013BC3F30013E3750378C3F38003F8
:10BE300005468CBF8526002663B1012323760222A6
:10BE400004F1190047F0D7FBE91C0B7863754B78B8
:10BE5000E374A5E72376F8E7BCC601202DE9F04797
:10BE6000DDF820808246894617461E46B8F1000F4D
:10BE700005D122B91BB96FF00600BDE8F087FEF7C7
:10BE800069F890F85432132BF5D8002409E0FEF736
:10BE900061F804F10F052D0128448388534507D02C
:10BEA0000134FEF757F890F854329C42EFD305E086
:10BEB000FEF750F8284483794B45F1D1FEF74AF854
:10BEC00090F854329C4202D06FF01A00D5E7FEF78A
:10BED00041F804F10F052D0128442401A0F804A025
:10BEE000FEF738F8284480F80690FEF733F8284427
:10BEF000C0F80880FEF72EF82044C0F8FC70FEF76A
:10BF000029F80444C4F80061FEF724F890F854328C
:10BF1000013380F854320020AFE7F8B506460F46EB
:10BF20000025FEF717F890F854329D4201D3002007
:10BF300012E0FEF70FF805F10F0424012044838876
:10BF4000B3420AD1FEF706F820448379BB4204D1FC
:10BF5000FEF700F820448068F8BD0135E1E70000F5
:10BF6000F0B51C4B1B6885B006460F467BB9FBF746
:10BF700028FC014658B908230093CDE901674FF426
:10BF8000B87340F61A024FF0FF302EF0E5FC0024A3
:10BF9000FDF7E0FF90F85432A34201D8002014E0EE
:10BFA000FDF7D8FF04F10F052D0128448388B34223
:10BFB0000DD1FDF7CFFF28448379BB4207D1FDF7B0
:10BFC000C9FF00EB0410D0F8FC0005B0F0BD01344F
:10BFD000DEE700BFBCC60120F0B51C4B1B6885B076
:10BFE00006460F467BB9FBF7ECFB014658B9082320
:10BFF0000093CDE9016740F2891340F61A024FF031
:10C00000FF302EF0A9FC0024FDF7A4FF90F8543275
:10C01000A34201D8002014E0FDF79CFF04F10F05B6
:10C020002D0128448388B3420DD1FDF793FF2844A6
:10C030008379BB4207D1FDF78DFF00EB0410D0F8E8
:10C04000000105B0F0BD0134DEE700BFBCC6012031
:10C0500070B511F1FF3418BF012406460D46FDF7F7
:10C0600079FF2334240120448388B34201D0002087
:10C0700070BDFDF76FFF20448379AB42F7D1FDF728
:10C0800069FF20448068F3E7F0B5194B1B6811F194
:10C09000FF3585B007460E4618BF01257BB9FBF773
:10C0A00090FB014658B908230093CDE9017640F290
:10C0B000CD1340F61A024FF0FF302EF04DFCFDF785
:10C0C00049FF05F12304240120448388BB4202D0A8
:10C0D000002005B0F0BDFDF73DFF20448379B34259
:10C0E000F6D1FDF737FF00EB0510D0F83C02F0E782
:10C0F000BCC60120F0B5194B1B6811F1FF3585B0A6
:10C1000007460E4618BF01257BB9FBF75AFB0146CF
:10C1100058B908230093CDE901764FF4EF7340F648
:10C120001A024FF0FF302EF017FCFDF713FF05F158
:10C130002304240120448388BB4202D0002005B0A0
:10C14000F0BDFDF707FF20448379B342F6D1FDF738
:10C1500001FF00EB0510D0F84002F0E7BCC601205B
:10C1600070B506460C4615462EF09CFE38B1C42E1E
:10C1700005D129462046BDE87040FFF769BF294632
:10C180002046BDE87040FFF7C8BE70B506460C46B5
:10C1900015462EF087FE38B1C42E05D1294620461B
:10C1A000BDE87040FFF770BF29462046BDE87040EB
:10C1B000FFF7D6BE70B506460C4615462EF072FE49
:10C1C00038B1C42E05D129462046BDE87040FFF79E
:10C1D00091BF29462046BDE87040FFF7FDBE10B56F
:10C1E0001B21044628F022FA037DB0F80F10007BD3
:10C1F000002B0CBF01220222FFF7B2FF034618B149
:10C200002046BDE81040184710BD70B51B210646FA
:10C2100028F00CFA05463046FDF7C0FB044680B90D
:10C22000AB7D30467BB1FFF797F950B9FDF7A4FE1F
:10C23000012810D02A7EAB7D42B1002B0CBF832495
:10C240008424204670BDFFF7CAFFEEE7002B0CBF29
:10C2500081248224F5E78124F3E770B51646B1F80E
:10C2600009204FF6F7739A4286B005460C4634D83B
:10C270004B7B13F00C0F30D1CB7D03B16EB3A37D9C
:10C2800013B1E37C0B2B28D02378013B012B24D95D
:10C29000284628F0C3F8237D002B0CBF1823102359
:10C2A0000370637D43700B238370E37CC37006715E
:10C2B00000230493B4F80F300393B4F811300293C1
:10C2C000237B0193E37A0093411D0223621C2846DD
:10C2D000FDF7B0FD012006B070BD2846002DFAD054
:10C2E00027F0B0FF0020F6E770B51646B1F8092038
:10C2F0004FF6F7739A4286B005460C462FD84B7B13
:10C3000013F00C0F2BD1CB7D03B146B3A37D13B13A
:10C31000E37C0B2B23D02378013B012B1FD928462C
:10C3200028F07CF818230370637D43700B2383701F
:10C33000E37CC370067100230493B4F80F300393B9
:10C34000B4F811300293237B0193E37A0093411DEB
:10C350000223621C2846FDF76DFD06B070BD28461D
:10C3600006B0BDE8704027F06DBF70B51646B1F855
:10C3700009204FF6F7739A4288B005460C4635D827
:10C380004B7B13F00C0F31D1CB7D03B176B3A37D82
:10C3900013B1E37C0B2B29D02378013B012B25D94A
:10C3A000284628F03BF818230370637D43700B2365
:10C3B0008370E37CC3700671627B0023C2F340127A
:10C3C000CDE90432CDE90633B4F80F300393B4F865
:10C3D00011300293237B0193E37A0093411D0223E2
:10C3E000621C2846FDF75AFD08B070BD284608B00B
:10C3F000BDE8704027F026BF70B51646B1F8092099
:10C400004FF6F7739A4286B005460C4643D84B7BED
:10C4100013F00C0F3FD1CB7D0BB1002E3BD0A37D91
:10C4200013B1E37C0B2B36D02378013B012B32D99F
:10C43000284627F0F3FF237E002B237D14BF042220
:10C440000022002B0CBF0823002342F010021343EC
:10C4500000F8013B237E1BB1B4F819102DF069FBE5
:10C46000637D03700B234370E37C8370C6700023ED
:10C470000493B4F80F300393B4F811300293237B84
:10C480000193E37A0093011D0223621C2846FDF705
:10C49000D1FC06B070BD284606B0BDE8704027F05C
:10C4A000D1BE000030B589B0182302AA2AF0AEF937
:10C4B0000546002878D101214FF4A060FDF7BCF9B2
:10C4C000044600285ED0102301224FF4A061FEF73D
:10C4D000F1FA08220DEB0201406847F08CF82B4678
:10C4E00001224FF4A0612046FEF7E4FA43689DF86C
:10C4F00011201A704FF4A061112301222046FEF78B
:10C50000D9FA43689DF814201A704FF4A0614EF2D6
:10C51000010301222046FEF7CDFA43689DF8102062
:10C520001A704FF4A0614EF2020301222046FEF77A
:10C53000C1FA4368BDF812201A804FF4A0614FF48D
:10C54000604301222046FEF7B5FA43689DF81F209C
:10C550001A709DF81F30ABB12046FFF707F904466B
:10C5600080B1124B1B686BB9FBF72BF9014648B938
:10C57000042300930194832340F608024FF0FF3018
:10C580002EF0EAF901212020FDF756F960B14EF6B0
:10C59000FE7301222021FEF78DFA4368BDF81620B4
:10C5A0001A809DF815209A7009B030BDBCC60120D4
:10C5B00070B586B0182205460E466846002147F041
:10C5C0003EF801214FF4A060FDF736F9044600283B
:10C5D00045D0102301224FF4A061FEF76BFA082228
:10C5E0004168684647F007F8002301224FF4A06134
:10C5F0002046FEF75FFA43681B788DF80930012268
:10C600004EF201034FF4A0612046FEF753FA43684F
:10C610001B788DF80830012211234FF4A0612046C9
:10C62000FEF748FAA8B343681B788DF80C304EF239
:10C63000020301224FF4A0612046FEF73BFA436853
:10C640001B88ADF80A3001224FF460434FF4A0611B
:10C650002046FEF72FFA43681B788DF8173001212A
:10C660002020FDF7E9F860B14EF6FE73012220218B
:10C67000FEF720FA43681A88ADF80E209B788DF8F3
:10C680000D3018236A46314628462AF08DFC06B044
:10C6900070BD8DF80C00CAE72DE9F843FDF75AFC90
:10C6A0004468002C36D104EB4400C00080B2BDE8E1
:10C6B000F883FDF74FFC4368D3F8013053F8263078
:10C6C000D3F81A304FEA86089BB1FDF743FC436864
:10C6D000D3F8013053F82630D3F81A900025FDF72F
:10C6E00039FC4368D3F8013053F808305B7EAB4225
:10C6F00007D80136FDF72EFC43681B78B342D8D823
:10C70000D1E707FB059301351B7ADB0744BF0134F2
:10C71000A4B2E4E7002426463027EBE72DE9F04FEA
:10C7200089B08346019100241827B2FBF7F7FDF783
:10C7300011FC43681B78A3420BD8002635464FF006
:10C74000180A019BBD420AFB053126D309B0BDE89A
:10C75000F08FFDF7FFFB4368D3F8013053F8243026
:10C76000D3F81A30BBB1FDF7F5FB4368D3F80130BD
:10C7700053F82430D3F81A50FDF7ECFB4368D3F894
:10C78000013053F824305A7E02EB4202120100219C
:10C79000284646F054FF0134C9E7182302AA584638
:10C7A0002AF034F8002840F0828004460AE0FDF7C1
:10C7B000D1FB4368D3F8013053F82430D3F81A3052
:10C7C0003BB90134FDF7C6FB43681B78A342EED8A2
:10C7D0000BE0FDF7BFFB4368D3F8013053F824307A
:10C7E0001A789DF809309A42EBD1FDF7B3FB436804
:10C7F0001B78A34257D9FDF7ADFB4368D3F801304E
:10C8000053F824304FEA8408D3F81A404FF0000957
:10C81000FDF7A0FB4268D2F8012052F80820527EB2
:10C820004A4502D9227AD30743D4FDF793FB4268E5
:10C83000D2F8012052F80820527E4A4533D99DF89B
:10C84000082022709DF809306370BDF80A306380BB
:10C850009DF80C302371BDF80D30E3809DF80F304A
:10C860002372BDF81030238222B9BDF812306382E2
:10C87000059B6361BDF8183023859DF81A3084F854
:10C880002A309DF81C209DF81B3043EA0223A38523
:10C8900008224FF0FF3104F11C0046F0D0FE204684
:10C8A00000F048FC013616B1002000F05FFC0135B5
:10C8B00047E709F101093034AAE72DE9F04F87B0C5
:10C8C00080460E46FDF746FB4568002D43D12846BD
:10C8D00007B0BDE8F08FFDF73DFB4368D3F80130AA
:10C8E00053F82530D3F81A304FEA850A9BB1FDF78B
:10C8F00031FB4368D3F8013053F82530D3F81AB030
:10C900000027FDF727FB4368D3F8013053F80A30BE
:10C910005B7EBB4216D80135FDF71CFB43681B78D4
:10C92000AB42D8D8002C40F08B80182221466846B4
:10C9300046F085FE18236A46314640462AF034FB0D
:10C940000546C4E709FB07B301371B7ADA0744BF82
:10C950000134E4B2D5E7002425464FF03009DBE787
:10C96000FDF7F8FA4368D3F8013053F82930D3F8CB
:10C970001A304FEA890AA3B1FDF7ECFA4368D3F8FD
:10C98000013053F82930D3F81A4000273034FDF72E
:10C99000E1FA4368D3F8013053F80A305B7E9F42D6
:10C9A00008D309F10109FDF7D5FA43681B789945C9
:10C9B000D6D38CE714F8283CDB073ED5182200219B
:10C9C000684646F03CFE14F8303C8DF8003014F810
:10C9D0002F3C8DF8013034F82E3CADF8023014F8BD
:10C9E0002C3C8DF8043034F82A3CADF8053014F8AE
:10C9F000283C8DF8073014F8302C34F8203CADF882
:10CA0000083032B934F81E3CADF80A3054F81C3CFA
:10CA1000039334F8083CADF8103014F8063C8DF858
:10CA2000123034F8043CADF81330314618236A460E
:10CA300040462AF0B9FA1836054601373034A6E7E1
:10CA40004FF000094D46AEE730B587B018236A466F
:10CA500029F0DCFE0546002854D101212020FCF7F6
:10CA6000EBFE2B46012220210446FEF723F8436803
:10CA7000009A1A6001231A4620212046FEF71AF870
:10CA80004368019A1A600198FA25684334F0F4FB70
:10CA90002021022301222046FEF70CF84368BDF84E
:10CAA00008201A80BDF80800684334F0A3FB202159
:10CAB000032301222046FDF7FDFF4368BDF80A204D
:10CAC0001A80BDF80A00684334F0AEFB042301224B
:10CAD00020212046FDF7EEFF4368039A1A602021CB
