:1010000000000420B5120000DD120000DF12000015
:10101000E1120000E3120000E512000000000000F1
:10102000000000000000000000000000E7120000C7
:10103000E912000000000000EB120000ED120000B9
:101040004DE2000075E8030021EA0000EF12000005
:10105000EF120000EF12000055E70000EF12000051
:10106000EF120000EF12000045F00000EF12000048
:10107000EF12000019EE0000EF120000EF12000066
:10108000EF120000E1CE0000EF120000EF120000AE
:10109000EF120000EF120000EF120000EF1200004C
:1010A000EF120000EF120000EF120000EF1200003C
:1010B000D1EC0000EF120000000000000000000072
:1010C000EF120000EF120000EF120000EF1200001C
:1010D00075160400EF120000EF120000EF1200007E
:1010E000EF120000EF120000EF12000000000000FD
:1010F00000000000EF12000000000000EF120000EE
:1011000000000000000000000000000000000000DF
:1011100000000000000000000000000000000000CF
:1011200000000000000000000000000000000000BF
:1011300000000000000000000000000000000000AF
:10114000000000000000000000000000000000009F
:10115000000000000000000000000000000000008F
:10116000000000000000000000000000000000007F
:10117000000000000000000000000000000000006F
:10118000000000000000000000000000000000005F
:10119000000000000000000000000000000000004F
:1011A000000000000000000000000000000000003F
:1011B000000000000000000000000000000000002F
:1011C000000000000000000000000000000000001F
:1011D000000000000000000000000000000000000F
:1011E00000000000000000000000000000000000FF
:1011F00000000000000000000000000000000000EF
:1012000010B5054C237833B9044B13B10448AFF340
:1012100000800123237010BD18070020000000008B
:10122000985E040008B5034B1BB103490348AFF3B4
:10123000008008BD000000001C070020985E04002C
:10124000154B002B08BF134B9D46A3F5803A002198
:101250008B460F461348144A121A40F09AFD0F4B62
:10126000002B00D098470E4B002B00D09847002051
:10127000002104000D000D48002802D00C48AFF3F7
:10128000008040F00FFD200029000EF07BFF40F0B1
:10129000E3FC00BF00000800000004200000000084
:1012A0000000000018070020D863002000000000A4
:1012B000000000000649074A074B9B1A03DD043B68
:1012C000C858D050FBDC0FF0A1F8FFF7B9FF0000C1
:1012D000BC5F04000800002018070020FEE7FEE7BE
:1012E000FEE7FEE7FEE7FEE7FEE7FEE7FEE7FEE7D6
:1012F000F0B595B01C46164608460D460CF07CFB32
:101300001A9B0D93CDE9086400242346082205A901
:1013100028460A948DF82C400C940CF08BFB079B0C
:101320000293BDF81830ADF80C30BDF81A30ADF8A6
:101330000E309DF814308DF8114003F00302012A9D
:101340001DD1BDF81440059EC3F3C203C4F383143A
:101350008DF81030A20008230EA928460CF06AFB75
:10136000C6F3952608AB0093224602AB0EA9304681
:1013700000F02EFD28460CF043FB15B0F0BD022A0C
:10138000F8D1BDF81640C3F3C203A4098DF810309C
:101390000827082C264628BF08263B4632460EA9B9
:1013A00028460CF047FBA41B08AB02AA31460EA846
:1013B000374400F071FD002CEBD1DBE7014B01223B
:1013C0001A707047750700207047000070B50F4D08
:1013D00006460FCD88B06C460FC495E80F00002E6E
:1013E00084E80F004FF01F030093094A09484FF0AB
:1013F000805308BF0022694606930CF005FE08B131
:101400000AF086FF044B1E7008B070BD5C35040006
:10141000BD130000080000203407002007B5044B6E
:101420000093044A4023FFF763FF03B05DF804FB19
:10143000391400003507002038B50D4B0D4D002044
:1014400018700D4804782D5DD2B21C4665B1043089
:101450000EF0B4FA08B10AF05BFF084B1A7812B12B
:101460002378002BFBD038BD0C300EF043F8F1E7A9
:10147000750700208A420020080000203407002061
:1014800008B50848084A0378D35C3BB104300EF035
:1014900027FA0020BDE80840FFF798BF0C300DF098
:1014A000CFFFF6E7080000208A4200200120FFF766
:1014B0008DBF000008B5FFF7F9FF0421034800F0D5
:1014C000E5FB034B01225A7108BD00BF8C5F04008D
:1014D0001C000020037813F0040216D003F003036D
:1014E000012B03D0022B09D0012070470A68008825
:1014F0000232C0F3831002440A60F5E70B684288A9
:10150000023303EB92130B60EEE7104670470000C6
:101510002DE9F04F484C87B00F460546861C002049
:1015200001920BF08FFB23683B60D4E90123134445
:10153000226801339B1A04F21C4704F5836A04F203
:101540001448B34219D3019A0023002A6CD0012217
:1015500062F3010343F0040365F389132168A26871
:101560000A4003320E44002044F8223026600BF07B
:101570006BFB012007B0BDE8F08F012138460BF06E
:1015800077FD50460BF08DFD40460BF08AFD0DF1C6
:1015900018096068D4F808B049F8100D00EA0B008B
:1015A000033004EB80004946FFF794FF029BB0B97B
:1015B0000BEA030204EB8202D16803919A1C013307
:1015C00003EA0B0B04EB8B0C01F00303012B0292DB
:1015D000DCF80CB020D0022B04D083460BE00BEAE1
:1015E0000300DDE7BDF80E309B0903334FEA1B4BC8
:1015F00002EB9303029340460BF056FD08B1029BA9
:101600006360594638460BF033FDD4E90123134497
:10161000226801339B1A94E7BDF80C30C3F383139F
:101620004FEA1B4B1344E5E7022262F3010343F048
:10163000040365F39F5391E74808002030B50A4B37
:101640000A4A0B49D21AD20800239A4201D1052036
:1016500006E031F823500468A54202D1036000205F
:1016600030BD0133F1E700BFB45E04008C5F0400BD
:101670002C0600202DE9F84F224B2348FF229A60C8
:101680000022C3F81824C3E90022C3F8142483F805
:1016900020240CF06AF9804688B91C481C4E1D4D68
:1016A000DFF874A00CF0D4FAAD1BED084446AC4250
:1016B00008D10023184919481A469C421BD14046BC
:1016C000BDE8F88F4FF000094F4606EBC40BBC4253
:1016D0000AD0142256F83710DBF8000040F0C4FEA0
:1016E0000028C8BF09F101090137BD42EFD12AF82E
:1016F00024900134DBE701EB830540F823206A8066
:101700000133DAE7480800209C5F04009C350400A0
:10171000B45E04008C5F04002C06002098060020B4
:1017200007B5019031B9019A064B53F8320003B066
:101730005DF804FB01A8FFF781FF0028F3D000202B
:10174000F5E700BFB45E0400094B013903EBC000AC
:10175000032909D8DFE801F00A02040604207047D3
:101760000079704740797047002070470220704729
:10177000B45E040030B5124C00EB400054F8215028
:101780008240072303FA00F06A4002400D4B6A4092
:10179000C2F3821044F8212003EB8101C2F3C2039B
:1017A000834238BF0346C2F34220834202F007025D
:1017B00038BF03469A4238BF1A464A8030BD00BF40
:1017C000980600202C06002037B5164B93F82034DD
:1017D00004460BB918B90024204603B030BD40F0D0
:1017E0003BFE02AA013042F8080D012301A90E4870
:1017F0000CF03CFA05460028EDD12146009A0198EC
:1018000040F0A3FADDE900231344074803F8015C24
:1018100000990CF062FA009903480CF077FA019CE9
:10182000DAE700BF480800209C350400034BD3E9E9
:101830000030C31A58425841704700BF4808002082
:101840002DE9F04F85B0FFF7F1FF0646002840F084
:1018500018818D4DC5F81804BFF34F8F6868AC68C8
:1018600004AF47F8100D2040033005EB80003946E7
:10187000FFF730FE009B18B1D5F81824002A66D077
:1018800004EA0302991C013305EB8202234005EBB5
:101890008303D268DB68029302F00303022B0192F8
:1018A000009169D1BDF8063078489DF804604FEA90
:1018B000931ABAF1500FD14628BF4FF0500969F37F
:1018C0008F1309F10801ADF806300CF066F8C6F385
:1018D000C2068046002800F0BB800CF08DF801A9FC
:1018E0000023082240460CF09AF8009924EA0107E8
:1018F0000137BF00B94538D95FFA89F997B3FFB20C
:10190000A9EB0709214003315FFA89FBB946604F13
:1019100005EB810108234A4640460CF080F837B1B8
:1019200009F108035A46394640460CF078F8009B06
:101930000AF1030A03EB9A030093D5F81834002B3D
:1019400050D1D5F81044DFF85C9107276FE02A6882
:101950009A4204D86A60304605B0BDE8F08F04EAC8
:10196000030081E74A49BB46D4E7214003310823FD
:101970004A4605EB8101D7E7012B69D1BDF8046028
:101980004248C6F38311062928BF062161F3891650
:1019900002318900ADF804600BF0FFFFC6F3C20608
:1019A0008046002854D00CF027F80023082201A913
:1019B00040460CF034F80027BDF80420C2F383122F
:1019C000BB1C97424FEA8303B7D200994A1C2140BF
:1019D0000331009205EB8101042240460CF01FF810
:1019E0000137E9E740460CF00BF8FFF71FFF80F0E6
:1019F0000100C6B2AFE7E3685A79B2B11B79BDF80E
:101A0000081003EB430259F8211007FA02F3052EE0
:101A100003EA010323FA02F308BF0326B34204D307
:101A2000236841461B6820469847E3681C68002CE1
:101A3000E1D140460BF0E4FF20460BF003F9D5F866
:101A400018340BB9009B6B6000200BF0FDF8CCE75D
:101A5000D5F8104474B90F4B5B88012BC5D90E4BD8
:101A60000E480F49C01AC008000440F0020000F000
:101A700073F8BAE7236820469B689847E3681C68B8
:101A8000E8E7002667E700BF480800209C5F0400E5
:101A90005408002050060020B45E0400FC5E0400E0
:101AA000A8350400980600202DE9F74F284C804601
:101AB0000F46924601A9012218469B46D4F8089089
:101AC000FFF726FD88B3019D0026A91C5E4506EBA5
:101AD000010234D100211F480BF094FA80F310006A
:101AE0006A1C02EA090204EB8202000405EA090307
:101AF000033340EA1840D06014F8232068F3C5028D
:101B000004F8232034F8232066F3891224F82320D4
:101B100054F82320012167F39F2244F8232061F326
:101B200001026FF3820204F8232094F820341BB1E1
:101B3000FFF786FE0028FBD103B0BDE8F08F09EA6D
:101B4000020204EB82025AF82630D3600136BDE768
:101B500048080020640C002000231A46FFF7A4BFA9
:101B600013B502AC012344F8042D2246FFF79CFF75
:101B700002B010BD07B5CDE9002302236A46FFF786
:101B800093FF03B05DF804FB1FB5CDE90123069B6D
:101B9000039301AA0323FFF787FF05B05DF804FB59
:101BA0001FB5CDE90023069B0293079B03936A466A
:101BB0000423FFF779FF05B05DF804FB2DE9F34737
:101BC0008046304CD01C8A46174601A90022800866
:101BD000A568FFF79DFC002840D0DDF80490A668BA
:101BE00009F10200019001362840361AB600033090
:101BF000B74204EB80003BD83A46514640F0A5F886
:101C0000002121480BF0FEF980F3100009F10103D7
:101C10002B4004EB83034FEA184242EA0040D860AD
:101C200005EA0903033304EB830214F8231068F375
:101C3000C50104F8231034F823106FF38F1124F832
:101C40002310518867F38F11518014F8232002214B
:101C500061F301026FF3820204F8232094F8203428
:101C60001BB1FFF7EDFD0028FBD102B0BDE8F08706
:101C70003246514640F069F8BA1B0AEB060104F1FE
:101C80000C00BBE748080020640C00202DE9F84355
:101C90001F4B8846D3F81014054600240A469AB90B
:101CA000E9680C71D3F81014A1B9C3F81054EB68AB
:101CB0001A60184F184EF61BF6084FF00009B14590
:101CC00011D12046BDE8F883D2681079A04218D01F
:101CD0001268E4E7C968EA6809681160D3F810344B
:101CE000DB681D60E5E707EBC9034946DA79EB6875
:101CF000424528BF42461879FFF73CFD09F101092A
:101D0000DDE701340A2CC9D14FF0FF34D9E700BF19
:101D100048080020B45E04008C5F040010B5037A0C
:101D2000052B0C460FD0437A23B1084A08492046B8
:101D30000BF019FA074920460BF015FA2046BDE8CA
:101D400010400BF005BA002AF8D0F3E70336040080
:101D5000874204002536040073B5C38804460D4647
:101D600033B1144A00921449144A28460BF0FBF987
:101D7000217A05291CD0637A4BB1A088FFF7E4FCD7
:101D80000F4B104953F8202028460BF0ECF9227A2B
:101D90000D4BA08853F822600021FFF7C1FC0B49CE
:101DA00003463246284602B0BDE870400BF0DBB96E
:101DB00002B070BD0336040010360400083604007B
:101DC000D03504008742040034360400283604006D
:101DD0002DE9F04385B01F460C9D002306460C46B6
:101DE000904695F80C902B7329463846FFF7B4FFC0
:101DF000B8F1060F09D8DFE808F00412181F2833DD
:101E00004000314628460BF0AEF9002229463846FC
:101E1000FFF784FF85F80C9005B0BDE8F0832268D9
:101E2000314628460BF09FF9EFE7D4E9002331460D
:101E300028460BF098F9E8E7A36800933146D4E907
:101E4000002328460BF08FF9DFE7E3680193A368CE
:101E500000933146D4E9002328460BF084F9D4E7F7
:101E600023690293E3680193A36800933146D4E9A0
:101E7000002328460BF077F9C7E7636903932369CA
:101E80000293E3680193A36800933146D4E90023E9
:101E900028460BF068F9B8E708292DE9F84F804685
:101EA0000E4617461C4635D8002593F80C901D7336
:101EB00019461046FFF750FFDFF88CA0DFF88CB012
:101EC000AE4229D918F80520594620460BF04BF9A7
:101ED0000135082DF4D11A49DFF874B020460BF013
:101EE00042F94FF0000A564524D918F80A507E2DC1
:101EF00017D92E22594620460BF035F90AF1010A6E
:101F0000BAF1080FEFD1012221463846FFF706FF4C
:101F100084F80C90BDE8F88F514620460BF023F969
:101F2000D6E73FF0E3FE2844427812F0970FE0D066
:101F30002A46DFE7034920460BF015F9DEE700BF2C
:101F4000FE350400FC350400FA350400F4350400C5
:101F500000360400074B1B5C1F2B8ABF064A4FF05C
:101F6000A04203F01F03D2F80405D840C04300F09C
:101F7000010070479936040000030050074B1B5CBA
:101F80001F2B86BF03F01F0305494FF0A04101221C
:101F900002FA03F3C1F80C35704700BF993604000C
:101FA00000030050074B1B5C1F2B86BF03F01F0371
:101FB00005494FF0A041012202FA03F3C1F80835A8
:101FC000704700BF993604000003005008B5002098
:101FD000FFF7E8FF0120FFF7E5FF0220FFF7E2FF30
:101FE0000320BDE80840FFF7DDBF08B50020FFF77C
:101FF000C5FF0120FFF7C2FF0220FFF7BFFF03204C
:10200000BDE80840FFF7BABF0A4B185C1F288ABF1B
:10201000094B4FF0A04300F01F00D3F80425012125
:10202000814021EA02000A40C3F80805C3F80C25E4
:10203000704700BF9936040000030050014B185C44
:10204000704700BF99360400263818BF4FF0FF30A4
:1020500070470000C10710B5044642D54FF08043D9
:10206000D3F84036DA072ED54FF01023D3F80433D7
:1020700003F00703072B26D11D4B0122C3F80425CB
:10208000D3F80024002AFBD04FF01021D1F804230C
:1020900022F0070242F00402C1F804230022C3F830
:1020A0000425134AD2F80034002BFBD0BFF34F8F26
:1020B0001049114BCA6802F4E0621343CB60BFF3CE
:1020C0004F8F00BFFDE74FF0A0420C490323C2F839
:1020D0001837C2F82037C1F82437C2F83037FFF775
:1020E00075FFA30742BF054B0C22C3F8182710BD8C
:1020F00000E0014000ED00E00400FA05000300509C
:10210000F8B5164C05460E4694F88A7028F0A2FBE6
:10211000F0B1202F1CD1124B124843F6FF3203FBC3
:10212000062300214FF47052B3FBF2F227F01EFA9F
:102130003146284604F09AFA68B9082384F88A30B0
:10214000012384F878300523237084F84450F8BDC7
:102150006FF02200FBE74FF0FF30F8E7F24100207C
:1021600040420F0019230000F8B50F4B0024202235
:102170000F460D2183F88A201C7083F8784083F87D
:102180008C1022462346054627F014FF064650B120
:102190002146284621F0B5FD377029460348BDE8A1
:1021A000F84027F0BDB8F8BDF2410020DDA30200E1
:1021B00073B502AB00220C4603F8012D114620F046
:1021C000EFFE38B90A4B9DF8071093F843200D2510
:1021D000824202D86FF01B0006E005FB0036F67B5A
:1021E0008E4203D12070002002B070BD0130EFE7B5
:1021F000F24100200B4BD3F801202AB983F8782054
:102200001146094821F093BA8C2A0BBF07220622F7
:1022100083F8782083F8782007BF0022032100226A
:102220000221EEE7F24100206921000037B5114C90
:10223000054621F045FB2278042A07D142782AB9C5
:1022400029460D4821F073FA03B030BD0DF10701A6
:102250004088FFF7ADFF0028F6D19DF8073007480A
:102260000D2202FB034329465A7D01325A7527F09D
:1022700057F8E9E7F241002031250000F926000077
:1022800008B50022FF21094827F038FB0022FF2172
:10229000074827F033FB7522002106483FF079FDFF
:1022A000054B064AC3F8942D08BD00BFF521000078
:1022B00019230000F24100202C430020A92800002F
:1022C00010B5044600F0B8FF40B1064BD3F88510B6
:1022D000204689B2BDE81040FFF712BF6FF0090039
:1022E00010BD00BFF241002010B50022084C094883
:1022F000114627F003FB94F8440004F01BFB002375
:102300002022237084F88A2084F8783010BD00BF22
:10231000F24100201923000010B5044620B90948F5
:10232000BDE8104021F0DEB9FFF7DEFF00230C21ED
:1023300020461A4627F03EFE21460348BDE81040DD
:1023400026F0EEBF19230000DDA3020008B500222D
:10235000FE21054827F0D2FA002201210348BDE8FA
:10236000084021F0E4B900BFF52100006921000018
:1023700070B50C4BD3F845302BB11C7CD3F8115001
:102380000023A34201DB002070BDC3EB03122A44EB
:102390001688864202D1127A8A4201D10133F0E7CF
:1023A0000120F1E7F24100202DE9F047044688B012
:1023B000C0790E4621F084FA90F80BA0077B804686
:1023C0005744D4F80950BD4280F090802B1D08EB93
:1023D0004303AA4594BF02210121B3F80590484662
:1023E000FFF7C6FF002800F08A80DFF838A11C2123
:1023F000304621F0F9FBDAF809300546D046002BCB
:1024000050D0217806A820F051FAA279DAF809A074
:1024100022444B46527806A90220D047002841D1D9
:102420006FF04402D4F809309F4270D13D4F97F8C5
:102430004A30002B67D0B7F875204FF6FF739A42E9
:1024400061D00025217806A820F072FA2B462A4692
:1024500001210095304601F069FDB7F8751026F0AE
:1024600046FE01464FF48273042201F8015BCDE978
:102470000232049597F844300193A379234406AAC5
:102480005B7800933046022301F0DEFCA379E1790A
:1024900025480133A37126F043FF0023E37108B000
:1024A000BDE8F0871C22002128463FF072FC284638
:1024B00027F028FF98F844302B72A5F80A90B8F856
:1024C00075204FF6FF739A4212D1217805F10D0065
:1024D00020F0ECF903232B73A379234430465B7877
:1024E0006B75124B2672AB610FF0B4FD002299E7B9
:1024F00001232B73B8F87530A5F80D30ECE70135E2
:10250000C4F809505DE7304621F07AF9BEE7002AA9
:10251000C5D00133C4F8093031462046FFF744FFE7
:10252000BDE700BFF2410020F9260000CD250000E4
:102530002DE9F341CFB2054638460C4621F0C0F9EB
:10254000204EC1888046D6F8450000F084FFB8F8D8
:1025500002300DF10701A8B11846FFF729FE30BB84
:102560009DF807300D2101FB036429462076607633
:10257000A076E0762046A7750F30FFF715FF02B072
:10258000BDE8F0811846FFF713FE804678B99DF844
:1025900007000D2303FB00603946437D013343757B
:1025A000094826F0BDFE002DE9D0444600E015B1F3
:1025B000284621F025F9002CE1D0E0B221F020F9E5
:1025C000DDE700BFF2410020F92600002DE9F04FC1
:1025D0001C2185B08146304C21F006FB94F8432045
:1025E000834600250D21954215D32C4B1B687BB9E2
:1025F0000EF0C8F8014658B904230093CDF80490B2
:102600004FF4BA7340F25B324FF0FF3027F082FC98
:1026100005B0BDE8F08F01FB05F804EB0803D87D99
:1026200048450DD10026DE75484621F063FB48B1D0
:102630006FF07303A670E67026716370012609E0DF
:102640000135D0E701236070A070E070207184F83C
:102650004A3006460D2707FB054702A8F97B20F004
:1026600025F9D4F809A0BAF1000F07D07B7D1F44EB
:1026700002A9BBF80A303A7C3046D0470D2303FB51
:10268000054508F10F00AB690133AB6149462044B1
:10269000FFF78AFEBCE700BFF24100204453002050
:1026A00070B50E4605460146304621F02AFB8C2DBA
:1026B0000F4C03D1072384F8783002E0B5B984F8D1
:1026C00078502378052B06D1002394F878200C212C
:1026D000304627F06FFC00232370202384F88A30D3
:1026E00031460448BDE8704026F01ABE0623E2E7F2
:1026F000F2410020DDA302002DE9F341054621F05F
:10270000DFF80DF105014088FFF752FD074600286C
:102710004AD19DF80530274C0D2202FB0346717DFE
:10272000307D884222D93144284691F81080032117
:1027300021F018F90322394604463FF02AFBF17BC9
:102740000DF1060020F0F4F8BDF80630238084F87F
:102750000280194928462BF05FFDFF2803D1294646
:102760008A20FFF79DFF02B0BDE8F081FF21022B18
:10277000F1730BD803FB022000F10F01C3F1030337
:1027800002305A43214420443FF0EAFA94F843309F
:10279000013BDBB284F8433033B9D4F801208C2AF2
:1027A00008BF072384F87830002DDCD0284621F0BC
:1027B00027F8D8E7F24100202D2200002DE9FF473D
:1027C000364D804621F07CF895F80090B9F1040F61
:1027D00007465AD10DF10D014088FFF7E9FC82460A
:1027E000002858D19DF80D400D2606FB04560DF12A
:1027F0000E00F17B20F09CF83B793375042B86F8B2
:1028000015A029D9264B1A689A4602BB0DF0BAFFCB
:10281000014650B9337D40F25B32CDE900934FF071
:10282000FF3040F2B33327F075FBDAF8003073B9AC
:102830000DF0A8FF014650B90423CDE9003340F262
:102840005B3240F2B5334FF0FF3027F063FB0D23CE
:1028500003FB045304221A750D2303FB0453197D53
:1028600004EB440304EB830400238B4206D341466C
:102870000C4826F055FD04B0BDE8F087FA185079F1
:102880001A192A4401331074EFE76FF0070041462C
:10289000FFF706FFEFE70020F9E700BFF241002055
:1028A00044530020F92600002DE9F047664D2B78AF
:1028B000042B8CB0064640F0C380D5F801301C33A1
:1028C00004D100236B70AB70EB702B711B21304671
:1028D00021F08AF91B22014605A83FF036FA03A928
:1028E000BDF8150020F088FB28B9584B93F8D00F9D
:1028F00010F0200414D00621304621F075F9BDF8FF
:1029000015304380038000238380514930462BF0EB
:1029100083FBFF2874D131468A20FFF7C1FE6FE0A8
:10292000FF238DF80A302B78BDF815709DF81F90A5
:10293000042B1FFA87F810D10DF10A014046FFF76A
:1029400037FC70B195F84330032B04D88DF80A306A
:10295000013385F84330204601E06FF00700012481
:1029600000E004469DF80AA0BAF1FF0F4DD0002CFC
:1029700049D000220DF10B031146404620F010FB18
:10298000002842D10D2303FB0A539DF80B20DA7374
:10299000187558754FF00D0808FB0A5898F8143050
:1029A000032B35D808EB0302013382F8109088F826
:1029B0001430002C43D00521304620F0D3FF0522EF
:1029C000044600213FF0E5F9002363700D2303FB6B
:1029D0000A5567802B7D23711E4B1B6863B90DF070
:1029E000D1FE014640B900904FF45F7340F25B3274
:1029F0004FF0FF3027F08EFA3146174826F090FC52
:102A00000CB0BDE8F0870028C4D0314600B284E79E
:102A1000104B1B68002BCCD10DF0B4FE01460028F2
:102A2000C7D198F8143001930423009340F25B322D
:102A300040F271334FF0FF3027F06CFAB9E73046BF
:102A400020F0DEFEDCE700BFF24100202C43002036
:102A5000F92A000044530020F9260000F7B50E467D
:102A600002A9FF25044601F8025D3046FFF7A0FBEE
:102A7000A0B31F4A92F84330032B04D88DF80630D8
:102A8000013382F843309DF80650FF2D29D002AB68
:102A9000002203F8012D1146304620F081FA074646
:102AA000F8B9134B0D2202FB05359DF80730EB7387
:102AB0000221204620F056FF0546022239463FF00B
:102AC00068F92E800B4920462BF0BFFBFF2803D16D
:102AD00021468A20FFF7E4FD03B0F0BD8DF80650D3
:102AE000D1E7002CF8D0204620F08AFEF4E700BFA2
:102AF000F2410020BD27000037B5044620F0E0FE7B
:102B00000546204621F0F6F8024658B969890DF1CC
:102B10000703A81C20F06AFB69892046FFF79EFF87
:102B200003B030BD204620F06BFEF9E70D4930B50B
:102B3000A1F5BC720225914201D800200EE08B1A4B
:102B4000DB1093FBF5F302EBC30452F833308342FE
:102B500005DC02DA04F10802EDE7606830BD2146C9
:102B6000E9E700BF303B040008B5FFF7DFFF024B89
:102B7000002808BF184608BD9D3604002DE9F7431C
:102B80000A9F1E4680468946154601F0EDF9D0F8A9
:102B9000B030DBB101F0E8F90097D0F8B04033462F
:102BA0002A4649464046A04704464A4641462846EA
:102BB00004F015FD14F1450F03460BD148B13A4618
:102BC0002946304603B0BDE8F04318476FF044048F
:102BD000EBE70446204603B0BDE8F0832DE9F04161
:102BE000069F05461E4604F00FFD044630B13A46E6
:102BF000314628462346BDE8F0411847BDE8F0813C
:102C0000B0F80F30B3F5A06F01D103F029BC7047C5
:102C10000020704770B51B2188B0054620F0E4FF06
:102C20001B22014601A83FF090F801F09DF9D0F871
:102C3000AC604EB101F098F9D0F8AC309DF81000BE
:102C400098476FF01E0017E001F08EF9D0F89C3025
:102C5000002BF6D03421284620F0C6FF1D23037038
:102C60009DF8103043704660044601F07DF9D0F8BD
:102C70009C3028469847606801F0C2F901A90246D5
:102C8000284604F05BFD08B070BD000010B5FF28B9
:102C900088B0044607D101F067F90C4BC0F85832F0
:102CA000012008B010BD1B2120F09EFF1B22014611
:102CB00001A83FF04AF89DF8173023B9214604488F
:102CC00026F02EFBECE70020EBE700BF24000020FD
:102CD000152C000007B5054B00930023044A012181
:102CE000184604F0E5FA03B05DF804FB8D2C0000F3
:102CF000112C0000F8B50C46154607461E4600F09C
:102D00009BFA0122002100F0D6FB90B11223012290
:102D10000021384602F0F6F958B14368187840B9F6
:102D20001EB1052C05D90B2C02D1032D01D000209A
:102D3000F8BD0120FCE7000037B50146044600223B
:102D40000F4820F0F4FC0546B8B10E4B1B6873B970
:102D50000DF018FD014650B90423009301954FF47E
:102D60009F6340F60F024FF0FF3027F0D3F8204664
:102D700003B0BDE8304020F043BD03B030BD00BF1C
:102D8000C13700004453002013B5154AD2F8E03A89
:102D90001BB1D2F8E43A2BB90123023302EB8303CF
:102DA000C3F8D80AD2F8DC3ABBB9C2F8DC0A0D483D
:102DB00020F098FC044680B10B4B1B686BB90DF0FA
:102DC000E1FC014648B90423009301947D2340F6B9
:102DD0000F024FF0FF3027F09DF802B010BD00BF8A
:102DE0002C4300208138000044530020F8B5124BDA
:102DF000D3F8843B0446007803B198470F4F2278FC
:102E00003A700025237C9D4202D3FF233B70F8BD1E
:102E1000D4F81130C5EB05163344D3F80B3003B1A9
:102E20009847D4F81120B4F801102078324406F005
:102E300037FB0135E6E700BF2C43002034000020BB
:102E40002DE9F04F454BD3F8DC3A8DB0002593F8CF
:102E500000A00793AC465FFA8CF9CA457CD9079B62
:102E6000D3F8013053F805B05A199BF81030099285
:102E70000A93002201231AE0C3EB0311C2EB0218EC
:102E80000B9100200999DDF82CE051F820100691F3
:102E9000097C08911946089C8C4210D8013009EB36
:102EA0000001C9B28A45EDD801330132DBB20A987C
:102EB000D1B28842E0D80CF1010C0435CBE7DBF845
:102EC0001170069E07EB08040594D6F8116024885B
:102ED00076443788A7423AD1059F367A3F7AB7427F
:102EE00035D1042C12D0192C10D0202C0ED040F249
:102EF0000B76B4420AD040F20126B44206D0B4F5B3
:102F0000006F03D04FF65746B44220D1144B1B68D4
:102F1000CBB90DF037FCB0B9104BD3F8DC3AD3F88D
:102F200001305B59D3F811309844014698F80830C5
:102F3000CDE901430823009340F60F02D2234FF05E
:102F4000FF3026F0E7FF00200DB0BDE8F08F013123
:102F5000C9B20EF10F0E9EE70120F5E72C430020C9
:102F600044530020272807B5034620D041D81A280B
:102F700038D022D80D2800F0978011D80A2831D0F7
:102F800007D8082800F0898009287DD04FF0FF304D
:102F900084E00B2800F086800C28F7D105207DE026
:102FA00010287AD005D80E2821D00F28EED108207D
:102FB00074E0182871D01928E7E720286DD00AD8C6
:102FC0001D2871D003D81B286CD01C28E5E71E28CB
:102FD0000DD01F28EAE7232864D005D8212853D034
:102FE0002228D3D1032059E025285DD0D6D9072047
:102FF00054E03A28DBD019D82D2855D00AD82A28F1
:10300000F0D003D8282848D02928BEE72B2849D05B
:103010002C28C2E7302840D003D82E28E7D02F280C
:10302000C4E7382830D03DD83128AEE7E22826D88A
:10303000E02837D243280ED009D84128A6D300294A
:10304000A4D00878FF28A1D00130C0B226E04828DB
:1030500001D04A289AD102A80022482B20F8022D3C
:103060004FF0020201D0432B20D13EF06EFEBDF89E
:1030700006004FF6FF73984288D002300EE0EA282F
:1030800010D003D8E82881D3022007E0F0288ED0A2
:10309000F1287FF47BAF102000E00120C0B203B024
:1030A0005DF804FB0420F9E70620F7E73EF04DFE4B
:1030B000BDF806309B00ADF80630D8E7252973B57A
:1030C000044615463DD026D8182930D016D80A29EE
:1030D0006BD006D808292AD009295FD0204602B033
:1030E00070BD0F297ED0102921D00B29F6D12046A2
:1030F000042229463EF029FE0434EFE7202916D0A9
:1031000004D81A2951D049D31B29EFE722294CD0E2
:1031100044D32329EAE742291AD841294CD22B2942
:10312000E5D008D8292939D03FD82829D6D12B78FD
:1031300004F8013BD2E73029F9D031292ED02D29CE
:10314000CCD12046062229463EF0FFFD0634C5E7D5
:103150004A2904D01CD8432901D04829BED102A84D
:103160000023482920F8023D4FF0020201D04329F4
:103170002FD129463EF0E9FDBDF806604FF6FF73FA
:103180009E42ABD00236B6B23246294620461CE0FB
:10319000F02927D0F1292CD0E229A7E720460222E6
:1031A00029463EF0D2FD023498E720460322294604
:1031B0003EF0CBFD033491E7002A8FD01678FF2E26
:1031C0008CD00136F6B2324629463EF0BEFD34447C
:1031D00084E729463EF0B9FDBDF806309B00ADF806
:1031E0000630C9E72046082229463EF0AEFD0834E5
:1031F00074E7102229463EF0A8FD10346EE7000067
:103200002038C0B20D289ABF014B185C00207047CF
:10321000303B04002B2809D8282805D2202809D3C0
:10322000232801D9252805D1012070472D28FBD05E
:10323000E228F8E70020704770B51449D1F8E02A79
:103240000AB315780024AC4208D2D2F8013053F802
:1032500024301E78864202D00134F4E70023D1F8EE
:10326000E44A2CB125780022AA4203D319460B4622
:10327000184670BDD4F8011051F822100E7886421D
:10328000F5D00132F0E71346F2E700BF2C430020EF
:1032900070B51B2188B0044620F0A6FC1B22014615
:1032A00001A83EF052FD9DF810603046FFF7C4FFC4
:1032B0009DF81A30BDF813209DF8171005463046CA
:1032C000FFF718FD20B9204620F09AFA08B070BD2B
:1032D00007F076FC40B9D5F80330EBB9204604F08E
:1032E000BEF9024650B9F1E7BDF8130006F0BFFB86
:1032F00048B19DF812301B0705D47E2201A9204653
:1033000004F0A4FAE2E7BDF81310BDF8050006F0DA
:103310005FFB0028DFD1F0E7074BD3F88C3D33B9D2
:10332000D5F80330204698470028D7D0CEE701A82B
:1033300098470028D2D1F3E72C43002000F52D3325
:10334000F0B503F2A513104D03F00F0213462C46FF
:103350009F1C05EBC70696F8DCCABCF1000F07D12D
:1033600004EBC70383F8DC0AC3F8D81A0020F0BDC9
:10337000D6F8D86A002EF3D0013303F00F039A4237
:10338000E6D16FF01500F2E72C430020F8B500F508
:103390002D3303F2A513194903F00F020546134616
:1033A0000E469C1C01EBC40090F8DC7AAF421CD1A5
:1033B0001DF0A2FA28B1284620F09CFC08B12DF09F
:1033C000A1F806EBC405D5F8D80A58B1394625F05E
:1033D000A7FF0020C5F8D80A06EBC404002384F830
:1033E000DC3AF8BD6FF01B00F6E7013303F00F0382
:1033F0009A42D6D16FF01B00F3E700BF2C430020A8
:1034000037B50D46144619469DF81C30E8B14268A0
:10341000DAB13BB1C3785A0617D49B0702D488208F
:1034200003B030BD069A0388009220462A46FFF773
:10343000A5FB411C0BD0821D0BD0831CEFD010F1DB
:10344000280F14BF00207E20EAE78620E8E78720C7
:10345000E6E70020E4E7034648B3D0F8150028B3B8
:10346000B3F80130994224D0B1F5827F1FD06FF4B8
:1034700080728A18072A0DD94FF6FF72914211D136
:10348000B3F5827F15D04CF25E00834214BF00205A
:103490000120704701204CF25E02914204D1B3F545
:1034A000827FF3E70020F6E70028F8D1704700207C
:1034B00070470120FAE770B598B1057C0024AC4252
:1034C00002D30023184670BDD0F81130C4EB0416A7
:1034D00033441E888E4202D11E7A9642F2D00134C5
:1034E000EDE70346EEE700002DE9F04F87B0834695
:1034F0000D4616461F46109C01F004FE804600282B
:1035000000F08780002C00F084809DF844302A462B
:10351000CDE9004359463346FFF772FF0390A0BB45
:103520003B463246294658460094FFF757FB214652
:1035300098F80200D8F80490FFF714FD21460246DF
:1035400048463EF002FC98F80330590705D53B4643
:1035500032462946584605F031FE98F803301A07DE
:1035600013D54FF0000A2C4B5344D3F8E09AB9F12D
:10357000000F0AD04FF0000899F80030984508D3A2
:103580000AF1040ABAF1080FEDD1039807B0BDE8BB
:10359000F08F4FEA88030493D9F8013053F82800DC
:1035A00003785B4532D032462946FFF784FF002876
:1035B000E2D0394601F0A2FC02900028DCD0D9F814
:1035C0000130049A9B5829461878009432463B46AD
:1035D000FFF704FB029B5B680593029B21469878EA
:1035E000FFF7C0FC059B0246214618463EF0ADFBA6
:1035F000029BDB785B0709D5D9F80130049A98580B
:1036000029463B463246007805F0D8FD08F101080E
:10361000B2E701230393B8E72C4300202DE9F74FCD
:10362000002506468946934601930095264BEB18E4
:10363000D3F8E07A17B3002E43D03A7800239A42A9
:1036400003F1010403D84FEA840A06B313E0D7F864
:10365000011051F823301978B1422346EFD10026EA
:10366000F1E7012080B101994046FFF7F4FE58B11F
:1036700098F8003000930435082DD7D1009803B096
:10368000BDE8F08F5A4614E001340AF1040A3B7891
:10369000A342F0D9D7F80130BBF1030F53F80A80E9
:1036A000F0D1012249464046FFF705FF0028D8D156
:1036B000022249464046FFF7FEFE003018BF0120B7
:1036C000D0E73446BFE700BF2C43002037B51B21AD
:1036D000054620F089FA037BFF2B044630D1037D99
:1036E000B0F80F10002B08BF0122B0F8113018BF3E
:1036F00002220020FFF792FF28B9284603B0BDE858
:10370000304020F07DB8207300222946104820F078
:103710000EF80446D0B10F4B1B68002BEDD10DF015
:1037200031F801460028E8D104230093019440F2C7
:10373000525340F60F024FF0FF3026F0EBFBDCE770
:10374000284603B0BDE83040FFF7A2BD03B030BD4E
:10375000C13700004453002030B589B004461B2215
:10376000002101A83EF015FB01A9204603F028FD29
:1037700001A905460246204614F0C4FAB8B920460D
:1037800020F09EF8037813F0040F14BF05210321E5
:10379000204620F05FF91B21204620F025FA1B224D
:1037A00001A93EF0D2FA25B92046FFF78FFF09B0F4
:1037B00030BD2A4601A9204604F048F8F7E700008A
:1037C0002DE9F041CDB207461B21284620F00CFA26
:1037D00004462946384620F094F894F80C80124E9E
:1037E00025F05EFC3946B0FBF6F61048324625F06F
:1037F000BDFE237DB4F80F10002B0CBF0122022266
:10380000B4F811304046FFF709FF20B92846BDE85B
:10381000F0411FF0F5BF2073324629460448BDE849
:10382000F04125F0A3BE00BF7CF0C107913200003B
:10383000392D00002DE9F84F002481468A4627469D
:103840000E4BE318D3F8E06A9EB196F800B000255D
:10385000AB450BD9D6F8012052F82580494652468F
:103860004046FFF728FE38B198F800700434082C61
:10387000E6D13846BDE8F88F0135E9E72C43002052
:1038800013B50446B8B914481FF02CFF044680B1A4
:10389000124B1B686BB90CF075FF014648B9042345
:1038A00000930194402340F60F024FF0FF3026F0C2
:1038B00031FB02B010BD01212020FFF7BBFF014604
:1038C000204621B102B0BDE8104005F0E7B802B0D3
:1038D000BDE810401FF094BF813800004453002021
:1038E000F0B50E4E054600234FF6FF709A19D2F838
:1038F000E01A81B10F780022974209D9D1F801402E
:1039000054F8224094F800C0AC4505D1B4F8010049
:103910000433082BEAD1F0BD0132EDE72C4300203F
:1039200038B504460D46FFF7DBFF44B1B0F5827FA2
:1039300005D14FF657402B1A5842584138BD002048
:10394000FCE700002DE9F84F002482468846274610
:10395000104BE318D3F8E06A3EB196F800B00025AA
:103960005D4505D30434082CF2D13846BDE8F88F04
:10397000D6F8012052F82590514642464846FFF7B6
:103980009AFD10B1027A424501D00135E8E74F4671
:10399000E8E700BF2C43002038B51B2120F024F9B4
:1039A0000446007BFFF748FC257DB4F80F10002D7E
:1039B00014BF02220122FFF77EFD124B1B7A012B5E
:1039C00015D0227EA37D6AB1002B0CBF83238423F4
:1039D000A8B1012D0DD1027A12F0020F18BF0023F9
:1039E000184638BD002B0CBF81238223F0E78123CA
:1039F000EEE7002DF4D1027A12F0010FEEE7C323B7
:103A0000EEE700BF080D002007B5014602220DF1C8
:103A100006003EF09AF9BDF8060003B05DF804FB1D
:103A200007B5042201460DEB02003EF08EF9019825
:103A300003B05DF804FBF7B50191102116461F464F
:103A4000054620F0D1F80446284619F06FFD95236D
:103A5000032E23609DF8203008BF0199A37316BF81
:103A600001A90822022227716671A01D3EF06DF99E
:103A70002946099825F054FC03B0F0BD2DE9F04F1C
:103A800087B09A46BDF8443001939DF84C300293BC
:103A9000BDF8583003939DF85C309DF84080BDF828
:103AA000489004930D4617460446149E9DF854B062
:103AB0001FF006FF0378817813F0030F0CBF01237A
:103AC00000234A464046FFF715F988B956B15346D8
:103AD0003A4629462046CDE9108607B0BDE8F04FAA
:103AE000FFF7A9BF204607B0BDE8F04F1FF088BE22
:103AF0001821204620F078F81822002105903EF089
:103B000048F9059BDF732A681A606A685A60019A4F
:103B10001A81BBF1010F029A83F80CA083F80D8083
:103B2000A3F80A909A7305D1039A5A82049A1A75D7
:103B300083F811B0012F06D029884FF6F772914211
:103B40009CBF04221A7431462046FFF7F7FB002879
:103B5000BDD101202CF07EFC0348214607B0BDE812
:103B6000F04F25F0DDBB00BF513F0100A1F5E06340
:103B70000B2B04D9A1F5006358425841704701202E
:103B8000704700002DE9F04F8DB08B460893182147
:103B9000BDF8583007939246064620F025F80446B3
:103BA00030461FF08DFE237B0693637B05930378DD
:103BB000B4F80A808178E77B13F0030F81460CBFCD
:103BC0000123002342460598FFF794F80546B0B953
:103BD000BAF1000F0DD0059B0093CDF804A0069B11
:103BE0003A4621463046FFF726FF28460DB0BDE88D
:103BF000F08F30461FF004FE6FF00705F5E74146F1
:103C00002089FFF7B3FF0546BBF1000F17D05946D7
:103C100030461FF0FCFE099030461FF05BFE099B0A
:103C200083420CD9594630461FF0F1FE8346304698
:103C30001FF050FEABEB000130461FF0E5FF012FF7
:103C400011D0E37B022B04D122884FF6F7739A42FE
:103C500009D8404605F0F0FE28B1089B1BB9237C2B
:103C600043F0040323741DB1237C43F00803237441
:103C70000EF0FAF80546002862D106F0A1FF0028F0
:103C80005ED0404605F0F3FE002859D008222946B0
:103C90000AA83EF07EF8022F3BD0032F43D0002F1E
:103CA0000CBF00256FF0270506F08AFF002840D0E2
:103CB000002F3ED04DB90AA80EF000F928B102211C
:103CC0000AA82DF0BFF9002836D15D4B1B6873B9E7
:103CD0000CF058FD014650B90423009340F60F0341
:103CE000CDF804801A464FF0FF3026F013F96FF03C
:103CF0002705BAF1000F3FF478AF059B0093CDF88C
:103D000004A0069B3A4621463046FFF794FE002564
:103D10006BE70AA920881FF06FF9002814BF6FF025
:103D200027050025C0E7082221460AA83EF00DF825
:103D3000BAE7002DC9D1C2E7237C43F00103237405
:103D400041460598FFF7ECFD68B1082200210AA85A
:103D50003EF01FF8022F1ED0032F52D03FBB237C12
:103D600043F00103237451463046FFF7E7FA054656
:103D70000028BED130461FF0A3FD0378DB0602D435
:103D800001202CF067FB079B002B53D131462D48B7
:103D900025F0C6FA29E70AA920881FF02DF9054663
:103DA00030B902210AA82DF04DF90028D7D10025FD
:103DB000234BD3F800B099F802300B2B27D199F898
:103DC00000305A0723D199F80430012B1FD1BBF1E1
:103DD000000F12D10CF0D6FC014670B9CDF8088066
:103DE00099F8033001930823009340F60F0240F640
:103DF00057034FF0FF3026F08DF8002D7FF479AF98
:103E0000B1E7082221460AA83DF09FFFC9E7BBF1B0
:103E1000000F7FF46CAF0CF0B5FC00287FF467AFA7
:103E200004230093CDF8048040F65E0340F60F02B1
:103E3000594658E7079A0348314625F097FBD4E6E0
:103E400044530020513F01002DE9F74F1D469DF8D6
:103E5000303001930F46109B00931821934606467D
:103E60009DF834A0BDF83890BDF83C801FF0BCFE32
:103E70001822044600213DF08CFF032D0CBF0822C0
:103E800002225946E57320463DF05FFF019B009AF0
:103E9000237339460023304684F80DA0A4F8089017
:103EA000A4F80A800C9303B0BDE8F04FFFF76ABE98
:103EB0002DE9F04F87B01D469DF840300593CDE9C0
:103EC0000101149B0493182103929DF844B0BDF89E
:103ED00048A0BDF84C909DF854809DF85860BDF8FE
:103EE0005C701FF081FE1822044600213DF051FF56
:103EF000032D0CBF082202220399E57320463DF0F2
:103F000024FFDDE90101059B049A2373334684F8FD
:103F10000DB0A4F808A0A4F80A9084F810801097B7
:103F200007B0BDE8F04FFFF72DBE00002DE9F041CE
:103F3000069D0E4690461F461FF04EFD094B00F8A9
:103F4000016B93F8D84A621C83F8D82A730702D50C
:103F5000414625F0CCF804704770023005B12C7052
:103F6000BDE8F0812C43002000487047044E00203B
:103F700000487047080D002002289DBF024B1870B2
:103F800000206FF005007047080D0020014B187AE3
:103F9000704700BF080D002001289DBF024B18721A
:103FA00000206FF005007047080D0020134B1B78B0
:103FB0001BB391280ED890281AD28A281CD005D875
:103FC000A0F18103032B98BF812070478F2808BF81
:103FD0007E207047C12806D8C02809D2922809D06F
:103FE000932805D07047C22804D0C42804D0704755
:103FF000012070477F20704700207047080D002087
:1040000010F1170F12D009DC10F11F0F10D0094B5F
:104010001B7A012B0CBF0120C02004E010F10A0F15
:1040200002D00028F3D17047852070478720704761
:1040300081207047080D00202DE9F041064658B94F
:104040000024FF25FFF790FF43681878A8428CBF33
:104050002046FF20BDE8F081FFF786FF4368002B74
:10406000EED00024254610E096F80080FFF77CFF94
:104070004368D3F8013053F825301B7843454FEAA5
:10408000850709D01934E4B20135FFF76DFF4368A5
:104090001B78AB42E8D8D5E7FFF766FF4368D3F853
:1040A0000130DB59D3F81F00024B301A03FB0044E8
:1040B000E4B2C7E7B76DDBB6FF2838B5044601D1D7
:1040C000002038BDFFF750FF4368002BF8D00025D3
:1040D00004E0182C09D9193CE4B20135FFF744FF7C
:1040E00043681B789D42F4D3EAE7FFF73DFF43683E
:1040F000D3F8013053F82530D3F81F00C4EBC404C3
:104100002044DEE74288C3889A4201D9438002E016
:1041100083889A42FAD370472DE9F34706460F4643
:1041200015462AB91FF0BEFA07463046FFF7EAFFE8
:10413000242138461FF058FD002D18BF06460446BE
:104140007389002B00F0B880B04203D018223146AA
:104150003DF0FBFD96F8089071883088B9F1010FA9
:1041600024D18842B57996F804C0C2B2CBB215D238
:104170001544A5EB0C05ED1AEDB2002D00F09A8068
:1041800073894FF6FF72934201D0012B1AD101239C
:10419000A3832383384602B0BDE8F0871D44AD1ADF
:1041A000A5EB0C05EDB24FF00009E6E70D1A002D66
:1041B000B8BF6D428842EDB294BF4FF000094FF096
:1041C0000109DAE74FF0060A0AFB03FA0023E3834A
:1041D0003A4B1A68554534BFA583A4F81CA09846ED
:1041E00072B90CF0CFFA014650B9A38B01930423A6
:1041F00000934FF40162E2234FF0FF3025F08AFE76
:10420000A38B012B88BFBAFBF3FAD8F80030A4F8CF
:1042100018A073B90CF0B6FA014650B9238B01937C
:10422000042300934FF40162EF234FF0FF3025F099
:1042300071FEA38B012B88BF95FBF3F5D8F80030F6
:1042400065837BB90CF09EFA014658B9B4F91A306F
:104250000193042300934FF40162FB234FF0FF30DE
:1042600025F058FEB9F1000F02D0638B5B426383E7
:104270000CF0FAFC4FF470535843114BB0FBF3F0C1
:1042800073891844D8F800302062002B82D10CF0DA
:1042900079FA014600287FF47DAF236A0193042355
:1042A00000934FF4016240F20B134FF0FF3025F002
:1042B00031FE6FE7A5836DE71F466BE7445300208F
:1042C000A086010000221146FFF726BFF8B505467B
:1042D000FFF74AFE4368002B00F093802846FFF763
:1042E000EBFE0646002800F08C80242140791FF068
:1042F0007BFC04460CF0B8FC62894FF6FF739A42CF
:1043000024D0012A22D0216A4FF470535843424BE3
:10431000B0FBF3F04B1C984237D21318278B4FF0A9
:10432000060CB7FBFCFCA3EB0C03994234BF5B1AF1
:10433000CB1A012B12D9884234BF081A401A608167
:104340000020E08301227179FFF7E6FEA08B0028B0
:1043500058D001281CD16388238032E00620E18BED
:10436000B7FBF0F300FB13739BB29942A2EB0C0274
:1043700092B238BF091862813EBFE18302F1FF3279
:104380006281E28BD31AE383E0E70123A383DDE7B5
:10439000B4F91A202388E1881344A288934208DBE9
:1043A0008B42D9DD5B1A002BB8BF5B42013A134444
:1043B000D2E7D21A002A01F10101B8BF52428A1A8B
:1043C0002280E3683BB1012888BF6289307898BFBA
:1043D000002221469847A38B012B13D9238B0F482A
:1043E0004FF47A5143F6FF3201FB03234FF470522E
:1043F0002946B3FBF2F225F0B9F8A38B0BB1013BD0
:10440000A383F8BD3178606924F08AFF0023B3717B
:1044100070791FF0F5F9F0E7A0860100CD420000A9
:104420002DE9F84F804689469246FFF79DFD436887
:10443000FF26002B3ED13046BDE8F88FFFF794FDF4
:104440004368D3F8013053F825301B7843454FEAD1
:10445000850B24D1FFF788FD4368D3F8013053F86A
:104460002530D3F81F400027FFF77EFD4368D3F8BF
:10447000013053F80B309B7F9F4210D22378434585
:1044800015D1B4F801304B4511D1B4F80330534580
:104490000DD1A3795BB12046FFF7CEFD064601356D
:1044A000FFF762FD43681B789D42C7D3C3E707341B
:1044B0000137D9E70025F3E770B50546FFF754FD4E
:1044C000436813B90025284670BD2846FFF7F4FD60
:1044D00004460028F6D08379002BF3D00022294629
:1044E000074825F00BFA6679242130461FF07CFB43
:1044F000057C30461FF084F90023A371E3E700BF79
:10450000CD4200002DE9F04F89B089460793059010
:104510009246FFF729FD4368002B40F0A280FF2759
:10452000F8B209B0BDE8F08FFFF71EFDAB000693AF
:104530004368D3F8013053F8253093F800B0059B59
:104540009B451ED1FFF710FD4368D3F8013053F8A7
:104550002530D3F81F40E4B9444B1B688BB90CF0ED
:1045600011F9014668B9059B01930C230093CDE92D
:10457000029A40F29F234FF401624FF0FF3025F082
:10458000C9FC0135FFF7F0FC43681B78AB42CBD880
:10459000C6E7524649460598FFF742FFFF28804686
:1045A00042D0FFF789FF4046FFF786FD0446002E04
:1045B000E7D0079B63714FF0010384F800B0A4F8C3
:1045C0000190A4F803A0A371242107981FF00CFB0D
:1045D000828B1FFA88F752B3012A2FD04146244814
:1045E00024F09EFE28E0FFF7BFFC4268069BD2F84D
:1045F0000120D258927F08F10108424503D90734BF
:10460000A279002AEFD1FFF7AFFC4268069BD2F8EF
:104610000120D258927F424521D984F800B020462B
:10462000FFF70AFD8046C2E74FF00008E8E70222E4
:1046300041460F4824F09AFF0126A2E744894FF62D
:10464000FF718C4218BF028B43F6FF314FF47A5052
:1046500000FB02124FF47051B2FBF1F2E8E70026C2
:104660008FE70126FF2700258CE700BF4453002079
:10467000CD4200002DE9F04788B08146ADF81E100C
:104680001FF0AAF9082303700446FFF76DFC0378B6
:10469000DFF8B0A05A1C027063700A23A370284B85
:1046A0001F7803349846052F36D801223AF8173080
:1046B0001146C42000F026FD064618B301214CF235
:1046C0005D20FFF753FA2146F0B148461FF09FF9ED
:1046D000C0F5CA60013085B27168B078FEF742FC5F
:1046E0000330854216D33188204624F000FDB3788C
:1046F00000F8013B7268B178FEF7E0FC0023044645
:1047000088F800300137CEE748461FF080F9C0F145
:104710005200E0E788F8007001230022CDE903325F
:104720004CF25D21C423CDE9013100930DF11E024D
:10473000022321464846FFF787FB08B0BDE8F08713
:10474000150D00203E3B0400064B1B7802462BB1A2
:10475000032B03D04FF6FC71FFF78CBF10461FF000
:104760004FB800BF160D002038B5054620B92148C6
:10477000BDE838401EF0B6BF1F4C227892B3032A22
:1047800030D0012208231146C42000F0BBFC43684E
:1047900019884FF6FF739942284620D1FFF7D4FFBE
:1047A00000221146134825F0A9F82378022B20D1C6
:1047B00001231A461946C42000F0A4FCB0B1436896
:1047C00018880F3880B224F055FC0F3080B2422296
:1047D000424300210748BDE8384024F0C7BEFFF738
:1047E00049FFDDE728461FF00BF8D9E74FF4967034
:1047F000E7E738BD69470000160D0020F7B50E4603
:104800000446214D40B92A7822B901231F482B7054
:104810001EF08DFF03B0F0BDFFF7A6FBD0F89C3073
:104820005BB302AF3421204607F8046D1FF0DCF9BA
:10483000342200213DF0ADFA342120461FF0D4F996
:1048400065230370342120461FF0CEF90026466010
:10485000342120461FF0C8F93421866020461FF01D
:10486000C3F93421C76020461FF0BEF90661FFF787
:104870007BFBD0F89C3020469847002320462B70C5
:104880001EF0BEFFC6E700BF170D0020FD47000069
:1048900010B510B90F4B187010BD0128FCD10E4B8C
:1048A00019780129F8D10B4C2278012A09D80B4834
:1048B0001EF018FF0A481EF015FF237801332370FD
:1048C000EAE7032200201A702070BDE81040FFF7CD
:1048D00095BF00BF140D0020160D002029490000CF
:1048E00049470000002208B511460D4825F006F89A
:1048F0000C4B1B78022B12D101221146C42000F070
:1049000001FC48B143681B88054842225A430021F4
:10491000BDE8084024F02ABE4FF49673F4E708BDC2
:1049200029490000160D0020F0B5044689B020B9D1
:1049300020481EF0D7FE09B0F0BD1F4B1B78ABB36B
:10494000032B33D01AF044FB08AE002726F8020DE3
:1049500020461FF041F807700546FFF705FB037876
:104960005A1C027008216B70AF70E81C24F0BFFB6A
:10497000092124F0BCFB0A2124F0B9FB01254CF2EB
:104980005D23CDE90235C4230146CDE9003332462B
:10499000049702232046FFF757FA40F2BC722946DB
:1049A000064824F0E3FDFFF79DFFC4E720461EF014
:1049B00027FFF8E729490000160D00209148000064
:1049C0002DE9F34100220546FF21344824F096FFEB
:1049D00025F0EEFC20B1324E33780BB1032B05D11C
:1049E000284602B0BDE8F0411EF00ABF4FF00008B3
:1049F00028461EF06FFF02283CD928461EF060FFB3
:104A00000446002836D08078FFF7D0FAA07010BB9B
:104A1000211DE078FEF7A6FA0430C7B228461EF042
:104A200059FF28461EF056FF874223D839462846AC
:104A30001FF010F8A278002ADAD12388082B0CD1B5
:104A400001920434012200941146C420FEF74CFD6B
:104A50004FF00108CCE70327E3E7092BF0D00A2B3E
:104A6000C6D101920434012200941146C420FEF7FD
:104A70003BFDBDE7B8F1000FB2D00A4B0021197021
:104A80003378012BACD1022340F2DE32064833707A
:104A900024F06CFDFFF726FFA2E700BF914800005D
:104AA000160D0020140D00206947000038B505469A
:104AB0001EF006FF90F84B30044653B901462322FE
:104AC00010483DF042F9282204F123010E483DF040
:104AD0003CF90C4CD4F84B0070B194F84F1024F012
:104AE0001FFC002384F84F3084F84B3084F84C309E
:104AF00084F84D3084F84E302846BDE838401EF02A
:104B00007FBE00BF8C410020AF41002070B5094C32
:104B1000D4F84B3005460E464BB98F21064828F095
:104B200057FF18B9C4F84B6084F84F5070BD6FF050
:104B30000300FBE78C410020AD4A00002DE9F04F57
:104B40001B218BB083461FF04FF8044690F813905A
:104B500058461EF0B5FEB9F1150F827814BF1B231D
:104B600014239A4288BF83708246FFF7FDF940788C
:104B70001EF032FF237E002B237D0CBF0022042277
:104B8000002B14BF0023082342F0100205461343F4
:104B900005F8013B237E2BB12846B4F8191024F008
:104BA000A6FA0546637D2B70B9F1150F14BF0D23CE
:104BB00016236B70207BFEF73FFB237DB4F80F10AC
:104BC000002B14BF02220122FEF775FC0027436868
:104BD000AF7041880246EE1C00296CD10AA94FF63D
:104BE000FD73304621F8023D02223DF0AEF821234C
:104BF000B9F1150F6B714FF0010312BFAE1DAB7110
:104C0000EE1DAB70FFF7B0F9002340780493B4F8C1
:104C10000F300393B4F811300293237B0193E37AAE
:104C20000093621C02233146FFF70EF9FFF79CF94F
:104C300080F801B00BB0BDE8F08F1888BAF800C05A
:104C400081B28C4535D8000433D4B9F1150F19D190
:104C500094F818C001F48040BCF1000F10D088B95E
:104C600001375188F8B20139814203D99AF802C05C
:104C7000C445E2D881428CBF00210121A970C1E75F
:104C80000028EDD13046CDE9063224F030FA069BFB
:104C9000079A99780170B9F1150F08BFD97808F112
:104CA000010809BF01F00301461C4170861C5FFA30
:104CB00088F80833D4E7B846D3E72DE9F0478046B3
:104CC0000E4691461EF0F2FC0546002851D04A4699
:104CD00031884046FDF794FFFFF746F9D0F89C3045
:104CE000002B41D0342128461EF07EFF7168044617
:104CF000B078FEF737F9B378482B074603D027D8AA
:104D0000413B022B28D8394628461EF02BFE342181
:104D1000824628461EF068FF04463A4649465046F9
:104D20003DF013F82773C4F810A00023237098F8FF
:104D30000C306370B378A370B8F80F3023813388D8
:104D40006381FFF711F9D0F89C30284698470BE0B3
:104D50004A2BD8D0F12BD6D03A46494604F10C0064
:104D60003CF0F3FF002CE0D12846BDE8F0471EF0F0
:104D700047BDBDE8F087000010B507490446FFF7BE
:104D8000C5FE043006D1214600220448BDE810408B
:104D900024F0ECBB10BD00BF1F4F0000794D000098
:104DA00070B50C46272C054611461E4623D050D818
:104DB0001A2C3FD029D80D2C00F09A8014D80A2C38
:104DC00038D006D8082C00F08980092C76D02846E7
:104DD00070BD0B2C00F086800C2CF8D128460522E3
:104DE0003CF0B3FF0535F2E7102C77D009D80E2C34
:104DF00029D00F2CEBD1284608223CF0A6FF08351D
:104E0000E5E7182C6AD0192CE0E7202C66D00AD8E8
:104E10001D2C6DD003D81B2C64D01C2CDDE71E2C60
:104E200011D01F2CE6E7232C5CD009D8212C45D0CB
:104E3000222CCCD1284603223CF087FF0335C6E75D
:104E4000252C55D0CAD9284607223CF07EFF0735CD
:104E5000BDE7392C46D018D82D2C49D00AD82A2C99
:104E6000E8D003D8282C39D0292CAFE72B2C39D007
:104E70002C2CB2E7302C31D003D82E2CE3D02F2CA1
:104E8000B8E7312C1AD0382CA0E7E22C11D8E02C4E
:104E900028D2432C03D8412C05D23A2CAAE7482C1F
:104EA00001D04A2C93D1284632463CF04EFF35447F
:104EB0008DE7EA2C16D007D8E82C88D328460222A2
:104EC0003CF043FF023582E7F02C94D0F12C7FF4C4
:104ED0007EAF10223CF039FF103578E70B7805F8EB
:104EE000013B74E7284604223CF02FFF04356EE7AF
:104EF000284606223CF029FF063568E710B54368CE
:104F000000220BB9184610BD1C888C42FAD0448888
:104F10000132944203F10803F3D80023F2E72DE9AC
:104F2000F04F1B218FB007461EF05EFE437B054607
:104F3000C3F34013007B0893FEF77EF92B7DB5F891
:104F40000F10002B0CBF01220222FEF7B4FA0990C9
:104F5000FFF70AF840781EF03FFD2B7E002B2B7DDB
:104F600014BF04220022002B0CBF0823002342F0B0
:104F70001002134300F8013B2B7E1BB1B5F819104A
:104F800024F0B5F86B7D037001234370841C384610
:104F90001EF096FC824638461EF09CFC43080A939D
:104FA0004FF000080A9B5FFA88F1994252D2022220
:104FB0000AEB41010DF136003CF0C7FEBDF836109A
:104FC0000998FFF79BFFB5F80F100646B5F81100DA
:104FD000FEF7CCFD08B3FEF7C7FF214640781EF070
:104FE00016FDC0F5CA6909F10109FEB9BDF8361010
:104FF0004FF6FD73994262D10DF13601022220462F
:105000003CF0A3FE2123A670E3700121201D24F0B3
:105010006EF8044608F10108C4E7FEF7A5FF214633
:1050200040781EF0F4FCC0F15209DEE771680029F7
:1050300045D0F37813F0400B41D1DA0728D49B0711
:105040003FD5FEF7A3FF01280CBF7E268F26B9F1BE
:10505000020F3AD8FEF788FF089A40780023CDE97E
:105060000432CDE90633B5F80F300393B5F81130AB
:1050700002932B7B0193EB7A00936A1C0223214657
:10508000FEF716FFFEF770FF47700FB0BDE8F08F18
:10509000B078FDF767FF011D894514D30B90318867
:1050A000204624F024F880F800B0B2780B9B4270C0
:1050B0009BB27268B1780230FFF772FEA9E78626CC
:1050C000C5E70126C3E78926C1E72046BDF83610AB
:1050D00024F00DF8044604F8016B9BE710B51B2182
:1050E00004461EF081FDB0F80F2040F605339A42C9
:1050F000204603D1BDE81040FFF73EBEBDE810409A
:10510000FFF70DBF70B50D4616461C46FEF794F826
:1051100029463246FEF7CFF92146BDE87040FFF739
:10512000EDBE2DE9F04F1B218FB081461EF05CFDD6
:105130000446007BFEF780F8237DB4F80F10002BA7
:105140000CBF01220222FEF7B6F9E37C0D90052B7D
:1051500077D0FEF709FF40781EF03EFC237E002B3F
:10516000237D14BF04220022002B0CBF0823002340
:1051700042F01002134300F8013B237E1BB1B4F848
:10518000191023F0B4FF637D037004234370851C62
:1051900048461EF095FB074648461EF09BFB002341
:1051A0000B9301230A9009939DF82C300C930A9BD2
:1051B000032B54D9002F56D0F91CB878FDF7D2FE36
:1051C00003305FFA80FB3E460A9B9B4500F2F78066
:1051D000002E00F0F480B6F800A00D985146FFF7BD
:1051E0008DFE8046002840D14FF6FD739A4514BFCE
:1051F0004FF0860A4FF0880AE37C052B1ED015B3CA
:10520000B4F80F10B4F81100FEF7B0FC002868D015
:10521000FEF7AAFE294640781EF0F9FBC0F5CA60E9
:105220000130022894BF00200120B0B1284602229C
:1052300000F801AB31463CF088FD033500230993AB
:1052400002E00025A4E709950A9BA3EB0B030A9350
:105250000B9B01335F440B93A6E70990F4E700260C
:105260004FF0FF0BB0E73E46FAE74368002B32D021
:105270008278B3789A4231D1237DB4F80F20217B14
:10528000002B06F103030C934FF00103019306F189
:10529000030300930CBF01230223FEF7B1F88246FB
:1052A0000028A9D1E37C032BCED0237DB4F80F10C6
:1052B000207B0022002BB8F8003001920C9A00925B
:1052C0000CBF01220222FEF70FF90C9A414620463C
:1052D000FFF7F3FCB8E74FF0860A8DE74FF08D0A31
:1052E0008AE7FEF741FE294640781EF090FBC0F1A8
:1052F000520096E700264FF0FF0B7BE03E46FAE7B0
:10530000E37C052B55D0099B2BB115B30C9B03B344
:10531000002305F8013BB9F1000F43D0FEF724FE4E
:1053200000234078CDE90633627BC2F34012CDE919
:105330000432B4F80F300393B4F811300293237B96
:105340000193E37A0093621C02232946FEF7B0FD25
:1053500028E0FEF709FE40781EF03EFB237D002B7F
:105360000CBF182310230370637D43700B238370DD
:10537000E37CC370802303710546FEF7F5FD00262C
:1053800040780496B4F80F300393B4F811300293C8
:10539000237B0193E37A0093621C0223691DFEF7CD
:1053A00053FDB146FEF7E0FD80F801900FB0BDE877
:1053B000F08F48460FB0BDE8F04F1EF021BAE37CF5
:1053C000032B9DD1099B002B9AD048461EF078FAFA
:1053D000074648461EF07EFA8046B8F1030F89D989
:1053E000002F8BD0F91CB878FDF7BCFD03305FFAB5
:1053F00080FB3E46C34583D8002E81D036F8031B80
:105400000D98FFF77BFD227DB4F80F108246002A2D
:105410004FF00002207BBAF80030CDE900620CBFEB
:1054200001220222FEF760F83246514620465F44D0
:10543000A8EB0B08FFF741FCCFE700002DE9F04F88
:105440001B2189B080461EF0CFFB0546FEF78CFD80
:1054500040781EF0C1FA2B7E002B14BF1C231823AA
:1054600000F8013B2B7E1BB1B5F8191023F03FFE6D
:105470006B7D037009234370841C287BFDF7DCFEE1
:105480002B7D0690002B0CBF01220222B5F80F10D5
:10549000FEF711F8834640461EF01CFA022840F23F
:1054A000C08040461EF00CFA002800F0BA8090F848
:1054B00000A0B0F80190032140461EF0CBFAB5F8E9
:1054C0000F10B5F81100FEF751FB00283CD0FEF795
:1054D0004BFD214640781EF09AFAC0F5CA600130B3
:1054E00086B2032E40F29D8049465846FFF706FDDE
:1054F0000746002800F08A804368002B00F0868071
:10550000C3785B0740F1898006989BF80820BBF8B8
:10551000001000784B4603F041FD079000287ED034
:10552000092E7ED90022227084F801A0A01C4946D1
:1055300023F0DDFD079B0446BAF1000F0DD0BAF150
:10554000010FA8D1198A3DE0FEF70EFD21464078F3
:105550001EF05DFAC0F15200C2E7BA7800F8012BE4
:105560005A8A198A079323F0CEFD0446B878FDF7CE
:1055700051FE00288FD0BA78079B203A0B2A8AD890
:1055800001A151F822F000BFB9550000C15500003B
:10559000DD550000ED55000097540000FD5500005A
:1055A0009754000097540000B9550000CD550000F5
:1055B000DD550000ED5500001B7D04F8013B6AE756
:1055C000998A204623F093FD044664E72046022290
:1055D00003F114013CF0B9FB02345CE720460322DE
:1055E00003F114013CF0B1FB033454E720460422DC
:1055F00003F114013CF0A9FB04344CE720460622D9
:1056000003F114013CF0A1FB063444E78623237028
:1056100084F801A04946A01CD4E78C23F7E78B232C
:10562000F5E7FEF7A1FC002340780493B5F80F30AE
:105630000393B5F8113002932B7B0193EB7A00931F
:105640006A1C02232146FEF7FFFBFEF78DFC80F863
:10565000018009B0BDE8F08F2DE9F04F1B218DB01E
:1056600080461EF0C1FA0446007BFDF7E5FD237D70
:10567000B4F80F10002B0CBF01220222FDF71BFF14
:105680000690FEF771FC40781EF0A6F9237E002BF1
:1056900014BF1C23182300F8013B237E1BB1B4F870
:1056A000191023F024FD637D037000270723DFF822
:1056B000E4B14370851CB94640461EF00BF904283E
:1056C00044D800264FF0FF0A40461EF003F98245F9
:1056D00000F2B980514640461EF0BCF9002E00F0A1
:1056E000B280B6F80130069807931946FFF706FC1A
:1056F000327809F10109002A5AD1079B002842D1CA
:105700004FF6FD77BB4214BF86278C27B4F80F10E5
:10571000B4F81100FEF72AFA002800F08B80FEF79B
:1057200023FC294640781EF072F9C0F5CA600130AA
:1057300080B2032808D92F7033786B70A81CB6F894
:10574000011023F0D4FC05460127B5E740461EF0C2
:10575000B7F806460028B4D00378012B0DD0C078E6
:10576000FDF758FD60B1F078FDF74AFD08305FFAAB
:1057700080FA40461EF0AEF8A6E74FF0050AA3E710
:105780004FF0080AA0E74368002B4BD08378412BE9
:1057900048D003F0FD02482A44D0C278520743D5CE
:1057A000F2789A4242D1F38813B1B2889A423FD834
:1057B000237B8DF82430227CE37B43EA0223ADF87F
:1057C0002A30E37A8DF82530B4F80130ADF8263070
:1057D000637CA27C43EA0223ADF82830237D002BB2
:1057E0000CBF0123022309A930468DF82C3003F0A9
:1057F0009FFE00283FF460AFDBF8002082B90790DD
:105800000AF0C0FF079B014650B90193042300939F
:1058100040F6120240F2D4434FF0FF3024F07AFBFE
:10582000012773E7862771E78C276FE78D276DE7E0
:1058300087276BE7FEF798FB294640781EF0E7F8CC
:10584000C0F1520074E7B9F1000F1DD1802305F8B3
:10585000013BFEF789FB002340780493B4F80F3036
:105860000393B4F811300293237B0193E37A0093FE
:10587000621C02232946FEF7E7FAFEF775FB80F863
:1058800001800DB0BDE8F08F002FE2D105F8017B5B
:10589000DFE700BF445300202DE9F04F8A46C3885C
:1058A0000279418889B005464078FFF72BFC90F8D3
:1058B000039050461EF090F809F02006C9F34019F5
:1058C0004FEA890343F0080304460370002E69D0B1
:1058D0006878FDF7B1FC2A796988FDF7ECFDB0F82E
:1058E0000910601C23F003FC0446FEF73DFB03781F
:1058F0005A1C027023700A23637002342E4640F251
:10590000516BF388327971887078FFF7FBFB7188EF
:105910000746B08DFEF72AF9214600284CD05046A4
:105920001EF075F8ABEB00001FFA80F87968B878C4
:10593000FDF718FBC21C904507901ED339882046FE
:1059400023F0D5FBBA7800F8012B079B7A68B97869
:105950009BB2FFF725FA39460446304603F0F5FBC3
:10596000337A23F0160343F0200333724946284666
:1059700003F067FB06460028C3D1124B04936B88E3
:105980000393AB8D02936B78019395F82A300093C3
:1059900005F12802002321465046FEF755FA09B0CA
:1059A000BDE8F08FFEF7E0FA03785A1C02706370CE
:1059B0000A23A3700334A1E750461EF028F8C0F173
:1059C0005200B1E76D9600002DE9F0438FB000233F
:1059D0000F461B21069304461EF006F91B220146C2
:1059E00007A83CF0B2F920461DF074FF022807D04A
:1059F000852207A9204601F05AFE0FB0BDE8F083CA
:105A000020461DF05DFF9DF8343006784578002B68
:105A100060D0FEF7A9FAD0F8F030002B46D14FF055
:105A20000008512D204628BF51251DF0D5FF9DF8B7
:105A30003430002B9DF8303014BF04220022002B9C
:105A40000CBF0823002342F01002134300F8013B6F
:105A50009DF834301BB1BDF8351023F048FB9DF89C
:105A600031300370002F14BF12231423437000231E
:105A70008370C11C1A46DFB2B84500F2888001234A
:105A8000837000230493BDF82B300393BDF82D30B1
:105A900002939DF8283001939DF8273000930DF173
:105AA0001D0202232046FEF7CFF9A6E7FEF75CFAB7
:105AB0000DF1180ECDE9007E9DF830C0D0F8F080D1
:105AC000BDF83530BDF82B209DF828106046C04742
:105AD0008046A6E79DF828009DF83080BDF82B9001
:105AE000FDF7AAFB00289AD0B8F1000F0CBF0122E5
:105AF00002224946FDF7DFFC002890D0B8F1000FE4
:105B00002CD1037A03F00103002B88D09DF83030AC
:105B1000BDF82B109DF82800002B0CBF012202229B
:105B200001F048FD034600283FF479AFFF20984775
:105B300000283FF474AFCFB1FEF716FAD0F8583210
:105B400093F80080FEF710FAD0F858325B6806939D
:105B5000FEF70AFA0023C0F8583262E7B8F1010FE5
:105B60007FF45DAF037AC3F34003CDE7FEF7FCF9A2
:105B7000D0F8583293F80880FEF7F6F9D0F858328A
:105B8000DB680693FEF7F0F9C0F8587249E7069F04
:105B9000FF5CBE4206D80132D2B2954201F8017BC9
:105BA0007FF66FAF013366E737B51B2105461EF060
:105BB0001BF8C37C0446162B64D8DFE803F00C12F4
:105BC0003A3A293A422946663E4E4A666363635C26
:105BD0006661664A66002846FFF780FA012003B036
:105BE00030BD324BD3F8903DB3B9B4F80F300A2B27
:105BF00004D1284604F01EFF0028EFD11B212846BF
:105C00001DF0F2FFB0F811204CF25D239A4208D04B
:105C100028461DF0F5FDE1E7284698470028E4D026
:105C2000DCE7B0F80F40012CF2D12846FEF7C8FEA1
:105C3000D4E72846FFF775FAD0E7284603F068FD59
:105C4000CCE72846FFF708FDC8E72846FFF7F6FB34
:105C5000C4E72846FEF772FFC0E71B2128461DF067
:105C6000C3FFB0F80F30192BD2D1284601F0E1FC68
:105C70000028B3D1CCE701212846FFF7A5FEADE708
:105C80000021F9E70A4B1B680BB10020A7E70AF0D7
:105C900079FD0028F9D1009001464FF4E46340F605
:105CA00012024FF0FF3024F035F9EEE72C430020CC
:105CB0004453002000207047054B984206D030B175
:105CC000093B98420CBF8920012070478B20704708
:105CD0005BFBFFFF7047F0B587B00C4617461E46CA
:105CE00005461DF079FE19230370637D437003237D
:105CF0008370C7703146043023F0F9F90023049310
:105D0000B4F80F300393B4F811300293237B01935E
:105D1000E37A009301460223621C2846FEF794F8BA
:105D200007B0F0BD10B588B004461DF0C9FD1B22B8
:105D3000014601A83CF009F8082120461DF054FF57
:105D400002464068FFF7B8FF01A9138802462046C3
:105D5000FFF7C1FF08B010BD70B58EB004461DF04E
:105D6000AFFD1B22014607A83BF0EFFF08212046AC
:105D70001DF03AFF4068FFF79FFF8B2814BF0646CF
:105D8000002620461DF028FE192303709DF83130AF
:105D90004370032383709DF83350204615BB1DF0DC
:105DA0001BFE182303709DF8313043700B23837062
:105DB0009DF82F30C3700671BDF82B300393BDF8EA
:105DC0002D3002939DF8283001939DF827300093E1
:105DD000411D049502230DF11D022046FEF734F803
:105DE0000EB070BD1DF00CFDFAE72DE9F04186B054
:105DF0000C4690461F4606461DF0EEFD1923037023
:105E0000637D43700025857080F803803946043037
:105E100023F06DF9B4F80F300393B4F81130029306
:105E2000237B0193E37A0093014604950223621CCD
:105E30003046FEF709F806B0BDE8F08110B588B02D
:105E400004461DF03DFD1B22014601A83BF07DFFED
:105E5000082120461DF0C8FE02464068FFF72CFFCF
:105E600001A9138802462046FFF7BFFF08B010BD06
:105E700070B51646B1F809204FF6F7739A4286B00E
:105E800005460C462FD84B7B13F00C0F2BD1CB7D46
:105E900003B146B3A37D13B1E37C0B2B23D023784E
:105EA000013B012B1FD928461DF096FD18230370D6
:105EB000637D43700B238370E37CC3700671002302
:105EC0000493B4F80F300393B4F811300293237B9A
:105ED0000193E37A0093411D0223621C2846FDF7DB
:105EE000B3FF06B070BD284606B0BDE870401DF097
:105EF00087BC10B588B004461DF0E2FC1B220146A9
:105F000001A83BF022FF082120461DF06DFE4068ED
:105F1000FFF7D2FE01A902462046FFF7A9FF08B00D
:105F200010BD000030B50D468BB01B2104461DF09E
:105F30005BFE1B22014603A83BF007FF002D3AD170
:105F400020461DF0C7FC012841D920461DF0B8FCB1
:105F5000014600283BD0022202A83BF0F6FEBDF825
:105F60000830013B9BB24FF6F672934236D820467A
:105F70001DF032FD082120461DF036FEBDF8083028
:105F800003809DF8183083700023436025BB9DF883
:105F9000193013F00C0F01D1224B43601B21204616
:105FA0001DF0E0FC1B2203A93BF0CFFE204626F0AB
:105FB000C3FB0BB030BD9DF8180000F085FB002836
:105FC000BED1024603A92046FFF752FFF1E74FF684
:105FD000FF73ADF80830C2E7134BDEE7134B1B68C5
:105FE00063B90AF0CFFB014640B900904FF4BC738F
:105FF00040F613024FF0FF3023F08CFF85B99DF877
:10600000193013F00C0F07D1BDF80830872203A90F
:106010002046FFF7EAFECCE720461DF0F1FBC8E77B
:106020008722CFE73D5E0000F35E0000445300206E
:106030002DE9F041FF288EB0044608D1FDF794FF0A
:10604000C54BC0F8583201200EB0BDE8F0811B21CD
:106050001DF0CAFD067D002E40F07881C37C052B23
:1060600000F27881DFE813F006000B008900ED00F4
:106070004B01700100212046FFF754FFE3E71B218D
:1060800020461DF0B1FD1B22014607A83BF05DFE36
:1060900020461DF01FFC012856D920461DF010FC9B
:1060A0000146002850D0022206A83BF04EFEBDF863
:1060B0001830013B9BB24FF6F672934249D8204606
:1060C0001DF08AFC0A2120461DF04CFC0023012211
:1060D000027143718371C371BDF8183003819F4B06
:1060E000036020460CF0C6FC282120461DF07CFDF4
:1060F000036A002B08BF8B2620461DF06DFC192378
:1061000003709DF83130437001258570C670BDF86D
:106110001810043022F0EBFF0146002301F8013B88
:106120000493BDF82B300393BDF82D3002939DF8F6
:10613000283001939DF8273000930DF11D020223B2
:106140002046FDF781FE7EE74FF6FF73ADF818306D
:10615000ADE7834B1B680BB18726CDE70AF012FB36
:1061600001460028F8D1009040F2D11340F6130206
:106170004FF0FF3023F0CEFEEEE71B2120461DF04E
:1061800033FD1B22014607A83BF0DFFD20461DF032
:10619000A1FB70B120461DF093FB054648B106787F
:1061A000204676001DF096FB0136F6B2864240F29C
:1061B000E180002520461DF00FFC192303709DF897
:1061C00031304370022306468370471D25B3D8F84B
:1061D0002430C370D8F82030037100253846D8F831
:1061E00020309D4212D300230493BDF82B3003933B
:1061F000BDF82D3002939DF8283001939DF827308B
:1062000000930DF11D020223014699E738F815109D
:1062100022F06DFF0135E2E7514B1B6863B90AF0CC
:10622000B1FA48B9009540F23D2340F613022946E1
:106230004FF0FF3023F06EFE0023F37033713846C9
:10624000D1E71B2120461DF0CFFC1B22014607A8E9
:106250003BF07BFD20461DF03DFB012832D9204656
:106260001DF02EFB014668B3022206A83BF06DFD2F
:1062700020461DF0B1FB1B2120461DF073FB1B22A5
:1062800007A93BF062FDBDF81830013B9BB24FF609
:10629000F67293421BD8082120461DF0A5FCBDF8DC
:1062A000183003809DF82830837005460022BDF821
:1062B00018102C481DF03BFA2B4B6B60204626F043
:1062C00041FAC0E64FF6FF73ADF81830D0E7244B23
:1062D0001B6863B90AF056FA014640B9009040F2D3
:1062E000AD2340F613024FF0FF3023F013FEBDF84C
:1062F0001830872207A92046FFF7EDFCA3E61B21F3
:1063000020461DF071FC1B22014607A83BF01DFD35
:1063100020461DF061FB1B2120461DF023FB1B22A4
:1063200007A93BF012FD082120461DF05DFC9DF8F9
:106330002830037005460D481DF0D4F90C4B6B60F6
:10634000204626F005FA7EE6012194E620461DF05F
:1063500057FA78E6002077E63C000020D55C000084
:106360004453002055A90000255D0000C7A9000086
:10637000595D0000FDF7F8FD40781DF02DFBFDF79D
:10638000F3FD29784078043149001DF0EBFA2946E5
:106390002B78436011F8012B0646520008303BF081
:1063A000D4FC074B3360FDF7DFFD40780CF062FB57
:1063B000FDF7DAFD282140781DF016FC8046F9E64D
:1063C000D55C000007B5054B0093054A0023012169
:1063D000042000F06DFF03B05DF804FB31600000A5
:1063E000B55C000010B504461DF084FC2046BDE8F5
:1063F00010401DF005BA000038B5062104461DF016
:10640000F3FB037923B12046BDE838401DF0F8B90D
:10641000182120461DF0E8FB054620461DF050FAE5
:106420001822014628463BF090FC20460249BDE870
:10643000384025F0C9BF00BFE563000010B5102348
:1064400001224FF4A0610446FEF75CFE012243687E
:106450004FF4A0612046BDE810400CF027BB0000BF
:1064600010292DE9F74304460D46164640F0858075
:106470001DF018F92B4601220746B4F80F10207BB7
:10648000FEF740FE1821804638461DF06BFA05469F
:106490001822002105F10D093BF07BFC4946B4F8B8
:1064A00001001CF0A9FD10F11C0F19D10DF107031B
:1064B0000122B4F8011030461CF098FE0822314643
:1064C00048463BF042FC314698F80200D8F8049068
:1064D000FCF748FD3146024648463BF027FC0DE0FC
:1064E0000028EBD1314698F80200FCF73BFD31461D
:1064F000024648463BF01AFC0028E4D0207BFFF718
:106500009DFF064600283BD14EF201030122B4F85C
:106510000F10207BFEF7F6FD4368E27A1A70B4F89C
:106520000F10207B4EF202030122FEF7EBFD4368C1
:10653000B4F801201A80284623F0E4FE237B2B7256
:10654000E37A6B75B4F80F306B8103232B7323F060
:106550003DFF0821E88238461DF046FB082205462B
:1065600031463BF016FCB4F80F306B80FF232B70E4
:10657000064B6B6038460BF021FD03B0BDE8F0839D
:10658000002FFAD038461DF03BF9F6E7F96300001A
:106590000020704770B51D2188B005461DF024FB12
:1065A0001B220146064601A83BF0CFFBFDF7DCFCB1
:1065B000D0F89C300BB3342128461DF015FB022285
:1065C000044606F11B0108303BF0CAFB062323708A
:1065D0009DF81030637000236360FDF7C5FCD0F8B0
:1065E0009C30284698476068FDF70AFD01A90246DD
:1065F000284601F0A3F808B070BD6FF01E00F3E765
:1066000038B50122002303210546FEF77BFDB8B112
:106610004368ABB11C8844B1013C1C80294642222E
:106620000848BDE8384022F0A1BF2846FCF704FE28
:10663000D0F8070020B12146BDE8384022F070BEF6
:1066400038BD00BF0166000007B5054B0093054A41
:10665000054B0121032000F02BFE03B05DF804FB85
:1066600015690000916500009D69000070B5002368
:106670000E46012203210546FEF744FDF8B14368AA
:10668000EBB11C881E8043681B880BB9002070BDCD
:10669000002CFBD1224629460A4823F02FF942223A
:1066A0002946084822F062FF2846FCF7C5FDD0F8CD
:1066B00007000028EAD0012122F032FEE6E786201A
:1066C000E5E700BF0166000013B510B9002002B075
:1066D00010BD002301220321FEF714FD28B14368F9
:1066E0001888003018BF0120F1E70A4B1B68002B07
:1066F000ECD10AF047F804460028E7D100900146A3
:106700004FF4C0734FF0FF3040F2646223F002FC9C
:106710002046DCE74453002070B51B2190B00446AE
:106720001DF062FA1B22014609A83BF00EFB9DF802
:106730003730012B43D005D3402B00F08C80002054
:1067400010B070BD9DF838508DBB20461DF0C2F8CA
:10675000012804D86C4B1B68B3B180250DE020469E
:106760001DF0AEF80222014608A83BF0EEFABDF893
:1067700020109DF83000FFF779FF2A4609A920462E
:1067800000F0DCFF0120DBE709F0FCFF0028E4D18A
:1067900020461DF09FF804230190009340F26462AC
:1067A000BD2329464FF0FF3023F0B4FBD5E7574B0C
:1067B000D3F8943D002BE5D020469847E2E7524BB2
:1067C0001B685BB909F0DEFF014638B90090D2239F
:1067D00040F264624FF0FF3023F09CFB9DF83000E4
:1067E000FFF772FF024688B30122002303219DF8C0
:1067F0003000FEF787FC064620461DF0EDF8192311
:1068000003709DF83930437000258570736803303C
:10681000198822F06CFC9DF83130C3F34013CDE9A8
:10682000045303230393BDF8353002939DF83030B1
:1068300001939DF82F3000930146CDE906550223C0
:106840000DF125022046FDF733FB9BE709A9204601
:1068500000F0B5FF96E720461DF03CF801281BD953
:1068600020461DF02DF80222014608A83BF06DFAE3
:106870001D2120461DF0B8F909A905461B223BF051
:106880006FFA9DF82030EB769DF821302B7721466A
:106890001F4822F045FD75E71B4B1B688BB909F0BB
:1068A00071FF054668B920461DF014F804230190D5
:1068B000009340F26462F12329464FF0FF3023F049
:1068C00029FB20461DF088F8182303709DF8393005
:1068D00043700B2383704023C37080230371002215
:1068E0000323CDE90332BDF8353002939DF83030F3
:1068F00001939DF82F300093411D02230DF12502D5
:106900002046FDF7A1FA3DE7445300202C43002028
:1069100095650000FF2808B503D0BDE80840FFF7E3
:10692000FBBEFDF721FB024BC0F85832012008BD29
:106930005400002037B50023012203210546FEF74D
:10694000E1FB044698B100222946124822F0D6FF06
:10695000636800241C802846FCF76EFCD0F8070012
:10696000A8B1214603B0BDE8304022F0D9BC0A4BA3
:106970001B6863B909F006FF014640B9009040F278
:10698000A71340F264624FF0FF3023F0C3FA03B064
:1069900030BD00BF016600004453002037B50446F7
:1069A00002A800230D4620F8023D114602223BF0CA
:1069B000CCF92DB9BDF80610204619B1FFF756FEE7
:1069C00003B030BDFFF7B6FFFAE7F0B585B00C466F
:1069D000174605461CF066FE23888DF80F303421DB
:1069E00006461DF001F9072303709DF80F3003726E
:1069F00045700446FDF7B8FAD0F89C30C3B90024BE
:106A00000DF10F030093012223460821019428462B
:106A1000FCF76AFD01231A4608212846FEF772FB9F
:106A200080B9044630461CF0EBFE204605B0F0BDB0
:106A3000FDF79AFAD0F89C30304698476468002CED
:106A4000DDD0EFE743681A88BA4288BF1F80E9E7C4
:106A500030B585B004AB002423F8024DCDE90034F5
:106A600001231A4605460821FCF73EFD4EF6FF734A
:106A7000012208212846FEF745FB436822460821EB
:106A8000D879FDF7CDFCFF2801D0FDF715FD05B045
:106A900030BD08B54FF6FD73984208D11046FCF79B
:106AA000B3FF03284FF0FF3098BF002008BD00203F
:106AB000FCE7000007B5054B0093054A00230121C0
:106AC000082000F0F5FB03B05DF804FB6D710000D9
:106AD000936A000008B501224EF6FF730821FEF705
