:1010000000000420B5120000DD120000DF12000015
:10101000E1120000E3120000E512000000000000F1
:10102000000000000000000000000000E7120000C7
:10103000E912000000000000EB120000ED120000B9
:1010400091020100AD3D0400A1020100EF12000079
:10105000EF120000EF120000ADFF0000EF120000E1
:10106000EF120000EF120000EF120000EF1200007C
:10107000EF12000065030100EF120000EF12000004
:10108000EF12000041C80000EF120000EF12000054
:10109000EF120000EF120000EF120000EF1200004C
:1010A000EF120000EF120000EF120000EF1200003C
:1010B000EF120000EF12000000000000000000002E
:1010C000EF120000EF120000EF120000EF1200001C
:1010D000C96B0400EF120000EF1200002D13010095
:1010E000EF120000EF120000EF12000000000000FD
:1010F00000000000EF12000000000000EF120000EE
:1011000000000000000000000000000000000000DF
:1011100000000000000000000000000000000000CF
:1011200000000000000000000000000000000000BF
:1011300000000000000000000000000000000000AF
:10114000000000000000000000000000000000009F
:10115000000000000000000000000000000000008F
:10116000000000000000000000000000000000007F
:10117000000000000000000000000000000000006F
:10118000000000000000000000000000000000005F
:10119000000000000000000000000000000000004F
:1011A000000000000000000000000000000000003F
:1011B000000000000000000000000000000000002F
:1011C000000000000000000000000000000000001F
:1011D000000000000000000000000000000000000F
:1011E00000000000000000000000000000000000FF
:1011F00000000000000000000000000000000000EF
:1012000010B5054C237833B9044B13B10448AFF340
:1012100000800123237010BD700600200000000034
:101220002CF4040008B5034B1BB103490348AFF38A
:10123000008008BD00000000740600202CF40400AB
:10124000154B002B08BF134B9D46A3F5803A002198
:101250008B460F461348144A121A46F048F80F4BB3
:10126000002B00D098470E4B002B00D09847002051
:10127000002104000D000D48002802D00C48AFF3F7
:10128000008045F0B9FF2000290010F06FFB45F009
:101290008DFF00BF000008000000042000000000D7
:1012A00000000000700600206CAE0020000000006E
:1012B000000000000649074A074B9B1A03DD043B68
:1012C000C858D050FBDC10F0C1FBFFF7B9FF00009D
:1012D0005CF604000800002070060020FEE7FEE730
:1012E000FEE7FEE7FEE7FEE7FEE7FEE7FEE7FEE7D6
:1012F0007047000007B5044B0093044A802300F0B8
:1013000032F803B05DF804FB111300008D060020D5
:101310002DE9F84389461446B2B10F4B0F4E032511
:10132000002743F00108224609EB0701002010F0D6
:101330005BFA0744241A48B933782BB14FF47A404A
:10134000C047013D02D13570BDE8F88301233370F9
:10135000002CE8D1F8E700BF709704008C0600204D
:10136000704710F075BAF0B595B008460D461646B0
:101370001C460EF0A3F81A9A0D920023082205A924
:1013800028460A938DF82C300C93CDE908640EF0B2
:10139000B3F8079B0293BDF81830ADF80C30BDF8D8
:1013A0001A30ADF80E3001238DF811309DF814304D
:1013B00003F00302012A1DD1BDF81440059EC3F3BA
:1013C000C203C4F383148DF81030A20008230EA9C1
:1013D00028460EF091F8C6F3952608AB00932246F6
:1013E00002AB0EA9304600F045FF28460EF06AF821
:1013F00015B0F0BD022AF8D1BDF81640C3F3C20300
:10140000A4098DF810300827082C264628BF082686
:101410003B4632460EA928460EF06EF8A41B08ABD8
:1014200002AA31460EA8374400F088FF002CEBD109
:10143000DBE7000008B5FFF794FF0421034800F044
:1014400077FE034B01225A7108BD00BF30F404003F
:101450000800002000230428CB604B6098BF044B99
:10146000044A98BF53F820308A600B60704700BF71
:101470005899040034990400CB6800225A717047CF
:10148000C368DB6800225A717047CB6801225A7129
:101490007047C368DB6801225A717047104A8A603E
:1014A000F0B5104A104C0023121BCB604B600B6050
:1014B00022F00F021D46264693420DD006EB030C88
:1014C000E718DCF80CC09CF804C0BCF1FF0F05D095
:1014D000854202D1BB680B60F0BD01351033EBE7EC
:1014E0006C99040050F4040030F404002DE9F74F27
:1014F000174E184D0093AD1B52F8043C07468A4620
:10150000904625F00F050024B146A54207D1124AA6
:101510000221384603B0BDE8F04F0CF029B809EBC2
:10152000040118468968019346F018FC06EB040B89
:10153000019B10340028E8D1DDED007A17EE90CA47
:10154000434652465946384603B0BDE8F04F60471F
:1015500030F4040050F40400A49A0400014BFFF797
:10156000C5BF00BF751B0000014BFFF7BFBF00BF29
:1015700079140000014BFFF7B9BF00BF8B140000C6
:10158000014BFFF7B3BF00BFAD190000037813F0A4
:10159000040216D003F00303012B03D0022B09D061
:1015A000012070470A6800880232C0F383100244A9
:1015B0000A60F5E70B684288023303EB92130B6075
:1015C000EEE71046704700002DE9F04F484C87B019
:1015D0000F460546861C002001920AF0E3FF2368AF
:1015E0003B60D4E901231344226801339B1A04F2BF
:1015F0001C4704F5836A04F21448B34219D3019AD4
:101600000023002A6CD0012262F3010343F004039B
:1016100065F389132168A2680A4003320E44002052
:1016200044F8223026600AF0BFFF012007B0BDE871
:10163000F08F012138460BF00BFB50460BF021FBDD
:1016400040460BF01EFB0DF118096068D4F808B095
:1016500049F8100D00EA0B00033004EB8000494606
:10166000FFF794FF029BB0B90BEA030204EB82027E
:10167000D16803919A1C013303EA0B0B04EB8B0C2A
:1016800001F00303012B0292DCF80CB020D0022BF6
:1016900004D083460BE00BEA0300DDE7BDF80E3013
:1016A0009B0903334FEA1B4B02EB93030293404623
:1016B0000BF0EAFA08B1029B6360594638460BF01A
:1016C000C7FAD4E901231344226801339B1A94E733
:1016D000BDF80C30C3F383134FEA1B4B1344E5E70B
:1016E000022262F3010343F0040365F39F5391E781
:1016F000A8080020012907B5034604D08168D1F865
:101700005413890707D500221146184603B05DF827
:1017100004EB0DF0E7B853680193054B0093136891
:10172000044A02210BF024FF03B05DF804FB00BF64
:101730009E970400949704002DE9F3478368D3F83B
:101740005443C4F34004074634B10022114602B0AA
:10175000BDE8F0470DF0C6B8144D154EDFF85880BF
:10176000DFF85890DFF858A0761B26F00F06B44239
:1017700002D102B0BDE8F0872B19DA689B681179B5
:10178000FF2906D10B4A082138460BF0F1FE103430
:10179000EDE75279002A0CBF42464A46CDE90021C6
:1017A0003846524608210BF0E3FEF0E730F404001F
:1017B00050F40400B397040006C40400AFC304004F
:1017C000D297040030B50A4B0A4A0B49D21AD20804
:1017D00000239A4201D1052006E031F82350046825
:1017E000A54202D10360002030BD0133F1E700BF04
:1017F000FCF404001CF60400380500208368D3F8CC
:1018000054339B0703D5002211460DF06BB8024AF2
:1018100002210BF0ADBE00BFF39704008368D3F83C
:1018200054339B0703D5002211460DF05BB8024AE2
:1018300002210BF09DBE00BFF39704002DE9F84F85
:10184000224B2348FF229A600022C3F81824C3E9E0
:101850000022C3F8142483F820240DF0E8FD80460C
:1018600088B91C481C4E1D4DDFF874A00EF083F89B
:10187000AD1BED084446AC4208D100231849194875
:101880001A469C421BD14046BDE8F88F4FF0000934
:101890004F4606EBC40BBC420AD0142256F8371050
:1018A000DBF8000046F074FA0028C8BF09F101090E
:1018B0000137BD42EFD12AF824900134DBE701EB78
:1018C000830540F823206A800133DAE7A808002066
:1018D0001CF6040028990400FCF404001CF6040023
:1018E00038050020C805002007B5019031B9019ADC
:1018F000064B53F8320003B05DF804FB01A8FFF774
:1019000061FF0028F3D00020F5E700BFFCF40400DD
:10191000002310B5CB604B60034B8B600C4601215C
:10192000FFF7E2FF206010BD34990400094B013934
:1019300003EBC000032909D8DFE801F00A0204061E
:101940000420704700797047407970470020704745
:1019500002207047FCF4040030B5124C00EB40004C
:1019600054F821508240072303FA00F06A400240F5
:101970000D4B6A40C2F3821044F8212003EB810131
:10198000C2F3C203834238BF0346C2F342208342FC
:1019900002F0070238BF03469A4238BF1A464A800F
:1019A00030BD00BFC8050020380500202DE9F74FE5
:1019B00006461D469046002A50D0CB6828684B4901
:1019C00093F80490072246F0E3F9D0B9B8F1010F7B
:1019D00007D1474A0221304603B0BDE8F04F0BF073
:1019E000C7BD444F04460A2257F82410686846F0E1
:1019F000CFF9002873D00134052CF4D16B683E4A2E
:101A000013E008223D49286846F0C2F958B9B8F1F8
:101A1000010F04462BD00127394A3A4B9B1A4FEA53
:101A2000D30A934645E02B68374A0221304603B07B
:101A3000BDE8F04F0BF09CBD08EBC5039B79A342BA
:101A40000FD200212846FFF74FFF524603460221DE
:101A500030460BF08DFD0135BD42EDD103B0BDE840
:101A6000F08F224629464846FFF776FFF3E7244BDE
:101A7000244FDFF89CA0FF1AFF0800259846EBE7EB
:101A8000184600210193FFF72FFF0099202246F00E
:101A90007FF9019B014608B1013310E00BEBC30253
:101AA0009279A24215D3224619464846FFF754FFC1
:101AB00001374745D2D255F82730009300239A4585
:101AC000DED155F82730114A022130460BF050FD87
:101AD000EEE71846FFF708FF0D4A0346F4E7B8F1B2
:101AE000020FE4B2C3D0022796E700BF04980400B7
:101AF0000B980400449904006E98040099BC0400FB
:101B0000FCF404001CF60400229804005A98040017
:101B10003798040013460A46C168FFF747BF000024
:101B200013B504460191A3B162B9019A0F4B04EBBE
:101B30004404072053F82230A0401840E040C0B2CF
:101B400002B010BD01A8FFF73DFE0028EDD0002037
:101B5000F6E72AB9019A064B03EBC2039879EFE73F
:101B600001A8FFF72FFE0028F1D1F3E7C8050020F8
:101B7000FCF404002DE9F04F274B284A9B1A4FEA4A
:101B8000D309CB685B7985B005460E461BB9244A5C
:101B900002210BF0EDFC234B234A244F0821284659
:101BA0000BF0E6FC224A082128460BF0E1FC002459
:101BB0004C4502D105B0BDE8F08FF36893F804807E
:101BC00001231A4621464046FFF7AAFF012221467B
:101BD000834600234046FFF7A3FF0328034628BFA0
:101BE00003235FFA83FA804601212046FFF77CFE3B
:101BF00057F82A3001930F4A0F4B57F82B100091DA
:101C0000D04598BF134602930C4A03460821284644
:101C10000BF0AEFC0134CBE71CF60400FCF404002E
:101C20008D980400A0980400AC9804004499040026
:101C3000CA9804000CA704008B98040007990400BC
:101C400013460A46C168FFF795BF000037B5164B2B
:101C500093F8203404460BB918B90024204603B089
:101C600030BD46F08DF802AA013042F8080D01237C
:101C700001A90E480DF08DFE05460028EDD1214644
:101C8000009A019845F00FFBDDE900231344074853
:101C900003F8015C00990DF0B3FE009903480DF0C4
:101CA000C8FE019CDAE700BFA808002028990400BC
:101CB000034BD3E90030C31A58425841704700BF64
:101CC000A80800202DE9F04F85B0FFF7F1FF064688
:101CD000002840F018818D4DC5F81804BFF34F8FD0
:101CE0006868AC6804AF47F8100D2040033005EB7E
:101CF00080003946FFF74AFC009B18B1D5F818243C
:101D0000002A66D004EA0302991C013305EB820223
:101D1000234005EB8303D268DB68029302F00303E0
:101D2000022B0192009169D1BDF8063078489DF8E8
:101D300004604FEA931ABAF1A00FD14628BF4FF0C2
:101D4000A00969F38F1309F10801ADF806300DF011
:101D500086FBC6F3C2068046002800F0BB800DF06B
:101D6000ADFB01A90023082240460DF0BAFB009903
:101D700024EA01070137BF00B94538D95FFA89F96C
:101D800097B3FFB2A9EB0709214003315FFA89FB42
:101D9000B946604F05EB810108234A4640460DF0E5
:101DA000A0FB37B109F108035A46394640460DF009
:101DB00098FB009B0AF1030A03EB9A030093D5F802
:101DC0001834002B50D1D5F81044DFF85C91072768
:101DD0006FE02A689A4204D86A60304605B0BDE8D0
:101DE000F08F04EA030081E74A49BB46D4E721406B
:101DF000033108234A4605EB8101D7E7012B69D15E
:101E0000BDF804604248C6F38311062928BF0621A5
:101E100061F3891602318900ADF804600DF01FFBF3
:101E2000C6F3C2068046002854D00DF047FB0023BD
:101E3000082201A940460DF054FB0027BDF80420FC
:101E4000C2F38312BB1C97424FEA8303B7D20099B7
:101E50004A1C21400331009205EB810104224046D7
:101E60000DF03FFB0137E9E740460DF02BFBFFF794
:101E70001FFF80F00100C6B2AFE7E3685A79B2B144
:101E80001B79BDF8081003EB430259F8211007FA3B
:101E900002F3052E03EA010323FA02F308BF032627
:101EA000B34204D3236841461B6820469847E36841
:101EB0001C68002CE1D140460DF004FB20460AF0DE
:101EC00071FBD5F818340BB9009B6B6000200AF049
:101ED0006BFBCCE7D5F8104474B90F4B5B88012B32
:101EE000C5D90E4B0E480F49C01AC008000440F077
:101EF000020000F073F8BAE7236820469B68984711
:101F0000E3681C68E8E7002667E700BFA808002030
:101F10001CF60400B408002054050020FCF4040062
:101F200034F50400CC9A0400C80500202DE9F74FD1
:101F3000284C80460F46924601A9012218469B462E
:101F4000D4F80890FFF740FB88B3019D0026A91C38
:101F50005E4506EB010234D100211F480AF042FE23
:101F600080F310006A1C02EA090204EB82020004FA
:101F700005EA0903033340EA1840D06014F823202F
:101F800068F3C50204F8232034F8232066F389128D
:101F900024F8232054F82320012167F39F2244F8DA
:101FA000232061F301026FF3820204F8232094F8E6
:101FB00020341BB1FFF786FE0028FBD103B0BDE83B
:101FC000F08F09EA020204EB82025AF82630D3604D
:101FD0000136BDE7A8080020C40C002000231A46E3
:101FE000FFF7A4BF13B502AC012344F8042D224629
:101FF000FFF79CFF02B010BD07B5CDE90023022317
:102000006A46FFF793FF03B05DF804FB1FB5CDE907
:102010000123069B039301AA0323FFF787FF05B063
:102020005DF804FB1FB5CDE90023069B0293079BD7
:1020300003936A460423FFF779FF05B05DF804FBBC
:102040007FB5CDE90123089B0393099B04930A9B69
:10205000059301AA0523FFF769FF07B05DF804FBAC
:102060002DE9F3478046304CD01C8A46174601A91B
:1020700000228008A568FFF7A7FA002840D0DDF805
:102080000490A66809F10200019001362840361A32
:10209000B6000330B74204EB80003BD83A465146C5
:1020A00045F001F9002121480AF09CFD80F3100061
:1020B00009F101032B4004EB83034FEA184242EA83
:1020C0000040D86005EA0903033304EB830214F8E7
:1020D000231068F3C50104F8231034F823106FF3BC
:1020E0008F1124F82310518867F38F11518014F851
:1020F0002320022161F301026FF3820204F82320FE
:1021000094F820341BB1FFF7DDFD0028FBD102B0AD
:10211000BDE8F0873246514645F0C5F8BA1B0AEBD8
:10212000060104F10C00BBE7A8080020C40C002045
:102130002DE9F8431F4B8846D3F8101405460024B8
:102140000A469AB9E9680C71D3F81014A1B9C3F81A
:102150001054EB681A60184F184EF61BF6084FF033
:102160000009B14511D12046BDE8F883D268107945
:10217000A04218D01268E4E7C968EA6809681160EB
:10218000D3F81034DB681D60E5E707EBC903494667
:10219000DA79EB68424528BF42461879FFF7DCFB45
:1021A00009F10109DDE701340A2CC9D14FF0FF34F0
:1021B000D9E700BFA8080020FCF404001CF60400C6
:1021C00010B5037A052B0C460FD0437A23B1084A89
:1021D000084920460CF029FD074920460CF025FD52
:1021E0002046BDE810400CF015BD002AF8D0F3E7FA
:1021F0004B9D040007A7040002A5040073B5C38823
:1022000004460D4633B1144A00921449144A284634
:102210000CF00BFD217A05291CD0637A4BB1A08804
:10222000FFF784FB0F4B104953F8202028460CF091
:10223000FCFC227A0D4BA08853F822600021FFF7A6
:1022400053FB0B4903463246284602B0BDE87040B6
:102250000CF0EBBC02B070BD4B9D0400589D040017
:10226000509D04001C9D040007A704007C9D0400F1
:10227000709D04002DE9F04385B01F460C9D00239E
:1022800006460C46904695F80C902B732946384626
:10229000FFF7B4FFB8F1060F09D8DFE808F0041221
:1022A000181F28334000314628460CF0BEFC00229F
:1022B00029463846FFF784FF85F80C9005B0BDE845
:1022C000F0832268314628460CF0AFFCEFE7D4E9F2
:1022D0000023314628460CF0A8FCE8E7A3680093E9
:1022E0003146D4E9002328460CF09FFCDFE7E36881
:1022F0000193A36800933146D4E9002328460CF0EB
:1023000094FCD4E723690293E3680193A3680093E4
:102310003146D4E9002328460CF087FCC7E76369FF
:10232000039323690293E3680193A3680093314602
:10233000D4E9002328460CF078FCB8E708292DE9F9
:10234000F84F80460E4617461C4635D8002593F8B0
:102350000C901D7319461046FFF750FFDFF88CA054
:10236000DFF88CB0AE4229D918F80520594620462E
:102370000CF05BFC0135082DF4D11A49DFF874B07C
:1023800020460CF052FC4FF0000A564524D918F8AC
:102390000A507E2D17D92E22594620460CF045FCB6
:1023A0000AF1010ABAF1080FEFD10122214638469D
:1023B000FFF706FF84F80C90BDE8F88F51462046E1
:1023C0000CF033FCD6E744F03FFF2844427812F08B
:1023D000970FE0D02A46DFE7034920460CF025FCA2
:1023E000DEE700BF469D0400D6CE0400D4CE040034
:1023F000409D0400489D0400074B1B5C1F2B86BFBB
:1024000003F01F0305494FF0A041012202FA03F334
:10241000C1F80C35704700BFC89D04000003005090
:10242000074B1B5C1F2B86BF03F01F0305494FF0B2
:10243000A041012202FA03F3C1F80835704700BF3A
:10244000C89D04000003005008B50020FFF7E8FF16
:102450000120FFF7E5FF0220FFF7E2FF0320BDE8C0
:102460000840FFF7DDBF0000C10710B5044642D5A4
:102470004FF08043D3F84036DA072ED54FF01023C3
:10248000D3F8043303F00703072B26D11D4B012299
:10249000C3F80425D3F80024002AFBD04FF0102104
:1024A000D1F8042322F0070242F00402C1F8042309
:1024B0000022C3F80425134AD2F80034002BFBD0C5
:1024C000BFF34F8F1049114BCA6802F4E062134307
:1024D000CB60BFF34F8F00BFFDE74FF0A0420C4928
:1024E0000323C2F81837C2F82037C1F82437C2F8DE
:1024F0003037FFF7A9FFA30742BF054B0C22C3F8F3
:10250000182710BD00E0014000ED00E00400FA05CE
:1025100000030050F8B50F4B002420220F460D2178
:1025200083F88A201C7083F8784083F88C10224648
:10253000234605462CF0E6FF064650B121462846C4
:1025400026F087FE377029460348BDE8F8402CF096
:102550008FB9F8BDC2870020F1F9020073B502AB54
:1025600000220C4603F8012D114625F0C1FF38B9B1
:102570000A4B9DF8071093F843200D25824202D89C
:102580006FF01B0006E005FB0036F67B8E4203D1A0
:102590002070002002B070BD0130EFE7C28700203C
:1025A0000B4BD3F801202AB983F87820114609484B
:1025B00026F065BB8C2A0BBF0722062283F8782001
:1025C00083F8782007BF0022032100220221EEE7D2
:1025D000C28700201525000037B5114C054626F0AE
:1025E00017FC2278042A07D142782AB929460D48D7
:1025F00026F045FB03B030BD0DF107014088FFF721
:10260000ADFF0028F6D19DF8073007480D2202FBE8
:10261000034329465A7D01325A752CF029F9E9E71E
:10262000C2870020B52800007D2A000008B50022DE
:10263000FF2109482CF00AFC0022FF2107482CF05A
:1026400005FC75220021064844F051FE054B064A60
:10265000C3F8942D08BD00BFA12500009D260000F1
:10266000C2870020C08D00202D2C000010B5002254
:10267000084C094811462CF0E9FB94F8440003F09B
:10268000EBFC00232022237084F88A2084F8783021
:1026900010BD00BFC28700209D26000010B5044673
:1026A00020B90948BDE8104026F0C4BAFFF7DEFFA4
:1026B00000230C2120461A462CF024FF2146034813
:1026C000BDE810402CF0D4B89D260000F1F90200BE
:1026D00008B50022FE2105482CF0B8FB002201219C
:1026E0000348BDE8084026F0CABA00BFA125000093
:1026F0001525000070B50C4BD3F845302BB11C7C70
:10270000D3F811500023A34201DB002070BDC3EBBE
:1027100003122A441688864202D1127A8A4201D1D3
:102720000133F0E70120F1E7C28700202DE9F047EF
:10273000044688B0C0790E4626F06AFB90F80BA0DC
:10274000077B80465744D4F80950BD4280F0908002
:102750002B1D08EB4303AA4594BF02210121B3F8C6
:1027600005904846FFF7C6FF002800F08A80DFF892
:1027700038A11C21304626F0DFFCDAF80930054686
:10278000D046002B50D0217806A825F037FBA2793F
:10279000DAF809A022444B46527806A90220D04715
:1027A000002841D16FF04402D4F809309F4270D123
:1027B0003D4F97F84A30002B67D0B7F875204FF699
:1027C000FF739A4261D00025217806A825F058FBB6
:1027D0002B462A4601210095304601F079FDB7F8D5
:1027E00075102BF02CFF01464FF48273042201F880
:1027F000015BCDE90232049597F844300193A37947
:10280000234406AA5B7800933046022301F0EEFCD5
:10281000A379E17925480133A3712CF029F800232D
:10282000E37108B0BDE8F0871C220021284644F07F
:102830005EFD28462DF04AF898F844302B72A5F832
:102840000A90B8F875204FF6FF739A4212D121789A
:1028500005F10D0025F0D2FA03232B73A37923444D
:1028600030465B786B75124B2672AB6114F05AFEE2
:10287000002299E701232B73B8F87530A5F80D30C5
:10288000ECE70135C4F809505DE7304626F060FA00
:10289000BEE7002AC5D00133C4F8093031462046CE
:1028A000FFF744FFBDE700BFC28700207D2A00007C
:1028B000512900002DE9F341CFB2054638460C46B8
:1028C00026F0A6FA204EC1888046D6F8450000F0D2
:1028D000A0FFB8F802300DF10701A8B11846FFF7C4
:1028E0003DFE30BB9DF807300D2101FB03642946F6
:1028F00020766076A076E0762046A7750F30FFF749
:1029000015FF02B0BDE8F0811846FFF727FE8046AC
:1029100078B99DF807000D2303FB00603946437D1D
:102920000133437509482BF0A3FF002DE9D044463D
:1029300000E015B1284626F00BFA002CE1D0E0B2F9
:1029400026F006FADDE700BFC28700207D2A0000DE
:102950002DE9F04F1C2185B08146304C26F0ECFB70
:1029600094F84320834600250D21954215D32C4B26
:102970001B687BB90FF026FA014658B9042300936F
:10298000CDF804904FF4BA7340F25B324FF0FF3051
:102990002CF068FD05B0BDE8F08F01FB05F804EBF5
:1029A0000803D87D48450DD10026DE75484626F03F
:1029B00049FC48B16FF07303A670E670267163702E
:1029C000012609E00135D0E701236070A070E070B6
:1029D000207184F84A3006460D2707FB054702A8F8
:1029E000F97B25F00BFAD4F809A0BAF1000F07D053
:1029F0007B7D1F4402A9BBF80A303A7C3046D047A1
:102A00000D2303FB054508F10F00AB690133AB61F2
:102A100049462044FFF78AFEBCE700BFC28700207A
:102A2000D89D002070B50E4605460146304626F07A
:102A300010FC8C2D0F4C03D1072384F8783002E072
:102A4000B5B984F878502378052B06D1002394F883
:102A500078200C2130462CF055FD002323702023D4
:102A600084F88A3031460448BDE870402BF000BF3E
:102A70000623E2E7C2870020F1F902002DE9F341C5
:102A8000054626F0C5F90DF105014088FFF766FD02
:102A9000074600284AD19DF80530274C0D2202FB3D
:102AA0000346717D307D884222D93144284691F811
:102AB0001080032126F0FEF903223946044644F033
:102AC00016FCF17B0DF1060025F0DAF9BDF80630B1
:102AD000238084F802801949284630F095FEFF28AB
:102AE00003D129468A20FFF79DFF02B0BDE8F0819F
:102AF000FF21022BF1730BD803FB022000F10F0121
:102B0000C3F1030302305A432144204444F0D6FB6E
:102B100094F84330013BDBB284F8433033B9D4F846
:102B200001208C2A08BF072384F87830002DDCD0E0
:102B3000284626F00DF9D8E7C2870020D9250000E5
:102B40002DE9FF47364D804626F062F995F8009052
:102B5000B9F1040F07465AD10DF10D014088FFF776
:102B6000FDFC8246002858D19DF80D400D2606FB3D
:102B700004560DF10E00F17B25F082F93B79337597
:102B8000042B86F815A029D9264B1A689A4602BB51
:102B90000FF018F9014650B9337D40F25B32CDE9B0
:102BA00000934FF0FF3040F2B3332CF05BFCDAF8C7
:102BB000003073B90FF006F9014650B90423CDE98E
:102BC000003340F25B3240F2B5334FF0FF302CF06F
:102BD00049FC0D2303FB045304221A750D2303FB48
:102BE0000453197D04EB440304EB830400238B425C
:102BF00006D341460C482BF03BFE04B0BDE8F087FD
:102C0000FA1850791A192A4401331074EFE76FF05B
:102C100007004146FFF706FFEFE70020F9E700BF96
:102C2000C2870020D89D00207D2A00002DE9F047B2
:102C3000664D2B78042B8CB0064640F0C380D5F847
:102C400001301C3304D100236B70AB70EB702B711F
:102C50001B21304626F070FA1B22014605A844F0DD
:102C600022FB03A9BDF8150025F06EFC28B9584BCE
:102C700093F8D00F10F0200414D00621304626F02F
:102C80005BFABDF8153043800380002383805149EF
:102C9000304630F0B9FCFF2874D131468A20FFF766
:102CA000C1FE6FE0FF238DF80A302B78BDF8157058
:102CB0009DF81F90042B1FFA87F810D10DF10A011F
:102CC0004046FFF74BFC70B195F84330032B04D816
:102CD0008DF80A30013385F84330204601E06FF06B
:102CE0000700012400E004469DF80AA0BAF1FF0F96
:102CF0004DD0002C49D000220DF10B031146404667
:102D000025F0F6FB002842D10D2303FB0A539DF862
:102D10000B20DA73187558754FF00D0808FB0A5828
:102D200098F81430032B35D808EB0302013382F8EE
:102D3000109088F81430002C43D00521304626F03E
:102D4000B9F805220446002144F0D1FA002363704B
:102D50000D2303FB0A5567802B7D23711E4B1B68D7
:102D600063B90FF02FF8014640B900904FF45F733C
:102D700040F25B324FF0FF302CF074FB31461748C5
:102D80002BF076FD0CB0BDE8F0870028C4D03146AA
:102D900000B284E7104B1B68002BCCD10FF012F867
:102DA00001460028C7D198F81430019304230093FA
:102DB00040F25B3240F271334FF0FF302CF052FBA7
:102DC000B9E7304625F0C4FFDCE700BFC28700202A
:102DD000C08D00207D2E0000D89D00207D2A00009F
:102DE000F7B50E4602A9FF25044601F8025D3046FC
:102DF000FFF7B4FBA0B31F4A92F84330032B04D86B
:102E00008DF80630013382F843309DF80650FF2DCF
:102E100029D002AB002203F8012D1146304625F0DF
:102E200067FB0746F8B9134B0D2202FB05359DF8E9
:102E30000730EB730221204626F03CF805460222BB
:102E4000394644F054FA2E800B49204630F0F5FC08
:102E5000FF2803D121468A20FFF7E4FD03B0F0BD2F
:102E60008DF80650D1E7002CF8D0204625F070FFF1
:102E7000F4E700BFC2870020412B000037B50446AD
:102E800025F0C6FF0546204626F0DCF9024658B973
:102E900069890DF10703A81C25F050FC69892046BB
:102EA000FFF79EFF03B030BD204625F051FFF9E744
:102EB0000D4930B5A1F5BC720225914201D8002020
:102EC0000EE08B1ADB1093FBF5F302EBC30452F810
:102ED0003330834205DC02DA04F10802EDE7606872
:102EE00030BD2146E9E700BF60A2040008B5FFF746
:102EF000DFFF024B002808BF184608BDCC9D040028
:102F00002DE9F7430A9F1E4680468946154601F083
:102F1000FDF9D0F8B030DBB101F0F8F90097D0F846
:102F2000B04033462A4649464046A04704464A46F2
:102F30004146284603F005FB14F1450F03460BD12B
:102F400048B13A462946304603B0BDE8F043184739
:102F50006FF04404EBE70446204603B0BDE8F0837D
:102F60002DE9F041069F05461E4603F0FFFA044690
:102F700030B13A46314628462346BDE8F04118476D
:102F8000BDE8F081B0F80F30B3F5A06F01D102F0C9
:102F9000DBBD70470020704770B51B2188B0054627
:102FA00026F0CAF81B22014601A844F07CF901F082
:102FB000ADF9D0F8AC604EB101F0A8F9D0F8AC3062
:102FC0009DF8100098476FF01E0017E001F09EF981
:102FD000D0F89C30002BF6D03421284626F0ACF8EF
:102FE0001D2303709DF8103043704660044601F0C5
:102FF0008DF9D0F89C3028469847606801F0D2F9E6
:1030000001A90246284603F04BFB08B070BD000042
:10301000FF2808B506D101F079F9034BC0F8583202
:10302000012008BD0020FCE71000002010B5FF289B
:1030300088B0044607D101F069F90C4BC0F858324A
:10304000012008B010BD1B2126F076F81B22014696
:1030500001A844F028F99DF8173023B92146044807
:103060002BF006FCECE70020EBE700BF200000207F
:10307000992F000007B5054B00930023044A012156
:10308000184603F0C7F803B05DF804FB2D300000CC
:10309000952F000007B5054B009300231A46022127
:1030A000184603F0B7F803B05DF804FB11300000D8
:1030B000F8B50C46154607461E4600F09BFA01225D
:1030C000002100F0D6FB90B11223012200213846E6
:1030D00001F0CCFE58B14368187840B91EB1052CF8
:1030E00005D90B2C02D1032D01D00020F8BD012001
:1030F000FCE7000037B50146044600220F4825F0E2
:10310000BEFD0546B8B10E4B1B6873B90EF05AFEF2
:10311000014650B90423009301954FF49F6340F694
:103120000F024FF0FF302CF09DF9204603B0BDE8B0
:10313000304025F00DBE03B030BD00BF7D3B000028
:10314000D89D002013B5154AD2F8E03A1BB1D2F849
:10315000E43A2BB90123023302EB8303C3F8D80A04
:10316000D2F8DC3ABBB9C2F8DC0A0D4825F062FDA2
:10317000044680B10B4B1B686BB90EF023FE014671
:1031800048B90423009301947D2340F60F024FF0C9
:10319000FF302CF067F902B010BD00BFC08D0020D9
:1031A0003D3C0000D89D0020F8B5124BD3F8843B7D
:1031B0000446007803B198470F4F22783A700025F3
:1031C000237C9D4202D3FF233B70F8BDD4F811301D
:1031D000C5EB05163344D3F80B3003B19847D4F848
:1031E0001120B4F801102078324404F0F7FC0135C6
:1031F000E6E700BFC08D0020300000202DE9F04F31
:10320000454BD3F8DC3A8DB0002593F800A0079326
:10321000AC465FFA8CF9CA457CD9079BD3F80130DC
:1032200053F805B05A199BF8103009920A930022FE
:1032300001231AE0C3EB0311C2EB02180B9100202B
:103240000999DDF82CE051F820100691097C0891CD
:103250001946089C8C4210D8013009EB0001C9B214
:103260008A45EDD801330132DBB20A98D1B28842E7
:10327000E0D80CF1010C0435CBE7DBF81170069EA9
:1032800007EB08040594D6F8116024887644378843
:10329000A7423AD1059F367A3F7AB74235D1042CFE
:1032A00012D0192C10D0202C0ED040F20B76B44244
:1032B0000AD040F20126B44206D0B4F5006F03D024
:1032C0004FF65746B44220D1144B1B68CBB90EF0D1
:1032D00079FDB0B9104BD3F8DC3AD3F801305B5923
:1032E000D3F811309844014698F80830CDE90143ED
:1032F0000823009340F60F02D2234FF0FF302CF04A
:10330000B1F800200DB0BDE8F08F0131C9B20EF167
:103310000F0E9EE70120F5E7C08D0020D89D00200C
:10332000272807B5034620D041D81A2838D022D8FC
:103330000D2800F0978011D80A2831D007D8082826
:1033400000F0898009287DD04FF0FF3084E00B2801
:1033500000F086800C28F7D105207DE010287AD077
:1033600005D80E2821D00F28EED1082074E01828A7
:1033700071D01928E7E720286DD00AD81D2871D010
:1033800003D81B286CD01C28E5E71E280DD01F2869
:10339000EAE7232864D005D8212853D02228D3D1A6
:1033A000032059E025285DD0D6D9072054E03A28DB
:1033B000DBD019D82D2855D00AD82A28F0D003D828
:1033C000282848D02928BEE72B2849D02C28C2E736
:1033D000302840D003D82E28E7D02F28C4E738283B
:1033E00030D03DD83128AEE7E22826D8E02837D2C1
:1033F00043280ED009D84128A6D30029A4D00878A4
:10340000FF28A1D00130C0B226E0482801D04A28C8
:103410009AD102A80022482B20F8022D4FF0020278
:1034200001D0432B20D143F03EFFBDF806004FF6FC
:10343000FF73984288D002300EE0EA2810D003D8FB
:10344000E82881D3022007E0F0288ED0F1287FF40D
:103450007BAF102000E00120C0B203B05DF804FB98
:103460000420F9E70620F7E743F01DFFBDF806301A
:103470009B00ADF80630D8E7252973B504461546FC
:103480003DD026D8182930D016D80A296BD006D8B6
:1034900008292AD009295FD0204602B070BD0F2923
:1034A0007ED0102921D00B29F6D1204604222946AE
:1034B00043F0F9FE0434EFE7202916D004D81A2986
:1034C00051D049D31B29EFE722294CD044D32329DB
:1034D000EAE742291AD841294CD22B29E5D008D84D
:1034E000292939D03FD82829D6D12B7804F8013B97
:1034F000D2E73029F9D031292ED02D29CCD1204640
:103500000622294643F0CFFE0634C5E74A2904D0F7
:103510001CD8432901D04829BED102A8002348293C
:1035200020F8023D4FF0020201D043292FD1294655
:1035300043F0B9FEBDF806604FF6FF739E42ABD074
:103540000236B6B23246294620461CE0F02927D082
:10355000F1292CD0E229A7E720460222294643F090
:10356000A2FE023498E720460322294643F09BFE40
:10357000033491E7002A8FD01678FF2E8CD00136C5
:10358000F6B23246294643F08EFE344484E729469B
:1035900043F089FEBDF806309B00ADF80630C9E760
:1035A00020460822294643F07EFE083474E71022A4
:1035B000294643F078FE10346EE700002038C0B290
:1035C0000D289ABF014B185C0020704760A20400D0
:1035D0002B2809D8282805D2202809D3232801D947
:1035E000252805D1012070472D28FBD0E228F8E7D7
:1035F0000020704770B51449D1F8E02A0AB3157855
:103600000024AC4208D2D2F8013053F824301E789E
:10361000864202D00134F4E70023D1F8E44A2CB109
:1036200025780022AA4203D319460B46184670BDDE
:10363000D4F8011051F822100E788642F5D00132EC
:10364000F0E71346F2E700BFC08D002070B51B21E4
:1036500088B0044625F070FD1B22014601A843F006
:1036600022FE9DF810603046FFF7C4FF9DF81A3027
:10367000BDF813209DF8171005463046FFF718FDDA
:1036800020B9204625F064FB08B070BD05F04CFD64
:1036900040B9D5F80330EBB9204602F092FF02465C
:1036A00050B9F1E7BDF8130004F07FFD48B19DF873
:1036B00012301B0705D47E2201A9204603F078F8BA
:1036C000E2E7BDF81310BDF8050004F01FFD002867
:1036D000DFD1F0E7074BD3F88C3D33B9D5F8033091
:1036E000204698470028D7D0CEE701A89847002861
:1036F000D2D1F3E7C08D002000F52D33F0B503F2F1
:10370000A513104D03F00F0213462C469F1C05EB2A
:10371000C70696F8DCCABCF1000F07D104EBC7035B
:1037200083F8DC0AC3F8D81A0020F0BDD6F8D86AAE
:10373000002EF3D0013303F00F039A42E6D16FF06D
:103740001500F2E7C08D0020F8B500F52D3303F227
:10375000A513194903F00F02054613460E469C1C9B
:1037600001EBC40090F8DC7AAF421CD122F020FBC0
:1037700028B1284625F066FD08B132F091FA06EB33
:10378000C405D5F8D80A58B139462BF071F8002095
:10379000C5F8D80A06EBC404002384F8DC3AF8BD67
:1037A0006FF01B00F6E7013303F00F039A42D6D106
:1037B0006FF01B00F3E700BFC08D002037B50D464A
:1037C000144619469DF81C30E8B14268DAB13BB1A5
:1037D000C3785A0617D49B0702D4882003B030BDA3
:1037E000069A0388009220462A46FFF789FB411C6F
:1037F0000BD0821D0BD0831CEFD010F1280F14BF0B
:1038000000207E20EAE78620E8E78720E6E7002020
:10381000E4E7034648B3D0F8150028B3B3F8013005
:10382000994224D0B1F5827F1FD06FF480728A183C
:10383000072A0DD94FF6FF72914211D1B3F5827F5D
:1038400015D04CF25E00834214BF00200120704767
:1038500001204CF25E02914204D1B3F5827FF3E77E
:103860000020F6E70028F8D17047002070470120BB
:10387000FAE770B598B1057C0024AC4202D300236E
:10388000184670BDD0F81130C4EB041633441E88BE
:103890008E4202D11E7A9642F2D00134EDE7034601
:1038A000EEE700002DE9F04F87B083460D4616463F
:1038B0001F46109C01F0DAFA8046002800F087804D
:1038C000002C00F084809DF844302A46CDE9004366
:1038D00059463346FFF772FF0390A0BB3B46324682
:1038E000294658460094FFF73BFB214698F8020012
:1038F000D8F80490FFF714FD21460246484643F0ED
:10390000D2FC98F80330590705D53B463246294684
:10391000584603F0F1FF98F803301A0713D54FF01B
:10392000000A2C4B5344D3F8E09AB9F1000F0AD0A7
:103930004FF0000899F80030984508D30AF1040ABE
:10394000BAF1080FEDD1039807B0BDE8F08F4FEA48
:1039500088030493D9F8013053F8280003785B45B5
:1039600032D032462946FFF784FF0028E2D039469C
:1039700001F078F902900028DCD0D9F80130049ADF
:103980009B5829461878009432463B46FFF7E8FAE0
:10399000029B5B680593029B21469878FFF7C0FC69
:1039A000059B02462146184643F07DFC029BDB78CE
:1039B0005B0709D5D9F80130049A985829463B4647
:1039C0003246007803F098FF08F10108B2E70123BE
:1039D0000393B8E7C08D00202DE9F74F0025064678
:1039E0008946934601930095264BEB18D3F8E07A6D
:1039F00017B3002E43D03A7800239A4203F1010412
:103A000003D84FEA840A06B313E0D7F8011051F83F
:103A100023301978B1422346EFD10026F1E7012087
:103A200080B101994046FFF7F4FE58B198F8003094
:103A300000930435082DD7D1009803B0BDE8F08F6E
:103A40005A4614E001340AF1040A3B78A342F0D943
:103A5000D7F80130BBF1030F53F80A80F0D10122EF
:103A600049464046FFF705FF0028D8D102224946C3
:103A70004046FFF7FEFE003018BF0120D0E7344675
:103A8000BFE700BFC08D002037B51B21054625F0DC
:103A900053FB037BFF2B044630D1037DB0F80F109E
:103AA000002B08BF0122B0F8113018BF02220020FD
:103AB000FFF792FF28B9284603B0BDE8304025F053
:103AC00047B9207300222946104825F0D8F804464B
:103AD000D0B10F4B1B68002BEDD10EF073F90146EE
:103AE0000028E8D104230093019440F2525340F699
:103AF0000F024FF0FF302BF0B5FCDCE7284603B097
:103B0000BDE83040FFF7A2BD03B030BD7D3B0000F3
:103B1000D89D002030B589B004461B22002101A8A1
:103B200043F0E5FB01A9204602F0FCFA01A9054695
:103B30000246204619F0B8FAB8B9204625F068F9CF
:103B4000037813F0040F14BF05210321204625F04C
:103B500029FA1B21204625F0EFFA1B2201A943F088
:103B6000A2FB25B92046FFF78FFF09B030BD2A46DA
:103B700001A9204602F01CFEF7E700002DE9F04104
:103B8000CDB207461B21284625F0D6FA0446294621
:103B9000384625F05EF994F80C80124E2AF028FD84
:103BA0003946B0FBF6F6104832462AF087FF237DEF
:103BB000B4F80F10002B0CBF01220222B4F8113010
:103BC0004046FFF709FF20B92846BDE8F04125F03F
:103BD000BFB82073324629460448BDE8F0412AF0B8
:103BE0006DBF00BF7CF0C1074D360000F53000000E
:103BF0002DE9F84F002481468A4627460E4BE318EC
:103C0000D3F8E06A9EB196F800B00025AB450BD919
:103C1000D6F8012052F82580494652464046FFF723
:103C200028FE38B198F800700434082CE6D13846E4
:103C3000BDE8F88F0135E9E7C08D002013B50446D3
:103C4000B8B9144824F0F6FF044680B1124B1B6843
:103C50006BB90EF0B7F8014648B9042300930194FC
:103C6000402340F60F024FF0FF302BF0FBFB02B079
:103C700010BD01212020FFF7BBFF0146204621B1E6
:103C800002B0BDE8104003F0A7BA02B0BDE8104092
:103C900025F05EB83D3C0000D89D0020F0B50E4EEA
:103CA000054600234FF6FF709A19D2F8E01A81B149
:103CB0000F780022974209D9D1F8014054F82240E8
:103CC00094F800C0AC4505D1B4F801000433082BCA
:103CD000EAD1F0BD0132EDE7C08D002038B50446D1
:103CE0000D46FFF7DBFF44B1B0F5827F05D14FF6FB
:103CF00057402B1A5842584138BD0020FCE70000BD
:103D00002DE9F84F0024824688462746104BE318D9
:103D1000D3F8E06A3EB196F800B000255D4505D3C2
:103D20000434082CF2D13846BDE8F88FD6F80120CB
:103D300052F82590514642464846FFF79AFD10B189
:103D4000027A424501D00135E8E74F46E8E700BF77
:103D5000C08D002038B51B2125F0EEF90446007B0C
:103D6000FFF748FC257DB4F80F10002D14BF022288
:103D70000122FFF77EFD124B1B7A012B15D0227E0C
:103D8000A37D6AB1002B0CBF83238423A8B1012D2E
:103D90000DD1027A12F0020F18BF0023184638BD69
:103DA000002B0CBF81238223F0E78123EEE7002D57
:103DB000F4D1027A12F0010FEEE7C323EEE700BF61
:103DC000680D002007B5042201460DEB020043F008
:103DD0006AFA019803B05DF804FBF7B50191102170
:103DE00016461F46054625F0A7F9044628461EF04C
:103DF000F9FD9523032E23609DF8203008BF01991B
:103E0000A37316BF01A90822022227716671A01DA3
:103E100043F049FA294609982AF02AFD03B0F0BD7B
:103E20002DE9F04F87B09A46BDF8443001939DF8D4
:103E30004C300293BDF8583003939DF85C309DF8E8
:103E40004080BDF8489004930D4617460446149EE2
:103E50009DF854B024F0DCFF0378817813F0030F51
:103E60000CBF012300234A464046FFF721F988B9D9
:103E700056B153463A4629462046CDE9108607B04A
:103E8000BDE8F04FFFF7A9BF204607B0BDE8F04FEF
:103E900024F05EBF1821204625F04EF9182200219B
:103EA000059043F024FA059BDF732A681A606A685C
:103EB0005A60019A1A81BBF1010F029A83F80CA093
:103EC00083F80D80A3F80A909A7305D1039A5A8259
:103ED000049A1A7583F811B0012F06D029884FF67D
:103EE000F77291429CBF04221A7431462046FFF7B4
:103EF00003FC0028BDD1012031F07AFE03482146A1
:103F000007B0BDE8F04F2AF0B3BC00BF6D8F0100D1
:103F1000A1F5E0630B2B04D9A1F500635842584189
:103F200070470120704700002DE9F04F8DB08B469F
:103F300008931821BDF8583007939246064625F09D
:103F4000FBF80446304624F063FF237B0693637B33
:103F500005930378B4F80A808178E77B13F0030FA8
:103F600081460CBF0123002342460598FFF7A0F8C5
:103F70000546B0B9BAF1000F0DD0059B0093CDF8FE
:103F800004A0069B3A4621463046FFF726FF284606
:103F90000DB0BDE8F08F304624F0DAFE6FF0070573
:103FA000F5E741462089FFF7B3FF0546BBF1000F57
:103FB00017D05946304624F0D2FF0990304624F0FD
:103FC00031FF099B83420CD95946304624F0C7FF84
:103FD0008346304624F026FFABEB0001304625F047
:103FE000BBF8012F11D0E37B022B04D122884FF6BE
:103FF000F7739A4209D8404604F0BCF828B1089BF0
:104000001BB9237C43F0040323741DB1237C43F0CC
:104010000803237413F09EF90546002862D105F0C9
:1040200083F800285ED0404604F0BFF8002859D03D
:10403000082229460AA843F05AF9022F3BD0032F41
:1040400043D0002F0CBF00256FF0270505F06CF85A
:10405000002840D0002F3ED04DB90AA813F0A4F993
:1040600028B102210AA832F0EBFB002836D15D4BC3
:104070001B6873B90DF0A6FE014650B904230093E6
:1040800040F60F03CDF804801A464FF0FF302BF0B6
:10409000E9F96FF02705BAF1000F3FF478AF059BFF
:1040A0000093CDF804A0069B3A4621463046FFF720
:1040B00094FE00256BE70AA9208824F045FA002821
:1040C00014BF6FF027050025C0E7082221460AA883
:1040D00043F0E9F8BAE7002DC9D1C2E7237C43F0E9
:1040E0000103237441460598FFF7F8FD68B10822E3
:1040F00000210AA843F0FBF8022F1ED0032F52D054
:104100003FBB237C43F00103237451463046FFF745
:10411000F3FA05460028BED1304624F079FE037834
:10412000DB0602D4012031F063FD079B002B53D145
:1041300031462D482AF09CFB29E70AA9208824F063
:1041400003FA054630B902210AA832F079FB0028AB
:10415000D7D10025234BD3F800B099F802300B2BB0
:1041600027D199F800305A0723D199F80430012B50
:104170001FD1BBF1000F12D10DF024FE014670B922
:10418000CDF8088099F8033001930823009340F696
:104190000F0240F657034FF0FF302BF063F9002D6C
:1041A0007FF479AFB1E7082221460AA843F07BF8F3
:1041B000C9E7BBF1000F7FF46CAF0DF003FE0028E0
:1041C0007FF467AF04230093CDF8048040F65E03CC
:1041D00040F60F02594658E7079A034831462AF03D
:1041E0006DFCD4E6D89D00206D8F01002DE9F74FBE
:1041F0001D469DF8303001930F46109B0093182107
:10420000934606469DF834A0BDF83890BDF83C8032
:1042100024F092FF18220446002143F068F8032D91
:104220000CBF082202225946E573204643F03BF8B2
:10423000019B009A237339460023304684F80DA071
:10424000A4F80890A4F80A800C9303B0BDE8F04FDE
:10425000FFF76ABE2DE9F04F87B01D469DF840304C
:104260000593CDE90101149B0493182103929DF855
:1042700044B0BDF848A0BDF84C909DF854809DF81E
:104280005860BDF85C7024F057FF182204460021E6
:1042900043F02DF8032D0CBF082202220399E57389
:1042A000204643F000F8DDE90101059B049A2373E1
:1042B000334684F80DB0A4F808A0A4F80A9084F856
:1042C0001080109707B0BDE8F04FFFF72DBE00003B
:1042D0002DE9F041069D0E4690461F4624F024FE2F
:1042E000094B00F8016B93F8D84A621C83F8D82A6E
:1042F000730702D541462AF0A2F9047047700230D4
:1043000005B12C70BDE8F081C08D002000487047D9
:104310009898002000487047680D002002289DBF33
:10432000024B187000206FF005007047680D0020E8
:10433000014B187A704700BF680D002001289DBF0F
:10434000024B187200206FF005007047680D0020C6
:10435000134B1B781BB391280ED890281AD28A28A9
:104360001CD005D8A0F18103032B98BF8120704792
:104370008F2808BF7E207047C12806D8C02809D2E0
:10438000922809D0932805D07047C22804D0C428A9
:1043900004D07047012070477F207047002070478D
:1043A000680D002010F1170F12D009DC10F11F0F5B
:1043B00010D0094B1B7A012B0CBF0120C02004E058
:1043C00010F10A0F02D00028F3D170478520704702
:1043D0008720704781207047680D00202DE9F04745
:1043E00088B08146ADF81E1024F09EFD08230370AE
:1043F0000446FFF78BFF0378DFF8B0A05A1C027069
:1044000063700A23A370284B1F7803349846052F46
:1044100036D801223AF817301146C42000F026FDA4
:10442000064618B301214CF25D20FFF771FD2146CD
:10443000F0B1484624F093FDC0F5CA60013085B262
:104440007168B078FEF76CFF0330854216D331886F
:1044500020462AF0F4F8B37800F8013B7268B1788E
:10446000FFF70AF80023044688F800300137CEE74A
:10447000484624F074FDC0F15200E0E788F800706F
:1044800001230022CDE903324CF25D21C423CDE9A2
:10449000013100930DF11E02022321464846FFF729
:1044A000A5FE08B0BDE8F087750D00206EA20400DF
:1044B000064B1B7802462BB1032B03D04FF6FC7141
:1044C000FFF78CBF104624F043BC00BF760D0020E0
:1044D00038B5054620B92148BDE8384024F0AABBCC
:1044E0001F4C227892B3032A30D0012208231146B0
:1044F000C42000F0BBFC436819884FF6FF73994253
:10450000284620D1FFF7D4FF0022114613482AF095
:104510009DFC2378022B20D101231A461946C42082
:1045200000F0A4FCB0B1436818880F3880B22AF0BC
:1045300049F80F3080B24222424300210748BDE8CB
:1045400038402AF0BBBAFFF749FFDDE7284624F0E0
:10455000FFFBD9E74FF49670E7E738BDD144000080
:10456000760D0020F7B50E460446214D40B92A7855
:1045700022B901231F482B7024F081FB03B0F0BD4A
:10458000FFF7C4FED0F89C305BB302AF3421204665
:1045900007F8046D24F0D0FD3422002142F0A7FE7C
:1045A0003421204624F0C8FD6523037034212046C1
:1045B00024F0C2FD002646603421204624F0BCFDD4
:1045C00034218660204624F0B7FD3421C7602046A0
:1045D00024F0B2FD0661FFF799FED0F89C3020462A
:1045E0009847002320462B7024F0B2FBC6E700BF9B
:1045F000770D00206545000010B510B90F4B1870FD
:1046000010BD0128FCD10E4B19780129F8D10B4CB3
:104610002278012A09D80B4824F00CFB0A4824F020
:1046200009FB237801332370EAE7032200201A7084
:104630002070BDE81040FFF795BF00BF740D00204B
:10464000760D002091460000B1440000002208B51C
:1046500011460D482AF0FAFB0C4B1B78022B12D1A5
:1046600001221146C42000F001FC48B143681B88B8
:10467000054842225A430021BDE808402AF01EBAEC
:104680004FF49673F4E708BD91460000760D0020C4
:10469000F0B5044689B020B9204824F0CBFA09B01F
:1046A000F0BD1F4B1B78ABB3032B33D01FF0ECFED8
:1046B00008AE002726F8020D204624F035FC0770CE
:1046C0000546FFF723FE03785A1C027008216B7021
:1046D000AF70E81C29F0B3FF092129F0B0FF0A21CF
:1046E00029F0ADFF01254CF25D23CDE90235C4234D
:1046F0000146CDE900333246049702232046FFF7F6
:1047000075FD40F2BC72294606482AF0D7F9FFF73A
:104710009DFFC4E7204624F01BFBF8E7914600000C
:10472000760D0020F94500002DE9F34100220546F1
:10473000FF2134482AF08AFB2BF03AF920B1324E9F
:1047400033780BB1032B05D1284602B0BDE8F04108
:1047500024F0FEBA4FF00008284624F063FB02283C
:104760003CD9284624F054FB0446002836D08078F3
:10477000FFF7EEFDA07010BB211DE078FEF7D0FD25
:104780000430C7B2284624F04DFB284624F04AFBEB
:10479000874223D83946284624F004FCA278002A10
:1047A000DAD12388082B0CD1019204340122009421
:1047B0001146C420FFF776F84FF00108CCE7032735
:1047C000E3E7092BF0D00A2BC6D101920434012271
:1047D00000941146C420FFF765F8BDE7B8F1000F5B
:1047E000B2D00A4B002119703378012BACD10223CF
:1047F00040F2DE32064833702AF060F9FFF726FFF8
:10480000A2E700BFF9450000760D0020740D0020DE
:10481000D144000038B5054624F0FAFA90F84B3040
:10482000044653B901462322104842F03CFD282299
:1048300004F123010E4842F036FD0C4CD4F84B0035
:1048400070B194F84F102AF013F8002384F84F3019
:1048500084F84B3084F84C3084F84D3084F84E3076
:104860002846BDE8384024F073BA00BF5C870020BA
:104870007F87002070B5094CD4F84B3005460E46B2
:104880004BB98F2106482EF09BFB18B9C4F84B603A
:1048900084F84F5070BD6FF00300FBE75C87002089
:1048A000154800002DE9F04F1B218BB0834624F002
:1048B00043FC044690F81390584624F0A9FAB9F145
:1048C000150F827814BF1B2314239A4288BF83706C
:1048D0008246FFF71BFD407824F026FB237E002B49
:1048E000237D0CBF00220422002B14BF00230823C9
:1048F00042F010020546134305F8013B237E2BB11D
:104900002846B4F8191029F09AFE0546637D2B70ED
:10491000B9F1150F14BF0D2316236B70207BFEF722
:1049200069FE237DB4F80F10002B14BF0222012270
:10493000FEF79FFF00274368AF7041880246EE1CD8
:1049400000296CD10AA94FF6FD73304621F8023DCB
:10495000022242F0A8FC2123B9F1150F6B714FF030
:10496000010312BFAE1DAB71EE1DAB70FFF7CEFCA5
:10497000002340780493B4F80F300393B4F8113057
:104980000293237B0193E37A0093621C0223314656
:10499000FFF72CFCFFF7BAFC80F801B00BB0BDE8C4
:1049A000F08F1888BAF800C081B28C4535D8000461
:1049B00033D4B9F1150F19D194F818C001F480401F
:1049C000BCF1000F10D088B901375188F8B2013915
:1049D000814203D99AF802C0C445E2D881428CBF13
:1049E00000210121A970C1E70028EDD13046CDE9B1
:1049F000063229F024FE069B079A99780170B9F1D6
:104A0000150F08BFD97808F1010809BF01F00301AB
:104A1000461C4170861C5FFA88F80833D4E7B84614
:104A2000D3E72DE9F04780460E46914624F0E6F89C
:104A30000546002851D04A4631884046FEF7A2FA82
:104A4000FFF764FCD0F89C30002B41D0342128467D
:104A500024F072FB71680446B078FEF761FCB3780D
:104A6000482B074603D027D8413B022B28D839468C
:104A7000284624F01FFA34218246284624F05CFBA5
:104A800004463A464946504642F00DFC2773C4F8A6
:104A900010A00023237098F80C306370B378A370D3
:104AA000B8F80F30238133886381FFF72FFCD0F8EB
:104AB0009C30284698470BE04A2BD8D0F12BD6D013
:104AC0003A46494604F10C0042F0EDFB002CE0D1DF
:104AD0002846BDE8F04724F03BB9BDE8F087000068
:104AE00010B507490446FFF7C5FE043006D121463C
:104AF00000220448BDE8104029F0E0BF10BD00BF0F
:104B0000874C0000E14A000070B50C46272C054692
:104B100011461E4623D050D81A2C3FD029D80D2C30
:104B200000F09A8014D80A2C38D006D8082C00F04F
:104B30008980092C76D0284670BD0B2C00F0868029
:104B40000C2CF8D12846052242F0ADFB0535F2E7E2
:104B5000102C77D009D80E2C29D00F2CEBD1284659
:104B6000082242F0A0FB0835E5E7182C6AD0192C82
:104B7000E0E7202C66D00AD81D2C6DD003D81B2C62
:104B800064D01C2CDDE71E2C11D01F2CE6E7232C53
:104B90005CD009D8212C45D0222CCCD12846032228
:104BA00042F081FB0335C6E7252C55D0CAD92846EB
:104BB000072242F078FB0735BDE7392C46D018D8DC
:104BC0002D2C49D00AD82A2CE8D003D8282C39D04B
:104BD000292CAFE72B2C39D02C2CB2E7302C31D03C
:104BE00003D82E2CE3D02F2CB8E7312C1AD0382C38
:104BF000A0E7E22C11D8E02C28D2432C03D8412C7A
:104C000005D23A2CAAE7482C01D04A2C93D1284649
:104C1000324642F048FB35448DE7EA2C16D007D8DF
:104C2000E82C88D32846022242F03DFB023582E779
:104C3000F02C94D0F12C7FF47EAF102242F033FBA5
:104C4000103578E70B7805F8013B74E72846042215
:104C500042F029FB04356EE72846062242F023FB8A
:104C6000063568E710B5436800220BB9184610BD39
:104C70001C888C42FAD044880132944203F1080324
:104C8000F3D80023F2E72DE9F04F1B218FB0074640
:104C900024F052FA437B0546C3F34013007B08938C
:104CA000FEF7A8FC2B7DB5F80F10002B0CBF0122DE
:104CB0000222FEF7DEFD0990FFF728FB407824F082
:104CC00033F92B7E002B2B7D14BF04220022002BF6
:104CD0000CBF0823002342F01002134300F8013BED
:104CE0002B7E1BB1B5F8191029F0A9FC6B7D037060
:104CF00001234370841C384624F08AF882463846E3
:104D000024F090F843080A934FF000080A9B5FFADA
:104D100088F1994252D202220AEB41010DF136008C
:104D200042F0C1FABDF836100998FFF79BFFB5F8BD
:104D30000F100646B5F81100FFF7EAF808B3FFF7C1
:104D4000E5FA2146407824F00AF9C0F5CA6909F16C
:104D50000109FEB9BDF836104FF6FD73994262D1D4
:104D60000DF136010222204642F09DFA2123A67061
:104D7000E3700121201D29F062FC044608F10108BE
:104D8000C4E7FFF7C3FA2146407824F0E8F8C0F101
:104D90005209DEE77168002945D0F37813F0400B23
:104DA00041D1DA0728D49B073FD5FFF7C1FA012884
:104DB0000CBF7E268F26B9F1020F3AD8FFF7A6FA6C
:104DC000089A40780023CDE90432CDE90633B5F8DE
:104DD0000F300393B5F8113002932B7B0193EB7ADC
:104DE00000936A1C02232146FFF734FAFFF78EFA7C
:104DF00047700FB0BDE8F08FB078FEF791FA011D53
:104E0000894514D30B903188204629F018FC80F88E
:104E100000B0B2780B9B42709BB27268B1780230DE
:104E2000FFF772FEA9E78626C5E70126C3E78926B4
:104E3000C1E72046BDF8361029F001FC044604F80D
:104E4000016B9BE710B51B21044624F075F9B0F8FF
:104E50000F2040F605339A42204603D1BDE81040AA
:104E6000FFF73EBEBDE81040FFF70DBF70B50D4621
:104E700016461C46FEF7BEFB29463246FEF7F9FCF5
:104E80002146BDE87040FFF7EDBE2DE9F04F1B2134
:104E90008FB0814624F050F90446007BFEF7AAFB50
:104EA000237DB4F80F10002B0CBF01220222FEF765
:104EB000E0FCE37C0D90052B77D0FFF727FA4078D4
:104EC00024F032F8237E002B237D14BF042200221D
:104ED000002B0CBF0823002342F01002134300F8FC
:104EE000013B237E1BB1B4F8191029F0A8FB637DA8
:104EF000037004234370851C484623F089FF07464E
:104F0000484623F08FFF00230B9301230A90099357
:104F10009DF82C300C930A9B032B54D9002F56D0AC
:104F2000F91CB878FEF7FCF903305FFA80FB3E46C7
:104F30000A9B9B4500F2F780002E00F0F480B6F843
:104F400000A00D985146FFF78DFE8046002840D105
:104F50004FF6FD739A4514BF4FF0860A4FF0880A4A
:104F6000E37C052B1ED015B3B4F80F10B4F8110074
:104F7000FEF7CEFF002868D0FFF7C8F92946407831
:104F800023F0EDFFC0F5CA600130022894BF002075
:104F90000120B0B12846022200F801AB314642F0B0
:104FA00082F903350023099302E00025A4E709955F
:104FB0000A9BA3EB0B030A930B9B01335F440B93F8
:104FC000A6E70990F4E700264FF0FF0BB0E73E4656
:104FD000FAE74368002B32D08278B3789A4231D115
:104FE000237DB4F80F20217B002B06F103030C93E3
:104FF0004FF00103019306F1030300930CBF01235B
:105000000223FEF7DBFB82460028A9D1E37C032BB9
:10501000CED0237DB4F80F10207B0022002BB8F8EF
:10502000003001920C9A00920CBF01220222FEF77E
:1050300039FC0C9A41462046FFF7F3FCB8E74FF0E5
:10504000860A8DE74FF08D0A8AE7FFF75FF9294658
:10505000407823F084FFC0F1520096E700264FF01D
:10506000FF0B7BE03E46FAE7E37C052B55D0099B1E
:105070002BB115B30C9B03B3002305F8013BB9F129
:10508000000F43D0FFF742F900234078CDE9063303
:10509000627BC2F34012CDE90432B4F80F300393BF
:1050A000B4F811300293237B0193E37A0093621CDE
:1050B00002232946FFF7CEF828E0FFF727F94078CA
:1050C00023F032FF237D002B0CBF18231023037025
:1050D000637D43700B238370E37CC3708023037173
:1050E0000546FFF713F9002640780496B4F80F3010
:1050F0000393B4F811300293237B0193E37A009376
:10510000621C0223691DFFF771F8B146FFF7FEF834
:1051100080F801900FB0BDE8F08F48460FB0BDE8B1
:10512000F04F23F015BEE37C032B9DD1099B002B90
:105130009AD0484623F06CFE0746484623F072FE9C
:105140008046B8F1030F89D9002F8BD0F91CB878AD
:10515000FEF7E6F803305FFA80FB3E46C34583D88E
:10516000002E81D036F8031B0D98FFF77BFD227DC2
:10517000B4F80F108246002A4FF00002207BBAF8E4
:105180000030CDE900620CBF01220222FEF78AFB4B
:105190003246514620465F44A8EB0B08FFF741FC1E
:1051A000CFE700002DE9F04F1B2189B0804623F0A6
:1051B000C3FF0546FFF7AAF8407823F0B5FE2B7E23
:1051C000002B14BF1C23182300F8013B2B7E1BB1BE
:1051D000B5F8191029F033FA6B7D03700923437079
:1051E000841C287BFEF706FA2B7D0690002B0CBF53
:1051F00001220222B5F80F10FEF73BFB8346404622
:1052000023F010FE022840F2C080404623F000FE4A
:10521000002800F0BA8090F800A0B0F801900321B7
:10522000404623F0BFFEB5F80F10B5F81100FEF7A9
:105230006FFE00283CD0FFF769F82146407823F044
:105240008EFEC0F5CA60013086B2032E40F29D800A
:1052500049465846FFF706FD0746002800F08A80B9
:105260004368002B00F08680C3785B0740F189809B
:1052700006989BF80820BBF8001000784B4602F017
:105280002BFA079000287ED0092E7ED900222270AA
:1052900084F801A0A01C494629F0D1F9079B0446D7
:1052A000BAF1000F0DD0BAF1010FA8D1198A3DE073
:1052B000FFF72CF82146407823F051FEC0F1520050
:1052C000C2E7BA7800F8012B5A8A198A079329F0A5
:1052D000C2F90446B878FEF77BF900288FD0BA7877
:1052E000079B203A0B2A8AD801A151F822F000BF6F
:1052F000215300002953000045530000555300007E
:10530000FF51000065530000FF510000FF510000F5
:105310002153000035530000455300005553000051
:105320001B7D04F8013B6AE7998A204629F087F93A
:10533000044664E72046022203F1140141F0B3FF62
:1053400002345CE72046032203F1140141F0ABFF75
:10535000033454E72046042203F1140141F0A3FF73
:1053600004344CE72046062203F1140141F09BFF70
:10537000063444E78623237084F801A04946A01C24
:10538000D4E78C23F7E78B23F5E7FEF7BFFF002375
:1053900040780493B5F80F300393B5F811300293B9
:1053A0002B7B0193EB7A00936A1C02232146FEF7C4
:1053B0001DFFFEF7ABFF80F8018009B0BDE8F08F5C
:1053C0002DE9F04F1B218DB0804623F0B5FE044639
:1053D000007BFEF70FF9237DB4F80F10002B0CBFF4
:1053E00001220222FEF745FA0690FEF78FFF407871
:1053F00023F09AFD237E002B14BF1C23182300F8F2
:10540000013B237E1BB1B4F8191029F018F9637D14
:10541000037000270723DFF8E4B14370851CB94609
:10542000404623F0FFFC042844D800264FF0FF0A32
:10543000404623F0F7FC824500F2B98051464046D1
:1054400023F0B0FD002E00F0B280B6F801300698CF
:1054500007931946FFF706FC327809F10109002A83
:105460005AD1079B002842D14FF6FD77BB4214BFAB
:1054700086278C27B4F80F10B4F81100FEF748FD0A
:10548000002800F08B80FEF741FF2946407823F08A
:1054900066FDC0F5CA60013080B2032808D92F70BC
:1054A00033786B70A81CB6F8011029F0C8F80546CF
:1054B0000127B5E7404623F0ABFC06460028B4D0F0
:1054C0000378012B0DD0C078FEF782F860B1F07838
:1054D000FEF774F808305FFA80FA404623F0A2FC29
:1054E000A6E74FF0050AA3E74FF0080AA0E74368D4
:1054F000002B4BD08378412B48D003F0FD02482A83
:1055000044D0C278520743D5F2789A4242D1F38808
:1055100013B1B2889A423FD8237B8DF82430227C85
:10552000E37B43EA0223ADF82A30E37A8DF8253095
:10553000B4F80130ADF82630637CA27C43EA022344
:10554000ADF82830237D002B0CBF0123022309A9CD
:1055500030468DF82C3002F089FB00283FF460AF14
:10556000DBF8002082B907900CF02CFC079B014669
:1055700050B901930423009340F6120240F2D44341
:105580004FF0FF3029F06EFF012773E7862771E7A0
:105590008C276FE78D276DE787276BE7FEF7B6FE51
:1055A0002946407823F0DBFCC0F1520074E7B9F1E2
:1055B000000F1DD1802305F8013BFEF7A7FE002355
:1055C00040780493B4F80F300393B4F81130029389
:1055D000237B0193E37A0093621C02232946FEF7A2
:1055E00005FEFEF793FE80F801800DB0BDE8F08F58
:1055F000002FE2D105F8017BDFE700BFD89D002036
:105600002DE9F04F8A46C3880279418889B0054662
:105610004078FFF72BFC90F80390504623F084FC71
:1056200009F02006C9F340194FEA890343F0080343
:1056300004460370002E69D06878FDF7DBFF2A79F5
:105640006988FEF716F9B0F80910601C28F0F7FF1A
:105650000446FEF75BFE03785A1C027023700A238F
:10566000637002342E4640F2516BF38832797188B0
:105670007078FFF7FBFB71880746B08DFEF748FC9A
:10568000214600284CD0504623F069FCABEB0000CB
:105690001FFA80F87968B878FDF742FEC21C904581
:1056A00007901ED33988204628F0C9FFBA7800F841
:1056B000012B079B7A68B9789BB2FFF725FA394628
:1056C0000446304602F0DFF8337A23F0160343F045
:1056D000200333724946284602F051F80646002856
:1056E000C3D1124B04936B880393AB8D02936B78F9
:1056F000019395F82A30009305F1280200232146F2
:105700005046FEF773FD09B0BDE8F08FFEF7FEFDD1
:1057100003785A1C027063700A23A3700334A1E754
:10572000504623F01CFCC0F15200B1E7A97D0000F7
:105730002DE9F0438FB000230F461B21069304464A
:1057400023F0FAFC1B22014607A841F0ACFD2046DD
:1057500023F068FB022807D0852207A9204600F025
:1057600058FF0FB0BDE8F083204623F051FB9DF8B1
:10577000343006784578002B60D0FEF7C7FDD0F8AE
:10578000F030002B46D14FF00008512D204628BFA5
:10579000512523F0C9FB9DF83430002B9DF83030A3
:1057A00014BF04220022002B0CBF0823002342F068
:1057B0001002134300F8013B9DF834301BB1BDF8D3
:1057C000351028F03CFF9DF831300370002F14BFD6
:1057D00012231423437000238370C11C1A46DFB2C6
:1057E000B84500F288800123837000230493BDF83C
:1057F0002B300393BDF82D3002939DF82830019390
:105800009DF8273000930DF11D0202232046FEF77C
:10581000EDFCA6E7FEF77AFD0DF1180ECDE9007E4E
:105820009DF830C0D0F8F080BDF83530BDF82B20A1
:105830009DF828106046C0478046A6E79DF82800DE
:105840009DF83080BDF82B90FDF7D4FE00289AD04B
:10585000B8F1000F0CBF012202224946FEF709F8F9
:10586000002890D0B8F1000F2CD1037A03F0010387
:10587000002B88D09DF83030BDF82B109DF8280003
:10588000002B0CBF0122022200F046FE0346002836
:105890003FF479AFFF20984700283FF474AFCFB1B1
:1058A000FEF734FDD0F8583293F80080FEF72EFD55
:1058B000D0F858325B680693FEF728FD0023C0F845
:1058C000583262E7B8F1010F7FF45DAF037AC3F39A
:1058D0004003CDE7FEF71AFDD0F8583293F8088060
:1058E000FEF714FDD0F85832DB680693FEF70EFD84
:1058F000C0F8587249E7069FFF5CBE4206D80132E5
:10590000D2B2954201F8017B7FF66FAF013366E7B3
:1059100037B51B21054623F00FFCC37C0446162B2C
:1059200064D8DFE803F00C123A3A293A4229466675
:105930003E4E4A666363635C6661664A660028465B
:10594000FFF780FA012003B030BD324BD3F8903D11
:10595000B3B9B4F80F300A2B04D1284603F01EFB6C
:105960000028EFD11B21284623F0E6FBB0F81120D8
:105970004CF25D239A4208D0284623F0E9F9E1E78A
:10598000284698470028E4D0DCE7B0F80F40012C07
:10599000F2D12846FEF7C8FED4E72846FFF775FA8D
:1059A000D0E7284602F052FACCE72846FFF708FD78
:1059B000C8E72846FFF7F6FBC4E72846FEF772FF64
:1059C000C0E71B21284623F0B7FBB0F80F30192B96
:1059D000D2D1284600F0DFFD0028B3D1CCE7012169
:1059E0002846FFF7A5FEADE70021F9E70A4B1B6843
:1059F0000BB10020A7E70CF0E5F90028F9D10090E1
:105A000001464FF4E46340F612024FF0FF3029F0F4
:105A100029FDEEE7C08D0020D89D002070B5FF283D
:105A20008EB0054607D1FEF771FC204BC0F8583206
:105A300001200EB070BD1B2123F07EFB1B2201460E
:105A400007A841F030FC9DF83040012C2CD19DF886
:105A50002F30032B28D89DF8336028460EBB23F047
:105A600063FA182303709DF8313043700B23837061
:105A70009DF82F30C3700671BDF82B300393BDF82D
:105A80002D3002939DF8283001939DF82730009324
:105A9000411D049602230DF11D022846FEF7A6FBC8
:105AA000C6E723F055F9C3E70020C2E73400002021
:105AB00007B5054B009300231A460221042000F08D
:105AC000A9FB03B05DF804FB1D5A000010B50446A5
:105AD00023F0B8FB2046BDE8104023F039B90000A0
:105AE00038B50621044623F027FB037923B120466D
:105AF000BDE8384023F02CB91821204623F01CFBC8
:105B00000546204623F084F918220146284641F034
:105B1000CAFB20460249BDE838402BF05FBF00BFFA
:105B2000CD5A000010B5102301224FF4A0610446A5
:105B3000FFF79CF9012243684FF4A0612046BDE8BD
:105B4000104012F0EFB8000010292DE9F743044689
:105B50000D46164640F0858023F04CF82B46012276
:105B60000746B4F80F10207BFFF780F91821804614
:105B7000384623F09FF905461822002105F10D094A
:105B800041F0B5FB4946B4F8010022F0DDFC10F10C
:105B90001C0F19D10DF107030122B4F80110304692
:105BA00022F0CCFD08223146484641F07CFB3146CC
:105BB00098F80200D8F80490FDF7B2FB314602468F
:105BC000484641F061FB0DE00028EBD1314698F8E2
:105BD0000200FDF7A5FB31460246484641F054FB62
:105BE0000028E4D0207BFFF79DFF064600283BD12C
:105BF0004EF201030122B4F80F10207BFFF736F9B3
:105C00004368E27A1A70B4F80F10207B4EF2020358
:105C10000122FFF72BF94368B4F801201A802846C7
:105C200029F054FE237B2B72E37A6B75B4F80F30A6
:105C30006B8103232B7329F0D3FE0821E8823846B9
:105C400023F07AFA08220546314641F050FBB4F8B9
:105C50000F306B80FF232B70064B6B60384611F0C2
:105C600015FC03B0BDE8F083002FFAD0384623F0CE
:105C70006FF8F6E7E15A00000020704770B51D216B
:105C800088B0054623F058FA1B220146064601A8B3
:105C900041F009FBFEF73AFBD0F89C300BB33421FE
:105CA000284623F049FA0222044606F11B01083077
:105CB00041F004FB062323709DF81030637000232D
:105CC0006360FEF723FBD0F89C3028469847606855
:105CD000FEF768FB01A90246284600F0E1FC08B087
:105CE00070BD6FF01E00F3E738B5012200230321D9
:105CF0000546FFF7BBF8B8B14368ABB11C8844B1A7
:105D0000013C1C80294642220848BDE8384028F062
:105D1000D5BE2846FDF76EFCD0F8070020B121461D
:105D2000BDE8384028F0A4BD38BD00BFE95C0000E4
:105D300007B5054B0093054A054B0121032000F0F0
:105D400069FA03B05DF804FB19600000795C00009B
:105D5000C160000007B5054B009300231A460221DD
:105D6000032000F057FA03B05DF804FB396000002F
:105D700070B500230E46012203210546FFF776F891
:105D8000F8B14368EBB11C881E8043681B880BB9CF
:105D9000002070BD002CFBD1224629460A4829F07C
:105DA00055F842222946084828F088FE2846FDF783
:105DB00021FCD0F807000028EAD0012128F058FD86
:105DC000E6E78620E5E700BFE95C000013B510B9FF
:105DD000002002B010BD002301220321FFF746F886
:105DE00028B143681888003018BF0120F1E70A4B3A
:105DF0001B68002BECD10BF0E5FF04460028E7D12F
:105E0000009001464FF4C0734FF0FF3040F26462DF
:105E100029F028FB2046DCE7D89D002070B51B2127
:105E200090B0044623F088F91B22014609A841F0EE
:105E30003AFA9DF83730012B43D005D3402B00F0C0
:105E40008C80002010B070BD9DF838508DBB20466E
:105E500022F0E8FF012804D86C4B1B68B3B1802501
:105E60000DE0204622F0D4FF0222014608A841F0AE
:105E70001AFABDF820109DF83000FFF779FF2A4686
:105E800009A9204600F00CFC0120DBE70BF09AFF8B
:105E90000028E4D1204622F0C5FF0423019000939E
:105EA00040F26462BD2329464FF0FF3029F0DAFA50
:105EB000D5E7574BD3F8943D002BE5D020469847C3
:105EC000E2E7524B1B685BB90BF07CFF014638B927
:105ED0000090D22340F264624FF0FF3029F0C2FA02
:105EE0009DF83000FFF772FF024688B301220023BD
:105EF00003219DF83000FEF7B9FF0646204623F047
:105F000013F8192303709DF839304370002585700C
:105F100073680330198828F092FB9DF83130C3F381
:105F20004013CDE9045303230393BDF835300293A6
:105F30009DF8303001939DF82F3000930146CDE954
:105F4000065502230DF125022046FEF783F99BE753
:105F500009A9204600F0E5FB96E7204622F062FF03
:105F600001281BD9204622F053FF0222014608A82F
:105F700041F099F91D21204623F0DEF809A90546D4
:105F80001B2241F09BF99DF82030EB769DF82130E3
:105F90002B7721461F4828F06BFC75E71B4B1B68CD
:105FA0008BB90BF00FFF054668B9204622F03AFF87
:105FB00004230190009340F26462F12329464FF0DC
:105FC000FF3029F04FFA204622F0AEFF182303706D
:105FD0009DF8393043700B2383704023C3708023B6
:105FE000037100220323CDE90332BDF8353002935B
:105FF0009DF8303001939DF82F300093411D02230E
:106000000DF125022046FEF7F1F83DE7D89D00206E
:10601000C08D00207D5C0000FF2808B503D0BDE8DE
:106020000840FFF7FBBEFEF771F9024BC0F858328B
:10603000012008BD60000020FF2808B503D0BDE89E
:106040000840FFF7EBBEFEF761F9024BC0F858328B
:10605000012008BD5000002037B500230122032194
:106060000546FEF703FF044698B100222946124870
:1060700028F0ECFE636800241C802846FDF7BAFA7D
:10608000D0F80700A8B1214603B0BDE8304028F0A1
:10609000EFBB0A4B1B6863B90BF094FE014640B995
:1060A000009040F2A71340F264624FF0FF3029F0F5
:1060B000D9F903B030BD00BFE95C0000D89D0020D5
:1060C00037B5044602A800230D4620F8023D1146CC
:1060D000022241F0E8F82DB9BDF80610204619B1AA
:1060E000FFF746FE03B030BDFFF7B6FFFAE710B585
:1060F000FEF70CF94FF43072002141F0F8F8FEF78A
:1061000009F90C22002141F0F2F8FEF7FFF80446ED
:1061100022F074FD6070FEF7F9F8BDE8104001F060
:1061200007B90000F7B50C461C21064623F004F819
:106130000546304622F076FE0746304622F068FEDD
:10614000037813F0040F0CBF032305239F4214D2DE
:106150002F4B1B681BB18026304603B0F0BD0BF0FF
:1061600031FE01460028F6D10090D72340F61A02EE
:106170004FF0FF3029F076F9EDE700232370B5F8F2
:106180000130A4F801302B7AE372B5F80330A4F89B
:106190000930EB7923732B7863732B7DA27BC3F3D8
:1061A000C00363F3C302A273B5F80930A4F80F303B
:1061B000B5F80B30A4F81130304622F029FE0378F0
:1061C00003F00303012B14BF01230023A3750378FD
:1061D0000146C3F3C003237511F8013BC3F3001359
:1061E000E3750378C3F3800305468CBF852600263C
:1061F00063B101232376022204F1190041F053F820
:10620000E91C0B7863754B78E374A5E72376F8E710
:10621000D89D00202DE9F047DDF820808246894690
:1062200017461E46B8F1000F05D122B91BB96FF011
:106230000600BDE8F087FEF769F890F85432132B9A
:10624000F5D8002409E0FEF761F804F10F052D01EF
:1062500028448388534507D00134FEF757F890F857
:1062600054329C42EFD305E0FEF750F8284483797E
:106270004B45F1D1FEF74AF890F854329C4202D0D7
:106280006FF01A00D5E7FEF741F804F10F052D0174
:1062900028442401A0F804A0FEF738F8284480F828
:1062A0000690FEF733F82844C0F80880FEF72EF871
:1062B0002044C0F8FC70FEF729F80444C4F80061DB
:1062C000FEF724F890F85432013380F8543200205D
:1062D000AFE7F8B506460F460025FEF717F890F829
:1062E00054329D4201D3002012E0FEF70FF805F171
:1062F0000F04240120448388B3420AD1FEF706F834
:1063000020448379BB4204D1FEF700F82044806822
:10631000F8BD0135E1E70000F0B51C4B1B6885B006
:1063200006460F467BB90BF04DFD014658B90823D0
:106330000093CDE901674FF4B87340F61A024FF0AD
:10634000FF3029F08FF80024FDF7E0FF90F8543279
:10635000A34201D8002014E0FDF7D8FF04F10F0597
:106360002D0128448388B3420DD1FDF7CFFF284487
:106370008379BB4207D1FDF7C9FF00EB0410D0F8C9
:10638000FC0005B0F0BD0134DEE700BFD89D002061
:10639000F0B51C4B1B6885B006460F467BB90BF069
:1063A00011FD014658B908230093CDE9016740F279
:1063B000891340F61A024FF0FF3029F053F80024F9
:1063C000FDF7A4FF90F85432A34201D8002014E056
:1063D000FDF79CFF04F10F052D0128448388B3428B
:1063E0000DD1FDF793FF28448379BB4207D1FDF718
:1063F0008DFF00EB0410D0F8000105B0F0BD0134B2
:10640000DEE700BFD89D002070B511F1FF3418BF42
:10641000012406460D46FDF779FF2334240120446C
:106420008388B34201D0002070BDFDF76FFF204488
:106430008379AB42F7D1FDF769FF20448068F3E729
:10644000F0B5194B1B6811F1FF3585B007460E46B4
:1064500018BF01257BB90BF0B5FC014658B90823DC
:106460000093CDE9017640F2CD1340F61A024FF0C9
:10647000FF3028F0F7FFFDF749FF05F12304240161
:1064800020448388BB4202D0002005B0F0BDFDF758
:106490003DFF20448379B342F6D1FDF737FF00EB8F
:1064A0000510D0F83C02F0E7D89D0020F0B5194B5C
:1064B0001B6811F1FF3585B007460E4618BF012550
:1064C0007BB90BF07FFC014658B908230093CDE956
:1064D00001764FF4EF7340F61A024FF0FF3028F0C8
:1064E000C1FFFDF713FF05F1230424012044838835
:1064F000BB4202D0002005B0F0BDFDF707FF2044ED
:106500008379B342F6D1FDF701FF00EB0510D0F817
:106510004002F0E7D89D002070B506460C461546AF
:1065200029F046FA38B1C42E05D129462046BDE8E7
:106530007040FFF769BF29462046BDE87040FFF76D
:10654000C8BE70B506460C46154629F031FA38B17A
:10655000C42E05D129462046BDE87040FFF770BF24
:1065600029462046BDE87040FFF7D6BE70B5064606
:106570000C46154629F01CFA38B1C42E05D129461F
:106580002046BDE87040FFF791BF29462046BDE890
:106590007040FFF7FDBE10B51B21044622F0CCFD74
:1065A000037DB0F80F10007B002B0CBF01220222EC
:1065B000FFF7B2FF034618B12046BDE81040184768
:1065C00010BD70B51B21064622F0B6FD05463046CB
:1065D000FDF7C0FB044680B9AB7D30467BB1FFF7C9
:1065E00097F950B9FDF7A4FE012810D02A7EAB7DA3
:1065F00042B1002B0CBF83248424204670BDFFF7DA
:10660000CAFFEEE7002B0CBF81248224F5E781242A
:10661000F3E770B51646B1F809204FF6F7739A42C2
:1066200086B005460C4634D84B7B13F00C0F30D1A6
:10663000CB7D03B16EB3A37D13B1E37C0B2B28D0CC
:106640002378013B012B24D9284622F06DFC237DC1
:10665000002B0CBF182310230370637D43700B23A2
:106660008370E37CC370067100230493B4F80F3089
:106670000393B4F811300293237B0193E37A0093E0
:10668000411D0223621C2846FDF7B0FD012006B023
:1066900070BD2846002DFAD022F05AFB0020F6E704
:1066A00070B51646B1F809204FF6F7739A4286B0D6
:1066B00005460C462FD84B7B13F00C0F2BD1CB7D0E
:1066C00003B146B3A37D13B1E37C0B2B23D0237816
:1066D000013B012B1FD9284622F026FC182303700A
:1066E000637D43700B238370E37CC37006710023CA
:1066F0000493B4F80F300393B4F811300293237B62
:106700000193E37A0093411D0223621C2846FDF7A2
:106710006DFD06B070BD284606B0BDE8704022F0A1
:1067200017BB70B51646B1F809204FF6F7739A42B9
:1067300088B005460C4635D84B7B13F00C0F31D191
:10674000CB7D03B176B3A37D13B1E37C0B2B29D0B2
:106750002378013B012B25D9284622F0E5FB18239D
:106760000370637D43700B238370E37CC3700671F9
:10677000627B0023C2F34012CDE90432CDE9063337
:10678000B4F80F300393B4F811300293237B0193D4
:10679000E37A0093411D0223621C2846FDF75AFD4F
:1067A00008B070BD284608B0BDE8704022F0D0BAED
:1067B00070B51646B1F809204FF6F7739A4286B0C5
:1067C00005460C4643D84B7B13F00C0F3FD1CB7DD5
:1067D0000BB1002E3BD0A37D13B1E37C0B2B36D045
:1067E0002378013B012B32D9284622F09DFB237EE2
:1067F000002B237D14BF04220022002B0CBF082392
:10680000002342F01002134300F8013B237E1BB12A
:10681000B4F8191027F013FF637D03700B23437046
:10682000E37C8370C67000230493B4F80F300393A5
:10683000B4F811300293237B0193E37A0093011D96
:106840000223621C2846FDF7D1FC06B070BD284625
:1068500006B0BDE8704022F07BBA000030B589B0C8
:10686000182302AA24F058FD0546002878D10121FA
:106870004FF4A060FDF7BCF9044600285ED0102359
:1068800001224FF4A061FEF7F1FA08220DEB02019C
:10689000406840F008FD2B4601224FF4A0612046DD
:1068A000FEF7E4FA43689DF811201A704FF4A061D6
:1068B000112301222046FEF7D9FA43689DF81420DF
:1068C0001A704FF4A0614EF2010301222046FEF738
:1068D000CDFA43689DF810201A704FF4A0614EF273
:1068E000020301222046FEF7C1FA4368BDF81220D8
:1068F0001A804FF4A0614FF4604301222046FEF756
:10690000B5FA43689DF81F201A709DF81F30ABB18F
:106910002046FFF707F9044680B1124B1B686BB99C
:106920000BF050FA014648B90423009301948323E5
:1069300040F608024FF0FF3028F094FD012120209E
:10694000FDF756F960B14EF6FE7301222021FEF7E5
:106950008DFA4368BDF816201A809DF815209A70AC
:1069600009B030BDD89D002070B586B0182205460C
:106970000E466846002140F0BAFC01214FF4A060A9
:10698000FDF736F90446002845D0102301224FF4C4
:10699000A061FEF76BFA08224168684640F083FC6C
:1069A000002301224FF4A0612046FEF75FFA4368FE
:1069B0001B788DF8093001224EF201034FF4A061DB
:1069C0002046FEF753FA43681B788DF80830012201
:1069D00011234FF4A0612046FEF748FAA8B343689C
:1069E0001B788DF80C304EF2020301224FF4A061A7
:1069F0002046FEF73BFA43681B88ADF80A300122B7
:106A00004FF460434FF4A0612046FEF72FFA43682D
:106A10001B788DF8173001212020FDF7E9F860B1CF
:106A20004EF6FE7301222021FEF720FA43681A88F1
:106A3000ADF80E209B788DF80D3018236A4631464C
:106A4000284625F037F806B070BD8DF80C00CAE76F
:106A50002DE9F843FDF75AFC4468002C36D104EBCD
:106A60004400C00080B2BDE8F883FDF74FFC4368E6
:106A7000D3F8013053F82630D3F81A304FEA86089D
:106A80009BB1FDF743FC4368D3F8013053F826303F
:106A9000D3F81A900025FDF739FC4368D3F801308C
:106AA00053F808305B7EAB4207D80136FDF72EFC69
:106AB00043681B78B342D8D8D1E707FB059301356B
:106AC0001B7ADB0744BF0134A4B2E4E70024264666
:106AD0003027EBE72DE9F04F89B083460191002480
