:1000000000000220B5020000DD020000DF02000057
:10001000E1020000E3020000E50200000000000031
:10002000000000000000000000000000E7020000E7
:10003000E902000000000000EB020000ED020000F9
:10004000D1F60000693E0400E1F60000EF02000076
:10005000EF020000EF020000F5F30000EF020000E5
:10006000EF020000EF020000EF020000EF020000CC
:10007000EF020000F1F70000EF020000EF020000C5
:10008000EF020000E1B70000EF020000EF02000005
:10009000EF020000EF020000EF020000EF0200009C
:1000A000EF020000EF020000EF020000EF0200008C
:1000B000EF020000EF02000000000000000000005E
:1000C000EF020000EF020000EF020000EF0200006C
:1000D000856C0400EF020000EF020000CD13010068
:1000E000EF0200000000000000000000000000001F
:1000F00000000000EF02000000000000EF0200001E
:1001000000000000000000000000000000000000EF
:1001100000000000000000000000000000000000DF
:1001200000000000000000000000000000000000CF
:1001300000000000000000000000000000000000BF
:1001400000000000000000000000000000000000AF
:10015000000000000000000000000000000000009F
:10016000000000000000000000000000000000008F
:10017000000000000000000000000000000000007F
:10018000000000000000000000000000000000006F
:10019000000000000000000000000000000000005F
:1001A000000000000000000000000000000000004F
:1001B000000000000000000000000000000000003F
:1001C000000000000000000000000000000000002F
:1001D000000000000000000000000000000000001F
:1001E000000000000000000000000000000000000F
:1001F00000000000000000000000000000000000FF
:1002000010B5054C237833B9044B13B10448AFF350
:1002100000800123237010BDD806002000000000DC
:10022000FCF5040008B5034B1BB103490348AFF3C9
:10023000008008BD00000000DC060020FCF5040082
:10024000154B002B08BF134B9D46A3F5803A0021A8
:100250008B460F461348144A121A47F0A6F80F4B64
:10026000002B00D098470E4B002B00D09847002061
:10027000002104000D000D48002802D00C48AFF307
:10028000008047F017F82000290011F0BFFB46F06E
:10029000EBFF00BF0000080000000220000000008B
:1002A00000000000D8060020E0B50020000000009B
:1002B000000000000649074A074B9B1A03DD043B78
:1002C000C858D050FBDC11F011FCFFF7B9FF00005B
:1002D0008CF8040000000020D8060020FEE7FEE7AE
:1002E000FEE7FEE7FEE7FEE7FEE7FEE7FEE7FEE7E6
:1002F0007047000007B5044B0093044A802300F0C8
:1003000032F803B05DF804FB11030000F50600208D
:100310002DE9F84389461446B2B10F4B0F4E032521
:10032000002743F00108224609EB0701002011F0E5
:10033000ABFA0744241A48B933782BB14FF47A400A
:10034000C047013D02D13570BDE8F8830123337009
:10035000002CE8D1F8E700BF20980400F406002044
:10036000704711F0C5BAF0B595B008460D4616466F
:100370001C460EF0A9F91A9A0D920023082205A92D
:1003800028460A938DF82C300C93CDE908640EF0C2
:10039000B9F9079B0293BDF81830ADF80C30BDF8E1
:1003A0001A30ADF80E3001238DF811309DF814305D
:1003B00003F00302012A1DD1BDF81440059EC3F3CA
:1003C000C203C4F383148DF81030A20008230EA9D1
:1003D00028460EF097F9C6F3952608AB00932246FF
:1003E00002AB0EA9304600F045FF28460EF070F92A
:1003F00015B0F0BD022AF8D1BDF81640C3F3C20310
:10040000A4098DF810300827082C264628BF082696
:100410003B4632460EA928460EF074F9A41B08ABE1
:1004200002AA31460EA8374400F088FF002CEBD119
:10043000DBE7000008B5FFF794FF0421034800F054
:1004400077FE034B01225A7108BD00BF00F604007D
:100450000000002000230428CB604B6098BF044BB1
:10046000044A98BF53F820308A600B60704700BF81
:10047000089A0400E4990400CB6800225A7170477E
:10048000C368DB6800225A717047CB6801225A7139
:100490007047C368DB6801225A717047104A8A604E
:1004A000F0B5104A104C0023121BCB604B600B6060
:1004B00022F00F021D46264693420DD006EB030C98
:1004C000E718DCF80CC09CF804C0BCF1FF0F05D0A5
:1004D000854202D1BB680B60F0BD01351033EBE7FC
:1004E0001C9A040030F6040000F604002DE9F74FD2
:1004F000174E184D0093AD1B52F8043C07468A4630
:10050000904625F00F050024B146A54207D1124AB6
:100510000221384603B0BDE8F04F0BF0F9BF09EBFC
:10052000040118468968019347F076FC06EB040B3A
:10053000019B10340028E8D1DDED007A17EE90CA57
:10054000434652465946384603B0BDE8F04F60472F
:1005500000F6040030F60400549B0400014BFFF742
:10056000C5BF00BF750B0000014BFFF7BFBF00BF49
:1005700079040000014BFFF7B9BF00BF8B040000F6
:10058000014BFFF7B3BF00BFAD090000037813F0C4
:10059000040216D003F00303012B03D0022B09D071
:1005A000012070470A6800880232C0F383100244B9
:1005B0000A60F5E70B684288023303EB92130B6085
:1005C000EEE71046704700002DE9F04F484C87B029
:1005D0000F460546861C002001920AF0B3FF2368EF
:1005E0003B60D4E901231344226801339B1A04F2CF
:1005F0001C4704F5836A04F21448B34219D3019AE4
:100600000023002A6CD0012262F3010343F00403AB
:1006100065F389132168A2680A4003320E44002062
:1006200044F8223026600AF08FFF012007B0BDE8B1
:10063000F08F012138460BF0DBFA50460BF0F1FA4F
:1006400040460BF0EEFA0DF118096068D4F808B0D6
:1006500049F8100D00EA0B00033004EB8000494616
:10066000FFF794FF029BB0B90BEA030204EB82028E
:10067000D16803919A1C013303EA0B0B04EB8B0C3A
:1006800001F00303012B0292DCF80CB020D0022B06
:1006900004D083460BE00BEA0300DDE7BDF80E3023
:1006A0009B0903334FEA1B4B02EB93030293404633
:1006B0000BF0BAFA08B1029B6360594638460BF05A
:1006C00097FAD4E901231344226801339B1A94E773
:1006D000BDF80C30C3F383134FEA1B4B1344E5E71B
:1006E000022262F3010343F0040365F39F5391E791
:1006F00010090020012907B5034604D08168D1F80C
:100700005413890707D500221146184603B05DF837
:1007100004EB0DF0B7B853680193054B00931368D1
:10072000044A02210BF0F4FE03B05DF804FB00BFA5
:100730004E980400449804002DE9F3478368D3F8E9
:100740005443C4F34004074634B10022114602B0BA
:10075000BDE8F0470DF096B8144D154EDFF85880FF
:10076000DFF85890DFF858A0761B26F00F06B44249
:1007700002D102B0BDE8F0872B19DA689B681179C5
:10078000FF2906D10B4A082138460BF0C1FE103470
:10079000EDE75279002A0CBF42464A46CDE90021D6
:1007A0003846524608210BF0B3FEF0E700F604008D
:1007B00030F6040063980400D6C504007FC5040029
:1007C0008298040030B50A4B0A4A0B49D21AD20863
:1007D00000239A4201D1052006E031F82350046835
:1007E000A54202D10360002030BD0133F1E700BF14
:1007F000F8F6040030F80400880500208368D3F878
:1008000054339B0703D5002211460DF03BB8024A32
:1008100002210BF07DBE00BFA39804008368D3F8CB
:1008200054339B0703D5002211460DF02BB8024A22
:1008300002210BF06DBE00BFA39804002DE9F84F14
:10084000224B2348FF229A600022C3F81824C3E9F0
:100850000022C3F8142483F820240DF0EEFE804615
:1008600088B91C481C4E1D4DDFF874A00EF089F9A4
:10087000AD1BED084446AC4208D100231849194885
:100880001A469C421BD14046BDE8F88F4FF0000944
:100890004F4606EBC40BBC420AD0142256F8371060
:1008A000DBF8000047F0D2FA0028C8BF09F10109BF
:1008B0000137BD42EFD12AF824900134DBE701EB88
:1008C000830540F823206A800133DAE7100900200D
:1008D00030F80400D8990400F8F6040030F8040059
:1008E000880500202406002007B5019031B9019A3F
:1008F000064B53F8320003B05DF804FB01A8FFF784
:1009000061FF0028F3D00020F5E700BFF8F60400EF
:10091000002310B5CB604B60034B8B600C4601216C
:10092000FFF7E2FF206010BDE4990400094B013994
:1009300003EBC000032909D8DFE801F00A0204062E
:100940000420704700797047407970470020704755
:1009500002207047F8F6040030B5124C00EB40005E
:1009600054F821508240072303FA00F06A40024005
:100970000D4B6A40C2F3821044F8212003EB810141
:10098000C2F3C203834238BF0346C2F3422083420C
:1009900002F0070238BF03469A4238BF1A464A801F
:1009A00030BD00BF24060020880500202DE9F74F48
:1009B00006461D469046002A50D0CB6828684B4911
:1009C00093F80490072247F041FAD0B9B8F1010F2B
:1009D00007D1474A0221304603B0BDE8F04F0BF083
:1009E00097BD444F04460A2257F82410686847F020
:1009F0002DFA002873D00134052CF4D16B683E4ADF
:100A000013E008223D49286847F020FA58B9B8F1A8
:100A1000010F04462BD00127394A3A4B9B1A4FEA63
:100A2000D30A934645E02B68374A0221304603B08B
:100A3000BDE8F04F0BF06CBD08EBC5039B79A342FA
:100A40000FD200212846FFF74FFF524603460221EE
:100A500030460BF05DFD0135BD42EDD103B0BDE880
:100A6000F08F224629464846FFF776FFF3E7244BEE
:100A7000244FDFF89CA0FF1AFF0800259846EBE7FB
:100A8000184600210193FFF72FFF0099202247F01D
:100A9000DDF9019B014608B1013310E00BEBC30205
:100AA0009279A24215D3224619464846FFF754FFD1
:100AB00001374745D2D255F82730009300239A4595
:100AC000DED155F82730114A022130460BF020FDC7
:100AD000EEE71846FFF708FF0D4A0346F4E7B8F1C2
:100AE000020FE4B2C3D0022796E700BFB498040017
:100AF000BB980400F49904001E99040069BE040028
:100B0000F8F6040030F80400D29804000A990400B2
:100B1000E798040013460A46C168FFF747BF000084
:100B200013B504460191A3B162B9019A0F4B04EBCE
:100B30004404072053F82230A0401840E040C0B2DF
:100B400002B010BD01A8FFF73DFE0028EDD0002047
:100B5000F6E72AB9019A064B03EBC2039879EFE74F
:100B600001A8FFF72FFE0028F1D1F3E724060020AB
:100B7000F8F604002DE9F04F274B284A9B1A4FEA5C
:100B8000D309CB685B7985B005460E461BB9244A6C
:100B900002210BF0BDFC234B234A244F0821284699
:100BA0000BF0B6FC224A082128460BF0B1FC0024C9
:100BB0004C4502D105B0BDE8F08FF36893F804808E
:100BC00001231A4621464046FFF7AAFF012221468B
:100BD000834600234046FFF7A3FF0328034628BFB0
:100BE00003235FFA83FA804601212046FFF77CFE4B
:100BF00057F82A3001930F4A0F4B57F82B100091EA
:100C0000D04598BF134602930C4A03460821284654
:100C10000BF07EFC0134CBE730F80400F8F604005A
:100C20003D990400509904005C990400F499040073
:100C30007A990400BCA704003B990400B79904000A
:100C400013460A46C168FFF795BF000037B5164B3B
:100C500093F8203404460BB918B90024204603B099
:100C600030BD47F0EBF802AA013042F8080D01232D
:100C700001A90E480DF093FF05460028EDD121464D
:100C8000009A019846F06DFBDDE900231344074804
:100C900003F8015C00990DF0B9FF009903480EF0CC
:100CA00083F8019CDAE700BF10090020D8990400FE
:100CB000034BD3E90030C31A58425841704700BF74
:100CC000100900202DE9F04F85B0FFF7F1FF06462F
:100CD000002840F018818D4DC5F81804BFF34F8FE0
:100CE0006868AC6804AF47F8100D2040033005EB8E
:100CF00080003946FFF74AFC009B18B1D5F818244C
:100D0000002A66D004EA0302991C013305EB820233
:100D1000234005EB8303D268DB68029302F00303F0
:100D2000022B0192009169D1BDF8063078489DF8F8
:100D300004604FEA931ABAF1A00FD14628BF4FF0D2
:100D4000A00969F38F1309F10801ADF806300DF021
:100D50008CFCC6F3C2068046002800F0BB800DF074
:100D6000B3FC01A90023082240460DF0C0FC009905
:100D700024EA01070137BF00B94538D95FFA89F97C
:100D800097B3FFB2A9EB0709214003315FFA89FB52
:100D9000B946604F05EB810108234A4640460DF0F5
:100DA000A6FC37B109F108035A46394640460DF012
:100DB0009EFC009B0AF1030A03EB9A030093D5F80B
:100DC0001834002B50D1D5F81044DFF85C91072778
:100DD0006FE02A689A4204D86A60304605B0BDE8E0
:100DE000F08F04EA030081E74A49BB46D4E721407B
:100DF000033108234A4605EB8101D7E7012B69D16E
:100E0000BDF804604248C6F38311062928BF0621B5
:100E100061F3891602318900ADF804600DF025FCFC
:100E2000C6F3C2068046002854D00DF04DFC0023C6
:100E3000082201A940460DF05AFC0027BDF8042005
:100E4000C2F38312BB1C97424FEA8303B7D20099C7
:100E50004A1C21400331009205EB810104224046E7
:100E60000DF045FC0137E9E740460DF031FCFFF796
:100E70001FFF80F00100C6B2AFE7E3685A79B2B154
:100E80001B79BDF8081003EB430259F8211007FA4B
:100E900002F3052E03EA010323FA02F308BF032637
:100EA000B34204D3236841461B6820469847E36851
:100EB0001C68002CE1D140460DF00AFC20460AF0E7
:100EC00041FBD5F818340BB9009B6B6000200AF089
:100ED0003BFBCCE7D5F8104474B90F4B5B88012B72
:100EE000C5D90E4B0E480F49C01AC008000440F087
:100EF000020000F073F8BAE7236820469B68984721
:100F0000E3681C68E8E7002667E700BF10090020D7
:100F100030F804001C090020A4050020F8F60400A5
:100F200030F704007C9B0400240600202DE9F74FD5
:100F3000284C80460F46924601A9012218469B463E
:100F4000D4F80890FFF740FB88B3019D0026A91C48
:100F50005E4506EB010234D100211F480AF012FE63
:100F600080F310006A1C02EA090204EB820200040A
:100F700005EA0903033340EA1840D06014F823203F
:100F800068F3C50204F8232034F8232066F389129D
:100F900024F8232054F82320012167F39F2244F8EA
:100FA000232061F301026FF3820204F8232094F8F6
:100FB00020341BB1FFF786FE0028FBD103B0BDE84B
:100FC000F08F09EA020204EB82025AF82630D3605D
:100FD0000136BDE7100900202C0D002000231A4621
:100FE000FFF7A4BF13B502AC012344F8042D224639
:100FF000FFF79CFF02B010BD07B5CDE90023022327
:101000006A46FFF793FF03B05DF804FB1FB5CDE917
:101010000123069B039301AA0323FFF787FF05B073
:101020005DF804FB1FB5CDE90023069B0293079BE7
:1010300003936A460423FFF779FF05B05DF804FBCC
:101040007FB5CDE90123089B0393099B04930A9B79
:10105000059301AA0523FFF769FF07B05DF804FBBC
:101060002DE9F3478046304CD01C8A46174601A92B
:1010700000228008A568FFF7A7FA002840D0DDF815
:101080000490A66809F10200019001362840361A42
:10109000B6000330B74204EB80003BD83A465146D5
:1010A00046F05FF9002121480AF06CFD80F3100042
:1010B00009F101032B4004EB83034FEA184242EA93
:1010C0000040D86005EA0903033304EB830214F8F7
:1010D000231068F3C50104F8231034F823106FF3CC
:1010E0008F1124F82310518867F38F11518014F861
:1010F0002320022161F301026FF3820204F823200E
:1011000094F820341BB1FFF7DDFD0028FBD102B0BD
:10111000BDE8F0873246514646F023F9BA1B0AEB88
:10112000060104F10C00BBE7100900202C0D002083
:101130002DE9F8431F4B8846D3F8101405460024C8
:101140000A469AB9E9680C71D3F81014A1B9C3F82A
:101150001054EB681A60184F184EF61BF6084FF043
:101160000009B14511D12046BDE8F883D268107955
:10117000A04218D01268E4E7C968EA6809681160FB
:10118000D3F81034DB681D60E5E707EBC903494677
:10119000DA79EB68424528BF42461879FFF7DCFB55
:1011A00009F10109DDE701340A2CC9D14FF0FF3400
:1011B000D9E700BF10090020F8F6040030F8040059
:1011C00010B5037A052B0C460FD0437A23B1084A99
:1011D000084920460CF02FFE074920460CF02BFE54
:1011E0002046BDE810400CF01BBE002AF8D0F3E703
:1011F000FB9D0400B7A70400B2A5040073B5C38823
:1012000004460D4633B1144A00921449144A284644
:101210000CF011FE217A05291CD0637A4BB1A0880D
:10122000FFF784FB0F4B104953F8202028460CF0A1
:1012300002FE227A0D4BA08853F822600021FFF7AE
:1012400053FB0B4903463246284602B0BDE87040C6
:101250000CF0F1BD02B070BDFB9D0400089E0400BF
:10126000009E0400CC9D0400B7A704002C9E04003F
:10127000209E04002DE9F04385B01F460C9D0023FD
:1012800006460C46904695F80C902B732946384636
:10129000FFF7B4FFB8F1060F09D8DFE808F0041231
:1012A000181F28334000314628460CF0C4FD0022A8
:1012B00029463846FFF784FF85F80C9005B0BDE855
:1012C000F0832268314628460CF0B5FDEFE7D4E9FB
:1012D0000023314628460CF0AEFDE8E7A3680093F2
:1012E0003146D4E9002328460CF0A5FDDFE7E3688A
:1012F0000193A36800933146D4E9002328460CF0FB
:101300009AFDD4E723690293E3680193A3680093ED
:101310003146D4E9002328460CF08DFDC7E7636908
:10132000039323690293E3680193A3680093314612
:10133000D4E9002328460CF07EFDB8E708292DE902
:10134000F84F80460E4617461C4635D8002593F8C0
:101350000C901D7319461046FFF750FFDFF88CA064
:10136000DFF88CB0AE4229D918F80520594620463E
:101370000CF061FD0135082DF4D11A49DFF874B085
:1013800020460CF058FD4FF0000A564524D918F8B5
:101390000A507E2D17D92E22594620460CF04BFDBF
:1013A0000AF1010ABAF1080FEFD1012221463846AD
:1013B000FFF706FF84F80C90BDE8F88F51462046F1
:1013C0000CF039FDD6E745F09DFF2844427812F035
:1013D000970FE0D02A46DFE7034920460CF02BFDAB
:1013E000DEE700BFF69D0400A6D00400A4D00400F0
:1013F000F09D0400F89D0400074B1B5C1F2B86BF6B
:1014000003F01F0305494FF0A041012202FA03F344
:10141000C1F80C35704700BF789E040000030050EF
:10142000074B1B5C1F2B86BF03F01F0305494FF0C2
:10143000A041012202FA03F3C1F80835704700BF4A
:10144000789E04000003005008B50020FFF7E8FF75
:101450000120FFF7E5FF0220FFF7E2FF0320BDE8D0
:101460000840FFF7DDBFC20710B504460CD54FF0AA
:10147000A0430322C3F83427C3F83827C3F83C2716
:10148000C3F84027FFF7E0FFA3070AD54FF0A043BA
:101490000C22C3F82C27C3F83027C3F86027C3F801
:1014A000642710BDF8B50F4B002420220F460D21F4
:1014B00083F88A201C7083F8784083F88C102246C9
:1014C000234605462EF07CF8064650B121462846B4
:1014D00027F01DFF377029460348BDE8F8402DF07E
:1014E00025BAF8BD328F0020ADFA020073B502AB09
:1014F00000220C4603F8012D114627F057F838B9A1
:101500000A4B9DF8071093F843200D25824202D81C
:101510006FF01B0006E005FB0036F67B8E4203D120
:101520002070002002B070BD0130EFE7328F002044
:101530000B4BD3F801202AB983F8782011460948CB
:1015400027F0FBBB8C2A0BBF0722062283F87820EA
:1015500083F8782007BF0022032100220221EEE752
:10156000328F0020A514000037B5114C054627F036
:10157000ADFC2278042A07D142782AB929460D48C1
:1015800027F0DBFB03B030BD0DF107014088FFF70A
:10159000ADFF0028F6D19DF8073007480D2202FB69
:1015A000034329465A7D01325A752DF0BFF9E9E708
:1015B000328F0020451800000D1A000008B50022E7
:1015C000FF2109482DF0A0FC0022FF2107482DF043
:1015D0009BFC75220021064845F0E7FE054B064AB4
:1015E000C3F8942D08BD00BF311500002D16000072
:1015F000328F002034950020BD1B000010B5002262
:10160000084C094811462DF07FFC94F8440003F083
:10161000EBFC00232022237084F88A2084F87830A1
:1016200010BD00BF328F00202D16000010B50446FB
:1016300020B90948BDE8104027F05ABBFFF7DEFF8C
:1016400000230C2120461A462DF0BAFF21460348FC
:10165000BDE810402DF06AB92D160000ADFA020069
:1016600008B50022FE2105482DF04EFC0022012184
:101670000348BDE8084027F060BB00BF31150000FB
:10168000A514000070B50C4BD3F845302BB11C7C71
:10169000D3F811500023A34201DB002070BDC3EB3F
:1016A00003122A441688864202D1127A8A4201D154
:1016B0000133F0E70120F1E7328F00202DE9F047F8
:1016C000044688B0C0790E4627F000FC90F80BA0C5
:1016D000077B80465744D4F80950BD4280F0908083
:1016E0002B1D08EB4303AA4594BF02210121B3F847
:1016F00005904846FFF7C6FF002800F08A80DFF813
:1017000038A11C21304627F075FDDAF8093005466E
:10171000D046002B50D0217806A826F0CDFBA27928
:10172000DAF809A022444B46527806A90220D04795
:10173000002841D16FF04402D4F809309F4270D1A3
:101740003D4F97F84A30002B67D0B7F875204FF619
:10175000FF739A4261D00025217806A826F0EEFB9F
:101760002B462A4601210095304601F079FDB7F855
:1017700075102CF0C2FF01464FF48273042201F869
:10178000015BCDE90232049597F844300193A379C7
:10179000234406AA5B7800933046022301F0EEFC56
:1017A000A379E17925480133A3712DF0BFF8002317
:1017B000E37108B0BDE8F0871C220021284645F0FF
:1017C000F4FD28462EF0E0F898F844302B72A5F886
:1017D0000A90B8F875204FF6FF739A4212D121781B
:1017E00005F10D0026F068FB03232B73A379234436
:1017F00030465B786B75124B2672AB6115F0F0FECC
:10180000002299E701232B73B8F87530A5F80D3045
:10181000ECE70135C4F809505DE7304627F0F6FAE9
:10182000BEE7002AC5D00133C4F80930314620464E
:10183000FFF744FFBDE700BF328F00200D1A000004
:10184000E11800002DE9F341CFB2054638460C46B9
:1018500027F03CFB204EC1888046D6F8450000F0BA
:10186000A0FFB8F802300DF10701A8B11846FFF744
:101870003DFE30BB9DF807300D2101FB0364294676
:1018800020766076A076E0762046A7750F30FFF7C9
:1018900015FF02B0BDE8F0811846FFF727FE80462D
:1018A00078B99DF807000D2303FB00603946437D9E
:1018B0000133437509482DF039F8002DE9D044462D
:1018C00000E015B1284627F0A1FA002CE1D0E0B2E3
:1018D00027F09CFADDE700BF328F00200D1A0000D0
:1018E0002DE9F04F1C2185B08146304C27F082FC59
:1018F00094F84320834600250D21954215D32C4BA7
:101900001B687BB910F08CFA014658B90423009388
:10191000CDF804904FF4BA7340F25B324FF0FF30D1
:101920002DF0FEFD05B0BDE8F08F01FB05F804EBDE
:101930000803D87D48450DD10026DE75484627F0BE
:10194000DFFC48B16FF07303A670E6702671637018
:10195000012609E00135D0E701236070A070E07036
:10196000207184F84A3006460D2707FB054702A878
:10197000F97B26F0A1FAD4F809A0BAF1000F07D03C
:101980007B7D1F4402A9BBF80A303A7C3046D04721
:101990000D2303FB054508F10F00AB690133AB6173
:1019A00049462044FFF78AFEBCE700BF328F002083
:1019B0004CA5002070B50E4605460146304627F07E
:1019C000A6FC8C2D0F4C03D1072384F8783002E05D
:1019D000B5B984F878502378052B06D1002394F804
:1019E00078200C2130462DF0EBFD002323702023BE
:1019F00084F88A3031460448BDE870402CF096BF28
:101A00000623E2E7328F0020ADFA02002DE9F34110
:101A1000054627F05BFA0DF105014088FFF766FDEA
:101A2000074600284AD19DF80530274C0D2202FBBD
:101A30000346717D307D884222D93144284691F891
:101A40001080032127F094FA03223946044645F01A
:101A5000ACFCF17B0DF1060026F070FABDF8063003
:101A6000238084F802801949284631F02BFFFF2893
:101A700003D129468A20FFF79DFF02B0BDE8F0811F
:101A8000FF21022BF1730BD803FB022000F10F01A1
:101A9000C3F1030302305A432144204445F06CFC57
:101AA00094F84330013BDBB284F8433033B9D4F8C7
:101AB00001208C2A08BF072384F87830002DDCD061
:101AC000284627F0A3F9D8E7328F002069150000D7
:101AD0002DE9FF47364D804627F0F8F995F800903C
:101AE000B9F1040F07465AD10DF10D014088FFF7F7
:101AF000FDFC8246002858D19DF80D400D2606FBBE
:101B000004560DF10E00F17B26F018FA3B7933757F
:101B1000042B86F815A029D9264B1A689A4602BBD1
:101B200010F07EF9014650B9337D40F25B32CDE9C9
:101B300000934FF0FF3040F2B3332DF0F1FCDAF8B0
:101B4000003073B910F06CF9014650B90423CDE9A7
:101B5000003340F25B3240F2B5334FF0FF302DF0EE
:101B6000DFFC0D2303FB045304221A750D2303FB32
:101B70000453197D04EB440304EB830400238B42DC
:101B800006D341460C482CF0D1FE04B0BDE8F087E6
:101B9000FA1850791A192A4401331074EFE76FF0DC
:101BA00007004146FFF706FFEFE70020F9E700BF17
:101BB000328F00204CA500200D1A00002DE9F047BF
:101BC000664D2B78042B8CB0064640F0C380D5F8C8
:101BD00001301C3304D100236B70AB70EB702B71A0
:101BE0001B21304627F006FB1B22014605A845F0C5
:101BF000B8FB03A9BDF8150026F004FD28B9584B21
:101C000093F8D00F10F0200414D00621304627F0AE
:101C1000F1FABDF8153043800380002383805149D9
:101C2000304631F04FFDFF2874D131468A20FFF74E
:101C3000C1FE6FE0FF238DF80A302B78BDF81570D8
:101C40009DF81F90042B1FFA87F810D10DF10A019F
:101C50004046FFF74BFC70B195F84330032B04D896
:101C60008DF80A30013385F84330204601E06FF0EB
:101C70000700012400E004469DF80AA0BAF1FF0F16
:101C80004DD0002C49D000220DF10B0311464046E7
:101C900026F08CFC002842D10D2303FB0A539DF84B
:101CA0000B20DA73187558754FF00D0808FB0A58A9
:101CB00098F81430032B35D808EB0302013382F86F
:101CC000109088F81430002C43D00521304627F0BE
:101CD0004FF905220446002145F067FB002363709D
:101CE0000D2303FB0A5567802B7D23711E4B1B6858
:101CF00063B910F095F8014640B900904FF45F7356
:101D000040F25B324FF0FF302DF00AFC31461748AD
:101D10002CF00CFE0CB0BDE8F0870028C4D0314692
:101D200000B284E7104B1B68002BCCD110F078F880
:101D300001460028C7D198F814300193042300937A
:101D400040F25B3240F271334FF0FF302DF0E8FB90
:101D5000B9E7304627F05AF8DCE700BF328F0020A1
:101D6000349500200D1E00004CA500200D1A000027
:101D7000F7B50E4602A9FF25044601F8025D30467C
:101D8000FFF7B4FBA0B31F4A92F84330032B04D8EB
:101D90008DF80630013382F843309DF80650FF2D50
:101DA00029D002AB002203F8012D1146304626F05F
:101DB000FDFB0746F8B9134B0D2202FB05359DF8D4
:101DC0000730EB730221204627F0D2F805460222A5
:101DD000394645F0EAFA2E800B49204631F08BFD5A
:101DE000FF2803D121468A20FFF7E4FD03B0F0BDB0
:101DF0008DF80650D1E7002CF8D0204627F006F8E1
:101E0000F4E700BF328F0020D11A000037B5044636
:101E100027F05CF80546204627F072FA024658B9CA
:101E200069890DF10703A81C26F0E6FC69892046A4
:101E3000FFF79EFF03B030BD204626F0E7FFF9E72D
:101E40000D4930B5A1F5BC720225914201D80020A0
:101E50000EE08B1ADB1093FBF5F302EBC30452F890
:101E60003330834205DC02DA04F10802EDE76068F2
:101E700030BD2146E9E700BF10A3040008B5FFF715
:101E8000DFFF024B002808BF184608BD7C9E0400F7
:101E90002DE9F7430A9F1E4680468946154601F004
:101EA000FDF9D0F8B030DBB101F0F8F90097D0F8C7
:101EB000B04033462A4649464046A04704464A4673
:101EC0004146284603F005FB14F1450F03460BD1AC
:101ED00048B13A462946304603B0BDE8F0431847BA
:101EE0006FF04404EBE70446204603B0BDE8F083FE
:101EF0002DE9F041069F05461E4603F0FFFA044611
:101F000030B13A46314628462346BDE8F0411847ED
:101F1000BDE8F081B0F80F30B3F5A06F01D102F049
:101F2000DBBD70470020704770B51B2188B00546A7
:101F300027F060F91B22014601A845F012FA01F0D2
:101F4000ADF9D0F8AC604EB101F0A8F9D0F8AC30E2
:101F50009DF8100098476FF01E0017E001F09EF901
:101F6000D0F89C30002BF6D03421284627F042F9D7
:101F70001D2303709DF8103043704660044601F045
:101F80008DF9D0F89C3028469847606801F0D2F966
:101F900001A90246284603F04BFB08B070BD0000C3
:101FA000FF2808B506D101F079F9034BC0F8583283
:101FB000012008BD0020FCE70800002010B5FF2824
:101FC00088B0044607D101F069F90C4BC0F85832CB
:101FD000012008B010BD1B2127F00CF91B2201467F
:101FE00001A845F0BEF99DF8173023B921460448F1
:101FF0002CF09CFCECE70020EBE700BF1800002071
:10200000291F000007B5054B00930023044A012156
:10201000184603F0C7F803B05DF804FBBD1F0000CD
:10202000251F000007B5054B009300231A46022127
:10203000184603F0B7F803B05DF804FBA11F0000D9
:10204000F8B50C46154607461E4600F09BFA0122DD
:10205000002100F0D6FB90B1122301220021384666
:1020600001F0CCFE58B14368187840B91EB1052C78
:1020700005D90B2C02D1032D01D00020F8BD012081
:10208000FCE7000037B50146044600220F4826F061
:1020900054FE0546B8B10E4B1B6873B90FF0C0FE75
:1020A000014650B90423009301954FF49F6340F615
:1020B0000F024FF0FF302DF033FA204603B0BDE899
:1020C000304026F0A3BE03B030BD00BF0D2B000092
:1020D0004CA5002013B5154AD2F8E03A1BB1D2F84E
:1020E000E43A2BB90123023302EB8303C3F8D80A85
:1020F000D2F8DC3ABBB9C2F8DC0A0D4826F0F8FD8C
:10210000044680B10B4B1B686BB90FF089FE01468A
:1021100048B90423009301947D2340F60F024FF049
:10212000FF302DF0FDF902B010BD00BF3495002046
:10213000CD2B00004CA50020F8B5124BD3F8843B02
:102140000446007803B198470F4F22783A70002573
:10215000237C9D4202D3FF233B70F8BDD4F811309D
:10216000C5EB05163344D3F80B3003B19847D4F8C8
:102170001120B4F801102078324404F0F7FC013546
:10218000E6E700BF34950020280000202DE9F04F3D
:10219000454BD3F8DC3A8DB0002593F800A00793A7
:1021A000AC465FFA8CF9CA457CD9079BD3F801305D
:1021B00053F805B05A199BF8103009920A9300227F
:1021C00001231AE0C3EB0311C2EB02180B910020AC
:1021D0000999DDF82CE051F820100691097C08914E
:1021E0001946089C8C4210D8013009EB0001C9B295
:1021F0008A45EDD801330132DBB20A98D1B2884268
:10220000E0D80CF1010C0435CBE7DBF81170069E29
:1022100007EB08040594D6F81160248876443788C3
:10222000A7423AD1059F367A3F7AB74235D1042C7E
:1022300012D0192C10D0202C0ED040F20B76B442C4
:102240000AD040F20126B44206D0B4F5006F03D0A4
:102250004FF65746B44220D1144B1B68CBB90FF050
:10226000DFFDB0B9104BD3F8DC3AD3F801305B593D
:10227000D3F811309844014698F80830CDE901436D
:102280000823009340F60F02D2234FF0FF302DF0C9
:1022900047F900200DB0BDE8F08F0131C9B20EF151
:1022A0000F0E9EE70120F5E7349500204CA5002095
:1022B000272807B5034620D041D81A2838D022D87D
:1022C0000D2800F0978011D80A2831D007D80828A7
:1022D00000F0898009287DD04FF0FF3084E00B2882
:1022E00000F086800C28F7D105207DE010287AD0F8
:1022F00005D80E2821D00F28EED1082074E0182828
:1023000071D01928E7E720286DD00AD81D2871D090
:1023100003D81B286CD01C28E5E71E280DD01F28E9
:10232000EAE7232864D005D8212853D02228D3D126
:10233000032059E025285DD0D6D9072054E03A285B
:10234000DBD019D82D2855D00AD82A28F0D003D8A8
:10235000282848D02928BEE72B2849D02C28C2E7B6
:10236000302840D003D82E28E7D02F28C4E73828BB
:1023700030D03DD83128AEE7E22826D8E02837D241
:1023800043280ED009D84128A6D30029A4D0087824
:10239000FF28A1D00130C0B226E0482801D04A2849
:1023A0009AD102A80022482B20F8022D4FF00202F9
:1023B00001D0432B20D144F0D4FFBDF806004FF6E6
:1023C000FF73984288D002300EE0EA2810D003D87C
:1023D000E82881D3022007E0F0288ED0F1287FF48E
:1023E0007BAF102000E00120C0B203B05DF804FB19
:1023F0000420F9E70620F7E744F0B3FFBDF8063004
:102400009B00ADF80630D8E7252973B5044615467C
:102410003DD026D8182930D016D80A296BD006D836
:1024200008292AD009295FD0204602B070BD0F29A3
:102430007ED0102921D00B29F6D12046042229462E
:1024400044F08FFF0434EFE7202916D004D81A296E
:1024500051D049D31B29EFE722294CD044D323295B
:10246000EAE742291AD841294CD22B29E5D008D8CD
:10247000292939D03FD82829D6D12B7804F8013B17
:10248000D2E73029F9D031292ED02D29CCD12046C0
:102490000622294644F065FF0634C5E74A2904D0E0
:1024A0001CD8432901D04829BED102A800234829BD
:1024B00020F8023D4FF0020201D043292FD12946D6
:1024C00044F04FFFBDF806604FF6FF739E42ABD05D
:1024D0000236B6B23246294620461CE0F02927D003
:1024E000F1292CD0E229A7E720460222294644F010
:1024F00038FF023498E720460322294644F031FF92
:10250000033491E7002A8FD01678FF2E8CD0013645
:10251000F6B23246294644F024FF344484E7294683
:1025200044F01FFFBDF806309B00ADF80630C9E748
:1025300020460822294644F014FF083474E710228C
:10254000294644F00EFF10346EE700002038C0B278
:102550000D289ABF014B185C0020704710A304009F
:102560002B2809D8282805D2202809D3232801D9C7
:10257000252805D1012070472D28FBD0E228F8E757
:102580000020704770B51449D1F8E02A0AB31578D5
:102590000024AC4208D2D2F8013053F824301E781F
:1025A000864202D00134F4E70023D1F8E44A2CB18A
:1025B00025780022AA4203D319460B46184670BD5F
:1025C000D4F8011051F822100E788642F5D001326D
:1025D000F0E71346F2E700BF3495002070B51B21E9
:1025E00088B0044626F006FE1B22014601A844F0EE
:1025F000B8FE9DF810603046FFF7C4FF9DF81A3012
:10260000BDF813209DF8171005463046FFF718FD5A
:1026100020B9204626F0FAFB08B070BD05F04CFD4D
:1026200040B9D5F80330EBB9204602F092FF0246DC
:1026300050B9F1E7BDF8130004F07FFD48B19DF8F3
:1026400012301B0705D47E2201A9204603F078F83A
:10265000E2E7BDF81310BDF8050004F01FFD0028E7
:10266000DFD1F0E7074BD3F88C3D33B9D5F8033011
:10267000204698470028D7D0CEE701A898470028E1
:10268000D2D1F3E73495002000F52D33F0B503F2F5
:10269000A513104D03F00F0213462C469F1C05EBAB
:1026A000C70696F8DCCABCF1000F07D104EBC703DC
:1026B00083F8DC0AC3F8D81A0020F0BDD6F8D86A2F
:1026C000002EF3D0013303F00F039A42E6D16FF0EE
:1026D0001500F2E734950020F8B500F52D3303F22C
:1026E000A513194903F00F02054613460E469C1C1C
:1026F00001EBC40090F8DC7AAF421CD123F0B6FBAA
:1027000028B1284626F0FCFD08B133F027FB06EB84
:10271000C405D5F8D80A58B139462CF007F900207D
:10272000C5F8D80A06EBC404002384F8DC3AF8BDE7
:102730006FF01B00F6E7013303F00F039A42D6D186
:102740006FF01B00F3E700BF3495002037B50D464E
:10275000144619469DF81C30E8B14268DAB13BB125
:10276000C3785A0617D49B0702D4882003B030BD23
:10277000069A0388009220462A46FFF789FB411CEF
:102780000BD0821D0BD0831CEFD010F1280F14BF8B
:1027900000207E20EAE78620E8E78720E6E70020A1
:1027A000E4E7034648B3D0F8150028B3B3F8013086
:1027B000994224D0B1F5827F1FD06FF480728A18BD
:1027C000072A0DD94FF6FF72914211D1B3F5827FDE
:1027D00015D04CF25E00834214BF002001207047E8
:1027E00001204CF25E02914204D1B3F5827FF3E7FF
:1027F0000020F6E70028F8D170470020704701203C
:10280000FAE770B598B1057C0024AC4202D30023EE
:10281000184670BDD0F81130C4EB041633441E883E
:102820008E4202D11E7A9642F2D00134EDE7034681
:10283000EEE700002DE9F04F87B083460D461646BF
:102840001F46109C01F0DAFA8046002800F08780CD
:10285000002C00F084809DF844302A46CDE90043E6
:1028600059463346FFF772FF0390A0BB3B46324602
:10287000294658460094FFF73BFB214698F8020092
:10288000D8F80490FFF714FD21460246484644F06C
:1028900068FD98F80330590705D53B46324629466E
:1028A000584603F0F1FF98F803301A0713D54FF09C
:1028B000000A2C4B5344D3F8E09AB9F1000F0AD028
:1028C0004FF0000899F80030984508D30AF1040A3F
:1028D000BAF1080FEDD1039807B0BDE8F08F4FEAC9
:1028E00088030493D9F8013053F8280003785B4536
:1028F00032D032462946FFF784FF0028E2D039461D
:1029000001F078F902900028DCD0D9F80130049A5F
:102910009B5829461878009432463B46FFF7E8FA60
:10292000029B5B680593029B21469878FFF7C0FCE9
:10293000059B02462146184644F013FD029BDB78B6
:102940005B0709D5D9F80130049A985829463B46C7
:102950003246007803F098FF08F10108B2E701233E
:102960000393B8E7349500202DE9F74F002506467C
:102970008946934601930095264BEB18D3F8E07AED
:1029800017B3002E43D03A7800239A4203F1010492
:1029900003D84FEA840A06B313E0D7F8011051F8C0
:1029A00023301978B1422346EFD10026F1E7012008
:1029B00080B101994046FFF7F4FE58B198F8003015
:1029C00000930435082DD7D1009803B0BDE8F08FEF
:1029D0005A4614E001340AF1040A3B78A342F0D9C4
:1029E000D7F80130BBF1030F53F80A80F0D1012270
:1029F00049464046FFF705FF0028D8D10222494644
:102A00004046FFF7FEFE003018BF0120D0E73446F5
:102A1000BFE700BF3495002037B51B21054626F0DF
:102A2000E9FB037BFF2B044630D1037DB0F80F1088
:102A3000002B08BF0122B0F8113018BF022200207D
:102A4000FFF792FF28B9284603B0BDE8304026F0D2
:102A5000DDB9207300222946104826F06EF904469D
:102A6000D0B10F4B1B68002BEDD10FF0D9F9014607
:102A70000028E8D104230093019440F2525340F619
:102A80000F024FF0FF302CF04BFDDCE7284603B07F
:102A9000BDE83040FFF7A2BD03B030BD0D2B0000F4
:102AA0004CA5002030B589B004461B22002101A8A6
:102AB00044F07BFC01A9204602F0FCFA01A905467E
:102AC000024620461AF04EFBB8B9204626F0FEF921
:102AD000037813F0040F14BF05210321204626F0CC
:102AE000BFFA1B21204626F085FB1B2201A944F0DA
:102AF00038FC25B92046FFF78FFF09B030BD2A46C4
:102B000001A9204602F01CFEF7E700002DE9F04184
:102B1000CDB207461B21284626F06CFB0446294609
:102B2000384626F0F4F994F80C80124E2BF0BEFDD6
:102B30003946B0FBF6F6104832462CF01DF8237DDE
:102B4000B4F80F10002B0CBF01220222B4F8113090
:102B50004046FFF709FF20B92846BDE8F04126F0BE
:102B600055B92073324629460448BDE8F0412CF09F
:102B700003B800BF7CF0C107DD2500008520000000
:102B80002DE9F84F002481468A4627460E4BE3186C
:102B9000D3F8E06A9EB196F800B00025AB450BD99A
:102BA000D6F8012052F82580494652464046FFF7A4
:102BB00028FE38B198F800700434082CE6D1384665
:102BC000BDE8F88F0135E9E73495002013B50446D8
:102BD000B8B9144826F08CF8044680B1124B1B6833
:102BE0006BB90FF01DF9014648B904230093019415
:102BF000402340F60F024FF0FF302CF091FC02B062
:102C000010BD01212020FFF7BBFF0146204621B166
:102C100002B0BDE8104003F0A7BA02B0BDE8104012
:102C200026F0F4B8CD2B00004CA50020F0B50E4ED8
:102C3000054600234FF6FF709A19D2F8E01A81B1C9
:102C40000F780022974209D9D1F8014054F8224068
:102C500094F800C0AC4505D1B4F801000433082B4A
:102C6000EAD1F0BD0132EDE73495002038B50446D5
:102C70000D46FFF7DBFF44B1B0F5827F05D14FF67B
:102C800057402B1A5842584138BD0020FCE700003D
:102C90002DE9F84F0024824688462746104BE3185A
:102CA000D3F8E06A3EB196F800B000255D4505D343
:102CB0000434082CF2D13846BDE8F88FD6F801204C
:102CC00052F82590514642464846FFF79AFD10B10A
:102CD000027A424501D00135E8E74F46E8E700BFF8
:102CE0003495002038B51B2126F084FA0446007B79
:102CF000FFF748FC257DB4F80F10002D14BF022209
:102D00000122FFF77EFD124B1B7A012B15D0227E8C
:102D1000A37D6AB1002B0CBF83238423A8B1012DAE
:102D20000DD1027A12F0020F18BF0023184638BDE9
:102D3000002B0CBF81238223F0E78123EEE7002DD7
:102D4000F4D1027A12F0010FEEE7C323EEE700BFE1
:102D5000D00D002007B5042201460DEB020044F01F
:102D600000FB019803B05DF804FBF7B50191102159
:102D700016461F46054626F03DFA044628461FF033
:102D80008FFE9523032E23609DF8203008BF019904
:102D9000A37316BF01A90822022227716671A01D24
:102DA00044F0DFFA294609982BF0C0FD03B0F0BDCE
:102DB0002DE9F04F87B09A46BDF8443001939DF855
:102DC0004C300293BDF8583003939DF85C309DF869
:102DD0004080BDF8489004930D4617460446149E63
:102DE0009DF854B026F072F80378817813F0030F41
:102DF0000CBF012300234A464046FFF721F988B95A
:102E000056B153463A4629462046CDE9108607B0CA
:102E1000BDE8F04FFFF7A9BF204607B0BDE8F04F6F
:102E200025F0F4BF1821204626F0E4F918220021ED
:102E3000059044F0BAFA059BDF732A681A606A6845
:102E40005A60019A1A81BBF1010F029A83F80CA013
:102E500083F80D80A3F80A909A7305D1039A5A82D9
:102E6000049A1A7583F811B0012F06D029884FF6FD
:102E7000F77291429CBF04221A7431462046FFF734
:102E800003FC0028BDD1012032F010FF0348214689
:102E900007B0BDE8F04F2BF049BD00BF29900100FD
:102EA000A1F5E0630B2B04D9A1F50063584258410A
:102EB00070470120704700002DE9F04F8DB08B4620
:102EC00008931821BDF8583007939246064626F01D
:102ED00091F90446304625F0F9FF237B0693637B86
:102EE00005930378B4F80A808178E77B13F0030F29
:102EF00081460CBF0123002342460598FFF7A0F846
:102F00000546B0B9BAF1000F0DD0059B0093CDF87E
:102F100004A0069B3A4621463046FFF726FF284686
:102F20000DB0BDE8F08F304625F070FF6FF007055B
:102F3000F5E741462089FFF7B3FF0546BBF1000FD7
:102F400017D05946304626F068F80990304625F0EB
:102F5000C7FF099B83420CD95946304626F05DF8DD
:102F60008346304625F0BCFFABEB0001304626F02F
:102F700051F9012F11D0E37B022B04D122884FF6A7
:102F8000F7739A4209D8404604F0BCF828B1089B70
:102F90001BB9237C43F0040323741DB1237C43F04D
:102FA0000803237414F034FA0546002862D105F0B2
:102FB00083F800285ED0404604F0BFF8002859D0BE
:102FC000082229460AA844F0F0F9022F3BD0032F2B
:102FD00043D0002F0CBF00256FF0270505F06CF8DB
:102FE000002840D0002F3ED04DB90AA814F03AFA7C
:102FF00028B102210AA833F081FC002836D15D4BAC
:103000001B6873B90EF00CFF014650B904230093FE
:1030100040F60F03CDF804801A464FF0FF302CF035
:103020007FFA6FF02705BAF1000F3FF478AF059BE8
:103030000093CDF804A0069B3A4621463046FFF7A0
:1030400094FE00256BE70AA9208825F0DBFA00280A
:1030500014BF6FF027050025C0E7082221460AA803
:1030600044F07FF9BAE7002DC9D1C2E7237C43F0D1
:103070000103237441460598FFF7F8FD68B1082263
:1030800000210AA844F091F9022F1ED0032F52D03C
:103090003FBB237C43F00103237451463046FFF7C6
:1030A000F3FA05460028BED1304625F00FFF03781D
:1030B000DB0602D4012032F0F9FD079B002B53D12F
:1030C00031462D482BF032FC29E70AA9208825F04B
:1030D00099FA054630B902210AA833F00FFC0028FE
:1030E000D7D10025234BD3F800B099F802300B2B31
:1030F00027D199F800305A0723D199F80430012BD1
:103100001FD1BBF1000F12D10EF08AFE014670B93B
:10311000CDF8088099F8033001930823009340F616
:103120000F0240F657034FF0FF302CF0F9F9002D55
:103130007FF479AFB1E7082221460AA844F011F9DB
:10314000C9E7BBF1000F7FF46CAF0EF069FE0028F9
:103150007FF467AF04230093CDF8048040F65E034C
:1031600040F60F02594658E7079A034831462BF0BC
:1031700003FDD4E64CA50020299001002DE9F74F6E
:103180001D469DF8303001930F46109B0093182187
:10319000934606469DF834A0BDF83890BDF83C80B3
:1031A00026F028F818220446002144F0FEF8032DEA
:1031B0000CBF082202225946E573204644F0D1F89C
:1031C000019B009A237339460023304684F80DA0F2
:1031D000A4F80890A4F80A800C9303B0BDE8F04F5F
:1031E000FFF76ABE2DE9F04F87B01D469DF84030CD
:1031F0000593CDE90101149B0493182103929DF8D6
:1032000044B0BDF848A0BDF84C909DF854809DF89E
:103210005860BDF85C7025F0EDFF182204460021CF
:1032200044F0C3F8032D0CBF082202220399E57372
:10323000204644F096F8DDE90101059B049A2373CA
:10324000334684F80DB0A4F808A0A4F80A9084F8D6
:103250001080109707B0BDE8F04FFFF72DBE0000BB
:103260002DE9F041069D0E4690461F4625F0BAFE18
:10327000094B00F8016B93F8D84A621C83F8D82AEE
:10328000730702D541462BF038FA047047700230BC
:1032900005B12C70BDE8F0813495002000487047DE
:1032A0000CA0002000487047D00D002002289DBFD0
:1032B000024B187000206FF005007047D00D002001
:1032C000014B187A704700BFD00D002001289DBF28
:1032D000024B187200206FF005007047D00D0020DF
:1032E000134B1B781BB391280ED890281AD28A282A
:1032F0001CD005D8A0F18103032B98BF8120704713
:103300008F2808BF7E207047C12806D8C02809D260
:10331000922809D0932805D07047C22804D0C42829
:1033200004D07047012070477F207047002070470D
:10333000D00D002010F1170F12D009DC10F11F0F73
:1033400010D0094B1B7A012B0CBF0120C02004E0D8
:1033500010F10A0F02D00028F3D170478520704782
:103360008720704781207047D00D00202DE9F0475D
:1033700088B08146ADF81E1025F034FE0823037096
:103380000446FFF78BFF0378DFF8B0A05A1C0270E9
:1033900063700A23A370284B1F7803349846052FC7
:1033A00036D801223AF817301146C42000F026FD25
:1033B000064618B301214CF25D20FFF771FD21464E
:1033C000F0B1484625F029FEC0F5CA60013085B24B
:1033D0007168B078FEF76CFF0330854216D33188F0
:1033E00020462BF08AF9B37800F8013B7268B17877
:1033F000FFF70AF80023044688F800300137CEE7CB
:10340000484625F00AFEC0F15200E0E788F8007057
:1034100001230022CDE903324CF25D21C423CDE922
:10342000013100930DF11E02022321464846FFF7A9
:10343000A5FE08B0BDE8F087DD0D00201EA3040046
:10344000064B1B7802462BB1032B03D04FF6FC71C1
:10345000FFF78CBF104625F0D9BC00BFDE0D002061
:1034600038B5054620B92148BDE8384025F040BCB4
:103470001F4C227892B3032A30D001220823114630
:10348000C42000F0BBFC436819884FF6FF739942D3
:10349000284620D1FFF7D4FF0022114613482BF015
:1034A00033FD2378022B20D101231A461946C4206C
:1034B00000F0A4FCB0B1436818880F3880B22BF03C
:1034C000DFF80F3080B24222424300210748BDE8B6
:1034D00038402BF051BBFFF749FFDDE7284625F0C8
:1034E00095FCD9E74FF49670E7E738BD61340000EA
:1034F000DE0D0020F7B50E460446214D40B92A786E
:1035000022B901231F482B7025F017FC03B0F0BD32
:10351000FFF7C4FED0F89C305BB302AF34212046E5
:1035200007F8046D25F066FE3422002143F03DFFCC
:103530003421204625F05EFE6523037034212046A9
:1035400025F058FE002646603421204625F052FE24
:1035500034218660204625F04DFE3421C760204688
:1035600025F048FE0661FFF799FED0F89C30204612
:103570009847002320462B7025F048FCC6E700BF83
:10358000DF0D0020F534000010B510B90F4B187096
:1035900010BD0128FCD10E4B19780129F8D10B4C34
:1035A0002278012A09D80B4825F0A2FB0A4825F009
:1035B0009FFB237801332370EAE7032200201A706F
:1035C0002070BDE81040FFF795BF00BFDC0D002064
:1035D000DE0D00202136000041340000002208B535
:1035E00011460D482BF090FC0C4B1B78022B12D18E
:1035F00001221146C42000F001FC48B143681B8839
:10360000054842225A430021BDE808402BF0B4BAD5
:103610004FF49673F4E708BD21360000DE0D00205C
:10362000F0B5044689B020B9204825F061FB09B007
:10363000F0BD1F4B1B78ABB3032B33D020F082FFC0
:1036400008AE002726F8020D204625F0CBFC0770B7
:103650000546FFF723FE03785A1C027008216B70A1
:10366000AF70E81C2BF049F809212BF046F80A212D
:103670002BF043F801254CF25D23CDE90235C4233C
:103680000146CDE900333246049702232046FFF776
:1036900075FD40F2BC72294606482BF06DFAFFF723
:1036A0009DFFC4E7204625F0B1FBF8E72136000076
:1036B000DE0D0020893500002DE9F341002205468A
:1036C000FF2134482BF020FC2CF0D0F920B1324EF1
:1036D00033780BB1032B05D1284602B0BDE8F04189
:1036E00025F094BB4FF00008284625F0F9FB02288E
:1036F0003CD9284625F0EAFB0446002836D08078DD
:10370000FFF7EEFDA07010BB211DE078FEF7D0FDA5
:103710000430C7B2284625F0E3FB284625F0E0FB3D
:10372000874223D83946284625F09AFCA278002AF9
:10373000DAD12388082B0CD10192043401220094A1
:103740001146C420FFF776F84FF00108CCE70327B5
:10375000E3E7092BF0D00A2BC6D1019204340122F1
:1037600000941146C420FFF765F8BDE7B8F1000FDB
:10377000B2D00A4B002119703378012BACD102234F
:1037800040F2DE32064833702BF0F6F9FFF726FFE1
:10379000A2E700BF89350000DE0D0020DC0D00200F
:1037A0006134000038B5054625F090FB90F84B30A9
:1037B000044653B901462322104843F0D2FD282283
:1037C00004F123010E4843F0CCFD0C4CD4F84B001F
:1037D00070B194F84F102BF0A9F8002384F84F3003
:1037E00084F84B3084F84C3084F84D3084F84E30F7
:1037F0002846BDE8384025F009BB00BFCC8E00202C
:10380000EF8E002070B5094CD4F84B3005460E46BB
:103810004BB98F2106482FF031FC18B9C4F84B6022
:1038200084F84F5070BD6FF00300FBE7CC8E002092
:10383000A53700002DE9F04F1B218BB0834625F002
:10384000D9FC044690F81390584625F03FFBB9F197
:10385000150F827814BF1B2314239A4288BF8370EC
:103860008246FFF71BFD407825F0BCFB237E002B32
:10387000237D0CBF00220422002B14BF0023082349
:1038800042F010020546134305F8013B237E2BB19D
:103890002846B4F819102AF030FF0546637D2B70D6
:1038A000B9F1150F14BF0D2316236B70207BFEF7A3
:1038B00069FE237DB4F80F10002B14BF02220122F1
:1038C000FEF79FFF00274368AF7041880246EE1C59
:1038D00000296CD10AA94FF6FD73304621F8023D4C
:1038E000022243F03EFD2123B9F1150F6B714FF019
:1038F000010312BFAE1DAB71EE1DAB70FFF7CEFC26
:10390000002340780493B4F80F300393B4F81130D7
:103910000293237B0193E37A0093621C02233146D6
:10392000FFF72CFCFFF7BAFC80F801B00BB0BDE844
:10393000F08F1888BAF800C081B28C4535D80004E1
:1039400033D4B9F1150F19D194F818C001F480409F
:10395000BCF1000F10D088B901375188F8B2013995
:10396000814203D99AF802C0C445E2D881428CBF93
:1039700000210121A970C1E70028EDD13046CDE931
:1039800006322AF0BAFE069B079A99780170B9F1BF
:10399000150F08BFD97808F1010809BF01F003012C
:1039A000461C4170861C5FFA88F80833D4E7B84695
:1039B000D3E72DE9F04780460E46914625F07CF985
:1039C0000546002851D04A4631884046FEF7A2FA03
:1039D000FFF764FCD0F89C30002B41D034212846FE
:1039E00025F008FC71680446B078FEF761FCB378F6
:1039F000482B074603D027D8413B022B28D839460D
:103A0000284625F0B5FA34218246284625F0F2FBF7
:103A100004463A464946504643F0A3FC2773C4F88F
:103A200010A00023237098F80C306370B378A37053
:103A3000B8F80F30238133886381FFF72FFCD0F86B
:103A40009C30284698470BE04A2BD8D0F12BD6D093
:103A50003A46494604F10C0043F083FC002CE0D1C7
:103A60002846BDE8F04725F0D1B9BDE8F087000051
:103A700010B507490446FFF7C5FE043006D12146BC
:103A800000220448BDE810402BF076B810BD00BFFE
:103A9000173C0000713A000070B50C46272C054613
:103AA00011461E4623D050D81A2C3FD029D80D2CB1
:103AB00000F09A8014D80A2C38D006D8082C00F0D0
:103AC0008980092C76D0284670BD0B2C00F08680AA
:103AD0000C2CF8D12846052243F043FC0535F2E7CB
:103AE000102C77D009D80E2C29D00F2CEBD12846DA
:103AF000082243F036FC0835E5E7182C6AD0192C6B
:103B0000E0E7202C66D00AD81D2C6DD003D81B2CE2
:103B100064D01C2CDDE71E2C11D01F2CE6E7232CD3
:103B20005CD009D8212C45D0222CCCD128460322A8
:103B300043F017FC0335C6E7252C55D0CAD92846D3
:103B4000072243F00EFC0735BDE7392C46D018D8C4
:103B50002D2C49D00AD82A2CE8D003D8282C39D0CB
:103B6000292CAFE72B2C39D02C2CB2E7302C31D0BC
:103B700003D82E2CE3D02F2CB8E7312C1AD0382CB8
:103B8000A0E7E22C11D8E02C28D2432C03D8412CFA
:103B900005D23A2CAAE7482C01D04A2C93D12846CA
:103BA000324643F0DEFB35448DE7EA2C16D007D8C9
:103BB000E82C88D32846022243F0D3FB023582E763
:103BC000F02C94D0F12C7FF47EAF102243F0C9FB8F
:103BD000103578E70B7805F8013B74E72846042296
:103BE00043F0BFFB04356EE72846062243F0B9FBDD
:103BF000063568E710B5436800220BB9184610BDBA
:103C00001C888C42FAD044880132944203F10803A4
:103C1000F3D80023F2E72DE9F04F1B218FB00746C0
:103C200025F0E8FA437B0546C3F34013007B089375
:103C3000FEF7A8FC2B7DB5F80F10002B0CBF01225E
:103C40000222FEF7DEFD0990FFF728FB407825F001
:103C5000C9F92B7E002B2B7D14BF04220022002BE0
:103C60000CBF0823002342F01002134300F8013B6D
:103C70002B7E1BB1B5F819102AF03FFD6B7D037048
:103C800001234370841C384625F020F982463846CB
:103C900025F026F943080A934FF000080A9B5FFAC3
:103CA00088F1994252D202220AEB41010DF136000D
:103CB00043F057FBBDF836100998FFF79BFFB5F8A6
:103CC0000F100646B5F81100FFF7EAF808B3FFF742
:103CD000E5FA2146407825F0A0F9C0F5CA6909F156
:103CE0000109FEB9BDF836104FF6FD73994262D155
:103CF0000DF136010222204643F033FB2123A6704A
:103D0000E3700121201D2AF0F8FC044608F10108A7
:103D1000C4E7FFF7C3FA2146407825F07EF9C0F1E9
:103D20005209DEE77168002945D0F37813F0400BA3
:103D300041D1DA0728D49B073FD5FFF7C1FA012804
:103D40000CBF7E268F26B9F1020F3AD8FFF7A6FAEC
:103D5000089A40780023CDE90432CDE90633B5F85E
:103D60000F300393B5F8113002932B7B0193EB7A5C
:103D700000936A1C02232146FFF734FAFFF78EFAFC
:103D800047700FB0BDE8F08FB078FEF791FA011DD3
:103D9000894514D30B90318820462AF0AEFC80F878
:103DA00000B0B2780B9B42709BB27268B17802305F
:103DB000FFF772FEA9E78626C5E70126C3E7892635
:103DC000C1E72046BDF836102AF097FC044604F8F7
:103DD000016B9BE710B51B21044625F00BFAB0F8E8
:103DE0000F2040F605339A42204603D1BDE810402B
:103DF000FFF73EBEBDE81040FFF70DBF70B50D46A2
:103E000016461C46FEF7BEFB29463246FEF7F9FC75
:103E10002146BDE87040FFF7EDBE2DE9F04F1B21B4
:103E20008FB0814625F0E6F90446007BFEF7AAFB39
:103E3000237DB4F80F10002B0CBF01220222FEF7E5
:103E4000E0FCE37C0D90052B77D0FFF727FA407854
:103E500025F0C8F8237E002B237D14BF0422002206
:103E6000002B0CBF0823002342F01002134300F87C
:103E7000013B237E1BB1B4F819102AF03EFC637D90
:103E8000037004234370851C484625F01FF807463D
:103E9000484625F025F800230B9301230A90099347
:103EA0009DF82C300C930A9B032B54D9002F56D02D
:103EB000F91CB878FEF7FCF903305FFA80FB3E4648
:103EC0000A9B9B4500F2F780002E00F0F480B6F8C4
:103ED00000A00D985146FFF78DFE8046002840D186
:103EE0004FF6FD739A4514BF4FF0860A4FF0880ACB
:103EF000E37C052B1ED015B3B4F80F10B4F81100F5
:103F0000FEF7CEFF002868D0FFF7C8F929464078B1
:103F100025F083F8C0F5CA600130022894BF002064
:103F20000120B0B12846022200F801AB314643F02F
:103F300018FA03350023099302E00025A4E7099548
:103F40000A9BA3EB0B030A930B9B01335F440B9378
:103F5000A6E70990F4E700264FF0FF0BB0E73E46D6
:103F6000FAE74368002B32D08278B3789A4231D195
:103F7000237DB4F80F20217B002B06F103030C9363
:103F80004FF00103019306F1030300930CBF0123DB
:103F90000223FEF7DBFB82460028A9D1E37C032B3A
:103FA000CED0237DB4F80F10207B0022002BB8F870
:103FB000003001920C9A00920CBF01220222FEF7FF
:103FC00039FC0C9A41462046FFF7F3FCB8E74FF066
:103FD000860A8DE74FF08D0A8AE7FFF75FF92946D9
:103FE000407825F01AF8C0F1520096E700264FF00D
:103FF000FF0B7BE03E46FAE7E37C052B55D0099B9F
:104000002BB115B30C9B03B3002305F8013BB9F1A9
:10401000000F43D0FFF742F900234078CDE9063383
:10402000627BC2F34012CDE90432B4F80F3003933F
:10403000B4F811300293237B0193E37A0093621C5E
:1040400002232946FFF7CEF828E0FFF727F940784A
:1040500024F0C8FF237D002B0CBF1823102303700E
:10406000637D43700B238370E37CC37080230371F3
:104070000546FFF713F9002640780496B4F80F3090
:104080000393B4F811300293237B0193E37A0093F6
:10409000621C0223691DFFF771F8B146FFF7FEF8B5
:1040A00080F801900FB0BDE8F08F48460FB0BDE832
:1040B000F04F24F0ABBEE37C032B9DD1099B002B7A
:1040C0009AD0484624F002FF0746484624F008FFED
:1040D0008046B8F1030F89D9002F8BD0F91CB8782E
:1040E000FEF7E6F803305FFA80FB3E46C34583D80F
:1040F000002E81D036F8031B0D98FFF77BFD227D43
:10410000B4F80F108246002A4FF00002207BBAF864
:104110000030CDE900620CBF01220222FEF78AFBCB
:104120003246514620465F44A8EB0B08FFF741FC9E
:10413000CFE700002DE9F04F1B2189B0804625F024
:1041400059F80546FFF7AAF8407824F04BFF2B7E7C
:10415000002B14BF1C23182300F8013B2B7E1BB13E
:10416000B5F819102AF0C9FA6B7D03700923437062
:10417000841C287BFEF706FA2B7D0690002B0CBFD3
:1041800001220222B5F80F10FEF73BFB83464046A2
:1041900024F0A6FE022840F2C080404624F096FE9D
:1041A000002800F0BA8090F800A0B0F80190032138
:1041B000404624F055FFB5F80F10B5F81100FEF792
:1041C0006FFE00283CD0FFF769F82146407824F0C4
:1041D00024FFC0F5CA60013086B2032E40F29D80F4
:1041E00049465846FFF706FD0746002800F08A803A
:1041F0004368002B00F08680C3785B0740F189801C
:1042000006989BF80820BBF8001000784B4602F097
:104210002BFA079000287ED0092E7ED9002222702A
:1042200084F801A0A01C49462AF067FA079B0446BF
:10423000BAF1000F0DD0BAF1010FA8D1198A3DE0F3
:10424000FFF72CF82146407824F0E7FEC0F1520039
:10425000C2E7BA7800F8012B5A8A198A07932AF024
:1042600058FA0446B878FEF77BF900288FD0BA7860
:10427000079B203A0B2A8AD801A151F822F000BFEF
:10428000B1420000B9420000D5420000E542000002
:104290008F410000F54200008F4100008F41000077
:1042A000B1420000C5420000D5420000E5420000D6
:1042B0001B7D04F8013B6AE7998A20462AF01DFA23
:1042C000044664E72046022203F1140143F049F852
:1042D00002345CE72046032203F1140143F041F865
:1042E000033454E72046042203F1140143F039F863
:1042F00004344CE72046062203F1140143F031F860
:10430000063444E78623237084F801A04946A01CA4
:10431000D4E78C23F7E78B23F5E7FEF7BFFF0023F5
:1043200040780493B5F80F300393B5F81130029339
:104330002B7B0193EB7A00936A1C02232146FEF744
:104340001DFFFEF7ABFF80F8018009B0BDE8F08FDC
:104350002DE9F04F1B218DB0804624F04BFF044621
:10436000007BFEF70FF9237DB4F80F10002B0CBF74
:1043700001220222FEF745FA0690FEF78FFF4078F1
:1043800024F030FE237E002B14BF1C23182300F8DA
:10439000013B237E1BB1B4F819102AF0AEF9637DFE
:1043A000037000270723DFF8E4B14370851CB9468A
:1043B000404624F095FD042844D800264FF0FF0A1B
:1043C000404624F08DFD824500F2B98051464046BA
:1043D00024F046FE002E00F0B280B6F801300698B8
:1043E00007931946FFF706FC327809F10109002A04
:1043F0005AD1079B002842D14FF6FD77BB4214BF2C
:1044000086278C27B4F80F10B4F81100FEF748FD8A
:10441000002800F08B80FEF741FF2946407824F009
:10442000FCFDC0F5CA60013080B2032808D92F70A6
:1044300033786B70A81CB6F801102AF05EF90546B7
:104440000127B5E7404624F041FD06460028B4D0D8
:104450000378012B0DD0C078FEF782F860B1F078B8
:10446000FEF774F808305FFA80FA404624F038FD11
:10447000A6E74FF0050AA3E74FF0080AA0E7436854
:10448000002B4BD08378412B48D003F0FD02482A03
:1044900044D0C278520743D5F2789A4242D1F38889
:1044A00013B1B2889A423FD8237B8DF82430227C06
:1044B000E37B43EA0223ADF82A30E37A8DF8253016
:1044C000B4F80130ADF82630637CA27C43EA0223C5
:1044D000ADF82830237D002B0CBF0123022309A94E
:1044E00030468DF82C3002F089FB00283FF460AF95
:1044F000DBF8002082B907900DF092FC079B014683
:1045000050B901930423009340F6120240F2D443C1
:104510004FF0FF302BF004F8012773E7862771E78F
:104520008C276FE78D276DE787276BE7FEF7B6FED1
:104530002946407824F071FDC0F1520074E7B9F1CA
:10454000000F1DD1802305F8013BFEF7A7FE0023D5
:1045500040780493B4F80F300393B4F81130029309
:10456000237B0193E37A0093621C02232946FEF722
:1045700005FEFEF793FE80F801800DB0BDE8F08FD8
:10458000002FE2D105F8017BDFE700BF4CA500203A
:104590002DE9F04F8A46C3880279418889B00546E3
:1045A0004078FFF72BFC90F80390504624F01AFD5A
:1045B00009F02006C9F340194FEA890343F00803C4
:1045C00004460370002E69D06878FDF7DBFF2A7976
:1045D0006988FEF716F9B0F80910601C2AF08DF80A
:1045E0000446FEF75BFE03785A1C027023700A2310
:1045F000637002342E4640F2516BF3883279718831
:104600007078FFF7FBFB71880746B08DFEF748FC1A
:10461000214600284CD0504624F0FFFCABEB0000B4
:104620001FFA80F87968B878FDF742FEC21C904501
:1046300007901ED3398820462AF05FF8BA7800F830
:10464000012B079B7A68B9789BB2FFF725FA3946A8
:104650000446304602F0DFF8337A23F0160343F0C5
:10466000200333724946284602F051F806460028D6
:10467000C3D1124B04936B880393AB8D02936B7879
:10468000019395F82A30009305F128020023214672
:104690005046FEF773FD09B0BDE8F08FFEF7FEFD52
:1046A00003785A1C027063700A23A3700334A1E7D5
:1046B000504624F0B2FCC0F15200B1E7396D000061
:1046C0002DE9F0438FB000230F461B2106930446CB
:1046D00024F090FD1B22014607A842F042FE20462E
:1046E00024F0FEFB022807D0852207A9204600F00F
:1046F00058FF0FB0BDE8F083204624F0E7FB9DF89B
:10470000343006784578002B60D0FEF7C7FDD0F82E
:10471000F030002B46D14FF00008512D204628BF25
:10472000512524F05FFC9DF83430002B9DF830308B
:1047300014BF04220022002B0CBF0823002342F0E8
:104740001002134300F8013B9DF834301BB1BDF853
:10475000351029F0D2FF9DF831300370002F14BFBF
:1047600012231423437000238370C11C1A46DFB246
:10477000B84500F288800123837000230493BDF8BC
:104780002B300393BDF82D3002939DF82830019310
:104790009DF8273000930DF11D0202232046FEF7FD
:1047A000EDFCA6E7FEF77AFD0DF1180ECDE9007ECF
:1047B0009DF830C0D0F8F080BDF83530BDF82B2022
:1047C0009DF828106046C0478046A6E79DF828005F
:1047D0009DF83080BDF82B90FDF7D4FE00289AD0CC
:1047E000B8F1000F0CBF012202224946FEF709F87A
:1047F000002890D0B8F1000F2CD1037A03F0010308
:10480000002B88D09DF83030BDF82B109DF8280083
:10481000002B0CBF0122022200F046FE03460028B6
:104820003FF479AFFF20984700283FF474AFCFB131
:10483000FEF734FDD0F8583293F80080FEF72EFDD5
:10484000D0F858325B680693FEF728FD0023C0F8C5
:10485000583262E7B8F1010F7FF45DAF037AC3F31A
:104860004003CDE7FEF71AFDD0F8583293F80880E0
:10487000FEF714FDD0F85832DB680693FEF70EFD04
:10488000C0F8587249E7069FFF5CBE4206D8013265
:10489000D2B2954201F8017B7FF66FAF013366E734
:1048A00037B51B21054624F0A5FCC37C0446162B16
:1048B00064D8DFE803F00C123A3A293A42294666F6
:1048C0003E4E4A666363635C6661664A66002846DC
:1048D000FFF780FA012003B030BD324BD3F8903D92
:1048E000B3B9B4F80F300A2B04D1284603F01EFBED
:1048F0000028EFD11B21284624F07CFCB0F81120C1
:104900004CF25D239A4208D0284624F07FFAE1E772
:10491000284698470028E4D0DCE7B0F80F40012C87
:10492000F2D12846FEF7C8FED4E72846FFF775FA0D
:10493000D0E7284602F052FACCE72846FFF708FDF8
:10494000C8E72846FFF7F6FBC4E72846FEF772FFE4
:10495000C0E71B21284624F04DFCB0F80F30192B7E
:10496000D2D1284600F0DFFD0028B3D1CCE70121E9
:104970002846FFF7A5FEADE70021F9E70A4B1B68C3
:104980000BB10020A7E70DF04BFA0028F9D10090F9
:1049900001464FF4E46340F612024FF0FF302AF074
:1049A000BFFDEEE7349500204CA5002070B5FF2830
:1049B0008EB0054607D1FEF771FC204BC0F8583287
:1049C00001200EB070BD1B2124F014FC1B220146F7
:1049D00007A842F0C6FC9DF83040012C2CD19DF870
:1049E0002F30032B28D89DF8336028460EBB24F0C7
:1049F000F9FA182303709DF8313043700B2383704C
:104A00009DF82F30C3700671BDF82B300393BDF8AD
:104A10002D3002939DF8283001939DF827300093A4
:104A2000411D049602230DF11D022846FEF7A6FB48
:104A3000C6E724F0EBF9C3E70020C2E72C00002012
:104A400007B5054B009300231A460221042000F00D
:104A5000A9FB03B05DF804FBAD49000010B50446A6
:104A600024F04EFC2046BDE8104024F0CFB90000F1
:104A700038B50621044624F0BDFB037923B1204656
:104A8000BDE8384024F0C2B91821204624F0B2FB1A
:104A90000546204624F01AFA18220146284642F01C
:104AA00060FC20460249BDE838402CF0F5BF00BF4D
:104AB0005D4A000010B5102301224FF4A0610446A6
:104AC000FFF79CF9012243684FF4A0612046BDE83E
:104AD000104013F085B9000010292DE9F743044672
:104AE0000D46164640F0858024F0E2F82B46012260
:104AF0000746B4F80F10207BFFF780F91821804695
:104B0000384624F035FA05461822002105F10D0932
:104B100042F04BFC4946B4F8010023F073FD10F15C
:104B20001C0F19D10DF107030122B4F80110304612
:104B300023F062FE08223146484642F012FC31461C
:104B400098F80200D8F80490FDF7B2FB314602460F
:104B5000484642F0F7FB0DE00028EBD1314698F8CB
:104B60000200FDF7A5FB31460246484642F0EAFB4B
:104B70000028E4D0207BFFF79DFF064600283BD1AC
:104B80004EF201030122B4F80F10207BFFF736F933
:104B90004368E27A1A70B4F80F10207B4EF20203D9
:104BA0000122FFF72BF94368B4F801201A80284648
:104BB0002AF0EAFE237B2B72E37A6B75B4F80F3090
:104BC0006B8103232B732AF069FF0821E8823846A2
:104BD00024F010FB08220546314642F0E6FBB4F80B
:104BE0000F306B80FF232B70064B6B60384612F042
:104BF000ABFC03B0BDE8F083002FFAD0384624F0B8
:104C000005F9F6E7714A00000020704770B51D21D4
:104C100088B0054624F0EEFA1B220146064601A89C
:104C200042F09FFBFEF73AFBD0F89C300BB33421E7
:104C3000284624F0DFFA0222044606F11B01083060
:104C400042F09AFB062323709DF810306370002316
:104C50006360FEF723FBD0F89C30284698476068D5
:104C6000FEF768FB01A90246284600F0E1FC08B007
:104C700070BD6FF01E00F3E738B501220023032159
:104C80000546FFF7BBF8B8B14368ABB11C8844B127
:104C9000013C1C80294642220848BDE8384029F0E2
:104CA0006BBF2846FDF76EFCD0F8070020B1214607
:104CB000BDE8384029F03ABE38BD00BF794C00004D
:104CC00007B5054B0093054A054B0121032000F071
:104CD00069FA03B05DF804FBA94F0000094C00001D
:104CE0005150000007B5054B009300231A460221DE
:104CF000032000F057FA03B05DF804FBC94F000031
:104D000070B500230E46012203210546FFF776F811
:104D1000F8B14368EBB11C881E8043681B880BB94F
:104D2000002070BD002CFBD1224629460A482AF0FB
:104D3000EBF842222946084829F01EFF2846FDF7D5
:104D400021FCD0F807000028EAD0012129F0EEFD6F
:104D5000E6E78620E5E700BF794C000013B510B9FF
:104D6000002002B010BD002301220321FFF746F806
:104D700028B143681888003018BF0120F1E70A4BBA
:104D80001B68002BECD10DF04BF804460028E7D14E
:104D9000009001464FF4C0734FF0FF3040F2646260
:104DA0002AF0BEFB2046DCE74CA5002070B51B2195
:104DB00090B0044624F01EFA1B22014609A842F0D6
:104DC000D0FA9DF83730012B43D005D3402B00F0AB
:104DD0008C80002010B070BD9DF838508DBB2046EF
:104DE00024F07EF8012804D86C4B1B68B3B18025F1
:104DF0000DE0204624F06AF80222014608A842F09D
:104E0000B0FABDF820109DF83000FFF779FF2A4670
:104E100009A9204600F00CFC0120DBE70DF000F8AA
:104E20000028E4D1204624F05BF80423019000938D
:104E300040F26462BD2329464FF0FF302AF070FB38
:104E4000D5E7574BD3F8943D002BE5D02046984743
:104E5000E2E7524B1B685BB90CF0E2FF014638B940
:104E60000090D22340F264624FF0FF302AF058FBEA
:104E70009DF83000FFF772FF024688B3012200233D
:104E800003219DF83000FEF7B9FF0646204624F0C6
:104E9000A9F8192303709DF83930437000258570F7
:104EA00073680330198829F028FC9DF83130C3F36A
:104EB0004013CDE9045303230393BDF83530029327
:104EC0009DF8303001939DF82F3000930146CDE9D5
:104ED000065502230DF125022046FEF783F99BE7D4
:104EE00009A9204600F0E5FB96E7204623F0F8FFED
:104EF00001281BD9204623F0E9FF0222014608A819
:104F000042F02FFA1D21204624F074F909A9054624
:104F10001B2242F031FA9DF82030EB769DF82130CB
:104F20002B7721461F4829F001FD75E71B4B1B68B5
:104F30008BB90CF075FF054668B9204623F0D0FF09
:104F400004230190009340F26462F12329464FF05C
:104F5000FF302AF0E5FA204624F044F818230370C5
:104F60009DF8393043700B2383704023C370802336
:104F7000037100220323CDE90332BDF835300293DB
:104F80009DF8303001939DF82F300093411D02238E
:104F90000DF125022046FEF7F1F83DE74CA5002073
:104FA000349500200D4C0000FF2808B503D0BDE863
:104FB0000840FFF7FBBEFEF771F9024BC0F858320C
:104FC000012008BD58000020FF2808B503D0BDE827
:104FD0000840FFF7EBBEFEF761F9024BC0F858320C
:104FE000012008BD4800002037B50023012203211D
:104FF0000546FEF703FF044698B1002229461248F1
:1050000029F082FF636800241C802846FDF7BAFA65
:10501000D0F80700A8B1214603B0BDE8304029F020
:1050200085BC0A4B1B6863B90CF0FAFE014640B917
:10503000009040F2A71340F264624FF0FF302AF074
:105040006FFA03B030BD00BF794C00004CA50020C2
:1050500037B5044602A800230D4620F8023D11464C
:10506000022242F07EF92DB9BDF80610204619B192
:10507000FFF746FE03B030BDFFF7B6FFFAE710B505
:10508000FEF70CF94FF43072002142F08EF9FEF772
:1050900009F90C22002142F088F9FEF7FFF80446D6
:1050A00023F00AFE6070FEF7F9F8BDE8104001F049
:1050B00007B90000F7B50C461C21064624F09AF803
:1050C0000546304623F00CFF0746304623F0FEFE2F
:1050D000037813F0040F0CBF032305239F4214D25F
:1050E0002F4B1B681BB18026304603B0F0BD0CF07F
:1050F00097FE01460028F6D10090D72340F61A0209
:105100004FF0FF302AF00CFAEDE700232370B5F8DA
:105110000130A4F801302B7AE372B5F80330A4F81B
:105120000930EB7923732B7863732B7DA27BC3F358
:10513000C00363F3C302A273B5F80930A4F80F30BB
:10514000B5F80B30A4F81130304623F0BFFE0378D9
:1051500003F00303012B14BF01230023A37503787D
:105160000146C3F3C003237511F8013BC3F30013D9
:10517000E3750378C3F3800305468CBF85260026BC
:1051800063B101232376022204F1190042F0E9F809
:10519000E91C0B7863754B78E374A5E72376F8E791
:1051A0004CA500202DE9F047DDF820808246894695
:1051B00017461E46B8F1000F05D122B91BB96FF092
:1051C0000600BDE8F087FEF769F890F85432132B1B
:1051D000F5D8002409E0FEF761F804F10F052D0170
:1051E00028448388534507D00134FEF757F890F8D8
:1051F00054329C42EFD305E0FEF750F828448379FF
:105200004B45F1D1FEF74AF890F854329C4202D057
:105210006FF01A00D5E7FEF741F804F10F052D01F4
:1052200028442401A0F804A0FEF738F8284480F8A8
:105230000690FEF733F82844C0F80880FEF72EF8F1
:105240002044C0F8FC70FEF729F80444C4F800615B
:10525000FEF724F890F85432013380F854320020DD
:10526000AFE7F8B506460F460025FEF717F890F8A9
:1052700054329D4201D3002012E0FEF70FF805F1F1
:105280000F04240120448388B3420AD1FEF706F8B4
:1052900020448379BB4204D1FEF700F820448068A3
:1052A000F8BD0135E1E70000F0B51C4B1B6885B087
:1052B00006460F467BB90CF0B3FD014658B90823EA
:1052C0000093CDE901674FF4B87340F61A024FF02E
:1052D000FF302AF025F90024FDF7E0FF90F8543262
:1052E000A34201D8002014E0FDF7D8FF04F10F0518
:1052F0002D0128448388B3420DD1FDF7CFFF284408
:105300008379BB4207D1FDF7C9FF00EB0410D0F849
:10531000FC0005B0F0BD0134DEE700BF4CA5002065
:10532000F0B51C4B1B6885B006460F467BB90CF0E8
:1053300077FD014658B908230093CDE9016740F293
:10534000891340F61A024FF0FF302AF0E9F80024E2
:10535000FDF7A4FF90F85432A34201D8002014E0D6
:10536000FDF79CFF04F10F052D0128448388B3420B
:105370000DD1FDF793FF28448379BB4207D1FDF798
:105380008DFF00EB0410D0F8000105B0F0BD013432
:10539000DEE700BF4CA5002070B511F1FF3418BF47
:1053A000012406460D46FDF779FF233424012044ED
:1053B0008388B34201D0002070BDFDF76FFF204409
:1053C0008379AB42F7D1FDF769FF20448068F3E7AA
:1053D000F0B5194B1B6811F1FF3585B007460E4635
:1053E00018BF01257BB90CF01BFD014658B90823F5
:1053F0000093CDE9017640F2CD1340F61A024FF04A
:10540000FF302AF08DF8FDF749FF05F12304240150
:1054100020448388BB4202D0002005B0F0BDFDF7D8
:105420003DFF20448379B342F6D1FDF737FF00EB0F
:105430000510D0F83C02F0E74CA50020F0B5194B60
:105440001B6811F1FF3585B007460E4618BF0125D0
:105450007BB90CF0E5FC014658B908230093CDE96F
:1054600001764FF4EF7340F61A024FF0FF302AF046
:1054700057F8FDF713FF05F1230424012044838826
:10548000BB4202D0002005B0F0BDFDF707FF20446D
:105490008379B342F6D1FDF701FF00EB0510D0F898
:1054A0004002F0E74CA5002070B506460C461546B4
:1054B0002AF0DCFA38B1C42E05D129462046BDE8D1
:1054C0007040FFF769BF29462046BDE87040FFF7EE
:1054D000C8BE70B506460C4615462AF0C7FA38B164
:1054E000C42E05D129462046BDE87040FFF770BFA5
:1054F00029462046BDE87040FFF7D6BE70B5064687
:105500000C4615462AF0B2FA38B1C42E05D1294608
:105510002046BDE87040FFF791BF29462046BDE810
:105520007040FFF7FDBE10B51B21044623F062FE5C
:10553000037DB0F80F10007B002B0CBF012202226C
:10554000FFF7B2FF034618B12046BDE810401847E8
:1055500010BD70B51B21064623F04CFE05463046B3
:10556000FDF7C0FB044680B9AB7D30467BB1FFF749
:1055700097F950B9FDF7A4FE012810D02A7EAB7D23
:1055800042B1002B0CBF83248424204670BDFFF75A
:10559000CAFFEEE7002B0CBF81248224F5E78124AB
:1055A000F3E770B51646B1F809204FF6F7739A4243
:1055B00086B005460C4634D84B7B13F00C0F30D127
:1055C000CB7D03B16EB3A37D13B1E37C0B2B28D04D
:1055D0002378013B012B24D9284623F003FD237DAA
:1055E000002B0CBF182310230370637D43700B2323
:1055F0008370E37CC370067100230493B4F80F300A
:105600000393B4F811300293237B0193E37A009360
:10561000411D0223621C2846FDF7B0FD012006B0A3
:1056200070BD2846002DFAD023F0F0FB0020F6E7ED
:1056300070B51646B1F809204FF6F7739A4286B056
:1056400005460C462FD84B7B13F00C0F2BD1CB7D8E
:1056500003B146B3A37D13B1E37C0B2B23D0237896
:10566000013B012B1FD9284623F0BCFC18230370F3
:10567000637D43700B238370E37CC370067100234A
:105680000493B4F80F300393B4F811300293237BE2
:105690000193E37A0093411D0223621C2846FDF723
:1056A0006DFD06B070BD284606B0BDE8704023F021
:1056B000ADBB70B51646B1F809204FF6F7739A42A4
:1056C00088B005460C4635D84B7B13F00C0F31D112
:1056D000CB7D03B176B3A37D13B1E37C0B2B29D033
:1056E0002378013B012B25D9284623F07BFC182386
:1056F0000370637D43700B238370E37CC37006717A
:10570000627B0023C2F34012CDE90432CDE90633B7
:10571000B4F80F300393B4F811300293237B019354
:10572000E37A0093411D0223621C2846FDF75AFDCF
:1057300008B070BD284608B0BDE8704023F066BBD5
:1057400070B51646B1F809204FF6F7739A4286B045
:1057500005460C4643D84B7B13F00C0F3FD1CB7D55
:105760000BB1002E3BD0A37D13B1E37C0B2B36D0C5
:105770002378013B012B32D9284623F033FC237ECA
:10578000002B237D14BF04220022002B0CBF082312
:10579000002342F01002134300F8013B237E1BB1AB
:1057A000B4F8191028F0A9FF637D03700B23437030
:1057B000E37C8370C67000230493B4F80F30039326
:1057C000B4F811300293237B0193E37A0093011D17
:1057D0000223621C2846FDF7D1FC06B070BD2846A6
:1057E00006B0BDE8704023F011BB000030B589B0B1
:1057F000182302AA25F0EEFD0546002878D10121E4
:105800004FF4A060FDF7BCF9044600285ED01023D9
:1058100001224FF4A061FEF7F1FA08220DEB02011C
:10582000406841F09EFD2B4601224FF4A0612046C6
:10583000FEF7E4FA43689DF811201A704FF4A06156
:10584000112301222046FEF7D9FA43689DF814205F
:105850001A704FF4A0614EF2010301222046FEF7B8
:10586000CDFA43689DF810201A704FF4A0614EF2F3
:10587000020301222046FEF7C1FA4368BDF8122058
:105880001A804FF4A0614FF4604301222046FEF7D6
:10589000B5FA43689DF81F201A709DF81F30ABB110
:1058A0002046FFF707F9044680B1124B1B686BB91D
:1058B0000CF0B6FA014648B90423009301948323FF
:1058C00040F608024FF0FF3029F02AFE0121202087
:1058D000FDF756F960B14EF6FE7301222021FEF766
:1058E0008DFA4368BDF816201A809DF815209A702D
:1058F00009B030BD4CA5002070B586B01822054611
:105900000E466846002141F050FD01214FF4A06091
:10591000FDF736F90446002845D0102301224FF444
:10592000A061FEF76BFA08224168684641F019FD54
:10593000002301224FF4A0612046FEF75FFA43687E
:105940001B788DF8093001224EF201034FF4A0615B
:105950002046FEF753FA43681B788DF80830012281
:1059600011234FF4A0612046FEF748FAA8B343681C
:105970001B788DF80C304EF2020301224FF4A06127
:105980002046FEF73BFA43681B88ADF80A30012237
:105990004FF460434FF4A0612046FEF72FFA4368AE
:1059A0001B788DF8173001212020FDF7E9F860B150
:1059B0004EF6FE7301222021FEF720FA43681A8872
:1059C000ADF80E209B788DF80D3018236A463146CD
:1059D000284626F0CDF806B070BD8DF80C00CAE759
:1059E0002DE9F843FDF75AFC4468002C36D104EB4E
:1059F0004400C00080B2BDE8F883FDF74FFC436867
:105A0000D3F8013053F82630D3F81A304FEA86081D
:105A10009BB1FDF743FC4368D3F8013053F82630BF
:105A2000D3F81A900025FDF739FC4368D3F801300C
:105A300053F808305B7EAB4207D80136FDF72EFCE9
:105A400043681B78B342D8D8D1E707FB05930135EB
:105A50001B7ADB0744BF0134A4B2E4E700242646E6
:105A60003027EBE72DE9F04F89B083460191002400
:105A70001827B2FBF7F7FDF711FC43681B78A34228
:105A80000BD8002635464FF0180A019BBD420AFB91
:105A9000053126D309B0BDE8F08FFDF7FFFB436861
:105AA000D3F8013053F82430D3F81A30BBB1FDF7E6
:105AB000F5FB4368D3F8013053F82430D3F81A507B
:105AC000FDF7ECFB4368D3F8013053F824305A7EDD
:105AD00002EB420212010021284641F066FC01342B
