:020000022000DC
:1070000000000420B5720200DD720200DF7202008F
:10701000E1720200E3720200E5720200000000006B
:10702000000000000000000000000000E772020005
:10703000E972020000000000EB720200ED72020033
:1070400085320300EF7202004D370300EF72020039
:10705000EF720200EF720200A9350300AD380300A1
:10706000EF720200EF720200113A0300EF720200A9
:10707000EF72020069380300EF720200EF72020043
:10708000EF7202006D8A0200EF720200EF720200DE
:10709000EF720200EF72020021AE030045B9060054
:1070A000EF720200EF720200EF720200EF72020054
:1070B000EF720200EF72020000000000000000000A
:1070C000EF720200EF720200EF720200EF72020034
:1070D00091A80600EF720200EF720200EF72020048
:1070E000EF720200EF720200EF7202000000000077
:1070F00000000000EF72020000000000EF720200CA
:10710000000000000000000000000000000000007F
:10711000000000000000000000000000000000006F
:10712000000000000000000000000000000000005F
:10713000000000000000000000000000000000004F
:10714000000000000000000000000000000000003F
:10715000000000000000000000000000000000002F
:10716000000000000000000000000000000000001F
:10717000000000000000000000000000000000000F
:1071800000000000000000000000000000000000FF
:1071900000000000000000000000000000000000EF
:1071A00000000000000000000000000000000000DF
:1071B00000000000000000000000000000000000CF
:1071C00000000000000000000000000000000000BF
:1071D00000000000000000000000000000000000AF
:1071E000000000000000000000000000000000009F
:1071F000000000000000000000000000000000008F
:1072000010B5054C237833B9044B13B10448AFF3E0
:1072100000800123237010BD6031002000000000B9
:10722000D41D070008B5034B1BB103490348AFF356
:10723000008008BD0000000064310020D41D07005C
:10724000154B002B08BF134B9D46A3F5803A002138
:107250008B460F461348144A121A44F034FD0F4B64
:10726000002B00D098470E4B002B00D098470020F1
:10727000002104000D000D48002802D00C48AFF397
:10728000008044F0A9FC200029000DF0BFFC44F070
:107290007DFC00BF0000080000000420000000008A
:1072A00000000000603100207C92002000000000FF
:1072B000000000000649074A074B9B1A03DD043B08
:1072C000C858D050FBDC12F07FF9FFF7B9FF00007F
:1072D000E81F0700E82A002060310020FEE7FEE7F3
:1072E000FEE7FEE7FEE7FEE7FEE7FEE7FEE7FEE776
:1072F000F0B595B01C46164608460D4603F046FA12
:107300001A9B0D93CDE9086400242346082205A9A1
:1073100028460A948DF82C400C9403F055FA079BEC
:107320000293BDF81830ADF80C30BDF81A30ADF846
:107330000E309DF814308DF8114003F00302012A3D
:107340001DD1BDF81440059EC3F3C203C4F38314DA
:107350008DF81030A20008230EA9284603F034FA55
:10736000C6F3952608AB0093224602AB0EA9304621
:1073700000F034FD284603F00DFA15B0F0BD022AE6
:10738000F8D1BDF81640C3F3C203A4098DF810303C
:107390000827082C264628BF08263B4632460EA959
:1073A000284603F011FAA41B08AB02AA31460EA826
:1073B000374400F077FD002CEBD1DBE7014B0122D5
:1073C0001A707047BD3100207047000070B50F4D36
:1073D00006460FCD88B06C460FC495E80F00002E0E
:1073E00084E80F004FF01F030093094A09484FF04B
:1073F000805308BF0022694606930BF0A1FE08B136
:1074000000F022FF044B1E7008B070BD8CD4060043
:10741000BD730200E82A00207C31002007B5044B30
:107420000093044A4023FFF763FF03B05DF804FBB9
:10743000397402007D31002038B50D4B0D4D002010
:1074400018700D4804782D5DD2B21C4665B1043029
:107450000CF09AFF08B100F0F7FE084B1A7812B151
:107460002378002BFBD038BD0C300CF029FDF1E760
:10747000BD310020CC710020E82A00207C310020A2
:1074800008B50848084A0378D35C3BB104300CF0D7
:107490000DFF0020BDE80840FFF798BF0C300CF04E
:1074A000B5FCF6E7E82A0020CC7100200120FFF7A8
:1074B0008DBF000008B5FFF7F9FF0421034800F075
:1074C000EBFB034B01225A7108BD00BFD01F070020
:1074D000FC2A0020037813F0040216D003F0030303
:1074E000012B03D0022B09D0012070470A680088C5
:1074F0000232C0F3831002440A60F5E70B68428849
:10750000023303EB92130B60EEE710467047000066
:107510002DE9F04F89B00546861C08A8484C019219
:1075200000230F4600F8113D01F01CF923683B6071
:10753000D4E901231344226801339B1A04F21C4747
:1075400004F5836A04F21448B3421AD3019A002363
:10755000002A6DD0012262F3010343F0040365F3B6
:1075600089132168A2689DF80F000A4003320E4477
:1075700044F82230266001F019F9012009B0BDE875
:10758000F08F0121384602F027FB504602F03DFB08
:10759000404602F03AFB0DF120096068D4F808B0CB
:1075A00049F8100D00EA0B00033004EB8000494657
:1075B000FFF790FF049BB0B90BEA030204EB8202D1
:1075C000D16805919A1C013303EA0B0B04EB8B0C79
:1075D00001F00303012B0492DCF80CB020D0022B45
:1075E00004D083460BE00BEA0300DDE7BDF816305C
:1075F0009B0903334FEA1B4B02EB93030493404672
:1076000002F006FB08B1049B63605946384602F05D
:10761000E3FAD4E901231344226801339B1A93E768
:10762000BDF81430C3F383134FEA1B4B1344E5E753
:10763000022262F3010343F0040365F39F5390E7D2
:107640009032002030B50A4B0A4A0B49D21AD208B0
:1076500000239A4201D1052006E031F82350046846
:10766000A54202D10360002030BD0133F1E700BF25
:10767000881E0700D01F0700183000202DE9F84FA2
:10768000224B2348FF229A600022C3F81824C3E942
:107690000022C3F8142483F8202403F030F8804635
:1076A00088B91C481C4E1D4DDFF874A003F0BBF9CF
:1076B000AD1BED084446AC4208D1002318491948D7
:1076C0001A469C421BD14046BDE8F88F4FF0000996
:1076D0004F4606EBC40BBC420AD0142256F83710B2
:1076E000DBF8000044F05AFE0028C8BF09F1010988
:1076F0000137BD42EFD12AF824900134DBE701EBDA
:10770000830540F823206A800133DAE790320020B5
:10771000701E0700CCD40600881E0700D01F07008B
:1077200018300020BC30002007B5019031B9019A13
:10773000064B53F8320003B05DF804FB01A8FFF7D5
:1077400081FF0028F3D00020F5E700BF881E070066
:10775000094B013903EBC000032909D8DFE801F028
:107760000A02040604207047007970474079704788
:107770000020704702207047881E070030B5124C69
:1077800000EB400054F821508240072303FA00F038
:107790006A4002400D4B6A40C2F3821044F8212037
:1077A00003EB8101C2F3C203834238BF0346C2F335
:1077B0004220834202F0070238BF03469A4238BF94
:1077C0001A464A8030BD00BFBC300020183000206F
:1077D00037B5164B93F8203404460BB918B900247A
:1077E000204603B030BD44F0D1FD02AA013042F87A
:1077F000080D012301A90E4803F023F905460028CE
:10780000EDD12146009A019844F039FADDE90023D0
:107810001344074803F8015C009903F049F9009903
:10782000034803F05EF9019CDAE700BF90320020C4
:10783000CCD40600034BD3E90030C31A5842584158
:10784000704700BF903200202DE9F04F87B0FFF75E
:10785000F1FF0646002840F01B818E4DC5F8180444
:10786000BFF34F8F6868AC6806AF47F8100D204033
:10787000033005EB80003946FFF72CFE029B18B160
:10788000D5F81824002A66D004EA0302991C0133B3
:1078900005EB8202234005EB8303D268DB68049387
:1078A00002F00303022B0392029169D1BDF80E305E
:1078B00079489DF80C604FEA931ABAF1500FD146FF
:1078C00028BF4FF0500969F38F1309F10801ADF893
:1078D0000E3002F02CFFC6F3C2068046002800F0EE
:1078E000BE8002F053FF03A900230822404602F0A5
:1078F00060FF029924EA01070137BF00B94538D972
:107900005FFA89F997B3FFB2A9EB07092140033168
:107910005FFA89FBB946614F05EB810108234A46AE
:10792000404602F046FF37B109F108035A4639468E
:10793000404602F03EFF029B0AF1030A03EB9A0362
:107940000293D5F81834002B50D1D5F81044DFF845
:10795000609107276FE02A689A4204D86A6030462F
:1079600007B0BDE8F08F04EA030081E74B49BB464E
:10797000D4E72140033108234A4605EB8101D7E7CC
:10798000012B6CD1BDF80C604348C6F38311062966
:1079900028BF062161F3891602318900ADF80C6019
:1079A00002F0C5FEC6F3C2068046002857D002F09A
:1079B000EDFE0023082203A9404602F0FAFE00274C
:1079C000BDF80C20C2F38312BB1C97424FEA83031D
:1079D000B7D202994A1C21400331029205EB810182
:1079E0000422404602F0E5FE0137E9E7404602F096
:1079F000D1FEFFF71FFF80F00100C6B2AFE7E368DA
:107A00005A79B2B11B79BDF8101003EB430259F853
:107A1000211007FA02F3052E03EA010323FA02F309
:107A200008BF0326B34204D3236841461B6820469F
:107A30009847E3681C68002CE1D1404602F0AAFE9A
:107A400006A800F8114D00F08DFED5F818340BB9DA
:107A5000029B6B609DF8070000F0A8FEC9E7D5F80F
:107A6000104474B90E4B5B88012BC2D90D4B0E48E4
:107A70000E49C01AC008000440F0020000F072F87D
:107A8000B7E7236820469B689847E3681C68E8E7E7
:107A9000002664E790320020701E07009C32002010
:107AA0003C300020881E0700D01E0700D8D40600F6
:107AB000BC3000202DE9F74F284C80460F469246F7
:107AC00001A9012218469B46D4F80890FFF720FD33
:107AD00088B3019D0026A91C5E4506EB010234D146
:107AE00000211F4802F037F880F310006A1C02EAF8
:107AF000090204EB8202000405EA0903033340EAA9
:107B00001840D06014F8232068F3C50204F823203D
:107B100034F8232066F3891224F8232054F8232014
:107B2000012167F39F2244F8232061F301026FF3E0
:107B3000820204F8232094F820341BB1FFF784FE5E
:107B40000028FBD103B0BDE8F08F09EA020204EB84
:107B500082025AF82630D3600136BDE79032002009
:107B6000AC36002000231A46FFF7A4BF13B502ACC1
:107B7000012344F8042D2246FFF79CFF02B010BDFC
:107B800007B5CDE9002302236A46FFF793FF03B050
:107B90005DF804FB1FB5CDE90123069B039301AA01
:107BA0000323FFF787FF05B05DF804FB1FB5CDE9A0
:107BB0000023069B0293079B03936A460423FFF767
:107BC00079FF05B05DF804FB2DE9F3478046304CA2
:107BD000D01C8A46174601A900228008A568FFF735
:107BE00097FC002840D0DDF80490A66809F1020057
:107BF000019001362840361AB6000330B74204EB34
:107C000080003BD83A46514644F039F800212148DB
:107C100001F0A1FF80F3100009F101032B4004EBF8
:107C200083034FEA184242EA0040D86005EA09039C
:107C3000033304EB830214F8231068F3C50104F83E
:107C4000231034F823106FF38F1124F82310518878
:107C500067F38F11518014F82320022161F3010290
:107C60006FF3820204F8232094F820341BB1FFF74D
:107C7000EBFD0028FBD102B0BDE8F087324651464B
:107C800043F0FDFFBA1B0AEB060104F10C00BBE751
:107C900090320020AC3600202DE9F8431F4B884677
:107CA000D3F81014054600240A469AB9E9680C7105
:107CB000D3F81014A1B9C3F81054EB681A60184F28
:107CC000184EF61BF6084FF00009B14511D12046B9
:107CD000BDE8F883D2681079A04218D01268E4E7B2
:107CE000C968EA6809681160D3F81034DB681D6060
:107CF000E5E707EBC9034946DA79EB68424528BF57
:107D000042461879FFF73AFD09F10109DDE7013430
:107D10000A2CC9D14FF0FF34D9E700BF90320020C0
:107D2000881E0700D01F070010B5037A052B0C46EC
:107D30000FD0437A23B1084A0849204601F0CEFF0C
:107D40000749204601F0CAFF2046BDE8104001F077
:107D5000BABF002AF8D0F3E733D506004BF206008D
:107D600055D5060073B5C38804460D4633B1144A91
:107D700000921449144A284601F0B0FF217A0529DF
:107D80001CD0637A4BB1A088FFF7E2FC0F4B10497F
:107D900053F82020284601F0A1FF227A0D4BA0883D
:107DA00053F822600021FFF7BFFC0B49034632461F
:107DB000284602B0BDE8704001F090BF02B070BD2F
:107DC00033D5060040D5060038D5060000D506009C
:107DD0004BF2060064D5060058D506002DE9F043A5
:107DE00085B01F460C9D002306460C46904695F82C
:107DF0000C902B7329463846FFF7B4FFB8F1060FF5
:107E000009D8DFE808F00412181F28334000314673
:107E1000284601F063FF002229463846FFF784FF19
:107E200085F80C9005B0BDE8F083226831462846FD
:107E300001F054FFEFE7D4E900233146284601F072
:107E40004DFFE8E7A36800933146D4E900232846B4
:107E500001F044FFDFE7E3680193A3680093314634
:107E6000D4E90023284601F039FFD4E723690293BF
:107E7000E3680193A36800933146D4E900232846C0
:107E800001F02CFFC7E76369039323690293E3685A
:107E90000193A36800933146D4E90023284601F0FA
:107EA0001DFFB8E708292DE9F84F80460E46174612
:107EB0001C4635D8002593F80C901D7319461046C2
:107EC000FFF750FFDFF88CA0DFF88CB0AE4229D965
:107ED00018F805205946204601F000FF0135082D0D
:107EE000F4D11A49DFF874B0204601F0F7FE4FF0E4
:107EF000000A564524D918F80A507E2D17D92E228B
:107F00005946204601F0EAFE0AF1010ABAF1080FCB
:107F1000EFD1012221463846FFF706FF84F80C9086
:107F2000BDE8F88F5146204601F0D8FED6E743F071
:107F300077FE2844427812F0970FE0D02A46DFE718
:107F40000349204601F0CAFEDEE700BF2ED5060039
:107F50002CD506002AD5060024D5060030D506000B
:107F6000C30710B507D4F0234008054A145C23402A
:107F70001943115410BD0901C9B20F23F4E700BF22
:107F80006037002030B5094B1C78094B1968002375
:107F90009C4202DC0022104630BD11F8335085426D
:107FA00001EBC302F7D00133F2E700BF4C370020EA
:107FB0008037002070B504460D46FFF7E3FF30B16F
:107FC000436823B129462046BDE87040184770BD7C
:107FD000034B044819680022490800F0D0BA00BFDA
:107FE00050370020082B002010B5C0B2FFF7CAFFA1
:107FF000044600780BF0C8FA63785A1E5342534186
:10800000834208D1044BD3E90023134303D1BDE8D5
:108010001040FFF7DDBF10BD583700202DE9F348B1
:10802000394A43080446D35CC2074CBF1B0903F01E
:108030000F030D46042B39D8DFE803F00328303D49
:10804000410099B30121FFF78BFF02A8002600F839
:10805000016D00F087FB2D4D0121A4F12007C4F133
:10806000200001FA07FC21FA00F04CEA000C01FAAA
:1080700004FBD5E900014BEA00024CEA0103C5E923
:1080800000239DF8070000F091FB0FE0002914BFCA
:10809000022100212046FFF763FF07E049B10321D9
:1080A000FFF75EFF01212046FFF784FF02B0BDE825
:1080B000F0880121EEE70029F8D10421EAE709B1AF
:1080C0000321E7E7FFF74CFF29462046FFF772FF41
:1080D00002A80E4E00F8015D00F044FBA4F1200759
:1080E0000121C4F1200001FA07FC21FA00F04CEA5A
:1080F000000C01FA04FBD6E9000120EA0B0221EA98
:108100000C03C6E90023BCE7603700205837002085
:108110002DE9F041124E134F00243378A34208DCBE
:10812000114BD3E90023134318D0BDE8F041FFF70A
:108130004FBF3D6805EBC40815F834000BF024FA76
:1081400098F801104B1E594259410A1A514215F82C
:1081500034005141FFF762FF0134DEE7BDE8F081F2
:108160004C3700208037002058370020092AF7B507
:1081700005460C4616463FD90BF02CF9D8B11F4BDB
:108180001F481D601F4B204F1C70204B00212022D8
:108190001E6043F098FD1E4B00200021C3E9000142
:1081A000013CE4B20326FF2C0BD11A4A1A480021E5
:1081B00000F0DAF903E00BF0D7F80028DFD003B0C5
:1081C000F0BD9DF806308DF8046020B203F0FC038A
:1081D00005EBC0026FF382038DF80630937815F833
:1081E00030008DF805303A4601A90BF0FDF8013C4E
:1081F000E4B20028D7D0E2E70720E0E7803700208C
:10820000603700204C370020E97F02005037002003
:108210005837002011810200CCD5060070B5084DFA
:10822000084E00242B789C4201D3002070BD336897
:10823000012113F834000BF05DF90134F2E700BFBF
:108240004C370020803700201FB50021039001AA81
:1082500044F20100CDE9011111F0CEFB05B05DF84B
:1082600004FB000012F0030310B511D1094C226089
:108270004C1CE400A4B22244074C2260074A13704D
:10828000074A1370074A1080074A1846118010BD2C
:108290000720FCE78C370020883700208437002037
:1082A0009437002090370020923700202DE9F347C3
:1082B0002B4D2B888B4206460C4617464BD302A803
:1082C0004FF0000800F8018D00F04CFA254B264ACB
:1082D00018781178CBB2254909888B4238BF013311
:1082E000C0B238BF5FFA83F840452ED092F80080C4
:1082F0001378DBB2994286BF0133DBB200231370DF
:108300009DF8070000F052FA4FF6FF73984524D00D
:10831000DFF860A0DAF800304FEAC80903EB090281
:1083200043F83870A6B19CB1114B28881B682246CF
:1083300008FB0030314643F0A2FCDAF800304B4431
:1083400000209C8002B0BDE8F0874FF6FF78D7E7A9
:1083500000209080F6E70920F4E70420F2E700BF50
:108360009037002094370020843700209237002077
:10837000883700208C370020F8B5124C124D264665
:1083800022782B789A4200D1F8BD23780F48104A02
:10839000078812680F48DBB219B202EBC10C006803
:1083A00052F83120BCF8041003FB070090470A4A3A
:1083B00023781288DBB29A4286BF0133DBB20023F6
:1083C0003370DDE794370020843700209037002099
:1083D0008C3700208837002092370020D0E9022314
:1083E000D1E90201994208BF90422CBF0120002030
:1083F0007047D0E9003018472DE900480C4800F0DC
:1084000021FB0C4BD3E9002312EB000B43F1000CD2
:10841000094BD3E900239C4508BF93455846614664
:1084200003D21BF180704CF10001BDE8008800BF51
:10843000442B0020A03700200838002037B505461F
:108440000C460A4801A901F0BAFA60B1057044600F
:1084500001A9064801F0DDFA18B1054800F0F6FA66
:10846000002003B030BD0420FBE700BF302B00200C
:10847000442B00202DE933481F4B1D780446002D66
:1084800033D0002835D090F8203003F0FF0563B3D7
:10849000FFF7B2FFD4E90223994208BF90421ED3EE
:1084A00023690BB984F8203063690093134AA369E8
:1084B000019308216846FFF7F9FE08B1FFF7C4FEF3
:1084C000216989B194F8203003F0FF056BB1D4E93C
:1084D000022312EB010B43F1000CC4E902BC21465C
:1084E000074802F027FB00E00D46284602B0BDE831
:1084F00030880546F9E700BFA8370020F383020063
:1085000004D6060013B5114B1149186801900823D1
:108510005822104801F01EFA044698B90E4A0F4836
:1085200001A900F067F9044660B901210B4800F089
:1085300069FA01230A4A0948194600F0C7F9094BAC
:1085400001221A70204602B010BD00BF00D60600FE
:10855000AC370020302B0020CD850200442B0020BA
:10856000FFFF7F00A83700203AB103685A614A1E16
:10857000514251411961002070470720704738B5BA
:1085800090F8203004460D4683B98261FFF734FF2E
:10859000421941F10003C4E90223236903B12561B3
:1085A00021460020BDE83840FFF748BF002038BD15
:1085B0000023014680F820300120FFF73FBF000074
:1085C000014800F03FBA00BF442B00202DE9F74FCF
:1085D000064600F020FA40B15A49D1E9002312F1D1
:1085E000807443F10005C1E900450021304600F0E8
:1085F00022FA38B1544C236823B12068FFF73AFFC0
:10860000002323600121304600F015FA20B1FFF766
:10861000F3FE4E4BC3E9000101A94D484A4D4D4CB4
:108620004D4F01F006FA002845D1DFF828A1464C4D
:10863000DFF82CB1504602F093FA2368002878D076
:1086400083B12368D0E90201D3E90223994208BF2C
:1086500090422DD2236893F820301BB121685046F8
:1086600002F068FA504602F075FAD0E9028907462E
:10867000FFF7C2FEB8EB000869EB010940464B4624
:10868000012873F1000347DB344DA84542D9FFF7B9
:1086900097FF42194FF496030021584600F03AF92B
:1086A000002841D1236813B9304600F007F927604C
:1086B00003B0BDE8F08F0378012B20D00BD3022B41
:1086C00014D14FF00008204602F044FA002836D0BA
:1086D00080F82080F7E7436893F8202032B9012220
:1086E00083F820204168204602F024FA01A91848A6
:1086F00001F0CAF901A9164801F09BF993E7416816
:108700002B68994202D100232B60EFE7204602F04C
:108710002AFAEBE7BA68BDE70021584600F080F975
:108720003846FFF7A7FE01E00D28F9D000232360AB
:1087300080E7002BBCD1304600F0C4F8B8E7012335
:108740003B70D3E7A0370020103800200838002005
:10875000302B002004D60600A8370020FFFFB4000D
:10876000442B002070B5EFF3108672B60C4A946863
:1087700001239CB993600B4B0B4DD3F8801029401B
:108780001160C3F88050D3F8841051604FF0FF326D
:10879000C3F88420047006B962B670BD0370FAE7AE
:1087A000CC70002000E100E0FC06FFBD10B5084BD6
:1087B0009A685AB150B9EFF3108172B6054A1C6835
:1087C00014605C685460986001B962B610BD00BF67
:1087D000CC70002000E100E0435882B03BB10023A0
:1087E000435043580193019B012002B07047184643
:1087F000FBE7000070B5284C4379284D44F823204E
:10880000274C04EBC3031B7973B16B88012B09D987
:108810002448254B2549C01AC008000440F0020036
:10882000FFF7A0F9082070BD03680A88C3F808257F
:1088300090F904308A78002B4FEA4212AFBF03F15F
:10884000604303F00F031A49D2B2A9BF03F5614395
:10885000CA54D2B283F8002390F9043015495E0956
:10886000012203F01F0302FA03F341F82630437993
:1088700004EBC30144F833006B880A71022B09D959
:108880000848094B0C49C01AC008000440F0030016
:10889000FFF768F90020C6E71C38002044300020AC
:1088A00014380020E01E0700881E070036D6060098
:1088B00014ED00E000E100E058D606000368012254
:1088C0001A607047036801225A607047F7B505685F
:1088D0004FF480348C40C5F808430568C5F8484318
:1088E0008D0005F5A0750668ADB200277751755962
:1088F0000195019D056801F5A87122F07F4245F8B8
:1089000021200268C2F8444313B10368C3F804434A
:1089100003B0F0BD2DE9F34799464FF48038036862
:1089200008FA01F8C3F848830368C3F8088322F003
:108930007F4502688E000F46D2F80415324406F5D2
:10894000A076D2F84035C2F84015B6B202684FF0B2
:10895000000A42F806A05B1A9259009223F07F4366
:10896000012B0446009A0BD1254B4FF4806043F055
:1089700001039847236843F806A09B590193019B84
:108980002368D3F80465C3F84483AB1B23F07F430B
:10899000012B07F5A877236819D1013543F8275033
:1089A000174B4FF4806043F0010398472368D3F8D6
:1089B00004359E4209D12368C3F84483236800200C
:1089C000C3F8048302B0BDE8F0870D20FAE743F84E
:1089D00027502068D0F804156A1A013AC9F1FF132C
:1089E00022F07F4203F57F439342EED3002AE2D187
:1089F000013540F827502368D3F804359942D9E768
:108A000030D6060002680223C2F8443311B102686E
:108A1000C2F8043370474FF482710068FFF7DCBE80
:108A20004FF4803303FA01F10368C3F84813036875
:108A3000C3F808137047890001F5A07189B2006876
:108A4000FFF7CABE0368D3F80405704790F90430F5
:108A500001215A0903F01F0301FA03F340320249CE
:108A600041F82230704700BF00E100E0024B034AAA
:108A70001B681068184700BF1C38002014380020FD
:108A800070B5064E0546002456F824300BB1284632
:108A900098470134042CF7D170BD00BF2C3800205A
:108AA000033080B240F2FE33984230B51FD8134BEA
:108AB0001A783AB91C895D892C440444A4B2B4F5EF
:108AC000806F0AD91A7DAAB99A8BDC8B22440244A2
:108AD00092B2B2F5806F0DD801220A80144614229A
:108AE00002FB04335A8910445881002030BD48F2FB
:108AF0000860FBE748F20660F8E700BF6038002036
:108B00000B4A0C4B5188142000FB0131CB6833B960
:108B10000420496810700122074801F09DBB05231D
:108B20000649137002238B80012200230968F3E7B2
:108B30004438002060380020F02F00201839002031
:108B400007B5002305490093054A0968054808232D
:108B500001F0C2FA03B05DF804FB00BF1839002031
:108B600078D60600F02F002007B5002300930146B9
:108B70000823034A034801F0AFFA03B05DF804FB91
:108B800070D60600F02F002013B500230C4600938A
:108B900001460423074A084801F09EFA38B9074BFA
:108BA000142202FB04340123237402B010BD48F2E6
:108BB0000D60FAE76CD60600F02F00206038002028
:108BC00037B50A480A4B42689C88196853880325C0
:108BD000033305709BB2002000909B0001EB8401E1
:108BE000044801F079FA03B030BD00BF44380020DA
:108BF00018390020F02F002010B50146044800F07D
:108C0000DEFE1C220446002143F05DF8204610BD24
:108C10004C2B00204388033300EB830399420BD392
:108C200082884FF6FF739A4208D0038833B1806878
:108C3000431C58425841704702207047012070473A
:108C40002DE9F8430223DFF860800B800D461746BC
:108C500000F5805600F108044FF00109B4420FD22C
:108C6000236801330CD031462046FFF7D3FF48B1CB
:108C70000FB187F8009002280BD14FF480632B804E
:108C8000BDE8F883A368D8F80020934201D9C8F85A
:108C900000302B886288033313442B8063880333AE
:108CA00004EB8304DAE700BF5838002070B5144A9B
:108CB000142303FB00200B6844680D4604F580561E
:108CC0009BB15C88033403EB8404B4420BD2236869
:108CD000013308D031462046FFF79CFF012809D018
:108CE00005D30228F1D1002003E00834EDE72C6021
:108CF000012070BD6388033304EB8304E5E700BF04
:108D00006038002073B5436805460C4673B3254AA6
:108D1000D1688B422AD31269934227D813F00302F9
:108D200024D121490089098988421FD1286899687E
:108D300088421BD11D494868834203D900F5805001
:108D400083420ED38A6993420DD902F58052934231
:108D500009D2012323800020B0FA80F0400902B03C
:108D600070BD1346F6E748F20960F5E7002323805B
:108D70001E462388012B01D90020F0E7019601A9A6
:108D80002088FFF793FF18B9238801332380F0E789
:108D9000019B2A6899689142F1D16B60024B1B8953
:108DA0002B81DCE7F02F00204438002060380020C1
:108DB0002DE9F8431C46204B1B7806460F46154606
:108DC000002B33D0002A34D0002C32D0DFF8708052
:108DD0004FF01409A388012B02D948F209601BE067
:108DE00009FB03F318F80330C3B1A3880133A38050
:108DF000F0E723681EB19988328891420ED11FB1E5
:108E000019883A88914209D19B682B6023686B606E
:108E10000A4B1B892B810020BDE8F8832146A088DE
:108E2000FFF744FF0028E4D12060DEE748F201604C
:108E3000F2E748F20460EFE73C38002044380020B5
:108E40006038002008B5074B191D5888FFF72EFF22
:108E500018B1BDE80840FFF7B3BEBDE80840FFF712
:108E60004FBE00BF443800202DE9F04FA34FDFF87C
:108E7000B09289B00646B8463B6823B94946A04837
:108E800000F0D7FD3860D8F8005029784B1E052B2C
:108E900000F21781DFE813F00600780078000B017C
:108EA0000B0165012EB1974B00225A604FF4064426
:108EB00025E02B79032B1DD8DFE803F01502434E84
:108EC00091490B78022B084632D00B7D022B4FF0D4
:108ED00001032FD114225343C2180020C8545068F4
:108EE000FFF742FE03E001232B71FFF729FE002864
:108EF00000F0D780834B00225A6048F20D641422A0
:108F0000002103A842F0DFFE41F61D539C4208BF3A
:108F10000024D8F8003004941A78023A042A00F2A7
:108F2000D981DFE812F0BA01C601E901F101F801C7
:108F30000023CFE7734A13700023536041F61D549A
:108F4000DDE772497248002302222B718A800122D8
:108F5000096801F081F9CAE76C4C00262E7120687F
:108F6000694DFFF701FE6B4BD4F800C05A881423FB
:108F70005343EA18EE5451682160A188C2F804C036
:108F800011810222A280B2E7B5F814A0AA7DDFF811
:108F900078B11423AEB1022A06D903FB0AB3EA88DA
:108FA000198903320A441A81142303FB0ABAEB8895
:108FB000BAF80A20C3F57F43FD331344AAF80A30F8
:108FC00074E703FB0AB318895C6804EB8004062A83
:108FD00005D8DFE802F0284F37451E5B690048F2EC
:108FE0000E64AB7D022B07D9142202FB0AB2EB8878
:108FF000118903330B441381142303FB0ABAEB8852
:10900000BAF80A20C3F57F43FD331344AAF80A30A7
:1090100075E74148414900234360AB690360FFF7AE
:1090200071FE00285CD00223AB750023009304235B
:10903000EA182146364801F04FF8002831D048F2AE
:109040000D64CEE72B69002B0CBF01230323AB7506
:109050000023009305F10C02042304F10801E9E761
:109060000123AB750022EB8800929B002A6904F172
:109070000C01DFE7032914BF06230523AB7500238A
:109080000093042305F10802E118D3E70623AB752A
:10909000224B1988204B5868FFF776FD04460028BC
:1090A0009FD109B0BDE8F08F41F61D5499E7002E1D
:1090B0007FF4FCAE2B79012B34D005D3022B3FF487
:1090C0003DAF48F20E641AE702232B71CDE9046626
:1090D0000DF10A01EB68039303A8FFF713FE10B923
:1090E00048F209640BE70498BDF80A108388EB8006
:1090F00003882B81FFF748FD044628E05C380020F8
:109100004C2B00203C38002060380020183900200B
:10911000F02F00204438002020380020243900207F
:1091200054380020DFF80CA203AA53463146A81D8C
:10913000FFF73EFE044670B9BAF804100498FFF732
:1091400023FD044648F209639C423FF4F7AE002C2D
:109150007FF4D5AEA5E708223146504642F0B3FD74
:10916000F0E7002E7FF4A2AE6D4B1A7BB2B11E73F6
:109170001A78013A062AA4D801A151F822F000BFBA
:10918000279202004D9202006B920200719202003F
:10919000C3900200779202008D9202001A78072A8B
:1091A000E6D801A151F822F0C991020071910200A4
:1091B00071910200EF9102000392020023920200DB
:1091C00023920200EB9102001A89564901321A815A
:1091D00000225A801A730A78B2FA82F252099A72FD
:1091E0000A7DB2FA82F25209DA72012207E04E4990
:1091F00058688A884088033202448A8002221A70A2
:10920000B6E7484C5A884849142505FB02420868CD
:10921000546850608888108102228A800C6006227F
:10922000EDE70722EBE79A7A32B9DA7A8AB90022B7
:109230001A705A805A6081E63A4900229A72CA68C6
:10924000002AF2D1097C0029EFD05A80FFF7FAFDFD
:1092500052E70022DA72334A116A0029E7D192F804
:109260002420002AE3D00122EFE7FFF7A9FC43E71F
:10927000FFF746FC40E706221A702A4A5B88142151
:1092800001FB03235868FFF76FFC35E707221A70CC
:1092900000225A60FFF754FC2EE701228DF80C20C3
:1092A0001A89ADF818209A88ADF81A20DB68059362
:1092B00010E002228DF80C201A89ADF818209A8847
:1092C000ADF81A20DA6805929B7D9A1F53425341EC
:1092D0008DF81C3003A8FFF7D3FB0026494613483E
:1092E000C8F8006000F0D0FB0121114800F07FFCBD
:1092F00000287FF4C1ADD4E603228DF80C20DA8873
:10930000ADF818201A89CFE704228DF80C20DB88ED
:10931000ADF81830DEE705238DF80C30DAE700BF32
:109320004438002060380020183900204C2B0020E1
:1093300014390020283900204068FFF795BD00004F
:1093400008B50121044800F03CFC18B9BDE808400C
:10935000FFF78ABD08BD00BF143900202DE9F34195
:109360009846364B1B7806460D46002B5AD00029EE
:109370005BD009884FF6FF73994259D06B88002B58
:1093800056D06B689B0756D14AB92F890DF102015F
:109390003846FFF785FB30B102B0BDE8F081138895
:1093A0005788ADF8023001A8FFF726FC044660B9E3
:1093B000BDF80230224A142101FB032358890338E7
:1093C000C01B588148F20760E6E780F80080002360
:1093D0008375BDF8023083826B68036101211948EF
:1093E00000F0FAFBE0602B8823816B88A380B8F142
:1093F000030F04BF0423A375E78004BF3368A36190
:109400000025658101A9104800F003FB36B17560A5
:10941000E36833600D4BB5721B893381FFF790FF12
:109420000020B9E748F20160B6E748F20460B3E70C
:1094300048F20360B0E748F20260ADE73C38002034
:1094400060380020583800204C2B00204438002081
:1094500008B5084B1A68042A09D01968064A42F868
:1094600021000121184600F0B7FB002008BD48F29A
:109470000B60FBE7203900202C3800202DE9F04F4D
:1094800089B01422002103A842F01DFC794A137808
:10949000914603F0FF0B3BB103A8FFF7F1FA002759
:1094A000384609B0BDE8F08F101D00F0ABFB054653
:1094B0000028F4D140F6F8734FF080521B685C1C12
:1094C00008BF6D4B6D4C08BF1B6811695269581C71
:1094D00008BF02FB01F3A3F510422261A3F540434C
:1094E00000226749E360204600F0BAFD0094074679
:1094F0000028D5D11C238C2262496348634E00F0BA
:1095000029FAB8464FF0030A3C46009BD86858F841
:10951000003018EB00002ED05D4A934240F0A78047
:1095200042685C498A4214D001318A4223D15A4BA5
:10953000BBF1000F60D10022584918600193FFF77A
:109540007FFB019B9B88022B14BF082304231D4330
:1095500035E01421614373180022725401F11002A6
:109560000831586032443144FFF76AFB45F0020588
:109570000134A4B223E05A1C02D0454A934230D1B0
:10958000031D00F580511A6801322AD10433994233
:10959000F9D1414B1A682AB9022218609A804FF01B
:1095A000010B0AE0142363430221F218F1543C4BEF
:1095B00050605C8001341181A4B245F0010508F5CA
:1095C0008058B8F5405FA0D1BAF1010F98BF0025CF
:1095D000EDB2022D02D0062D1ED03DBB48F20A6727
:1095E0005EE714236343F2180AF1FF3A5060032246
:1095F0001FFA8AFAF254BBE714226243B1184FF003
:10960000020C06F802C01A684A60254AA1F808C090
:1096100054800134A4B28EE7012389F8003003A8F6
:109620000023C9F80430FFF72BFA39E702A8FFF747
:10963000E3FAC8B10123013D03700A2D09D8DFE820
:1096400005F006080608070807080F110F00002399
:10965000037102A90C4800F0DCF9FFF771FE1FE767
:109660000323F5E70223F3E748F2076718E701331E
:1096700085E700BF3C38002014100010F02F0020B8
:109680007CD80600883800204C2B00206038002051
:10969000DEC0ADDEFE011EF1183900201C390020AD
:1096A0004438002073B50D460446C8B1C1B10DF170
:1096B0000601FFF727FBB0B10C4BBDF8060066684A
:1096C000142202FB003001210C3000F085FA2E60DC
:1096D00063680C336B600123A372002002B070BD7D
:1096E00048F20460FAE748F20960F7E760380020C2
:1096F00013B50446A8B10DF10601FFF703FB98B1BD
:109700000C4ABDF80630142101FB0323DA6872B15C
:10971000A27A62B1DA680020013ADA60A07202B07F
:1097200010BD48F20460FAE748F20960F7E748F232
:109730000560F4E76038002002230022FFF70EBE28
:1097400018B103230022FFF709BE48F204607047F6
:1097500013B5114B1B780446ABB14FF6FF7398421B
:1097600014D001A8FFF748FA98B10523037001232C
:109770000371C48001A9094800F04BF9FFF7E0FD2F
:10978000002002B010BD48F20160FAE748F2036021
:10979000F7E748F20760F4E73C3800204C2B002044
:1097A00007B50F4B1B78A3B101A8FFF725FA98B1B5
:1097B0000623037001A90B4800F02BF90A4B1A7815
:1097C0000AB101221A73FFF7BBFD002003B05DF858
:1097D00004FB48F20160F9E748F20760F6E700BFD2
:1097E0003C3800204C2B00204438002007B5ADF851
:1097F000060002A820F8041D01460DF10600FFF73F
:10980000D7FA03B05DF804FB13B502AC134624F895
:10981000020D0A4600202146FFF7CAFA02B010BD29
:1098200013B502AC134624F8020D0A462046002167
:10983000FFF7BEFA02B010BD20B119B103680B608A
:109840000020704748F20460704700002DE9F74F90
:109850003D4B1B780446002B70D0002871D012229B
:1098600000213A4E42F02FFA0323394A2380002781
:10987000B1464FF014084FF0010A338971897068BE
:109880000B449BB250B10168914207D1416801F18C
:109890006E6101F5FF310231012902D921880139B8
:1098A000218008FB07916088C96801446180708944
:1098B000218901442181618919446181C3F5806353
:1098C000A1899BB2994238BFA381736803F108054F
:1098D00003F5805BAB4518D92968013115D059468D
:1098E00028460192FFF796F90128019A15D021D355
:1098F0000228EFD1E18884F810A0ABEB0503E589DD
:10990000013105EBA305E180E58114361FB100208C
:1099100003B0BDE8F08F0127AFE7E1880131E180B6
:10992000E189688803310144E1816988033105EBED
:109930008105CFE7A1880131A180F6E748F20160F7
:10994000E6E748F20460E3E73C3800206038002096
:10995000DEC0ADDE10B561B1B2FBF3F403FB14243D
:10996000A4B244B9C0E9001484608281C381204656
:1099700010BD0E20FCE70920FAE782B050E8022F64
:10998000C188B2EB324F4FF0000317BF92B241EAE9
:10999000014142EA014104E04268B2EB324F08BFA4
:1099A000012340E80212002AE8D18DF807309DF823
:1099B0000730002B0CBF1120002002B0704737B5D4
:1099C00050E8013F9DB2C48925448489A54228BF3F
:1099D0002D1B0489A54202BFBFF32F8F002207E091
:1099E000C5EA030540E80154002CE9D14FF001021B
:1099F0008DF803200193019B9DF803200B6002F07A
:109A0000FF0322B10B880068184403B030BD18462C
:109A1000FBE70A884B889A4209D150E8012FC2EA35
:109A2000024240E80123002BF7D1012070470020BB
:109A3000704737B550E8023F1FFAA3F5C488A54226
:109A400002BFBFF32F8F00220DE0C4892544848913
:109A5000A54228BF2D1BC3EA054540E80254002C4F
:109A6000E8D14FF001028DF803200193019B9DF88E
:109A700003200B6002F0FF0322B14B8800681844FA
:109A800003B030BD1846FBE70A884B889A4209D1DB
:109A900050E8022FC2EA224240E80223002BF7D10D
:109AA000012070470020704701F01F024B0901217F
:109AB000914000EB830000F063B84B0910B501F052
:109AC0001F040121A14000EB830000F04EF8E040AC
:109AD00000F0010010BD01F01F0301229A404B0964
:109AE00000EB8300D14300F061B84B0901F01F0186
:109AF00050F82300C84000F0010070472DE9F047FE
:109B00004E1E760980460F460136002558F825403E
:109B100008EB850AE44394FAA4F4B4FA84F44FEA17
:109B20004519202C06D10135AE42EFD83C462046DF
:109B3000BDE8F0874C44A742F5D921464046FFF7DF
:109B4000BCFF0028F3D0DAF80040E44394FAA4F410
:109B5000B4FA84F4E5E750E8002F0B4640E8003CF7
:109B60009CF0000FF7D11046704750E8002F42EAF2
:109B7000010340E8003C9CF0000FF6D1104670470E
:109B800050E8003F43EA010240E8002C9CF0000F3F
:109B9000F6D11046704750E8002F02EA010340E872
:109BA000003C9CF0000FF6D11046704750E8003F93
:109BB00003EA010240E8002C9CF0000FF6D11046A9
:109BC000704750E8002F02EB010340E8003C9CF096
:109BD000000FF6D11046704750E8003F03EB01023A
:109BE00040E8002C9CF0000FF6D11046704750E87A
:109BF000003FA3EB010240E8002C9CF0000FF6D1DF
:109C0000104670470121FFF7B0BF0121FFF7B8BF31
:109C10000021FFF7C0BF0021FFF7C8BF10B590B10A
:109C2000D0E9012301689B1ADBB20A60013BDBB279
:109C3000FF2B026802D10020107110BD11684C1C6E
:109C400014600B70F2E70E20F7E737B5054602A85F
:109C5000002400F8014DFEF785FD2A686968136845
:109C60008B4210D9591E116013F8014CAA8AEB6877
:109C700002FB04342A68AB6811685B1A1179DBB205
:109C8000994238BF13719DF80700FEF78FFD2046FB
:109C900003B030BD37B5054602A8002300F8013DEA
:109CA0000C46FEF75FFD2A681368591C1160E968CD
:109CB000641AA98AB4FBF1F41C709DF80700FEF742
:109CC00075FD03B030BD10B5826804462AB1436902
:109CD0000168006998470023A36010BD0EB403B566
:109CE000039929B102AA04AB42F8043D00F072F8CE
:109CF00002B05DF804EB03B070470A2938B504469A
:109D00000D4602D10D21FFF7F8FFA3682268591C08
:109D1000A160D554D4E901329A4204D32046BDE86B
:109D20003840FFF7D0BF38BD2DE9F84F9946DDE93F
:109D30000A431746824688460A460126BA420FD28F
:109D40004E4538BF4E4613F0010B01D164B90024D3
:109D50000125B9F1010F1AD909F1FF397D43F8E75F
:109D6000B2FBF7F20136E9E79B070ED5B9F1000F18
:109D70000CBF30252025A642EAD2013C2946504698
:109D8000FFF7BBFF002CF6D1E1E72025F3E7B8FB96
:109D9000F5F39F42E2D9DFF83890B8FBF5F350466F
:109DA00019F8031005FB1388FFF7A7FFB5FBF7F5BC
:109DB000002DF2D1BBF1000F02D00CB1A64201D3AD
:109DC000BDE8F88F20215046013CFFF796FFF4E7ED
:109DD0008FD606002DE9F74F054690460E4600291E
:109DE00000F03A8116F8011B002958D0252940F0CF
:109DF000D180002702E047F001071646324612F8EC
:109E0000013B2D2BF7D0302B04D02B2B05D147F065
:109E10000407F2E747F00207EFE700242A2B06F1D8
:109E200001021BD1D8F80030191DC8F800101B68BA
:109E300016461C4433782E2B1CD101364FF0000AF5
:109E4000314611F8012BA2F13000092814D80A2359
:109E500003FB0A23A3F1300A0E46F1E712F8013C96
:109E6000A3F130010929E5D80A2101FB0434303C73
:109E70001646D3E74FF0000A324612F8011B01F0F4
:109E8000FB0068281646F8D0692916D054D85829FE
:109E900070D00ED825297DD03378002BA2D12B7B12
:109EA000002B00F0D980284603B0BDE8F04FFFF743
:109EB0000ABF632968D06429EED1D8F80020111DAB
:109EC000C8F80010D2F8009089EAE972A2EBE972B2
:109ED0004FF0010B092A61DCD34538BFD3462CB1C2
:109EE000B9F1000F01DB790700D5013CBA0702D5B3
:109EF000BAF1000F04D0FB0702D4002C54D1002487
:109F0000B9F1000F58DAC9F100092D212846FFF7F1
:109F1000F4FE07F00302022A05D1BAF1000F02D1C4
:109F2000002C4DD10024CDE9004753460A22494672
:109F30002846FFF7F9FEAFE7732954D016D87029E9
:109F4000AAD1D8F800301A1DC8F8002030212846C0
:109F50001C68FFF7D2FE78212846FFF7CEFE0022CC
:109F60000823CDE9003221461022E1E775292FD0E0
:109F7000782991D1D8F800100A1DC8F80020CDE941
:109F80000047534610222CE0D8F800301A1DC8F8BC
:109F9000002019782846FFF7B0FE7DE70A230BF171
:109FA000010B92FBF3F295E7A345A9D220212846A5
:109FB000013CFFF7A2FEA0E77807AAD52B21A5E771
:109FC000A345B0D230212846013CFFF796FEA7E713
:109FD000D8F80010CDE900470A1DC8F80020534604
:109FE0000A220968A4E7D8F800301A1DC8F8002032
:109FF000F907D3F8009012D54F46A7EB090B17F8D5
:10A00000011B41B9A345BFF447AF20212846013CBD
:10A01000FFF773FEF6E72846FFF76FFEEDE7B9F1AD
:10A02000000F17D0484642F0B1F90746BC4200D9AC
:10A0300054B909F1FF3919F8011F00293FF42CAF79
:10A040002846FFF75AFEF6E720212846013CFFF795
:10A0500054FEEBE74F46E9E703B0BDE8F08F0000A0
:10A0600007B50B46A0B9154B5B886BB1144B15486F
:10A07000154AC01A0E23C0080093144B000414495B
:10A0800040F00100FDF786FD0E2003B05DF804FBF3
:10A090006BB90A4B5B88002BF6D0094B09480D4A77
:10A0A000C01AC0080E2300930004084BE7E70360C2
:10A0B0001B68114603B05DF804EB184774300020AC
:10A0C000881E0700401F07004CD706009FD60600D9
:10A0D00051D70600C8D706002DE9F3419646B0B91E
:10A0E000504B5B88002B00F095804F4B4F48504AF7
:10A0F000C01AC0080E244F4B009400044E4940F093
:10A100000100FDF747FD204602B0BDE8F0816AB9C5
:10A11000444B5B88002B7DD0434B4448474AC01AD0
:10A12000C0080E2400040094424BE7E7D0F800C0BA
:10A13000BCF1000F0DD13B4B5B88002B6CD03A4B30
:10A140003A483F4AC01AC008082400040094394B1A
:10A15000D4E76BB9334B5B88002B5FD0324B33486D
:10A16000384AC01AC008092400040094314BC5E7DE
:10A170004768D7F80480B3FBF8F708FB17376FB1CF
:10A18000284B5B88002B49D0274B28482E4AC01A01
:10A19000C008092400040094264BAFE78F070DD0B8
:10A1A000204B5B88002B3BD01F4B2048274AC01A0E
:10A1B000C0081024000400941E4B9FE712F0030F08
:10A1C0000CD0184B5B885BB3174B1848204AC01A59
:10A1D000C008102400040094164B8FE7C768B942EA
:10A1E0000BD34C1E05691C44AC4206D8DCF80C406D
:10A1F000A44602B0BDE8F04160470A4B5B887BB1E2
:10A20000094B0A48134AC01AC008102400040094DD
:10A21000084B73E70E2476E7082474E7092472E7F5
:10A22000102470E774300020881E0700401F0700CC
:10A230004CD70600B1D6060051D70600CED706008F
:10A24000C2D7060081D70600D4D70600FED7060085
:10A2500016D8060039D80600F7B5A0B9374B5B8889
:10A26000002B63D0364B3748374AC01AC0080E243B
:10A27000364B00940004364940F00100FDF78AFC9B
:10A28000204603B0F0BDD0F800C0BCF1000F0DD1E6
:10A290002A4B5B88002B4BD0294B2A482D4AC01AE9
:10A2A000C008082400040094284BE4E76AB9234B53
:10A2B0005B88002B3ED0224B2248274AC01AC00898
:10A2C000092400040094214BD5E74768D7F800E043
:10A2D0000EF1FF370F420CD0184B5B8863B3184B5D
:10A2E00018481E4AC01AC008102400040094174BD6
:10A2F000C1E7C768B9420CD34C1E05690EFB024486
:10A30000AC4206D8DCF81040A44603B0BDE8F040EB
:10A3100060470A4B5B887BB1094B0A48104AC01A58
:10A32000C008102400040094084BA4E70E24A7E7FB
:10A330000824A5E70924A3E71024A1E7743000202E
:10A34000881E0700401F07004CD70600C4D6060031
:10A3500051D70600C2D7060081D70600D7D606001F
:10A36000FDD6060029DF704728DF704770B5056805
:10A37000AB6886B004460E4673B1142200216846CD
:10A3800041F0A1FCA36805932379019633B1012B19
:10A390000ED0AB686846984706B070BD01238DF8B3
:10A3A000003023690293E368039363690493F0E741
:10A3B00002238DF80030E3681B030293F5E708469B
:10A3C0007047002070470000024B187A003018BF19
:10A3D00001207047BC390020034B187A0122B0FAE3
:10A3E00080F05A7440097047BC39002008B5104607
:10A3F0001A4641F044FC002008BD000008B51422B4
:10A400000021044841F05FFC0348FFF7B6FA002042
:10A4100008BD00BFBC390020602B002010B5094CDE
:10A42000094B43602046FFF7EDFB40B910F0DEFC1E
:10A430001C2320748C2205490548FFF78BFA002065
:10A4400010BD00BFBC39002070D806003039002094
:10A45000602B002070B5244D244E2B7A2C463BB93E
:10A4600023492448FFF7E5FA306008B9686070BDF9
:10A470000223237233681A7972B1012A24D0184654
:10A480000321FFF773FF0023237263601849194803
:10A49000BDE87040FFF7F8BAD3E90520121AB2F50B
:10A4A000805F28BF4FF48052D3E903159208012A38
:10A4B000014438BF01222844FFF754FF50B111284E
:10A4C000DDD101232372D2E7D3E903021044FFF761
:10A4D0004BFFF3E7237C002BC9D10146BDE8704058
:10A4E000022000F009B800BFBC390020D439002098
:10A4F000D0390020602B002038B5831E012B45D8B1
:10A50000234C237A002B41D0022B09D1032830D0D1
:10A51000204B00221B68E2601A793AB1012A22D04E
:10A52000637C7BBBBDE83840FFF794BFD3E90512DD
:10A530008D1AB5F5805F94BF521902F580529A6169
:10A540009142EDD102284FF0000308BF1946237253
:10A55000104B18BF0D211868FFF708FF0E490F4870
:10A56000FFF792FADCE71A6901321A615B699A42D5
:10A57000E7E7E3680133082B01D8E360D0E7002365
:10A58000E360DFE7BDE8384010F020BC38BD00BF15
:10A59000BC390020D4390020D0390020602B0020A5
:10A5A00000F0FD03012B08D1044B00225A74421E17
:10A5B000504250411874FFF74DBF7047BC3900201E
:10A5C00010B5064C201DFFF71DFB28B9637C1BB995
:10A5D000BDE81040FFF73EBF10BD00BFBC390020F2
:10A5E0002DE9F34180460D460F4801A916461F4646
:10A5F000FFF7E5F90446A8B11C22002141F063FBF6
:10A600002D0B0123237101A9C4F80080A760E56028
:10A6100066610548FFF7FDF9FFF7D2FF002002B0A1
:10A62000BDE8F0810420FAE7602B00202DE9F74314
:10A6300081468846104801A917461E46FFF7BFF914
:10A640000446B0B11C22002141F03DFB00250A9BCD
:10A65000A36001A92571C4F80090C4E9037866617C
:10A660000548FFF7D6F9FFF7ABFF284603B0BDE872
:10A67000F0830420FAE700BF602B00202DE9F047AB
:10A68000B0F806904479D2F800A09DF8208009FB2C
:10A6900004F4043C06460AEB0300A0420F4688BFC0
:10A6A000A4EB030A191DC2F800A0B1FBF9F509FBE0
:10A6B00015114DB9A9EB0104544528BF5446BAF110
:10A6C000000F04D1BDE8F0873668013DF1E70431A1
:10A6D0007B1970182246B8F1000F0ED001461846BB
:10A6E000AAEB040A41F0CBFAD145254436684C4622
:10A6F0004FF0000128BF5446E1E71946F0E7FFF7A5
:10A700008DBAF8B546790146721E0546002393427C
:10A710002D6803D30024A64202D8F8BD0133F6E722
:10A720000F682846FFF7B6FA01343946F3E72DE9FA
:10A73000F843CD1C868A0746FFF787FA043E354466
:10A740000446B5FBF6F5F0B14FF48073EDB28380AB
:10A75000C680013D076081464FF00008A84512D22F
:10A760003846FFF772FA064648B1637901336371E0
:10A7700008F10108C9F8000007608146EEE72046AD
:10A78000FFF7BFFF34462046BDE8F88301210430BF
:10A79000FFF722BA10B5012104460430FFF727FA6B
:10A7A00010F0FF0F04D12046BDE81040FFF7A9BF0D
:10A7B00010BD1FB504AC44F8042D002200922246BF
:10A7C000FFF75CFF04B010BD1FB504AC44F8042DC6
:10A7D000012200922246FFF751FF04B010BD41DF75
:10A7E00070470000064B10B500241C70054B1C6020
:10A7F000BFF35F8F0449054800F087F9204610BD7C
:10A80000E0390020E4390020ACD80600D839002017
:10A8100007B502A8002300F8013DFDF7A3FFF1EE04
:10A82000103A23F09F03E1EE103ABFF35F8F0A4B1B
:10A830004022C3F884219DF80700FDF7B7FF10F010
:10A84000D5FA20B1FFF7CBFF03B05DF804FB20BFC2
:10A8500040BF20BFF8E700BF00E100E002681368D6
:10A860005268934291BFD01A80680130801888BF27
:10A87000C01A70472DE9F04103681F681D685B68C6
:10A880009D4284BF83680133164688465D1BC268BB
:10A890004168AE42044607FB02110CD872434046A1
:10A8A00041F0EDF9A3683E449E4288BF002623682C
:10A8B0001E60BDE8F08105FB02F73A46404641F0D4
:10A8C000DEF9E2686168751B6A4308EB070041F036
:10A8D000D6F923681D60ECE7036881681A685B6835
:10A8E0008B4234BF01330023D31A5842584170477A
:10A8F000F7B5044602A8002300F8013D0D46FDF718
:10A9000031FF2046FFF7E8FF10B1237C002B3DD13B
:10A910002168A6684B684A68B24234BF01320022FF
:10A920004A6038B12168A0680A68824234BF0132A7
:10A9300000220A60E2686068511E072920D8DFE81B
:10A9400001F004101F141F1F1F182A78C25420463C
:10A95000FFF784FF23689A68824200D2986000243F
:10A9600015E02A8820F81320F1E72A6840F8232010
:10A97000EDE7D5E9006700EBC300C0E90067E6E753
:10A98000294602FB030041F07AF9E0E704249DF830
:10A990000700FDF70BFF204603B0F0BDF7B50646F4
:10A9A0000F46144600259AB102A800F8015DFDF794
:10A9B000D9FE3046FFF752FFA0420CD3224639465B
:10A9C0003046FFF757FF2C469DF80700FDF7EEFED7
:10A9D000204603B0F0BD0524F6E737B5054602A8CA
:10A9E000002400F8014DFDF7BDFE0C222146286829
:10A9F00041F069F99DF80700FDF7D8FE03B030BDBE
:10AA000013B5044602A8002300F8013DFDF7AAFE95
:10AA10002046FFF723FF04469DF80700FDF7C6FE1A
:10AA2000204602B010BD82680023936082681361E3
:10AA3000826853618268D360826853608268136061
:10AA40007047F8B505460F4616461C4683B9AB68F5
:10AA50006868D3E9031300F1010CCA1A62450ED1EC
:10AA60000027376014B3A868FFF7D5F80020F8BDB9
:10AA70008068FFF7C7F80028E9D01120F7E701EA5E
:10AA800000021840824236BF6344ACEB02035B1AFB
:10AA90003168994294BF316033602B6813443B6046
:10AAA000AA683168D3680B44D360DFE72046DEE74D
:10AAB00038B5846843682569A26801332B449B1A22
:10AAC0008B420CD30A44A26083689A68DA6080687B
:10AAD000FFF79EF800280CBF0820002038BD042096
:10AAE000FCE710B5826813699468E41A8C420AD3B3
:10AAF0000B44136183681A695A6180680430FFF758
:10AB00008AF8002010BD0420FCE701600B68436058
:10AB10004A68934204BF002343607047436843B1CF
:10AB2000026891680B4443605268934204BF00235B
:10AB30004360704770B5446806460D46206818B1FA
:10AB4000B3682946984718B923682B60256070BD03
:10AB50002468F3E74368186808B102681A60704710
:10AB60004368186870474368186800B9704788429E
:10AB7000026802D11A600120704703461046F4E7CC
:10AB80000D4930B5A1F594720225914201D80020FB
:10AB90000EE08B1ADB1093FBF5F302EBC30452F8C3
:10ABA0003330834205D802D204F10802EDE7606831
:10ABB00030BD2146E9E700BF08DA060008B5FFF717
:10ABC000DFFF024B002808BF184608BDCAD80600A0
:10ABD000F8B50F4B002420220F460D2183F88A2060
:10ABE0001C7083F8784083F88C1022462346054673
:10ABF00028F062FA064650B12146284622F003F9B1
:10AC0000377029460348BDE8F84027F00BBCF8BD73
:10AC10003E710020E134050073B502AB00220C4602
:10AC200003F8012D114621F03DFA38B90A4B9DF881
:10AC3000071093F843200D25824202D86FF01B00C5
:10AC400006E005FB0036F67B8E4203D12070002023
:10AC500002B070BD0130EFE73E7100200B4BD3F81E
:10AC600001202AB983F878201146094821F0E1BD76
:10AC70008C2A0BBF0722062283F8782083F87820DD
:10AC800007BF0022032100220221EEE73E710020CF
:10AC9000D1AB020037B5114C054621F093FE227866
:10ACA000042A07D142782AB929460D4821F0C1FD6E
:10ACB00003B030BD0DF107014088FFF7ADFF00285C
:10ACC000F6D19DF8073007480D2202FB03432946C1
:10ACD0005A7D01325A7527F0A5FBE9E73E71002045
:10ACE00071AF020039B1020008B50022FF21094806
:10ACF00027F086FE0022FF21074827F081FE7522FB
:10AD00000021064840F0DFFF054B064AC3F8942DAA
:10AD100008BD00BF5DAC020059AD02003E710020CD
:10AD2000D0710020E9B2020010B50022084C094899
:10AD3000114627F065FE94F8440003F059FC002307
:10AD40002022237084F88A2084F8783010BD00BF58
:10AD50003E71002059AD020010B5044620B90948E3
:10AD6000BDE8104021F040BDFFF7DEFF00230C21BD
:10AD700020461A4628F0A0F921460348BDE81040B5
:10AD800027F050BB59AD0200E134050008B50022A0
:10AD9000FE21054827F034FE002201210348BDE8CA
:10ADA000084021F046BD00BF5DAC0200D1AB0200FF
:10ADB00070B50C4BD3F845302BB11C7CD3F8115037
:10ADC0000023A34201DB002070BDC3EB03122A4421
:10ADD0001688864202D1127A8A4201D10133F0E705
:10ADE0000120F1E73E7100202DE9F047044688B0CC
:10ADF000C0790E4621F0E6FD90F80BA0077B804657
:10AE00005744D4F80950BD4280F090802B1D08EBC8
:10AE10004303AA4594BF02210121B3F80590484697
:10AE2000FFF7C6FF002800F08A80DFF838A11C2158
:10AE3000304621F05BFFDAF809300546D046002B9A
:10AE400050D0217806A820F0B3FDA279DAF809A045
:10AE500022444B46527806A90220D047002841D10F
:10AE60006FF04402D4F809309F4270D13D4F97F8FB
:10AE70004A30002B67D0B7F875204FF6FF739A421F
:10AE800061D00025217806A820F0D4FD2B462A4663
:10AE900001210095304601F05DFDB7F8751027F0EF
:10AEA000A8F901464FF48273042201F8015BCDE951
:10AEB0000232049597F844300193A379234406AAFB
:10AEC0005B7800933046022301F0D2FCA379E1794C
:10AED00025480133A37127F0A5FA0023E37108B0D8
:10AEE000BDE8F0871C220021284640F0ECFE2846F1
:10AEF00028F08AFA98F844302B72A5F80A90B8F82E
:10AF000075204FF6FF739A4212D1217805F10D009A
:10AF100020F04EFD03232B73A379234430465B7846
:10AF20006B75124B2672AB6110F070FB002299E733
:10AF300001232B73B8F87530A5F80D30ECE7013517
:10AF4000C4F809505DE7304621F0DCFCBEE7002A7A
:10AF5000C5D00133C4F8093031462046FFF744FF1D
:10AF6000BDE700BF3E71002039B102000DB0020004
:10AF70002DE9F341CFB2054638460C4621F022FDBB
:10AF8000204EC1888046D6F8450000F084FFB8F80E
:10AF900002300DF10701A8B11846FFF73DFE30BBA6
:10AFA0009DF807300D2101FB036429462076607669
:10AFB000A076E0762046A7750F30FFF715FF02B0A8
:10AFC000BDE8F0811846FFF727FE804678B99DF866
:10AFD00007000D2303FB00603946437D01334375B1
:10AFE000094827F01FFA002DE9D0444600E015B1CA
:10AFF000284621F087FC002CE1D0E0B221F082FC51
:10B00000DDE700BF3E71002039B102002DE9F04FAD
:10B010001C2185B08146304C21F068FE94F8432015
:10B02000834600250D21954215D32C4B1B687BB917
:10B030000EF0BDFC014658B904230093CDF80490EE
:10B040004FF4BA7340F25B324FF0FF3027F0E4FF69
:10B0500005B0BDE8F08F01FB05F804EB0803D87DCF
:10B0600048450DD10026DE75484621F0C5FE48B1A1
:10B070006FF07303A670E67026716370012609E015
:10B080000135D0E701236070A070E070207184F872
:10B090004A3006460D2707FB054702A8F97B20F03A
:10B0A00087FCD4F809A0BAF1000F07D07B7D1F44BC
:10B0B00002A9BBF80A303A7C3046D0470D2303FB87
:10B0C000054508F10F00AB690133AB6149462044E7
:10B0D000FFF78AFEBCE700BF3E710020E881002038
:10B0E00070B50E4605460146304621F08CFE8C2D8B
:10B0F0000F4C03D1072384F8783002E0B5B984F807
:10B1000078502378052B06D1002394F878200C2161
:10B11000304627F0D1FF00232370202384F88A30A3
:10B1200031460448BDE8704027F07CB90623E2E7C9
:10B130003E710020E13405002DE9F341054621F080
:10B1400041FC0DF105014088FFF766FD0746002828
:10B150004AD19DF80530274C0D2202FB0346717D34
:10B16000307D884222D93144284691F8108003214D
:10B1700021F07AFC03223946044640F0A4FDF17B1D
:10B180000DF1060020F056FCBDF80630238084F84F
:10B190000280194928462CF0AFF8FF2803D1294630
:10B1A0008A20FFF79DFF02B0BDE8F081FF21022B4E
:10B1B000F1730BD803FB022000F10F01C3F103036D
:10B1C00002305A432144204440F064FD94F8433057
:10B1D000013BDBB284F8433033B9D4F801208C2A28
:10B1E00008BF072384F87830002DDCD0284621F0F2
:10B1F00089FBD8E73E71002095AC02002DE9FF479E
:10B20000364D804621F0DEFB95F80090B9F1040F31
:10B2100007465AD10DF10D014088FFF7FDFC82462B
:10B22000002858D19DF80D400D2606FB04560DF15F
:10B230000E00F17B20F0FEFB3B793375042B86F882
:10B2400015A029D9264B1A689A4602BB0EF0AFFB0F
:10B25000014650B9337D40F25B32CDE900934FF0A7
:10B26000FF3040F2B33327F0D7FEDAF8003073B97D
:10B270000EF09DFB014650B90423CDE9003340F2A6
:10B280005B3240F2B5334FF0FF3027F0C5FE0D239F
:10B2900003FB045304221A750D2303FB0453197D89
:10B2A00004EB440304EB830400238B4206D34146A2
:10B2B0000C4827F0B7F804B0BDE8F087FA185079C9
:10B2C0001A192A4401331074EFE76FF00700414662
:10B2D000FFF706FFEFE70020F9E700BF3E7100200F
:10B2E000E881002039B102002DE9F047664D2B7846
:10B2F000042B8CB0064640F0C380D5F801301C33D7
:10B3000004D100236B70AB70EB702B711B213046A6
:10B3100021F0ECFC1B22014605A840F0B0FC03A97B
:10B32000BDF8150020F0EAFE28B9584B93F8D00F6D
:10B3300010F0200414D00621304621F0D7FCBDF8CF
:10B3400015304380038000238380514930462BF021
:10B35000D3FEFF2874D131468A20FFF7C1FE6FE08B
:10B36000FF238DF80A302B78BDF815709DF81F90DB
:10B37000042B1FFA87F810D10DF10A014046FFF7A0
:10B380004BFC70B195F84330032B04D88DF80A308C
:10B39000013385F84330204601E06FF007000124B7
:10B3A00000E004469DF80AA0BAF1FF0F4DD0002C32
:10B3B00049D000220DF10B031146404620F072FEE9
:10B3C000002842D10D2303FB0A539DF80B20DA73AA
:10B3D000187558754FF00D0808FB0A5898F8143086
:10B3E000032B35D808EB0302013382F8109088F85C
:10B3F0001430002C43D00521304621F035FB0522C6
:10B400000446002140F05FFC002363700D2303FB22
:10B410000A5567802B7D23711E4B1B6863B90EF0A4
:10B42000C6FA014640B900904FF45F7340F25B32B8
:10B430004FF0FF3027F0F0FD3146174826F0F2FFBD
:10B440000CB0BDE8F0870028C4D0314600B284E7D4
:10B45000104B1B68002BCCD10EF0A9FA0146002836
:10B46000C7D198F8143001930423009340F25B3263
:10B4700040F271334FF0FF3027F0CEFDB9E7304690
:10B4800021F040FADCE700BF3E710020D0710020BF
:10B4900039B50200E881002039B10200F7B50E4647
:10B4A00002A9FF25044601F8025D3046FFF7B4FB10
:10B4B000A0B31F4A92F84330032B04D88DF806300E
:10B4C000013382F843309DF80650FF2D29D002AB9E
:10B4D000002203F8012D1146304620F0E3FD074617
:10B4E000F8B9134B0D2202FB05359DF80730EB73BD
:10B4F0000221204621F0B8FA05460222394640F0E2
:10B50000E2FB2E800B4920462BF00FFFFF2803D1D2
:10B5100021468A20FFF7E4FD03B0F0BD8DF8065008
:10B52000D1E7002CF8D0204621F0ECF9F4E700BF79
:10B530003E710020FDB1020037B5044621F042FA09
:10B540000546204621F058FC024658B969890DF19C
:10B550000703A81C20F0CCFE69892046FFF79EFF58
:10B5600003B030BD204621F0CDF9F9E70D4930B5E3
:10B57000A1F5BC720225914201D800200EE08B1A81
:10B58000DB1093FBF5F302EBC30452F83330834234
:10B5900005DC02DA04F10802EDE7606830BD2146FF
:10B5A000E9E700BF48E2060008B5FFF7DFFF024BFE
:10B5B000002808BF184608BDB6DD06002DE9F74390
:10B5C0000A9F1E4680468946154601F0E1F9D0F8EB
:10B5D000B030DBB101F0DCF90097D0F8B040334671
:10B5E0002A4649464046A04704464A464146284620
:10B5F00003F073FA14F1450F03460BD148B13A46F4
:10B600002946304603B0BDE8F04318476FF04404C4
:10B61000EBE70446204603B0BDE8F0832DE9F04196
:10B62000069F05461E4603F06DFA044630B13A46C1
:10B63000314628462346BDE8F0411847BDE8F08171
:10B64000B0F80F30B3F5A06F01D102F067BD7047BD
:10B650000020704770B51B2188B0054621F046FBDD
:10B660001B22014601A840F00AFB01F091F9D0F835
:10B67000AC604EB101F08CF9D0F8AC309DF8100000
:10B6800098476FF01E0017E001F082F9D0F89C3067
:10B69000002BF6D03421284621F028FB1D2303700F
:10B6A0009DF8103043704660044601F071F9D0F8FF
:10B6B0009C3028469847606801F0B6F901A9024617
:10B6C000284603F0B9FA08B070BD000010B5FF2895
:10B6D00088B0044607D101F05BF90C4BC0F8583232
:10B6E000012008B010BD1B2121F000FB1B220146E8
:10B6F00001A840F0C4FA9DF8173023B92146044848
:10B7000026F090FEECE70020EBE700BF742B002052
:10B7100055B6020007B5054B00930023044A0121EA
:10B72000184603F043F803B05DF804FBCDB6020001
:10B7300051B60200F8B50C46154607461E4600F005
:10B740009BFA0122002100F0D6FB90B112230122C6
:10B750000021384601F0CCFE58B14368187840B952
:10B760001EB1052C05D90B2C02D1032D01D00020D0
:10B77000F8BD0120FCE7000037B501460446002271
:10B780000F4821F056F80546B8B10E4B1B6873B947
:10B790000EF00DF9014650B90423009301954FF4C2
:10B7A0009F6340F60F024FF0FF3027F035FC204634
:10B7B00003B0BDE8304021F0A5B803B030BD00BFF4
:10B7C00001C20200E881002013B5154AD2F8E03A20
:10B7D0001BB1D2F8E43A2BB90123023302EB830305
:10B7E000C3F8D80AD2F8DC3ABBB9C2F8DC0A0D4873
:10B7F00020F0FAFF044680B10B4B1B686BB90EF0CA
:10B80000D6F8014648B90423009301947D2340F6FD
:10B810000F024FF0FF3027F0FFFB02B010BD00BF5A
:10B82000D0710020C1C20200E8810020F8B5124B9F
:10B83000D3F8843B0446007803B198470F4F227831
:10B840003A700025237C9D4202D3FF233B70F8BD54
:10B85000D4F81130C5EB05163344D3F80B3003B1DF
:10B860009847D4F81120B4F801102078324404F03D
:10B8700081FC0135E6E700BFD0710020842B002059
:10B880002DE9F04F454BD3F8DC3A8DB0002593F805
:10B8900000A00793AC465FFA8CF9CA457CD9079B98
:10B8A000D3F8013053F805B05A199BF810300992BB
:10B8B0000A93002201231AE0C3EB0311C2EB021822
:10B8C0000B9100200999DDF82CE051F82010069129
:10B8D000097C08911946089C8C4210D8013009EB6C
:10B8E0000001C9B28A45EDD801330132DBB20A98B2
:10B8F000D1B28842E0D80CF1010C0435CBE7DBF87B
:10B900001170069E07EB08040594D6F81160248890
:10B9100076443788A7423AD1059F367A3F7AB742B4
:10B9200035D1042C12D0192C10D0202C0ED040F27E
:10B930000B76B4420AD040F20126B44206D0B4F5E8
:10B94000006F03D04FF65746B44220D1144B1B680A
:10B95000CBB90EF02CF8B0B9104BD3F8DC3AD3F8D1
:10B9600001305B59D3F811309844014698F80830FB
:10B97000CDE901430823009340F60F02D2234FF094
:10B98000FF3027F049FB00200DB0BDE8F08F0131FA
:10B99000C9B20EF10F0E9EE70120F5E7D07100202D
:10B9A000E8810020272807B5034620D041D81A286F
:10B9B00038D022D80D2800F0978011D80A2831D02D
:10B9C00007D8082800F0898009287DD04FF0FF3083
:10B9D00084E00B2800F086800C28F7D105207DE05C
:10B9E00010287AD005D80E2821D00F28EED10820B3
:10B9F00074E0182871D01928E7E720286DD00AD8FC
:10BA00001D2871D003D81B286CD01C28E5E71E2800
:10BA10000DD01F28EAE7232864D005D8212853D069
:10BA20002228D3D1032059E025285DD0D6D907207C
:10BA300054E03A28DBD019D82D2855D00AD82A2826
:10BA4000F0D003D8282848D02928BEE72B2849D091
:10BA50002C28C2E7302840D003D82E28E7D02F2842
:10BA6000C4E7382830D03DD83128AEE7E22826D8C0
:10BA7000E02837D243280ED009D84128A6D3002980
:10BA8000A4D00878FF28A1D00130C0B226E0482811
:10BA900001D04A289AD102A80022482B20F8022D72
:10BAA0004FF0020201D0432B20D140F0E8F8BDF85E
:10BAB00006004FF6FF73984288D002300EE0EA2865
:10BAC00010D003D8E82881D3022007E0F0288ED0D8
:10BAD000F1287FF47BAF102000E00120C0B203B05A
:10BAE0005DF804FB0420F9E70620F7E740F0C7F80B
:10BAF000BDF806309B00ADF80630D8E7252973B5B0
:10BB0000044615463DD026D8182930D016D80A2923
:10BB10006BD006D808292AD009295FD0204602B068
:10BB200070BD0F297ED0102921D00B29F6D12046D7
:10BB30000422294640F0A3F80434EFE7202916D068
:10BB400004D81A2951D049D31B29EFE722294CD018
:10BB500044D32329EAE742291AD841294CD22B2978
:10BB6000E5D008D8292939D03FD82829D6D12B7833
:10BB700004F8013BD2E73029F9D031292ED02D2904
:10BB8000CCD120460622294640F079F80634C5E794
:10BB90004A2904D01CD8432901D04829BED102A883
:10BBA0000023482920F8023D4FF0020201D043292A
:10BBB0002FD1294640F063F8BDF806604FF6FF73B9
:10BBC0009E42ABD00236B6B23246294620461CE031
:10BBD000F02927D0F1292CD0E229A7E7204602221C
:10BBE000294640F04CF8023498E7204603222946C3
:10BBF00040F045F8033491E7002A8FD01678FF2EE5
:10BC00008CD00136F6B23246294640F038F834443A
:10BC100084E7294640F033F8BDF806309B00ADF8C4
:10BC20000630C9E720460822294640F028F80834A3
:10BC300074E71022294640F022F810346EE7000025
:10BC40002038C0B20D289ABF014B185C0020704705
:10BC500048E206002B2809D8282805D2202809D335
:10BC6000232801D9252805D1012070472D28FBD094
:10BC7000E228F8E70020704770B51449D1F8E02AAF
:10BC80000AB315780024AC4208D2D2F8013053F838
:10BC900024301E78864202D00134F4E70023D1F824
:10BCA000E44A2CB125780022AA4203D319460B4658
:10BCB000184670BDD4F8011051F822100E78864253
:10BCC000F5D00132F0E71346F2E700BFD071002053
:10BCD00070B51B2188B0044621F008F81B220146EC
:10BCE00001A83FF0CCFF9DF810603046FFF7C4FF7D
:10BCF0009DF81A30BDF813209DF817100546304600
:10BD0000FFF718FD20B9204620F0FCFD08B070BDFB
:10BD100005F0D6FC40B9D5F80330EBB9204602F067
:10BD20001CFF024650B9F1E7BDF8130004F009FD0D
:10BD300048B19DF812301B0705D47E2201A9204688
:10BD400003F002F8E2E7BDF81310BDF8050004F0B7
:10BD5000A9FC0028DFD1F0E7074BD3F88C3D33B9BD
:10BD6000D5F80330204698470028D7D0CEE701A861
:10BD700098470028D2D1F3E7D071002000F52D3389
:10BD8000F0B503F2A513104D03F00F0213462C4635
:10BD90009F1C05EBC70696F8DCCABCF1000F07D163
:10BDA00004EBC70383F8DC0AC3F8D81A0020F0BDFF
:10BDB000D6F8D86A002EF3D0013303F00F039A426D
:10BDC000E6D16FF01500F2E7D0710020F8B500F56C
:10BDD0002D3303F2A513194903F00F02054613464C
:10BDE0000E469C1C01EBC40090F8DC7AAF421CD1DB
:10BDF0001DF004FE28B1284620F0FEFF08B12DF00A
:10BE0000F1FB06EBC405D5F8D80A58B1394626F03F
:10BE100009FB0020C5F8D80A06EBC404002384F807
:10BE2000DC3AF8BD6FF01B00F6E7013303F00F03B7
:10BE30009A42D6D16FF01B00F3E700BFD07100200B
:10BE400037B50D46144619469DF81C30E8B14268D6
:10BE5000DAB13BB1C3785A0617D49B0702D48820C5
:10BE600003B030BD069A0388009220462A46FFF7A9
:10BE7000A5FB411C0BD0821D0BD0831CEFD010F111
:10BE8000280F14BF00207E20EAE78620E8E78720FD
:10BE9000E6E70020E4E7034648B3D0F8150028B3EE
:10BEA000B3F80130994224D0B1F5827F1FD06FF4EE
:10BEB00080728A18072A0DD94FF6FF72914211D16C
:10BEC000B3F5827F15D04CF25E00834214BF002090
:10BED0000120704701204CF25E02914204D1B3F57B
:10BEE000827FF3E70020F6E70028F8D170470020B2
:10BEF00070470120FAE770B598B1057C0024AC4288
:10BF000002D30023184670BDD0F81130C4EB0416DC
:10BF100033441E888E4202D11E7A9642F2D00134FA
:10BF2000EDE70346EEE700002DE9F04F87B08346CA
:10BF30000D4616461F46109C01F0DAFA804600288E
:10BF400000F08780002C00F084809DF844302A4661
:10BF5000CDE9004359463346FFF772FF0390A0BB7B
:10BF60003B463246294658460094FFF757FB214688
:10BF700098F80200D8F80490FFF714FD2146024615
:10BF800048463FF07CFE98F80330590705D53B46FC
:10BF900032462946584603F07BFF98F803301A07CB
:10BFA00013D54FF0000A2C4B5344D3F8E09AB9F163
:10BFB000000F0AD04FF0000899F80030984508D3D8
:10BFC0000AF1040ABAF1080FEDD1039807B0BDE8F1
:10BFD000F08F4FEA88030493D9F8013053F8280012
:10BFE00003785B4532D032462946FFF784FF0028AC
:10BFF000E2D0394601F078F902900028DCD0D9F877
:10C000000130049A9B5829461878009432463B46E2
:10C01000FFF704FB029B5B680593029B214698781F
:10C02000FFF7C0FC059B0246214618463FF027FE5D
:10C03000029BDB785B0709D5D9F80130049A985840
:10C0400029463B463246007803F022FF08F10108FA
:10C05000B2E701230393B8E7D07100202DE9F74F31
:10C06000002506468946934601930095264BEB181A
:10C07000D3F8E07A17B3002E43D03A7800239A42DF
:10C0800003F1010403D84FEA840A06B313E0D7F89A
:10C09000011051F823301978B1422346EFD1002620
:10C0A000F1E7012080B101994046FFF7F4FE58B155
:10C0B00098F8003000930435082DD7D1009803B0CC
:10C0C000BDE8F08F5A4614E001340AF1040A3B78C7
:10C0D000A342F0D9D7F80130BBF1030F53F80A801F
:10C0E000F0D1012249464046FFF705FF0028D8D18C
:10C0F000022249464046FFF7FEFE003018BF0120ED
:10C10000D0E73446BFE700BFD071002037B51B2110
:10C11000054620F0EBFD037BFF2B044630D1037D69
:10C12000B0F80F10002B08BF0122B0F8113018BF73
:10C1300002220020FFF792FF28B9284603B0BDE88D
:10C14000304020F0DFBB207300222946104820F049
:10C1500070FB0446D0B10F4B1B68002BEDD10DF0E6
:10C1600026FC01460028E8D104230093019440F204
:10C17000525340F60F024FF0FF3026F04DFFDCE740
:10C18000284603B0BDE83040FFF7A2BD03B030BD84
:10C1900001C20200E881002030B589B004461B22AC
:10C1A000002101A83FF08FFD01A9204602F086FA88
:10C1B00001A905460246204614F026FEB8B92046DD
:10C1C00020F000FC037813F0040F14BF05210321B5
:10C1D000204620F0C1FC1B21204620F087FD1B22B9
:10C1E00001A93FF04CFD25B92046FFF78FFF09B0AC
:10C1F00030BD2A4601A9204602F0A6FDF7E700005F
:10C200002DE9F041CDB207461B21284620F06EFDF6
:10C2100004462946384620F0F6FB94F80C80124E6E
:10C2200025F0C0FF3946B0FBF6F61048324626F03E
:10C230001FFA237DB4F80F10002B0CBF012202223D
:10C24000B4F811304046FFF709FF20B92846BDE891
:10C25000F04120F057BB2073324629460448BDE820
:10C26000F04126F005BA00BF7CF0C107D1BC020046
:10C2700079B702002DE9F84F002481468A46274607
:10C280000E4BE318D3F8E06A9EB196F800B0002593
:10C29000AB450BD9D6F8012052F8258049465246C5
:10C2A0004046FFF728FE38B198F800700434082C97
:10C2B000E6D13846BDE8F88F0135E9E7D0710020B6
:10C2C00013B50446B8B9144820F08EFA044680B17C
:10C2D000124B1B686BB90DF06AFB014648B9042389
:10C2E00000930194402340F60F024FF0FF3026F0F8
:10C2F00093FE02B010BD01212020FFF7BBFF0146D5
:10C30000204621B102B0BDE8104003F031BA02B0BE
:10C31000BDE8104020F0F6BAC1C20200E88100205A
:10C32000F0B50E4E054600234FF6FF709A19D2F86D
:10C33000E01A81B10F780022974209D9D1F8014063
:10C3400054F8224094F800C0AC4505D1B4F801007F
:10C350000433082BEAD1F0BD0132EDE7D0710020A3
:10C3600038B504460D46FFF7DBFF44B1B0F5827FD8
:10C3700005D14FF657402B1A5842584138BD00207E
:10C38000FCE700002DE9F84F002482468846274646
:10C39000104BE318D3F8E06A3EB196F800B00025E0
:10C3A0005D4505D30434082CF2D13846BDE8F88F3A
:10C3B000D6F8012052F82590514642464846FFF7EC
:10C3C0009AFD10B1027A424501D00135E8E74F46A7
:10C3D000E8E700BFD071002038B51B2120F086FCB3
:10C3E0000446007BFFF748FC257DB4F80F10002DB4
:10C3F00014BF02220122FFF77EFD124B1B7A012B94
:10C4000015D0227EA37D6AB1002B0CBF8323842329
:10C41000A8B1012D0DD1027A12F0020F18BF00232E
:10C42000184638BD002B0CBF81238223F0E78123FF
:10C43000EEE7002DF4D1027A12F0010FEEE7C323EC
:10C44000EEE700BFEC39002007B5042201460DEBF2
:10C4500002003FF014FC019803B05DF804FBF7B54F
:10C460000191102116461F46054620F03FFC044668
:10C4700028461AF0DDF89523032E23609DF820301E
:10C4800008BF0199A37316BF01A9082202222771D0
:10C490006671A01D3FF0F3FB2946099825F0C2FF05
:10C4A00003B0F0BD2DE9F04F87B09A46BDF8443097
:10C4B00001939DF84C300293BDF8583003939DF8DA
:10C4C0005C309DF84080BDF8489004930D461746B7
:10C4D0000446149E9DF854B020F074FA03788178D5
:10C4E00013F0030F0CBF012300234A464046FFF719
:10C4F00021F988B956B153463A4629462046CDE936
:10C50000108607B0BDE8F04FFFF7A9BF204607B07F
:10C51000BDE8F04F20F0F6B91821204620F0E6FBE8
:10C520001822002105903FF0CEFB059BDF732A689F
:10C530001A606A685A60019A1A81BBF1010F029A67
:10C5400083F80CA083F80D80A3F80A909A7305D1A4
:10C55000039A5A82049A1A7583F811B0012F06D0F3
:10C5600029884FF6F77291429CBF04221A74314613
:10C570002046FFF703FC0028BDD101202CF0DAFF94
:10C580000348214607B0BDE8F04F25F04BBF00BF80
:10C5900055D00300A1F5E0630B2B04D9A1F500638E
:10C5A0005842584170470120704700002DE9F04F74
:10C5B0008DB08B4608931821BDF8583007939246EA
:10C5C000064620F093FB0446304620F0FBF9237B1F
:10C5D0000693637B05930378B4F80A808178E77B40
:10C5E00013F0030F81460CBF012300234246059838
:10C5F000FFF7A0F80546B0B9BAF1000F0DD0059BC2
:10C600000093CDF804A0069B3A4621463046FFF73A
:10C6100026FF28460DB0BDE8F08F304620F072F9B5
:10C620006FF00705F5E741462089FFF7B3FF0546A0
:10C63000BBF1000F17D05946304620F06AFA099036
:10C64000304620F0C9F9099B83420CD9594630463F
:10C6500020F05FFA8346304620F0BEF9ABEB0001D4
:10C66000304620F053FB012F11D0E37B022B04D185
:10C6700022884FF6F7739A4209D8404604F046F8EC
:10C6800028B1089B1BB9237C43F0040323741DB11C
:10C69000237C43F0080323740EF0D0FE05460028E7
:10C6A00062D105F00DF800285ED0404604F049F84C
:10C6B000002859D0082229460AA83FF004FB022F7F
:10C6C0003BD0032F43D0002F0CBF00256FF0270570
:10C6D00004F0F6FF002840D0002F3ED04DB90AA844
:10C6E0000EF0D6FE28B102210AA82DF01BFD00286D
:10C6F00036D15D4B1B6873B90DF059F9014650B93D
:10C700000423009340F60F03CDF804801A464FF03F
:10C71000FF3026F081FC6FF02705BAF1000F3FF4DF
:10C7200078AF059B0093CDF804A0069B3A462146BE
:10C730003046FFF794FE00256BE70AA920881FF01A
:10C74000DDFC002814BF6FF027050025C0E7082294
:10C7500021460AA83FF093FABAE7002DC9D1C2E7F3
:10C76000237C43F00103237441460598FFF7F8FD4D
:10C7700068B1082200210AA83FF0A5FA022F1ED0B6
:10C78000032F52D03FBB237C43F001032374514657
:10C790003046FFF7F3FA05460028BED1304620F0B8
:10C7A00011F90378DB0602D401202CF0C3FE079BAD
:10C7B000002B53D131462D4825F034FE29E70AA934
:10C7C00020881FF09BFC054630B902210AA82DF0F5
:10C7D000A9FC0028D7D10025234BD3F800B099F845
:10C7E00002300B2B27D199F800305A0723D199F842
:10C7F0000430012B1FD1BBF1000F12D10DF0D7F87F
:10C80000014670B9CDF8088099F8033001930823E8
:10C81000009340F60F0240F657034FF0FF3026F02A
:10C82000FBFB002D7FF479AFB1E7082221460AA86F
:10C830003FF025FAC9E7BBF1000F7FF46CAF0DF0B4
:10C84000B6F800287FF467AF04230093CDF8048086
:10C8500040F65E0340F60F02594658E7079A034830
:10C86000314625F005FFD4E6E881002055D00300CD
:10C870002DE9F74F1D469DF8303001930F46109B70
:10C8800000931821934606469DF834A0BDF83890D1
:10C89000BDF83C8020F02AFA1822044600213FF01F
:10C8A00012FA032D0CBF082202225946E5732046D6
:10C8B0003FF0E5F9019B009A237339460023304687
:10C8C00084F80DA0A4F80890A4F80A800C9303B093
:10C8D000BDE8F04FFFF76ABE2DE9F04F87B01D4667
:10C8E0009DF840300593CDE90101149B0493182174
:10C8F00003929DF844B0BDF848A0BDF84C909DF857
:10C9000054809DF85860BDF85C7020F0EFF9182253
:10C91000044600213FF0D7F9032D0CBF0822022264
:10C920000399E57320463FF0AAF9DDE90101059B73
:10C93000049A2373334684F80DB0A4F808A0A4F831
:10C940000A9084F81080109707B0BDE8F04FFFF709
:10C950002DBE00002DE9F041069D0E4690461F4673
:10C9600020F0BCF8094B00F8016B93F8D84A621C20
:10C9700083F8D82A730702D5414625F03AFC0470A3
:10C980004770023005B12C70BDE8F081D0710020F5
:10C9900000487047A87C002000487047EC39002010
:10C9A00002289DBF024B187000206FF005007047F1
:10C9B000EC390020014B187A704700BFEC39002099
:10C9C00001289DBF024B187200206FF005007047D0
:10C9D000EC390020134B1B781BB391280ED89028FC
:10C9E0001AD28A281CD005D8A0F18103032B98BF46
:10C9F000812070478F2808BF7E207047C12806D845
:10CA0000C02809D2922809D0932805D07047C2289F
:10CA100004D0C42804D07047012070477F2070479D
:10CA200000207047EC39002010F1170F12D009DCFC
:10CA300010F11F0F10D0094B1B7A012B0CBF0120E6
:10CA4000C02004E010F10A0F02D00028F3D1704793
:10CA5000852070478720704781207047EC3900207F
:10CA60002DE9F04788B08146ADF81E1020F036F869
:10CA7000082303700446FFF78BFF0378DFF8B0A0AC
:10CA80005A1C027063700A23A370284B1F7803346A
:10CA90009846052F36D801223AF817301146C4209F
:10CAA00000F026FD064618B301214CF25D20FFF789
:10CAB00071FD2146F0B1484620F02BF8C0F5CA6060
:10CAC000013085B27168B078FEF76CFF03308542A3
:10CAD00016D33188204625F08CFBB37800F8013B53
