:1000000000A00020B5020000DD020000DF020000B9
:10001000E1020000E3020000E50200000000000031
:10002000000000000000000000000000E7020000E7
:10003000E902000000000000EB020000ED020000F9
:1000400029CA000029C90200E9CE0000EF02000021
:10005000EF020000EF02000045CD0000EF020000BB
:10006000EF020000EF020000EF020000EF020000CC
:10007000EF020000F9CF0000EF020000EF020000E5
:10008000EF020000DDB60000EF020000EF0200000A
:10009000EF020000EF020000EF020000EF0200009C
:1000A000EF020000EF020000EF020000EF0200008C
:1000B000EF020000EF02000000000000000000005E
:1000C000EF020000EF020000EF020000EF0200006C
:1000D000ADF10200EF020000EF020000EF020000AD
:1000E000EF0200000000000000000000000000001F
:1000F00000000000EF02000000000000EF0200001E
:1001000000000000000000000000000000000000EF
:1001100000000000000000000000000000000000DF
:1001200000000000000000000000000000000000CF
:1001300000000000000000000000000000000000BF
:1001400000000000000000000000000000000000AF
:10015000000000000000000000000000000000009F
:10016000000000000000000000000000000000008F
:10017000000000000000000000000000000000007F
:10018000000000000000000000000000000000006F
:10019000000000000000000000000000000000005F
:1001A000000000000000000000000000000000004F
:1001B000000000000000000000000000000000003F
:1001C000000000000000000000000000000000002F
:1001D000000000000000000000000000000000001F
:1001E000000000000000000000000000000000000F
:1001F00000000000000000000000000000000000FF
:1002000010B5054C237833B9044B13B10448AFF350
:1002100000800123237010BDE805002000000000CD
:10022000C036030008B5034B1BB103490348AFF3C5
:10023000008008BD00000000EC050020C03603006F
:10024000154B002B08BF134B9D46A3F5803A0021A8
:100250008B460F461348144A121A2FF036FB0F4BE9
:10026000002B00D098470E4B002B00D09847002061
:10027000002104000D000D48002802D00C48AFF307
:1002800000802FF0ABFA200029000EF047F92FF084
:100290007FFA00BF0000080000A00020000000005E
:1002A00000000000E8050020D0460020000000000B
:1002B000000000000649074A074B9B1A03DD043B78
:1002C000C858D050FBDC0EF0CFF9FFF7B9FF0000A3
:1002D000C437030000000020E8050020FEE7FEE729
:1002E000FEE7FEE7FEE7FEE7FEE7FEE7FEE7FEE7E6
:1002F000F0B595B01C46164608460D460BF07AFF41
:100300001A9B0D93CDE9086400242346082205A911
:1003100028460A948DF82C400C940BF089FF079B1B
:100320000293BDF81830ADF80C30BDF81A30ADF8B6
:100330000E309DF814308DF8114003F00302012AAD
:100340001DD1BDF81440059EC3F3C203C4F383144A
:100350008DF81030A20008230EA928460BF068FF84
:10036000C6F3952608AB0093224602AB0EA9304691
:1003700000F02EFD28460BF041FF15B0F0BD022A1B
:10038000F8D1BDF81640C3F3C203A4098DF81030AC
:100390000827082C264628BF08263B4632460EA9C9
:1003A00028460BF045FFA41B08AB02AA31460EA855
:1003B000374400F071FD002CEBD1DBE7014B01224B
:1003C0001A707047450600207047000070B50F4D49
:1003D00006460FCD88B06C460FC495E80F00002E7E
:1003E00084E80F004FF006030093094A09484FF0D4
:1003F000805308BF0022694606930CF0F9F908B152
:100400000AF04AFE044B1E7008B070BD8C10030049
:10041000BD030000000000200406002007B5044BC7
:100420000093044A4023FFF763FF03B05DF804FB29
:10043000390400000506002038B50D4B0D4D002095
:1004400018700D4804782D5DD2B21C4665B1043099
:100450000DF07CFA08B10AF01FFE084B1A7812B1B1
:100460002378002BFBD038BD0C300DF00BF8F1E7F2
:1004700045060020482C0020000000200406002033
:1004800008B50848084A0378D35C3BB104300DF046
:10049000EFF90020BDE80840FFF798BF0C300CF0E2
:1004A00097FFF6E700000020482C00200120FFF70E
:1004B0008DBF000008B5FFF7F9FF0421034800F0E5
:1004C000E5FB034B01225A7108BD00BF94370300BE
:1004D00014000020037813F0040216D003F0030385
:1004E000012B03D0022B09D0012070470A68008835
:1004F0000232C0F3831002440A60F5E70B684288B9
:10050000023303EB92130B60EEE7104670470000D6
:100510002DE9F04F484C87B00F460546861C002059
:1005200001920AF08DFF23683B60D4E90123134454
:10053000226801339B1A04F21C4704F5836A04F213
:100540001448B34219D3019A0023002A6CD0012227
:1005500062F3010343F0040365F389132168A26881
:100560000A4003320E44002044F8223026600AF08C
:1005700069FF012007B0BDE8F08F012138460BF07C
:1005800075F950460BF08BF940460BF088F90DF1E8
:1005900018096068D4F808B049F8100D00EA0B009B
:1005A000033004EB80004946FFF794FF029BB0B98B
:1005B0000BEA030204EB8202D16803919A1C013317
:1005C00003EA0B0B04EB8B0C01F00303012B0292EB
:1005D000DCF80CB020D0022B04D083460BE00BEAF1
:1005E0000300DDE7BDF80E309B0903334FEA1B4BD8
:1005F00002EB9303029340460BF054F908B1029BBF
:100600006360594638460BF031F9D4E901231344AD
:10061000226801339B1A94E7BDF80C30C3F38313AF
:100620004FEA1B4B1344E5E7022262F3010343F058
:10063000040365F39F5391E71807002030B50A4B78
:100640000A4A0B49D21AD20800239A4201D1052046
:1006500006E031F823500468A54202D1036000206F
:1006600030BD0133F1E700BFDC36030094370300EF
:100670001C0500202DE9F84F224B2348FF229A60E9
:100680000022C3F81824C3E90022C3F8142483F815
:1006900020240BF068FD804688B91C481C4E1D4D77
:1006A000DFF874A00BF0D2FEAD1BED084446AC425F
:1006B00008D10023184919481A469C421BD14046CC
:1006C000BDE8F88F4FF000094F4606EBC40BBC4263
:1006D0000AD0142256F83710DBF800002FF060FC27
:1006E0000028C8BF09F101090137BD42EFD12AF83E
:1006F00024900134DBE701EB830540F823206A8076
:100700000133DAE718070020A4370300CC100300F8
:10071000DC360300943703001C0500207805002018
:1007200007B5019031B9019A064B53F8320003B076
:100730005DF804FB01A8FFF781FF0028F3D000203B
:10074000F5E700BFDC360300094B013903EBC000BD
:10075000032909D8DFE801F00A02040604207047E3
:100760000079704740797047002070470220704739
:10077000DC36030030B5124C00EB400054F8215039
:100780008240072303FA00F06A4002400D4B6A40A2
:10079000C2F3821044F8212003EB8101C2F3C203AB
:1007A000834238BF0346C2F34220834202F007026D
:1007B00038BF03469A4238BF1A464A8030BD00BF50
:1007C000780500201C05002037B5164B93F820341F
:1007D00004460BB918B90024204603B030BD2FF0F1
:1007E000D7FB02AA013042F8080D012301A90E48E7
:1007F0000BF03AFE05460028EDD12146009A0198FB
:100800002FF03FF8DDE900231344074803F8015CAB
:1008100000990BF060FE009903480BF075FE019CF7
:10082000DAE700BF18070020CC100300034BD3E920
:100830000030C31A58425841704700BF18070020C3
:100840002DE9F04F85B0FFF7F1FF0646002840F094
:1008500018818D4DC5F81804BFF34F8F6868AC68D8
:1008600004AF47F8100D2040033005EB80003946F7
:10087000FFF730FE009B18B1D5F81824002A66D087
:1008800004EA0302991C013305EB8202234005EBC5
:100890008303D268DB68029302F00303022B019208
:1008A000009169D1BDF8063078489DF804604FEAA0
:1008B000931ABAF1500FD14628BF4FF0500969F38F
:1008C0008F1309F10801ADF806300BF064FCC6F394
:1008D000C2068046002800F0BB800BF08BFC01A90B
:1008E0000023082240460BF098FC009924EA0107F7
:1008F0000137BF00B94538D95FFA89F997B3FFB21C
:10090000A9EB0709214003315FFA89FBB946604F23
:1009100005EB810108234A4640460BF07EFC37B1C7
:1009200009F108035A46394640460BF076FC009B15
:100930000AF1030A03EB9A030093D5F81834002B4D
:1009400050D1D5F81044DFF85C9107276FE02A6892
:100950009A4204D86A60304605B0BDE8F08F04EAD8
:10096000030081E74A49BB46D4E72140033108230D
:100970004A4605EB8101D7E7012B69D1BDF8046038
:100980004248C6F38311062928BF062161F3891660
:1009900002318900ADF804600BF0FDFBC6F3C2061E
:1009A0008046002854D00BF025FC0023082201A922
:1009B00040460BF032FC0027BDF80420C2F383123E
:1009C000BB1C97424FEA8303B7D200994A1C2140CF
:1009D0000331009205EB8101042240460BF01DFC1F
:1009E0000137E9E740460BF009FCFFF71FFF80F0F5
:1009F0000100C6B2AFE7E3685A79B2B11B79BDF81E
:100A0000081003EB430259F8211007FA02F3052EF0
:100A100003EA010323FA02F308BF0326B34204D317
:100A2000236841461B6820469847E3681C68002CF1
:100A3000E1D140460BF0E2FB20460AF001FDD5F87B
:100A400018340BB9009B6B6000200AF0FBFCCCE76C
:100A5000D5F8104474B90F4B5B88012BC5D90E4BE8
:100A60000E480F49C01AC008000440F0020000F010
:100A700073F8BAE7236820469B689847E3681C68C8
:100A8000E8E7002667E700BF18070020A437030047
:100A90002407002034050020DC3603000C37030057
:100AA000D8100300780500202DE9F74F284C804628
:100AB0000F46924601A9012218469B46D4F8089099
:100AC000FFF726FD88B3019D0026A91C5E4506EBB5
:100AD000010234D100211F480AF092FE80F3100079
:100AE0006A1C02EA090204EB8202000405EA090317
:100AF000033340EA1840D06014F8232068F3C5029D
:100B000004F8232034F8232066F3891224F82320E4
:100B100054F82320012167F39F2244F8232061F336
:100B200001026FF3820204F8232094F820341BB1F1
:100B3000FFF786FE0028FBD103B0BDE8F08F09EA7D
:100B4000020204EB82025AF82630D3600136BDE778
:100B500018070020340B002000231A46FFF7A4BF1B
:100B600013B502AC012344F8042D2246FFF79CFF85
:100B700002B010BD07B5CDE9002302236A46FFF796
:100B800093FF03B05DF804FB1FB5CDE90123069B7D
:100B9000039301AA0323FFF787FF05B05DF804FB69
:100BA0001FB5CDE90023069B0293079B03936A467A
:100BB0000423FFF779FF05B05DF804FB2DE9F34747
:100BC0008046304CD01C8A46174601A90022800876
:100BD000A568FFF79DFC002840D0DDF80490A668CA
:100BE00009F10200019001362840361AB6000330A0
:100BF000B74204EB80003BD83A4651462EF041FE06
:100C0000002121480AF0FCFD80F3100009F10103E6
:100C10002B4004EB83034FEA184242EA0040D860BD
:100C200005EA0903033304EB830214F8231068F385
:100C3000C50104F8231034F823106FF38F1124F842
:100C40002310518867F38F11518014F8232002215B
:100C500061F301026FF3820204F8232094F8203438
:100C60001BB1FFF7EDFD0028FBD102B0BDE8F08716
:100C7000324651462EF005FEBA1B0AEB060104F17E
:100C80000C00BBE718070020340B00202DE9F843C7
:100C90001F4B8846D3F81014054600240A469AB91B
:100CA000E9680C71D3F81014A1B9C3F81054EB68BB
:100CB0001A60184F184EF61BF6084FF00009B145A0
:100CC00011D12046BDE8F883D2681079A04218D02F
:100CD0001268E4E7C968EA6809681160D3F810345B
:100CE000DB681D60E5E707EBC9034946DA79EB6885
:100CF000424528BF42461879FFF73CFD09F101093A
:100D0000DDE701340A2CC9D14FF0FF34D9E700BF29
:100D100018070020DC3603009437030010B5037A6F
:100D2000052B0C460FD0437A23B1084A08492046C8
:100D30000AF017FE074920460AF013FE2046BDE8D8
:100D400010400AF003BE002AF8D0F3E73311030085
:100D50002F1D03005511030073B5C38804460D46CB
:100D600033B1144A00921449144A28460AF0F9FD96
:100D7000217A05291CD0637A4BB1A088FFF7E4FCE7
:100D80000F4B104953F8202028460AF0EAFD227A3A
:100D90000D4BA08853F822600021FFF7C1FC0B49DE
:100DA00003463246284602B0BDE870400AF0D9BD7D
:100DB00002B070BD3311030040110300381103006D
:100DC000001103002F1D03006411030058110300DC
:100DD0002DE9F04385B01F460C9D002306460C46C6
:100DE000904695F80C902B7329463846FFF7B4FFD0
:100DF000B8F1060F09D8DFE808F00412181F2833ED
:100E00004000314628460AF0ACFD0022294638460B
:100E1000FFF784FF85F80C9005B0BDE8F0832268E9
:100E2000314628460AF09DFDEFE7D4E9002331461C
:100E300028460AF096FDE8E7A36800933146D4E916
:100E4000002328460AF08DFDDFE7E3680193A368DD
:100E500000933146D4E9002328460AF082FDD4E706
:100E600023690293E3680193A36800933146D4E9B0
:100E7000002328460AF075FDC7E7636903932369D9
:100E80000293E3680193A36800933146D4E90023F9
:100E900028460AF066FDB8E708292DE9F84F804694
:100EA0000E4617461C4635D8002593F80C901D7346
:100EB00019461046FFF750FFDFF88CA0DFF88CB022
:100EC000AE4229D918F80520594620460AF049FDB6
:100ED0000135082DF4D11A49DFF874B020460AF024
:100EE00040FD4FF0000A564524D918F80A507E2DCF
:100EF00017D92E22594620460AF033FD0AF1010A7D
:100F0000BAF1080FEFD1012221463846FFF706FF5C
:100F100084F80C90BDE8F88F514620460AF021FD78
:100F2000D6E72EF07FFC2844427812F0970FE0D0ED
:100F30002A46DFE7034920460AF013FDDEE700BF3B
:100F40002E1103002C1103002A11030024110300A9
:100F500030110300074B1B5C1F2B8ABF064A4FF062
:100F6000A04203F01F03D2F80405D840C04300F0AC
:100F700001007047CD11030000030050074B1B5CBC
:100F80001F2B86BF03F01F0305494FF0A04101222C
:100F900002FA03F3C1F80C35704700BFCD1103000E
:100FA00000030050074B1B5C1F2B86BF03F01F0381
:100FB00005494FF0A041012202FA03F3C1F80835B8
:100FC000704700BFCD1103000003005008B500209A
:100FD000FFF7E8FF0120FFF7E5FF0220FFF7E2FF40
:100FE0000320BDE80840FFF7DDBF08B50020FFF78C
:100FF000C5FF0120FFF7C2FF0220FFF7BFFF03205C
:10100000BDE80840FFF7BABF0A4B185C1F288ABF2B
:10101000094B4FF0A04300F01F00D3F80425012135
:10102000814021EA02000A40C3F80805C3F80C25F4
:10103000704700BFCD11030000030050074B1B5C3D
:101040001F2B8ABF064A4FF0A04203F01F03D2F8BD
:101050001005D840C04300F001007047C9110300DB
:10106000000300500B2809D00C2809D0182809D0FB
:1010700019280CBF03204FF0FF3070470020704745
:101080000120704702207047C20710B504460CD5F6
:101090004FF0A0430322C3F83427C3F83827C3F81E
:1010A0003C27C3F84027FFF791FFA3070AD54FF06D
:1010B000A0430C22C3F82C27C3F83027C3F86027BD
:1010C000C3F8642710BD0000F8B50F4B00242022A0
:1010D0000F460D2183F88A201C7083F8784083F82E
:1010E0008C102246234605461FF0EEFD064650B101
:1010F000214628461AF0FFFB377029460348BDE811
:10110000F8401FF00FB8F8BDBA2B00200111020003
:1011100073B502AB00220C4603F8012D114619F0FD
:1011200039FD38B90A4B9DF8071093F843200D2577
:10113000824202D86FF01B0006E005FB0036F67B0A
:101140008E4203D12070002002B070BD0130EFE765
:10115000BA2B00200B4BD3F801202AB983F8782052
:10116000114609481AF0DDB88C2A0BBF0722062267
:1011700083F8782083F8782007BF0022032100221B
:101180000221EEE7BA2B0020C910000037B5114C40
:1011900005461AF08FF92278042A07D142782AB935
:1011A00029460D481AF0BDF803B030BD0DF1070116
:1011B0004088FFF7ADFF0028F6D19DF807300748BB
:1011C0000D2202FB034329465A7D01325A751EF057
:1011D000A9FFE9E7BA2B00206914000031160000CE
:1011E00008B50022FF2109481FF08AFA0022FF21DA
:1011F00007481FF085FA7522002106482EF065FB8E
:10120000054B064AC3F8F82B08BD00BF5511000076
:1012100051120000BA2B00204C2C0020E1170000D6
:1012200010B50022084C094811461FF069FA94F8DD
:10123000440003F0D5FF00232022237084F88A2085
:1012400084F8783010BD00BFBA2B00205112000086
:1012500010B5044620B90948BDE810401AF03CB862
:10126000FFF7DEFF00230C2120461A461FF02CFD5D
:1012700021460348BDE810401EF054BF5112000043
:101280000111020008B50022FE2105481FF038FABE
:10129000002201210348BDE808401AF042B800BF0F
:1012A00055110000C910000070B50C4BD3F8453043
:1012B0002BB11C7CD3F811500023A34201DB00208A
:1012C00070BDC3EB03122A441688864202D1127AFB
:1012D0008A4201D10133F0E70120F1E7BA2B002067
:1012E0002DE9F047044688B0C0790E461AF0E2F8BE
:1012F00090F80BA0077B80465744D4F80950BD42B4
:1013000080F090802B1D08EB4303AA4594BF022177
:101310000121B3F805904846FFF7C6FF002800F00A
:101320008A80DFF838A11C2130461AF057FADAF823
:1013300009300546D046002B50D0217806A819F078
:10134000AFF8A279DAF809A022444B46527806A9F0
:101350000220D047002841D16FF04402D4F8093070
:101360009F4270D13D4F97F84A30002B67D0B7F8B5
:1013700075204FF6FF739A4261D00025217806A8A8
:1013800019F0D0F82B462A4601210095304601F08D
:10139000EBFCB7F875101EF0B6FD01464FF48273F2
:1013A000042201F8015BCDE90232049597F844303C
:1013B0000193A379234406AA5B7800933046022365
:1013C00001F060FCA379E17925480133A3711EF097
:1013D000A9FE0023E37108B0BDE8F0871C220021BC
:1013E00028462EF072FA28461FF024FE98F8443062
:1013F0002B72A5F80A90B8F875204FF6FF739A4241
:1014000012D1217805F10D0019F04AF803232B734E
:10141000A379234430465B786B75124B2672AB611F
:101420000EF0FAFE002299E701232B73B8F875300D
:10143000A5F80D30ECE70135C4F809505DE73046FA
:1014400019F0D8FFBEE7002AC5D00133C4F809302F
:1014500031462046FFF744FFBDE700BFBA2B00200E
:1014600031160000051500002DE9F341CFB2054605
:1014700038460C461AF01EF8204EC1888046D6F831
:10148000450000F07EFFB8F802300DF10701A8B169
:101490001846FFF73DFE30BB9DF807300D2101FBDC
:1014A0000364294620766076A076E0762046A7750C
:1014B0000F30FFF715FF02B0BDE8F0811846FFF7C7
:1014C00027FE804678B99DF807000D2303FB0060D6
:1014D0003946437D0133437509481EF023FE002D34
:1014E000E9D0444600E015B1284619F083FF002CEE
:1014F000E1D0E0B219F07EFFDDE700BFBA2B00209B
:10150000311600002DE9F04F1C2185B08146304C8A
:101510001AF064F994F84320834600250D21954282
:1015200015D32C4B1B687BB90DF038FA014658B91E
:1015300004230093CDF804904FF4BA7340F25B3269
:101540004FF0FF301FF070FB05B0BDE8F08F01FBDE
:1015500005F804EB0803D87D48450DD10026DE755B
:1015600048461AF0C1F948B16FF07303A670E670EF
:1015700026716370012609E00135D0E70123607010
:10158000A070E070207184F84A3006460D2707FBF2
:10159000054702A8F97B18F083FFD4F809A0BAF137
:1015A000000F07D07B7D1F4402A9BBF80A303A7CAC
:1015B0003046D0470D2303FB054508F10F00AB690A
:1015C0000133AB6149462044FFF78AFEBCE700BF08
:1015D000BA2B0020C83A002070B50E4605460146D9
:1015E00030461AF088F98C2D0F4C03D1072384F86C
:1015F000783002E0B5B984F878502378052B06D10D
:10160000002394F878200C2130461FF05DFB002366
:101610002370202384F88A3031460448BDE87040A6
:101620001EF080BD0623E2E7BA2B00200111020064
:101630002DE9F341054619F03DFF0DF10501408804
:10164000FFF766FD074600284AD19DF80530274C74
:101650000D2202FB0346717D307D884222D9314440
:10166000284691F81080032119F076FF03223946AD
:1016700004462EF02AF9F17B0DF1060018F052FF16
:10168000BDF80630238084F802801949284622F0EC
:1016900055FCFF2803D129468A20FFF79DFF02B0A1
:1016A000BDE8F081FF21022BF1730BD803FB022070
:1016B00000F10F01C3F1030302305A4321442044D7
:1016C0002EF0EAF894F84330013BDBB284F8433063
:1016D00033B9D4F801208C2A08BF072384F8783066
:1016E000002DDCD0284619F085FED8E7BA2B002063
:1016F0008D1100002DE9FF47364D804619F0DAFEC6
:1017000095F80090B9F1040F07465AD10DF10D017B
:101710004088FFF7FDFC8246002858D19DF80D4017
:101720000D2606FB04560DF10E00F17B18F0FAFEB3
:101730003B793375042B86F815A029D9264B1A68F6
:101740009A4602BB0DF02AF9014650B9337D40F2AA
:101750005B32CDE900934FF0FF3040F2B3331FF01E
:1017600063FADAF8003073B90DF018F9014650B990
:101770000423CDE9003340F25B3240F2B5334FF041
:10178000FF301FF051FA0D2303FB045304221A7596
:101790000D2303FB0453197D04EB440304EB830482
:1017A00000238B4206D341460C481EF0BBFC04B01C
:1017B000BDE8F087FA1850791A192A4401331074D9
:1017C000EFE76FF007004146FFF706FFEFE7002065
:1017D000F9E700BFBA2B0020C83A002031160000FC
:1017E0002DE9F047664D2B78042B8CB0064640F06F
:1017F000C380D5F801301C3304D100236B70AB706B
:10180000EB702B711B21304619F0E8FF1B220146BB
:1018100005A82EF036F803A9BDF8150019F0E6F971
:1018200028B9584B93F8340E10F0200414D0062138
:10183000304619F0D3FFBDF81530438003800023F4
:1018400083805149304622F079FAFF2874D131461D
:101850008A20FFF7C1FE6FE0FF238DF80A302B7856
:10186000BDF815709DF81F90042B1FFA87F810D152
:101870000DF10A014046FFF74BFC70B195F843307B
:10188000032B04D88DF80A30013385F84330204605
:1018900001E06FF00700012400E004469DF80AA073
:1018A000BAF1FF0F4DD0002C49D000220DF10B03EF
:1018B0001146404619F06EF9002842D10D2303FB72
:1018C0000A539DF80B20DA73187558754FF00D0800
:1018D00008FB0A5898F81430032B35D808EB03029C
:1018E000013382F8109088F81430002C43D0052181
:1018F000304619F031FE0522044600212DF0E5FFA7
:10190000002363700D2303FB0A5567802B7D237131
:101910001E4B1B6863B90DF041F8014640B90090B9
:101920004FF45F7340F25B324FF0FF301FF07CF9F1
:10193000314617481EF0F6FB0CB0BDE8F0870028D2
:10194000C4D0314600B284E7104B1B68002BCCD1C9
:101950000DF024F801460028C7D198F814300193FF
:101960000423009340F25B3240F271334FF0FF30BA
:101970001FF05AF9B9E7304619F03CFDDCE700BF2B
:10198000BA2B00204C2C0020311A0000C83A00204D
:1019900031160000F7B50E4602A9FF25044601F8EE
:1019A000025D3046FFF7B4FBA0B31F4A92F8433004
:1019B000032B04D88DF80630013382F843309DF8AC
:1019C0000650FF2D29D002AB002203F8012D11464D
:1019D000304619F0DFF80746F8B9134B0D2202FB29
:1019E00005359DF80730EB730221204619F0B4FD50
:1019F0000546022239462DF068FF2E800B4920460D
:101A000022F0B5FAFF2803D121468A20FFF7E4FD32
:101A100003B0F0BD8DF80650D1E7002CF8D0204679
:101A200019F0E8FCF4E700BFBA2B0020F51600001F
:101A300037B5044619F03EFD0546204619F054FF1F
:101A4000024658B969890DF10703A81C19F0C8F9B5
:101A500069892046FFF79EFF03B030BD204619F08C
:101A6000C9FCF9E70D4930B5A1F5BC7202259142D8
:101A700001D800200EE08B1ADB1093FBF5F302EB8C
:101A8000C30452F83330834205DC02DA04F1080261
:101A9000EDE7606830BD2146E9E700BF641603004A
:101AA00008B5FFF7DFFF024B002808BF184608BD46
:101AB000D11103002DE9F7430A9F1E46804689464F
:101AC000154601F06FF9D0F8B030DBB101F06AF9DA
:101AD0000097D0F8B04033462A4649464046A047D2
:101AE00004464A464146284604F03FFA14F1450FA1
:101AF00003460BD148B13A462946304603B0BDE80B
:101B0000F04318476FF04404EBE70446204603B067
:101B1000BDE8F0832DE9F041069F05461E4604F01E
:101B200039FA044630B13A46314628462346BDE8E4
:101B3000F0411847BDE8F081B0F80F30B3F5A06F61
:101B400001D103F0C5B870470020704770B51B2164
:101B500088B0054619F042FE1B22014601A82DF06F
:101B600090FE01F01FF9D0F8AC604EB101F01AF907
:101B7000D0F8AC309DF8100098476FF01E0017E0C9
:101B800001F010F9D0F89C30002BF6D03421284613
:101B900019F024FE1D2303709DF810304370466039
:101BA000044601F0FFF8D0F89C302846984760685A
:101BB00001F09EF901A90246284604F085FA08B012
:101BC00070BD000010B5FF2888B0044607D101F0B1
:101BD000E9F80C4BC0F85832012008B010BD1B21A9
:101BE00019F0FCFD1B22014601A82DF04AFE9DF8CC
:101BF000173023B9214604481EF094FAECE7002080
:101C0000EBE700BF1C0000204D1B000007B5054B93
:101C100000930023044A0121184604F00FF803B092
:101C20005DF804FBC51B0000491B0000F8B50C461D
:101C3000154607461E4600F09BFA0122002100F0DF
:101C4000D0FB90B1122301220021384602F0D2F9D4
:101C500058B14368187840B91EB1052C05D90B2C32
:101C600002D1032D01D00020F8BD0120FCE70000C7
:101C700037B50146044600220F4819F052FB0546CD
:101C8000B8B10E4B1B6873B90CF088FE014650B911
:101C90000423009301954FF49F6340F60F024FF029
:101CA000FF301EF0C1FF204603B0BDE8304019F000
:101CB000A1BB03B030BD00BFED260000C83A002034
:101CC00013B5154AD2F844391BB1D2F848392BB9AB
:101CD0000123023302EB8303C3F83C09D2F84039F5
:101CE000BBB9C2F840090D4819F0F6FA044680B1B4
:101CF0000B4B1B686BB90CF051FE014648B904232D
:101D0000009301947D2340F60F024FF0FF301EF048
:101D10008BFF02B010BD00BF4C2C0020AD2700008F
:101D2000C83A0020F8B5124BD3F8E83904460078D9
:101D300003B198470F4F22783A700025237C9D42CB
:101D400002D3FF233B70F8BDD4F81130C5EB051664
:101D50003344D3F80B3003B19847D4F81120B4F8CA
:101D600001102078324406F03BF80135E6E700BF69
:101D70004C2C00202C0000202DE9F04F454BD3F8CF
:101D800040398DB0002593F800A00793AC465FFA68
:101D90008CF9CA457CD9079BD3F8013053F805B0BC
:101DA0005A199BF8103009920A93002201231AE075
:101DB000C3EB0311C2EB02180B9100200999DDF867
:101DC0002CE051F820100691097C08911946089CD6
:101DD0008C4210D8013009EB0001C9B28A45EDD818
:101DE00001330132DBB20A98D1B28842E0D80CF15B
:101DF000010C0435CBE7DBF81170069E07EB0804F5
:101E00000594D6F81160248876443788A7423AD1E1
:101E1000059F367A3F7AB74235D1042C12D0192C5F
:101E200010D0202C0ED040F20B76B4420AD040F2F3
:101E30000126B44206D0B4F5006F03D04FF65746E2
:101E4000B44220D1144B1B68CBB90CF0A7FDB0B93C
:101E5000104BD3F84039D3F801305B59D3F8113027
:101E60009844014698F80830CDE9014308230093CF
:101E700040F60F02D2234FF0FF301EF0D5FE0020B7
:101E80000DB0BDE8F08F0131C9B20EF10F0E9EE723
:101E90000120F5E74C2C0020C83A0020272807B580
:101EA000034620D041D81A2838D022D80D2800F077
:101EB000978011D80A2831D007D8082800F08980E7
:101EC00009287DD04FF0FF3084E00B2800F0868099
:101ED0000C28F7D105207DE010287AD005D80E28EF
:101EE00021D00F28EED1082074E0182871D01928CD
:101EF000E7E720286DD00AD81D2871D003D81B2809
:101F00006CD01C28E5E71E280DD01F28EAE72328FF
:101F100064D005D8212853D02228D3D1032059E0FA
:101F200025285DD0D6D9072054E03A28DBD019D82F
:101F30002D2855D00AD82A28F0D003D8282848D0F0
:101F40002928BEE72B2849D02C28C2E7302840D0CA
:101F500003D82E28E7D02F28C4E7382830D03DD822
:101F60003128AEE7E22826D8E02837D243280ED021
:101F700009D84128A6D30029A4D00878FF28A1D0E9
:101F80000130C0B226E0482801D04A289AD102A8E0
:101F90000022482B20F8022D4FF0020201D0432BE3
:101FA00020D12DF06EFCBDF806004FF6FF7398426D
:101FB00088D002300EE0EA2810D003D8E82881D378
:101FC000022007E0F0288ED0F1287FF47BAF1020AC
:101FD00000E00120C0B203B05DF804FB0420F9E783
:101FE0000620F7E72DF04DFCBDF806309B00ADF85C
:101FF0000630D8E7252973B5044615463DD026D8C6
:10200000182930D016D80A296BD006D808292AD02A
:1020100009295FD0204602B070BD0F297ED010295B
:1020200021D00B29F6D12046042229462DF029FC87
:102030000434EFE7202916D004D81A2951D049D307
:102040001B29EFE722294CD044D32329EAE7422970
:102050001AD841294CD22B29E5D008D8292939D0C2
:102060003FD82829D6D12B7804F8013BD2E7302974
:10207000F9D031292ED02D29CCD12046062229464F
:102080002DF0FFFB0634C5E74A2904D01CD84329AC
:1020900001D04829BED102A80023482920F8023DDA
:1020A0004FF0020201D043292FD129462DF0E9FB40
:1020B000BDF806604FF6FF739E42ABD00236B6B253
:1020C0003246294620461CE0F02927D0F1292CD0A1
:1020D000E229A7E72046022229462DF0D2FB02344E
:1020E00098E72046032229462DF0CBFB033491E7E5
:1020F000002A8FD01678FF2E8CD00136F6B23246E9
:1021000029462DF0BEFB344484E729462DF0B9FB67
:10211000BDF806309B00ADF80630C9E7204608221E
:1021200029462DF0AEFB083474E7102229462DF025
:10213000A8FB10346EE700002038C0B20D289ABF0B
:10214000014B185C00207047641603002B2809D847
:10215000282805D2202809D3232801D9252805D1EC
:10216000012070472D28FBD0E228F8E700207047B7
:1021700070B51449D1F844290AB315780024AC424B
:1021800008D2D2F8013053F824301E78864202D0AB
:102190000134F4E70023D1F848492CB12578002216
:1021A000AA4203D319460B46184670BDD4F8011055
:1021B00051F822100E788642F5D00132F0E713462E
:1021C000F2E700BF4C2C002070B51B2188B00446FC
:1021D00019F004FB1B22014601A82DF052FB9DF8CB
:1021E00010603046FFF7C4FF9DF81A30BDF8132089
:1021F0009DF8171005463046FFF718FD20B9204618
:1022000019F0F8F808B070BD07F080FC40B9D5F8B7
:102210000330EBB9204603F0E8FE024650B9F1E77F
:10222000BDF8130006F0C3F848B19DF812301B0743
:1022300005D47E2201A9204603F0CEFFE2E7BDF8D7
:102240001310BDF8050006F063F80028DFD1F0E7B1
:10225000074BD3F8F03B33B9D5F803302046984705
:102260000028D7D0CEE701A898470028D2D1F3E7BD
:102270004C2C002000F52D33F0B503F2A513104DC2
:1022800003F00F0213462C469F1C05EBC70696F879
:1022900040C9BCF1000F07D104EBC70383F8400924
:1022A000C3F83C190020F0BDD6F83C69002EF3D0ED
:1022B000013303F00F039A42E6D16FF01500F2E705
:1022C0004C2C0020F8B500F52D3303F2A513164968
:1022D00003F00F0213460D469C1C01EBC40696F852
:1022E0004079874218D119F0FFFA08B123F082FB38
:1022F00005EBC406D6F83C0958B139461DF012FF6B
:102300000020C6F83C0905EBC404002384F84039DA
:10231000F8BD6FF01B00F6E7013303F00F039A429C
:10232000DAD16FF01B00F3E74C2C002037B50D46D7
:10233000144619469DF81C30E8B14268DAB13BB149
:10234000C3785A0617D49B0702D4882003B030BD47
:10235000069A0388009220462A46FFF7ABFB411CF1
:102360000BD0821D0BD0831CEFD010F1280F14BFAF
:1023700000207E20EAE78620E8E78720E6E70020C5
:10238000E4E7034648B3D0F8150028B3B3F80130AA
:10239000994224D0B1F5827F1FD06FF480728A18E1
:1023A000072A0DD94FF6FF72914211D1B3F5827F02
:1023B00015D04CF25E00834214BF0020012070470C
:1023C00001204CF25E02914204D1B3F5827FF3E723
:1023D0000020F6E70028F8D1704700207047012060
:1023E000FAE770B598B1057C0024AC4202D3002313
:1023F000184670BDD0F81130C4EB041633441E8863
:102400008E4202D11E7A9642F2D00134EDE70346A5
:10241000EEE700002DE9F04F87B083460D461646E3
:102420001F46109C01F0E6FD8046002800F08780E2
:10243000002C00F084809DF844302A46CDE900430A
:1024400059463346FFF772FF0390A0BB3B46324626
:10245000294658460094FFF75DFB214698F8020094
:10246000D8F80490FFF71AFD2146024648462DF0A1
:1024700008FA98F80330590705D53B4632462946F5
:10248000584605F03BFB98F803301A0713D54FF078
:10249000000A2C4B5344D3F84499B9F1000F0AD0E9
:1024A0004FF0000899F80030984508D30AF1040A63
:1024B000BAF1080FEDD1039807B0BDE8F08F4FEAED
:1024C00088030493D9F8013053F8280003785B455A
:1024D00032D032462946FFF784FF0028E2D0394641
:1024E00001F084FC02900028DCD0D9F80130049A75
:1024F0009B5829461878009432463B46FFF70AFB62
:10250000029B5B680593029B21469878FFF7C6FC07
:10251000059B0246214618462DF0B3F9029BDB7855
:102520005B0709D5D9F80130049A985829463B46EB
:102530003246007805F0E2FA08F10108B2E701231B
:102540000393B8E74C2C00202DE9F74F00250646F1
:102550008946934601930095264BEB18D3F84479AE
:1025600017B3002E43D03A7800239A4203F10104B6
:1025700003D84FEA840A06B313E0D7F8011051F8E4
:1025800023301978B1422346EFD10026F1E701202C
:1025900080B101994046FFF7F4FE58B198F8003039
:1025A00000930435082DD7D1009803B0BDE8F08F13
:1025B0005A4614E001340AF1040A3B78A342F0D9E8
:1025C000D7F80130BBF1030F53F80A80F0D1012294
:1025D00049464046FFF705FF0028D8D10222494668
:1025E0004046FFF7FEFE003018BF0120D0E734461A
:1025F000BFE700BF4C2C002037B51B21054619F062
:10260000EDF8037BFF2B044630D1037DB0F80F10AB
:10261000002B08BF0122B0F8113018BF02220020A1
:10262000FFF792FF28B9284603B0BDE8304018F004
:10263000E1BE207300222946104818F072FE0446BD
:10264000D0B10F4B1B68002BEDD10CF0A7F9014660
:102650000028E8D104230093019440F2525340F63D
:102660000F024FF0FF301EF0DFFADCE7284603B020
:10267000BDE83040FFF7A8BD03B030BDED26000037
:10268000C83A002030B589B004461B22002101A8B9
:102690002DF01BF901A9204603F058FA01A90546BF
:1026A0000246204612F0B2FCB8B9204618F002FFEC
:1026B000037813F0040F14BF05210321204618F0FE
:1026C000C3FF1B21204619F089F81B2201A92DF018
:1026D000D8F825B92046FFF78FFF09B030BD2A464C
:1026E00001A9204603F078FDF7E700002DE9F0414D
:1026F000CDB207461B21284619F070F8044629463A
:10270000384618F0F8FE94F80C80124E1DF0D4FBF9
:102710003946B0FBF6F6104832461DF029FE237DFF
:10272000B4F80F10002B0CBF01220222B4F81130B4
:102730004046FFF709FF20B92846BDE8F04118F0F0
:1027400059BE2073324629460448BDE8F0411DF0C9
:102750000FBE00BF7CF0C107C9210000711C000042
:102760002DE9F84F002481468A4627460E4BE31890
:10277000D3F844699EB196F800B00025AB450BD95B
:10278000D6F8012052F82580494652464046FFF7C8
:1027900028FE38B198F800700434082CE6D1384689
:1027A000BDE8F88F0135E9E74C2C002013B504464D
:1027B000B8B9144818F090FD044680B1124B1B685C
:1027C0006BB90CF0EBF8014648B90423009301946F
:1027D000402340F60F024FF0FF301EF025FA02B002
:1027E00010BD01212020FFF7BBFF0146204621B18B
:1027F00002B0BDE8104004F0F1BD02B0BDE81040E9
:1028000018F0F8BDAD270000C83A0020F0B50E4E14
:10281000054600234FF6FF709A19D2F8441981B18A
:102820000F780022974209D9D1F8014054F822408C
:1028300094F800C0AC4505D1B4F801000433082B6E
:10284000EAD1F0BD0132EDE74C2C002038B504464A
:102850000D46FFF7DBFF44B1B0F5827F05D14FF69F
:1028600057402B1A5842584138BD0020FCE7000061
:102870002DE9F84F0024824688462746104BE3187E
:10288000D3F844693EB196F800B000255D4505D304
:102890000434082CF2D13846BDE8F88FD6F8012070
:1028A00052F82590514642464846FFF79AFD10B12E
:1028B000027A424501D00135E8E74F46E8E700BF1C
:1028C0004C2C002038B51B2118F088FF0446007BF3
:1028D000FFF74EFC257DB4F80F10002D14BF022227
:1028E0000122FFF77EFD124B1B7A012B15D0227EB1
:1028F000A37D6AB1002B0CBF83238423A8B1012DD3
:102900000DD1027A12F0020F18BF0023184638BD0D
:10291000002B0CBF81238223F0E78123EEE7002DFB
:10292000F4D1027A12F0010FEEE7C323EEE700BF05
:10293000D80B002007B5014602220DF106002CF04D
:10294000A0FFBDF8060003B05DF804FB07B5042244
:1029500001460DEB02002CF094FF019803B05DF8E6
:1029600004FBF7B50191102116461F46054618F0E5
:1029700035FF0446284614F0CBFC9523032E236034
:102980009DF8203008BF0199A37316BF01A9082242
:10299000022227716671A01D2CF073FF2946099849
:1029A0001DF0C0FB03B0F0BDA1F5E0630B2B04D913
:1029B000A1F500635842584170470120704700005C
:1029C0002DE9F04F8DB08B4608931821BDF8583093
:1029D00007939246064618F001FF0446304618F069
:1029E00069FD237B0693637B05930378B4F80A8023
:1029F0008178E77B13F0030F81460CBF012300238E
:102A000042460598FFF712F90546B0B9BAF1000F32
:102A10000DD0059B0093CDF804A0069B3A462146B5
:102A20003046FFF79EFF28460DB0BDE8F08F3046D8
:102A300018F0E0FC6FF00705F5E741462089FFF745
:102A4000B3FF0546BBF1000F17D05946304618F0CA
:102A5000D8FD0990304618F037FD099B83420CD908
:102A60005946304618F0CDFD8346304618F02CFD0F
:102A7000ABEB0001304618F0C1FE012F11D0E37B13
:102A8000022B04D122884FF6F7739A4209D84046A8
:102A900005F072FC28B1089B1BB9237C43F00403AA
:102AA00023741DB1237C43F0080323740DF0CCFA8A
:102AB0000546002862D107F029F800285ED040467C
:102AC00005F075FC002859D0082229460AA82CF0E8
:102AD000FCFE022F3BD0032F43D0002F0CBF00255C
:102AE0006FF0270507F012F8002840D0002F3ED0E5
:102AF0004DB90AA80DF0D2FA28B102210AA823F094
:102B00006FFB002836D15D4B1B6873B90BF046FF95
:102B1000014650B90423009340F60F03CDF804801A
:102B20001A464FF0FF301EF07FF86FF02705BAF11C
:102B3000000F3FF478AF059B0093CDF804A0069BEF
:102B40003A4621463046FFF70CFF00256BE70AA9FD
:102B5000208818F04BF8002814BF6FF027050025D7
:102B6000C0E7082221460AA82CF08BFEBAE7002D08
:102B7000C9D1C2E7237C43F0010323744146059881
:102B8000FFF764FE68B1082200210AA82CF09DFE20
:102B9000022F1ED0032F52D03FBB237C43F00103F2
:102BA000237451463046FFF765FB05460028BED129
:102BB000304618F07FFC0378DB0602D4012022F0B7
:102BC000CBFE079B002B53D131462D481DF0AAFAAE
:102BD00029E70AA9208818F009F8054630B902212A
:102BE0000AA823F0FDFA0028D7D10025234BD3F8FB
:102BF00000B099F802300B2B27D199F800305A0712
:102C000023D199F80430012B1FD1BBF1000F12D151
:102C10000BF0C4FE014670B9CDF8088099F8033076
:102C200001930823009340F60F0240F657034FF03C
:102C3000FF301DF0F9FF002D7FF479AFB1E70822D6
:102C400021460AA82CF01DFEC9E7BBF1000F7FF456
:102C50006CAF0BF0A3FE00287FF467AF0423009352
:102C6000CDF8048040F65E0340F60F02594658E75F
:102C7000079A034831461DF07BFBD4E6C83A002092
:102C8000A91A01002DE9F74F1D469DF83030019338
:102C90000F46109B00931821934606469DF834A0DA
:102CA000BDF83890BDF83C8018F098FD1822044615
:102CB00000212CF00AFE032D0CBF082202225946E7
:102CC000E57320462CF0DDFD019B009A2373394605
:102CD0000023304684F80DA0A4F80890A4F80A80D8
:102CE0000C9303B0BDE8F04FFFF76ABE2DE9F04F3B
:102CF00087B01D469DF840300593CDE90101149B36
:102D00000493182103929DF844B0BDF848A0BDF883
:102D10004C909DF854809DF85860BDF85C7018F098
:102D20005DFD1822044600212CF0CFFD032D0CBFC1
:102D3000082202220399E57320462CF0A2FDDDE96A
:102D40000101059B049A2373334684F80DB0A4F85F
:102D500008A0A4F80A9084F81080109707B0BDE886
:102D6000F04FFFF72DBE00002DE9F041069D0E4605
:102D700090461F4618F02AFC094B00F8016B93F8A7
:102D80003C49621C83F83C29730702D541461DF07B
:102D9000BAF804704770023005B12C70BDE8F081BC
:102DA0004C2C0020004870478835002000487047B0
:102DB000D80B002002289DBF024B187000206FF036
:102DC00005007047D80B00202DE9F04F87B02A4C42
:102DD000BDF840709DF84450019383468846924662
:102DE0004FF6FD732A4639469DF84800267801F0D3
:102DF00001F9A14640B1426814883EB1022E09D0C3
:102E0000204607B0BDE8F08F0124F6E75C4528BFF7
:102E10005C46F5E7D9F804200AB90124F0E7BAF1D5
:102E2000030F1AD10822414604A82CF02AFD032DD5
:102E3000D9F8046003D0012D0CBF02250125019BA8
:102E40002A46394604A8B0474FF6FF739842E4D0AB
:102E5000844228BF0446A4B2D2E7414632460DF16F
:102E60000E002CF00EFD04A9BDF80E0017F0BEFEFA
:102E70000028DCD0D1E700BFD80B0020014B187A26
:102E8000704700BFD80B002001289DBF024B18726D
:102E900000206FF005007047D80B0020134B1B7803
:102EA0001BB391280ED890281AD28A281CD005D896
:102EB000A0F18103032B98BF812070478F2808BFA2
:102EC0007E207047C12806D8C02809D2922809D090
:102ED000932805D07047C22804D0C42804D0704776
:102EE000012070477F20704700207047D80B0020DA
:102EF00010F1170F12D009DC10F11F0F10D0094B81
:102F00001B7A012B0CBF0120C02004E010F10A0F36
:102F100002D00028F3D17047852070478720704782
:102F200081207047D80B00202DE9F041064658B9A2
:102F30000024FF25FFF736FF43681878A8428CBFAE
:102F40002046FF20BDE8F081FFF72CFF4368002BEF
:102F5000EED00024254610E096F80080FFF722FF0F
:102F60004368D3F8013053F825301B7843454FEAC6
:102F7000850709D01934E4B20135FFF713FF436820
:102F80001B78AB42E8D8D5E7FFF70CFF4368D3F8CE
:102F90000130DB59D3F81F00024B301A03FB004409
:102FA000E4B2C7E7B76DDBB6FF2838B5044601D1F8
:102FB000002038BDFFF7F6FE4368002BF8D000254F
:102FC00004E0182C09D9193CE4B20135FFF7EAFEF8
:102FD00043681B789D42F4D3EAE7FFF7E3FE4368BA
:102FE000D3F8013053F82530D3F81F00C4EBC404E4
:102FF0002044DEE74288C3889A4201D9438002E038
:1030000083889A42FAD370472DE9F34706460F4664
:1030100015462AB918F040F907463046FFF7EAFF8F
:103020002421384618F0DAFB002D18BF0646044666
:103030007389002B00F0B880B04203D018223146CB
:103040002CF01FFC96F8089071883088B9F1010FB8
:1030500024D18842B57996F804C0C2B2CBB215D259
:103060001544A5EB0C05ED1AEDB2002D00F09A8089
:1030700073894FF6FF72934201D0012B1AD10123BD
:10308000A3832383384602B0BDE8F0871D44AD1A00
:10309000A5EB0C05EDB24FF00009E6E70D1A002D87
:1030A000B8BF6D428842EDB294BF4FF000094FF0B7
:1030B0000109DAE74FF0060A0AFB03FA0023E3836B
:1030C0003A4B1A68554534BFA583A4F81CA098460E
:1030D00072B90BF063FC014650B9A38B0193042332
:1030E00000934FF40162E2234FF0FF301DF09CFD8E
:1030F000A38B012B88BFBAFBF3FAD8F80030A4F8F1
:1031000018A073B90BF04AFC014650B9238B019308
:10311000042300934FF40162EF234FF0FF301DF0C2
:1031200083FDA38B012B88BF95FBF3F5D8F8003006
:1031300065837BB90BF032FC014658B9B4F91A30FB
:103140000193042300934FF40162FB234FF0FF30FF
:103150001DF06AFDB9F1000F02D0638B5B426383FF
:103160000BF08EFE4FF470535843114BB0FBF3F04D
:1031700073891844D8F800302062002B82D10BF0FC
:103180000DFC014600287FF47DAF236A01930423E0
:1031900000934FF4016240F20B134FF0FF301DF02B
:1031A00043FD6FE7A5836DE71F466BE7C83A002034
:1031B000A086010000221146FFF726BFF8B505469C
:1031C000FFF7F0FD4368002B00F093802846FFF7DF
:1031D000EBFE0646002800F08C802421407918F090
:1031E000FDFA04460BF04CFE62894FF6FF739A42DB
:1031F00024D0012A22D0216A4FF470535843424B05
:10320000B0FBF3F04B1C984237D21318278B4FF0CA
:10321000060CB7FBFCFCA3EB0C03994234BF5B1A12
:10322000CB1A012B12D9884234BF081A401A608188
:103230000020E08301227179FFF7E6FEA08B0028D1
:1032400058D001281CD16388238032E00620E18B0E
:10325000B7FBF0F300FB13739BB29942A2EB0C0295
:1032600092B238BF091862813EBFE18302F1FF329A
:103270006281E28BD31AE383E0E70123A383DDE7D6
:10328000B4F91A202388E1881344A288934208DB0A
:103290008B42D9DD5B1A002BB8BF5B42013A134465
:1032A000D2E7D21A002A01F10101B8BF52428A1AAC
:1032B0002280E3683BB1012888BF6289307898BFDB
:1032C000002221469847A38B012B13D9238B0F484B
:1032D0004FF47A5143F6FF3201FB03234FF470524F
:1032E0002946B3FBF2F21DF043F8A38B0BB1013B6F
:1032F000A383F8BD317860691CF014FF0023B3711B
:10330000707918F077F8F0E7A0860100BD31000071
:103310002DE9F84F804689469246FFF743FD436802
:10332000FF26002B3ED13046BDE8F88FFFF73AFD6F
:103330004368D3F8013053F825301B7843454FEAF2
:10334000850B24D1FFF72EFD4368D3F8013053F8E5
:103350002530D3F81F400027FFF724FD4368D3F83A
:10336000013053F80B309B7F9F4210D223784345A6
:1033700015D1B4F801304B4511D1B4F803305345A1
:103380000DD1A3795BB12046FFF7CEFD064601358E
:10339000FFF708FD43681B789D42C7D3C3E7073496
:1033A0000137D9E70025F3E770B50546FFF7FAFCCA
:1033B000436813B90025284670BD2846FFF7F4FD81
:1033C00004460028F6D08379002BF3D0002229464A
:1033D00007481DF095F966792421304618F0FEF96A
:1033E000057C304618F006F80023A371E3E700BF20
:1033F000BD3100002DE9F04F89B089460793059053
:103400009246FFF7CFFC4368002B40F0A280FF27D5
:10341000F8B209B0BDE8F08FFFF7C4FCAB0006932B
:103420004368D3F8013053F8253093F800B0059B7A
:103430009B451ED1FFF7B6FC4368D3F8013053F823
:103440002530D3F81F40E4B9444B1B688BB90BF00F
:10345000A5FA014668B9059B01930C230093CDE9B9
:10346000029A40F29F234FF401624FF0FF301DF0AB
:10347000DBFB0135FFF796FC43681B78AB42CBD8EA
:10348000C6E7524649460598FFF742FFFF288046A7
:1034900042D0FFF789FF4046FFF786FD0446002E25
:1034A000E7D0079B63714FF0010384F800B0A4F8E4
:1034B0000190A4F803A0A3712421079818F08EF9B5
:1034C000828B1FFA88F752B3012A2FD04146244835
:1034D0001CF028FE28E0FFF765FC4268069BD2F846
:1034E0000120D258927F08F10108424503D90734E0
:1034F000A279002AEFD1FFF755FC4268069BD2F86B
:103500000120D258927F424521D984F800B020464C
:10351000FFF70AFD8046C2E74FF00008E8E7022205
:1035200041460F481CF024FF0126A2E744894FF6CC
:10353000FF718C4218BF028B43F6FF314FF47A5073
:1035400000FB02124FF47051B2FBF1F2E8E70026E3
:103550008FE70126FF2700258CE700BFC83A00202F
:10356000BD3100002DE9F04788B08146ADF81E104E
:1035700018F02CF8082303700446FFF713FC0378B7
:10358000DFF8B0A05A1C027063700A23A370284BA6
:103590001F7803349846052F36D801223AF81730A1
:1035A0001146C42000F026FD064618B301214CF256
:1035B0005D20FFF7F9F92146F0B1484618F021F8EF
:1035C000C0F5CA60013085B27168B078FEF766FC5C
:1035D0000330854216D3318820461CF094FCB37822
:1035E00000F8013B7268B178FEF704FD0023044641
:1035F00088F800300137CEE7484618F002F8C0F1ED
:103600005200E0E788F8007001230022CDE9033280
:103610004CF25D21C423CDE9013100930DF11E026E
:10362000022321464846FFF72DFB08B0BDE8F0878E
:10363000E50B002072160300064B1B7802462BB1E7
:10364000032B03D04FF6FC71FFF78CBF104617F029
:10365000D1BE00BFE60B002038B5054620B9214891
:10366000BDE8384017F038BE1F4C227892B3032AC9
:1036700030D0012208231146C42000F0BBFC43686F
:1036800019884FF6FF739942284620D1FFF7D4FFDF
:103690000022114613481DF033F82378022B20D165
:1036A00001231A461946C42000F0A4FCB0B14368B7
:1036B00018880F3880B21CF0E9FB0F3080B242222C
:1036C000424300210748BDE838401CF051BEFFF7D7
:1036D00049FFDDE7284617F08DFED9E74FF49670D5
:1036E000E7E738BD59360000E60B0020F7B50E4677
:1036F0000446214D40B92A7822B901231F482B7076
:1037000017F00FFE03B0F0BDFFF74CFBD0F89C3074
:103710005BB302AF3421204607F8046D18F05EF861
:10372000342200212CF0D1F83421204618F056F82C
:10373000652303703421204618F050F800264660B7
:103740003421204618F04AF834218660204618F0CB
:1037500045F83421C760204618F040F80661FFF7AD
:1037600021FBD0F89C3020469847002320462B7040
:1037700017F040FEC6E700BFE70B0020ED36000063
:1037800010B510B90F4B187010BD0128FCD10E4BAD
:1037900019780129F8D10B4C2278012A09D80B4855
:1037A00017F09AFD0A4817F097FD2378013323702C
:1037B000EAE7032200201A702070BDE81040FFF7EE
:1037C00095BF00BFE40B0020E60B00201938000075
:1037D00039360000002208B511460D481CF090FF54
:1037E0000C4B1B78022B12D101221146C42000F091
:1037F00001FC48B143681B88054842225A43002116
:10380000BDE808401CF0B4BD4FF49673F4E708BD62
:1038100019380000E60B0020F0B5044689B020B945
:10382000204817F059FD09B0F0BD1F4B1B78ABB312
:10383000032B33D014F070FC08AE002726F8020DDD
:10384000204617F0C3FE07700546FFF7ABFA037872
:103850005A1C027008216B70AF70E81C1CF053FBFF
:1038600009211CF050FB0A211CF04DFB01254CF2F4
:103870005D23CDE90235C4230146CDE9003332464C
:10388000049702232046FFF7FDF940F2BC72294657
:1038900006481CF06DFDFFF79DFFC4E7204617F0BA
:1038A000A9FDF8E719380000E60B00208137000079
:1038B0002DE9F34100220546FF2134481CF020FF8A
:1038C0001DF008FC20B1324E33780BB1032B05D12B
:1038D000284602B0BDE8F04117F08CBD4FF000085B
:1038E000284617F0F1FD02283CD9284617F0E2FDE2
:1038F0000446002836D08078FFF7D0FAA07010BBBD
:10390000211DE078FEF7CAFA0430C7B2284617F046
:10391000DBFD284617F0D8FD874223D839462846D4
:1039200017F092FEA278002ADAD12388082B0CD156
:1039300001920434012200941146C420FEF76AFD6E
:103940004FF00108CCE70327E3E7092BF0D00A2B5F
:10395000C6D101920434012200941146C420FEF71E
:1039600059FDBDE7B8F1000FB2D00A4B0021197024
:103970003378012BACD1022340F2DE32064833709B
:103980001CF0F6FCFFF726FFA2E700BF813700001E
:10399000E60B0020E40B00205936000038B5054640
:1039A00017F088FD90F84B30044653B901462322A6
:1039B00010482BF066FF282204F123010E482BF05B
:1039C00060FF0C4CD4F84B0070B194F84F101CF011
:1039D000A9FB002384F84F3084F84B3084F84C3036
:1039E00084F84D3084F84E302846BDE8384017F052
:1039F00001BD00BF542B0020772B002070B5094C6F
:103A0000D4F84B3005460E464BB98F2106481FF0BF
:103A100089FE18B9C4F84B6084F84F5070BD6FF040
:103A20000300FBE7542B00209D3900002DE9F04FE7
:103A30001B218BB0834617F0D1FE044690F81390FB
:103A4000584617F037FDB9F1150F827814BF1B23C4
:103A500014239A4288BF83708246FFF7A3F9407807
:103A600017F0B4FD237E002B237D0CBF002204221F
:103A7000002B14BF0023082342F010020546134315
:103A800005F8013B237E2BB12846B4F819101CF031
:103A90003AFA0546637D2B70B9F1150F14BF0D235B
:103AA00016236B70207BFEF763FB237DB4F80F10A9
:103AB000002B14BF02220122FEF793FC002743686B
:103AC000AF7041880246EE1C00296CD10AA94FF65E
:103AD000FD73304621F8023D02222BF0D2FE212355
:103AE000B9F1150F6B714FF0010312BFAE1DAB7131
:103AF000EE1DAB70FFF756F9002340780493B4F83D
:103B00000F300393B4F811300293237B0193E37ACF
:103B10000093621C02233146FFF7B4F8FFF742F925
:103B200080F801B00BB0BDE8F08F1888BAF800C07B
:103B300081B28C4535D8000433D4B9F1150F19D1B1
:103B400094F818C001F48040BCF1000F10D088B97F
:103B500001375188F8B20139814203D99AF802C07D
:103B6000C445E2D881428CBF00210121A970C1E780
:103B70000028EDD13046CDE906321CF0C4F9069B91
:103B8000079A99780170B9F1150F08BFD97808F133
:103B9000010809BF01F00301461C4170861C5FFA51
:103BA00088F80833D4E7B846D3E72DE9F0478046D4
:103BB0000E46914617F074FB0546002851D04A4640
:103BC00031884046FDF7B8FFFFF7ECF8D0F89C309D
:103BD000002B41D03421284617F000FE71680446BE
:103BE000B078FEF75BF9B378482B074603D027D8A7
:103BF000413B022B28D83946284617F0ADFC34212A
:103C00008246284617F0EAFD04463A4649465046A1
:103C10002BF037FE2773C4F810A00023237098F808
:103C20000C306370B378A370B8F80F3023813388F9
:103C30006381FFF7B7F8D0F89C30284698470BE02F
:103C40004A2BD8D0F12BD6D03A46494604F10C0085
:103C50002BF017FE002CE0D12846BDE8F04717F006
:103C6000C9BBBDE8F087000010B507490446FFF75F
:103C7000C5FE043006D1214600220448BDE81040AC
:103C80001CF076BB10BD00BF0F3E0000693C000079
:103C900070B50C46272C054611461E4623D050D839
:103CA0001A2C3FD029D80D2C00F09A8014D80A2C59
:103CB00038D006D8082C00F08980092C76D0284608
:103CC00070BD0B2C00F086800C2CF8D12846052204
:103CD0002BF0D7FD0535F2E7102C77D009D80E2C44
:103CE00029D00F2CEBD1284608222BF0CAFD08352D
:103CF000E5E7182C6AD0192CE0E7202C66D00AD80A
:103D00001D2C6DD003D81B2C64D01C2CDDE71E2C81
:103D100011D01F2CE6E7232C5CD009D8212C45D0EC
:103D2000222CCCD1284603222BF0ABFD0335C6E76D
:103D3000252C55D0CAD9284607222BF0A2FD0735DD
:103D4000BDE7392C46D018D82D2C49D00AD82A2CBA
:103D5000E8D003D8282C39D0292CAFE72B2C39D028
:103D60002C2CB2E7302C31D003D82E2CE3D02F2CC2
:103D7000B8E7312C1AD0382CA0E7E22C11D8E02C6F
:103D800028D2432C03D8412C05D23A2CAAE7482C40
:103D900001D04A2C93D1284632462BF072FD35448F
:103DA0008DE7EA2C16D007D8E82C88D328460222C3
:103DB0002BF067FD023582E7F02C94D0F12C7FF4D4
:103DC0007EAF10222BF05DFD103578E70B7805F8FB
:103DD000013B74E7284604222BF053FD04356EE7BF
:103DE000284606222BF04DFD063568E710B54368DE
:103DF00000220BB9184610BD1C888C42FAD04488AA
:103E00000132944203F10803F3D80023F2E72DE9CD
:103E1000F04F1B218FB0074617F0E0FC437B0546AF
:103E2000C3F34013007B0893FEF7A2F92B7DB5F88E
:103E30000F10002B0CBF01220222FEF7D2FA0990CC
:103E4000FEF7B0FF407817F0C1FB2B7E002B2B7DD7
:103E500014BF04220022002B0CBF0823002342F0D1
:103E60001002134300F8013B2B7E1BB1B5F819106B
:103E70001CF049F86B7D037001234370841C3846A5
:103E800017F018FB8246384617F01EFB43080A93CA
:103E90004FF000080A9B5FFA88F1994252D2022241
:103EA0000AEB41010DF136002BF0EBFCBDF83610AA
:103EB0000998FFF79BFFB5F80F100646B5F81100FB
:103EC000FEF772FD08B3FEF76DFF2146407817F04C
:103ED00098FBC0F5CA6909F10109FEB9BDF83610B1
:103EE0004FF6FD73994262D10DF136010222204650
:103EF0002BF0C7FC2123A670E3700121201D1CF0CC
:103F000002F8044608F10108C4E7FEF74BFF21461A
:103F1000407817F076FBC0F15209DEE7716800299E
:103F200045D0F37813F0400B41D1DA0728D49B0732
:103F30003FD5FEF7A3FF01280CBF7E268F26B9F1DF
:103F4000020F3AD8FEF72EFF089A40780023CDE9F9
:103F50000432CDE90633B5F80F300393B5F81130CC
:103F600002932B7B0193EB7A00936A1C0223214678
:103F7000FEF7BCFEFEF716FF47700FB0BDE8F08FEE
:103F8000B078FDF78BFF011D894514D30B90318864
:103F900020461BF0B8FF80F800B0B2780B9B42704F
:103FA0009BB27268B1780230FFF772FEA9E78626ED
:103FB000C5E70126C3E78926C1E72046BDF83610CC
:103FC0001BF0A1FF044604F8016B9BE710B51B2111
:103FD000044617F003FCB0F80F2040F605339A4270
:103FE000204603D1BDE81040FFF73EBEBDE81040BB
:103FF000FFF70DBF70B50D4616461C46FEF7B8F824
:1040000029463246FEF7EDF92146BDE87040FFF73C
:10401000EDBE2DE9F04F1B218FB0814617F0DEFB7E
:104020000446007BFEF7A4F8237DB4F80F10002BA4
:104030000CBF01220222FEF7D4F9E37C0D90052B80
:1040400077D0FEF7AFFE407817F0C0FA237E002B42
:10405000237D14BF04220022002B0CBF0823002361
:1040600042F01002134300F8013B237E1BB1B4F869
:1040700019101BF048FF637D037004234370851CF7
:10408000484617F017FA0746484617F01DFA00236E
:104090000B9301230A9009939DF82C300C930A9BF3
:1040A000032B54D9002F56D0F91CB878FDF7F6FE33
:1040B00003305FFA80FB3E460A9B9B4500F2F78087
:1040C000002E00F0F480B6F800A00D985146FFF7DE
:1040D0008DFE8046002840D14FF6FD739A4514BFEF
:1040E0004FF0860A4FF0880AE37C052B1ED015B3EB
:1040F000B4F80F10B4F81100FEF756FC002868D091
:10410000FEF750FE2946407817F07BFAC0F5CA60EA
:104110000130022894BF00200120B0B128460222BD
:1041200000F801AB31462BF0ACFB033500230993BB
:1041300002E00025A4E709950A9BA3EB0B030A9371
:104140000B9B01335F440B93A6E70990F4E700262D
:104150004FF0FF0BB0E73E46FAE74368002B32D042
:104160008278B3789A4231D1237DB4F80F20217B35
:10417000002B06F103030C934FF00103019306F1AA
:10418000030300930CBF01230223FEF7CFF88246FE
:104190000028A9D1E37C032BCED0237DB4F80F10E7
:1041A000207B0022002BB8F8003001920C9A00927C
:1041B0000CBF01220222FEF72DF90C9A414620463F
:1041C000FFF7F3FCB8E74FF0860A8DE74FF08D0A52
:1041D0008AE7FEF7E7FD2946407817F012FAC0F1AA
:1041E000520096E700264FF0FF0B7BE03E46FAE7D1
:1041F000E37C052B55D0099B2BB115B30C9B03B366
:10420000002305F8013BB9F1000F43D0FEF7CAFDCA
:1042100000234078CDE90633627BC2F34012CDE93A
:104220000432B4F80F300393B4F811300293237BB7
:104230000193E37A0093621C02232946FEF756FDA0
:1042400028E0FEF7AFFD407817F0C0F9237D002B82
:104250000CBF182310230370637D43700B238370FE
:10426000E37CC370802303710546FEF79BFD0026A7
:1042700040780496B4F80F300393B4F811300293E9
:10428000237B0193E37A0093621C0223691DFEF7EE
:10429000F9FCB146FEF786FD80F801900FB0BDE84D
:1042A000F08F48460FB0BDE8F04F17F0A3B8E37C9D
:1042B000032B9DD1099B002B9AD0484617F0FAF8A2
:1042C0000746484617F000F98046B8F1030F89D930
:1042D000002F8BD0F91CB878FDF7E0FD03305FFAB2
:1042E00080FB3E46C34583D8002E81D036F8031BA1
:1042F0000D98FFF77BFD227DB4F80F108246002A4F
:104300004FF00002207BBAF80030CDE900620CBF0C
:1043100001220222FEF77EF83246514620465F44D3
:10432000A8EB0B08FFF741FCCFE700002DE9F04FA9
:104330001B2189B0804617F051FA0546FEF732FD81
:10434000407817F043F92B7E002B14BF1C23182351
:1043500000F8013B2B7E1BB1B5F819101BF0D3FD03
:104360006B7D037009234370841C287BFDF700FFDD
:104370002B7D0690002B0CBF01220222B5F80F10F6
:10438000FEF72FF88346404617F09EF8022840F2C9
:10439000C080404617F08EF8002800F0BA8090F8F0
:1043A00000A0B0F801900321404617F04DF9B5F890
:1043B0000F10B5F81100FEF7F7FA00283CD0FEF711
:1043C000F1FC2146407817F01CF9C0F5CA600130B5
:1043D00086B2032E40F29D8049465846FFF706FDFF
:1043E0000746002800F08A804368002B00F0868092
:1043F000C3785B0740F1898006989BF80820BBF8DA
:10440000001000784B4603F069FA079000287ED030
:10441000092E7ED90022227084F801A0A01C4946F2
:104420001BF071FD079B0446BAF1000F0DD0BAF1E5
:10443000010FA8D1198A3DE0FEF7B4FC214640786F
:1044400017F0DFF8C0F15200C2E7BA7800F8012B8C
:104450005A8A198A07931BF062FD0446B878FDF763
:1044600075FE00288FD0BA78079B203A0B2A8AD88D
:1044700001A151F822F000BFA9440000B14400009E
:10448000CD440000DD44000087430000ED440000FF
:104490008743000087430000A9440000BD4400009A
:1044A000CD440000DD4400001B7D04F8013B6AE7B9
:1044B000998A20461BF027FD044664E72046022225
:1044C00003F114012BF0DDF902345CE720460322EE
:1044D00003F114012BF0D5F9033454E720460422EC
:1044E00003F114012BF0CDF904344CE720460622E9
:1044F00003F114012BF0C5F9063444E78623237039
:1045000084F801A04946A01CD4E78C23F7E78B234D
:10451000F5E7FEF747FC002340780493B5F80F3029
:104520000393B5F8113002932B7B0193EB7A009340
:104530006A1C02232146FEF7A5FBFEF733FC80F838
:10454000018009B0BDE8F08F2DE9F04F1B218DB03F
:10455000804617F043F90446007BFDF709FE237DF2
:10456000B4F80F10002B0CBF01220222FDF739FF17
:104570000690FEF717FC407817F028F8237E002BF2
:1045800014BF1C23182300F8013B237E1BB1B4F891
:1045900019101BF0B8FC637D037000270723DFF8B8
:1045A000E4B14370851CB946404616F08DFF0428DF
:1045B00044D800264FF0FF0A404616F085FF82459A
:1045C00000F2B9805146404617F03EF8002E00F048
:1045D000B280B6F80130069807931946FFF706FC3B
:1045E000327809F10109002A5AD1079B002842D1EB
:1045F0004FF6FD77BB4214BF86278C27B4F80F1007
:10460000B4F81100FEF7D0F9002800F08B80FEF717
:10461000C9FB2946407816F0F4FFC0F5CA600130A6
:1046200080B2032808D92F7033786B70A81CB6F8B5
:1046300001101BF068FC05460127B5E7404616F05F
:1046400039FF06460028B4D00378012B0DD0C0787E
:10465000FDF77CFD60B1F078FDF76EFD08305FFA84
:1046600080FA404616F030FFA6E74FF0050AA3E7B0
:104670004FF0080AA0E74368002B4BD08378412B0A
:1046800048D003F0FD02482A44D0C278520743D5EF
:10469000F2789A4242D1F38813B1B2889A423FD855
:1046A000237B8DF82430227CE37B43EA0223ADF8A0
:1046B0002A30E37A8DF82530B4F80130ADF8263091
:1046C000637CA27C43EA0223ADF82830237D002BD3
:1046D0000CBF0123022309A930468DF82C3003F0CA
:1046E000C7FB00283FF460AFDBF8002082B90790D9
:1046F0000AF054F9079B014650B901930423009333
:1047000040F6120240F2D4434FF0FF301CF08CFA16
:10471000012773E7862771E78C276FE78D276DE701
:1047200087276BE7FEF73EFB2946407816F069FFC6
:10473000C0F1520074E7B9F1000F1DD1802305F8D4
:10474000013BFEF72FFB002340780493B4F80F30B1
:104750000393B4F811300293237B0193E37A00931F
:10476000621C02232946FEF78DFAFEF71BFB80F838
:1047700001800DB0BDE8F08F002FE2D105F8017B7C
:10478000DFE700BFC83A00202DE9F04F8A46C38812
:104790000279418889B005464078FFF72BFC90F8F4
:1047A0000390504616F012FF09F02006C9F3401995
:1047B0004FEA890343F0080304460370002E69D0D2
:1047C0006878FDF7D5FC2A796988FDF70AFEB0F80C
:1047D0000910601C1BF097FB0446FEF7E3FA037810
:1047E0005A1C027023700A23637002342E4640F272
:1047F000516BF388327971887078FFF7FBFB718811
:104800000746B08DFEF7D0F8214600284CD0504620
:1048100016F0F7FEABEB00001FFA80F87968B87865
:10482000FDF73CFBC21C904507901ED339882046FB
:104830001BF069FBBA7800F8012B079B7A68B978FE
:104840009BB2FFF725FA39460446304603F01DF9BE
:10485000337A23F0160343F0200333724946284687
:1048600003F08FF806460028C3D1124B04936B88DF
:104870000393AB8D02936B78019395F82A300093E4
:1048800005F12802002321465046FEF7FBF909B046
:10489000BDE8F08FFEF786FA03785A1C0270637049
:1048A0000A23A3700334A1E7504616F0AAFEC0F114
:1048B0005200B1E7AD7F00002DE9F0438FB0002337
:1048C0000F461B210693044616F088FF1B22014663
:1048D00007A82AF0D6FF204616F0F6FD022807D0DA
:1048E000852207A9204601F0A8FB0FB0BDE8F083A0
:1048F000204616F0DFFD9DF8343006784578002B11
:1049000060D0FEF74FFAD0F8F030002B46D14FF0D0
:104910000008512D204628BF512516F057FE9DF85E
:104920003430002B9DF8303014BF04220022002BBD
:104930000CBF0823002342F01002134300F8013B90
:104940009DF834301BB1BDF835101BF0DCFA9DF832
:1049500031300370002F14BF12231423437000233F
:104960008370C11C1A46DFB2B84500F2888001236B
:10497000837000230493BDF82B300393BDF82D30D2
:1049800002939DF8283001939DF8273000930DF194
:104990001D0202232046FEF775F9A6E7FEF702FA8C
:1049A0000DF1180ECDE9007E9DF830C0D0F8F080F2
:1049B000BDF83530BDF82B209DF828106046C04763
:1049C0008046A6E79DF828009DF83080BDF82B9022
:1049D000FDF7CEFB00289AD0B8F1000F0CBF0122E2
:1049E00002224946FDF7FDFC002890D0B8F1000FE7
:1049F0002CD1037A03F00103002B88D09DF83030CE
:104A0000BDF82B109DF82800002B0CBF01220222BC
:104A100001F096FA034600283FF479AFFF2098474B
:104A200000283FF474AFCFB1FEF7BCF9D0F858328C
:104A300093F80080FEF7B6F9D0F858325B68069319
:104A4000FEF7B0F90023C0F8583262E7B8F1010F61
:104A50007FF45DAF037AC3F34003CDE7FEF7A2F91D
:104A6000D0F8583293F80880FEF79CF9D0F8583205
:104A7000DB680693FEF796F9C0F8587249E7069F7F
:104A8000FF5CBE4206D80132D2B2954201F8017BEA
:104A90007FF66FAF013366E737B51B21054616F089
:104AA0009DFEC37C0446162B64D8DFE803F00C128D
:104AB0003A3A293A422946663E4E4A666363635C47
:104AC0006661664A66002846FFF780FA012003B057
:104AD00030BD324BD3F8F43BB3B9B4F80F300A2BE6
:104AE00004D1284604F04CFF0028EFD11B212846B2
:104AF00016F074FEB0F811204CF25D239A4208D0F3
:104B0000284616F077FCE1E7284698470028E4D0CD
:104B1000DCE7B0F80F40012CF2D12846FEF7C8FEC2
:104B2000D4E72846FFF775FAD0E7284603F090FA55
:104B3000CCE72846FFF708FDC8E72846FFF7F6FB55
:104B4000C4E72846FEF772FFC0E71B21284616F08F
:104B500045FEB0F80F30192BD2D1284601F02FFABC
:104B60000028B3D1CCE701212846FFF7A5FEADE729
:104B70000021F9E70A4B1B680BB10020A7E709F0F9
:104B80000DFF0028F9D1009001464FF4E46340F690
:104B900012024FF0FF301CF047F8EEE74C2C0020DB
:104BA000C83A002070B5FF288EB0054607D1FEF741
:104BB000F9F8204BC0F8583201200EB070BD1B210F
:104BC00016F00CFE1B22014607A82AF05AFE9DF89B
:104BD0003040012C2CD19DF82F30032B28D89DF884
:104BE000336028460EBB16F0F1FC182303709DF8C5
:104BF000313043700B2383709DF82F30C3700671E2
:104C0000BDF82B300393BDF82D3002939DF828306A
:104C100001939DF827300093411D049602230DF166
:104C20001D022846FEF72EF8C6E716F0E3FBC3E7A1
:104C30000020C2E73000002007B5054B0093002399
:104C40001A460221042000F0F9FF03B05DF804FBCE
:104C5000A54B000010B5044616F046FE2046BDE800
:104C6000104016F0C7BB000038B50621044616F008
:104C7000B5FD037923B12046BDE8384016F0BABB34
:104C80001821204616F0AAFD0546204616F012FC13
:104C90001822014628462AF0F4FD20460249BDE8C4
:104CA00038401DF0EFBC00BF554C000010B510237C
:104CB00001224FF4A0610446FFF79CF901224368EA
:104CC0004FF4A0612046BDE810400BF0A5BE0000E7
:104CD00010292DE9F74304460D46164640F085801D
:104CE00016F0DAFA2B4601220746B4F80F10207BA3
:104CF000FFF780F918218046384616F02DFC05464E
:104D00001822002105F10D092AF0DFFD4946B4F80B
:104D1000010015F06BFF10F11C0F19D10DF1070305
:104D20000122B4F80110304616F05AF80822314634
:104D300048462AF0A6FD314698F80200D8F80490BB
:104D4000FDF7ACF83146024648462AF08BFD0DE0EF
:104D50000028EBD1314698F80200FDF79FF8314664
:104D6000024648462AF07EFD0028E4D0207BFFF76B
:104D70009DFF064600283BD14EF201030122B4F804
:104D80000F10207BFFF736F94368E27A1A70B4F807
:104D90000F10207B4EF202030122FFF72BF943682C
:104DA000B4F801201A8028461CF044F9237B2B72AA
:104DB000E37A6B75B4F80F306B8103232B731CF00F
:104DC00097F90821E882384616F008FD08220546C2
:104DD00031462AF07AFDB4F80F306B80FF232B7038
:104DE000064B6B6038460BF0CBF903B0BDE8F0839F
:104DF000002FFAD0384616F0FDFAF6E7694C0000AD
:104E00000020704770B51D2188B0054616F0E6FCFD
:104E10001B220146064601A82AF033FDFDF7C2FF1A
:104E2000D0F89C300BB33421284616F0D7FC022270
:104E3000044606F11B0108302AF02EFD06232370DC
:104E40009DF81030637000236360FDF7ABFFD0F86E
:104E50009C30284698476068FEF74AF801A9024648
:104E6000284601F031F908B070BD6FF01E00F3E77D
:104E700038B50122002303210546FFF7BBF8B8B17E
:104E80004368ABB11C8844B1013C1C8029464222D6
:104E90000848BDE838401BF06BBA2846FDF768F9B2
:104EA000D0F8070020B12146BDE838401BF03AB9E0
:104EB00038BD00BF714E000007B5054B0093054A91
:104EC000054B0121032000F0B9FE03B05DF804FB9F
:104ED000A1510000014E00004952000007B5054BEA
:104EE000009300231A460221032000F0A7FE03B01E
:104EF0005DF804FBC151000070B500230E4601228D
:104F000003210546FFF776F8F8B14368EBB11C883A
:104F10001E8043681B880BB9002070BD002CFBD19C
:104F2000224629460A481BF0EBFB42222946084844
:104F30001BF01EFA2846FDF71BF9D0F807000028E1
:104F4000EAD001211BF0EEF8E6E78620E5E700BF96
:104F5000714E000013B510B9002002B010BD00233F
:104F600001220321FFF746F828B143681888003072
:104F700018BF0120F1E70A4B1B68002BECD109F0A8
:104F80000DFD04460028E7D1009001464FF4C073A0
:104F90004FF0FF3040F264621BF046FE2046DCE733
:104FA000C83A002070B51B2190B0044616F016FCDC
:104FB0001B22014609A82AF064FC9DF83730012B1A
:104FC00043D005D3402B00F08C80002010B070BD82
:104FD0009DF838508DBB204616F076FA012804D88B
:104FE0006C4B1B68B3B180250DE0204616F062FAC9
:104FF0000222014608A82AF044FCBDF820109DF8C2
:105000003000FFF779FF2A4609A9204601F05CF835
:105010000120DBE709F0C2FC0028E4D1204616F0AD
:1050200053FA04230190009340F26462BD232946A1
:105030004FF0FF301BF0F8FDD5E7574BD3F8F83BA6
:10504000002BE5D020469847E2E7524B1B685BB93E
:1050500009F0A4FC014638B90090D22340F2646202
:105060004FF0FF301BF0E0FD9DF83000FFF772FFBE
:10507000024688B30122002303219DF83000FEF789
:10508000B9FF0646204616F0A1FA192303709DF8D1
:1050900039304370002585707368033019881AF021
:1050A00032FF9DF83130C3F34013CDE9045303239D
:1050B0000393BDF8353002939DF8303001939DF88D
:1050C0002F3000930146CDE9065502230DF125024C
:1050D0002046FDF70BFE9BE709A9204601F035F8B5
:1050E00096E7204616F0F0F901281BD9204616F065
:1050F000E1F90222014608A82AF0C3FB1D2120463F
:1051000016F06CFB09A905461B222AF0C5FB9DF889
:105110002030EB769DF821302B7721461F481BF07D
:1051200001F875E71B4B1B688BB909F037FC054686
:1051300068B9204616F0C8F904230190009340F2A4
:105140006462F12329464FF0FF301BF06DFD2046CD
:1051500016F03CFA182303709DF8393043700B2386
:1051600083704023C3708023037100220323CDE9A1
:105170000332BDF8353002939DF8303001939DF82D
:105180002F300093411D02230DF125022046FDF72B
:1051900079FD3DE7C83A00204C2C0020054E000068
:1051A000FF2808B503D0BDE80840FFF7FBBEFDF7B8
:1051B000F9FD024BC0F85832012008BD5C00002008
:1051C000FF2808B503D0BDE80840FFF7EBBEFDF7A8
:1051D000E9FD024BC0F85832012008BD4C00002008
:1051E00037B50023012203210546FEF703FF0446DD
:1051F00098B10022294612481BF082FA6368002405
:105200001C802846FCF7B4FFD0F80700A8B121465F
:1052100003B0BDE830401AF085BF0A4B1B6863B984
:1052200009F0BCFB014640B9009040F2A71340F2E0
:1052300064624FF0FF301BF0F7FC03B030BD00BFDD
:10524000714E0000C83A002037B5044602A800237A
:105250000D4620F8023D114602222AF012FB2DB91C
:10526000BDF80610204619B1FFF746FE03B030BD69
:10527000FFF7B6FFFAE7F0B585B00C4617460546CE
:1052800016F00AF823888DF80F303421064616F000
:10529000A5FA072303709DF80F300372457004468A
:1052A000FDF780FDD0F89C30C3B900240DF10F0349
:1052B000009301222346082101942846FDF7AAF80D
:1052C00001231A4608212846FEF794FE80B90446B9
:1052D000304616F08FF8204605B0F0BDFDF762FDB0
:1052E000D0F89C30304698476468002CDDD0EFE75A
:1052F00043681A88BA4288BF1F80E9E730B585B095
:1053000004AB002423F8024DCDE9003401231A46F2
:1053100005460821FDF77EF84EF6FF7301220821AD
:105320002846FEF767FE436822460821D879FDF734
:10533000EFFFFF2801D0FEF737F805B030BD08B504
:105340004FF6FD73984208D11046FDF7F3FA032893
:105350004FF0FF3098BF002008BD0020FCE70000A0
:1053600007B5054B0093054A00230221082000F0F1
:1053700065FC03B05DF804FB195A00003F530000C0
:1053800008B501224EF6FF730821FEF733FE00B187
:10539000406808BD1FB500238DF80F30FFF7F0FF00
:1053A000837853B1437843B90DF10F02C07900926D
:1053B000019301220621FDF72DF805B05DF804FBED
:1053C0002DE9F843074608460D46FFF7D9FF0F239E
:1053D0008146012208212846FEF70CFE10B9012063
:1053E000BDE8F883436838461C7816F06DF801284C
:1053F00023D80026B04618F0010F05D0F3074CBFA4
:1054000044F0010404F0FE0499F80830032BE6D8B8
:105410002846FCF7ADFE01220621FCF7E2FF00283A
:10542000DDD00021FEF7E2FC0028D8D043681B78CD
:10543000002BD4D104F00100D2E7384616F03AF838
:105440000028D6D090F8008046780221384616F021
:10545000FBF8D0E770B5064686B0080A0C46FFF7A1
:105460008FFF0546304616F0B1F8182303706B7AAB
:1054700043700B2383702B7AC370E3B2B3FA83F3C8
:105480005B09037100220823CDE90332AB89029343
:10549000EB790193AB790093411D02232A1D30461D
:1054A000FDF7F0FB06B070BD2DE9F04385B0044672
:1054B0004FF001081046894617468DF80D80FFF71A
:1054C0005FFF06462046FDF775FE044680B32421A3
:1054D00016F084F90546B9F1000F0BD043884BB1A3
:1054E0000DF10D020023F07900920193424606214E
:1054F000FCF790FFF079234600220821FDF77AFFA0
:10550000FF284FF0000616D0AB8BADF80E60012BD4
:1055100084BF6B89ADF80E30002301930DF10E03AB
:10552000009301231A4608213846FCF773FF012037
:1055300005B0BDE8F083204615F05CFF3046F7E784
:105540002DE9F04105468AB0104688461446FFF71B
:1055500017FF0646284615F0B7FF02284AD9284605
:1055600015F0A8FF0746002844D0411C02220DF187
:105570000D002AF086F93B788DF80C30032128467F
:1055800016F062F821462846FFF71AFF002845D09A
:105590002046FFF7B3FEBDF80D309AB23AB3ADF82E
:1055A0001A303378ADF81030214A9DF80C3086F867
:1055B0000280ADF81230737009921E4A07924FF4C0
:1055C0007F02002305924146224604A88DF8203030
:1055D0008DF81830FFF768FF00BB0024F1792846EA
:1055E00044EA0121FFF736FF0AB0BDE8F0814FF62B
:1055F000FF73D4E7104B1B68002BEED109F0CEF9F6
:1056000004460028E9D1009001464FF4E27340F6C9
:1056100018024FF0FF301BF007FBDFE7B37A0BB93E
:105620000124DBE7002DDFD0284615F0E3FEDBE7A1
:105630009553000077520000C83A0020F0B50646A6
:105640008BB010460F461446FFF79AFE05463046CB
:1056500015F03AFF01286CD9304615F02BFF0146B2
:10566000002866D0022203A82AF00BF90221304656
:1056700015F0EAFF21463046FFF7A2FE002865D06C
:105680002046FFF73BFE9DF80C30012B3DD8AF7054
:105690005BBBFF236B709DF80D10FF2927D14FF6E0
:1056A000FF73ADF81A302B782D4AADF810306B78B7
:1056B00009922C4A07924FF47F02ADF812300592FE
:1056C00000232246394604A88DF820308DF8183082
:1056D000FFF7EAFE002839D10024E979304644EA90
:1056E0000121FFF7B7FE0BB0F0BD0023D2E76A78C7
:1056F0002B789B1A002BB8BF5B420A22534393FBC3
:10570000F1F3002B08BF1346CBE7174B1B68002BA8
:10571000E2D109F043F904460028DDD100904FF4AE
:10572000147340F6180221464FF0FF301BF07CFA4C
:10573000D3E70D4B1B68002BCED109F02FF904469F
:105740000028C9D1009040F25723EAE7AB7A0BB9A1
:105750000124C2E7002EC6D0304615F04BFEC2E74A
:105760009553000077520000C83A0020F0B5054676
:105770008BB010460F461646FFF702FE0446284639
:1057800015F0A2FE032840F28880284615F092FE0C
:10579000002800F0828003788DF80C3002224378D4
:1057A0008DF80D3081180DF10E002AF06AF80421F1
:1057B000284615F049FF31462846FFF701FE00282C
:1057C00078D03046FFF79AFD9DF80CC0BCF1010F70
:1057D0004FD8A770BDF80E301BB94FF6FF73ADF868
:1057E0001A3023789DF80D109AB288B2BCF1000FE0
:1057F00037D10244FF2A2FD9FF22DB436270DBB28C
:10580000BDF80E2053439DF80D2093FBF2F30133B6
:10581000ADF81A3023782C4AADF81030637809922D
:105820002A4A07924FF47F02ADF812300592002306
:105830003246394604A88DF820308DF81830FFF72D
:1058400033FE002836D10026E179284646EA0121B8
:10585000FFF700FE0BB0F0BD0B446370BDF80E30D7
:10586000D6E7121A002A02DA00226270C8E75B1A31
:10587000F3E7174B1B68002BE5D109F08FF80646BC
:105880000028E0D100904FF4337340F618023146FF
:105890004FF0FF301BF0C8F9D6E70D4B1B68002B0B
:1058A000D1D109F07BF806460028CCD1009040F217
:1058B000D323EAE7A37A0BB90126C5E7002DC9D0A7
:1058C000284615F097FDC5E7955300007752000074
:1058D000C83A002070B51B2192B0044615F07EFF37
:1058E0001B22014604A829F0CCFF049B9DF81C0054
:1058F0008DF80700C3F30F23ADF804309DF81B307B
:105900008DF806309DF823308DF808309DF825304D
:105910008DF809309DF827308DF80A30089BC3F3C5
:105920000F23ADF80C30012200230821FEF762FBA3
:105930000546012208214EF6FF739DF80700FEF789
:1059400059FB6B689DF807001D78FFF719FD0A22C7
:1059500000F8045B01A929F094FF9DF80830072B9B
:1059600057D8DFE803F004111C270D1823279DF8F2
:10597000072000212046FFF7E3FD012012B070BD93
:105980009DF807200121F5E79DF80720002120461A
:10599000FFF754FEF1E79DF807200121F7E79DF896
:1059A000072000212046FFF7E1FEE6E79DF80720EB
:1059B0000121F7E70A21204615F010FF0A2201A96C
:1059C00029F05FFF1B2120469DF8075015F006FFC8
:1059D0001B2201460BA829F054FF2846FFF7D0FCF4
:1059E000294606462046FFF7EBFC10B12846FFF794
:1059F00085FCB37A3BB9F179090241F001012046F7
:105A0000FFF728FDB9E7002CB7D0204615F0F2FCCF
:105A1000B3E70020B2E70000FF2808B503D0BDE8D7
:105A20000840FFF757BFFDF7BDF9024BC0F85832E9
:105A3000012008BD700000202DE9F04F8BB0054615
:105A4000BDF854000690179807909DF860000890E4
:105A50009DF864009DF85060099008270220CDE968
:105A60000070029601208846914605939DF85840A3
:105A7000BDF868A09DF86CB0FDF7A6F918B1022832
:105A800004D9032826D00BB0BDE8F08F21010022F5
:105A900041F0010100925B4601F0F1012846FDF75B
:105AA00063F9089B0370099B4370514602301AF05A
:105AB0002AFA079BCDE91773069BCDE91563059B71
:105AC000149342464B46014628460BB0BDE8F04FC2
:105AD000FDF7D8B8210141F00101002422465B46C0
